S02900002E2E2F48414E636F6465725F453430375F5454415F436F6D62696E654D6F64656C2E73726563F8
S31508004000E4C90020698001080000000000000000E3
S315080040100000000000000000000000000000000092
S3150800402000000000000000000000000069490108C7
S315080040300000000000000000054A0108554A010872
S315080040400000000000000000000000000000000062
S315080040500000000000000000000000000000000052
S3150800406000000000C1580108000000000000000020
S315080040700000000000000000000000000000000032
S31508004080000000000000000000000000913D01084B
S31508004090493D01086D3D0108B53D010800000000D5
S315080040A0AD5801089958010885580108755801083E
S315080040B0615801084D5801083958010800000000E8
S315080040C000000000000000000000000000000000E2
S315080040D00000000039660108516601086966010892
S315080040E00000000000000000316701080000000021
S315080040F02558010811580108015801080000000058
S315080041000000000099660108000000000000000099
S315080041100000000000000000000000000000000091
S315080041200000000000000000000000009D66010875
S3150800413000000000F158010800000000213E0108B7
S31508004140D93D0108FD3D0108453E010861670108A2
S315080041500000000000000000000000008166010861
S315080041600000000000000000000000000000000041
S315080041700000000000000000000000000000000031
S311080041800000000000000000EE11AA5527
S3150800C000000000000000F03F000000000000F03FC4
S3150800C010000000C0CCCCF43F000000000000F03F58
S3150800C020383F070000042000100008000201000045
S3150800C030000000000A0A0A0048414E636F646572F0
S3150800C0405F453430375F5454415F436F6D62696EA4
S3150800C050654D6F64656C5F736F6674776172654969
S3150800C060445F76315F3036303632335F31313534BE
S3150800C070333700004170704374726C5461736B00FF
S3150800C08048414E636F6465725F453430375F545478
S3150800C090415F436F6D62696E654D6F64656C2E63B3
S3150800C0A000000000200000000014024008000900FB
S3150800C0B0200000000014024010000E0020000000BE
S3150800C0C00014024020000F00200000000014024067
S3150800C0D04000040020000000001402408000050013
S3150800C0E020000000001402400001060020000000A5
S3150800C0F0001402400002070020000000001402405D
S3150800C10000040800040000000008024001000A00BC
S3150800C110040000000008024004000C004144436388
S3150800C1206F6E76657273696F6E5461736B0000008B
S3150800C1302E2E2F626C6F636B7365742F7274772F54
S3150800C14053544D33322F7372632F686561705F34B1
S3150800C1502E630000546D724370754C6F6164000065
S3150800C16049444C45000000002E2E2F626C6F636B0D
S3150800C1707365742F7274772F53544D33322F73723D
S3150800C180632F7461736B732E630000002E2E2F626B
S3150800C1906C6F636B7365742F7274772F53544D33BA
S3150800C1A0322F7372632F74696D6572732E63000084
S3150800C1B0546D72205376630043616E4576656E74DE
S3150800C1C05461736B0000000043616E5472616E73B4
S3150800C1D06D69745461736B002E2E2F626C6F636BDE
S3150800C1E07365742F7274772F53544D33322F7372CD
S3150800C1F0632F53544D33325F453430372F63616EA6
S3150800C2002E630000006400400000000208000000E1
S3150800C210000C02400100000008000000000C02406B
S3150800C22002000100091314151600000000680040FA
S3150800C230000000040200000000040240200005007F
S3150800C240020000000004024040000600093F404189
S3150800C2504200000001010201020202020203020278
S3150800C2600402020303030403030503030603030589
S3150800C270040406040407040408040407050508055D
S3150800C2800508060508070508070608080608080732
S3150800C29008080800457643686E6C310045764368A1
S3150800C2A06E6C3200457643686E6C33002E2E2F6214
S3150800C2B06C6F636B7365742F7274772F53544D3399
S3150800C2C0322F7372632F53544D33325F45343037F0
S3150800C2D02F6D61632E6300002E2E2F626C6F636BC9
S3150800C2E07365742F7274772F53544D33322F7372CC
S3150800C2F0632F53544D33325F453430372F706F7286
S3150800C300742E6300000001400100000002010000D5
S3150800C3101000000000100240000209001000000092
S3150800C3200010024000080B00000400400200000054
S3150800C3300102000001000000000002404000060063
S3150800C340020000000004024020000500000800402A
S3150800C350040000000102000008000000000C024072
S3150800C36000100C0008000000000C024000200D0020
S3150800C370000401400200000002030000040000005F
S3150800C38000080240400006000400000000080240C1
S3150800C39080000700100000000010024000010000A5
S3150800C3A0010008001000000000100240000400010F
S3150800C3B001000A00100000000010024000100002F0
S3150800C3C001000C00000001400100000002011900F4
S3150800C3D0000000400100000001021C0000040040AB
S3150800C3E00200000001021D000008004004000000D1
S3150800C3F001021E00000401400200000002012C0098
S3150800C40000400140000001000201180000440140FC
S3150800C4100000020002011900004801400000040063
S3150800C42002011A00001C00408000000001022C00D6
S3150800C430002000400001000001022D00100000004D
S3150800C4400010024000020000010009001000000070
S3150800C450001002400008000101000B001000000057
S3150800C460001002400020000201000D00100000002C
S3150800C470001002400040000301000E000100000009
S3150800C4800000024020000100010005000100000034
S3150800C4900000024040000200020006000200000000
S3150800C4A00004024020000201020005000800000006
S3150800C4B0000C02400010030002000C0008000000F7
S3150800C4C0000C02400020030102000D0004000000D9
S3150800C4D000080240400004000300060004000000B3
S3150800C4E00008024080000401030007001000000055
S3150800C4F0001002402000050003000500100000009F
S3150800C500001002404000050103000600200000005C
S3150800C5100014024040000600030006002000000048
S3150800C52000140240800007000300070020000000F6
S3150800C530001402400001080009000800200000005D
S3150800C5400014024000020900090009000400000066
S3150800C550000802400100000020000000001402400C
S3150800C5604000000020000000001402408000000087
S3150800C5702000000000140240000100002000000016
S3150800C58000140240000200002000000000140240CF
S3150800C59000040000020000000004024080000000C1
S3150800C5A002000000000402404000000010000000E5
S3150800C5B000100240040000001000000000100240B5
S3150800C5C010000000100000000010024020000000CB
S3150800C5D0100000000010024040000000400000006B
S3150800C5E000180240800000004000000000180240C9
S3150800C5F00001000040000000001802400010000082
S3150800C6004000000000180240008000000100000001
S3150800C6100000024010000000020000000004024072
S3150800C6202000000001000000000002404000000059
S3150800C6300100000000000240200000000800000081
S3150800C640000C02400100000008000000000C024037
S3150800C6500200000008000000000C02400400000070
S3150800C66008000000000C0240080000000800000056
S3150800C670000C02401000000008000000000C0240F8
S3150800C6802000000008000000000C024040000000E6
S3150800C69008000000000C02408000000008000000AE
S3150800C6A0000C02400001000008000000000C0240D7
S3150800C6B00002000008000000000C02400004000010
S3150800C6C008000000000C02400008000008000000F6
S3150800C6D0000C02400010000008000000000C024098
S3150800C6E00020000008000000000C02400040000086
S3150800C6F008000000000C0240008000001000000046
S3150800C7000010024001000000100000000010024066
S3150800C710020000001000000000100240080000009F
S3150800C7201000000000100240800000001000000009
S3150800C7300010024000010000100000000010024036
S3150800C7400002000010000000001002400004000073
S3150800C7501000000000100240000800001000000051
S3150800C76000100240001000001000000000100240F7
S3150800C77000200000100000000010024000400000E9
S3150800C7801000000000100240008000002000000099
S3150800C79000140240010000002000000000140240BE
S3150800C7A002000000200000000014024004000000FF
S3150800C7B020000000001402400800000020000000CD
S3150800C7C0001402401000000020000000001402407F
S3150800C7D020000000200000000014024000080000AD
S3150800C7E02000000000140240001000002000000095
S3150800C7F0001402400020000020000000001402403F
S3150800C80000400000200000000014024000800000E4
S3150800C810400000000018024001000000400000002F
S3150800C8200018024002000000400000000018024004
S3150800C8300400000040000000001802400800000044
S3150800C84040000000001802401000000040000000F0
S3150800C85000180240200000004000000000180240B6
S3150800C86040000000400000000018024000020000DE
S3150800C87040000000001802400004000040000000CC
S3150800C880001802400008000040000000001802409E
S3150800C8900020000040000000001802400040000090
S3150800C8A00100000000000240010000000400000032
S3150800C8B000080240010000002000000000140240A9
S3150800C8C04000000020000000001402408000000024
S3150800C8D020000000001402400001000020000000B3
S3150800C8E0001402400002000020000000001402406C
S3150800C8F0000400000200000000040240800000005E
S3150800C9000200000000040240400000001000000081
S3150800C9100010024004000000100000000010024051
S3150800C9201000000010000000001002402000000067
S3150800C9301000000000100240400000004000000007
S3150800C9400018024080000000400000000018024065
S3150800C950000100004000000000180240001000001E
S3150800C960400000000018024000800000010000009E
S3150800C970000002401000000002000000000402400F
S3150800C98020000000010000000000024040000000F6
S3150800C990010000000000024020000000080000001E
S3150800C9A0000C02400100000008000000000C0240D4
S3150800C9B00200000008000000000C0240040000000D
S3150800C9C008000000000C02400800000008000000F3
S3150800C9D0000C02401000000008000000000C024095
S3150800C9E02000000008000000000C02404000000083
S3150800C9F008000000000C024080000000080000004B
S3150800CA00000C02400001000008000000000C024073
S3150800CA100002000008000000000C024000040000AC
S3150800CA2008000000000C0240000800000800000092
S3150800CA30000C02400010000008000000000C024034
S3150800CA400020000008000000000C02400040000022
S3150800CA5008000000000C02400080000010000000E2
S3150800CA600010024001000000100000000010024003
S3150800CA70020000001000000000100240080000003C
S3150800CA8010000000001002408000000010000000A6
S3150800CA9000100240000100001000000000100240D3
S3150800CAA00002000010000000001002400004000010
S3150800CAB010000000001002400008000010000000EE
S3150800CAC00010024000100000100000000010024094
S3150800CAD00020000010000000001002400040000086
S3150800CAE01000000000100240008000002000000036
S3150800CAF0001402400100000020000000001402405B
S3150800CB00020000002000000000140240040000009B
S3150800CB102000000000140240080000002000000069
S3150800CB20001402401000000020000000001402401B
S3150800CB302000000020000000001402400008000049
S3150800CB402000000000140240001000002000000031
S3150800CB5000140240002000002000000000140240DB
S3150800CB600040000020000000001402400080000081
S3150800CB7040000000001802400100000040000000CC
S3150800CB8000180240020000004000000000180240A1
S3150800CB9004000000400000000018024008000000E1
S3150800CBA0400000000018024010000000400000008D
S3150800CBB00018024020000000400000000018024053
S3150800CBC0400000004000000000180240000200007B
S3150800CBD04000000000180240000400004000000069
S3150800CBE0001802400008000040000000001802403B
S3150800CBF0002000004000000000180240004000002D
S3150800CC000400000000080240002000000000014067
S3150800CC100100000002011B000000004001000000A6
S3150800CC2001021C00000400400200000001021D0071
S3150800CC30000800400400000001021E000004014034
S3150800CC400200000002012E00004001400000010021
S3150800CC500201180000440140000002000201190008
S3150800CC60004801400000040002011A00001C0040B0
S3150800CC708000000001022C00002000400001000096
S3150800CC8001022D0010000000001002400002000002
S3150800CC900200020001000900100000000010024016
S3150800CCA0000800010400200001000B00100000002D
S3150800CCB000100240002000020800000201000D00DA
S3150800CCC01000000000100240004000031000002081
S3150800CCD001000E00010000000000024020000100D3
S3150800CCE002000200010005000100000000000240E9
S3150800CCF040000200020002000200060002000000D6
S3150800CD000004024020000201040020000200050081
S3150800CD1008000000000C0240001003000200020098
S3150800CD2002000C0008000000000C0240002003016D
S3150800CD300400200002000D00040000000008024064
S3150800CD404000040002000200030006000400000080
S3150800CD5000080240800004010400200003000700C8
S3150800CD60100000000010024020000500020002002A
S3150800CD7003000500100000000010024040000501F5
S3150800CD8004002000030006002000000000140240F2
S3150800CD904000060002000200030006002000000012
S3150800CDA0001402408000070002000200030007008A
S3150800CDB020000000001402400001080002000200E2
S3150800CDC009000800200000000014024000020900C3
S3150800CDD002000200090009000010014010000000CE
S3150800CDE00225000002000000000402404000060080
S3150800CDF0020000000004024080000700070000004F
S3150800CE00004400400000020001260000080000005F
S3150800CE10000C02402000050008000000000C02403B
S3150800CE20400006000700000000480040000004001B
S3150800CE300127000008000000000C0240000108005D
S3150800CE4008000000000C024000020900070000006C
S3150800CE500014014020000000024700000400000002
S3150800CE6000080240400006000400000000080240D6
S3150800CE70800007000800000056435020436F6E6686
S3150800CE806967000056435020496E7465726661638F
S3150800CE906500000053544D6963726F656C65637471
S3150800CEA0726F6E696373000053544D3332205669AE
S3150800CEB0727475616C20436F6D506F727420696E61
S3150800CEC0204853206D6F64650000000053544D33AD
S3150800CED032205669727475616C20436F6D506F729B
S3150800CEE07420696E204653204D6F6465000000006B
S3150800CEF030303030303030303035304200000000CD
S3150800CF0030303030303030303035304300000000BB
S3150800CF10000001400100000002011B000000004063
S3150800CF200100000001021C0000040040020000008D
S3150800CF3001021D00000800400400000001021E0056
S3150800CF40000401400200000002012E0000400140DA
S3150800CF500000010002011800004401400000020020
S3150800CF6002011900004801400000040002011A00ED
S3150800CF70001C00408000000001022C000020004038
S3150800CF800001000001022D00100000000010024000
S3150800CF900002000002000200010009001000000063
S3150800CFA000100240000800010400200001000B00E8
S3150800CFB010000000001002400020000208000002D5
S3150800CFC001000D00100000000010024000400003A0
S3150800CFD01000002001000E000100000000000240C1
S3150800CFE02000010002000200010005000100000007
S3150800CFF00000024040000200020002000200060093
S3150800D0000200000000040240200002010400200083
S3150800D0100200050008000000000C02400010030092
S3150800D0200200020002000C0008000000000C02408A
S3150800D030002003010400200002000D000400000087
S3150800D0400008024040000400020002000300060037
S3150800D05004000000000802408000040104002000CB
S3150800D0600300070010000000001002402000050021
S3150800D0700200020003000500100000000010024034
S3150800D08040000501040020000300060020000000FF
S3150800D09000140240400006000200020003000600D9
S3150800D0A02000000000140240800007000200020071
S3150800D0B003000700200000000014024000010800D9
S3150800D0C002000200090008002000000000140240C7
S3150800D0D00002090002000200090009002E2E2F6234
S3150800D0E06C6F636B7365742F7274772F53544D335B
S3150800D0F0322F7372632F71756575652E6300000094
S3150800D1000404040014D100081CD1000824D1000826
S3150800D11007070700457643686E6C31004576436815
S3150800D1206E6C3200457643686E6C33005050500082
S3150800D1304FBB610567ACDD3F182D4454FB21E93F21
S3150800D1409BF681D20B73EF3F182D4454FB21F93F10
S3150800D150E2652F227F2B7A3C075C143326A6813C96
S3150800D160BDCBF07A8807703C075C143326A6913C41
S3150800D170FB21F93FFB2109407CD91240FB211940CC
S3150800D1807A6A1F407CD92240BBFD2540FB212940F5
S3150800D1903A462C407A6A2F405C4731407CD9324067
S3150800D1A09C6B3440BBFD3540DB8F3740FB21394053
S3150800D1B01BB43A403A463C405AD83D407A6A3F400A
S3150800D1C04C7E40405C4741406C1042407CD942400E
S3150800D1D08CA243409C6B4440AC344540BBFD454063
S3150800D1E0CBC64640DB8F4740EB584840FB214940B9
S3150800D1F083F9A200444E6E00FC291500D15727007A
S3150800D200DD34F50062DBC0003C999500419043008F
S3150800D2106351FE00BBDEAB00B761C5003A6E240061
S3150800D220D24D42004906E00009EA2E001C92D100C0
S3150800D230EB1DFE0029B11C00E83EA700F53582006B
S3150800D24044BB2E009CE98400B4267000417E5F0032
S3150800D250D6913900538339009CF439008B5F8400DA
S3150800D26028F9BD00F81F3B00DEFF97000F98050060
S3150800D270112FEF000A5A8B006D1F6D00CF7E360006
S3150800D28009CB2700464FB7009E663F002DEA5F0090
S3150800D290BA277500E5EBC7003D7BF100F7390700B3
S3150800D2A092528A00FB6BEA001FB15F00085D8D0091
S3150800D2B0300356007BFC4600F0AB6B0020BCCF0069
S3150800D2C036F49A00E3A91D005E619100081BE6008A
S3150800D2D085996500A0145F008D40680080D8FF001E
S3150800D2E027734D0006063100CA561500C9A87300F3
S3150800D2F07BE260006B8CC00000000040FB21F93F18
S3150800D300000000002D44743E000000809846F83C5A
S3150800D3100000006051CC783B00000080831BF03988
S3150800D3200000004020257A38000000802282E3367B
S3150800D330000000001DF3693502000000030000002C
S30D0800D3400400000006000000CD
S31508010000002A2CDD01231A460130C0B2022802D982
S315080100100A700020704791F800C010B5164C0CF014
S31508010020030E04EB8E0E154C1EF80330205C0342BA
S3150801003012D01CF0080F4FEA9C000BD1C40613D44A
S3150801004042EA830213F0380F0A7018BF4FF0FF30E7
S315080100500DD010BD5C07F1D50A70002010BD9217AE
S3150801006002F002021346CFE79806F5D4E8E713F043
S31508010070070018BF012010BD24C0000820C00008D1
S315080100800B78FF2B00D070474B78002BFBD101F082
S31508010090EBBF00BF08B5012001F094F9BDE808409F
S315080100A0024A40F26761002004F034B88100010871
S315080100B000F052B9704700BF2DE9F041224D234A9D
S315080100C0AB7A234C1370002B3AD094F8A130013344
S315080100D0DBB2204994F8A4200B701F491F4E84F8FF
S315080100E0A1309A420A7094BF4FF001084FF00008F8
S315080100F017D8737B012B14D0194B94F8A370D3E945
S3150801010000010CF0A9FAC0B2B84288BF7B1C154A97
S315080101108CBFDBB2012384F8A3301370002384F863
S31508010120A130072086F80D8006F07CFD00F57A706F
S3150801013081B269800322BDE8F041072006F0C6BCFA
S3150801014094F8A130C5E700BFD0020020690200205B
S3150801015030030020B00200206E0600206006002051
S31508010160480000206F060020704700BF20B91A78A2
S315080101700AB118707047704730B5094D83B0012030
S3150801018014460022187000922B46104603F07EFF93
S31508010190002803DD6B782A782270637003B030BDBE
S315080101A08C0200202DE9F0412DED048B537A09EEDE
S315080101B0100ABCB00F460BB100235372D56A2B68DF
S315080101C0012B5FD0DFED498A012305F10C08B7EE53
S315080101D0008A0026EC222B602B713146C5ED028A76
S315080101E085ED3E8AC5ED3F8A404601AC0CF03EFBE3
S315080101F0EC22414620460CF09FFA79EE287AF0EE79
S31508010200689AC7ED008A3CAB03EB860313ED3B7A8C
S3150801021077EE876AB6009FED367A06F1F003B4EEFB
S31508010220478A0DEB0306F1EE10FA06ED3B9A4CD020
S31508010230B7EE007A38EE078AF5EE409AF1EE10FA33
S3150801024005D19FED2C6A86EE867A87ED007AC5ED93
S31508010250027AEC22214640460CF06EFAF5EEC09A77
S31508010260F1EE10FAC6BFF7EE007A79EEE77ADFED1E
S315080102701F7A85ED3E8AC5ED3F7A3CB0BDEC048B0D
S31508010280BDE8F08195ED3E8AD5ED028AD5ED3F9A16
S31508010290FDEEC87A05F10C0801ACEC224146204670
S315080102A017EE906A0CF048FA9FED107AF4EE479A29
S315080102B0F1EE10FA78EE897A06F1FF3687ED007AC3
S315080102C0A1D0F0EE476AB600A5E73BAB73ED017A1C
S315080102D093ED017A77EE877A9C42C3ED007AF5D1E0
S315080102E0DFED027AB7EE008AA6E700BF000000003C
S315080102F000006C4200007042F8B50446DDE9075675
S3150801030010B13078012801D13470F8BD92F800C0D7
S31508010310069A85F800C012880698120A2A81D2B26E
S315080103206A7090F800E085F802E01888000AE8800B
S31508010330C0B2E8701F78074B2F7118709A705F70FA
S3150801034083F803E083F804C00522002003F06EFC5D
S315080103503470F8BD940200202DE9F04F2DED088B7D
S31508010360D74C8DB0D4E92001002200230CF01AF9EC
S31508010370002840F0C58394F8AE30002B40F09682F1
S31508010380D0490023D1E9000100220CF00BF994F8B9
S31508010390A23010B9032B40F28C8294F8A5200021D3
S315080103A0521A069118BF01220591C749DFF85CA3C5
S315080103B009788AF80A20002900F02A83DFF850B361
S315080103C007EE903A9BF80030F8EEE76A07EE903AA6
S315080103D0F8EEE77AB0EE007AF4EE477A0126F1EE06
S315080103E010FA84F8A96040F0A083F7EE007AF4EEDB
S315080103F0676AF1EE10FA00F06082B44BB44D1968E1
S31508010400B44B30460AF15802FFF7B0FE00232B73AE
S315080104109BF8003007EE903A94F8A230F8EEE77AA6
S31508010420F0EE086A07EE103AF4EE667AF1EE10FA83
S31508010430B8EEC77A40F07083F7EE007AB4EE677AC1
S31508010440F1EE10FA00F04F82A34BA44A1968A44BA7
S315080104500120FFF78BFE0023EB729BF8003094F81E
S31508010460A220012B00F05A8294F8AD20002A40F010
S31508010470D2849C4900220A7007EE903AF8EEE77A90
S31508010480B1EE047AF4EE477AF1EE10FA6A7240F0A8
S31508010490DA852B7A012B40F01985B1EE047AF4EE50
S315080104A0477A0123F1EE10FA2B7240F0C185EB79F8
S315080104B0012B00F05D82D4E922018B4BC3E90001CF
S315080104C00AF068F9894BD3E904230BF003FE0022ED
S315080104D0874B0BF0FFFD874BB4F89A6041EC1B0B79
S315080104E0B4F89C001880844B301A1E80834B80B266
S315080104F018800BF075FD804689460AF001F9024617
S315080105000B464046494643EC1A2B0AF029F87C4B20
S3150801051041EC190B002251EC1B0B0BF0DBFD53ECE4
S315080105201A2B0BF0D7FD62A3D3E90023804689462F
S3150801053051EC190B0BF0CEFD02460B4640464946D7
S315080105400BF012FC02460B46304643EC182B0BF017
S3150801055047FD02460B46002000210BF003FC694BC0
S3150801056080468946C3E9008951EC190B644B002280
S315080105700BF0B0FD53EC1B2B0BF0ACFD4CA3D3E9F0
S31508010580002306460F4651EC1A0B0BF0A3FD024653
S315080105900B46304639460BF0E5FB544B0F461946D8
S315080105A00646D3E90223D1E900010BF093FD324651
S315080105B03B460BF08FFD06460F46404649460AF074
S315080105C09FF802460B464046494643EC192B09F06B
S315080105D0C7FF002280468946002351EC180B0BF011
S315080105E0EBFF002840F05F8651EC180B0022002330
S315080105F00CF000F8002800F0A8869FED2F7BB0EEDE
S3150801060047BAF0EE67BA3E4B0022404649460BF020
S3150801061061FD32463B460BF05DFD47EC1A6B53EC28
S31508010620192B06460F4651EC180B0BF053FD0246E3
S315080106300B46304639460BF095FB2C4B0646D3E95B
S3150801064006230F4651EC1B0B0BF044FD02460B46E5
S31508010650304639460BF03EFD2B4B00220BF03AFD96
S31508010660274B06460F46002251EC1A0B0BF032FDBA
S3150801067053EC192B0BF02EFD42464B468046894614
S3150801068051EC180B0BF026FD02460B46404649462F
S315080106900BF06AFB0B460246394630460BF044FE20
S315080106A00BF0FAFF0BF0BEFC34E000BFAFF300809D
S315080106B0000000C0CCCCF43F000000000000F03F71
S315080106C030030020080000206902002010000020E5
S315080106D0600600205D060020140000202603002085
S315080106E05C06002068020020C802002000C000083D
S315080106F00000D03F7A060020780600205802002024
S31508010700000010405002002000000840D0020020DE
S315080107106F06002009F098FD0BF0BEFFA84B07EE07
S31508010720900A1860637AF0EEE76A0BB100236372E8
S31508010730E26A1368012B00F071859FEDA27A012305
S3150801074036EE879A13601371F7EE007AB0EE478A90
S315080107508DED097A8DED0A7A8DED0B7A00230CA9B8
S3150801076001EB830111ED037A39EE077A9B003033E9
S315080107706B4443ED036AF0EE086AF4EE667AF1EE2D
S3150801078010FA00F03B85F7EE008A77EEA88ADDEDD0
S315080107900BAA9DED09AADDED0A9AB5EE408AF1EE9E
S315080107A010FA40F0BF84F5EE007A27EE277ADFEDDE
S315080107B0867A079267EE277A17EE900A0BF032FCD3
S315080107C08046894609F020FF079A06460F46B5EE88
S315080107D0C08AF1EE10FAC6BFF7EE007A38EE678ADC
S315080107E09FED788A794B82ED029AC3E9008982EDF9
S315080107F003AAC2ED049AC2ED05AAC2ED068A82EDE4
S31508010800078AD4F890000BF0FBFB69A3D3E9002310
S315080108100BF060FCDFF8F4C102460B46CCE9002375
S3150801082009F0F2FE02460B46304639460BF09AFAB3
S3150801083094ED167B664A674BB0EE478AF0EE678AF7
S315080108408046894621F00047C2E90089B0EE47AAE9
S31508010850F0EE67AAD3E90023394606460BF03AFCBF
S3150801086053EC182B0BF080FA02460B4643EC182B77
S3150801087051A3D3E90023B0EE489AF0EE689A0BF03B
S31508010880B9FE002840F0208451EC180B0022002301
S315080108900BF092FE002840F04E8551EC180B0BF038
S315080108A0DBFE00F5FA7083B200F010BC84F8AE00E6
S315080108B066E50122CDE9052277E5474F474D484BC5
S315080108C039680AF158020020FFF750FC2B7B012BEF
S315080108D03FF49DAD434B396800201870324603F04A
S315080108E0A5F9334693E5404E404B414A316800200D
S315080108F0FFF73CFCEB7A012B3FF4AEAD394B31687F
S3150801090000201870012203F091F90123EB729BF87C
S31508010910003094F8A220012B7FF4A6AD012A00F03D
S31508010920D48484F8AD30334E334B002219680092D3
S315080109301046334603F0AAFB021E02DD3388AAF8E5
S3150801094054302E490120FFF75BFB48B19AF8543021
S3150801095084F8A430022384F8A130012384F8A33053
S315080109609BF8003085E56B72F7EE007A00232B724F
S31508010970EB7194F8A230F1EE086A07EE103AF4EE3C
S31508010980667AF1EE10FAB8EEC77A40F0D980F0EE41
S31508010990007AB4EE677AF1EE10FA00F04582184E45
S315080109A0184B194A31680120FFF7E0FB0020CFE018
S315080109B0000080999999B93F0000000000C0724073
S315080109C0AC02002000000000666636427006002070
S315080109D0A002002050000020100000206006002020
S315080109E05D06002094020020140000205C06002009
S315080109F0260300206C020020180000206A06002049
S31508010A0020000020E003002018030020B80200207F
S31508010A1094F8A92082B394F82D230AB184F82D13EA
S31508010A2094F82C2312B1002284F82C2394F8AD20D3
S31508010A3012B1002284F8AD2094F8B02012B1002238
S31508010A4084F8B02094F8AF2012B1002284F8AF20C0
S31508010A5094F8AC2012B1002284F8AC2094F8AB20AB
S31508010A6012B1002284F8AB2094F8AA20002A40F09B
S31508010A70E481002284F8A9209A4D059A4AB16A7838
S31508010A80012A06D0984A127884F8A420002284F80C
S31508010A90A120069A6A70032B04D994F8A520002A86
S31508010AA000F0A18294F8A83013B1002384F8A83085
S31508010AB00E2005F0F5F90546003D4FF00F0018BF69
S31508010AC0012505F0EDF900B10235102005F0E8F928
S31508010AD008B10435EDB284F8A25001F0C7FA834B88
S31508010AE0187001F0C9FA824B024682481A6001F071
S31508010AF0C5FA814B18600DB0BDEC088BBDE8F08FC7
S31508010B007E4F0026012103220720C4E9206784F8C5
S31508010B10AE1005F0DBFF33E4794B7A4A19687A4B54
S31508010B200020FFF723FB002396E4784B6D4D1968E7
S31508010B30774B0AF158020020FFF718FB002366E4F9
S31508010B40744E754B754A31680020FFF70FFB00207C
S31508010B503168734B734E0293734B01930096331F9F
S31508010B6006F10902FFF7C8FB9BF8003008EE103AB8
S31508010B7094F8A230B8EEC88AF1EE0C7A08EE903AEB
S31508010B80B4EE678AF1EE10FAF8EEE88A3AD1F0EE99
S31508010B90087AF4EE678AF1EE10FA0CBF01200020FC
S31508010BA0624B634ADFF8A881624F02920096019769
S31508010BB003F10D02D8F80010FFF79EFB9BF80030F1
S31508010BC007EE903A94F8A230F8EEE77AF1EE006A69
S31508010BD007EE103AF4EE667AF1EE10FAB8EEC77A35
S31508010BE012D1F7EE007AB4EE677AF1EE10FA00F058
S31508010BF02881BA1E504F514B39680120FFF7B6FAC2
S31508010C00002009E00020CBE7BA1E4B4F4B4B396851
S31508010C100020FFF7ABFA0020444B494A3968029293
S31508010C20484A0192009603F10D02FFF765FBF1EEC2
S31508010C300C7AB4EE678AF1EE10FA07D1F0EE087A6B
S31508010C40F4EE678AF1EE10FA40F0BA8194F8AC3006
S31508010C5013B1002384F8AC309BF8003007EE903AC4
S31508010C6094F8A230F8EEE77AF2EE006A07EE103A47
S31508010C70F4EE667AF1EE10FAB8EEC77A6CD1F1EEB7
S31508010C80007AB4EE677AF1EE10FA00F016810022C6
S31508010C90DFF8C0802C4F0092012384F8AB30396805
S31508010CA04346104603F0F2F9002840F3048398F806
S31508010CB0002098F801308AF822208AF82330120297
S31508010CC01344AAF824209BB24FF2C95202FB03F33C
S31508010CD01E49C3F3405202EB93530B80A4F89A3092
S31508010CE000203FE060060020580000205A0200203C
S31508010CF05C02002074C00008600200200000F03F7A
S31508010D0014000020260300205C06002010000020A5
S31508010D105D06002020000020E003002018030020C3
S31508010D2066060020C80300200E030020C403002025
S31508010D3065060020040300201C000020DF030020B4
S31508010D4064060020F8020020280000207E06002004
S31508010D50240000207C02002094F8AB30002B5FD1E0
S31508010D60BF4F0020BF4BC04A009639680292BF4A5E
S31508010D70019203F10D02FFF7BFFA9BF8003007EE67
S31508010D80903A94F8A230F8EEE77AB2EE027A06EED5
S31508010D90903AF4EE477AF1EE10FAF8EEE66A31D1B6
S31508010DA0F1EE047AF4EE676AF1EE10FA52D0B04B1E
S31508010DB0B04E19680022012384F8AA3000923346FE
S31508010DC0104603F063F9002840F37A823278737883
S31508010DD08AF814208AF8153012021344AAF8162044
S31508010DE09BB24FF2C95202FB03F3A349C3F3405224
S31508010DF002EB93530B80A4F89C3094F8A23000229E
S31508010E00AA703AE694F8AA20002AF8D0002284F8B3
S31508010E10AA200022F4E7002284F8AD20FFF729BBB7
S31508010E20002384F8AB309BE7944E954B954A31687D
S31508010E300020FFF79BF901208AE6002284F8AA2000
S31508010E4017E6BA1E904F914B39680020FFF78EF9C5
S31508010E500120E1E694F8AA20002A40F06082AA78E7
S31508010E60012ACDD0B4F898208AF80620120AAAF8E1
S31508010E7012208AF80520B4F894208AF80820120A64
S31508010E80AAF810208AF80720B4F89820804B52BA9D
S31508010E905A80B4F8942052BA1A80754A116894F89F
S31508010EA0A1201A718AF804200020052202F0BEFE4C
S31508010EB0012294F8A230AA70DFE594F8AB3013B199
S31508010EC0002384F8AB30664F01204BE7002104204C
S31508010ED000F006FE07EE900A6E4B6F4A1880F8EE90
S31508010EE0677A6E4917EE900AFFF75CF9DAED147A1C
S31508010EF06B4AFCEEE77A002117EE903A05209BB281
S31508010F001380A4F8943000F0EBFD07EE900A654BC8
S31508010F10654A1880F8EE677A644917EE900AFFF772
S31508010F2041F9DAED137A624A6249FCEEE77A17EE7D
S31508010F30903A9BB20B80A4F89830D2E9000146A3F7
S31508010F40D3E900230BF0C6F89AF80B30C4E922015D
S31508010F50002B40F0F681012004F0F0FB0022C4F8D2
S31508010F6090000023D4E918010BF026FB0038B4F8E9
S31508010F70A630B4F89610AAF80C3018BF01208AF8E2
S31508010F800B00002200231020AAF80010C4E9182338
S31508010F9004F062FE9AF80C1001B101210A2004F04E
S31508010FA0CDFF9AF80D1001B101210B2004F0C6FFFF
S31508010FB09BF8003007EE903AF8EEE77AFFF76DBA3C
S31508010FC03D4FD8F800100022012384F8AC30009276
S31508010FD03B46104603F05AF800287FF73DAE3B889A
S31508010FE0AAF8263038E6354D354B012184F8A81084
S31508010FF01046196800922B4603F048F8021EC8BF2E
S315080110002B883049C8BFAAF80E300120FEF7F8FF31
S3150801101000283FF44DAD01239AF80E1084F8A41068
S31508011020002284F8A12084F8A53084F8A3303FE58E
S31508011030B2EE047AF4EE477AF1EE10FA18BF0023FD
S315080110403FF435AA94E4B2EE047AF4EE477AF1EE67
S3150801105010FA3FF41EAA89E4000000401BB98E3F2E
S3150801106028000020C403002063060020E8020020AF
S315080110702C00002084020020800600202000002089
S31508011080E0030020180300201C000020DF030020D5
S31508011090940200206402002020050020200300207D
S315080110A0C002002066020020E40300201C03002081
S315080110B038000020C2020020740200206C020020C1
S315080110C018000020600600204FF44873B24AB3495D
S315080110D0A4F896300B8092ED008B00230022494636
S315080110E040460BF087FAAE4B021E18BF01221A7052
S315080110F0079251EC180B32463B460BF05DFAB8B134
S3150801110040464946002200230BF074FA002800F0F5
S315080111100A81A44B4FF0000883F80080012384F864
S31508011120A63018E000260027B046B946FFF74FBBA0
S31508011130079B83F001089B4B83F80080002384F802
S31508011140A63051EC180B32463B460BF035FA00280F
S3150801115008BF4FF0000884F8A78059EC198B88A3BB
S31508011160D3E9002319EE100A49460BF043FA002881
S3150801117000F0868019EE100A81A3D3E900234946B7
S315080111800AF0F0FD41EC190B874B3046D3E90023F1
S3150801119039460AF09FFF0022002306460F4651EC06
S315080111A0190B0BF027FA00220023002800F0D5803E
S315080111B0304639460BF01EFA002840F0DE803246EA
S315080111C03B4651EC1A0B0AF0CFFDDFF8F4914FF0CC
S315080111D0000806460F4642464B46C4E916670BF019
S315080111E0FFF9002839D09BF8003007EE903AC4E998
S315080111F01689F8EEE77A0123FFF7BABBDDED0BAAEC
S31508011200DDED0A9A9DED09AA9FED689A7AEEA99AEB
S31508011210F7EE008A39EE8AAAFFF7BFBAD2ED067A47
S31508011220136992ED078A0A93BDEEE77A536992ED3F
S31508011230029A0B93B5EE408A17EE103AD1680991D6
S31508011240F1EE10FA36EE899A03F1FF333FF487AAD5
S315080112509FED567A9B00FFF78ABA30463946002633
S31508011260002732463B460BF0B1F9002866D19BF8B8
S31508011270003007EE903A0123F8EEE77AFFF778BBDC
S3150801128051EC190B002200230BF0AAF900283FF4B0
S315080112907BAF454B30463946D3E900230AF01AFF9E
S315080112A006460F468BE79FED387BB0EE47BAF0EE60
S315080112B067BAFFF7A8B99AF822209AF82330FEE40C
S315080112C09AF814209AF8153086E594F8AD3013B1DA
S315080112D0002384F8AD306B7A354E01229342327081
S315080112E03FF441AB334B344F5A70B4F89E203A80E1
S315080112F00132A4F89E20314994F8A4201A700020DE
S315080113008AF809204FF080725A60588008220968C5
S3150801131002F08CFC32789BF80030FFF7ADB800225A
S3150801132084F8AA209BE51F4B84F8A6004FF0010814
S3150801133083F800800FE74FF4FA73C7E6C4E9166726
S3150801134095E7012004F00AFA05E69FED117BB0EE58
S3150801135047BAF0EE67BAFFF756B9304639460BF089
S3150801136049F900287FF42BAF51EC190B0022002311
S315080113700BF018F900287FF422AF002600271EE794
S315080113800000000000C07240000000000000F0BF2D
S31508011390000000000000000030000020B20200201A
S315080113A0A80200209C020020400000200000000046
S315080113B068020020940200207C0600201800002004
S315080113C000005940F0B5082185B0402002F06AF9BD
S315080113D0002002F0E7FD7849784F794C032005F0A3
S315080113E0B9FA7849072005F04BFC774B00201968B4
S315080113F002F020FE754B0020196802F01BFE002042
S315080114000546396802F016FE29460420012600F031
S31508011410E5FA04F50A7329460520C4F81C32C4E91D
S31508011420886684F8F05184F82863C4F82852C4F809
S31508011430F461A4F8F86100F0D1FA2346294643F885
S31508011440EC5F3046C4F8E030C4E9396684F8B45034
S3150801145084F8EC61C4F8B860A4F8BC6004F0E6F856
S3150801146031460A2004F038FD31460B2004F034FDDC
S315080114702A4642F60D01092004F08CFA544909203E
S3150801148004F030FC2A462946102004F015FB2346B1
S31508011490284643F8385FE3624E4B25701968666043
S315080114A0C4E90C66268102F0C5FD4B4B284619682E
S315080114B002F0C0FD494B2846196802F0BBFD484BAE
S315080114C02846196802F0B6FD464B2846196802F007
S315080114D0B1FD3968284602F0ADFD02210E2004F05F
S315080114E0A9FC02210F2004F0A5FC0221102004F01A
S315080114F0A1FC4FF4197000F0C5FB4FF47A7000F0A7
S31508011500B5FB642000F03EFB2B498DF80C5001AA6F
S315080115102846CDE9015502F053F9B04204D03248C4
S3150801152040F6AF0100F022FE3049032005F096FB94
S3150801153002F0A4FE02F0ACFE2D4B2E492E4A9A600B
S315080115404FF00130C3E90010D4F81C5240F20112E1
S315080115509A812B68012B0DD10026EC22AE60002161
S3150801156005F10C000BF082F94FF07E53C5F8F830FF
S31508011570C5F8FC60D4F8E0502B68012B0DD1002684
S31508011580EC22AE60002105F10C000BF06FF94FF06B
S315080115907E53C5F8F830C5F8FC60E36A1A68012A73
S315080115A008D100224FF07E519A60DA601A615A61B9
S315080115B09961DA6105B0F0BD40420F0018000020BC
S315080115C030030020B9000108100000201400002093
S315080115D0B5000108200000201C000020240000207E
S315080115E0280000202C00002080C00008690101089D
S315080115F0600600200301010101010301454B1B7827
S31508011600012B00D070472DE9F041434A1378012B8D
S3150801161096B005D0414803F06FFB16B0BDE8F081DE
S315080116203F4E0024334614705A78E5B203331AB193
S3150801163001340A2CF8D125463A4803F049FE4FF001
S3150801164080603949394A07904FF480634FF4006046
S3150801165008914FF4005100270B94099201244FF485
S3150801166080720D930E904FF480330F912D4810928E
S3150801167007A911930A970C971297CDE91477139432
S3150801168003F0BCFE2146274803F0E4FE03F09CFA6A
S3150801169001A9224801978DF808408DF80970CDE90E
S315080116A0037705978DF8185003F09CFABDB1013DF3
S315080116B0EDB2DFF88080194F023504EB440232445B
S315080116C0032312F8032C02EB420208EB8201384687
S315080116D0E2B2897A013403F0C9FAAC42EDD10020AD
S315080116E003F0C2FE012003F0CDFE012003F0D8FE6F
S315080116F00F4A0A48136843F400531360012103F0A3
S315080117000BFB0121054803F0FDFA0121034803F00B
S31508011710A3FA7FE761000020600000200022014053
S3150801172084060020106402404C220140A4060020D1
S3150801173000700040A4C000082DE9F04FA34B1B68B8
S3150801174097B0002B00F0F180A14B019303F11E091C
S315080117509F4DCDF8009004E0009B03359D4200F0B3
S31508011760B880AB78002BF7D06B78002BF4D0994B67
S315080117701B78002BF0D0954A95F800801768013B35
S31508011780DBB207F14C064C2212FB0369AA4604E0B8
S31508011790B145374600F097804C3639784145F7D13F
S315080117A0019B002404E001340A2C03F1030305D04C
S315080117B05A78012AF7D11A788A42F4D14C22394645
S315080117C003A80AF0B9FFB86C049A7D6CC30602F047
S315080117D078418B4200F08E804FF0000C9B4600E06A
S315080117E08C460CF10101C9B216AB03EB810353F820
S315080117F0483C03F0784EF345F2D10CF1020C0B2963
S315080118009E465FFA8CFC5B4669D90E2910D80FFAF9
S315080118108CF103AA02EB810100E094464A6841F87B
S31508011820042BBCF10E0F0CF10102D2B2F5D9049AC0
S31508011830694931F814C022F07842CCF30B0C6FF0E9
S3150801184078419445139160D900240134E4B216AA6B
S3150801185002EB8402A64652F8482C22F078429445B7
S31508011860F3D80B2C38D8032C0F9A98BF079922F076
S315080118707842A5EB020296BF21F078410CEB0205EE
S315080118808D18C4F10E0412AAE4B2A2EB840413AAB9
S3150801189052F8041D51609442FAD1441C16AA102C20
S315080118A002EB8E0E28BF002443EA0C03384603A92F
S315080118B04C224EF8483CCDE914540AF03DFFB14597
S315080118C037467FF469AF5546009B03359D427FF441
S315080118D048AF17B0BDE8F08F0E2CD2D9DDE7109AC4
S315080118E0032922F0784215441AD92EF0784EA5EB31
S315080118F00E058CE7109A089922F07842154421F0D2
S3150801190078416D1A4FF0010C81E70F9A079922F079
S315080119107842AD1A21F0784100240D44A646B0E775
S31508011920089921F078416D1A71E72A4E337803EB4D
S31508011930C30203EB4203980000F04CFA234B80469E
S315080119401860234B002837D01A46019315460346DB
S3150801195002F11E0914AC212703E003354D453FF476
S31508011960F7AEAA78002AF8D095F800C004A9002293
S3150801197041F8042BA14202F10062F9D14C2203A9D4
S3150801198018468DF80CC014970AF0D6FE327802EB89
S31508011990C201034602EB41024C3308EB8202934231
S315080119A0DBD90122142142F2030002F063FE074B40
S315080119B0186800F07BFACBE60122142142F20200F4
S315080119C0019303F11E0902F055FEC1E6B80600208F
S315080119D08406002002000020A40600202DE9F04319
S315080119E0092885B006460D4668D838480478F4B9FA
S315080119F0374A384B012702F11401077022F8024BC6
S31508011A008A425C709C7003F10303F7D101214FF4FC
S31508011A10800003F0C3FD4FF48060012103F0E2FD6D
S31508011A206846CDE90044CDE9024403F001F9DFF83F
S31508011A30A48008F11E014746434602E003338B4260
S31508011A4008D05A78012AF9D11A78B242F6D105B0E6
S31508011A50BDE8F083204A06EB46039B0002EB030927
S31508011A60D058012103F09AFDB9F8083000930024F3
S31508011A700323D9F804008DF8043069468DF8074028
S31508011A8003F01CFD98F8013008F1030843B101344D
S31508011A900A2CF7D10122142142F2010002F0EAFDD3
S31508011AA004EB44043B1901223E555A7005B19A705C
S31508011AB00A4B01221A7005B0BDE8F08301221421F0
S31508011AC04FF4005002F0D6FD8FE700BF61000020F9
S31508011AD0A406002084060020A4C000086000002097
S31508011AE0092838B505460C4622D8214B1A78012A09
S31508011AF001D0002038BD14B31E4B1C688CB31E4B95
S31508011B00197889B12378AB420ED00139CBB24C2171
S31508011B1011FB0341234603E01A78AA421C4603D067
S31508011B208B4203F14C03F7D1606CC0F3CF0038BD8B
S31508011B30012214214FF4005002F09CFDD5E70F4B0A
S31508011B40214604E001310A2903F10303D1D05A7869
S31508011B50012AF7D11A78AA42F4D1094B33F81100B0
S31508011B6038BD142142F2050002F084FD204638BD35
S31508011B7061000020B806002002000020840600202B
S31508011B80A4060020034A044BA2FB00204009186062
S31508011B90704700BF1F85EB515C00002000B583B07C
S31508011BA000F07EFD02AC084E44F8040D074D03E033
S31508011BB02968204600F0ACFEFFF720FD3378002B9C
S31508011BC0F6D0FFF7B9FDF3E7020000205C0000201C
S31508011BD008B5FFF713FD044B1B781BB1BDE8084098
S31508011BE0FFF7AABD08BD00BF0200002000B583B0FB
S31508011BF000F056FD02AC054D44F8040DFEF758FAFF
S31508011C002968204600F084FEF8E700BF640000203A
S31508011C1010B584B0002400F03FF802F009FDFEF784
S31508011C2039FAFFF7D5FF052223460092CDE902448A
S31508011C30019480220849094800F054FB084B039493
S31508011C4006211A88074800910294019423460649F9
S31508011C5000F048FB04B010BD1CC100089D1B01081B
S31508011C6068000020ED1B010874C00008034A044BF4
S31508011C70A2FB002040091860704700BF1F85EB5181
S31508011C806400002080087F28024B96BF80221880B6
S31508011C901A8070476800002000F000B8074BC3F1AE
S31508011CA0006101F5004103F500605A5C03F8012B58
S31508011CB08342FAD1024B00221A707047C0060020EF
S31508011CC0BC060020C1F500630133984218DA0144C5
S31508011CD0884215DADFF834C0F0B40B4C9CF8006082
S31508011CE00025FF27225CFF2A00F1010302D0012506
S31508011CF027542E4698B28842F4DB15B9F0BC7047D2
S31508011D0070478CF80060F9E7C0060020BC06002081
S31508011D1040F2FC73984210B502D90024204610BD42
S31508011D20044600F09DF9034B1C5900F09BF9204627
S31508011D3010BD00BFC0060020F8B540F2FC739842FA
S31508011D4000D9F8BD0446094E0D4600F089F9375900
S31508011D5000F088F9BD42F4D000F082F9355100F05F
S31508011D6081F9034B01221A70F8BD00BFC006002095
S31508011D70BC06002010B4154A00E01A4613688342CF
S31508011D80FBD351685418A0420AD041684418A342AB
S31508011D900DD0904203605DF8044B18BF1060704780
S31508011DA04068014410464418A3425160F1D1084CD9
S31508011DB02468A342EDD0D3E900349042214403605C
S31508011DC041605DF8044B18BF10607047C08E002053
S31508011DD06C0000202DE9F041044600F059FC2E481C
S31508011DE00268002A39D02D4B1F683C422FD174B3A3
S31508011DF004F108014B071CBF21F00701083131B373
S31508011E00DFF8A080D8F800608E4220D3244D2C68D4
S31508011E1003E0226822B12546144663688B42F8D34B
S31508011E200268A24213D0226828682A605A1A102A20
S31508011E3000F1080528D8F61A00223B43C4E9002315
S31508011E40C8F8006000F0F0FC2846BDE8F0810025DE
S31508011E5000F0EAFC2846BDE8F081124F124B3968BA
S31508011E6023F0070347F6F0755E1908397260396081
S31508011E705A510A490660C3E90065094D4FF0004702
S31508011E802B606A600F60B0E7631818465A60616094
S31508011E90FFF770FF6368CEE76C0000207000002032
S31508011EA0C08E002074000020C80E002000283AD0F9
S31508011EB038B51D4D50F8043C2A681342044610D023
S31508011EC050F8081CD9B14FF48671184800F04EF93C
S31508011ED02A6854F8043C134202D054F8081C71B11C
S31508011EE038BD40F20B11114800F040F954F8083C8E
S31508011EF0002BE8D12A6854F8043C1342F0D023EAAF
S31508011F00020344F8043C00F0C3FB094A54F8043CB4
S31508011F101168A4F108000B441360FFF72BFFBDE815
S31508011F20384000F081BC70477000002030C10008BD
S31508011F3074000020014B1868704700BF7400002028
S31508011F400C490D484B6830B4C3F5C332A03264233B
S31508011F5003FB02F3094D0A4C5B09A5FB032302782F
S31508011F60C3F3C7139A42237038BF037000234B602B
S31508011F7030BC7047D08E0020C98E0020C55A7C0A15
S31508011F80C88E002070B50D4606460AF0D9FC0446EF
S31508011F9028460AF0D5FC844201D0002070BD6CB1F8
S31508011FA032782B789A42F8D1002303E0F15CEA5C97
S31508011FB09142F2D10133DBB29C42F7D8012070BDC0
S31508011FC000B51D4D1D481E4B83B000240093012208
S31508011FD004602C706C602C72234642F21071194809
S31508011FE0194D00F0DBFE2860F0B10446174A184B7C
S31508011FF0002515701D7000F053FB009502462B460F
S315080120002046294600F0F0FE012805D001221421B8
S315080120104FF4805002F02EFB0E4B00221A60FFF798
S31508012020F7FD00F0FDFAFEE7012214214FF4805076
S3150801203002F020FB2C68D9E7D08E0020DC8E002028
S31508012040411F010854C10008CC8E0020C88E00200B
S31508012050C98E002078000020704700BF704700BF76
S3150801206002F09CBC02F0C0BC03F068BC014B1878B6
S31508012070704700BFC88E0020FFF75CBF70B50546E4
S3150801208002F08CFC114B1C688CB106462946A068E7
S31508012090FFF778FF012805D10DE0A068FFF772FF69
S315080120A0012808D024692946002CF6D1304602F0C9
S315080120B09BFC204670BD6468304602F095FC2046BC
S315080120C0002CF7D000F070FD800070BDDC8E00207A
S315080120D02DE9F041804614200F461446FFF77AFE93
S315080120E0054628B30023C5E90343C5E9018702F07C
S315080120F055FC134E074602F051FC346802460CB9EA
S315080121000DE01C462369002BFBD1104602F06CFC3E
S31508012110256138462C60BDE8F04102F065BC02F045
S3150801212063FC2C6035603846BDE8F04102F05CBCC2
S31508012130012214214FF4805002F09CFAD2E700BF25
S31508012140DC8E0020074A138801339BB2092B1380C2
S3150801215005D905490B68002001330B60108003F08F
S315080121600FBB00BF7C00002078000020012214214B
S315080121704FF4805002F07EBA054B1A78012A00D036
S3150801218070471A7A002AFBD15A6801325A60704799
S31508012190D08E002008B502F001FC044B0121002273
S315080121A019701A72BDE8084002F01EBCD08E0020D4
S315080121B0014B00221A707047D08E002008B5034CD7
S315080121C02368012BFDD902F0DDFBF9E7E88E002033
S315080121D00D4B0E4A19681268486082420DD80C4A9E
S315080121E010B5044610681968043104F0CDFF094B8F
S315080121F01A68A24288BF1C6010BD074A1068196890
S31508012200043104F0C1BF00BF80000020A8000020EF
S31508012210E08E00209C000020E48E00202B4B2DE947
S31508012220F0410022DFF8B880294E1A60D8F800205C
S3150801223033689A4247D0D8F80020D8F80030126897
S315080122401B6B9A4233D9234C234D236803EB830333
S3150801225055F823309BB9214F08E02368013B2360D9
S31508012260236803EB830355F8233043B92368002B0E
S31508012270F3D140F252713846FFF778FFEDE723684C
S3150801228003EB83039B00E91808334A6852684A60DE
S315080122901D44AA4204BF52684A60D368C8F8003090
S315080122A0D8F8002033689A4209D0BDE8F081D8F8F9
S315080122B00000D8F80010343104F0D2FEC3E7BDE8B7
S315080122C0F041FFF767BFFFF773FFB4E7AC000020E3
S315080122D09800002094000020E88E002068C10008BC
S315080122E0800000202DE9F84FDDF830B08A46914686
S315080122F09846DDE90A570646002800F0A7800D2D05
S3150801230000F287804820FFF765FD0446002800F0A3
S315080123108C804FEA8909BBF1000F00F09D80C0F857
S3150801232030B04A46A52158460AF0A0FA236BA9F10E
S315080123300409994429F007090AF1FF330AF10F0143
S3150801234004F1330201E08B4207D013F9010F02F8B9
S31508012350010F93F900000028F5D10D2D4FF0000368
S31508012360AB4604F1040A28BF4FF00D0B84F843303D
S315080123705046C4F82CB0C4F844B004F0F1FE04F198
S31508012380180004F0EDFECBF10E03A361246164622B
S3150801239042463146484602F0D1FA206007B13C6010
S315080123A002F014FB444A454E13680133136033683F
S315080123B0002B3ED0424F3B681BB3DFF824814148CE
S315080123C0E26A03680133036004F134012046FFF72A
S315080123D07FFE3D4BE06A1A68904288BF186000EBA1
S315080123E0800008EB8000514604F0BEFE02F000FBB7
S315080123F03B681BB13368DB6AAB4222D30120BDE8D7
S31508012400F88F3368DFF8D880DB6AAB4298BF34604F
S31508012410D5E740F2ED112D48FFF7A8FE4820FFF752
S31508012420D9FC044600287FF474AF4FF0FF30BDE8AD
S31508012430F88F34601368DFF8A880012B1AD0204F73
S31508012440BDE702F09FFA0120BDE8F88F4FF4F67157
S315080124501E48FFF78BFE52E74846FFF7BBFC83464B
S31508012460206300287FF45DAF2046FFF71FFD4FF07C
S31508012470FF30C4E7474608F58C793846143704F027
S3150801248063FE4F45F9D1DFF85CB0DFF85C900C4F7D
S31508012490584604F059FE484604F056FE0C4804F026
S315080124A053FE0C4804F050FE0B4A0C4BC2F800B020
S315080124B0C3F8009083E700BF840000208000002055
S315080124C0A4000020900000209400002068C10008A4
S315080124D0289000203C900020E08E0020E48E002009
S315080124E0E88E00200090002014900020F8B50446DC
S315080124F0194E02F06BFA1CB3251D284604F05EFE40
S31508012500A36A1BB104F1180004F058FE134F2946BB
S31508012510384604F029FE02F06BFA3368A34200D06C
S31508012520F8BD0F4B1B687BB90E4A39681268914290
S3150801253008D00D4B1B685BB10C4B01221A60F8BD24
S315080125403468D9E73360F8BDBDE8F84002F01ABA35
S31508012550BDE8F840FFF762BE800000203C900020ED
S31508012560A4000020840000208C000020AC0000207C
S3150801257010B5044668B10A4B62699A4201D0002037
S3150801258010BDA06A074B9842F9D0B0FA80F040090D
S3150801259010BD40F259410448FFF7E8FDEBE700BFDB
S315080125A03C9000202890002068C1000888B170B5C9
S315080125B0174D2B6883420BD0044602F007FA2046D2
S315080125C0FFF7D6FF012809D0BDE8704002F010BA1E
S315080125D070BD40F27A410F48FFF7C8BD261D304647
S315080125E004F0ECFD0C4AE36A11680C488B4288BF7B
S315080125F0136003EB830300EB8300314604F0B4FD5B
S315080126002B68E26ADB6A9A42DED302F0BBF9DBE7A2
S315080126108000002068C1000894000020E88E002090
S3150801262030B585B00024144A0192CDE902440094DC
S315080126302346802211491248FFF754FE01280BD080
S3150801264005460DB105B030BD0E4840F21F5105B023
S31508012650BDE83040FFF78ABD00F07CFB012805463E
S31508012660EFD102F09BF9084A084B15601C6005B0CA
S31508012670BDE8304002F024BA9800002060C1000885
S31508012680BD21010868C10008A4000020A800002097
S31508012690024A136801331360704700BF8C0000209B
S315080126A010B502F093F9034B1C6802F0A1F9204614
S315080126B010BD00BFA80000202DE9F04F4E4B1B6846
S315080126C083B0002B7BD14D4B1A6801321A601F6803
S315080126D00FB34B4B0193019B1B68BB4237D9DFF8FC
S315080126E03C81DFF83C910025D9F80030454ADB6A80
S315080126F0126803EB830358F82330022B28BF012500
S31508012700002A64D0404B1B68002B0CBF28460120C9
S3150801271003B0BDE8F08F3D4E33681B68002B64D1CA
S315080127203B4B31683B4A18683060196013680133BE
S31508012730136033681B68002B4CD1314B01931A4641
S315080127404FF0FF331360019B1B68BB42C7D82F4E5E
S31508012750DFF8C880DFF8C890DFF8C8A0002525E0B3
S315080127603368DB68DC68636804F1040B9F425846EA
S3150801277038D304F023FDA36A04F118000BB104F061
S315080127801DFDE36ADAF8002003EB830093425946FC
S3150801279008EB800088BFCAF8003004F0E5FCD9F8D8
S315080127A00030E26ADB6A9A4228BF012533681B6852
S315080127B0002BD5D1019A4FF0FF33136094E7114AE4
S315080127C01368013313600025FFF7BCFC9AE7FFF78E
S315080127D0B9FC97E733680A4ADB680192DB685B68EC
S315080127E0136078E7019A13607EE740F25B610A4855
S315080127F0FFF7BCFC94E700BF8C000020A80000206E
S315080128009C00002088000020AC000020E08E0020FB
S31508012810E48E0020A000002068C10008E88E002090
S3150801282080000020940000202DE9F0472F4C2368F2
S31508012830002B51D002F0CAF82368013B23602368B4
S31508012840002B43D12A4B1B68002B3FD0DFF8B4A0DD
S31508012850284E294FDFF8B090DFF8B0801EE0F36804
S31508012860DC68251D04F1180004F0A8FC284604F0CC
S31508012870A5FCE36A3A6803EB83009342294609EB10
S31508012880800088BF3B6004F06FFCD8F80030E26A2C
S31508012890DB6A9A4224BF0123CAF800303368002B49
S315080128A0DDD1164C23686BB123685BB10125FFF7AF
S315080128B003FF08B1CAF800502368013B2360236867
S315080128C0002BF4D1DAF80040012C0BD0002402F0D9
S315080128D08FF82046BDE8F08740F25A510848FFF7BD
S315080128E045FCA7E702F04EF8F1E700BF8C0000208F
S315080128F084000020289000209400002088000020F1
S3150801290068C10008AC000020E88E00208000002085
S3150801291038B50C460546002836D03CB31F49204831
S315080129200A682B6801320A6001681C192CBF01204C
S3150801293000208B4222460DD860B32C60194B1868CB
S31508012940043004F03BFC2046FFF742FCFFF76CFF1E
S3150801295040B138BDB0B1A1422C60EFD3FFF764FF97
S315080129600028F6D1BDE8384002F00CB840F2BF2184
S315080129700D48FFF7FBFB094909480B682A6801332B
S315080129800B6003682A60E1E740F2BE210648FFF7BB
S31508012990EDFBC2E7A142D0D3F4E700BF8C000020CB
S315080129A0A80000208000002068C10008044B1B68AD
S315080129B00BB9FFF733BC034B01221A60704700BFFE
S315080129C08C000020AC00002070B50E460546C8B143
S315080129D00F4C21682846183104F0D6FB20680430CC
S315080129E004F0ECFB731C06D00A4B18683044BDE8AA
S315080129F07040FFF7EDBB216807480431BDE8704018
S31508012A0004F0B2BB40F265710448FFF7AFFBDFE79C
S31508012A1080000020A80000203C90002068C1000822
S31508012A2070B50E46054680B10B4C2168284618310B
S31508012A3004F09AFB2068043004F0C0FB074B1868C1
S31508012A403044BDE87040FFF7C3BB40F29B710448B0
S31508012A50FFF78CFBE8E700BF80000020A8000020F4
S31508012A6068C1000838B5C368DC684CB304F11805B9
S31508012A70284604F0A3FB154B1B68E3B9251D284618
S31508012A8004F09CFB124AE36A116812488B4288BF1C
S31508012A90136003EB8303294600EB830004F064FB10
S31508012AA00D4BE26A1B68DB6A9A4223BF0B4B012076
S31508012AB01860002038BD2946094804F055FBEFE7A0
S31508012AC040F2D1710748FFF751FBCFE78C00002090
S31508012AD094000020E88E002080000020AC00002031
S31508012AE02890002068C1000810B5044630B1064A8E
S31508012AF0064B12681B68C4E9002310BD40F2F77142
S31508012B000348FFF733FBF2E7A0000020A8000020E6
S31508012B1068C10008F8B50D46044658B38DB301F0EF
S31508012B2055FF2B681A4A581C11681ED0DFF868C071
S31508012B30D4E90060DCF80070BE4201D081420FD2B0
S31508012B400F1ABB420CD95B1ADCF800101268034451
S31508012B502B600025C4E9001201F04AFF2846F8BD9A
S31508012B60012501F045FF2846F8BD002501F040FF83
S31508012B702846F8BD40F601010648FFF7F7FA002D89
S31508012B80CDD140F602010348FFF7F0FAC7E700BFC7
S31508012B90A800002068C10008A0000020014B0122FE
S31508012BA01A607047AC00002068B1036B1A78A52A31
S31508012BB04FF000000FD113F8012F0130A52A80B27A
S31508012BC0F9D080087047044B1868036B1A78A52A50
S31508012BD04FF00000EFD0704780000020014B1868C5
S31508012BE0704700BF80000020044B186828B1044BC9
S31508012BF01B68002B0CBF012002207047A40000208F
S31508012C008C000020B8B1F8B5164DC36A2A68D26A95
S31508012C1093420FD22A68144ED26A416903EB8303A1
S31508012C2006EB8303C2F10E029942826104D02B6836
S31508012C30DB6AC362F8BD7047071D0446384604F0CF
S31508012C40BDFA2A68094BD06A1A68E062904200D92F
S31508012C50186000EB800006EB80003946BDE8F840B5
S31508012C6004F082BA80000020E88E0020940000203B
S31508012C70F0B138B5C26A436C9A4218D0051D0446AC
S31508012C80284604F09BFA0B4A636C1168E362C3F1A8
S31508012C900E008B42A061084888BF136003EB8303CB
S31508012CA0294600EB8300BDE8384004F05DBA38BD1B
S31508012CB0704700BF94000020E88E0020F8B50F4C3D
S31508012CC001F084FE25681DB1BDE8F84001F090BE0B
S31508012CD00B4F0C4E384604F037FA304604F034FAF6
S31508012CE0094A0A4B17600C212A4606201E6004F081
S31508012CF041FB2060BDE8F84001F07ABEB40000202F
S31508012D00589000206C90002050900020549000208C
S31508012D10914208B50061416005D88169D21A8A4293
S31508012D200CD3012008BD9A4201D29942F9D2074B28
S31508012D30011D186804F028FA002008BD044B011D7E
S31508012D40186804F021FA002008BD00BF5090002041
S31508012D505490002000B585B0FFF7B0FF0B4B1B68F8
S31508012D605BB100230222CDE90023CDE9023380229B
S31508012D7007490848FFF7B6FA20B90748E021FFF7DF
S31508012D80F5F9002005B05DF804FB00BFB40000208A
S31508012D90B0C10008C52E01088CC100082DE9F04113
S31508012DA00D46B1B18046282017461E46FFF712F890
S31508012DB0044658B1FFF782FF069BC4F80080C4E9B0
S31508012DC0065726626362201D04F0CAF92046BDE84B
S31508012DD0F0814FF4847103482C46FFF7C7F9204662
S31508012DE0BDE8F0818CC1000870B5134E346884B013
S31508012DF064B11D46CDE90112039053B11A46204626
S31508012E00002301A904F076FB04B070BD204604B086
S31508012E1070BDFFF7E9FE012807D030682B462A4620
S31508012E2001A904F0CDFA04B070BD2B463068089AA2
S31508012E3001A904F0C5FAE7E7B40000202DE9F04737
S31508012E401D4DDFF87C8082B04FF0000A0DE0DB688B
S31508012E50DC681F6804F10409484604F0AFF9636A9F
S31508012E6020469847E369012B0AD02B681A68002A7D
S31508012E70EDD1124A11682960136002B0BDE8F087E6
S31508012E80A6693E440023B74219463A46204606D269
S31508012E90666024612868494604F076F9E5E7CDF8C5
S31508012EA000A0FFF7A1FF0028DFD140F282214046AA
S31508012EB0FFF75CF9D9E700BF509000205490002035
S31508012EC08CC100082DE9F04FDFF874A15B4FDFF8DC
S31508012ED07481DFF8749187B04FF0000BDAF800308F
S31508012EE01D68002D6DD0DB681D68FFF7D1FBFFF764
S31508012EF0D7FB3B68834204466BD88542386073D951
S31508012F00291BD8F8000004F065FCFFF78DFC0028A2
S31508012F1067D000231A4603A9D8F8000004F054FB29
S31508012F200028DBD0059C636913B1201D04F046F91E
S31508012F30FFF7B6FB3B689842054627D3039E3D60DB
S31508012F40022E29D0032E31D0002EE2D1049BA1698D
S31508012F502A4619442046FFF7DBFE0128D9D1636AC0
S31508012F6020469847E369012BD3D1A369049A0096B1
S31508012F701A44204633463146FFF736FF0028C8D1A2
S31508012F8040F22F214846FFF7F1F8C2E7FFF756FF4F
S31508012F90039E3D60022ED5D10499A16151B1294400
S31508012FA020462B462A46FFF7B3FEB2E72046FEF730
S31508012FB07DFFAEE74FF40F714846FFF7D7F8A169D1
S31508012FC0EDE7FFF765FBFFF76BFB3B6898420446A5
S31508012FD005D2FFF733FF3C60FFF726FC99E73C6013
S31508012FE08EE701F0CFFC94E7FFF71EFCDAF8003014
S31508012FF0DB68DE68301D04F0E1F8F369012B03D0C4
S31508013000736A3046984784E7B169224629442B46B4
S315080130103046FFF77DFE0128F2D10023CDF800B036
S315080130202A4619463046FFF7DFFE0028E8D14FF455
S31508013030AD714846FFF79AF8E2E700BFB0000020F5
S3150801304050900020B40000208CC100082DE9F043FF
S31508013050404E414D414FDFF80891DFF8088189B0AC
S3150801306000234FF0FF3201A9306804F0ADFA0128B8
S3150801307005D00122142142F2081001F0FBFA9DF84D
S315080130800440012C05D90122142142F20C1001F049
S31508013090F1FA2B5D012BE3D19DF80530032B51D8AD
S315080130A0DFE803F03F2413029DF8043057F8332074
S315080130B01AB1012090479DF8043007EBC3035B68FA
S315080130C0002BCDD001209847CAE79DF8043057F860
S315080130D033201AB1002090479DF8043007EBC3034B
S315080130E05B68002BBCD000209847B9E79DF80430EF
S315080130F058F8334044B1079B9DF8101003980DF119
S315080131001102A0479DF8043008EBC3035C68002C44
S31508013110A6D0079B9DF8101003980DF11102A04740
S315080131209EE79DF8043059F833201AB10398904761
S315080131309DF8043009EBC3035B68002B90D0039814
S3150801314098478DE70122142142F2091001F092FAFB
S3150801315086E700BFB4900020B09000208090002040
S31508013160A0900020909000202DE9F047414C424D57
S31508013170424FDFF80C818CB0002600234FF0FF3256
S3150801318006A9206804F020FA012805D00122142195
S3150801319042F2071001F06EFA9DF81830012B41D85A
S315080131A09DF82020082A43D8EB5C002B40D0DDF897
S315080131B01C908DF80E2019F0804348D18DF80D30FA
S315080131C072B10DF12203013A53FA82F20DF10F01A0
S315080131D00DF1210313F8010B01F8010B9A42F9D1FC
S315080131E04B46002B3ADBCDE901368DF80C60CDF85C
S315080131F01C90FEF735FF9DF8183003EB83038246D2
S3150801320001A957F8330001F0A9FE04282ED09DF82C
S31508013210183003EB43030344504648F82390FEF75E
S3150801322021FFAAE70122142142F20C1001F022FA29
S315080132300123002206A9206804F0C2F800289CD1BF
S315080132400122142142F2041001F014FA95E702232F
S315080132508DF80D3029F08043002BC4DA23F00043A2
S315080132600422CDE901638DF80C20C0E75046FEF72C
S31508013270F9FEDDE7C8900020B090002004C20008DE
S31508013280D4900020F0B500EB8002174B53F832506A
S3150801329089B00446002628464FF48061009601F05D
S315080132A061FF012802D0009809B0F0BD0F4A8DF8D8
S315080132B004400746032410688DF8054033466A46DC
S315080132C001A904F017F938B128464FF4806101F0D5
S315080132D0B9FF009809B0F0BD3A46142142F206102A
S315080132E001F0C8F9F0E700BF04C20008B490002055
S315080132F02DE9F04300EB8002534B8FB053F832604F
S315080133008DF81C000546002430460221CDE900440B
S3150801331001F028FF01280AD00821304601F022FFD2
S31508013320012805466BD000980FB0BDE8F083034627
S31508013330214630468DF81D3001F0B4FE04460028BA
S3150801334048D0DFF81091DFF8108164270CE0029A63
S3150801335009929DF811204AB3099B43F080430993CA
S31508013360013C14F0FF0435D002AA0021304601F0D1
S3150801337049FEFFF795F959F825309DF810208DF883
S31508013380205007FB00F0A8FB0010C3EB90109DF836
S3150801339012300D908DF82830002AD8D0039A42F0C1
S315080133A0004209929DF81120002AD5D1002BD7D0C9
S315080133B0013B05AA52FA83F20DF129010DF1130316
S315080133C013F8010B01F8010B9342F9D1013C14F0F2
S315080133D0FF04C9D11D4A0023106807A901AA04F0F0
S315080133E089F818B3019B3046012B4FF0020108BF3B
S315080133F0009301F027FF00980FB0BDE8F083134A48
S315080134002346106802246A4607A98DF81D4004F070
S3150801341071F890B130460E4901F08CFE304608210C
S3150801342001F010FF00980FB0BDE8F08301221421C6
S3150801343042F2061001F01EF9D4E72A46142142F297
S31508013440061001F017F9E5E704C20008B490002058
S3150801345010000032C0900020D34D62102DE9F043D0
S3150801346000EB8002534B8FB053F832608DF81C0085
S315080134700546002430461021CDE9004401F072FECC
S3150801348001280AD04021304601F06CFE0128054684
S315080134906BD000980FB0BDE8F0830346014630466D
S315080134A08DF81D3001F0FEFD0446002848D0DFF8EE
S315080134B01091DFF8108164270CE0029A09929DF8B1
S315080134C011204AB3099B43F080430993013C14F048
S315080134D0FF0435D002AA0121304601F093FDFFF71A
S315080134E0DFF859F825309DF810208DF8205007FB94
S315080134F000F0A8FB0010C3EB90109DF812300D9058
S315080135008DF82830002AD8D0039A42F00042099251
S315080135109DF81120002AD5D1002BD7D0013B05AA49
S3150801352052FA83F20DF129010DF1130313F8010B78
S3150801353001F8010B9342F9D1013C14F0FF04C9D1FA
S315080135401D4A0023106807A901AA03F0D3FF18B37F
S31508013550019B3046012B4FF0100108BF009301F083
S3150801356071FE00980FB0BDE8F083134A2346106830
S3150801357002246A4607A98DF81D4003F0BBFF90B1E6
S3150801358030460E4901F0D6FD3046402101F05AFE7B
S3150801359000980FB0BDE8F0830122142142F206100B
S315080135A001F068F8D4E72A46142142F2061001F020
S315080135B061F8E5E704C20008B49000201000003461
S315080135C0C0900020D34D6210F0B500EB80022E4B5F
S315080135D053F8325089B00446002628460121009640
S315080135E001F0C0FD012802D0009809B0F0BD2749B5
S315080135F0284601F075FD01282ED02549284601F0F7
S315080136006FFD0128074633D02249284601F068FD97
S31508013610012833D040F2FE311F48FEF7A7FD04EB1F
S3150801362044031E441D4A1E4B52F82610186803917E
S31508013630002633466A4601A98DF804408DF80840EC
S315080136408DF8056003F056FF58B12846012101F0AF
S31508013650F9FD009809B0F0BD0C49284601F06AFD4C
S31508013660DDE70122142142F2061001F003F8ECE726
S315080136700749284601F05EFD3E46D0E7054928463A
S3150801368001F058FD0226CAE704C200080100003805
S315080136900001003800000138D8C10008D490002084
S315080136A0B4900020F0B5384A384DDFF810C1384CCF
S315080136B0384E394F308000230128C2E90033C2E968
S315080136C00233C5E90033C5E90233ACF80030C4E971
S315080136D00033C4E902339CBF0223338003293980AE
S315080136E09CBF04213980084685B000221C2103F0BD
S315080136F041FE2A4B186000283FD030880022182145
S3150801370003F038FE264B186080B3264D2649274814
S3150801371000230A2200920393CDE901538022FEF782
S31508013720E1FD012805D00122142142F2021000F020
S31508013730A1FF1F4C1F492048002302220092039330
S31508013740CDE901438022FEF7CDFD012805D00122EE
S31508013750142142F2031000F08DFF2868FEF7C6FE19
S31508013760206805B0BDE8F040FEF7C0BE012214216D
S3150801377042F2011000F07EFFC7E7012214214FF43F
S31508013780045000F077FFB8E780900020A090002051
S3150801379090900020CC900020B8900020B490002092
S315080137A0C8900020BC900020B8C100084D3001081F
S315080137B0D0900020C8C1000869310108B0900020E6
S315080137C02DE9F04F01288DB006460F46924600F2C4
S315080137D0698100F05B8100230093D54B4FEA860986
S315080137E009EB060403EBC4040121606801F0EEFE4F
S315080137F0A068012101F0D2FE6069012101F0CEFE27
S31508013800D4F80CB094F82050618A58462A4601F03B
S31508013810AFFED4F81880E18B2A4640460CAD01F07C
S31508013820A7FE228A45F8242D022358464FF0010C9B
S3150801383029464FF0000B8DF810308DF811308DF8B0
S3150801384013C08DF812B001F039FEA38B03932946F4
S31508013850404601F033FEA7F59C53B649083B8B4217
S3150801386000F21C81DAF80030B3F1005F80F01681AE
S31508013870DAF80430B3F1005F80F010819AF8083065
S31508013880022B00F20B81AC49AC484FF00808A1F1B4
S315080138903F0C454643464FF0640E08E08C4500F060
S315080138A0FD8091F83C3091F83D5091F83E801D44D9
S315080138B0EDB26B1C4344DBB207FB03F4B0FBF4F433
S315080138C0A2B203FB02F31446013AB2F5806FA1F1E5
S315080138D00301E3D2B0FBF3F3DB1B0EFB03F3B3FBEC
S315080138E0F7F313F0800F0CBF0122FF2213FB02F33B
S315080138F05BB2022BD2DCFEF7B3FB09EB06038C4A5B
S31508013900019052F83370384601F010FA013D05A8C6
S3150801391001F016FB4FF0000B08F1FF388DF818502F
S3150801392005A9012538468DF81980ADF814408DF89A
S315080139301AB08DF81BB08DF81CB08DF81DB08DF836
S315080139401EB0ADF816B08DF81F5001F00DFA009BA8
S315080139509AF808805C19B8F1000F00F0FB80A845B9
S3150801396040F0A980DAE900219DF800308DF82A3067
S31508013970C9000B0CD20041F00401ADF8203008A8AB
S31508013980130C42F004028DF82BB08DF82C808DF8BB
S315080139902D80ADF828B0ADF82210ADF82430ADF879
S315080139A0262001F055FA08A88DF82A40ADF8288096
S315080139B001F04EFA012E05D90122142142F20C100A
S315080139C000F058FE5A4BB14403EBC9090CAD99F8FE
S315080139D0213005F8283D01240F22002328468DF8B9
S315080139E009208DF80A308DF80B4000F065FF99F82B
S315080139F022308DF80830284600F05EFF99F823300A
S31508013A008DF80830284600F057FF99F824308DF8CC
S31508013A100830284600F050FF22462146384601F074
S31508013A2055FB22460221384601F050FB2246102159
S31508013A30384601F04BFB22460821384601F046FB81
S31508013A4022464021384601F041FB22464FF4806167
S31508013A50384601F03BFB3A4B9C55FEF721FE3949A6
S31508013A60394A642303FB00F3A1FB03139B0901985D
S31508013A7042F82630FEF7F6FA344B1868FEF796FD3B
S31508013A80334B1868FEF792FD204608E001464FF0D1
S31508013A90007001F09BFD0E2300939EE600200DB0F9
S31508013AA0BDE8F08F0122142142F20C1000F0E2FD6C
S31508013AB00023009391E6DAE90021520142F0080257
S31508013AC0490192B289B29DF800308DF82A3008A8CA
S31508013AD0ADF82420ADF82620ADF82010ADF8221057
S31508013AE08DF82BB08DF82CB08DF82D50ADF828B087
S31508013AF001F0AEF9DAE90032D200DB004FEA124CE6
S31508013B00190C42F0040243F0040308A88DF82C505E
S31508013B108DF82A40ADF82850ADF820C0ADF822201E
S31508013B20ADF82410ADF8263001F092F942E700BF4E
S31508013B3004C20008B82E0F0054C2000880DE8002B5
S31508013B40B0900020D34D6210C0900020BC90002098
S31508013B50D0900020DAE900325B0143F008035201F4
S31508013B609BB292B29DF800108DF82B8008A88DF8AB
S31508013B702C808DF82D508DF82A10ADF82880ADF8D7
S31508013B802430ADF82630ADF82020ADF8222001F01A
S31508013B905FF908A88DF82A40ADF8285001F058F9C0
S31508013BA008E700BF0128F8B504460E4606D80129DC
S31508013BB031D81C4B1D5DCDB92846F8BD012214210B
S31508013BC042F20C1000F056FD012E05D901221421EE
S31508013BD042F2051000F04EFD0122142142F20C10AA
S31508013BE000F048FD0F4B1D5D002DE5D0FEF738FAB4
S31508013BF004EB84040C4B074653F834003EB101F03C
S31508013C0061FA05463846FEF72DFA2846F8BD01F051
S31508013C1055FA0546F6E70122142142F2051000F08D
S31508013C2029FDC6E7B090002004C20008F0B50128B6
S31508013C3089B006460F4615461C4605D901221421A8
S31508013C4042F20C1000F016FD8DF8086003978DF806
S31508013C5010505DB1691E54FA81F1631E0DF111020E
S31508013C6013F8010F02F8010B8B42F9D1184C2068A1
S31508013C7003F0A2FD174B1B88181A012814D92068CE
S31508013C80002301AA02A903F035FC18B10124204634
S31508013C9009B0F0BD0122142142F2041000F0EAFC39
S31508013CA00124204609B0F0BD30460121FFF77AFF0D
S31508013CB0044618B10024204609B0F0BD012214219A
S31508013CC042F2041000F0D6FC204609B0F0BD00BF50
S31508013CD0C8900020CC900020012838B504460D462E
S31508013CE005D90122142142F20C1000F0C3FC074B3E
S31508013CF053F834202AB103EBC402526802B138BD25
S31508013D00012202EB440243F8225038BDA09000205C
S31508013D10012838B504460D4605D90122142142F277
S31508013D200C1000F0A7FC074B53F834202AB103EB1B
S31508013D30C402526802B138BD012202EB440243F8BB
S31508013D40225038BD9090002010B5FEF785F9002065
S31508013D50FFF7CEFA0446FEF781F91CB1024B4FF084
S31508013D6080521A6010BD00BF04ED00E010B5FEF7E1
S31508013D7073F90020FFF772FB0446FEF76FF91CB1D1
S31508013D80024B4FF080521A6010BD00BF04ED00E0EF
S31508013D9010B5FEF761F90020FFF716FC0446FEF799
S31508013DA05DF91CB1024B4FF080521A6010BD00BF7D
S31508013DB004ED00E010B5FEF74FF90020FFF762FAAF
S31508013DC00446FEF74BF91CB1024B4FF080521A60BC
S31508013DD010BD00BF04ED00E010B5FEF73DF9012066
S31508013DE0FFF786FA0446FEF739F91CB1024B4FF084
S31508013DF080521A6010BD00BF04ED00E010B5FEF751
S31508013E002BF90120FFF72AFB0446FEF727F91CB117
S31508013E10024B4FF080521A6010BD00BF04ED00E05E
S31508013E2010B5FEF719F90120FFF7CEFB0446FEF798
S31508013E3015F91CB1024B4FF080521A6010BD00BF34
S31508013E4004ED00E010B5FEF707F90120FFF71AFAAD
S31508013E500446FEF703F91CB1024B4FF080521A6073
S31508013E6010BD00BF04ED00E0074B53F8203013B92D
S31508013E7007E09B6833B11A688A42FAD15B6803B1D5
S31508013E8018477047704700BF04910020014601207A
S31508013E90FFF7EABF01460020FFF7E6BF2DE9F04725
S31508013EA006463148DDF8208050F826400D4617466B
S31508013EB099464CB12368994203D13FE023689D4254
S31508013EC021D0A469002CF9D1284B53F8263013B90F
S31508013ED00DE09B685BB11A68AA42FAD15B68002BB0
S31508013EE03FD0424649463846BDE8F0471847204B79
S31508013EF053F82640ACB343464A4639462846A446B3
S31508013F00BDE8F0476047FEF7ABF8277167B107F1DF
S31508013F10FF3C59FA8CFC09F1FF33621D13F8011FA6
S31508013F2002F8011B6345F9D1237DC4F810807E2B65
S31508013F309CBF01332375FEF795F8C5E7FEF790F8A0
S31508013F402771002FF0D007F1FF3C59FA8CFC09F1D3
S31508013F50FF33621D13F8011F02F8011B6345F9D1EE
S31508013F60E2E7BDE8F08700BFFC900020F49000204E
S31508013F70EC90002000B583B0009313460A4601462B
S31508013F800120FFF78BFF03B05DF804FB00B583B092
S31508013F90009313460A4601460020FFF77FFF03B048
S31508013FA05DF804FB012870B5044616D8194E1A4D5A
S31508013FB01A491B4A002346F8203045F8203041F8B3
S31508013FC0203042F82030D8B91649FFF785FE204639
S31508013FD01549BDE87040FFF79BBE0122142142F244
S31508013FE00C1000F047FB0B4D0B480C490C4A0023FB
S31508013FF045F8243040F8243041F8243042F824307A
S315080140000A490120FFF768FE09490120BDE8704009
S31508014010FFF77EBE04910020F4900020FC9000205A
