S02900002E2E2F48414E636F6465725F453430375F5454415F436F6D62696E654D6F64656C2E73726563F8
S315080040004CCA0020F98A01080000000000000000E0
S315080040100000000000000000000000000000000092
S31508004020000000000000000000000000F95301082D
S31508004030000000000000000095540108E55401083E
S315080040400000000000000000000000000000000062
S315080040500000000000000000000000000000000052
S315080040600000000051630108000000000000000085
S315080040700000000000000000000000000000000032
S3150800408000000000000000000000000021480108B0
S31508004090D9470108FD470108454801080000000006
S315080040A03D630108296301081563010805630108D2
S315080040B0F1620108DD620108C9620108000000001A
S315080040C000000000000000000000000000000000E2
S315080040D000000000C9700108E1700108F9700108C4
S315080040E00000000000000000C17101080000000087
S315080040F0B5620108A162010891620108000000008A
S3150800410000000000297101080000000000000000FE
S315080041100000000000000000000000000000000091
S315080041200000000000000000000000002D710108DA
S31508004130000000008163010800000000B148010882
S31508004140694801088D480108D5480108F171010838
S3150800415000000000000000000000000011710108C6
S315080041600000000000000000000000000000000041
S315080041700000000000000000000000000000000031
S311080041800000000000000000EE11AA5527
S3150800C000000000000000F03F000000000000F03FC4
S3150800C010000000000000E03F000000000000F03FC4
S3150800C0200000000000000000000000000000000002
S3150800C03000000000000000000000000000000000F2
S3150800C04000000000000000000001000001010000DF
S3150800C0500100010100000000383F0700000420002D
S3150800C0601000080002010000000000000A0A0A0089
S3150800C07048414E636F6465725F453430375F545488
S3150800C080415F436F6D62696E654D6F64656C5F7382
S3150800C0906F66747761726549445F76315F32303016
S3150800C0A03632335F313434393038000041707043EA
S3150800C0B074726C5461736B0048414E636F646572A9
S3150800C0C05F453430375F5454415F436F6D62696E24
S3150800C0D0654D6F64656C2E6300000000200000004B
S3150800C0E00014024008000900200000000014024065
S3150800C0F010000E00200000000014024020000F006F
S3150800C1002000000000140240400004002000000047
S3150800C11000140240800005002000000000140240C0
S3150800C120000106002000000000140240000207007B
S3150800C130200000000014024000040800040000006B
S3150800C1400008024001000A0004000000000802403E
S3150800C15004000C00414443636F6E76657273696F21
S3150800C1606E5461736B0000002E2E2F626C6F636B2A
S3150800C1707365742F7274772F53544D33322F73723D
S3150800C180632F686561705F342E630000546D7243D7
S3150800C19070754C6F6164000049444C45000000000E
S3150800C1A02E2E2F626C6F636B7365742F7274772FE4
S3150800C1B053544D33322F7372632F7461736B732E1E
S3150800C1C0630000002E2E2F626C6F636B7365742FED
S3150800C1D07274772F53544D33322F7372632F7469E9
S3150800C1E06D6572732E630000546D7220537663007A
S3150800C1F043616E4576656E745461736B000000008A
S3150800C20043616E5472616E736D69745461736B0029
S3150800C2102E2E2F626C6F636B7365742F7274772F73
S3150800C22053544D33322F7372632F53544D33325F49
S3150800C230453430372F63616E2E630000006400407A
S3150800C2400000000208000000000C02400100000087
S3150800C25008000000000C0240020001000913141532
S3150800C26016000000006800400000000402000000FC
S3150800C27000040240200005000200000000040240FD
S3150800C28040000600093F404142000000010102014A
S3150800C2900202020202030202040202030303040367
S3150800C2A0030503030603030504040604040704043C
S3150800C2B0080404070505080505080605080705080E
S3150800C2C007060808060808070808080045764368A8
S3150800C2D06E6C3100457643686E6C3200457643686D
S3150800C2E06E6C33002E2E2F626C6F636B7365742F22
S3150800C2F07274772F53544D33322F7372632F5354FE
S3150800C3004D33325F453430372F6D61632E6300003D
S3150800C3102E2E2F626C6F636B7365742F7274772F72
S3150800C32053544D33322F7372632F53544D33325F48
S3150800C330453430372F706F72742E63000000014049
S3150800C3400100000002010000100000000010024079
S3150800C35000020900100000000010024000080B004F
S3150800C3600004004002000000010200000100000075
S3150800C37000000240400006000200000000040240DF
S3150800C380200005000008004004000000010200002B
S3150800C39008000000000C024000100C000800000015
S3150800C3A0000C024000200D000004014002000000BD
S3150800C3B002030000040000000008024040000600D6
S3150800C3C0040000000008024080000700100000007A
S3150800C3D000100240000100000100080010000000E3
S3150800C3E0001002400004000101000A0010000000CD
S3150800C3F0001002400010000201000C00000001407D
S3150800C40001000000020119000000004001000000C0
S3150800C41001021C00000400400200000001021D0089
S3150800C420000800400400000001021E00000401404C
S3150800C4300200000002012C0000400140000001003B
S3150800C4400201180000440140000002000201190020
S3150800C450004801400000040002011A00001C0040C8
S3150800C4608000000001022C000020004000010000AE
S3150800C47001022D001000000000100240000200001A
S3150800C4800100090010000000001002400008000129
S3150800C49001000B00100000000010024000200002FE
S3150800C4A001000D00100000000010024000400003CB
S3150800C4B001000E00010000000000024020000100FB
S3150800C4C001000500010000000000024040000200D3
S3150800C4D002000600020000000004024020000201DB
S3150800C4E00200050008000000000C024000100300CE
S3150800C4F002000C0008000000000C024000200301A6
S3150800C50002000D000400000000080240400004007C
S3150800C5100300060004000000000802408000040131
S3150800C520030007001000000000100240200005006C
S3150800C530030005001000000000100240400005013D
S3150800C5400300060020000000001402404000060018
S3150800C55003000600200000000014024080000700C7
S3150800C5600300070020000000001402400001080034
S3150800C570090008002000000000140240000209001B
S3150800C580090009000400000000080240010000003C
S3150800C59020000000001402404000000020000000B7
S3150800C5A00014024080000000200000000014024031
S3150800C5B000010000200000000014024000020000F4
S3150800C5C020000000001402400004000002000000E1
S3150800C5D0000402408000000002000000000402403F
S3150800C5E04000000010000000001002400400000097
S3150800C5F010000000001002401000000010000000AB
S3150800C6000010024020000000100000000010024048
S3150800C61040000000400000000018024080000000B2
S3150800C6204000000000180240000100004000000021
S3150800C63000180240001000004000000000180240E8
S3150800C6400080000001000000000002401000000009
S3150800C6500200000000040240200000000100000063
S3150800C66000000240400000000100000000000240F7
S3150800C6702000000008000000000C02400100000035
S3150800C68008000000000C024002000000080000003C
S3150800C690000C02400400000008000000000C0240E4
S3150800C6A00800000008000000000C0240100000000E
S3150800C6B008000000000C02402000000008000000EE
S3150800C6C0000C02404000000008000000000C024078
S3150800C6D08000000008000000000C02400001000075
S3150800C6E008000000000C02400002000008000000DC
S3150800C6F0000C02400004000008000000000C024084
S3150800C7000008000008000000000C024000100000AD
S3150800C71008000000000C024000200000080000008D
S3150800C720000C02400040000008000000000C024017
S3150800C7300080000010000000001002400100000008
S3150800C7401000000000100240020000001000000067
S3150800C750001002400800000010000000001002400F
S3150800C76080000000100000000010024000010000D8
S3150800C7701000000000100240000200001000000037
S3150800C78000100240000400001000000000100240E3
S3150800C7900008000010000000001002400010000011
S3150800C7A010000000001002400020000010000000E9
S3150800C7B00010024000400000100000000010024077
S3150800C7C00080000020000000001402400100000064
S3150800C7D020000000001402400200000020000000B3
S3150800C7E0001402400400000020000000001402406B
S3150800C7F0080000002000000000140240100000009D
S3150800C8002000000000140240200000002000000064
S3150800C8100014024000080000200000000014024036
S3150800C8200010000020000000001402400020000054
S3150800C8302000000000140240004000002000000014
S3150800C840001402400080000040000000001802406A
S3150800C850010000004000000000180240020000002D
S3150800C86040000000001802400400000040000000DC
S3150800C87000180240080000004000000000180240AE
S3150800C88010000000400000000018024020000000D0
S3150800C8904000000000180240400000004000000070
S3150800C8A00018024000020000400000000018024084
S3150800C8B000040000400000000018024000080000C4
S3150800C8C04000000000180240002000004000000060
S3150800C8D0001802400040000001000000000002406D
S3150800C8E001000000040000000008024001000000EA
S3150800C8F02000000000140240400000002000000054
S3150800C90000140240800000002000000000140240CD
S3150800C9100001000020000000001402400002000090
S3150800C920200000000014024000040000020000007D
S3150800C93000040240800000000200000000040240DB
S3150800C9404000000010000000001002400400000033
S3150800C9501000000000100240100000001000000047
S3150800C96000100240200000001000000000100240E5
S3150800C970400000004000000000180240800000004F
S3150800C98040000000001802400001000040000000BE
S3150800C9900018024000100000400000000018024085
S3150800C9A000800000010000000000024010000000A6
S3150800C9B00200000000040240200000000100000000
S3150800C9C00000024040000000010000000000024094
S3150800C9D02000000008000000000C024001000000D2
S3150800C9E008000000000C02400200000008000000D9
S3150800C9F0000C02400400000008000000000C024081
S3150800CA000800000008000000000C024010000000AA
S3150800CA1008000000000C024020000000080000008A
S3150800CA20000C02404000000008000000000C024014
S3150800CA308000000008000000000C02400001000011
S3150800CA4008000000000C0240000200000800000078
S3150800CA50000C02400004000008000000000C024020
S3150800CA600008000008000000000C0240001000004A
S3150800CA7008000000000C024000200000080000002A
S3150800CA80000C02400040000008000000000C0240B4
S3150800CA9000800000100000000010024001000000A5
S3150800CAA01000000000100240020000001000000004
S3150800CAB000100240080000001000000000100240AC
S3150800CAC08000000010000000001002400001000075
S3150800CAD010000000001002400002000010000000D4
S3150800CAE00010024000040000100000000010024080
S3150800CAF000080000100000000010024000100000AE
S3150800CB001000000000100240002000001000000085
S3150800CB100010024000400000100000000010024013
S3150800CB200080000020000000001402400100000000
S3150800CB30200000000014024002000000200000004F
S3150800CB400014024004000000200000000014024007
S3150800CB500800000020000000001402401000000039
S3150800CB602000000000140240200000002000000001
S3150800CB7000140240000800002000000000140240D3
S3150800CB8000100000200000000014024000200000F1
S3150800CB9020000000001402400040000020000000B1
S3150800CBA00014024000800000400000000018024007
S3150800CBB001000000400000000018024002000000CA
S3150800CBC04000000000180240040000004000000079
S3150800CBD0001802400800000040000000001802404B
S3150800CBE0100000004000000000180240200000006D
S3150800CBF0400000000018024040000000400000000D
S3150800CC000018024000020000400000000018024020
S3150800CC100004000040000000001802400008000060
S3150800CC2040000000001802400020000040000000FC
S3150800CC3000180240004000000400000000080240FE
S3150800CC4000200000000001400100000002011B0056
S3150800CC50000000400100000001021C000004004022
S3150800CC600200000001021D00000800400400000048
S3150800CC7001021E00000401400200000002012E000D
S3150800CC800040014000000100020118000044014074
S3150800CC9000000200020119000048014000000400DB
S3150800CCA002011A00001C00408000000001022C004E
S3150800CCB0002000400001000001022D0010000000C5
S3150800CCC000100240000200000200020001000900F4
S3150800CCD010000000001002400008000104002000B7
S3150800CCE001000B00100000000010024000200002A6
S3150800CCF00800000201000D001000000000100240AC
S3150800CD00004000031000002001000E000100000092
S3150800CD100000024020000100020002000100050098
S3150800CD20010000000000024040000200020002006C
S3150800CD300200060002000000000402402000020172
S3150800CD40040020000200050008000000000C024054
S3150800CD50001003000200020002000C000800000098
S3150800CD60000C0240002003010400200002000D0010
S3150800CD70040000000008024040000400020002000F
S3150800CD8003000600040000000008024080000401B9
S3150800CD9004002000030007001000000000100240F5
S3150800CDA02000050002000200030005001000000034
S3150800CDB000100240400005010400200003000600A0
S3150800CDC02000000000140240400006000200020095
S3150800CDD0030006002000000000140240800007003F
S3150800CDE002000200030007002000000000140240B1
S3150800CDF000010800020002000900080020000000E7
S3150800CE00001402400002090002000200090009009D
S3150800CE10001001401000000002250000020000007A
S3150800CE200004024040000600020000000004024020
S3150800CE3080000700070000000044004000000200D0
S3150800CE400126000008000000000C02402000050032
S3150800CE5008000000000C0240400006000700000021
S3150800CE6000480040000004000127000008000000F8
S3150800CE70000C02400001080008000000000C0240F7
S3150800CE80000209000700000000140140200000000D
S3150800CE9002470000040000000008024040000600A7
S3150800CEA00400000000080240800007000800000097
S3150800CEB056435020436F6E666967000056435020FC
S3150800CEC0496E7465726661636500000053544D6966
S3150800CED063726F656C656374726F6E696373000065
S3150800CEE053544D3332205669727475616C20436F02
S3150800CEF06D506F727420696E204853206D6F64659B
S3150800CF000000000053544D3332205669727475611F
S3150800CF106C20436F6D506F727420696E20465320E3
S3150800CF204D6F6465000000003030303030303030EE
S3150800CF30303530420000000030303030303030308C
S3150800CF4030353043000000000000014001000000B9
S3150800CF5002011B00000000400100000001021C0045
S3150800CF60000400400200000001021D000008004005
S3150800CF700400000001021E00000401400200000037
S3150800CF8002012E00004001400000010002011800C5
S3150800CF900044014000000200020119000048014057
S3150800CFA00000040002011A00001C00408000000076
S3150800CFB001022C00002000400001000001022D00A3
S3150800CFC010000000001002400002000002000200EB
S3150800CFD001000900100000000010024000080001CE
S3150800CFE00400200001000B001000000000100240A1
S3150800CFF0002000020800000201000D0010000000D9
S3150800D00000100240004000031000002001000E003E
S3150800D010010000000000024020000100020002009A
S3150800D0200100050001000000000002404000020067
S3150800D030020002000200060002000000000402408E
S3150800D040200002010400200002000500080000007C
S3150800D050000C0240001003000200020002000C004F
S3150800D06008000000000C0240002003010400200014
S3150800D07002000D0004000000000802404000040001
S3150800D0800200020003000600040000000008024037
S3150800D09080000401040020000300070010000000BF
S3150800D0A000100240200005000200020003000500EF
S3150800D0B01000000000100240400005010400200096
S3150800D0C0030006002000000000140240400006008D
S3150800D0D002000200030006002000000000140240BF
S3150800D0E0800007000200020003000700200000007D
S3150800D0F000140240000108000200020009000800AE
S3150800D100200000000014024000020900020002008C
S3150800D110090009002E2E2F626C6F636B7365742FDE
S3150800D1207274772F53544D33322F7372632F717580
S3150800D1306575652E63000000040404004CD10008E0
S3150800D14054D100085CD100080707070045764368F4
S3150800D1506E6C3100457643686E6C320045764368DE
S3150800D1606E6C3300505050004FBB610567ACDD3F15
S3150800D170182D4454FB21E93F9BF681D20B73EF3FF0
S3150800D180182D4454FB21F93FE2652F227F2B7A3C68
S3150800D190075C143326A6813CBDCBF07A8807703C21
S3150800D1A0075C143326A6913CFB21F93FFB21094075
S3150800D1B07CD91240FB2119407A6A1F407CD922404B
S3150800D1C0BBFD2540FB2129403A462C407A6A2F4070
S3150800D1D05C4731407CD932409C6B3440BBFD3540BE
S3150800D1E0DB8F3740FB2139401BB43A403A463C4076
S3150800D1F05AD83D407A6A3F404C7E40405C474140A1
S3150800D2006C1042407CD942408CA243409C6B4440FF
S3150800D210AC344540BBFD4540CBC64640DB8F474056
S3150800D220EB584840FB21494083F9A200444E6E0062
S3150800D230FC291500D1572700DD34F50062DBC00054
S3150800D2403C999500419043006351FE00BBDEAB005C
S3150800D250B761C5003A6E2400D24D42004906E00087
S3150800D26009EA2E001C92D100EB1DFE0029B11C0014
S3150800D270E83EA700F535820044BB2E009CE98400F1
S3150800D280B4267000417E5F00D69139005383390079
S3150800D2909CF439008B5F840028F9BD00F81F3B0019
S3150800D2A0DEFF97000F980500112FEF000A5A8B0032
S3150800D2B06D1F6D00CF7E360009CB2700464FB7009D
S3150800D2C09E663F002DEA5F00BA277500E5EBC700AA
S3150800D2D03D7BF100F739070092528A00FB6BEA00A2
S3150800D2E01FB15F00085D8D00300356007BFC4600C9
S3150800D2F0F0AB6B0020BCCF0036F49A00E3A91D0002
S3150800D3005E619100081BE60085996500A0145F0020
S3150800D3108D40680080D8FF0027734D00060631004F
S3150800D320CA561500C9A873007BE260006B8CC00062
S3150800D33000000040FB21F93F000000002D44743E28
S3150800D340000000809846F83C0000006051CC783B0D
S3150800D35000000080831BF0390000004020257A3841
S3150800D360000000802282E336000000001DF36935C4
S3150800D3700200000003000000040000000600000090
S31508010000002A2CDD01231A460130C0B2022802D982
S315080100100A700020704791F800C010B5164C0CF014
S31508010020030E04EB8E0E154C1EF80330205C0342BA
S3150801003012D01CF0080F4FEA9C000BD1C40613D44A
S3150801004042EA830213F0380F0A7018BF4FF0FF30E7
S315080100500DD010BD5C07F1D50A70002010BD9217AE
S3150801006002F002021346CFE79806F5D4E8E713F043
S31508010070070018BF012010BD5CC0000858C0000861
S315080100800B78FF2B00D070474B78002BFBD102F081
S3150801009033BD00BF08B5012001F0DEFEBDE808400A
S315080100A0024A40F26761002004F07CBD8100010824
S315080100B000F002B9704700BF2DE9F041224D234AED
S315080100C095F83730224C1370002B3AD094F8DD306E
S315080100D00133DBB21F4994F8E0200B701E491F4E0D
S315080100E084F8DD309A420A7094BF4FF001084FF048
S315080100F0000817D8737B012B14D0194B94F8DF70BD
S31508010100D3E900010CF0F0FFC0B2B84288BF7B1CEE
S31508010110144A8CBFDBB2012384F8DF301370002345
S3150801012084F8DD30072086F80D8007F0C3FA00F55C
S315080101307A7081B269800322BDE8F041072007F091
S315080101400DBA94F8DD30C5E7580300207D0200207A
S315080101503804002028030020D6060020C8060020FF
S3150801016050000020D7060020704700BF2DE9F04156
S315080101702DED048B537A08EE900A9EB00F460BB10B
S3150801018000235372D56A2B68012B5FD09FED499ADC
S31508010190012305F10C08B7EE008A002674222B60AC
S315080101A02B71314685ED029A85ED208A85ED219AD6
S315080101B0404601AC0DF01EF97422414620460DF069
S315080101C003F878EE897AF0EE499A87ED009A1EAB24
S315080101D003EB860313ED1D7A77EE876AB600B3EE55
S315080101E00D7A06F17803B4EE478A0DEB0306F1EEB4
S315080101F010FA46ED1D8A4CD0B7EE007A38EE078A1A
S31508010200F5EE409AF1EE10FA05D1B3EE0E6A86EED6
S31508010210867A87ED007AC5ED027A74222146404630
S315080102200CF0D2FFF5EEC09AF1EE10FAC6BFF7EE62
S31508010230007A79EEE77ADFED1F7A85ED208AC5ED3A
S31508010240217A1EB0BDEC048BBDE8F08195ED208ABC
S3150801025095ED029AD5ED219AFDEEC87A05F10C08BD
S3150801026001AC74224146204617EE906A0CF0ACFFA9
S315080102709FED107AF4EE479AF1EE10FA79EE287AA4
S3150801028006F1FF3687ED007AA1D0F0EE476AB6008F
S31508010290A5E71DAB73ED017A93ED017A77EE877ABF
S315080102A09C42C3ED007AF5D1DFED027AB7EE008AFA
S315080102B0A6E700BF000000002DE9F04F2DED088BE1
S315080102C0C84C89B00023D4E9080100220CF0B2FE1B
S315080102D000230293002840F05A8794F80431002B32
S315080102E040F02E8794F8DC30002B00F03187BE4DA4
S315080102F0FF2395F830B084F8D930BC4B84F8DCB0CC
S31508010300D3E90001002200230CF094FE18B9BBF1D1
S31508010310010F00F07E8794F8E8300022CDE9032228
S31508010320003B18BF012385F83730B14B1B7807EE20
S31508010330903AF8EEE77AB1EE047AF4EE477AF1EEFE
S3150801034010FA00F06182B2EE047AF4EE477AF1EE21
S3150801035010FA00F05982DFF8B4A200238AF80C30AB
S31508010360A44E8AF80B303378002B00F02686A04B72
S315080103701B7807EE903A0126BBF1020FB8EEE77A31
S3150801038084F8FB6000F02D8707EE90BAF8EEE77A5D
S31508010390F7EE006AF4EE667AF1EE10FA41F0EF82B2
S315080103A094F80361002E40F05187F0EE007AB4EE1E
S315080103B0677AF1EE10FA00F053878AF80A6094F822
S315080103C00221F0EE087A12B1002284F80221B4EE75
S315080103D0677AF1EE10FA40F064879AF80920012A43
S315080103E00CD0854B854A002011681870012204F04B
S315080103F065F97F4B94F8DCB01B780122BBF1010F3C
S315080104008AF8092000F05487012B01F0888394F8B3
S31508010410012112B1002284F80121794900220A70CA
S3150801042007EE903AB8EEE78A07EE90BAF8EEE78A51
S31508010430F1EE087AB4EE678AF1EE10FA8AF8072027
S3150801044041F00081F0EE007AF4EE678AF1EE10FAD7
S3150801045041F0348194F80031002B41F0BB849AF8BD
S315080104600630012B6ED0674A94F8EE1092F83C30AC
S3150801047094F8ED6049009B00C9B2DBB2581885F8BB
S31508010480B51092F83D1085F8B63092F83E30C9009D
S315080104903044C9B21B0185F8B410DBB2014485F8B2
S315080104A0B3300B4492F83F10B4F84C00564E49014C
S315080104B0C9B20B4485F8B21092F8401092F841205F
S315080104C08901C9B2D201D2B20B44134485F8B020CE
S315080104D0DAB2B4F85A3085F82A301B0AA5F8AE30D4
S315080104E085F82930B4F84C3085F8B11085F82C30E8
S315080104F0B4F85A1085F828201B0AA5F8AC3085F8F7
S315080105002B303D4B49BA40BA18805980002094F8DF
S31508010510DD10197184F8F10085F8271058719A7160
S31508010520D8713168082204F0C9F8314B1B7808EEF6
S31508010530103A94F8DC3008EE903AB8EEC88AF8EE2C
S31508010540E88A0123F1EE0C7AB4EE678AF1EE10FA25
S315080105508AF8063041F07080F0EE087AF4EE678A80
S31508010560F1EE10FA00F0798700238AF8053094F83D
S31508010570FF3013B1002384F8FF300023F1EE0C7A23
S31508010580B4EE678AF1EE10FA8AF8043007D1F0EE74
S31508010590087AF4EE678AF1EE10FA41F0158394F8B9
S315080105A0FE3013B1002384F8FE30114B1B7807EE99
S315080105B0903A94F8DC30F8EEE77AF2EE006A07EE44
S315080105C0103AF4EE667AF1EE10FAB8EEC77A00F050
S315080105D0C78694F8FD3013B1002384F8FD30002353
S315080105E016E000BF38040020580300200800002048
S315080105F0D70600207D020020C0020020200000202E
S315080106007A02002000C000082C000020C80600203D
S31508010610F2EE026AF4EE667AF1EE10FA8AF803301F
S3150801062041F01980F1EE047AB4EE677AF1EE10FA28
S3150801063041F0948094F8FC30002B41F0C6839AF877
S315080106400230012B5DD0664994F8EE0091F822300C
S3150801065091F8232091F8286040009B00DBB2C0B2D4
S3150801066085F84B0085F84C30184491F82430D200AF
S315080106703044D2B21B0185F84A20DBB2024485F820
S315080106804930134491F8252091F82600554E520118
S31508010690D2B2134485F8482091F827208101C9B2BE
S315080106A0D201D2B20B44134485F84620DAB2B4F823
S315080106B05A302B721B0AA5F84430EB71B4F84C304A
S315080106C0B4F84C0085F84710AB72B4F85A10AA7101
S315080106D01B0AA5F842306B72434B49BA40BA1880D7
S315080106E0598094F8DD0094F8DE1069712871187143
S315080106F0002059719A71D8713168082203F0DEFF1A
S3150801070001233A498AF802301322481E0CF0F6FDF5
S3150801071094F8033194F8F22084F8772013B1029BF8
S3150801072084F8F53094F8DCB0039B53B19AF801309C
S31508010730012B06D02E4B1B7884F8E030002384F871
S31508010740DD30049B8AF80130BBF1010F04D994F816
S31508010750E820002A00F0288594F8FA30002B40F0AA
S315080107607F84BBF1030F40F28284FF2384F8DA30D9
S31508010770DFF890901F4F204D204EDFF8848000212E
S3150801078089F80010397029700822404604F08AFD5C
S315080107904FF0000C84B286F800C0002C00F04684A5
S315080107A0174B397899F800E0013CA2B203F1080425
S315080107B004EBC2049A7808338A4284BF11464FF083
S315080107C0010CA342F6D1864489F800E03070BCF1E9
S315080107D0000F00D0397029780831C9B22970D3E7DA
S315080107E000C0000838000020C00200209D04002037
S315080107F06800002020030020220300202303002094
S31508010800E002002021030020DFF8CCA39AF80C307F
S31508010810012B00F02282DC4BB4F85C0018800CF046
S3150801082027F90AF0FFFCD94BD3E904230CF09AF90E
S31508010830D74B00220CF096F9B4F85E60D54AB4F8A5
S3150801084060301380F31A41EC1B0B98B2D24B1E8011
S31508010850D24B18800CF00CF9804689460AF098FCB0
S3150801086002460B464046494643EC1A2B0AF0C0FBA2
S31508010870CB4B41EC190B002251EC1B0B0CF072F916
S3150801088053EC1A2B0CF06EF9C64B804689460022AA
S3150801089051EC190B0CF066F902460B4640464946DF
S315080108A00BF0AAFF02460B46304643EC182B0CF018
S315080108B0DFF802460B46002000210BF09BFFBA4BDE
S315080108C080468946C3E9008951EC190BB44B0022CD
S315080108D00CF048F953EC1B2B0CF044F9B14B0646C6
S315080108E00F46002251EC1A0B0CF03CF902460B4656
S315080108F0304639460BF07EFFA44B0F46194606468D
S31508010900D3E90223D1E900010CF02CF932463B4622
S315080109100CF028F906460F46404649460AF038FCC7
S3150801092002460B464046494643EC192B0AF060FB42
S31508010930002241EC1A0B002351EC180B0CF084FB36
S31508010940002840F07D8451EC180B002200230CF09E
S3150801095099FB4FF00008002801F07981DFF87C92B5
S315080109608F4BB0EE4ABAF0EE6ABA51EC1A0B002276
S315080109700CF0F8F832463B460CF0F4F847EC1A6BE3
S3150801098053EC192B06460F4651EC180B0CF0EAF8F6
S3150801099002460B46304639460BF02CFF7B4B064682
S315080109A0D3E906230F46404649460CF0DBF80246D2
S315080109B00B46304639460CF0D5F87C4B00220CF034
S315080109C0D1F8774B80468946002251EC1A0B0CF078
S315080109D0C9F853EC192B0CF0C5F853EC1B2B06463A
S315080109E00F4651EC180B0CF0BDF802460B46304683
S315080109F039460BF001FF02460B46404649460CF0C4
S31508010A00DBF90CF091FB0CF055F80AF065F90CF0DE
S31508010A108BFB9FED677A674B07EE900A67EE877A3D
S31508010A20186017EE900A0CF045F8634B8046894624
S31508010A30C3E90089606C0CF02BF84FA3D3E90023B6
S31508010A400CF090F85D4B06460F4640464946C3E909
S31508010A5000670AF021FB02460B4630463946164620
S31508010A601F460AF019FB02460B46304639460BF07B
S31508010A70C1FE94ED027B524A524BB0EE478AF0EE24
S31508010A80678A8046894621F00047C2E90089B0EEA7
S31508010A9047AAF0EE67AAD3E90023394606460CF0C1
S31508010AA061F853EC182B0BF0A7FE02460B4643ECF4
S31508010AB0182B33A3D3E90023B0EE489AF0EE689ACF
S31508010AC00CF0E0FA002840F0A38651EC180B00223E
S31508010AD000230CF0B9FA002841F0FD8051EC180BFF
S31508010AE00CF002FB00F5FA7083B2374A3749A4F8CD
S31508010AF04E300B8092ED008B00230022494640467A
S31508010B000CF0C0FA324B021E18BF01221A70059268
S31508010B1051EC180B32463B460CF096FA002800F0C9
S31508010B20628640464946002200230CF0ABFA0028AB
S31508010B3001F09180274B4FF0000883F800800123CC
S31508010B4084F8E93084F8EA8059EC198B0CA3D3E9C7
S31508010B50002319EE100A49460CF094FA002800F011
S31508010B605B8619EE100A06A3D3E9002349460BF062
S31508010B7041FE41EC190B33E0000080999999B93F80
S31508010B800000000000C072405603002000C00008A3
S31508010B900000D03FE2060020E0060020680200209F
S31508010BA0000010400000E03F6002002000000840FD
S31508010BB066663642DC020020D8060020380300208B
S31508010BC0D0020020600000204000002030030020F1
S31508010BD0D8020020C8020020C80600200000F03F05
S31508010BE0CB4B3046D3E9002339460BF0BBFF002235
S31508010BF0002306460F4651EC190B0CF043FA002266
S31508010C000023002801F0B780304639460CF03AFA3D
S31508010C10002841F0C08032463B4651EC1A0B0BF0D6
S31508010C20EBFDDFF85C934FF0000842464B4606465B
S31508010C300F460CF01DFA002840F026854FF00008F3
S31508010C404FF000093046394642464B460CF006FA43
S31508010C50002840F01985C4E902679AF80B30012289
S31508010C6093428AF80C203FF47BABAA4AAA4894F827
S31508010C707830AA49137094F87A20A94E027094F82C
S31508010C808300A84F087094F89310317094F8AC60FB
S31508010C903E7063B1002A00F08387002801F09F8027
S31508010CA0002901F0CC80002E0CBF002304239E49A5
S31508010CB094F8F8200B4413F80290B9F1000F00F0EC
S31508010CC0BD82ABF1010BBBFA8BFB4FEA5B1B974B62
S31508010CD0B4F8588083F800B0954BB4F85620A3F8B9
S31508010CE00080944B84F8EDB01A80A8EB02031BB27E
S31508010CF0002BBCBFA2EB08031BB2B3F57A7F40F306
S31508010D006F8594F8CF30002B0CBF002304231944B8
S31508010D1094F8F920B4F84C3011F802B084F8EEB022
S31508010D204FF28A4202FB03F39B0DA4F85C30636C15
S31508010D3005931946A36AB4F84820A4F856208B42AD
S31508010D4000F0E486002794F8EF3094F8EB2094F845
S31508010D50F310069113430CBFB4F85A30B4F8523065
S31508010D604FF28A4202FB03F39B0D94F8EC20A4F898
S31508010D705E3094F8F030134340F07684B4F854307A
S31508010D804FF28A4202FB03F39B0DA4F85E30002161
S31508010D90042001F0EDFB07EE900A674E674A6849A1
S31508010DA03080F8EE677A17EE900AFFF7DFF9D5ED8E
S31508010DB0377A3388A4F85830FCEEE77A614A17EE99
S31508010DC0903A00219BB205201380A4F84C3001F01B
S31508010DD0CFFB07EE900A5C4B5C4A1880F8EE677AFF
S31508010DE05B4917EE900AFFF7C1F9D5ED367A594AEC
S31508010DF0FCEEE77A472017EE903A9BB21380A4F8E7
S31508010E005A3005F095FD544B84F8DE001B7884F8BA
S31508010E10F33095F83830002B40F0AD86012005F007
S31508010E20D5F94E4B6064186000220023D4E900010D
S31508010E300CF00AF94A4E0038337818BF012085F8B4
S31508010E403800002B00F01B8494F8F430002B00F0D6
S31508010E50168494F8DC30012B00F0D98794F8F22037
S31508010E60002A40F06787012385F839303D4B1A8CF3
S31508010E702A80B3F8422093F842306A873A4994F8AF
S31508010E80792084F87820481E082284F87970079317
S31508010E900CF034FA354984F882700F22481E0CF09A
S31508010EA02DFA334984F892701822481E0CF026FA56
S31508010EB0304984F8AB702222481E0CF01FFA2E49DD
S31508010EC084F8CE700922481E84F8F8900CF016FAB8
S31508010ED02A49069B84F8D8301822081F84F8F9B0E5
S31508010EE00CF00CFA059B2364079BB4F84A20A4F876
S31508010EF0482000200021C4E90001A4F84A80002BFB
S31508010F0040F0378519460A2005F060FD3AE000BF32
S31508010F10480000202A0300202B0300202C03002070
S31508010F202D0300202E03002048C0000832030020AC
S31508010F305403002026030020760200200406002020
S31508010F4034040020420300207802002040050020D6
S31508010F503004002048030020250300203403002024
S31508010F607D02002000C00008B3040020BC04002054
S31508010F70CC040020E50400200805002064040020B4
S31508010F800000594095F83B1001B101210B2005F0ED
S31508010F901DFD95F8391001B10121472005F016FD0F
S31508010FA02988102005F0A0FB01238AF80B30337835
S31508010FB094F8DCB0002B7FF4DAA994F8FB20002A18
S31508010FC03FF4B2AB94F803210AB184F8033194F8DB
S31508010FD0023113B1002384F8023194F8013113B1B7
S31508010FE0002384F8013194F8003113B1002384F801
S31508010FF0003194F8FF3013B1002384F8FF3094F8D8
S31508011000FE3013B1002384F8FE3094F8FD3013B195
S31508011010002384F8FD3094F8FC3013B1002384F8DA
S31508011020FC30002384F8FB30FFF77EBB2B78B84AE7
S3150801103099F80010117008332B7001F05FFDB54B5C
S31508011040187001F061FDB44B0246B4481A6001F00C
S315080110505DFDB34B186009B0BDEC088BBDE8F08F98
S315080110600023BBF1030F84F8FA303FF67EAB94F800
S31508011070E13094F8E220AB49012B28BF0123012A6C
S3150801108094BF9B180133DBB2002247200B7084F80A
S31508011090DA2084F8E63005F04BFC002800F0BE8023
S315080110A094F8E330A049002BD1E900014FF0000282
S315080110B04FF0000314BF022600260BF0BBFFB0FA5F
S315080110C080F04009994994F8F620831901EB430306
S315080110D007469E5C94F8E230012B00F03D86002E0F
S315080110E040F05D863246334685F8312095F835203D
S315080110F052001A4494F8E430C2F3470285F83320C3
S3150801110003B1871C94F8F73001EB4701C95C94F8E1
S31508011110E130012B00F04B86002940F044860B464E
S31508011120084685F8323095F836305B000344C3F338
S31508011130470384F8F66085F8343084F8F71071E0CF
S31508011140029B84F8043194F8DC30002B7FF4CFA895
S315080111500E2084F8D93005F0EBFB8346BBF1000B72
S315080111604FF00F0018BF4FF0010B05F0E1FB08B176
S315080111700BF1020B102005F0DBFB18B10BF1040B88
S315080111805FFA8BFB6A4D85F830B0FFF7B6B8694B45
S315080111900022C4E9082301210322072084F8041147
S315080111A006F0DCF9FFF79EB8634B644E012184F81B
S315080111B0FA10104619680092334603F0AFFC021E76
S315080111C004DDB37985F840303368EB635C49012067
S315080111D0FEF716FF002840F0D38494F8DCB0FFF739
S315080111E0C0BA94F86420002A00F0C983F0EE007AA8
S315080111F0B4EE677AF1EE10FA00F0F48594F803215B
S31508011200002A40F01F8607EE90BAF8EEE77A002228
S315080112102FE0CDE903BB5B46FFF785B895F8332088
S3150801122095F834304748484992099B09027084F871
S31508011230E1200B7084F8E230FFF79ABACB4646E50F
S31508011240DFF818914FF00008FFF78ABBF0EE006A45
S31508011250B4EE667A0026F1EE10FA84F80361D6D167
S315080112609AF80A20012A40F0328407EE90BAF8EE7D
S31508011270E77AF7EE006AF4EE667AF1EE10FA8AF882
S315080112800A203FF49CA8F0EE087AB4EE677AF1EEEC
S3150801129010FA00F0F58394F8022112B1002284F8BD
S315080112A002210022BBF1010F8AF809207FF4ACA8BC
S315080112B094F8012112B1002284F80121012B7FF44F
S315080112C0ACA89AF80720214E01218A4231703FF4D1
S315080112D0A7A8B4F862201E4F1E4B3A8001325970F6
S315080112E0A4F86220144994F8E0201A70002085F8C1
S315080112F02D204FF080725A6058800822096803F041
S31508011300DDF9154B32781B7894F8DCB0FFF788B80D
S31508011310240300206A0200206C020020ACC00008E9
S3150801132070020020740200201800002048C000083E
S31508011330580300200000F03F2400002090020020FE
S31508011340C806002041030020400300207A0200203D
S31508011350E4060020C0020020D70600200000F0BFE6
S31508011360F1EE006AB4EE667AF1EE10FA40F0AB825D
S3150801137094F8FD3013B1002384F8FD309AF8033050
S31508011380012B3FF445A9C64A94F8EE1092F8293084
S3150801139092F82F6049009B00C9B2DBB2581885F84C
S315080113A0631092F82A1085F8643092F82B30C90038
S315080113B0C9B230441B0185F86210DBB2014485F8D5
S315080113C061300B4492F82C10B4F85A004901C9B29D
S315080113D00B4485F8601092F82D1092F82E20890199
S315080113E0C9B2D201D2B20B44134485F85F10D9B2FF
S315080113F0B4F85A3085F85E201B0AA5F85C30B4F8B3
S315080114004C30B4F84C2069741B0AA5F85A30A54B20
S3150801141040BA52BA1A8058806882AA82A24894F8B9
S31508011420DD201A71EA7394F8DE205A712A749971CB
S3150801143001680020D871082203F040F99B4B1B78FC
S3150801144007EE903A94F8DC3007EE103AF8EEE77AB0
S31508011450B8EEC77A0123FFF7DBB89AF80530012BF6
S315080114603FF483A88E4A94F8EE1092F8363094F831
S31508011470ED6049009B00C9B2DBB2581885F8A9107E
S3150801148092F8371085F8AA3092F83830C9003044F6
S31508011490C9B21B0185F8A810DBB2014485F8A7304B
S315080114A00B4492F83910B4F84C00814E4901C9B27F
S315080114B00B4485F8A61092F83A1092F83B20890158
S315080114C0C9B2D201D2B20B44134485F8A420DAB2C8
S315080114D0B4F85A3085F824301B0AA5F8A23085F8E5
S315080114E02330B4F84C3085F8A51085F82630B4F8C1
S315080114F05A1085F822201B0AA5F8A03085F8253050
S31508011500684B49BA40BA18805980002094F8DD1012
S315080115101971587185F821109A71D87131680822A4
S3150801152003F0CCF8614B1B7807EE103A94F8DC30DF
S3150801153007EE903AB8EEC77AF8EEE77A0123F1EEAC
S31508011540006AB4EE667AF1EE10FA8AF805307FF48D
S315080115500EA8B7EE007AF4EE477AF1EE10FA40F0EB
S315080115606F8194F8FF3013B1002384F8FF309AF89D
S315080115700430012B3FF402A8494E94F8EE0096F880
S31508011580301096F8313094F8ED7042008900D2B2E5
S31508011590C9B285F88E1085F88D20114496F8322047
S315080115A0DB00DBB239441201D2B285F88C300B4428
S315080115B085F88B20134496F8332096F83410520197
S315080115C0D2B2134485F88A2096F83520B4F84C60CF
S315080115D08901C9B2D201D2B20B44134485F88820D5
S315080115E0DAB2B4F85A30AB771B0AA5F886306B77AE
S315080115F0B4F84C3085F8891085F82030B4F85A10BB
S315080116002A771B0AA5F88430EB77264B49BA598005
S3150801161076BA28491E80284E087094F8DD1019718B
S315080116200020E97658719A71D8713168082203F059
S3150801163045F80123FEF7A2BFF0EE687AB0EE487AC4
S3150801164000237CE794F8003113B1002384F80031B4
S315080116500023FEF777BF94F8FC3013B1002384F812
S31508011660FC300023FFF74DB8B4F850304FF28A42E8
S3150801167002FB03F39B0DA4F86030FFF788BB012238
S3150801168085F83920FFF7F2BB9AF80B30012293420D
S31508011690C4E902898AF80C207FF4E7AAFEF760BE3E
S315080116A000C00008C002002034000020D706002030
S315080116B0300000205203002028000020B44BB54F0B
S315080116C019680022012600923B4684F800611046FB
S315080116D003F024FA002840F3E782BA78F8783B78D1
S315080116E0797885F8C120120285F8BF30A5F8C62099
S315080116F01B02024485F8C200A74885F8C0101944A0
S315080117000180A649A5F8C430BB7984F8F46085F848
S31508011710C3300A80A24A127808EE102A94F8DC200F
S3150801172008EE902A5A0885F8BE2085F8B7209A0847
S3150801173085F8BD20DA0885F8BC201A0985F8BB208A
S315080117405A0985F8BA209A09DB09B8EEC88AF8EE6B
S31508011750E88A85F8B92085F8B83079E7914B924E31
S315080117601968002201230092104684F8FC3033469A
S3150801177003F0D4F900288D4B40F38A8277793278C1
S315080117807078B1781F70B379EA7228736973AB738D
S3150801179012021044A5F856205A0885F8542085F8EF
S315080117A04D20003A18BF012284F8F0209A0885F8DE
S315080117B05320DA0885F852201A0985F851205A0962
S315080117C0090285F850209A09DB0984F8E370A4F820
S315080117D05000A5F8581085F84F2085F84E3040E797
S315080117E00023FFF794BA059B83F00108704B83F831
S315080117F00080002384F8E93051EC180B32463B4649
S315080118000BF022FC002808BF4FF00008FFF79AB931
S315080118104FF44873FFF769B951EC190B00220023FD
S315080118200BF026FC00283FF4DBA9624B304639460B
S31508011830D3E900230BF096F906460F46FFF7EBB9F5
S315080118405D4B5E4E1968002201230092104684F80A
S31508011850FF30334603F062F9002840F305823178F8
S315080118607778B278F078B37985F8971085F8987013
S3150801187085F8992085F89A0085F89B3012020902A5
S315080118801044A5F89E204E4AA5F89C100F441780CF
S315080118904C4A10805A0885F8962085F88F209A08B0
S315080118A085F89520DA0885F894201A0985F8932091
S315080118B05A0985F892209A09DB0985F8912085F855
S315080118C09030FEF75ABE404B404E1968002201235C
S315080118D00092104684F8FD30334603F01FF90028BC
S315080118E040F3CD813A4996F805C033787778B278CE
S315080118F0F07881F800C0B179AB75EF752A7668760C
S31508011900A9761B021F44A5F86E304B0885F86C3082
S3150801191085F86530003B18BF012384F8EF3094F849
S31508011920DC301F4E84F8E4C007EE103A8B0836788F
S3150801193085F86B30CB0885F86A300B09120207EE79
S31508011940906A85F869304B09104485F868308B0927
S31508011950C909F8EEE77AB8EEC77AA4F85270A5F87D
S315080119607020A4F8540085F8673085F86610FEF7EC
S3150801197036BE01210A2005F029F8FFF703BBF0EE70
S31508011980007AB4EE677AF1EE10FA23D0002635E430
S315080119902C000020A00200204A0300204C0300204E
S315080119A0D706002038000020B80200207C0200205B
S315080119B0C8020020480000202800002098020020C4
S315080119C0440300204603002034000020B002002012
S315080119D07B020020C24B94F8E510187894F8E720AA
S315080119E0C04B814294BF00270127642A8CBF042675
S315080119F000263344BC4E3170BC4E377094F8F560FE
S31508011A009B5D029381424FF0010384F8033135D976
S31508011A10029B003B18BF012384F8F2300132B44B14
S31508011A20B44E84F8E720002219680092334610461E
S31508011A3003F074F8002808DD7388A5F8D430B37963
S31508011A4085F8D6303388A5F8D23094F8F130012BD1
S31508011A5000F0A98094F8E53094F8DCB0013384F8F5
S31508011A60E530A54B1B7807EE903AB8EEE77A07EE14
S31508011A7090BA0026F8EEE77AFFF7C9BB0023CBE751
S31508011A80002E40F0D2819D4B00969D4F1968012387
S31508011A9084F8023132463B46304603F03FF80028C7
S31508011AA040F3FC807B7885F8CE30BB7885F8CF305B
S31508011AB0FB7885F8D030BB7985F8D1303B7885F845
S31508011AC0CD308D4B94F8DCB01B78FFF7EABB884A1A
S31508011AD08C4B116894F8E62083F800B05A7085F8A3
S31508011AE02F200020022285F82EB002F0E7FD824B56
S31508011AF094F8DCB01B7807EE903AB8EEE77A07EE71
S31508011B0090BA0122F8EEE77AFFF7B3BBB4F84E7044
S31508011B10B7F52F7F94BF00270127FFF714B9002EC9
S31508011B2040F0798184F80131774F784B009619682E
S31508011B3032463B46304602F0F1FF021E05DDBB790F
S31508011B4085F8CC303B68C5F8C83071490120FEF7E5
S31508011B5057FA50B1012384F8DD3084F8DF3084F870
S31508011B60F13095F8C83084F8E030634B94F8DCB06E
S31508011B701B78FEF752BC012004F038FBFFF74EB97B
S31508011B80012395F83C1094F8DCB084F8E0100022A3
S31508011B9084F8DD2084F8E83084F8DF30FEF7E1BD0B
S31508011BA01346FFF784B8544B94F8DCB01B7807EE5C
S31508011BB0903AB8EEE77A07EE90BA0026F8EEE77A99
S31508011BC084F8E560FFF723BB524B534E1968002290
S31508011BD001230092104684F8FE30334602F09EFF38
S31508011BE0002840F3098131787778B278F078B379AB
S31508011BF085F87A1085F87B7085F87C2085F87D0054
S31508011C0085F87E30120209021044A5F88220434A5B
S31508011C10A5F880100F441780414A10805A0885F8A4
S31508011C20792085F872209A0885F87820DA0885F8E7
S31508011C3077201A0985F876205A0985F875209A09B0
S31508011C40DB0985F8742085F87330FEF7AEBC4FF0D2
S31508011C500009FEF785BE334B84F8E9004FF0010809
S31508011C6083F80080FEF76EBF95F8971095F898707F
S31508011C7095F8992095F89A0095F89B30FEE52A4B38
S31508011C80EF7D93F800C02A7EAB7D687EA97E38E693
S31508011C901F78EA7A287B697BAB7B79E5164B94F842
S31508011CA0DCB01B78FFF7FDBA95F8BF2095F8C01090
S31508011CB095F8C1301202A5F8C4200A4495F8C21055
S31508011CC01B02A5F8C6300B4418490A80184A138026
S31508011CD095F8C3301EE54FF4FA73FEF706BF00BF49
S31508011CE05800002048C000082F03002029030020BF
S31508011CF01000002080020020D706002020000020C6
S31508011D0088020020C0020020900200202400002042
S31508011D10D006002030000020A80200204E03002033
S31508011D2050030020C80200207B0200204A0300203D
S31508011D304C030020022B6AD0012385F83930B4F808
S31508011D404E3094F8EA202B8094F8E93085F83A3039
S31508011D5085F83B20FFF792B8002E0CBF3346802347
S31508011D6085F8353008BF324695F8313018BF4FF43B
S31508011D708072FFF7BEB9304639460BF083F9002861
S31508011D807EF449AF51EC190B002200230BF052F9EE
S31508011D9000287EF440AF00260027FEF73CBF8023CB
S31508011DA01A46FFF7A1B980200346FFF7BAB90029F9
S31508011DB00CBF0B46802385F8363095F832000CBFE8
S31508011DC00B464FF48073FFF7B1B9002384F8FC3052
S31508011DD0FEF735BC002384F80031FEF740BB034605
S31508011DE0FEF765BF94F80321002A3FF439AA0022B9
S31508011DF084F80321FFF734BA95F87A1095F87B70C1
S31508011E0095F87C2095F87D0095F87E30FAE6002352
S31508011E1085F8393093E794F80121002A3FF451AA4D
S31508011E20002284F80121FFF74CBA94F80221002A0E
S31508011E303EF4D3AA002284F80221FEF7CEBA0B4655
S31508011E40FEF735BF07EE90BA0022F8EEE77A84F876
S31508011E500321FFF7DCB900BFF0B5082185B04020A2
S31508011E6002F068F90020784C02F0E4FD7749032076
S31508011E7005F0B8FAFF2702210E2084F8D97004F07C
S31508011E8021FD02210F2004F01DFD0221102000254D
S31508011E9004F018FD6E49072005F03AFC294604208E
S31508011EA000F0E4FA012604F50173C4E97F6684F8B3
S31508011EB08C62C4F8F8312946C4F8D061A4F8D46113
S31508011EC0052084F8CC51C4F8045200F0CFFA04F581
S31508011ED0A073C4F83431C4E94E6684F8C861022196
S31508011EE0C4F80C61A4F81061472084F80851C4F8B5
S31508011EF0405104F0E7FC3046294604F0DFF8314644
S31508011F000A2004F031FD31460B2004F02DFD31463F
S31508011F10472004F029FD2A4642F60D01092004F05E
S31508011F2081FA4C494C4E092004F024FC2A462946DC
S31508011F30102004F009FB494B2846196802F0C2FD36
S31508011F40474B2846196802F0BDFD3168284602F05C
S31508011F50B9FD444B2846196802F0B4FD424B2846A0
S31508011F60196802F0AFFD414B2846196802F0AAFD2F
S31508011F703F4B2846196802F0A5FD3E4B28461968CD
S31508011F8002F0A0FD3168284602F09CFD0221472097
S31508011F9084F8DA7004F096FC4FF4197000F0BAFB75
S31508011FA04FF47A7000F0AAFB642000F033FB27494E
S31508011FB08DF80C5001AA2846CDE9015502F048F9D9
S31508011FC0012804D02C4840F6417100F017FE2B4930
S31508011FD0032005F08BFB02F099FE02F0A1FE284BC7
S31508011FE0284A29499A604FF00130C3E9002040F296
S31508011FF001109881D4F8F85101230B702B68012B35
S315080120000DD100267422AE60002105F10C000BF0FB
S31508012010F1F94FF07E53C5F88030C5F88460D4F8DD
S3150801202034412368012B0DD100257422A5600021B6
S3150801203004F10C000BF0DEF94FF07E53C4F8803042
S31508012040C4F8845005B0F0BD3804002040420F00A2
S31508012050B9000108B500010824000020100000207D
S31508012060200000202C00002028000020300000203D
S315080120703400002038000020B8C0000869010108B2
S31508012080C80600200301010125030020454B1B78E2
S31508012090012B00D070472DE9F041434A1378012BF3
S315080120A096B005D0414803F06FFB16B0BDE8F08144
S315080120B03F4E0024334614705A78E5B203331AB1F9
S315080120C001340A2CF8D125463A4803F049FE4FF067
S315080120D080603949394A07904FF480634FF40060AC
S315080120E008914FF4005100270B94099201244FF4EB
S315080120F080720D930E904FF480330F912D481092F4
S3150801210007A911930A970C971297CDE91477139497
S3150801211003F0BCFE2146274803F0E4FE03F09CFACF
S3150801212001A9224801978DF808408DF80970CDE973
S31508012130037705978DF8185003F09CFABDB1013D58
S31508012140EDB2DFF88080194F023504EB44023244C0
S31508012150032312F8032C02EB420208EB82013846EC
S31508012160E2B2897A013403F0C9FAAC42EDD1002012
S3150801217003F0C2FE012003F0CDFE012003F0D8FED4
S315080121800F4A0A48136843F400531360012103F008
S315080121900BFB0121054803F0FDFA0121034803F071
S315080121A0A3FA7FE771000020700000200022014099
S315080121B0E8060020106402404C220140080700206E
S315080121C000700040DCC000082DE9F04FA34B1B68E6
S315080121D097B0002B00F0F180A14B019303F11E0982
S315080121E09F4DCDF8009004E0009B03359D4200F019
S315080121F0B880AB78002BF7D06B78002BF4D0994BCD
S315080122001B78002BF0D0954A95F800801768013B9A
S31508012210DBB207F14C064C2212FB0369AA4604E01D
S31508012220B145374600F097804C3639784145F7D1A4
S31508012230019B002404E001340A2C03F1030305D0B1
S315080122405A78012AF7D11A788A42F4D14C223946AA
S3150801225003A80AF0B9FFB86C049A7D6CC30602F0AC
S3150801226078418B4200F08E804FF0000C9B4600E0CF
S315080122708C460CF10101C9B216AB03EB810353F885
S31508012280483C03F0784EF345F2D10CF1020C0B29C8
S315080122909E465FFA8CFC5B4669D90E2910D80FFA5F
S315080122A08CF103AA02EB810100E094464A6841F8E1
S315080122B0042BBCF10E0F0CF10102D2B2F5D9049A26
S315080122C0694931F814C022F07842CCF30B0C6FF04F
S315080122D078419445139160D900240134E4B216AAD1
S315080122E002EB8402A64652F8482C22F0784294451D
S315080122F0F3D80B2C38D8032C0F9A98BF079922F0DC
S315080123007842A5EB020296BF21F078410CEB020553
S315080123108D18C4F10E0412AAE4B2A2EB840413AA1E
S3150801232052F8041D51609442FAD1441C16AA102C85
S3150801233002EB8E0E28BF002443EA0C03384603A994
S315080123404C224EF8483CCDE914540AF03DFFB145FC
S3150801235037467FF469AF5546009B03359D427FF4A6
S3150801236048AF17B0BDE8F08F0E2CD2D9DDE7109A29
S31508012370032922F0784215441AD92EF0784EA5EB96
S315080123800E058CE7109A089922F07842154421F037
S3150801239078416D1A4FF0010C81E70F9A079922F0DF
S315080123A07842AD1A21F0784100240D44A646B0E7DB
S315080123B0089921F078416D1A71E72A4E337803EBB3
S315080123C0C30203EB4203980000F04CFA234B804604
S315080123D01860234B002837D01A4601931546034641
S315080123E002F11E0914AC212703E003354D453FF4DC
S315080123F0F7AEAA78002AF8D095F800C004A90022F9
S3150801240041F8042BA14202F10062F9D14C2203A939
S3150801241018468DF80CC014970AF0D6FE327802EBEE
S31508012420C201034602EB41024C3308EB8202934296
S31508012430DBD90122142142F2030002F063FE074BA5
S31508012440186800F07BFACBE60122142142F2020059
S31508012450019303F11E0902F055FEC1E61C0700208F
S31508012460E806002002000020080700202DE9F043B5
S31508012470092885B006460D4668D838480478F4B95F
S31508012480374A384B012702F11401077022F8024B2B
S315080124908A425C709C7003F10303F7D101214FF462
S315080124A0800003F0C3FD4FF48060012103F0E2FDD3
S315080124B06846CDE90044CDE9024403F001F9DFF8A5
S315080124C0A48008F11E014746434602E003338B42C6
S315080124D008D05A78012AF9D11A78B242F6D105B04C
S315080124E0BDE8F083204A06EB46039B0002EB03098D
S315080124F0D058012103F09AFDB9F808300093002459
S315080125000323D9F804008DF8043069468DF807408D
S3150801251003F01CFD98F8013008F1030843B10134B2
S315080125200A2CF7D10122142142F2010002F0EAFD38
S3150801253004EB44043B1901223E555A7005B19A70C1
S315080125400A4B01221A7005B0BDE8F0830122142155
S315080125504FF4005002F0D6FD8FE700BF710000204E
S3150801256008070020E8060020DCC0000870000020EB
S31508012570092838B505460C4622D8214B1A78012A6E
S3150801258001D0002038BD14B31E4B1C688CB31E4BFA
S31508012590197889B12378AB420ED00139CBB24C21D7
S315080125A011FB0341234603E01A78AA421C4603D0CD
S315080125B08B4203F14C03F7D1606CC0F3CF0038BDF1
S315080125C0012214214FF4005002F09CFDD5E70F4B70
S315080125D0214604E001310A2903F10303D1D05A78CF
S315080125E0012AF7D11A78AA42F4D1094B33F8110016
S315080125F038BD142142F2050002F084FD204638BD9B
S31508012600710000201C07002002000020E8060020B7
S3150801261008070020034A044BA2FB00204009186062
S31508012620704700BF1F85EB516C00002000B583B0D1
S3150801263000F07EFD02AC084E44F8040D074D03E098
S315080126402968204600F0ACFEFFF720FD3378002B01
S31508012650F6D0FFF7B9FDF3E7020000206C00002071
S3150801266008B5FFF713FD044B1B781BB1BDE80840FD
S31508012670FFF7AABD08BD00BF0200002000B583B060
S3150801268000F056FD02AC054D44F8040DFDF710FDAA
S315080126902968204600F084FEF8E700BF7400002090
S315080126A010B584B0002400F03FF802F009FDFDF7EB
S315080126B0F1FCFFF7D5FF052223460092CDE9024436
S315080126C0019480220849094800F054FB084B0394F9
S315080126D006211A880748009102940194234606495F
S315080126E000F048FB04B010BD54C100082D260108AE
S315080126F0780000207D260108ACC00008034A044B77
S31508012700A2FB002040091860704700BF1F85EB51E6
S315080127107400002080087F28024B96BF802218800B
S315080127201A8070477800002000F000B8074BC3F103
S31508012730006101F5004103F500605A5C03F8012BBD
S315080127408342FAD1024B00221A70704724070020EF
S3150801275020070020C1F500630133984218DA0144C5
S31508012760884215DADFF834C0F0B40B4C9CF80060E7
S315080127700025FF27225CFF2A00F1010302D001256B
S3150801278027542E4698B28842F4DB15B9F0BC704737
S3150801279070478CF80060F9E724070020200700201D
S315080127A040F2FC73984210B502D90024204610BDA8
S315080127B0044600F09DF9034B1C5900F09BF920468D
S315080127C010BD00BF24070020F8B540F2FC739842FB
S315080127D000D9F8BD0446094E0D4600F089F9375966
S315080127E000F088F9BD42F4D000F082F9355100F0C5
S315080127F081F9034B01221A70F8BD00BF2407002096
S315080128002007002010B4154A00E01A4613688342CF
S31508012810FBD351685418A0420AD041684418A34210
S315080128200DD0904203605DF8044B18BF10607047E5
S315080128304068014410464418A3425160F1D1084C3E
S315080128402468A342EDD0D3E90034904221440360C1
S3150801285041605DF8044B18BF10607047248F002053
S315080128607C0000202DE9F041044600F059FC2E4871
S315080128700268002A39D02D4B1F683C422FD174B308
S3150801288004F108014B071CBF21F00701083131B3D8
S31508012890DFF8A080D8F800608E4220D3244D2C683A
S315080128A003E0226822B12546144663688B42F8D3B1
S315080128B00268A24213D0226828682A605A1A102A86
S315080128C000F1080528D8F61A00223B43C4E900237B
S315080128D0C8F8006000F0F0FC2846BDE8F081002544
S315080128E000F0EAFC2846BDE8F081124F124B396820
S315080128F023F0070347F6F0755E19083972603960E7
S315080129005A510A490660C3E90065094D4FF0004767
S315080129102B606A600F60B0E7631818465A606160F9
S31508012920FFF770FF6368CEE77C0000208000002077
S31508012930248F0020840000202C0F002000283AD084
S3150801294038B51D4D50F8043C2A681342044610D088
S3150801295050F8081CD9B14FF48671184800F04EF9A1
S315080129602A6854F8043C134202D054F8081C71B181
S3150801297038BD40F20B11114800F040F954F8083CF3
S31508012980002BE8D12A6854F8043C1342F0D023EA14
S31508012990020344F8043C00F0C3FB094A54F8043C1A
S315080129A01168A4F108000B441360FFF72BFFBDE87B
S315080129B0384000F081BC70478000002068C10008DB
S315080129C084000020014B1868704700BF840000206E
S315080129D00C490D484B6830B4C3F5C332A0326423A1
S315080129E003FB02F3094D0A4C5B09A5FB0323027895
S315080129F0C3F3C7139A42237038BF037000234B6091
S31508012A0030BC7047348F00202D8F0020C55A7C0AB0
S31508012A102C8F002070B50D4606460AF051FD044676
S31508012A2028460AF04DFD844201D0002070BD6CB1E4
S31508012A3032782B789A42F8D1002303E0F15CEA5CFC
S31508012A409142F2D10133DBB29C42F7D8012070BD25
S31508012A5000B51D4D1D481E4B83B00024009301226D
S31508012A6004602C706C602C72234642F2107119486E
S31508012A70194D00F0DBFE2860F0B10446174A184BE1
S31508012A80002515701D7000F053FB009502462B4674
S31508012A902046294600F0F0FE012805D0012214211E
S31508012AA04FF4805002F02EFB0E4B00221A60FFF7FE
S31508012AB0F7FD00F0FDFAFEE7012214214FF48050DC
S31508012AC002F020FB2C68D9E7348F0020408F0020C4
S31508012AD0D12901088CC10008308F00202C8F0020D5
S31508012AE02D8F002088000020704700BF704700BF67
S31508012AF002F09CBC02F0C0BC03F068BC014B18781C
S31508012B00704700BF2C8F0020FFF75CBF70B50546E4
S31508012B1002F08CFC114B1C688CB106462946A0684C
S31508012B20FFF778FF012805D10DE0A068FFF772FFCE
S31508012B30012808D024692946002CF6D1304602F02E
S31508012B409BFC204670BD6468304602F095FC204621
S31508012B50002CF7D000F070FD800070BD408F00207A
S31508012B602DE9F041804614200F461446FFF77AFEF8
S31508012B70054628B30023C5E90343C5E9018702F0E1
S31508012B8055FC134E074602F051FC346802460CB94F
S31508012B900DE01C462369002BFBD1104602F06CFCA4
S31508012BA0256138462C60BDE8F04102F065BC02F0AB
S31508012BB063FC2C6035603846BDE8F04102F05CBC28
S31508012BC0012214214FF4805002F09CFAD2E700BF8B
S31508012BD0408F0020074A138801339BB2092B1380C3
S31508012BE005D905490B68002001330B60108003F0F5
S31508012BF00FBB00BF8C000020880000200122142191
S31508012C004FF4805002F07EBA054B1A78012A00D09B
S31508012C1070471A7A002AFBD15A6801325A607047FE
S31508012C20348F002008B502F001FC044B0121002273
S31508012C3019701A72BDE8084002F01EBC348F0020D4
S31508012C40014B00221A707047348F002008B5034CD7
S31508012C502368012BFDD902F0DDFBF9E74C8F002033
S31508012C600D4B0E4A19681268486082420DD80C4A03
S31508012C7010B5044610681968043104F0CDFF094BF4
S31508012C801A68A24288BF1C6010BD074A10681968F5
S31508012C90043104F0C1BF00BF90000020B800002035
S31508012CA0448F0020AC000020488F00202B4B2DE9D3
S31508012CB0F0410022DFF8B880294E1A60D8F80020C2
S31508012CC033689A4247D0D8F80020D8F800301268FD
S31508012CD01B6B9A4233D9234C234D236803EB830399
S31508012CE055F823309BB9214F08E02368013B23603F
S31508012CF0236803EB830355F8233043B92368002B74
S31508012D00F3D140F252713846FFF778FFEDE72368B1
S31508012D1003EB83039B00E91808334A6852684A6043
S31508012D201D44AA4204BF52684A60D368C8F80030F5
S31508012D30D8F8002033689A4209D0BDE8F081D8F85E
S31508012D400000D8F80010343104F0D2FEC3E7BDE81C
S31508012D50F041FFF767BFFFF773FFB4E7BC00002038
S31508012D60A8000020A40000204C8F0020A0C1000864
S31508012D70900000202DE9F84FDDF830B08A469146DB
S31508012D809846DDE90A570646002800F0A7800D2D6A
S31508012D9000F287804820FFF765FD0446002800F009
S31508012DA08C804FEA8909BBF1000F00F09D80C0F8BD
S31508012DB030B04A46A52158460AF01CFB236BA9F1F7
S31508012DC00409994429F007090AF1FF330AF10F01A9
S31508012DD004F1330201E08B4207D013F9010F02F81F
S31508012DE0010F93F900000028F5D10D2D4FF00003CE
S31508012DF0AB4604F1040A28BF4FF00D0B84F84330A3
S31508012E005046C4F82CB0C4F844B004F0F1FE04F1FD
S31508012E10180004F0EDFECBF10E03A3612461646290
S31508012E2042463146484602F0D1FA206007B13C6075
S31508012E3002F014FB444A454E1368013313603368A4
S31508012E40002B3ED0424F3B681BB3DFF82481414833
S31508012E50E26A03680133036004F134012046FFF78F
S31508012E607FFE3D4BE06A1A68904288BF186000EB06
S31508012E70800008EB8000514604F0BEFE02F000FB1C
S31508012E803B681BB13368DB6AAB4222D30120BDE83C
S31508012E90F88F3368DFF8D880DB6AAB4298BF3460B5
S31508012EA0D5E740F2ED112D48FFF7A8FE4820FFF7B8
S31508012EB0D9FC044600287FF474AF4FF0FF30BDE813
S31508012EC0F88F34601368DFF8A880012B1AD0204FD9
S31508012ED0BDE702F09FFA0120BDE8F88F4FF4F671BD
S31508012EE01E48FFF78BFE52E74846FFF7BBFC8346B1
S31508012EF0206300287FF45DAF2046FFF71FFD4FF0E2
S31508012F00FF30C4E7474608F58C793846143704F08C
S31508012F1063FE4F45F9D1DFF85CB0DFF85C900C4FE2
S31508012F20584604F059FE484604F056FE0C4804F08B
S31508012F3053FE0C4804F050FE0B4A0C4BC2F800B085
S31508012F40C3F8009083E700BF94000020900000209A
S31508012F50B4000020A0000020A4000020A0C10008A1
S31508012F608C900020A0900020448F0020488F0020DC
S31508012F704C8F00206490002078900020F8B5044614
S31508012F80194E02F06BFA1CB3251D284604F05EFEA5
S31508012F90A36A1BB104F1180004F058FE134F294621
S31508012FA0384604F029FE02F06BFA3368A34200D0D2
S31508012FB0F8BD0F4B1B687BB90E4A396812689142F6
S31508012FC008D00D4B1B685BB10C4B01221A60F8BD8A
S31508012FD03468D9E73360F8BDBDE8F84002F01ABA9B
S31508012FE0BDE8F840FFF762BE90000020A0900020DF
S31508012FF0B4000020940000209C000020BC000020A2
S3150801300010B5044668B10A4B62699A4201D000209C
S3150801301010BDA06A074B9842F9D0B0FA80F0400972
S3150801302010BD40F259410448FFF7E8FDEBE700BF40
S31508013030A09000208C900020A0C1000888B170B52E
S31508013040174D2B6883420BD0044602F007FA204637
S31508013050FFF7D6FF012809D0BDE8704002F010BA83
S3150801306070BD40F27A410F48FFF7C8BD261D3046AC
S3150801307004F0ECFD0C4AE36A11680C488B4288BFE0
S31508013080136003EB830300EB8300314604F0B4FDC0
S315080130902B68E26ADB6A9A42DED302F0BBF9DBE708
S315080130A090000020A0C10008A40000204C8F002039
S315080130B030B585B00024144A0192CDE90244009442
S315080130C02346802211491248FFF754FE01280BD0E6
S315080130D005460DB105B030BD0E4840F21F5105B089
S315080130E0BDE83040FFF78ABD00F07CFB01280546A4
S315080130F0EFD102F09BF9084A084B15601C6005B030
S31508013100BDE8304002F024BAA800002098C10008A2
S315080131104D2C0108A0C10008B4000020B800002009
S31508013120024A136801331360704700BF9C000020F0
S3150801313010B502F093F9034B1C6802F0A1F9204679
S3150801314010BD00BFB80000202DE9F04F4E4B1B689B
S3150801315083B0002B7BD14D4B1A6801321A601F6868
S315080131600FB34B4B0193019B1B68BB4237D9DFF861
S315080131703C81DFF83C910025D9F80030454ADB6AE5
S31508013180126803EB830358F82330022B28BF012565
S31508013190002A64D0404B1B68002B0CBF284601202F
S315080131A003B0BDE8F08F3D4E33681B68002B64D130
S315080131B03B4B31683B4A1868306019601368013324
S315080131C0136033681B68002B4CD1314B01931A46A7
S315080131D04FF0FF331360019B1B68BB42C7D82F4EC4
S315080131E0DFF8C880DFF8C890DFF8C8A0002525E019
S315080131F03368DB68DC68636804F1040B9F42584650
S3150801320038D304F023FDA36A04F118000BB104F0C6
S315080132101DFDE36ADAF8002003EB83009342594661
S3150801322008EB800088BFCAF8003004F0E5FCD9F83D
S315080132300030E26ADB6A9A4228BF012533681B68B7
S31508013240002BD5D1019A4FF0FF33136094E7114A49
S315080132501368013313600025FFF7BCFC9AE7FFF7F3
S31508013260B9FC97E733680A4ADB680192DB685B6851
S31508013270136078E7019A13607EE740F25B610A48BA
S31508013280FFF7BCFC94E700BF9C000020B8000020B3
S31508013290AC00002098000020BC000020448F0020CC
S315080132A0488F0020B0000020A0C100084C8F0020E4
S315080132B090000020A40000202DE9F0472F4C236838
S315080132C0002B51D002F0CAF82368013B236023681A
S315080132D0002B43D12A4B1B68002B3FD0DFF8B4A043
S315080132E0284E294FDFF8B090DFF8B0801EE0F3686A
S315080132F0DC68251D04F1180004F0A8FC284604F032
S31508013300A5FCE36A3A6803EB83009342294609EB75
S31508013310800088BF3B6004F06FFCD8F80030E26A91
S31508013320DB6A9A4224BF0123CAF800303368002BAE
S31508013330DDD1164C23686BB123685BB10125FFF714
S3150801334003FF08B1CAF800502368013B23602368CC
S31508013350002BF4D1DAF80040012C0BD0002402F03E
S315080133608FF82046BDE8F08740F25A510848FFF722
S3150801337045FCA7E702F04EF8F1E700BF9C000020E4
S31508013380940000208C900020A400002098000020C2
S31508013390A0C10008BC0000204C8F0020900000202E
S315080133A038B50C460546002836D03CB31F49204897
S315080133B00A682B6801320A6001681C192CBF0120B2
S315080133C000208B4222460DD860B32C60194B186831
S315080133D0043004F03BFC2046FFF742FCFFF76CFF84
S315080133E040B138BDB0B1A1422C60EFD3FFF764FFFD
S315080133F00028F6D1BDE8384002F00CB840F2BF21EA
S315080134000D48FFF7FBFB094909480B682A68013390
S315080134100B6003682A60E1E740F2BE210648FFF720
S31508013420EDFBC2E7A142D0D3F4E700BF9C00002020
S31508013430B800002090000020A0C10008044B1B68BA
S315080134400BB9FFF733BC034B01221A60704700BF63
S315080134509C000020BC00002070B50E460546C8B188
S315080134600F4C21682846183104F0D6FB2068043031
S3150801347004F0ECFB731C06D00A4B18683044BDE80F
S315080134807040FFF7EDBB216807480431BDE870407D
S3150801349004F0B2BB40F265710448FFF7AFFBDFE702
S315080134A090000020B8000020A0900020A0C10008CC
S315080134B070B50E46054680B10B4C21682846183171
S315080134C004F09AFB2068043004F0C0FB074B186827
S315080134D03044BDE87040FFF7C3BB40F29B71044816
S315080134E0FFF78CFBE8E700BF90000020B80000203A
S315080134F0A0C1000838B5C368DC684CB304F11805E7
S31508013500284604F0A3FB154B1B68E3B9251D28467D
S3150801351004F09CFB124AE36A116812488B4288BF81
S31508013520136003EB8303294600EB830004F064FB75
S315080135300D4BE26A1B68DB6A9A4223BF0B4B0120DB
S315080135401860002038BD2946094804F055FBEFE705
S3150801355040F2D1710748FFF751FBCFE79C000020E5
S31508013560A40000204C8F002090000020BC00002001
S315080135708C900020A0C1000810B5044630B1064A57
S31508013580064B12681B68C4E9002310BD40F2F771A7
S315080135900348FFF733FBF2E7B0000020B80000202C
S315080135A0A0C10008F8B50D46044658B38DB301F01D
S315080135B055FF2B681A4A581C11681ED0DFF868C0D7
S315080135C0D4E90060DCF80070BE4201D081420FD216
S315080135D00F1ABB420CD95B1ADCF8001012680344B7
S315080135E02B600025C4E9001201F04AFF2846F8BD00
S315080135F0012501F045FF2846F8BD002501F040FFE9
S315080136002846F8BD40F601010648FFF7F7FA002DEE
S31508013610CDD140F602010348FFF7F0FAC7E700BF2C
S31508013620B8000020A0C10008B0000020014B01220B
S315080136301A607047BC00002068B1036B1A78A52A86
S315080136404FF000000FD113F8012F0130A52A80B2DF
S31508013650F9D080087047044B1868036B1A78A52AB5
S315080136604FF00000EFD0704790000020014B18681A
S31508013670704700BF90000020044B186828B1044B1E
S315080136801B68002B0CBF012002207047B4000020E4
S315080136909C000020B8B1F8B5164DC36A2A68D26AEB
S315080136A093420FD22A68144ED26A416903EB830307
S315080136B006EB8303C2F10E029942826104D02B689C
S315080136C0DB6AC362F8BD7047071D0446384604F035
S315080136D0BDFA2A68094BD06A1A68E062904200D995
S315080136E0186000EB800006EB80003946BDE8F8401B
S315080136F004F082BA900000204C8F0020A40000201C
S31508013700F0B138B5C26A436C9A4218D0051D044611
S31508013710284604F09BFA0B4A636C1168E362C3F10D
S315080137200E008B42A061084888BF136003EB830330
S31508013730294600EB8300BDE8384004F05DBA38BD80
S31508013740704700BFA40000204C8F0020F8B50F4C2D
S3150801375001F084FE25681DB1BDE8F84001F090BE70
S315080137600B4F0C4E384604F037FA304604F034FA5B
S31508013770094A0A4B17600C212A4606201E6004F0E6
S3150801378041FB2060BDE8F84001F07ABEC400002084
S31508013790BC900020D0900020B4900020B890002062
S315080137A0914208B50061416005D88169D21A8A42F9
S315080137B00CD3012008BD9A4201D29942F9D2074B8E
S315080137C0011D186804F028FA002008BD044B011DE4
S315080137D0186804F021FA002008BD00BFB490002043
S315080137E0B890002000B585B0FFF7B0FF0B4B1B68FA
S315080137F05BB100230222CDE90023CDE90233802201
S3150801380007490848FFF7B6FA20B90748E021FFF744
S31508013810F5F9002005B05DF804FB00BFC4000020DF
S31508013820E8C1000855390108C4C100082DE9F0416D
S315080138300D46B1B18046282017461E46FFF712F8F5
S31508013840044658B1FFF782FF069BC4F80080C4E915
S31508013850065726626362201D04F0CAF92046BDE8B0
S31508013860F0814FF4847103482C46FFF7C7F92046C7
S31508013870BDE8F081C4C1000870B5134E346884B040
S3150801388064B11D46CDE90112039053B11A4620468B
S31508013890002301A904F076FB04B070BD204604B0EC
S315080138A070BDFFF7E9FE012807D030682B462A4686
S315080138B001A904F0CDFA04B070BD2B463068089A08
S315080138C001A904F0C5FAE7E7C40000202DE9F0478D
S315080138D01D4DDFF87C8082B04FF0000A0DE0DB68F1
S315080138E0DC681F6804F10409484604F0AFF9636A05
S315080138F020469847E369012B0AD02B681A68002AE3
S31508013900EDD1124A11682960136002B0BDE8F0874B
S31508013910A6693E440023B74219463A46204606D2CE
S31508013920666024612868494604F076F9E5E7CDF82A
S3150801393000A0FFF7A1FF0028DFD140F2822140460F
S31508013940FFF75CF9D9E700BFB4900020B8900020D2
S31508013950C4C100082DE9F04FDFF874A15B4FDFF809
S315080139607481DFF8749187B04FF0000BDAF80030F4
S315080139701D68002D6DD0DB681D68FFF7D1FBFFF7C9
S31508013980D7FB3B68834204466BD88542386073D9B6
S31508013990291BD8F8000004F065FCFFF78DFC002808
S315080139A067D000231A4603A9D8F8000004F054FB8F
S315080139B00028DBD0059C636913B1201D04F046F984
S315080139C0FFF7B6FB3B689842054627D3039E3D6041
S315080139D0022E29D0032E31D0002EE2D1049BA169F3
S315080139E02A4619442046FFF7DBFE0128D9D1636A26
S315080139F020469847E369012BD3D1A369049A009617
S31508013A001A44204633463146FFF736FF0028C8D107
S31508013A1040F22F214846FFF7F1F8C2E7FFF756FFB4
S31508013A20039E3D60022ED5D10499A16151B1294465
S31508013A3020462B462A46FFF7B3FEB2E72046FEF795
S31508013A407DFFAEE74FF40F714846FFF7D7F8A16936
S31508013A50EDE7FFF765FBFFF76BFB3B68984204460A
S31508013A6005D2FFF733FF3C60FFF726FC99E73C6078
S31508013A708EE701F0CFFC94E7FFF71EFCDAF8003079
S31508013A80DB68DE68301D04F0E1F8F369012B03D029
S31508013A90736A3046984784E7B169224629442B461A
S31508013AA03046FFF77DFE0128F2D10023CDF800B09C
S31508013AB02A4619463046FFF7DFFE0028E8D14FF4BB
S31508013AC0AD714846FFF79AF8E2E700BFC00000204B
S31508013AD0B4900020C4000020C4C100082DE9F043B9
S31508013AE0404E414D414FDFF80891DFF8088189B012
S31508013AF000234FF0FF3201A9306804F0ADFA01281E
S31508013B0005D00122142142F2081001F0FBFA9DF8B2
S31508013B100440012C05D90122142142F20C1001F0AE
S31508013B20F1FA2B5D012BE3D19DF80530032B51D812
S31508013B30DFE803F03F2413029DF8043057F83320D9
S31508013B401AB1012090479DF8043007EBC3035B685F
S31508013B50002BCDD001209847CAE79DF8043057F8C5
S31508013B6033201AB1002090479DF8043007EBC303B0
S31508013B705B68002BBCD000209847B9E79DF8043054
S31508013B8058F8334044B1079B9DF8101003980DF17E
S31508013B901102A0479DF8043008EBC3035C68002CAA
S31508013BA0A6D0079B9DF8101003980DF11102A047A6
S31508013BB09EE79DF8043059F833201AB103989047C7
S31508013BC09DF8043009EBC3035B68002B90D003987A
S31508013BD098478DE70122142142F2091001F092FA61
S31508013BE086E700BF1891002014910020E490002078
S31508013BF004910020F49000202DE9F047414C424DF4
S31508013C00424FDFF80C818CB0002600234FF0FF32BB
S31508013C1006A9206804F020FA012805D001221421FA
S31508013C2042F2071001F06EFA9DF81830012B41D8BF
S31508013C309DF82020082A43D8EB5C002B40D0DDF8FC
S31508013C401C908DF80E2019F0804348D18DF80D305F
S31508013C5072B10DF12203013A53FA82F20DF10F0105
S31508013C600DF1210313F8010B01F8010B9A42F9D161
S31508013C704B46002B3ADBCDE901368DF80C60CDF8C1
S31508013C801C90FEF735FF9DF8183003EB8303824637
S31508013C9001A957F8330001F0A9FE04282ED09DF892
S31508013CA0183003EB43030344504648F82390FEF7C4
S31508013CB021FFAAE70122142142F20C1001F022FA8F
S31508013CC00123002206A9206804F0C2F800289CD125
S31508013CD00122142142F2041001F014FA95E7022395
S31508013CE08DF80D3029F08043002BC4DA23F0004308
S31508013CF00422CDE901638DF80C20C0E75046FEF792
S31508013D00F9FEDDE72C910020149100203CC2000841
S31508013D1038910020F0B500EB8002174B53F832506A
S31508013D2089B00446002628464FF48061009601F0C2
S31508013D3061FF012802D0009809B0F0BD0F4A8DF83D
S31508013D4004400746032410688DF8054033466A4641
S31508013D5001A904F017F938B128464FF4806101F03A
S31508013D60B9FF009809B0F0BD3A46142142F206108F
S31508013D7001F0C8F9F0E700BF3CC20008189100201D
S31508013D802DE9F04300EB8002534B8FB053F83260B4
S31508013D908DF81C000546002430460221CDE9004471
S31508013DA001F028FF01280AD00821304601F022FF38
S31508013DB0012805466BD000980FB0BDE8F08303468D
S31508013DC0214630468DF81D3001F0B4FE0446002820
S31508013DD048D0DFF81091DFF8108164270CE0029AC9
S31508013DE009929DF811204AB3099B43F08043099330
S31508013DF0013C14F0FF0435D002AA0021304601F037
S31508013E0049FEFFF795F959F825309DF810208DF8E8
S31508013E10205007FB00F0A8FB0010C3EB90109DF89B
S31508013E2012300D908DF82830002AD8D0039A42F026
S31508013E30004209929DF81120002AD5D1002BD7D02E
S31508013E40013B05AA52FA83F20DF129010DF113037B
S31508013E5013F8010B01F8010B9342F9D1013C14F057
S31508013E60FF04C9D11D4A0023106807A901AA04F055
S31508013E7089F818B3019B3046012B4FF0020108BFA0
S31508013E80009301F027FF00980FB0BDE8F083134AAD
S31508013E902346106802246A4607A98DF81D4004F0D6
S31508013EA071F890B130460E4901F08CFE3046082172
S31508013EB001F010FF00980FB0BDE8F083012214212C
S31508013EC042F2061001F01EF9D4E72A46142142F2FD
S31508013ED0061001F017F9E5E73CC200081891002021
S31508013EE01000003224910020D34D62102DE9F043D1
S31508013EF000EB8002534B8FB053F832608DF81C00EB
S31508013F000546002430461021CDE9004401F072FE31
S31508013F1001280AD04021304601F06CFE01280546E9
S31508013F206BD000980FB0BDE8F083034601463046D2
S31508013F308DF81D3001F0FEFD0446002848D0DFF853
S31508013F401091DFF8108164270CE0029A09929DF816
S31508013F5011204AB3099B43F080430993013C14F0AD
S31508013F60FF0435D002AA0121304601F093FDFFF77F
S31508013F70DFF859F825309DF810208DF8205007FBF9
S31508013F8000F0A8FB0010C3EB90109DF812300D90BD
S31508013F908DF82830002AD8D0039A42F000420992B7
S31508013FA09DF81120002AD5D1002BD7D0013B05AAAF
S31508013FB052FA83F20DF129010DF1130313F8010BDE
S31508013FC001F8010B9342F9D1013C14F0FF04C9D160
S31508013FD01D4A0023106807A901AA03F0D3FF18B3E5
S31508013FE0019B3046012B4FF0100108BF009301F0E9
