S02900002E2E2F48414E636F6465725F453430375F5454415F436F6D62696E654D6F64656C2E73726563F8
S31508004000E4C90020998B01080000000000000000A8
S315080040100000000000000000000000000000000092
S31508004020000000000000000000000000995401088C
S3150800403000000000000000003555010885550108FC
S315080040400000000000000000000000000000000062
S315080040500000000000000000000000000000000052
S3150800406000000000F16301080000000000000000E5
S315080040700000000000000000000000000000000032
S31508004080000000000000000000000000C148010810
S31508004090794801089D480108E54801080000000024
S315080040A0DD630108C9630108B5630108A563010852
S315080040B0916301087D630108696301080000000037
S315080040C000000000000000000000000000000000E2
S315080040D000000000697101088171010899710108E1
S315080040E000000000000000006172010800000000E6
S315080040F055630108416301083163010800000000A7
S3150800410000000000C971010800000000000000005E
S315080041100000000000000000000000000000000091
S31508004120000000000000000000000000CD7101083A
S315080041300000000021640108000000005149010840
S31508004140094901082D4901087549010891720108B4
S31508004150000000000000000000000000B171010826
S315080041600000000000000000000000000000000041
S315080041700000000000000000000000000000000031
S311080041800000000000000000EE11AA5527
S3150800C000000000000000F03F000000000000F03FC4
S3150800C010000000000000E03F000000000000F03FC4
S3150800C0200000000000000000000000000000000002
S3150800C03000000000000000000000000000000000F2
S3150800C04000000000000000000001000001010000DF
S3150800C0500100010100000000383F0700000420002D
S3150800C0601000080002010000000000000A0A0A0089
S3150800C07048414E636F6465725F453430375F545488
S3150800C080415F436F6D62696E654D6F64656C5F7382
S3150800C0906F66747761726549445F76315F3139300E
S3150800C0A03632335F313134363333000041707043F2
S3150800C0B074726C5461736B0048414E636F646572A9
S3150800C0C05F453430375F5454415F436F6D62696E24
S3150800C0D0654D6F64656C2E6300000000200000004B
S3150800C0E00014024008000900200000000014024065
S3150800C0F010000E00200000000014024020000F006F
S3150800C1002000000000140240400004002000000047
S3150800C11000140240800005002000000000140240C0
S3150800C120000106002000000000140240000207007B
S3150800C130200000000014024000040800040000006B
S3150800C1400008024001000A0004000000000802403E
S3150800C15004000C00414443636F6E76657273696F21
S3150800C1606E5461736B0000002E2E2F626C6F636B2A
S3150800C1707365742F7274772F53544D33322F73723D
S3150800C180632F686561705F342E630000546D7243D7
S3150800C19070754C6F6164000049444C45000000000E
S3150800C1A02E2E2F626C6F636B7365742F7274772FE4
S3150800C1B053544D33322F7372632F7461736B732E1E
S3150800C1C0630000002E2E2F626C6F636B7365742FED
S3150800C1D07274772F53544D33322F7372632F7469E9
S3150800C1E06D6572732E630000546D7220537663007A
S3150800C1F043616E4576656E745461736B000000008A
S3150800C20043616E5472616E736D69745461736B0029
S3150800C2102E2E2F626C6F636B7365742F7274772F73
S3150800C22053544D33322F7372632F53544D33325F49
S3150800C230453430372F63616E2E630000006400407A
S3150800C2400000000208000000000C02400100000087
S3150800C25008000000000C0240020001000913141532
S3150800C26016000000006800400000000402000000FC
S3150800C27000040240200005000200000000040240FD
S3150800C28040000600093F404142000000010102014A
S3150800C2900202020202030202040202030303040367
S3150800C2A0030503030603030504040604040704043C
S3150800C2B0080404070505080505080605080705080E
S3150800C2C007060808060808070808080045764368A8
S3150800C2D06E6C3100457643686E6C3200457643686D
S3150800C2E06E6C33002E2E2F626C6F636B7365742F22
S3150800C2F07274772F53544D33322F7372632F5354FE
S3150800C3004D33325F453430372F6D61632E6300003D
S3150800C3102E2E2F626C6F636B7365742F7274772F72
S3150800C32053544D33322F7372632F53544D33325F48
S3150800C330453430372F706F72742E63000000014049
S3150800C3400100000002010000100000000010024079
S3150800C35000020900100000000010024000080B004F
S3150800C3600004004002000000010200000100000075
S3150800C37000000240400006000200000000040240DF
S3150800C380200005000008004004000000010200002B
S3150800C39008000000000C024000100C000800000015
S3150800C3A0000C024000200D000004014002000000BD
S3150800C3B002030000040000000008024040000600D6
S3150800C3C0040000000008024080000700100000007A
S3150800C3D000100240000100000100080010000000E3
S3150800C3E0001002400004000101000A0010000000CD
S3150800C3F0001002400010000201000C00000001407D
S3150800C40001000000020119000000004001000000C0
S3150800C41001021C00000400400200000001021D0089
S3150800C420000800400400000001021E00000401404C
S3150800C4300200000002012C0000400140000001003B
S3150800C4400201180000440140000002000201190020
S3150800C450004801400000040002011A00001C0040C8
S3150800C4608000000001022C000020004000010000AE
S3150800C47001022D001000000000100240000200001A
S3150800C4800100090010000000001002400008000129
S3150800C49001000B00100000000010024000200002FE
S3150800C4A001000D00100000000010024000400003CB
S3150800C4B001000E00010000000000024020000100FB
S3150800C4C001000500010000000000024040000200D3
S3150800C4D002000600020000000004024020000201DB
S3150800C4E00200050008000000000C024000100300CE
S3150800C4F002000C0008000000000C024000200301A6
S3150800C50002000D000400000000080240400004007C
S3150800C5100300060004000000000802408000040131
S3150800C520030007001000000000100240200005006C
S3150800C530030005001000000000100240400005013D
S3150800C5400300060020000000001402404000060018
S3150800C55003000600200000000014024080000700C7
S3150800C5600300070020000000001402400001080034
S3150800C570090008002000000000140240000209001B
S3150800C580090009000400000000080240010000003C
S3150800C59020000000001402404000000020000000B7
S3150800C5A00014024080000000200000000014024031
S3150800C5B000010000200000000014024000020000F4
S3150800C5C020000000001402400004000002000000E1
S3150800C5D0000402408000000002000000000402403F
S3150800C5E04000000010000000001002400400000097
S3150800C5F010000000001002401000000010000000AB
S3150800C6000010024020000000100000000010024048
S3150800C61040000000400000000018024080000000B2
S3150800C6204000000000180240000100004000000021
S3150800C63000180240001000004000000000180240E8
S3150800C6400080000001000000000002401000000009
S3150800C6500200000000040240200000000100000063
S3150800C66000000240400000000100000000000240F7
S3150800C6702000000008000000000C02400100000035
S3150800C68008000000000C024002000000080000003C
S3150800C690000C02400400000008000000000C0240E4
S3150800C6A00800000008000000000C0240100000000E
S3150800C6B008000000000C02402000000008000000EE
S3150800C6C0000C02404000000008000000000C024078
S3150800C6D08000000008000000000C02400001000075
S3150800C6E008000000000C02400002000008000000DC
S3150800C6F0000C02400004000008000000000C024084
S3150800C7000008000008000000000C024000100000AD
S3150800C71008000000000C024000200000080000008D
S3150800C720000C02400040000008000000000C024017
S3150800C7300080000010000000001002400100000008
S3150800C7401000000000100240020000001000000067
S3150800C750001002400800000010000000001002400F
S3150800C76080000000100000000010024000010000D8
S3150800C7701000000000100240000200001000000037
S3150800C78000100240000400001000000000100240E3
S3150800C7900008000010000000001002400010000011
S3150800C7A010000000001002400020000010000000E9
S3150800C7B00010024000400000100000000010024077
S3150800C7C00080000020000000001402400100000064
S3150800C7D020000000001402400200000020000000B3
S3150800C7E0001402400400000020000000001402406B
S3150800C7F0080000002000000000140240100000009D
S3150800C8002000000000140240200000002000000064
S3150800C8100014024000080000200000000014024036
S3150800C8200010000020000000001402400020000054
S3150800C8302000000000140240004000002000000014
S3150800C840001402400080000040000000001802406A
S3150800C850010000004000000000180240020000002D
S3150800C86040000000001802400400000040000000DC
S3150800C87000180240080000004000000000180240AE
S3150800C88010000000400000000018024020000000D0
S3150800C8904000000000180240400000004000000070
S3150800C8A00018024000020000400000000018024084
S3150800C8B000040000400000000018024000080000C4
S3150800C8C04000000000180240002000004000000060
S3150800C8D0001802400040000001000000000002406D
S3150800C8E001000000040000000008024001000000EA
S3150800C8F02000000000140240400000002000000054
S3150800C90000140240800000002000000000140240CD
S3150800C9100001000020000000001402400002000090
S3150800C920200000000014024000040000020000007D
S3150800C93000040240800000000200000000040240DB
S3150800C9404000000010000000001002400400000033
S3150800C9501000000000100240100000001000000047
S3150800C96000100240200000001000000000100240E5
S3150800C970400000004000000000180240800000004F
S3150800C98040000000001802400001000040000000BE
S3150800C9900018024000100000400000000018024085
S3150800C9A000800000010000000000024010000000A6
S3150800C9B00200000000040240200000000100000000
S3150800C9C00000024040000000010000000000024094
S3150800C9D02000000008000000000C024001000000D2
S3150800C9E008000000000C02400200000008000000D9
S3150800C9F0000C02400400000008000000000C024081
S3150800CA000800000008000000000C024010000000AA
S3150800CA1008000000000C024020000000080000008A
S3150800CA20000C02404000000008000000000C024014
S3150800CA308000000008000000000C02400001000011
S3150800CA4008000000000C0240000200000800000078
S3150800CA50000C02400004000008000000000C024020
S3150800CA600008000008000000000C0240001000004A
S3150800CA7008000000000C024000200000080000002A
S3150800CA80000C02400040000008000000000C0240B4
S3150800CA9000800000100000000010024001000000A5
S3150800CAA01000000000100240020000001000000004
S3150800CAB000100240080000001000000000100240AC
S3150800CAC08000000010000000001002400001000075
S3150800CAD010000000001002400002000010000000D4
S3150800CAE00010024000040000100000000010024080
S3150800CAF000080000100000000010024000100000AE
S3150800CB001000000000100240002000001000000085
S3150800CB100010024000400000100000000010024013
S3150800CB200080000020000000001402400100000000
S3150800CB30200000000014024002000000200000004F
S3150800CB400014024004000000200000000014024007
S3150800CB500800000020000000001402401000000039
S3150800CB602000000000140240200000002000000001
S3150800CB7000140240000800002000000000140240D3
S3150800CB8000100000200000000014024000200000F1
S3150800CB9020000000001402400040000020000000B1
S3150800CBA00014024000800000400000000018024007
S3150800CBB001000000400000000018024002000000CA
S3150800CBC04000000000180240040000004000000079
S3150800CBD0001802400800000040000000001802404B
S3150800CBE0100000004000000000180240200000006D
S3150800CBF0400000000018024040000000400000000D
S3150800CC000018024000020000400000000018024020
S3150800CC100004000040000000001802400008000060
S3150800CC2040000000001802400020000040000000FC
S3150800CC3000180240004000000400000000080240FE
S3150800CC4000200000000001400100000002011B0056
S3150800CC50000000400100000001021C000004004022
S3150800CC600200000001021D00000800400400000048
S3150800CC7001021E00000401400200000002012E000D
S3150800CC800040014000000100020118000044014074
S3150800CC9000000200020119000048014000000400DB
S3150800CCA002011A00001C00408000000001022C004E
S3150800CCB0002000400001000001022D0010000000C5
S3150800CCC000100240000200000200020001000900F4
S3150800CCD010000000001002400008000104002000B7
S3150800CCE001000B00100000000010024000200002A6
S3150800CCF00800000201000D001000000000100240AC
S3150800CD00004000031000002001000E000100000092
S3150800CD100000024020000100020002000100050098
S3150800CD20010000000000024040000200020002006C
S3150800CD300200060002000000000402402000020172
S3150800CD40040020000200050008000000000C024054
S3150800CD50001003000200020002000C000800000098
S3150800CD60000C0240002003010400200002000D0010
S3150800CD70040000000008024040000400020002000F
S3150800CD8003000600040000000008024080000401B9
S3150800CD9004002000030007001000000000100240F5
S3150800CDA02000050002000200030005001000000034
S3150800CDB000100240400005010400200003000600A0
S3150800CDC02000000000140240400006000200020095
S3150800CDD0030006002000000000140240800007003F
S3150800CDE002000200030007002000000000140240B1
S3150800CDF000010800020002000900080020000000E7
S3150800CE00001402400002090002000200090009009D
S3150800CE10001001401000000002250000020000007A
S3150800CE200004024040000600020000000004024020
S3150800CE3080000700070000000044004000000200D0
S3150800CE400126000008000000000C02402000050032
S3150800CE5008000000000C0240400006000700000021
S3150800CE6000480040000004000127000008000000F8
S3150800CE70000C02400001080008000000000C0240F7
S3150800CE80000209000700000000140140200000000D
S3150800CE9002470000040000000008024040000600A7
S3150800CEA00400000000080240800007000800000097
S3150800CEB056435020436F6E666967000056435020FC
S3150800CEC0496E7465726661636500000053544D6966
S3150800CED063726F656C656374726F6E696373000065
S3150800CEE053544D3332205669727475616C20436F02
S3150800CEF06D506F727420696E204853206D6F64659B
S3150800CF000000000053544D3332205669727475611F
S3150800CF106C20436F6D506F727420696E20465320E3
S3150800CF204D6F6465000000003030303030303030EE
S3150800CF30303530420000000030303030303030308C
S3150800CF4030353043000000000000014001000000B9
S3150800CF5002011B00000000400100000001021C0045
S3150800CF60000400400200000001021D000008004005
S3150800CF700400000001021E00000401400200000037
S3150800CF8002012E00004001400000010002011800C5
S3150800CF900044014000000200020119000048014057
S3150800CFA00000040002011A00001C00408000000076
S3150800CFB001022C00002000400001000001022D00A3
S3150800CFC010000000001002400002000002000200EB
S3150800CFD001000900100000000010024000080001CE
S3150800CFE00400200001000B001000000000100240A1
S3150800CFF0002000020800000201000D0010000000D9
S3150800D00000100240004000031000002001000E003E
S3150800D010010000000000024020000100020002009A
S3150800D0200100050001000000000002404000020067
S3150800D030020002000200060002000000000402408E
S3150800D040200002010400200002000500080000007C
S3150800D050000C0240001003000200020002000C004F
S3150800D06008000000000C0240002003010400200014
S3150800D07002000D0004000000000802404000040001
S3150800D0800200020003000600040000000008024037
S3150800D09080000401040020000300070010000000BF
S3150800D0A000100240200005000200020003000500EF
S3150800D0B01000000000100240400005010400200096
S3150800D0C0030006002000000000140240400006008D
S3150800D0D002000200030006002000000000140240BF
S3150800D0E0800007000200020003000700200000007D
S3150800D0F000140240000108000200020009000800AE
S3150800D100200000000014024000020900020002008C
S3150800D110090009002E2E2F626C6F636B7365742FDE
S3150800D1207274772F53544D33322F7372632F717580
S3150800D1306575652E63000000040404004CD10008E0
S3150800D14054D100085CD100080707070045764368F4
S3150800D1506E6C3100457643686E6C320045764368DE
S3150800D1606E6C3300505050004FBB610567ACDD3F15
S3150800D170182D4454FB21E93F9BF681D20B73EF3FF0
S3150800D180182D4454FB21F93FE2652F227F2B7A3C68
S3150800D190075C143326A6813CBDCBF07A8807703C21
S3150800D1A0075C143326A6913CFB21F93FFB21094075
S3150800D1B07CD91240FB2119407A6A1F407CD922404B
S3150800D1C0BBFD2540FB2129403A462C407A6A2F4070
S3150800D1D05C4731407CD932409C6B3440BBFD3540BE
S3150800D1E0DB8F3740FB2139401BB43A403A463C4076
S3150800D1F05AD83D407A6A3F404C7E40405C474140A1
S3150800D2006C1042407CD942408CA243409C6B4440FF
S3150800D210AC344540BBFD4540CBC64640DB8F474056
S3150800D220EB584840FB21494083F9A200444E6E0062
S3150800D230FC291500D1572700DD34F50062DBC00054
S3150800D2403C999500419043006351FE00BBDEAB005C
S3150800D250B761C5003A6E2400D24D42004906E00087
S3150800D26009EA2E001C92D100EB1DFE0029B11C0014
S3150800D270E83EA700F535820044BB2E009CE98400F1
S3150800D280B4267000417E5F00D69139005383390079
S3150800D2909CF439008B5F840028F9BD00F81F3B0019
S3150800D2A0DEFF97000F980500112FEF000A5A8B0032
S3150800D2B06D1F6D00CF7E360009CB2700464FB7009D
S3150800D2C09E663F002DEA5F00BA277500E5EBC700AA
S3150800D2D03D7BF100F739070092528A00FB6BEA00A2
S3150800D2E01FB15F00085D8D00300356007BFC4600C9
S3150800D2F0F0AB6B0020BCCF0036F49A00E3A91D0002
S3150800D3005E619100081BE60085996500A0145F0020
S3150800D3108D40680080D8FF0027734D00060631004F
S3150800D320CA561500C9A873007BE260006B8CC00062
S3150800D33000000040FB21F93F000000002D44743E28
S3150800D340000000809846F83C0000006051CC783B0D
S3150800D35000000080831BF0390000004020257A3841
S3150800D360000000802282E336000000001DF36935C4
S3150800D3700200000003000000040000000600000090
S31508010000002A2CDD01231A460130C0B2022802D982
S315080100100A700020704791F800C010B5164C0CF014
S31508010020030E04EB8E0E154C1EF80330205C0342BA
S3150801003012D01CF0080F4FEA9C000BD1C40613D44A
S3150801004042EA830213F0380F0A7018BF4FF0FF30E7
S315080100500DD010BD5C07F1D50A70002010BD9217AE
S3150801006002F002021346CFE79806F5D4E8E713F043
S31508010070070018BF012010BD5CC0000858C0000861
S315080100800B78FF2B00D070474B78002BFBD102F081
S3150801009083BD00BF08B5012001F012FFBDE8084085
S315080100A0024A40F26761002004F0CCBD81000108D4
S315080100B000F0B2B9704700BF2DE9F041224D234A3D
S315080100C095F82830224C1370002B3AD094F8473112
S315080100D00133DBB21F4994F84A210B701E491F4EA2
S315080100E084F847319A420A7094BF4FF001084FF0DD
S315080100F0000817D8737B012B14D0194B94F8497152
S31508010100D3E900010DF040F8C0B2B84288BF7B1CA4
S31508010110144A8CBFDBB2012384F8493113700023DA
S3150801012084F84731072086F80D8007F013FB00F5A0
S315080101307A7081B269800322BDE8F041072007F091
S315080101405DBA94F84731C5E7280300207D020020EF
S3150801015008040020EC0200206E060020600600203C
S31508010160580000206F060020704700BF2DE9F047B0
S315080101702DED028B537A08EE100A8AB00F460BB1A1
S3150801018000235372D56A2B68012B00F08380002265
S31508010190012305F10C0C4FF07E51AA6029636A63AD
S315080101A060462B602B71242200210DF073F901AEF4
S315080101B084460446B04605F12C0920686168A268A0
S315080101C0E3681034C6464C45AEE80F0008F110083E
S315080101D0F3D1DFED547A2068C8F8000038EE277AA3
S315080101E0F0EE676AC7ED007A4FF00009F7EE007A7C
S315080101F00AAB03EB890313ED096A37EE066A4FEA80
S315080102008909F2EE025A09F12803F4EE657A0DEB33
S315080102100309F1EE10FA09ED098A71D0F7EE005AD1
S3150801022077EEA57A0DF12408F5EE406AF1EE10FA9B
S3150801023005D1B2EE045AC6EE055AC7ED005A85ED48
S31508010240027A3446A646BEE80F00C6450CF1100CE4
S3150801025074464CF8100C4CF80C1C4CF8082C4CF84D
S31508010260043CEFD1F5EEC06ADEF80000CCF80000D8
S31508010270F1EE10FAC5ED0C7AC6BFF7EE007A76EE06
S31508010280E76ADFED286AC5ED0D6A0AB0BDEC028B97
S31508010290BDE8F087D5ED0C7AD5ED0D6ABDEEE77AA6
S315080102A005F10C0C17EE109A01AE95ED027A09F1DB
S315080102B0FF39E646B04605F12C0ADEF80000DEF8FD
S315080102C00410DEF80820DEF80C300EF1100E444654
S315080102D0D6450FC408F11008EFD19FED126ADEF872
S315080102E00000C8F80000F4EE466AF1EE10FA37EE9F
S315080102F0087A87ED006A3FF47BAF4FEA890980E700
S315080103000DF12408434673ED017A93ED017A77EEF0
S31508010310877A9E42C3ED007AF5D19FED027AF7EE10
S31508010320007A81E7000000002DE9F0470D9EDDE91E
S315080103300B57044610B13078012802D13470BDE854
S31508010340F08792F80080089A85F8008092F800E014
S315080103504FEA4E0E5FFA8EFE85F80FE03A78920064
S31508010360D2B22A747878C000C0B2A87397F802C0CE
S315080103704FEA0C1C5FFA8CFC85F80DC000EB0209EC
S31508010380F8784001C0B2287397F804A04FEA8A1A90
S315080103905FFA8AFA85F80BA07A79D201D2B2AA72E3
S315080103A01B789944CC4460448244524472440A9B63
S315080103B05FFA82FA85F801A01F88099A3F0A2F81F8
S315080103C0FFB2AF7093F800E0099B85F803E0B3F834
S315080103D000C0104B4FEA1C2CA5F806C05FFA8CFC2E
S315080103E085F804C092F8009085F80590002083F8F6
S315080103F000C0082283F801909F7083F803E083F810
S31508010400048083F806A05871D87104F0A7F93470EE
S31508010410BDE8F087C00200202DE9F04F2DED088BCD
S31508010420C74C9DB0D4E92401002200230CF052FEEA
S31508010430002840F05E8794F86731002B40F0FC866F
S3150801044094F84631002B00F0FE86BE4DFF2395F841
S3150801045021A084F84331BC4984F846A1D1E90001B9
S31508010460002200230CF036FE18B9BAF1010F01F08B
S31508010470968194F8513100229B1A099218BF0123DB
S31508010480089285F82830B14B1B7807EE903AF8EEBA
S31508010490E77AB1EE047AF4EE477AF1EE10FA00F053
S315080104A0BB81B2EE047AF4EE477AF1EE10FA00F067
S315080104B0B381DFF8D8B200238BF80C30A44E8BF841
S315080104C00B303378DFF8C882002B00F00F8607EE71
S315080104D090AA9E4BF8EEE77A1B78F0EE006A07EED3
S315080104E0103AF4EE667A0126F1EE10FAB8EEC77AFA
S315080104F084F85E6100F0E886B7EE006AF4EE467AA3
S31508010500F1EE10FA41F0458294F8666116B10026BB
S3150801051084F86661B4EE667AF1EE10FA40F0F68672
S315080105209BF80A20012A41F07982F7EE006AF4EE77
S31508010530667AF1EE10FA8BF80A2000F0EA86F0EEF8
S31508010540087AB4EE677AF1EE10FA41F03382002E9A
S3150801055041F09A847F4B00967F4F1968012384F8EE
S31508010560653132463B46304604F028FB002841F304
S3150801057028847B7885F8CC30BB7885F8CD30FB7834
S3150801058085F8CE30BB7985F8CF303B7885F8CB3006
S315080105906E4B94F846A11B780022BAF1010F8BF82D
S315080105A0092000F0DC86012B01F0768394F864219A
S315080105B0002A41F04A82694900220A7007EE903AF8
S315080105C0B8EEE77A07EE90AAF8EEE76AF1EE087A4E
S315080105D0B4EE677AF1EE10FA8BF8072000F0EF8691
S315080105E094F86331002B41F044825D4E0020316856
S315080105F05C4B5D4E05935D4B0493A6F10C095C4B70
S31508010600039306F17B0706F17A030296CDF8049067
S31508010610009706F16D02FFF787FE4C4B1B7808EE33
S31508010620103A94F84631B8EEC88AF1EE0C7A07EE1C
S31508010630103AB4EE678AF1EE10FAF8EEC78A41F07D
S315080106408480F0EE087AF4EE678AF1EE10FA0CBFB0
S3150801065001200020474A0592CDE90196464A474BB3
S315080106600492474E474A03920097A3F10D02316857
S31508010670FFF75AFE354B1B7807EE903A94F8463148
S31508010680F8EEE77AF1EE006A07EE103AF4EE667ACA
S31508010690F1EE10FAB8EEC77A00F0E48794F8623101
S315080106A0002B41F0E1810023F1EE0C7AB4EE678A62
S315080106B0F1EE10FA8BF8043007D1F0EE087AF4EE71
S315080106C0678AF1EE10FA41F0D98194F8613113B1D4
S315080106D0002384F861311D4B94F846A11B7807EE77
S315080106E0903AF8EEE77AF2EE006A07EE10AAF4EE0F
S315080106F0667AF1EE10FAB8EEC77A00F01A8794F81E
S315080107006031002B41F0AB810023F2EE026AF4EE70
S31508010710667AF1EE10FA8BF8033000F0978694F8B2
S315080107205F31002B41F0968100238BF80230089B3C
S31508010730ABB39BF80130012B31D0134B1B7829E061
S315080107400804002028030020080000206F06002066
S315080107507D02002020000020880200207A02002065
S315080107602C00002066060020E20400203EC0000896
S31508010770CA0300206506002038C000085C05002071
S3150801078030000020B8030020680000206006002021
S315080107905806002084F84A31002384F84731099B1A
S315080107A08BF80130BAF1010F04D994F85121002AC6
S315080107B000F0CE8794F85D31002B40F0D084BAF171
S315080107C0030F40F2D384FF2384F8443102F0E6F99B
S315080107D00D4B187002F0E8F90C4B02460C481A60EA
S315080107E002F0E4F9D8F800300A4A01331060C8F873
S315080107F0003023B9D8F804300133C8F804301DB0E5
S31508010800BDEC088BBDE8F08F6A0200206C0200205F
S31508010810ACC0000870020020DFF8CCB39BF80C309E
S31508010820012B00F02282D4E92601DB4BC3E9000142
S315080108300AF048FDD94BD3E904230CF0E3F9002269
S31508010840D74B0CF0DFF9D74BB4F8DC6041EC1B0B46
S31508010850B4F8DE001880D44B301A1E80D34B80B210
S3150801086018800CF055F9804689460AF0E1FC0246E3
S315080108700B464046494643EC1A2B0AF009FCCC4B79
S3150801088041EC190B002251EC1B0B0CF0BBF953EC94
S315080108901A2B0CF0B7F9C74B80468946002251EC52
S315080108A0190B0CF0AFF902460B46404649460BF0C8
S315080108B0F3FF02460B46304643EC182B0CF028F999
S315080108C002460B46002000210BF0E4FFBA4B804696
S315080108D08946C3E9008951EC190BB54B00220CF086
S315080108E091F953EC1B2B0CF08DF9B24B06460F46CA
S315080108F0002251EC1A0B0CF085F902460B463046DC
S3150801090039460BF0C7FFA54B0F4619460646D3E9EC
S315080109100223D1E900010CF075F932463B460CF089
S3150801092071F906460F46404649460AF081FC0246D9
S315080109300B464046494643EC192B0AF0A9FB00220F
S3150801094041EC1A0B002351EC180B0CF0CDFB0028D7
S3150801095040F0428751EC180B002200230CF0E2FB11
S315080109604FF00008002801F0E781DFF88092904BEC
S31508010970B0EE4ABAF0EE6ABA51EC1A0B00220CF044
S3150801098041F932463B460CF03DF947EC1A6B53ECFC
S31508010990192B06460F4651EC180B0CF033F9024693
S315080109A00B46304639460BF075FF7C4B0646D3E9B4
S315080109B006230F46404649460CF024F902460B46E3
S315080109C0304639460CF01EF97C4B00220CF01AF918
S315080109D0774B80468946002251EC1A0B0CF012F926
S315080109E053EC192B0CF00EF953EC1B2B06460F464C
S315080109F051EC180B0CF006F902460B4630463946FF
S31508010A000BF04AFF02460B46404649460CF024FACB
S31508010A100CF0DAFB0CF09EF80AF0AEF90CF0D4FBF8
S31508010A209FED677A674B07EE900A67EE877A18603B
S31508010A3017EE900A0CF08EF8634B80468946C3E997
S31508010A400089D4F8BC000CF073F84FA3D3E900234E
S31508010A500CF0D8F85D4B06460F4640464946C3E9B1
S31508010A6000670AF069FB02460B46304639461646C8
S31508010A701F460AF061FB02460B46304639460BF023
S31508010A8009FF94ED1E7B524A524BB0EE478AF0EEAF
S31508010A90678A8046894621F00047C2E90089B0EE97
S31508010AA047AAF0EE67AAD3E90023394606460CF0B1
S31508010AB0A9F853EC182B0BF0EFFE02460B4643EC54
S31508010AC0182B33A3D3E90023B0EE489AF0EE689ABF
S31508010AD00CF028FB002841F0818051EC180B00220C
S31508010AE000230CF001FB002841F05C8151EC180B46
S31508010AF00CF04AFB00F5FA7083B2374A3749A4F875
S31508010B00D0300B8092ED008B0023002249464046E7
S31508010B100CF008FB324B021E18BF01221A7007920D
S31508010B2051EC180B32463B460CF0DEFA002801F070
S31508010B30408040464946002200230CF0F3FA00287B
S31508010B4001F0EE80274B4FF0000883F8008001235F
S31508010B5084F8523184F8538159EC198B0CA3D3E9E3
S31508010B60002319EE100A49460CF0DCFA002801F0B8
S31508010B700C8019EE100A06A3D3E9002349460BF0A7
S31508010B8089FE41EC190B33E0000080999999B93F28
S31508010B900000000000C072402003002000C00008C9
S31508010BA00000D03F7A06002078060020680200205F
S31508010BB0000010400000E03F6002002000000840ED
S31508010BC066663642DC02002070060020000300201B
S31508010BD0D00200206000002040000020F40200201E
S31508010BE0D8020020C8020020600600200000F03F5D
S31508010BF0D04B3046D3E9002339460CF003F80022DE
S31508010C00002306460F4651EC190B0CF08BFA00220D
S31508010C100023002801F0F180304639460CF082FAAB
S31508010C20002841F0FA8032463B4651EC1A0B0BF08C
S31508010C3033FEDFF850934FF0000842464B4606460E
S31508010C400F460CF065FA002840F090874FF000082F
S31508010C504FF000093046394642464B460CF04EFAEB
S31508010C60002840F08387C4E91E679BF80B300122F0
S31508010C7093428BF80C203FF421ACDFF80C83D4F8AF
S31508010C80C030D8F80020AC49C4F8C020D21A94F86C
S31508010C90E230AA480B70D8F80410A94EC4F8C4105B
S31508010CA094F8E410A74F017094F8ED00DFF8DCC260
S31508010CB0307094F8FD603E7094F816718CF80070E7
S31508010CC063B1002901F03580002801F0CF80002E9C
S31508010CD001F0EE80002F0CBF002304239A4EF11871
S31508010CE094F85B31CB5C0D93002B40F05D85DDF804
S31508010CF034A0964BB4F8D80083F800A0944BB4F806
S31508010D00D6101880934B84F854A11980431A1BB244
S31508010D10002BBCBF0B1A1BB2B3F5FA7F0A9040F33E
S31508010D20318794F83931002B0CBF00230423B4F81A
S31508010D30D210B4F8D40033444FF28A4606FB01F1C7
S31508010D40890DA4F8DE1094F85C115B5C0F9306FB21
S31508010D5000F084F85531D4F8BC300E93800DA4F810
S31508010D60DC001846D4F8A030B4F8C810A4F8D61098
S31508010D70834200F08687002307930A98B4F8CC309B
S31508010D804FF47A7100FB01F1B1FBF2F292B2D31A78
S31508010D909BB208EE103A10926F4B18EE102A1A8081
S31508010DA0637A94F8582111920BB100236372D4F82F
S31508010DB02C90D9F80030012B00F0A2860023C9F83F
S31508010DC00830C9F834300123C9F8003089F80430ED
S31508010DD04FF07E5209F10C03C9F830200021242274
S31508010DE018460CF057FB0DF14C0C0C900646E646DE
S31508010DF009F12C0A30687168B268F36877460FC73B
S31508010E0010365645BE46F5D1DFED545A544A306878
S31508010E103860F8EE487A002337EEA56AF0EE656A7F
S31508010E20B7EE007AC2ED005A0B930B991CAB03EB94
S31508010E30810353ED095A76EE255A4FEA810A0AF1DA
S31508010E4070030DEB030A4AED097AF2EE027AB4EE63
S31508010E50677AF1EE10FA00F0D486F7EE007A37EEEB
S31508010E60277A1BAFF5EE406AF1EE10FA05D1B2EE1C
S31508010E70045AC5EE857AC2ED007A0C9E89ED026A9E
S31508010E80E646BEE80F00BE4506F110060CF1100C49
S31508010E9046F8100C46F80C1C46F8082C46F8043C93
S31508010EA0EED1F5EEC06AF1EE10FAC6BFF7EE007A9A
S31508010EB076EEE76ADFED296ADCF80000306000218A
S31508010EC089ED0C7AC9ED0D6A042001F0A1FB07EE44
S31508010ED0900A244E244A25493080F8EE677A17EE9F
S31508010EE0900AFFF743F9D5ED377A3388A4F8D83055
S31508010EF0FCEEE77A1E4A17EE903A00219BB20520CE
S31508010F001380A4F8CE3001F083FB07EE900A194B43
S31508010F1019491880F8EE677A184A17EE900AFFF70A
S31508010F2025F9D5ED367A164AFCEEE77A472017EE0B
S31508010F30903A2DE050000020EE020020EF0200203A
S31508010F40F0020020F102002048C00008F602002045
S31508010F501C030020EA020020E00200200000000035
S31508010F60E402002076020020E405002004040020A3
S31508010F700A030020780200200004002070050020E2
S31508010F80100300200000594058060020F2020020F4
S31508010F909BB21380A4F8DA3005F01AFDBC4B84F82D
S31508010FA048011B7884F85831BA4BD3E90001B6A336
S31508010FB0D3E900230BF026FE95F82930C4E926016A
S31508010FC0002B40F09886012005F050F9B24BC4F881
S31508010FD0BC00186000220023D4E91C010CF084F837
S31508010FE0AE4E0038337818BF012085F82900002B4A
S31508010FF000F0FE85B4F8D0302B8094F85271B4F81D
S3150801100052316B8594F84631A549013B18BF012336
S3150801101085F82C3094F8E33084F8E2300822079BEF
S3150801102084F8E330481E0CF0B9F99E49079B84F809
S31508011030EC300F22481E0CF0B1F99B49079B84F846
S31508011040FC301822481E0CF0A9F99849079B84F828
S3150801105015312222481E0CF0A1F99549079B84F8FF
S31508011060383109220D9B84F85B31481E0CF096F93C
S315080110709049119B84F8423118220F9B84F85C3100
S31508011080081F0CF08BF90E9BC4F8B830109BA4F816
S31508011090CC30B4F8CA30A4F8C8300A9BA4F8CA30D0
S315080110A000220023C4E91C23002F40F09B85394602
S315080110B00A2005F0DBFC95F82B1001B101210B2064
S315080110C005F0D4FC2988102005F05EFB95F82C1054
S315080110D001B10121472005F0C9FC01238BF80B302A
S315080110E0337894F846A1002B7FF4F1A994F85E2190
S315080110F0002A3FF41CAB94F866210AB184F86631DC
S3150801110094F8653113B1002384F8653194F8643194
S3150801111013B1002384F8643194F8633113B10023C1
S3150801112084F8633194F8623113B1002384F862318B
S3150801113094F8613113B1002384F8613194F8603170
S3150801114013B1002384F8603194F85F3113B1002399
S3150801115084F85F31002384F85E31FFF7E8BA00238B
S31508011160BAF1030F84F85D313FF62DAB94F84B3194
S3150801117094F84C11504A012B28BF0123012994BF29
S315080111805B1801334720002184F84411137005F0D8
S315080111901FFC002800F0108394F84D21474B002AC4
S315080111A0D3E900014FF000024FF0000314BF0226F5
S315080111B000260BF08FFFB0FA80F040098319404EE4
S315080111C094F8592106EB43030746995C94F84C3188
S315080111D0012B00F02686002940F040860A460B4678
S315080111E085F8222095F8262052001A4494F84E31A3
S315080111F0C2F3470285F8242003B1871C06EB47038F
S3150801120094F85A01185C94F84B31012B00F01886B2
S31508011210002840F027860346064685F8233095F8C8
S3150801122027305B003344C3F3470384F8591184F824
S315080112305A0185F82530C3E294F8463184F86701E6
S31508011240002B7FF402A90E2084F8433105F0C0FB78
S315080112508246BAF1000A4FF00F0018BF4FF0010A93
S3150801126005F0B6FB08B10AF1020A102005F0B0FB39
S3150801127018B10AF1040A5FFA8AFA124D85F821A013
S31508011280FFF7E9B8AFF30080000000401BB98E3FB5
S31508011290E802002048000020F80200207D02002014
S315080112A0ED040020F6040020060500201F05002095
S315080112B042050020AC04002074020020180000201A
S315080112C048C000082803002094F85721002A00F096
S315080112D06083B4EE667AF1EE10FA40F07F8594F8F1
S315080112E06621002A3FF41CA9002284F86621FFF72B
S315080112F017B9CE4F0026012103220720C4E9246726
S3150801130084F8671106F07AF9FFF79AB800268BF880
S315080113100A6094F86521F0EE087A12B1002284F881
S315080113206521B4EE677AF1EE10FA7FF435A99BF8D8
S315080113300920012A3FF431A9BD4BBE4A0020116894
S315080113401870012203F00AFA94F846A1BA4B012251
S31508011350BAF1010F1B788BF809207FF424A994F8B8
S31508011360642112B1002284F86421012B7FF423A998
S315080113709BF80720B14E01218A4231703FF41EA91C
S31508011380B4F8E020AE4FAA4B3A8001325970A4F85E
S31508011390E020AC4994F84A211A70002085F82020EB
S315080113A04FF080725A6058800822096803F0D6F90E
S315080113B0A14B32781B7894F846A1FFF7FFB8F0EEF7
S315080113C0007AF4EE676AF1EE10FA00F0D88200228C
S315080113D09D4F9E4E0092012384F8633131683B4646
S315080113E0104603F0EBFB002840F3AA843A68BB7960
S315080113F039787878C5F8BC20BA78FF7885F8C0308E
S31508011400120209021744A5F8C420914AA5F8C21088
S31508011410084410808F4A17805A0885F8BB2085F83A
S31508011420B4209A0885F8BA20DA0885F8B9201A0985
S3150801143085F8B8205A0985F8B7209A09DB0985F88D
S31508011440B62085F8B5300020FFF7D1B8F1EE047A59
S31508011450B4EE677AF1EE10FA40F0518294F85F31F2
S3150801146013B1002384F85F319BF80230012B3FF456
S315080114705CA9794994F8550191F8223091F823200D
S3150801148091F8286040009B00DBB2C0B285F83B00AA
S3150801149085F83C30184491F82430D2003044D2B251
S315080114A01B0185F83A20DBB2024485F8393013442A
S315080114B091F82520B4F8CE00684E5201D2B21344F1
S315080114C085F8382091F8262091F827109201D2B292
S315080114D0C901C9B2134485F83720CA18B4F8DA30F5
S315080114E02B721B0AAB86EB71B4F8CE3085F8361031
S315080114F0AB72B4F8DA101B0A6B866B724C4B49BA9D
S3150801150040BA1880598094F8470194F848116971CE
S31508011510D2B2AA7128711871002059719A71D871BD
S315080115203168082203F01AF994F846A10123FFF756
S31508011530FCB8F1EE006AB4EE667AF1EE10FA40F004
S31508011540948194F8603113B1002384F860319BF8D3
S315080115500330012B3FF4D9A83F4994F8552191F856
S31508011560293091F82F6052009B00D2B2DBB298184D
S3150801157085F8532091F82A2085F8543091F82B30B4
S31508011580D200D2B230441B0185F85220DBB20244A4
S3150801159085F85130134491F82C20B4F8DA00520139
S315080115A0D2B2134485F8502091F82D2091F82E10C7
S315080115B09201D2B2C901C9B2134485F84F20CA189B
S315080115C0B4F8DA3085F84E101B0AA5F84C30B4F891
S315080115D0CE30B4F8CE101B0AA5F84A30144B40BADF
S315080115E049BA198058806882A9821D4894F847111A
S315080115F01971D2B2E97394F8481159716A74297448
S315080116009A7101680020D871082203F0A7F80A4BDD
S3150801161094F846A11B7807EE10AA07EE903AB8EEA1
S31508011620C77AF8EEE77A0123FFF76FB80000F03FB3
S31508011630C0020020200000206F0600207A02002048
S315080116407C06002024000020A00200202C00002097
S31508011650120300201403002000C0000838000020EF
S3150801166034000020F7EE007AB4EE677AF1EE10FA4C
S3150801167040F0B88094F8623113B1002384F86231DE
S315080116809BF80430012B3FF40FA8CF4A94F8550173
S3150801169092F8303092F831704FEA400C9B00DBB279
S315080116A05FFA8CFC03EB0C0185F87E3085F87DC06A
S315080116B092F8323094F854C1FF006144FFB21B011D
S315080116C085F87C70DBB20F4492F8331085F87B30CD
S315080116D03B4492F834704901C9B2BF010B44FFB2C9
S315080116E085F87A1092F8351085F87970FA18B4F8F1
S315080116F0DA30B4F8CE701B0AA5F87630B4F8CE30D5
S31508011700C901C9B21B0A0A4485F87810A5F87430CC
S31508011710B4F8DA10AD4BD2B29A7149BAEA76AC4A44
S315080117205980A983AB4910707FBA94F847211A7179
S3150801173000201F805871AA76EF830822D87109689C
S3150801174003F00CF80123FEF7AFBF0020FEF782BFB6
S31508011750012384F85D31A04EA04B0092196810460A
S31508011760334603F02BFA021E0EDD737885F82E3008
S31508011770B37885F82F30F37885F83030B37985F862
S315080117803130337885F82D3095490120FEF738FC3C
S31508011790002840F0B58294F846A1FFF710B8CDE9C4
S315080117A008AA5346FEF76DBEAAF1010ABAFA8AFAE1
S315080117B04FEA5A1AFFF79DBA95F8242095F825306D
S315080117C0884992090A70884984F84B219B090B704C
S315080117D084F84C31FEF7FABFDFF83C924FF0000867
S315080117E0FFF7C5B87B4B814F19680022012384F89E
S315080117F0623100923B46104603F0E0F9002840F3B7
S31508011800D5823B787878BA78F978BF7985F88730C0
S3150801181085F8880085F8892085F88A1085F88B70FF
S315080118201B021844A5F88C30714B12021880714BB3
S31508011830A5F88E20114419807B0885F8863085F82D
S315080118407F30BB0885F88530FB0885F884303B096D
S3150801185085F883307B0985F88230BB09FF0985F84D
S31508011860813085F88070FEF71EBF634B634E196899
S315080118700022012384F8603100923346104603F0B2
S315080118809DF9002840F3A3825D4973793278777808
S31508011890B0780B70B179AA75EF752876697684F8F0
S315080118A04E3113021F44574AA5F85E304B0885F896
S315080118B05C3085F855308B08127894F846A185F87E
S315080118C05B30CB0885F85A300B0907EE902A07EEEC
S315080118D010AA85F859304B09000285F858308B094A
S315080118E0C909F8EEE77AB8EEC77AA4F8D470A5F86C
S315080118F0600085F8573085F85610FEF705BF424B4C
S31508011900424E19680022012384F85F31009233465A
S31508011910104603F053F900283D4B40F31D827779B1
S3150801192032787078B1781F70B379EA72287369735F
S31508011930AB7312021044A5F846205A0885F84420CC
S3150801194085F83D209A0885F84320DA0885F842206B
S315080119501A0985F841205A09090285F840209A0989
S31508011960DB0994F846A184F84D71A4F8D200A5F8CC
S31508011970481085F83F2085F83E30FEF7D5BE94F825
S31508011980633113B1002384F86331224E0120FEF737
S315080119902EBEF0EE006AB4EE667AF1EE10FA00F0A9
S315080119A0428194F8666116B1002684F866610022C0
S315080119B0FEF7BBBD94F86521002A3EF4EDAD002281
S315080119C084F86521FEF7E8BD00C00008C0020020C2
S315080119D01A0300202800002090020020240000207D
S315080119E06006002009030020080300209802002051
S315080119F00C0300200E03002034000020B002002052
S31508011A007B0200206F06002038000020B802002063
S31508011A107C0200202C0000200000F0BFD14BD24AE6
S31508011A20002011681870012202F098FECF4B94F835
S31508011A3046A11B7807EE903AB8EEE77A07EE90AA28
S31508011A400122F8EEE77AFEF770BD002284F86421D8
S31508011A50FEF7B1BD002384F85F31FEF765BE0023AA
S31508011A6084F86031FEF750BE002384F86231FEF730
S31508011A701ABE002384F86331FEF7B7BD3168BC4E40
S31508011A800022012384F8613100923346104603F09F
S31508011A9095F8002840F3ED8131787778B278F078B7
S31508011AA0B37985F86A1085F86B7085F86C2085F826
S31508011AB06D0085F86E30120209021044A5F87220ED
S31508011AC0AC4AA5F870100F441780AB4A10805A0823
S31508011AD085F8692085F862209A0885F86820DA0869
S31508011AE085F867201A0985F866205A0985F8652058
S31508011AF09A09DB0985F8642085F86330FEF7EBBDA2
S31508011B0099ED0C7A99ED026AD9ED0D6AFDEEC77A5F
S31508011B100DF14C0C17EE90AA0AF1FF330B9309F15C
S31508011B200C030C931E46E64609F12C0A30687168C7
S31508011B30B268F36877460FC710365645BE46F5D1E3
S31508011B40DFED8E5A8E4A30683860F8EE487AF4EE40
S31508011B50656AF1EE10FA37EE866AC2ED005A3FF46D
S31508011B6064A90B9B4FEA830AFFF769B99BF80B3007
S31508011B7001229342C4E91E898BF80C207FF47DA8C3
S31508011B80FEF79CBC0023FFF7D2B851EC190B0022D3
S31508011B9000230BF0BDFA00283FF42AA8794B3046FA
S31508011BA03946D3E900230BF02DF806460F46FFF711
S31508011BB03AB8079B83F00108734B83F8008000232A
S31508011BC084F8523151EC180B32463B460BF08CFA2D
S31508011BD0002808BF4FF00008FEF7BCBF4FF4487352
S31508011BE0FEF78BBF01210A2004F040FFFFF763BA15
S31508011BF0664B1A8C2A80DA8E93F836706A85FFF757
S31508011C0001BA1BAF3B4673ED017A93ED017A77EE84
S31508011C10877A9C45C3ED007AF5D19FED586AB7EEF0
S31508011C20007AFFF71FB994F856314F4A584F116891
S31508011C30584A013B18BF0123002684F857310096FC
S31508011C401370012384F8663132463B46304684F8E0
S31508011C50566102F0B3FF454B94F846A11B7807EE8F
S31508011C60903AB8EEE77A07EE90AAB042F8EEE77A2C
S31508011C707FF79DAEBA7985F8D4203A68C5F8D020A1
S31508011C8095E6B4F8D01040F28A23994294BF00230E
S31508011C9001230793FFF771B8002E40F0FF8084F8FF
S31508011CA064313D4F3D4B0096196832463B463046F6
S31508011CB002F084FF021E08DD7B88A5F8C830BB79CF
S31508011CC085F8CA303B88A5F8C63035490120FEF7A4
S31508011CD097F950B1012384F8473184F8493184F8DA
S31508011CE0563195F8C63084F84A31204B94F846A106
S31508011CF01B78FEF760BC012004F0C8FAFFF763B948
S31508011D0095F82D2084F84A210123002294F846A14A
S31508011D1084F8472184F8513184F84931FEF74FBDDB
S31508011D20194B84F852014FF0010883F80080FEF739
S31508011D3011BF0B46FEF7D2BF4FF00009FEF717BEDB
S31508011D4095F8BC1095F8BD0095F8BE2095F8BF70BA
S31508011D5095F8C030FFF754BB1F78EA7A287B697B70
S31508011D60AB7BE6E5C0020020100000206F060020CC
S31508011D70A802002016030020180300200000000016
S31508011D80E402002050000020C802002000C000081C
S31508011D9080020020ED02002090020020240000208D
S31508011DA0680600204FF4FA73FEF7A7BE95F8873048
S31508011DB095F8880095F8892095F88A1095F88B701A
S31508011DC02EE53D4B94F846A11B78FEF7E5BB3B4B48
S31508011DD0AA7D1B78EF7D287E697E60E594F86621E9
S31508011DE0002A3FF4E4ADB4EE667A0022F1EE10FA69
S31508011DF084F866213EF494ABD9E5304639460BF0B2
S31508011E0091F900287EF40FAF51EC190B002200233B
S31508011E100BF060F900287EF406AF00260027FEF7CE
S31508011E2002BF00290CBF0B46802385F8263008BF60
S31508011E300A4695F8223018BF4FF48072FFF7D5B9D4
S31508011E4000280CBF0346802385F8273095F82360C0
S31508011E500CBF03464FF48073FFF7E4B980231A4693
S31508011E60FFF7BEB980263346FFF7D7B90346FEF713
S31508011E7035BF95F86A1095F86B7095F86C2095F84A
S31508011E806D0095F86E3016E694F86521002A3FF440
S31508011E904EAA002284F86521FFF749BA94F864210D
S31508011EA0002A3FF465AA002284F86421FFF760BA84
S31508011EB03346FEF713BF00BF6F0600207B020020E2
S31508011EC0F0B5082185B0402002F084F90020854C40
S31508011ED002F000FE8449032005F0D4FAFF27022107
S31508011EE00E2084F8437104F03DFD02210F2004F011
S31508011EF039FD0221102004F035FD7C49072005F043
S31508011F0057FC2346002543F8385F0126C4E90C66C9
S31508011F10E3622946666026810420257000F0F6FAF8
S31508011F2004F50573C4E9836684F84C62C4F808327B
S31508011F302946C4F8E061A4F8E461052084F8DC5177
S31508011F40C4F8145200F0E2FA04F5D073C4F89431D7
S31508011F50C4E9666684F8D8610221C4F86C61A4F8FC
S31508011F607061472084F86851C4F8A05104F0FAFC5E
S31508011F703046294604F0F2F831460A2004F044FDB9
S31508011F8031460B2004F040FD3146472004F03CFD64
S31508011F902A4642F60D01092004F094FA5449554E91
S31508011FA0092004F037FC2A462946102004F01CFBB8
S31508011FB0514B2846196802F0D5FD504B2846196839
S31508011FC002F0D0FD3168284602F0CCFD4C4B28467C
S31508011FD0196802F0C7FD4B4B2846196802F0C2FD85
S31508011FE0494B2846196802F0BDFD484B2846196831
S31508011FF002F0B8FD464B2846196802F0B3FD316870
S31508012000284602F0AFFD0221472084F8447104F006
S31508012010A9FC4FF4197000F0CDFB4FF47A7000F06B
S31508012020BDFB642000F046FB2F498DF80C5001AA30
S315080120302846CDE9015502F05BF9012804D0354857
S3150801204040F6A96100F02AFE3349032005F09EFBFC
S3150801205002F0ACFE02F0B4FE304B314A31499A60C7
S315080120604FF00130C3E9002040F2011098810122A6
S31508012070E56A2D4B0A702A68D3E90013012AC4E9D7
S3150801208030130BD100262422AE60002105F10C0085
S315080120900BF000FA4FF07E532B636E63D4F80852A7
S315080120A02B68012B0BD100262422AE60002105F1F5
S315080120B00C000BF0EFF94FF07E532B636E63D4F8E7
S315080120C094412368012B0BD100252422A560002108
S315080120D004F10C000BF0DEF94FF07E5323636563C0
S315080120E005B0F0BD0804002040420F00B900010800
S315080120F0B50001082400002010000020200000205F
S315080121002C00002028000020300000203400002088
S3150801211038000020B8C000086901010860060020DF
S3150801212003010101E802002058060020454B1B78EF
S31508012130012B00D070472DE9F041434A1378012B52
S3150801214096B005D0414803F06FFB16B0BDE8F081A3
S315080121503F4E0024334614705A78E5B203331AB158
S3150801216001340A2CF8D125463A4803F049FE4FF0C6
S3150801217080603949394A07904FF480634FF400600B
S3150801218008914FF4005100270B94099201244FF44A
S3150801219080720D930E904FF480330F912D48109253
S315080121A007A911930A970C971297CDE914771394F7
S315080121B003F0BCFE2146274803F0E4FE03F09CFA2F
S315080121C001A9224801978DF808408DF80970CDE9D3
S315080121D0037705978DF8185003F09CFABDB1013DB8
S315080121E0EDB2DFF88080194F023504EB4402324420
S315080121F0032312F8032C02EB420208EB820138464C
S31508012200E2B2897A013403F0C9FAAC42EDD1002071
S3150801221003F0C2FE012003F0CDFE012003F0D8FE33
S315080122200F4A0A48136843F400531360012103F067
S315080122300BFB0121054803F0FDFA0121034803F0D0
S31508012240A3FA7FE7710000207000002000220140F8
S3150801225080060020106402404C220140A00600209E
S3150801226000700040DCC000082DE9F04FA34B1B6845
S3150801227097B0002B00F0F180A14B019303F11E09E1
S315080122809F4DCDF8009004E0009B03359D4200F078
S31508012290B880AB78002BF7D06B78002BF4D0994B2C
S315080122A01B78002BF0D0954A95F800801768013BFA
S315080122B0DBB207F14C064C2212FB0369AA4604E07D
S315080122C0B145374600F097804C3639784145F7D104
S315080122D0019B002404E001340A2C03F1030305D011
S315080122E05A78012AF7D11A788A42F4D14C2239460A
S315080122F003A80AF0B9FFB86C049A7D6CC30602F00C
S3150801230078418B4200F08E804FF0000C9B4600E02E
S315080123108C460CF10101C9B216AB03EB810353F8E4
S31508012320483C03F0784EF345F2D10CF1020C0B2927
S315080123309E465FFA8CFC5B4669D90E2910D80FFABE
S315080123408CF103AA02EB810100E094464A6841F840
S31508012350042BBCF10E0F0CF10102D2B2F5D9049A85
S31508012360694931F814C022F07842CCF30B0C6FF0AE
S3150801237078419445139160D900240134E4B216AA30
S3150801238002EB8402A64652F8482C22F0784294457C
S31508012390F3D80B2C38D8032C0F9A98BF079922F03B
S315080123A07842A5EB020296BF21F078410CEB0205B3
S315080123B08D18C4F10E0412AAE4B2A2EB840413AA7E
S315080123C052F8041D51609442FAD1441C16AA102CE5
S315080123D002EB8E0E28BF002443EA0C03384603A9F4
S315080123E04C224EF8483CCDE914540AF03DFFB1455C
S315080123F037467FF469AF5546009B03359D427FF406
S3150801240048AF17B0BDE8F08F0E2CD2D9DDE7109A88
S31508012410032922F0784215441AD92EF0784EA5EBF5
S315080124200E058CE7109A089922F07842154421F096
S3150801243078416D1A4FF0010C81E70F9A079922F03E
S315080124407842AD1A21F0784100240D44A646B0E73A
S31508012450089921F078416D1A71E72A4E337803EB12
S31508012460C30203EB4203980000F04CFA234B804663
S315080124701860234B002837D01A46019315460346A0
S3150801248002F11E0914AC212703E003354D453FF43B
S31508012490F7AEAA78002AF8D095F800C004A9002258
S315080124A041F8042BA14202F10062F9D14C2203A999
S315080124B018468DF80CC014970AF0D6FE327802EB4E
S315080124C0C201034602EB41024C3308EB82029342F6
S315080124D0DBD90122142142F2030002F063FE074B05
S315080124E0186800F07BFACBE60122142142F20200B9
S315080124F0019303F11E0902F055FEC1E6B406002058
S315080125008006002002000020A00600202DE9F043E5
S31508012510092885B006460D4668D838480478F4B9BE
S31508012520374A384B012702F11401077022F8024B8A
S315080125308A425C709C7003F10303F7D101214FF4C1
S31508012540800003F0C3FD4FF48060012103F0E2FD32
S315080125506846CDE90044CDE9024403F001F9DFF804
S31508012560A48008F11E014746434602E003338B4225
S3150801257008D05A78012AF9D11A78B242F6D105B0AB
S31508012580BDE8F083204A06EB46039B0002EB0309EC
S31508012590D058012103F09AFDB9F8083000930024B8
S315080125A00323D9F804008DF8043069468DF80740ED
S315080125B003F01CFD98F8013008F1030843B1013412
S315080125C00A2CF7D10122142142F2010002F0EAFD98
S315080125D004EB44043B1901223E555A7005B19A7021
S315080125E00A4B01221A7005B0BDE8F08301221421B5
S315080125F04FF4005002F0D6FD8FE700BF71000020AE
S31508012600A006002080060020DCC00008700000201B
S31508012610092838B505460C4622D8214B1A78012ACD
S3150801262001D0002038BD14B31E4B1C688CB31E4B59
S31508012630197889B12378AB420ED00139CBB24C2136
S3150801264011FB0341234603E01A78AA421C4603D02C
S315080126508B4203F14C03F7D1606CC0F3CF0038BD50
S31508012660012214214FF4005002F09CFDD5E70F4BCF
S31508012670214604E001310A2903F10303D1D05A782E
S31508012680012AF7D11A78AA42F4D1094B33F8110075
S3150801269038BD142142F2050002F084FD204638BDFA
S315080126A071000020B40600200200002080060020E8
S315080126B0A0060020034A044BA2FB0020400918602B
S315080126C0704700BF1F85EB516C00002000B583B031
S315080126D000F07EFD02AC084E44F8040D074D03E0F8
S315080126E02968204600F0ACFEFFF720FD3378002B61
S315080126F0F6D0FFF7B9FDF3E7020000206C000020D1
S3150801270008B5FFF713FD044B1B781BB1BDE808405C
S31508012710FFF7AABD08BD00BF0200002000B583B0BF
S3150801272000F056FD02AC054D44F8040DFDF7C0FC5A
S315080127302968204600F084FEF8E700BF74000020EF
S3150801274010B584B0002400F03FF802F009FDFDF74A
S31508012750A1FCFFF7D5FF052223460092CDE90244E5
S31508012760019480220849094800F054FB084B039458
S3150801277006211A88074800910294019423460649BE
S3150801278000F048FB04B010BD54C10008CD2601086D
S31508012790780000201D270108ACC00008034A044B35
S315080127A0A2FB002040091860704700BF1F85EB5146
S315080127B07400002080087F28024B96BF802218806B
S315080127C01A8070477800002000F000B8074BC3F163
S315080127D0006101F5004103F500605A5C03F8012B1D
S315080127E08342FAD1024B00221A707047BC060020B8
S315080127F0B8060020C1F500630133984218DA01448E
S31508012800884215DADFF834C0F0B40B4C9CF8006046
S315080128100025FF27225CFF2A00F1010302D00125CA
S3150801282027542E4698B28842F4DB15B9F0BC704796
S3150801283070478CF80060F9E7BC060020B80600204E
S3150801284040F2FC73984210B502D90024204610BD07
S31508012850044600F09DF9034B1C5900F09BF92046EC
S3150801286010BD00BFBC060020F8B540F2FC739842C3
S3150801287000D9F8BD0446094E0D4600F089F93759C5
S3150801288000F088F9BD42F4D000F082F9355100F024
S3150801289081F9034B01221A70F8BD00BFBC0600205E
S315080128A0B806002010B4154A00E01A461368834298
S315080128B0FBD351685418A0420AD041684418A34270
S315080128C00DD0904203605DF8044B18BF1060704745
S315080128D04068014410464418A3425160F1D1084C9E
S315080128E02468A342EDD0D3E9003490422144036021
S315080128F041605DF8044B18BF10607047BC8E00201C
S315080129007C0000202DE9F041044600F059FC2E48D0
S315080129100268002A39D02D4B1F683C422FD174B367
S3150801292004F108014B071CBF21F00701083131B337
S31508012930DFF8A080D8F800608E4220D3244D2C6899
S3150801294003E0226822B12546144663688B42F8D310
S315080129500268A24213D0226828682A605A1A102AE5
S3150801296000F1080528D8F61A00223B43C4E90023DA
S31508012970C8F8006000F0F0FC2846BDE8F0810025A3
S3150801298000F0EAFC2846BDE8F081124F124B39687F
S3150801299023F0070347F6F0755E1908397260396046
S315080129A05A510A490660C3E90065094D4FF00047C7
S315080129B02B606A600F60B0E7631818465A60616059
S315080129C0FFF770FF6368CEE77C00002080000020D7
S315080129D0BC8E002084000020C40E002000283AD0B6
S315080129E038B51D4D50F8043C2A681342044610D0E8
S315080129F050F8081CD9B14FF48671184800F04EF901
S31508012A002A6854F8043C134202D054F8081C71B1E0
S31508012A1038BD40F20B11114800F040F954F8083C52
S31508012A20002BE8D12A6854F8043C1342F0D023EA73
S31508012A30020344F8043C00F0C3FB094A54F8043C79
S31508012A401168A4F108000B441360FFF72BFFBDE8DA
S31508012A50384000F081BC70478000002068C100083A
S31508012A6084000020014B1868704700BF84000020CD
S31508012A700C490D484B6830B4C3F5C332A032642300
S31508012A8003FB02F3094D0A4C5B09A5FB03230278F4
S31508012A90C3F3C7139A42237038BF037000234B60F0
S31508012AA030BC7047CC8E0020C58E0020C55A7C0AE2
S31508012AB0C48E002070B50D4606460AF041FD04464F
S31508012AC028460AF03DFD844201D0002070BD6CB154
S31508012AD032782B789A42F8D1002303E0F15CEA5C5C
S31508012AE09142F2D10133DBB29C42F7D8012070BD85
S31508012AF000B51D4D1D481E4B83B0002400930122CD
S31508012B0004602C706C602C72234642F210711948CD
S31508012B10194D00F0DBFE2860F0B10446174A184B40
S31508012B20002515701D7000F053FB009502462B46D3
S31508012B302046294600F0F0FE012805D0012214217D
S31508012B404FF4805002F02EFB0E4B00221A60FFF75D
S31508012B50F7FD00F0FDFAFEE7012214214FF480503B
S31508012B6002F020FB2C68D9E7CC8E0020D88E0020F5
S31508012B70712A01088CC10008C88E0020C48E002065
S31508012B80C58E002088000020704700BF704700BF2F
S31508012B9002F09CBC02F0C0BC03F068BC014B18787B
S31508012BA0704700BFC48E0020FFF75CBF70B50546AD
S31508012BB002F08CFC114B1C688CB106462946A068AC
S31508012BC0FFF778FF012805D10DE0A068FFF772FF2E
S31508012BD0012808D024692946002CF6D1304602F08E
S31508012BE09BFC204670BD6468304602F095FC204681
S31508012BF0002CF7D000F070FD800070BDD88E002043
S31508012C002DE9F041804614200F461446FFF77AFE57
S31508012C10054628B30023C5E90343C5E9018702F040
S31508012C2055FC134E074602F051FC346802460CB9AE
S31508012C300DE01C462369002BFBD1104602F06CFC03
S31508012C40256138462C60BDE8F04102F065BC02F00A
S31508012C5063FC2C6035603846BDE8F04102F05CBC87
S31508012C60012214214FF4805002F09CFAD2E700BFEA
S31508012C70D88E0020074A138801339BB2092B13808B
S31508012C8005D905490B68002001330B60108003F054
S31508012C900FBB00BF8C0000208800002001221421F0
S31508012CA04FF4805002F07EBA054B1A78012A00D0FB
S31508012CB070471A7A002AFBD15A6801325A6070475E
S31508012CC0CC8E002008B502F001FC044B012100223C
S31508012CD019701A72BDE8084002F01EBCCC8E00209D
S31508012CE0014B00221A707047CC8E002008B5034CA0
S31508012CF02368012BFDD902F0DDFBF9E7E48E0020FC
S31508012D000D4B0E4A19681268486082420DD80C4A62
S31508012D1010B5044610681968043104F0CDFF094B53
S31508012D201A68A24288BF1C6010BD074A1068196854
S31508012D30043104F0C1BF00BF90000020B800002094
S31508012D40DC8E0020AC000020E08E00202B4B2DE904
S31508012D50F0410022DFF8B880294E1A60D8F8002021
S31508012D6033689A4247D0D8F80020D8F8003012685C
S31508012D701B6B9A4233D9234C234D236803EB8303F8
S31508012D8055F823309BB9214F08E02368013B23609E
S31508012D90236803EB830355F8233043B92368002BD3
S31508012DA0F3D140F252713846FFF778FFEDE7236811
S31508012DB003EB83039B00E91808334A6852684A60A3
S31508012DC01D44AA4204BF52684A60D368C8F8003055
S31508012DD0D8F8002033689A4209D0BDE8F081D8F8BE
S31508012DE00000D8F80010343104F0D2FEC3E7BDE87C
S31508012DF0F041FFF767BFFFF773FFB4E7BC00002098
S31508012E00A8000020A4000020E48E0020A0C100082C
S31508012E10900000202DE9F84FDDF830B08A4691463A
S31508012E209846DDE90A570646002800F0A7800D2DC9
S31508012E3000F287804820FFF765FD0446002800F068
S31508012E408C804FEA8909BBF1000F00F09D80C0F81C
S31508012E5030B04A46A52158460AF01CFB236BA9F156
S31508012E600409994429F007090AF1FF330AF10F0108
S31508012E7004F1330201E08B4207D013F9010F02F87E
S31508012E80010F93F900000028F5D10D2D4FF000032D
S31508012E90AB4604F1040A28BF4FF00D0B84F8433002
S31508012EA05046C4F82CB0C4F844B004F0F1FE04F15D
S31508012EB0180004F0EDFECBF10E03A36124616462F0
S31508012EC042463146484602F0D1FA206007B13C60D5
S31508012ED002F014FB444A454E136801331360336804
S31508012EE0002B3ED0424F3B681BB3DFF82481414893
S31508012EF0E26A03680133036004F134012046FFF7EF
S31508012F007FFE3D4BE06A1A68904288BF186000EB65
S31508012F10800008EB8000514604F0BEFE02F000FB7B
S31508012F203B681BB13368DB6AAB4222D30120BDE89B
S31508012F30F88F3368DFF8D880DB6AAB4298BF346014
S31508012F40D5E740F2ED112D48FFF7A8FE4820FFF717
S31508012F50D9FC044600287FF474AF4FF0FF30BDE872
S31508012F60F88F34601368DFF8A880012B1AD0204F38
S31508012F70BDE702F09FFA0120BDE8F88F4FF4F6711C
S31508012F801E48FFF78BFE52E74846FFF7BBFC834610
S31508012F90206300287FF45DAF2046FFF71FFD4FF041
S31508012FA0FF30C4E7474608F58C793846143704F0EC
S31508012FB063FE4F45F9D1DFF85CB0DFF85C900C4F42
S31508012FC0584604F059FE484604F056FE0C4804F0EB
S31508012FD053FE0C4804F050FE0B4A0C4BC2F800B0E5
S31508012FE0C3F8009083E700BF9400002090000020FA
S31508012FF0B4000020A0000020A4000020A0C1000801
S315080130002490002038900020DC8E0020E08E0020DD
S31508013010E48E0020FC8F002010900020F8B50446AD
S31508013020194E02F06BFA1CB3251D284604F05EFE04
S31508013030A36A1BB104F1180004F058FE134F294680
S31508013040384604F029FE02F06BFA3368A34200D031
S31508013050F8BD0F4B1B687BB90E4A39681268914255
S3150801306008D00D4B1B685BB10C4B01221A60F8BDE9
S315080130703468D9E73360F8BDBDE8F84002F01ABAFA
S31508013080BDE8F840FFF762BE9000002038900020A6
S31508013090B4000020940000209C000020BC00002001
S315080130A010B5044668B10A4B62699A4201D00020FC
S315080130B010BDA06A074B9842F9D0B0FA80F04009D2
S315080130C010BD40F259410448FFF7E8FDEBE700BFA0
S315080130D03890002024900020A0C1000888B170B55E
S315080130E0174D2B6883420BD0044602F007FA204697
S315080130F0FFF7D6FF012809D0BDE8704002F010BAE3
S3150801310070BD40F27A410F48FFF7C8BD261D30460B
S3150801311004F0ECFD0C4AE36A11680C488B4288BF3F
S31508013120136003EB830300EB8300314604F0B4FD1F
S315080131302B68E26ADB6A9A42DED302F0BBF9DBE767
S3150801314090000020A0C10008A4000020E48E002001
S3150801315030B585B00024144A0192CDE902440094A1
S315080131602346802211491248FFF754FE01280BD045
S3150801317005460DB105B030BD0E4840F21F5105B0E8
S31508013180BDE83040FFF78ABD00F07CFB0128054603
S31508013190EFD102F09BF9084A084B15601C6005B08F
S315080131A0BDE8304002F024BAA800002098C1000802
S315080131B0ED2C0108A0C10008B4000020B8000020C9
S315080131C0024A136801331360704700BF9C00002050
S315080131D010B502F093F9034B1C6802F0A1F92046D9
S315080131E010BD00BFB80000202DE9F04F4E4B1B68FB
S315080131F083B0002B7BD14D4B1A6801321A601F68C8
S315080132000FB34B4B0193019B1B68BB4237D9DFF8C0
S315080132103C81DFF83C910025D9F80030454ADB6A44
S31508013220126803EB830358F82330022B28BF0125C4
S31508013230002A64D0404B1B68002B0CBF284601208E
S3150801324003B0BDE8F08F3D4E33681B68002B64D18F
S315080132503B4B31683B4A1868306019601368013383
S31508013260136033681B68002B4CD1314B01931A4606
S315080132704FF0FF331360019B1B68BB42C7D82F4E23
S31508013280DFF8C880DFF8C890DFF8C8A0002525E078
S315080132903368DB68DC68636804F1040B9F425846AF
S315080132A038D304F023FDA36A04F118000BB104F026
S315080132B01DFDE36ADAF8002003EB830093425946C1
S315080132C008EB800088BFCAF8003004F0E5FCD9F89D
S315080132D00030E26ADB6A9A4228BF012533681B6817
S315080132E0002BD5D1019A4FF0FF33136094E7114AA9
S315080132F01368013313600025FFF7BCFC9AE7FFF753
S31508013300B9FC97E733680A4ADB680192DB685B68B0
S31508013310136078E7019A13607EE740F25B610A4819
S31508013320FFF7BCFC94E700BF9C000020B800002012
S31508013330AC00002098000020BC000020DC8E002094
S31508013340E08E0020B0000020A0C10008E48E002015
S3150801335090000020A40000202DE9F0472F4C236897
S31508013360002B51D002F0CAF82368013B2360236879
S31508013370002B43D12A4B1B68002B3FD0DFF8B4A0A2
S31508013380284E294FDFF8B090DFF8B0801EE0F368C9
S31508013390DC68251D04F1180004F0A8FC284604F091
S315080133A0A5FCE36A3A6803EB83009342294609EBD5
S315080133B0800088BF3B6004F06FFCD8F80030E26AF1
S315080133C0DB6A9A4224BF0123CAF800303368002B0E
S315080133D0DDD1164C23686BB123685BB10125FFF774
S315080133E003FF08B1CAF800502368013B236023682C
S315080133F0002BF4D1DAF80040012C0BD0002402F09E
S315080134008FF82046BDE8F08740F25A510848FFF781
S3150801341045FCA7E702F04EF8F1E700BF9C00002043
S315080134209400002024900020A40000209800002089
S31508013430A0C10008BC000020E48E002090000020F6
S3150801344038B50C460546002836D03CB31F492048F6
S315080134500A682B6801320A6001681C192CBF012011
S3150801346000208B4222460DD860B32C60194B186890
S31508013470043004F03BFC2046FFF742FCFFF76CFFE3
S3150801348040B138BDB0B1A1422C60EFD3FFF764FF5C
S315080134900028F6D1BDE8384002F00CB840F2BF2149
S315080134A00D48FFF7FBFB094909480B682A680133F0
S315080134B00B6003682A60E1E740F2BE210648FFF780
S315080134C0EDFBC2E7A142D0D3F4E700BF9C00002080
S315080134D0B800002090000020A0C10008044B1B681A
S315080134E00BB9FFF733BC034B01221A60704700BFC3
S315080134F09C000020BC00002070B50E460546C8B1E8
S315080135000F4C21682846183104F0D6FB2068043090
S3150801351004F0ECFB731C06D00A4B18683044BDE86E
S315080135207040FFF7EDBB216807480431BDE87040DC
S3150801353004F0B2BB40F265710448FFF7AFFBDFE761
S3150801354090000020B800002038900020A0C1000893
S3150801355070B50E46054680B10B4C216828461831D0
S3150801356004F09AFB2068043004F0C0FB074B186886
S315080135703044BDE87040FFF7C3BB40F29B71044875
S31508013580FFF78CFBE8E700BF90000020B800002099
S31508013590A0C1000838B5C368DC684CB304F1180546
S315080135A0284604F0A3FB154B1B68E3B9251D2846DD
S315080135B004F09CFB124AE36A116812488B4288BFE1
S315080135C0136003EB8303294600EB830004F064FBD5
S315080135D00D4BE26A1B68DB6A9A4223BF0B4B01203B
S315080135E01860002038BD2946094804F055FBEFE765
S315080135F040F2D1710748FFF751FBCFE79C00002045
S31508013600A4000020E48E002090000020BC000020C9
S3150801361024900020A0C1000810B5044630B1064A1E
S31508013620064B12681B68C4E9002310BD40F2F77106
S315080136300348FFF733FBF2E7B0000020B80000208B
S31508013640A0C10008F8B50D46044658B38DB301F07C
S3150801365055FF2B681A4A581C11681ED0DFF868C036
S31508013660D4E90060DCF80070BE4201D081420FD275
S315080136700F1ABB420CD95B1ADCF800101268034416
S315080136802B600025C4E9001201F04AFF2846F8BD5F
S31508013690012501F045FF2846F8BD002501F040FF48
S315080136A02846F8BD40F601010648FFF7F7FA002D4E
S315080136B0CDD140F602010348FFF7F0FAC7E700BF8C
S315080136C0B8000020A0C10008B0000020014B01226B
S315080136D01A607047BC00002068B1036B1A78A52AE6
S315080136E04FF000000FD113F8012F0130A52A80B23F
S315080136F0F9D080087047044B1868036B1A78A52A15
S315080137004FF00000EFD0704790000020014B186879
S31508013710704700BF90000020044B186828B1044B7D
S315080137201B68002B0CBF012002207047B400002043
S315080137309C000020B8B1F8B5164DC36A2A68D26A4A
S3150801374093420FD22A68144ED26A416903EB830366
S3150801375006EB8303C2F10E029942826104D02B68FB
S31508013760DB6AC362F8BD7047071D0446384604F094
S31508013770BDFA2A68094BD06A1A68E062904200D9F4
S31508013780186000EB800006EB80003946BDE8F8407A
S3150801379004F082BA90000020E48E0020A4000020E4
S315080137A0F0B138B5C26A436C9A4218D0051D044671
S315080137B0284604F09BFA0B4A636C1168E362C3F16D
S315080137C00E008B42A061084888BF136003EB830390
S315080137D0294600EB8300BDE8384004F05DBA38BDE0
S315080137E0704700BFA4000020E48E0020F8B50F4CF6
S315080137F001F084FE25681DB1BDE8F84001F090BED0
S315080138000B4F0C4E384604F037FA304604F034FABA
S31508013810094A0A4B17600C212A4606201E6004F045
S3150801382041FB2060BDE8F84001F07ABEC4000020E3
S3150801383054900020689000204C9000205090002061
S31508013840914208B50061416005D88169D21A8A4258
S315080138500CD3012008BD9A4201D29942F9D2074BED
S31508013860011D186804F028FA002008BD044B011D43
S31508013870186804F021FA002008BD00BF4C9000200A
S315080138805090002000B585B0FFF7B0FF0B4B1B68C1
S315080138905BB100230222CDE90023CDE90233802260
S315080138A007490848FFF7B6FA20B90748E021FFF7A4
S315080138B0F5F9002005B05DF804FB00BFC40000203F
S315080138C0E8C10008F5390108C4C100082DE9F0412D
S315080138D00D46B1B18046282017461E46FFF712F855
S315080138E0044658B1FFF782FF069BC4F80080C4E975
S315080138F0065726626362201D04F0CAF92046BDE810
S31508013900F0814FF4847103482C46FFF7C7F9204626
S31508013910BDE8F081C4C1000870B5134E346884B09F
S3150801392064B11D46CDE90112039053B11A462046EA
S31508013930002301A904F076FB04B070BD204604B04B
S3150801394070BDFFF7E9FE012807D030682B462A46E5
S3150801395001A904F0CDFA04B070BD2B463068089A67
S3150801396001A904F0C5FAE7E7C40000202DE9F047EC
S315080139701D4DDFF87C8082B04FF0000A0DE0DB6850
S31508013980DC681F6804F10409484604F0AFF9636A64
S3150801399020469847E369012B0AD02B681A68002A42
S315080139A0EDD1124A11682960136002B0BDE8F087AB
S315080139B0A6693E440023B74219463A46204606D22E
S315080139C0666024612868494604F076F9E5E7CDF88A
S315080139D000A0FFF7A1FF0028DFD140F2822140466F
S315080139E0FFF75CF9D9E700BF4C9000205090002002
S315080139F0C4C100082DE9F04FDFF874A15B4FDFF869
S31508013A007481DFF8749187B04FF0000BDAF8003053
S31508013A101D68002D6DD0DB681D68FFF7D1FBFFF728
S31508013A20D7FB3B68834204466BD88542386073D915
S31508013A30291BD8F8000004F065FCFFF78DFC002867
S31508013A4067D000231A4603A9D8F8000004F054FBEE
S31508013A500028DBD0059C636913B1201D04F046F9E3
S31508013A60FFF7B6FB3B689842054627D3039E3D60A0
S31508013A70022E29D0032E31D0002EE2D1049BA16952
S31508013A802A4619442046FFF7DBFE0128D9D1636A85
S31508013A9020469847E369012BD3D1A369049A009676
S31508013AA01A44204633463146FFF736FF0028C8D167
S31508013AB040F22F214846FFF7F1F8C2E7FFF756FF14
S31508013AC0039E3D60022ED5D10499A16151B12944C5
S31508013AD020462B462A46FFF7B3FEB2E72046FEF7F5
S31508013AE07DFFAEE74FF40F714846FFF7D7F8A16996
S31508013AF0EDE7FFF765FBFFF76BFB3B68984204466A
S31508013B0005D2FFF733FF3C60FFF726FC99E73C60D7
S31508013B108EE701F0CFFC94E7FFF71EFCDAF80030D8
S31508013B20DB68DE68301D04F0E1F8F369012B03D088
S31508013B30736A3046984784E7B169224629442B4679
S31508013B403046FFF77DFE0128F2D10023CDF800B0FB
S31508013B502A4619463046FFF7DFFE0028E8D14FF41A
S31508013B60AD714846FFF79AF8E2E700BFC0000020AA
S31508013B704C900020C4000020C4C100082DE9F04380
S31508013B80404E414D414FDFF80891DFF8088189B071
S31508013B9000234FF0FF3201A9306804F0ADFA01287D
S31508013BA005D00122142142F2081001F0FBFA9DF812
S31508013BB00440012C05D90122142142F20C1001F00E
S31508013BC0F1FA2B5D012BE3D19DF80530032B51D872
S31508013BD0DFE803F03F2413029DF8043057F8332039
S31508013BE01AB1012090479DF8043007EBC3035B68BF
S31508013BF0002BCDD001209847CAE79DF8043057F825
S31508013C0033201AB1002090479DF8043007EBC3030F
S31508013C105B68002BBCD000209847B9E79DF80430B3
S31508013C2058F8334044B1079B9DF8101003980DF1DD
S31508013C301102A0479DF8043008EBC3035C68002C09
S31508013C40A6D0079B9DF8101003980DF11102A04705
S31508013C509EE79DF8043059F833201AB10398904726
S31508013C609DF8043009EBC3035B68002B90D00398D9
S31508013C7098478DE70122142142F2091001F092FAC0
S31508013C8086E700BFB0900020AC9000207C90002011
S31508013C909C9000208C9000202DE9F047414C424D24
S31508013CA0424FDFF80C818CB0002600234FF0FF321B
S31508013CB006A9206804F020FA012805D0012214215A
S31508013CC042F2071001F06EFA9DF81830012B41D81F
S31508013CD09DF82020082A43D8EB5C002B40D0DDF85C
S31508013CE01C908DF80E2019F0804348D18DF80D30BF
S31508013CF072B10DF12203013A53FA82F20DF10F0165
S31508013D000DF1210313F8010B01F8010B9A42F9D1C0
S31508013D104B46002B3ADBCDE901368DF80C60CDF820
S31508013D201C90FEF735FF9DF8183003EB8303824696
S31508013D3001A957F8330001F0A9FE04282ED09DF8F1
S31508013D40183003EB43030344504648F82390FEF723
S31508013D5021FFAAE70122142142F20C1001F022FAEE
S31508013D600123002206A9206804F0C2F800289CD184
S31508013D700122142142F2041001F014FA95E70223F4
S31508013D808DF80D3029F08043002BC4DA23F0004367
S31508013D900422CDE901638DF80C20C0E75046FEF7F1
S31508013DA0F9FEDDE7C4900020AC9000203CC2000873
S31508013DB0D0900020F0B500EB8002174B53F8325033
S31508013DC089B00446002628464FF48061009601F022
S31508013DD061FF012802D0009809B0F0BD0F4A8DF89D
S31508013DE004400746032410688DF8054033466A46A1
S31508013DF001A904F017F938B128464FF4806101F09A
S31508013E00B9FF009809B0F0BD3A46142142F20610EE
S31508013E1001F0C8F9F0E700BF3CC20008B0900020E5
S31508013E202DE9F04300EB8002534B8FB053F8326013
S31508013E308DF81C000546002430460221CDE90044D0
S31508013E4001F028FF01280AD00821304601F022FF97
S31508013E50012805466BD000980FB0BDE8F0830346EC
S31508013E60214630468DF81D3001F0B4FE044600287F
S31508013E7048D0DFF81091DFF8108164270CE0029A28
S31508013E8009929DF811204AB3099B43F0804309938F
S31508013E90013C14F0FF0435D002AA0021304601F096
S31508013EA049FEFFF795F959F825309DF810208DF848
S31508013EB0205007FB00F0A8FB0010C3EB90109DF8FB
S31508013EC012300D908DF82830002AD8D0039A42F086
S31508013ED0004209929DF81120002AD5D1002BD7D08E
S31508013EE0013B05AA52FA83F20DF129010DF11303DB
S31508013EF013F8010B01F8010B9342F9D1013C14F0B7
S31508013F00FF04C9D11D4A0023106807A901AA04F0B4
S31508013F1089F818B3019B3046012B4FF0020108BFFF
S31508013F20009301F027FF00980FB0BDE8F083134A0C
S31508013F302346106802246A4607A98DF81D4004F035
S31508013F4071F890B130460E4901F08CFE30460821D1
S31508013F5001F010FF00980FB0BDE8F083012214218B
S31508013F6042F2061001F01EF9D4E72A46142142F25C
S31508013F70061001F017F9E5E73CC20008B0900020E9
S31508013F8010000032BC900020D34D62102DE9F04399
S31508013F9000EB8002534B8FB053F832608DF81C004A
S31508013FA00546002430461021CDE9004401F072FE91
S31508013FB001280AD04021304601F06CFE0128054649
S31508013FC06BD000980FB0BDE8F08303460146304632
S31508013FD08DF81D3001F0FEFD0446002848D0DFF8B3
S31508013FE01091DFF8108164270CE0029A09929DF876
