S02900002E2E2F48414E636F6465725F453430375F5454415F436F6D62696E654D6F64656C2E73726563F8
S31508004000ECC90020D98B0108000000000000000060
S315080040100000000000000000000000000000000092
S31508004020000000000000000000000000D95401084C
S31508004030000000000000000075550108C55501087C
S315080040400000000000000000000000000000000062
S315080040500000000000000000000000000000000052
S3150800406000000000316401080000000000000000A4
S315080040700000000000000000000000000000000032
S3150800408000000000000000000000000001490108CF
S31508004090B9480108DD480108254901080000000063
S315080040A01D64010809640108F5630108E563010850
S315080040B0D1630108BD630108A96301080000000077
S315080040C000000000000000000000000000000000E2
S315080040D000000000A9710108C1710108D971010821
S315080040E00000000000000000A172010800000000A6
S315080040F095630108816301087163010800000000E7
S31508004100000000000972010800000000000000001D
S315080041100000000000000000000000000000000091
S315080041200000000000000000000000000D720108F9
S3150800413000000000616401080000000091490108C0
S31508004140494901086D490108B5490108D1720108B4
S31508004150000000000000000000000000F1710108E6
S315080041600000000000000000000000000000000041
S315080041700000000000000000000000000000000031
S311080041800000000000000000EE11AA5527
S3150800C000000000000000F03F000000000000F03FC4
S3150800C010000000000000E03F000000000000F03FC4
S3150800C0200000000000000000000000000000000002
S3150800C03000000000000000000000000000000000F2
S3150800C04000000000000000000001000001010000DF
S3150800C0500100010100000000383F0700000420002D
S3150800C0601000080002010000000000000A0A0A0089
S3150800C07048414E636F6465725F453430375F545488
S3150800C080415F436F6D62696E654D6F64656C5F7382
S3150800C0906F66747761726549445F76315F3139300E
S3150800C0A03632335F303935393239000041707043E2
S3150800C0B074726C5461736B0048414E636F646572A9
S3150800C0C05F453430375F5454415F436F6D62696E24
S3150800C0D0654D6F64656C2E6300000000200000004B
S3150800C0E00014024008000900200000000014024065
S3150800C0F010000E00200000000014024020000F006F
S3150800C1002000000000140240400004002000000047
S3150800C11000140240800005002000000000140240C0
S3150800C120000106002000000000140240000207007B
S3150800C130200000000014024000040800040000006B
S3150800C1400008024001000A0004000000000802403E
S3150800C15004000C00414443636F6E76657273696F21
S3150800C1606E5461736B0000002E2E2F626C6F636B2A
S3150800C1707365742F7274772F53544D33322F73723D
S3150800C180632F686561705F342E630000546D7243D7
S3150800C19070754C6F6164000049444C45000000000E
S3150800C1A02E2E2F626C6F636B7365742F7274772FE4
S3150800C1B053544D33322F7372632F7461736B732E1E
S3150800C1C0630000002E2E2F626C6F636B7365742FED
S3150800C1D07274772F53544D33322F7372632F7469E9
S3150800C1E06D6572732E630000546D7220537663007A
S3150800C1F043616E4576656E745461736B000000008A
S3150800C20043616E5472616E736D69745461736B0029
S3150800C2102E2E2F626C6F636B7365742F7274772F73
S3150800C22053544D33322F7372632F53544D33325F49
S3150800C230453430372F63616E2E630000006400407A
S3150800C2400000000208000000000C02400100000087
S3150800C25008000000000C0240020001000913141532
S3150800C26016000000006800400000000402000000FC
S3150800C27000040240200005000200000000040240FD
S3150800C28040000600093F404142000000010102014A
S3150800C2900202020202030202040202030303040367
S3150800C2A0030503030603030504040604040704043C
S3150800C2B0080404070505080505080605080705080E
S3150800C2C007060808060808070808080045764368A8
S3150800C2D06E6C3100457643686E6C3200457643686D
S3150800C2E06E6C33002E2E2F626C6F636B7365742F22
S3150800C2F07274772F53544D33322F7372632F5354FE
S3150800C3004D33325F453430372F6D61632E6300003D
S3150800C3102E2E2F626C6F636B7365742F7274772F72
S3150800C32053544D33322F7372632F53544D33325F48
S3150800C330453430372F706F72742E63000000014049
S3150800C3400100000002010000100000000010024079
S3150800C35000020900100000000010024000080B004F
S3150800C3600004004002000000010200000100000075
S3150800C37000000240400006000200000000040240DF
S3150800C380200005000008004004000000010200002B
S3150800C39008000000000C024000100C000800000015
S3150800C3A0000C024000200D000004014002000000BD
S3150800C3B002030000040000000008024040000600D6
S3150800C3C0040000000008024080000700100000007A
S3150800C3D000100240000100000100080010000000E3
S3150800C3E0001002400004000101000A0010000000CD
S3150800C3F0001002400010000201000C00000001407D
S3150800C40001000000020119000000004001000000C0
S3150800C41001021C00000400400200000001021D0089
S3150800C420000800400400000001021E00000401404C
S3150800C4300200000002012C0000400140000001003B
S3150800C4400201180000440140000002000201190020
S3150800C450004801400000040002011A00001C0040C8
S3150800C4608000000001022C000020004000010000AE
S3150800C47001022D001000000000100240000200001A
S3150800C4800100090010000000001002400008000129
S3150800C49001000B00100000000010024000200002FE
S3150800C4A001000D00100000000010024000400003CB
S3150800C4B001000E00010000000000024020000100FB
S3150800C4C001000500010000000000024040000200D3
S3150800C4D002000600020000000004024020000201DB
S3150800C4E00200050008000000000C024000100300CE
S3150800C4F002000C0008000000000C024000200301A6
S3150800C50002000D000400000000080240400004007C
S3150800C5100300060004000000000802408000040131
S3150800C520030007001000000000100240200005006C
S3150800C530030005001000000000100240400005013D
S3150800C5400300060020000000001402404000060018
S3150800C55003000600200000000014024080000700C7
S3150800C5600300070020000000001402400001080034
S3150800C570090008002000000000140240000209001B
S3150800C580090009000400000000080240010000003C
S3150800C59020000000001402404000000020000000B7
S3150800C5A00014024080000000200000000014024031
S3150800C5B000010000200000000014024000020000F4
S3150800C5C020000000001402400004000002000000E1
S3150800C5D0000402408000000002000000000402403F
S3150800C5E04000000010000000001002400400000097
S3150800C5F010000000001002401000000010000000AB
S3150800C6000010024020000000100000000010024048
S3150800C61040000000400000000018024080000000B2
S3150800C6204000000000180240000100004000000021
S3150800C63000180240001000004000000000180240E8
S3150800C6400080000001000000000002401000000009
S3150800C6500200000000040240200000000100000063
S3150800C66000000240400000000100000000000240F7
S3150800C6702000000008000000000C02400100000035
S3150800C68008000000000C024002000000080000003C
S3150800C690000C02400400000008000000000C0240E4
S3150800C6A00800000008000000000C0240100000000E
S3150800C6B008000000000C02402000000008000000EE
S3150800C6C0000C02404000000008000000000C024078
S3150800C6D08000000008000000000C02400001000075
S3150800C6E008000000000C02400002000008000000DC
S3150800C6F0000C02400004000008000000000C024084
S3150800C7000008000008000000000C024000100000AD
S3150800C71008000000000C024000200000080000008D
S3150800C720000C02400040000008000000000C024017
S3150800C7300080000010000000001002400100000008
S3150800C7401000000000100240020000001000000067
S3150800C750001002400800000010000000001002400F
S3150800C76080000000100000000010024000010000D8
S3150800C7701000000000100240000200001000000037
S3150800C78000100240000400001000000000100240E3
S3150800C7900008000010000000001002400010000011
S3150800C7A010000000001002400020000010000000E9
S3150800C7B00010024000400000100000000010024077
S3150800C7C00080000020000000001402400100000064
S3150800C7D020000000001402400200000020000000B3
S3150800C7E0001402400400000020000000001402406B
S3150800C7F0080000002000000000140240100000009D
S3150800C8002000000000140240200000002000000064
S3150800C8100014024000080000200000000014024036
S3150800C8200010000020000000001402400020000054
S3150800C8302000000000140240004000002000000014
S3150800C840001402400080000040000000001802406A
S3150800C850010000004000000000180240020000002D
S3150800C86040000000001802400400000040000000DC
S3150800C87000180240080000004000000000180240AE
S3150800C88010000000400000000018024020000000D0
S3150800C8904000000000180240400000004000000070
S3150800C8A00018024000020000400000000018024084
S3150800C8B000040000400000000018024000080000C4
S3150800C8C04000000000180240002000004000000060
S3150800C8D0001802400040000001000000000002406D
S3150800C8E001000000040000000008024001000000EA
S3150800C8F02000000000140240400000002000000054
S3150800C90000140240800000002000000000140240CD
S3150800C9100001000020000000001402400002000090
S3150800C920200000000014024000040000020000007D
S3150800C93000040240800000000200000000040240DB
S3150800C9404000000010000000001002400400000033
S3150800C9501000000000100240100000001000000047
S3150800C96000100240200000001000000000100240E5
S3150800C970400000004000000000180240800000004F
S3150800C98040000000001802400001000040000000BE
S3150800C9900018024000100000400000000018024085
S3150800C9A000800000010000000000024010000000A6
S3150800C9B00200000000040240200000000100000000
S3150800C9C00000024040000000010000000000024094
S3150800C9D02000000008000000000C024001000000D2
S3150800C9E008000000000C02400200000008000000D9
S3150800C9F0000C02400400000008000000000C024081
S3150800CA000800000008000000000C024010000000AA
S3150800CA1008000000000C024020000000080000008A
S3150800CA20000C02404000000008000000000C024014
S3150800CA308000000008000000000C02400001000011
S3150800CA4008000000000C0240000200000800000078
S3150800CA50000C02400004000008000000000C024020
S3150800CA600008000008000000000C0240001000004A
S3150800CA7008000000000C024000200000080000002A
S3150800CA80000C02400040000008000000000C0240B4
S3150800CA9000800000100000000010024001000000A5
S3150800CAA01000000000100240020000001000000004
S3150800CAB000100240080000001000000000100240AC
S3150800CAC08000000010000000001002400001000075
S3150800CAD010000000001002400002000010000000D4
S3150800CAE00010024000040000100000000010024080
S3150800CAF000080000100000000010024000100000AE
S3150800CB001000000000100240002000001000000085
S3150800CB100010024000400000100000000010024013
S3150800CB200080000020000000001402400100000000
S3150800CB30200000000014024002000000200000004F
S3150800CB400014024004000000200000000014024007
S3150800CB500800000020000000001402401000000039
S3150800CB602000000000140240200000002000000001
S3150800CB7000140240000800002000000000140240D3
S3150800CB8000100000200000000014024000200000F1
S3150800CB9020000000001402400040000020000000B1
S3150800CBA00014024000800000400000000018024007
S3150800CBB001000000400000000018024002000000CA
S3150800CBC04000000000180240040000004000000079
S3150800CBD0001802400800000040000000001802404B
S3150800CBE0100000004000000000180240200000006D
S3150800CBF0400000000018024040000000400000000D
S3150800CC000018024000020000400000000018024020
S3150800CC100004000040000000001802400008000060
S3150800CC2040000000001802400020000040000000FC
S3150800CC3000180240004000000400000000080240FE
S3150800CC4000200000000001400100000002011B0056
S3150800CC50000000400100000001021C000004004022
S3150800CC600200000001021D00000800400400000048
S3150800CC7001021E00000401400200000002012E000D
S3150800CC800040014000000100020118000044014074
S3150800CC9000000200020119000048014000000400DB
S3150800CCA002011A00001C00408000000001022C004E
S3150800CCB0002000400001000001022D0010000000C5
S3150800CCC000100240000200000200020001000900F4
S3150800CCD010000000001002400008000104002000B7
S3150800CCE001000B00100000000010024000200002A6
S3150800CCF00800000201000D001000000000100240AC
S3150800CD00004000031000002001000E000100000092
S3150800CD100000024020000100020002000100050098
S3150800CD20010000000000024040000200020002006C
S3150800CD300200060002000000000402402000020172
S3150800CD40040020000200050008000000000C024054
S3150800CD50001003000200020002000C000800000098
S3150800CD60000C0240002003010400200002000D0010
S3150800CD70040000000008024040000400020002000F
S3150800CD8003000600040000000008024080000401B9
S3150800CD9004002000030007001000000000100240F5
S3150800CDA02000050002000200030005001000000034
S3150800CDB000100240400005010400200003000600A0
S3150800CDC02000000000140240400006000200020095
S3150800CDD0030006002000000000140240800007003F
S3150800CDE002000200030007002000000000140240B1
S3150800CDF000010800020002000900080020000000E7
S3150800CE00001402400002090002000200090009009D
S3150800CE10001001401000000002250000020000007A
S3150800CE200004024040000600020000000004024020
S3150800CE3080000700070000000044004000000200D0
S3150800CE400126000008000000000C02402000050032
S3150800CE5008000000000C0240400006000700000021
S3150800CE6000480040000004000127000008000000F8
S3150800CE70000C02400001080008000000000C0240F7
S3150800CE80000209000700000000140140200000000D
S3150800CE9002470000040000000008024040000600A7
S3150800CEA00400000000080240800007000800000097
S3150800CEB056435020436F6E666967000056435020FC
S3150800CEC0496E7465726661636500000053544D6966
S3150800CED063726F656C656374726F6E696373000065
S3150800CEE053544D3332205669727475616C20436F02
S3150800CEF06D506F727420696E204853206D6F64659B
S3150800CF000000000053544D3332205669727475611F
S3150800CF106C20436F6D506F727420696E20465320E3
S3150800CF204D6F6465000000003030303030303030EE
S3150800CF30303530420000000030303030303030308C
S3150800CF4030353043000000000000014001000000B9
S3150800CF5002011B00000000400100000001021C0045
S3150800CF60000400400200000001021D000008004005
S3150800CF700400000001021E00000401400200000037
S3150800CF8002012E00004001400000010002011800C5
S3150800CF900044014000000200020119000048014057
S3150800CFA00000040002011A00001C00408000000076
S3150800CFB001022C00002000400001000001022D00A3
S3150800CFC010000000001002400002000002000200EB
S3150800CFD001000900100000000010024000080001CE
S3150800CFE00400200001000B001000000000100240A1
S3150800CFF0002000020800000201000D0010000000D9
S3150800D00000100240004000031000002001000E003E
S3150800D010010000000000024020000100020002009A
S3150800D0200100050001000000000002404000020067
S3150800D030020002000200060002000000000402408E
S3150800D040200002010400200002000500080000007C
S3150800D050000C0240001003000200020002000C004F
S3150800D06008000000000C0240002003010400200014
S3150800D07002000D0004000000000802404000040001
S3150800D0800200020003000600040000000008024037
S3150800D09080000401040020000300070010000000BF
S3150800D0A000100240200005000200020003000500EF
S3150800D0B01000000000100240400005010400200096
S3150800D0C0030006002000000000140240400006008D
S3150800D0D002000200030006002000000000140240BF
S3150800D0E0800007000200020003000700200000007D
S3150800D0F000140240000108000200020009000800AE
S3150800D100200000000014024000020900020002008C
S3150800D110090009002E2E2F626C6F636B7365742FDE
S3150800D1207274772F53544D33322F7372632F717580
S3150800D1306575652E63000000040404004CD10008E0
S3150800D14054D100085CD100080707070045764368F4
S3150800D1506E6C3100457643686E6C320045764368DE
S3150800D1606E6C3300505050004FBB610567ACDD3F15
S3150800D170182D4454FB21E93F9BF681D20B73EF3FF0
S3150800D180182D4454FB21F93FE2652F227F2B7A3C68
S3150800D190075C143326A6813CBDCBF07A8807703C21
S3150800D1A0075C143326A6913CFB21F93FFB21094075
S3150800D1B07CD91240FB2119407A6A1F407CD922404B
S3150800D1C0BBFD2540FB2129403A462C407A6A2F4070
S3150800D1D05C4731407CD932409C6B3440BBFD3540BE
S3150800D1E0DB8F3740FB2139401BB43A403A463C4076
S3150800D1F05AD83D407A6A3F404C7E40405C474140A1
S3150800D2006C1042407CD942408CA243409C6B4440FF
S3150800D210AC344540BBFD4540CBC64640DB8F474056
S3150800D220EB584840FB21494083F9A200444E6E0062
S3150800D230FC291500D1572700DD34F50062DBC00054
S3150800D2403C999500419043006351FE00BBDEAB005C
S3150800D250B761C5003A6E2400D24D42004906E00087
S3150800D26009EA2E001C92D100EB1DFE0029B11C0014
S3150800D270E83EA700F535820044BB2E009CE98400F1
S3150800D280B4267000417E5F00D69139005383390079
S3150800D2909CF439008B5F840028F9BD00F81F3B0019
S3150800D2A0DEFF97000F980500112FEF000A5A8B0032
S3150800D2B06D1F6D00CF7E360009CB2700464FB7009D
S3150800D2C09E663F002DEA5F00BA277500E5EBC700AA
S3150800D2D03D7BF100F739070092528A00FB6BEA00A2
S3150800D2E01FB15F00085D8D00300356007BFC4600C9
S3150800D2F0F0AB6B0020BCCF0036F49A00E3A91D0002
S3150800D3005E619100081BE60085996500A0145F0020
S3150800D3108D40680080D8FF0027734D00060631004F
S3150800D320CA561500C9A873007BE260006B8CC00062
S3150800D33000000040FB21F93F000000002D44743E28
S3150800D340000000809846F83C0000006051CC783B0D
S3150800D35000000080831BF0390000004020257A3841
S3150800D360000000802282E336000000001DF36935C4
S3150800D3700200000003000000040000000600000090
S31508010000002A2CDD01231A460130C0B2022802D982
S315080100100A700020704791F800C010B5164C0CF014
S31508010020030E04EB8E0E154C1EF80330205C0342BA
S3150801003012D01CF0080F4FEA9C000BD1C40613D44A
S3150801004042EA830213F0380F0A7018BF4FF0FF30E7
S315080100500DD010BD5C07F1D50A70002010BD9217AE
S3150801006002F002021346CFE79806F5D4E8E713F043
S31508010070070018BF012010BD5CC0000858C0000861
S315080100800B78FF2B00D070474B78002BFBD102F081
S31508010090A3BD00BF08B5012001F032FFBDE8084045
S315080100A0024A40F26761002004F0ECBD81000108B4
S315080100B000F0B2B9704700BF2DE9F041224D234A3D
S315080100C095F82930224C1370002B3AD094F849310F
S315080100D00133DBB21F4994F84C210B701E491F4EA0
S315080100E084F849319A420A7094BF4FF001084FF0DB
S315080100F0000817D8737B012B14D0194B94F84B7150
S31508010100D3E900010DF060F8C0B2B84288BF7B1C84
S31508010110144A8CBFDBB2012384F84B3113700023D8
S3150801012084F84931072086F80D8007F033FB00F57E
S315080101307A7081B269800322BDE8F041072007F091
S315080101407DBA94F84931C5E7280300207D020020CD
S3150801015008040020EC02002076060020680600202C
S315080101605800002077060020704700BF2DE9F047A8
S315080101702DED028B537A08EE100A8AB00F460BB1A1
S3150801018000235372D56A2B68012B00F08380002265
S31508010190012305F10C0C4FF07E51AA6029636A63AD
S315080101A060462B602B71242200210DF093F901AED4
S315080101B084460446B04605F12C0920686168A268A0
S315080101C0E3681034C6464C45AEE80F0008F110083E
S315080101D0F3D1DFED547A2068C8F8000038EE277AA3
S315080101E0F0EE676AC7ED007A4FF00009F7EE007A7C
S315080101F00AAB03EB890313ED096A37EE066A4FEA80
S315080102008909F2EE025A09F12803F4EE657A0DEB33
S315080102100309F1EE10FA09ED098A71D0F7EE005AD1
S3150801022077EEA57A0DF12408F5EE406AF1EE10FA9B
S3150801023005D1B2EE045AC6EE055AC7ED005A85ED48
S31508010240027A3446A646BEE80F00C6450CF1100CE4
S3150801025074464CF8100C4CF80C1C4CF8082C4CF84D
S31508010260043CEFD1F5EEC06ADEF80000CCF80000D8
S31508010270F1EE10FAC5ED0C7AC6BFF7EE007A76EE06
S31508010280E76ADFED286AC5ED0D6A0AB0BDEC028B97
S31508010290BDE8F087D5ED0C7AD5ED0D6ABDEEE77AA6
S315080102A005F10C0C17EE109A01AE95ED027A09F1DB
S315080102B0FF39E646B04605F12C0ADEF80000DEF8FD
S315080102C00410DEF80820DEF80C300EF1100E444654
S315080102D0D6450FC408F11008EFD19FED126ADEF872
S315080102E00000C8F80000F4EE466AF1EE10FA37EE9F
S315080102F0087A87ED006A3FF47BAF4FEA890980E700
S315080103000DF12408434673ED017A93ED017A77EEF0
S31508010310877A9E42C3ED007AF5D19FED027AF7EE10
S31508010320007A81E7000000002DE9F0470D9EDDE91E
S315080103300B57044610B13078012802D13470BDE854
S31508010340F08792F80080089A85F8008092F800E014
S315080103504FEA4E0E5FFA8EFE85F80FE03A78920064
S31508010360D2B22A747878C000C0B2A87397F802C0CE
S315080103704FEA0C1C5FFA8CFC85F80DC000EB0209EC
S31508010380F8784001C0B2287397F804A04FEA8A1A90
S315080103905FFA8AFA85F80BA07A79D201D2B2AA72E3
S315080103A01B789944CC4460448244524472440A9B63
S315080103B05FFA82FA85F801A01F88099A3F0A2F81F8
S315080103C0FFB2AF7093F800E0099B85F803E0B3F834
S315080103D000C0104B4FEA1C2CA5F806C05FFA8CFC2E
S315080103E085F804C092F8009085F80590002083F8F6
S315080103F000C0082283F801909F7083F803E083F810
S31508010400048083F806A05871D87104F0C7F93470CE
S31508010410BDE8F087C00200202DE9F04F2DED088BCD
S31508010420C44C9DB0D4E92401002200230CF072FECD
S31508010430002840F0B28794F86B31002B40F05087C2
S3150801044094F84831002B00F05287BB4DFF2395F8ED
S3150801045022A084F84531B94984F848A1D1E90001B7
S31508010460002200230CF056FE18B9BAF1010F01F06B
S315080104707C8194F8513100229B1A099218BF0123F5
S31508010480089285F82930AE4B1B7807EE903AF8EEBC
S31508010490E77AB1EE047AF4EE477AF1EE10FA00F053
S315080104A00B82B2EE047AF4EE477AF1EE10FA00F016
S315080104B00382DFF8D8B200238BF80C30A14E8BF8F3
S315080104C00B303378DFF8C882002B00F0638607EE1D
S315080104D090AA9B4BF8EEE77A1B78F0EE006A07EED6
S315080104E0103AF4EE667A0126F1EE10FAB8EEC77AFA
S315080104F084F8626100F03C87B7EE006AF4EE467A4A
S31508010500F1EE10FA41F0F98194F86A6116B1002604
S3150801051084F86A61B4EE667AF1EE10FA40F04A8719
S315080105209BF80A20012A41F09082F7EE006AF4EE60
S31508010530667AF1EE10FA8BF80A2000F03E87F0EEA3
S31508010540087AB4EE677AF1EE10FA41F0E781002EE7
S3150801055041F0B1847C4B00967C4F1968012384F8DD
S31508010560693132463B46304604F048FB002841F3E0
S3150801057039847B7885F8CE30BB7885F8CF30FB781F
S3150801058085F8D030BB7985F8D1303B7885F8CD3000
S315080105906B4B94F848A11B780022BAF1010F8BF82E
S315080105A0092000F03087012B01F0A88394F868210F
S315080105B0002A41F06182664900220A7007EE903AE4
S315080105C0B8EEE77A07EE90AAF8EEE76AF1EE087A4E
S315080105D0B4EE677AF1EE10FA8BF8072000F043873C
S315080105E094F86731002B41F04C825A4E002031684D
S315080105F0594B5A4E05935A4B0493A6F10E09594B7A
S31508010600039306F17B0706F17A030296CDF8049067
S31508010610009706F16D02FFF787FE494B1B7808EE36
S31508010620103A94F84831B8EEC88AF1EE0C7A07EE1A
S31508010630103AB4EE678AF1EE10FAF8EEC78A41F07D
S315080106407280F0EE087AF4EE678AF1EE10FA0CBFC2
S3150801065001200020444A0592CDE90196434A444BBC
S315080106600492444E444A03920097A3F10D0231685D
S31508010670FFF75AFE324B1B7807EE903A94F8483149
S31508010680F8EEE77AF1EE006A07EE103AF4EE667ACA
S31508010690F1EE10FAB8EEC77A40F03187F7EE007A34
S315080106A0B4EE677AF1EE10FA01F06281334B344FFA
S315080106B019680022012384F8663100923B461046E8
S315080106C004F09CFA002841F381833B787878BA785C
S315080106D0F978BF7985F8893085F88A0085F88B20FD
S315080106E085F88C1085F88D701B021844A5F88E3094
S315080106F0244B12021880244BA5F890201144198026
S315080107007B0885F8883085F88130BB0885F88730FD
S31508010710FB0885F886303B0985F885307B0985F81D
S315080107208430BB09FF0985F8833085F88270002378
S3150801073030E000BF0804002028030020080000203C
S31508010740770600207D020020200000208802002074
S315080107507A0200202C0000206E060020E404002006
S315080107603EC00008CC0300206D06002038C00008F2
S315080107705E05002030000020BA0300202800002072
S31508010780980200200C0300200E03002068060020B2
S3150801079060060020F1EE0C7AB4EE678AF1EE10FAE3
S315080107A08BF8043007D1F0EE087AF4EE678AF1EE99
S315080107B010FA41F0758194F8653113B1002384F874
S315080107C06531374B94F848A11B7807EE903AF8EE55
S315080107D0E77AF2EE006A07EE10AAF4EE667AF1EE0F
S315080107E010FAB8EEC77A00F0218794F86431002B25
S315080107F041F051810023F2EE026AF4EE667AF1EED7
S3150801080010FA8BF8033000F0848694F86331002BD4
S3150801081041F03C8100238BF80230089B53B19BF8C9
S315080108200130012B06D01F4B1B7884F84C3100236D
S3150801083084F84931099B8BF80130BAF1010F04D9C3
S3150801084094F85121002A00F0718794F86131002B40
S3150801085040F0D984BAF1030F40F2DC84FF2384F80F
S31508010860463102F0BBF9104B187002F0BDF90F4B77
S3150801087002460F481A6002F0B9F9D8F800300D4A55
S3150801088001331060C8F8003023B9D8F804300133B1
S31508010890C8F804301DB0BDEC088BBDE8F08F00BF69
S315080108A077060020680000206A0200206C020020FA
S315080108B0ACC0000870020020DFF8CCB39BF80C30FE
S315080108C0012B00F02282D4E92601DB4BC3E90001A2
S315080108D00AF018FDD94BD3E904230CF0B3F9002229
S315080108E0D74B0CF0AFF9D74BB4F8DE6041EC1B0BD4
S315080108F0B4F8E0001880D44B301A1E80D34B80B26E
S3150801090018800CF025F9804689460AF0B1FC0246A2
S315080109100B464046494643EC1A2B0AF0D9FBCC4B09
S3150801092041EC190B002251EC1B0B0CF08BF953EC23
S315080109301A2B0CF087F9C74B80468946002251ECE1
S31508010940190B0CF07FF902460B46404649460BF057
S31508010950C3FF02460B46304643EC182B0CF0F8F859
S3150801096002460B46002000210BF0B4FFBA4B804625
S315080109708946C3E9008951EC190BB54B00220CF0E5
S3150801098061F953EC1B2B0CF05DF9B24B06460F4689
S31508010990002251EC1A0B0CF055F902460B4630466B
S315080109A039460BF097FFA54B0F4619460646D3E97C
S315080109B00223D1E900010CF045F932463B460CF019
S315080109C041F906460F46404649460AF051FC024699
S315080109D00B464046494643EC192B0AF079FB00229F
S315080109E041EC1A0B002351EC180B0CF09DFB002867
S315080109F040F0D88651EC180B002200230CF0B2FB0C
S31508010A004FF00008002801F0C681DFF88092904B6C
S31508010A10B0EE4ABAF0EE6ABA51EC1A0B00220CF0A3
S31508010A2011F932463B460CF00DF947EC1A6B53ECBB
S31508010A30192B06460F4651EC180B0CF003F9024622
S31508010A400B46304639460BF045FF7C4B0646D3E943
S31508010A5006230F46404649460CF0F4F802460B4673
S31508010A60304639460CF0EEF87C4B00220CF0EAF8D9
S31508010A70774B80468946002251EC1A0B0CF0E2F8B6
S31508010A8053EC192B0CF0DEF853EC1B2B06460F46DC
S31508010A9051EC180B0CF0D6F802460B46304639468F
S31508010AA00BF01AFF02460B46404649460CF0F4F98C
S31508010AB00CF0AAFB0CF06EF80AF07EF90CF0A4FB18
S31508010AC09FED677A674B07EE900A67EE877A18609B
S31508010AD017EE900A0CF05EF8634B80468946C3E927
S31508010AE00089D4F8BC000CF043F84FA3D3E90023DE
S31508010AF00CF0A8F85D4B06460F4640464946C3E941
S31508010B0000670AF039FB02460B4630463946164657
S31508010B101F460AF031FB02460B46304639460BF0B2
S31508010B20D9FE94ED1E7B524A524BB0EE478AF0EE3F
S31508010B30678A8046894621F00047C2E90089B0EEF6
S31508010B4047AAF0EE67AAD3E90023394606460CF010
S31508010B5079F853EC182B0BF0BFFE02460B4643EC13
S31508010B60182B33A3D3E90023B0EE489AF0EE689A1E
S31508010B700CF0F8FA002841F0938051EC180B00228A
S31508010B8000230CF0D1FA002841F0098151EC180B29
S31508010B900CF01AFB00F5FA7083B2374A3749A4F804
S31508010BA0D0300B8092ED008B002300224946404647
S31508010BB00CF0D8FA324B021E18BF01221A7007929E
S31508010BC051EC180B32463B460CF0AEFA002801F000
S31508010BD0528040464946002200230CF0C3FA0028F9
S31508010BE001F0D080274B4FF0000883F800800123DD
S31508010BF084F8523184F8538159EC198B0CA3D3E943
S31508010C00002319EE100A49460CF0ACFA002801F047
S31508010C101E8019EE100A06A3D3E9002349460BF0F4
S31508010C2059FE41EC190B33E0000080999999B93FB7
S31508010C300000000000C072402003002000C0000828
S31508010C400000D03F820600208006002068020020AE
S31508010C50000010400000E03F60020020000008404C
S31508010C6066663642DC020020780600200003002072
S31508010C70D00200206000002040000020F40200207D
S31508010C80D8020020C8020020680600200000F03FB4
S31508010C90CF4B3046D3E9002339460BF0D3FF002268
S31508010CA0002306460F4651EC190B0CF05BFA00229D
S31508010CB00023002801F0B480304639460CF052FA78
S31508010CC0002841F0BD8032463B4651EC1A0B0BF029
S31508010CD003FEDFF84C934FF0000842464B460646A2
S31508010CE00F460CF035FA002840F04C874FF0000803
S31508010CF04FF000093046394642464B460CF01EFA7B
S31508010D00002840F03F87C4E91E679BF80B30012293
S31508010D1093428BF80C203FF4D1ABDFF80883D4F863
S31508010D20C030D8F80020AB49C4F8C020D21A94F8CC
S31508010D30E430A9480B70D8F80410A84EC4F8C410BA
S31508010D4094F8E610A64F017094F8EF00DFF8D8C2C0
S31508010D50307094F8FF603E7094F818718CF8007042
S31508010D6063B1002901F00B80002801F09680002E5E
S31508010D7001F0B580002F0CBF00230423994994F88C
S31508010D805F010B441B5C0D93002B40F0F384DDF8E7
S31508010D9034A0954BB4F8DA6083F800A0934BB4F805
S31508010DA0D8001E80924B84F856A11880331A1BB2BC
S31508010DB0002BBCBF831B1BB2B3F5FA7F0A9640F31F
S31508010DC01E8794F83B31002B0CBF002304231944DA
S31508010DD094F86031CB5C0F9384F85731D4F8BC3062
S31508010DE00E931846D4F8A030B4F8C810A4F8D81051
S31508010DF0834200F05987002307930A98B4F8CC3048
S31508010E004FF47A7100FB01F1B1FBF2F292B2D31AF7
S31508010E109BB208EE103A1092764B18EE102A1A80F9
S31508010E20637A94F85C2111920BB100236372D4F8AA
S31508010E302C90D9F80030012B00F06E860023C9F8F2
S31508010E400830C9F834300123C9F8003089F804306C
S31508010E504FF07E5209F10C03C9F8302000212422F3
S31508010E6018460CF037FB0DF14C0C0C900646E6467D
S31508010E7009F12C0A30687168B268F36877460FC7BA
S31508010E8010365645BE46F5D1DFED5B5A5B4A3068EA
S31508010E903860F8EE487A002337EEA56AF0EE656AFF
S31508010EA0B7EE007AC2ED005A0B930B991CAB03EB14
S31508010EB0810353ED095A76EE255A4FEA810A0AF15A
S31508010EC070030DEB030A4AED097AF2EE027AB4EEE3
S31508010ED0677AF1EE10FA00F0A886F7EE007A37EE97
S31508010EE0277A1BAFF5EE406AF1EE10FA05D1B2EE9C
S31508010EF0045AC5EE857AC2ED007A0C9E89ED026A1E
S31508010F00E646BEE80F00BE4506F110060CF1100CC8
S31508010F1046F8100C46F80C1C46F8082C46F8043C12
S31508010F20EED1F5EEC06AF1EE10FAC6BFF7EE007A19
S31508010F3076EEE76ADFED306ADCF80000306089EDAD
S31508010F400C7AC9ED0D6A94F8593194F855212C4E4D
S31508010F5013430CBFB4F8D630B4F8D2304FF28A42F4
S31508010F6002FB03F39B0D00210420A4F8DE3001F0F7
S31508010F706FFB07EE900AF8EE677A224A224930801B
S31508010F8017EE900AFFF7F2F8D5ED377A3388A4F809
S31508010F90DA30FCEEE77A1D4A17EE903A00219BB249
S31508010FA005201380A4F8CE3001F052FB07EE900A13
S31508010FB0174B18491880F8EE677A174A17EE900A00
S31508010FC0FFF7D4F8D5ED367A144AFCEEE77A2DE028
S31508010FD050000020EE020020EF020020F00200205F
S31508010FE0F102002048C00008F60200201C03002078
S31508010FF0EA020020E002002000000000E4020020CE
S3150801100076020020E8050020040400200A030020D7
S315080110107802002000040020740500201003002037
S315080110200000594060060020F2020020472017EE12
S31508011030903A9BB21380A4F8DC3005F0E9FCBE4B6C
S3150801104084F84A011B7884F85C31BC4BD3E900016A
S31508011050B7A3D3E900230BF0F5FD95F82A30C4E9C7
S315080110602601002B40F07686012005F01FF9B44BC6
S31508011070C4F8BC00186000220023D4E91C010CF056
S3150801108053F8B04E0038337818BF012085F82A0086
S31508011090002B00F0BD85B4F8D03094F852712B803E
S315080110A094F8533185F82B7085F82C3094F848312B
S315080110B0A549013B18BF012385F82D3094F8E53081
S315080110C084F8E4300822079B84F8E530481E0CF0C2
S315080110D085F99E49079B84F8EE300F22481E0CF0CD
S315080110E07DF99B49079B84F8FE301822481E0CF0AF
S315080110F075F99849079B84F817312222481E0CF086
S315080111006DF99549079B84F83A3109220D9B84F8B4
S315080111105F31481E0CF062F99049119B84F84431FD
S3150801112018220F9B84F86031081F0CF057F90E9BA3
S31508011130C4F8B830109BA4F8CC30B4F8CA30A4F877
S31508011140C8300A9BA4F8CA3000220023C4E91C232C
S31508011150002F40F0578539460A2005F0A7FC95F877
S315080111602C1001B101210B2005F0A0FC29881020C3
S3150801117005F02AFB95F82D1001B10121472005F04C
S3150801118095FC01238BF80B30337894F848A1002B92
S315080111907FF49DA994F86221002A3FF43EAB94F8A6
S315080111A06A210AB184F86A3194F8693113B10023C6
S315080111B084F8693194F8683113B1002384F86831E9
S315080111C094F8673113B1002384F8673194F86631CE
S315080111D013B1002384F8663194F8653113B10023FD
S315080111E084F8653194F8643113B1002384F86431C5
S315080111F094F8633113B1002384F86331002384F82A
S315080112006231FFF70ABB0023BAF1030F84F8613193
S315080112103FF624AB94F84D3194F84E11504A012B00
S3150801122028BF0123012994BF5B18013347200021F8
S3150801123084F84611137005F0EBFB002800F0A28232
S3150801124094F84F21474B002AD3E900014FF00002D9
S315080112504FF0000314BF022600260BF05BFFB0FA1D
S3150801126080F04009404994F85D21831901EB430355
S3150801127007469E5C94F84E31012B00F0E585002E59
S3150801128040F0FF853246334685F8232095F8272016
S3150801129052001A4494F85031C2F3470285F82520C2
S315080112A003B1871C94F85E3101EB4701C95C94F8D8
S315080112B04D31012B00F0D785002940F0E6850B4614
S315080112C0084685F8243095F828305B000344C3F3B3
S315080112D0470384F85D6184F85E1185F8263055E286
S315080112E094F8483184F86B01002B7FF4AEA80E20E0
S315080112F084F8453105F08CFB8246BAF1000A4FF0B5
S315080113000F0018BF4FF0010A05F082FB08B10AF178
S31508011310020A102005F07CFB18B10AF1040A5FFAEB
S315080113208AFA124D85F822A0FFF795B8AFF3008027
S31508011330000000401BB98E3FE8020020480000204B
S31508011340F80200207D020020EF040020F8040020A6
S31508011350080500202105002044050020AC040020D2
S31508011360740200201800002048C000082803002045
S3150801137094F85B21002A00F0C082B4EE667AF1EE99
S3150801138010FA40F03E8594F86A21002A3FF4C8A86D
S31508011390002284F86A21FFF7C3B8974F0026012176
S315080113A003220720C4E9246784F86B1106F046F97D
S315080113B0FFF746B800268BF80A6094F86921F0EE23
S315080113C0087A12B1002284F86921B4EE677AF1EE3F
S315080113D010FA7FF4E1A89BF80920012A3FF4DDA859
S315080113E0864B874A002011681870012203F0D6F946
S315080113F094F848A1834B0122BAF1010F1B788BF8A7
S3150801140009207FF4D0A894F8682112B1002284F843
S315080114106821012B7FF4CFA89BF807207A4E01217A
S315080114208A4231703FF4CAA8B4F8E220774F734B69
S315080114303A8001325970A4F8E220754994F84C2192
S315080114401A70002085F821204FF080725A60588062
S315080114500822096803F0A2F96A4B32781B7894F8D6
S3150801146048A1FFF7ABB8F0EE007AF4EE676AF1EE41
S3150801147010FA00F038820022664F674E0092012367
S3150801148084F8673131683B46104603F0B7FB0028FC
S3150801149040F389843B787878BA78F978BF7985F802
S315080114A0BE3085F8BF0085F8C02085F8C11085F8DB
S315080114B0C2701B021844A5F8C430584B1202188092
S315080114C0574BA5F8C620114419807B0885F8BD300D
S315080114D085F8B630BB0885F8BC30FB0885F8BB3003
S315080114E03B0985F8BA307B0985F8B930BB09FF098C
S315080114F085F8B83085F8B7700020FFF778B894F802
S315080115006631002B3FF413A9002384F86631FFF7EF
S315080115100EB9F1EE047AB4EE677AF1EE10FA40F0FC
S315080115209D8194F8633113B1002384F863319BF8E4
S315080115300230012B3FF46FA93A4994F8570191F803
S31508011540223091F8232091F8286040009B00DBB2F5
S31508011550C0B285F83D0085F83E30184491F824302C
S31508011560D2003044D2B21B0185F83C20DBB20244DA
S3150801157085F83B30134491F82520B4F8CE002A4E5D
S315080115805201D2B2134485F83A2091F8262091F8EF
S3150801159027109201D2B2C901C9B2134485F839207C
S315080115A0CA18B4F8DC302B721B0AEB86EB71B4F857
S315080115B0CE3085F83810AB72B4F8DC101B0AAB864E
S315080115C06B720E4B49BA40BA1880598094F8490192
S315080115D094F84A116971D2B2AA712871187100205A
S315080115E059719A71D8713168082203F0D7F894F8BD
S315080115F048A10123FFF70FB90000F03FC002002000
S3150801160020000020770600207A02002084060020A8
S3150801161024000020A00200202C0000201203002034
S315080116201403002000C0000838000020F1EE006A0B
S31508011630B4EE667AF1EE10FA40F0BA8094F86431A5
S3150801164013B1002384F864319BF80330012B3FF46E
S31508011650D2A8B74994F8572191F8293091F82F6003
S3150801166052009B00D2B2DBB2981885F8552091F842
S315080116702A2085F8563091F82B30D200D2B2304460
S315080116801B0185F85420DBB2024485F85330134414
S3150801169091F82C20B4F8DC005201D2B2134485F833
S315080116A0522091F82D2091F82E109201D2B2C9013B
S315080116B0C9B2134485F85120CA18B4F8DC3085F844
S315080116C050101B0AA5F84E30B4F8CE30B4F8CE1037
S315080116D01B0AA5F84C30974B40BA49BA198058806D
S315080116E06882A982944894F849111971D2B2E973AA
S315080116F094F84A1159716A7429749A71016800201B
S31508011700D871082203F04AF88C4B94F848A11B7843
S3150801171007EE10AA07EE903AB8EEC77AF8EEE77A1E
S315080117200123FFF768B80020FEF794BF844E854968
S315080117300092012384F8613110460968334603F0A3
S315080117405DFA021E06DD73882B86B37985F8323079
S315080117503388EB857C490120FEF752FC002840F0CE
S31508011760FE8294F848A1FFF775B8CDE908AA534651
S31508011770FEF787BEAAF1010ABAFA8AFA4FEA5A1A95
S31508011780FFF707BB95F8252095F826306F4992098A
S315080117900A706F4984F84D219B090B7084F84E3104
S315080117A0FFF75FB8DFF8C4914FF00008FFF72FB9CC
S315080117B0614B684E19680022012384F8643100924E
S315080117C03346104603F01AFA002840F31183624A99
S315080117D096F805C033787778B178F07882F800C042
S315080117E0B279AB75EF7529766876AA761B021F441E
S315080117F0A5F86030530885F85E3085F85730003B08
S3150801180018BF01234D4E84F858319308367894F859
S3150801181048A185F85D30D30885F85C3013090902BB
S3150801182007EE906A07EE10AA85F85B30530908445B
S3150801183085F85A309309D209F8EEE77AB8EEC77AED
S3150801184084F850C1A4F8D470A5F86210A4F8D6009B
S3150801185085F8593085F85820FEF7CCBF3F4B404EE6
S3150801186019680022012384F8633100923346104631
S3150801187003F0C4F9002840F3A2823A497379327811
S315080118807778B0780B70B179EA722F736873A97398
S3150801189084F84F3113021F44A5F848304B0885F8E0
S315080118A0463085F83F30003B18BF012384F859318B
S315080118B08B0885F84530CB0885F844300B0985F83F
S315080118C043304B09000285F842308B09C90994F85F
S315080118D048A1A4F8D270A5F84A0085F8413085F8E0
S315080118E04010FEF797BF94F8673113B1002384F8C7
S315080118F067311D4E0120FEF77ABEF0EE006AB4EE9E
S31508011900667AF1EE10FA00F0498194F86A6116B127
S31508011910002684F86A610022FEF707BE94F8692159
S31508011920002A3EF439AE002284F86921FEF734BE56
S3150801193000C00008C00200203400002077060020FD
S3150801194090020020240000206806002009030020D8
S3150801195008030020B00200207B0200203800002086
S31508011960B80200207C0200202C0000200000F0BFF5
S3150801197094F86631002B40F08C829BF80430012BD9
S315080119803EF408AFCE4A94F8571192F8303092F8DF
S3150801199031704FEA410C9B00DBB25FFA8CFC03EB1A
S315080119A00C0085F87FC094F856C185F88030FF0091
S315080119B092F832306044FFB285F87E70074492F897
S315080119C033001B01DBB24001C0B285F87D303B44D0
S315080119D0034485F87C0092F8340092F83520B4F86F
S315080119E0CE708001C0B2D201D2B20344134485F845
S315080119F07A20DAB2B4F8DC30AB771B0AA5F878306E
S31508011A006B77B4F8CE3085F87B0085F82030B4F8CA
S31508011A10DC002A771B0AA5F87630EB77A94B40BA82
S31508011A2058807FBAA8481F80A84F017094F84911B9
S31508011A3019710020E97658719A71D87139680822A6
S31508011A4002F0ACFE0123FEF7A5BE9E4BA04A00207C
S31508011A5011681870012202F0A1FE9E4B94F848A164
S31508011A601B7807EE903AB8EEE77A07EE90AA0122BC
S31508011A70F8EEE77AFEF759BD002284F86821FEF7E9
S31508011A809ABD002384F86731FEF7AFBD002384F8B9
S31508011A906331FEF7BFBE002384F86431FEF7AABEA0
S31508011AA031688D4E0022012384F865310092334650
S31508011AB0104603F0A3F8002840F3F2813368B2799F
S31508011AC031787078EB66B378F67885F87020090274
S31508011AD01B020844A5F87210A5F8743099197F4BB2
S31508011AE018807F4B1980530885F86B3085F8643068
S31508011AF0930885F86A30D30885F86930130985F89B
S31508011B006830530985F867309309D20985F8663034
S31508011B1085F86520FEF755BE99ED0C7A99ED026AAE
S31508011B20D9ED0D6AFDEEC77A0DF14C0C17EE90AAA8
S31508011B300AF1FF330B9309F10C030C931E46E64693
S31508011B4009F12C0A30687168B268F36877460FC7DD
S31508011B5010365645BE46F5D1DFED625A624A3068FF
S31508011B603860F8EE487AF4EE656AF1EE10FA37EE67
S31508011B70866AC2ED005A3FF498A90B9B4FEA830A7D
S31508011B80FFF79DB99BF80B3001229342C4E91E89E0
S31508011B908BF80C207FF4C1A8FEF790BC94F85A3153
S31508011BA04B4A524F1168524A013B18BF012300267E
S31508011BB084F85B3100961370012384F86A31324642
S31508011BC03B46304684F85A6103F018F8414B94F8BD
S31508011BD048A11B7807EE903AB8EEE77A07EE90AA85
S31508011BE0B042F8EEE77A7FF796AE7A88A5F8D42060
S31508011BF0BA7985F8D6203A88A5F8D2208BE600234B
S31508011C00FFF7E5B801210A2004F050FFFFF7A7BA4C
S31508011C102B4B1A8C93F8367093F837302A8085F84F
S31508011C202C3085F82B70FFF741BA1BAF3B4673ED95
S31508011C30017A93ED017A77EE877A9C45C3ED007AAE
S31508011C40F5D19FED286AB7EE007AFFF74BB951EC4B
S31508011C50190B002200230BF07BFA00283FF418A881
S31508011C60244B30463946D3E900230AF0EBFF0646F2
S31508011C700F46FFF728B8079B83F001081E4B83F828
S31508011C800080002384F8523151EC180B32463B464A
S31508011C900BF04AFA002808BF4FF00008FEF7AABF62
S31508011CA04FF44873FEF779BFB4F8D01040F28A238F
S31508011CB0994294BF002301230793FFF79EB800BFFB
S31508011CC000C00008C00200201A03002028000020D6
S31508011CD01000002077060020A80200201603002025
S31508011CE01803002000000000E40200208002002002
S31508011CF0ED02002050000020C8020020002E40F00E
S31508011D00E48084F86831774F774B00961968324634
S31508011D103B46304602F072FF021E05DDBB7985F8A7
S31508011D20CC303B68C5F8C83070490120FEF768F920
S31508011D3050B1012384F8493184F84B3184F85A317A
S31508011D4095F8C83084F84C31694B94F848A11B784A
S31508011D50FEF731BC012004F0B9FAFFF785B995F809
S31508011D602E2084F84C210123002294F848A184F8F6
S31508011D70492184F8513184F84B31FEF76BBD0B4686
S31508011D80FEF7FCBF5B4B84F852014FF0010883F85C
S31508011D900080FEF72FBF4FF00009FEF738BE4FF45B
S31508011DA0FA73FEF7FABE95F8BE3095F8BF0095F8B6
S31508011DB0C02095F8C11095F8C270FFF77ABB4E4B53
S31508011DC0EA7A1B782F7B687BA97B61E595F88930D0
S31508011DD095F88A0095F88B2095F88C1095F88D70F2
S31508011DE0FEF782BC424B94F848A11B78FEF7D4BB98
S31508011DF0424BEF7D93F800C0297EAB7D687EAA7EB3
S31508011E00F4E494F86A21002A3FF485ADB4EE667AC3
S31508011E100022F1EE10FA84F86A213EF481AB7AE5E4
S31508011E20304639460BF09EF900287EF44CAF51EC4A
S31508011E30190B002200230BF06DF900287EF443AF3D
S31508011E4000260027FEF73FBF002E0CBF334680232E
S31508011E5085F8273008BF324695F8233018BF4FF466
S31508011E608072FFF716BA00290CBF0B46802385F846
S31508011E70283095F824000CBF0B464FF48073FFF702
S31508011E8025BA80231A46FFF7FFB980200346FFF7D4
S31508011E9018BA002384F866316FE50346FEF76EBF6C
S31508011EA095F86C1095F86D0095F86E3095F86F6099
S31508011EB095F870200BE694F86921002A3FF48BAA5D
S31508011EC0002284F86921FFF786BA94F86821002A66
S31508011ED03FF4A2AA002284F86821FFF79DBA334687
S31508011EE0FEF74CBF90020020240000207006002057
S31508011EF077060020C80200207C0200207B02002011
S31508011F00F0B5082185B0402002F084F90020854CFF
S31508011F1002F000FE8449032005F0D4FAFF270221C6
S31508011F200E2084F8457104F03DFD02210F2004F0CE
S31508011F3039FD0221102004F035FD7C49072005F002
S31508011F4057FC2346002543F8385F0126C4E90C6689
S31508011F50E3622946666026810420257000F0F6FAB8
S31508011F6004F50673C4E9846684F85062C4F80C3231
S31508011F702946C4F8E461A4F8E861052084F8E0512B
S31508011F80C4F8185200F0E2FA04F5D273C4F898318D
S31508011F90C4E9676684F8DC610221C4F87061A4F8B3
S31508011FA07461472084F86C51C4F8A45104F0FAFC12
S31508011FB03046294604F0F2F831460A2004F044FD79
S31508011FC031460B2004F040FD3146472004F03CFD24
S31508011FD02A4642F60D01092004F094FA5449554E51
S31508011FE0092004F037FC2A462946102004F01CFB78
S31508011FF0514B2846196802F0D5FD504B28461968F9
S3150801200002F0D0FD3168284602F0CCFD4C4B28463B
S31508012010196802F0C7FD4B4B2846196802F0C2FD44
S31508012020494B2846196802F0BDFD484B28461968F0
S3150801203002F0B8FD464B2846196802F0B3FD31682F
S31508012040284602F0AFFD0221472084F8467104F0C4
S31508012050A9FC4FF4197000F0CDFB4FF47A7000F02B
S31508012060BDFB642000F046FB2F498DF80C5001AAF0
S315080120702846CDE9015502F05BF9012804D0354817
S3150801208040F6EE6100F02AFE3349032005F09EFB77
S3150801209002F0ACFE02F0B4FE304B314A31499A6087
S315080120A04FF00130C3E9002040F201109881012266
S315080120B0E56A2D4B0A702A68D3E90013012AC4E997
S315080120C030130BD100262422AE60002105F10C0045
S315080120D00BF000FA4FF07E532B636E63D4F80C5263
S315080120E02B68012B0BD100262422AE60002105F1B5
S315080120F00C000BF0EFF94FF07E532B636E63D4F8A7
S3150801210098412368012B0BD100252422A5600021C3
S3150801211004F10C000BF0DEF94FF07E53236365637F
S3150801212005B0F0BD0804002040420F00B9000108BF
S31508012130B50001082400002010000020200000201E
S315080121402C00002028000020300000203400002048
S3150801215038000020B8C00008690101086806002097
S3150801216003010101E802002060060020454B1B78A7
S31508012170012B00D070472DE9F041434A1378012B12
S3150801218096B005D0414803F06FFB16B0BDE8F08163
S315080121903F4E0024334614705A78E5B203331AB118
S315080121A001340A2CF8D125463A4803F049FE4FF086
S315080121B080603949394A07904FF480634FF40060CB
S315080121C008914FF4005100270B94099201244FF40A
S315080121D080720D930E904FF480330F912D48109213
S315080121E007A911930A970C971297CDE914771394B7
S315080121F003F0BCFE2146274803F0E4FE03F09CFAEF
S3150801220001A9224801978DF808408DF80970CDE992
S31508012210037705978DF8185003F09CFABDB1013D77
S31508012220EDB2DFF88080194F023504EB44023244DF
S31508012230032312F8032C02EB420208EB820138460B
S31508012240E2B2897A013403F0C9FAAC42EDD1002031
S3150801225003F0C2FE012003F0CDFE012003F0D8FEF3
S315080122600F4A0A48136843F400531360012103F027
S315080122700BFB0121054803F0FDFA0121034803F090
S31508012280A3FA7FE7710000207000002000220140B8
S3150801229088060020106402404C220140A80600204E
S315080122A000700040DCC000082DE9F04FA34B1B6805
S315080122B097B0002B00F0F180A14B019303F11E09A1
S315080122C09F4DCDF8009004E0009B03359D4200F038
S315080122D0B880AB78002BF7D06B78002BF4D0994BEC
S315080122E01B78002BF0D0954A95F800801768013BBA
S315080122F0DBB207F14C064C2212FB0369AA4604E03D
S31508012300B145374600F097804C3639784145F7D1C3
S31508012310019B002404E001340A2C03F1030305D0D0
S315080123205A78012AF7D11A788A42F4D14C223946C9
S3150801233003A80AF0B9FFB86C049A7D6CC30602F0CB
S3150801234078418B4200F08E804FF0000C9B4600E0EE
S315080123508C460CF10101C9B216AB03EB810353F8A4
S31508012360483C03F0784EF345F2D10CF1020C0B29E7
S315080123709E465FFA8CFC5B4669D90E2910D80FFA7E
S315080123808CF103AA02EB810100E094464A6841F800
S31508012390042BBCF10E0F0CF10102D2B2F5D9049A45
S315080123A0694931F814C022F07842CCF30B0C6FF06E
S315080123B078419445139160D900240134E4B216AAF0
S315080123C002EB8402A64652F8482C22F0784294453C
S315080123D0F3D80B2C38D8032C0F9A98BF079922F0FB
S315080123E07842A5EB020296BF21F078410CEB020573
S315080123F08D18C4F10E0412AAE4B2A2EB840413AA3E
S3150801240052F8041D51609442FAD1441C16AA102CA4
S3150801241002EB8E0E28BF002443EA0C03384603A9B3
S315080124204C224EF8483CCDE914540AF03DFFB1451B
S3150801243037467FF469AF5546009B03359D427FF4C5
S3150801244048AF17B0BDE8F08F0E2CD2D9DDE7109A48
S31508012450032922F0784215441AD92EF0784EA5EBB5
S315080124600E058CE7109A089922F07842154421F056
S3150801247078416D1A4FF0010C81E70F9A079922F0FE
S315080124807842AD1A21F0784100240D44A646B0E7FA
S31508012490089921F078416D1A71E72A4E337803EBD2
S315080124A0C30203EB4203980000F04CFA234B804623
S315080124B01860234B002837D01A4601931546034660
S315080124C002F11E0914AC212703E003354D453FF4FB
S315080124D0F7AEAA78002AF8D095F800C004A9002218
S315080124E041F8042BA14202F10062F9D14C2203A959
S315080124F018468DF80CC014970AF0D6FE327802EB0E
S31508012500C201034602EB41024C3308EB82029342B5
S31508012510DBD90122142142F2030002F063FE074BC4
S31508012520186800F07BFACBE60122142142F2020078
S31508012530019303F11E0902F055FEC1E6BC0600200F
S315080125408806002002000020A80600202DE9F04395
S31508012550092885B006460D4668D838480478F4B97E
S31508012560374A384B012702F11401077022F8024B4A
S315080125708A425C709C7003F10303F7D101214FF481
S31508012580800003F0C3FD4FF48060012103F0E2FDF2
S315080125906846CDE90044CDE9024403F001F9DFF8C4
S315080125A0A48008F11E014746434602E003338B42E5
S315080125B008D05A78012AF9D11A78B242F6D105B06B
S315080125C0BDE8F083204A06EB46039B0002EB0309AC
S315080125D0D058012103F09AFDB9F808300093002478
S315080125E00323D9F804008DF8043069468DF80740AD
S315080125F003F01CFD98F8013008F1030843B10134D2
S315080126000A2CF7D10122142142F2010002F0EAFD57
S3150801261004EB44043B1901223E555A7005B19A70E0
S315080126200A4B01221A7005B0BDE8F0830122142174
S315080126304FF4005002F0D6FD8FE700BF710000206D
S31508012640A806002088060020DCC0000870000020CB
S31508012650092838B505460C4622D8214B1A78012A8D
S3150801266001D0002038BD14B31E4B1C688CB31E4B19
S31508012670197889B12378AB420ED00139CBB24C21F6
S3150801268011FB0341234603E01A78AA421C4603D0EC
S315080126908B4203F14C03F7D1606CC0F3CF0038BD10
S315080126A0012214214FF4005002F09CFDD5E70F4B8F
S315080126B0214604E001310A2903F10303D1D05A78EE
S315080126C0012AF7D11A78AA42F4D1094B33F8110035
S315080126D038BD142142F2050002F084FD204638BDBA
S315080126E071000020BC060020020000208806002098
S315080126F0A8060020034A044BA2FB002040091860E3
S31508012700704700BF1F85EB516C00002000B583B0F0
S3150801271000F07EFD02AC084E44F8040D074D03E0B7
S315080127202968204600F0ACFEFFF720FD3378002B20
S31508012730F6D0FFF7B9FDF3E7020000206C00002090
S3150801274008B5FFF713FD044B1B781BB1BDE808401C
S31508012750FFF7AABD08BD00BF0200002000B583B07F
S3150801276000F056FD02AC054D44F8040DFDF7A0FC3A
S315080127702968204600F084FEF8E700BF74000020AF
S3150801278010B584B0002400F03FF802F009FDFDF70A
S3150801279081FCFFF7D5FF052223460092CDE90244C5
S315080127A0019480220849094800F054FB084B039418
S315080127B006211A880748009102940194234606497E
S315080127C000F048FB04B010BD54C100080D270108EC
S315080127D0780000205D270108ACC00008034A044BB5
S315080127E0A2FB002040091860704700BF1F85EB5106
S315080127F07400002080087F28024B96BF802218802B
S315080128001A8070477800002000F000B8074BC3F122
S31508012810006101F5004103F500605A5C03F8012BDC
S315080128208342FAD1024B00221A707047C40600206F
S31508012830C0060020C1F500630133984218DA014445
S31508012840884215DADFF834C0F0B40B4C9CF8006006
S315080128500025FF27225CFF2A00F1010302D001258A
S3150801286027542E4698B28842F4DB15B9F0BC704756
S3150801287070478CF80060F9E7C4060020C0060020FE
S3150801288040F2FC73984210B502D90024204610BDC7
S31508012890044600F09DF9034B1C5900F09BF92046AC
S315080128A010BD00BFC4060020F8B540F2FC7398427B
S315080128B000D9F8BD0446094E0D4600F089F9375985
S315080128C000F088F9BD42F4D000F082F9355100F0E4
S315080128D081F9034B01221A70F8BD00BFC406002016
S315080128E0C006002010B4154A00E01A461368834250
S315080128F0FBD351685418A0420AD041684418A34230
S315080129000DD0904203605DF8044B18BF1060704704
S315080129104068014410464418A3425160F1D1084C5D
S315080129202468A342EDD0D3E90034904221440360E0
S3150801293041605DF8044B18BF10607047C48E0020D3
S315080129407C0000202DE9F041044600F059FC2E4890
S315080129500268002A39D02D4B1F683C422FD174B327
S3150801296004F108014B071CBF21F00701083131B3F7
S31508012970DFF8A080D8F800608E4220D3244D2C6859
S3150801298003E0226822B12546144663688B42F8D3D0
S315080129900268A24213D0226828682A605A1A102AA5
S315080129A000F1080528D8F61A00223B43C4E900239A
S315080129B0C8F8006000F0F0FC2846BDE8F081002563
S315080129C000F0EAFC2846BDE8F081124F124B39683F
S315080129D023F0070347F6F0755E1908397260396006
S315080129E05A510A490660C3E90065094D4FF0004787
S315080129F02B606A600F60B0E7631818465A60616019
S31508012A00FFF770FF6368CEE77C0000208000002096
S31508012A10C48E002084000020CC0E002000283AD065
S31508012A2038B51D4D50F8043C2A681342044610D0A7
S31508012A3050F8081CD9B14FF48671184800F04EF9C0
S31508012A402A6854F8043C134202D054F8081C71B1A0
S31508012A5038BD40F20B11114800F040F954F8083C12
S31508012A60002BE8D12A6854F8043C1342F0D023EA33
S31508012A70020344F8043C00F0C3FB094A54F8043C39
S31508012A801168A4F108000B441360FFF72BFFBDE89A
S31508012A90384000F081BC70478000002068C10008FA
S31508012AA084000020014B1868704700BF840000208D
S31508012AB00C490D484B6830B4C3F5C332A0326423C0
S31508012AC003FB02F3094D0A4C5B09A5FB03230278B4
S31508012AD0C3F3C7139A42237038BF037000234B60B0
S31508012AE030BC7047D48E0020CD8E0020C55A7C0A92
S31508012AF0CC8E002070B50D4606460AF041FD044607
S31508012B0028460AF03DFD844201D0002070BD6CB113
S31508012B1032782B789A42F8D1002303E0F15CEA5C1B
S31508012B209142F2D10133DBB29C42F7D8012070BD44
S31508012B3000B51D4D1D481E4B83B00024009301228C
S31508012B4004602C706C602C72234642F2107119488D
S31508012B50194D00F0DBFE2860F0B10446174A184B00
S31508012B60002515701D7000F053FB009502462B4693
S31508012B702046294600F0F0FE012805D0012214213D
S31508012B804FF4805002F02EFB0E4B00221A60FFF71D
S31508012B90F7FD00F0FDFAFEE7012214214FF48050FB
S31508012BA002F020FB2C68D9E7D48E0020E08E0020A5
S31508012BB0B12A01088CC10008D08E0020CC8E0020D5
S31508012BC0CD8E002088000020704700BF704700BFE7
S31508012BD002F09CBC02F0C0BC03F068BC014B18783B
S31508012BE0704700BFCC8E0020FFF75CBF70B5054665
S31508012BF002F08CFC114B1C688CB106462946A0686C
S31508012C00FFF778FF012805D10DE0A068FFF772FFED
S31508012C10012808D024692946002CF6D1304602F04D
S31508012C209BFC204670BD6468304602F095FC204640
S31508012C30002CF7D000F070FD800070BDE08E0020FA
S31508012C402DE9F041804614200F461446FFF77AFE17
S31508012C50054628B30023C5E90343C5E9018702F000
S31508012C6055FC134E074602F051FC346802460CB96E
S31508012C700DE01C462369002BFBD1104602F06CFCC3
S31508012C80256138462C60BDE8F04102F065BC02F0CA
S31508012C9063FC2C6035603846BDE8F04102F05CBC47
S31508012CA0012214214FF4805002F09CFAD2E700BFAA
S31508012CB0E08E0020074A138801339BB2092B138043
S31508012CC005D905490B68002001330B60108003F014
S31508012CD00FBB00BF8C0000208800002001221421B0
S31508012CE04FF4805002F07EBA054B1A78012A00D0BB
S31508012CF070471A7A002AFBD15A6801325A6070471E
S31508012D00D48E002008B502F001FC044B01210022F3
S31508012D1019701A72BDE8084002F01EBCD48E002054
S31508012D20014B00221A707047D48E002008B5034C57
S31508012D302368012BFDD902F0DDFBF9E7EC8E0020B3
S31508012D400D4B0E4A19681268486082420DD80C4A22
S31508012D5010B5044610681968043104F0CDFF094B13
S31508012D601A68A24288BF1C6010BD074A1068196814
S31508012D70043104F0C1BF00BF90000020B800002054
S31508012D80E48E0020AC000020E88E00202B4B2DE9B4
S31508012D90F0410022DFF8B880294E1A60D8F80020E1
S31508012DA033689A4247D0D8F80020D8F8003012681C
S31508012DB01B6B9A4233D9234C234D236803EB8303B8
S31508012DC055F823309BB9214F08E02368013B23605E
S31508012DD0236803EB830355F8233043B92368002B93
S31508012DE0F3D140F252713846FFF778FFEDE72368D1
S31508012DF003EB83039B00E91808334A6852684A6063
S31508012E001D44AA4204BF52684A60D368C8F8003014
S31508012E10D8F8002033689A4209D0BDE8F081D8F87D
S31508012E200000D8F80010343104F0D2FEC3E7BDE83B
S31508012E30F041FFF767BFFFF773FFB4E7BC00002057
S31508012E40A8000020A4000020EC8E0020A0C10008E4
S31508012E50900000202DE9F84FDDF830B08A469146FA
S31508012E609846DDE90A570646002800F0A7800D2D89
S31508012E7000F287804820FFF765FD0446002800F028
S31508012E808C804FEA8909BBF1000F00F09D80C0F8DC
S31508012E9030B04A46A52158460AF01CFB236BA9F116
S31508012EA00409994429F007090AF1FF330AF10F01C8
S31508012EB004F1330201E08B4207D013F9010F02F83E
S31508012EC0010F93F900000028F5D10D2D4FF00003ED
S31508012ED0AB4604F1040A28BF4FF00D0B84F84330C2
S31508012EE05046C4F82CB0C4F844B004F0F1FE04F11D
S31508012EF0180004F0EDFECBF10E03A36124616462B0
S31508012F0042463146484602F0D1FA206007B13C6094
S31508012F1002F014FB444A454E1368013313603368C3
S31508012F20002B3ED0424F3B681BB3DFF82481414852
S31508012F30E26A03680133036004F134012046FFF7AE
S31508012F407FFE3D4BE06A1A68904288BF186000EB25
S31508012F50800008EB8000514604F0BEFE02F000FB3B
S31508012F603B681BB13368DB6AAB4222D30120BDE85B
S31508012F70F88F3368DFF8D880DB6AAB4298BF3460D4
S31508012F80D5E740F2ED112D48FFF7A8FE4820FFF7D7
S31508012F90D9FC044600287FF474AF4FF0FF30BDE832
S31508012FA0F88F34601368DFF8A880012B1AD0204FF8
S31508012FB0BDE702F09FFA0120BDE8F88F4FF4F671DC
S31508012FC01E48FFF78BFE52E74846FFF7BBFC8346D0
S31508012FD0206300287FF45DAF2046FFF71FFD4FF001
S31508012FE0FF30C4E7474608F58C793846143704F0AC
S31508012FF063FE4F45F9D1DFF85CB0DFF85C900C4F02
S31508013000584604F059FE484604F056FE0C4804F0AA
S3150801301053FE0C4804F050FE0B4A0C4BC2F800B0A4
S31508013020C3F8009083E700BF9400002090000020B9
S31508013030B4000020A0000020A4000020A0C10008C0
S315080130402C90002040900020E48E0020E88E00207D
S31508013050EC8E00200490002018900020F8B5044654
S31508013060194E02F06BFA1CB3251D284604F05EFEC4
S31508013070A36A1BB104F1180004F058FE134F294640
S31508013080384604F029FE02F06BFA3368A34200D0F1
S31508013090F8BD0F4B1B687BB90E4A39681268914215
S315080130A008D00D4B1B685BB10C4B01221A60F8BDA9
S315080130B03468D9E73360F8BDBDE8F84002F01ABABA
S315080130C0BDE8F840FFF762BE90000020409000205E
S315080130D0B4000020940000209C000020BC000020C1
S315080130E010B5044668B10A4B62699A4201D00020BC
S315080130F010BDA06A074B9842F9D0B0FA80F0400992
S3150801310010BD40F259410448FFF7E8FDEBE700BF5F
S31508013110409000202C900020A0C1000888B170B50D
S31508013120174D2B6883420BD0044602F007FA204656
S31508013130FFF7D6FF012809D0BDE8704002F010BAA2
S3150801314070BD40F27A410F48FFF7C8BD261D3046CB
S3150801315004F0ECFD0C4AE36A11680C488B4288BFFF
S31508013160136003EB830300EB8300314604F0B4FDDF
S315080131702B68E26ADB6A9A42DED302F0BBF9DBE727
S3150801318090000020A0C10008A4000020EC8E0020B9
S3150801319030B585B00024144A0192CDE90244009461
S315080131A02346802211491248FFF754FE01280BD005
S315080131B005460DB105B030BD0E4840F21F5105B0A8
S315080131C0BDE83040FFF78ABD00F07CFB01280546C3
S315080131D0EFD102F09BF9084A084B15601C6005B04F
S315080131E0BDE8304002F024BAA800002098C10008C2
S315080131F02D2D0108A0C10008B4000020B800002048
S31508013200024A136801331360704700BF9C0000200F
S3150801321010B502F093F9034B1C6802F0A1F9204698
S3150801322010BD00BFB80000202DE9F04F4E4B1B68BA
S3150801323083B0002B7BD14D4B1A6801321A601F6887
S315080132400FB34B4B0193019B1B68BB4237D9DFF880
S315080132503C81DFF83C910025D9F80030454ADB6A04
S31508013260126803EB830358F82330022B28BF012584
S31508013270002A64D0404B1B68002B0CBF284601204E
S3150801328003B0BDE8F08F3D4E33681B68002B64D14F
S315080132903B4B31683B4A1868306019601368013343
S315080132A0136033681B68002B4CD1314B01931A46C6
S315080132B04FF0FF331360019B1B68BB42C7D82F4EE3
S315080132C0DFF8C880DFF8C890DFF8C8A0002525E038
S315080132D03368DB68DC68636804F1040B9F4258466F
S315080132E038D304F023FDA36A04F118000BB104F0E6
S315080132F01DFDE36ADAF8002003EB83009342594681
S3150801330008EB800088BFCAF8003004F0E5FCD9F85C
S315080133100030E26ADB6A9A4228BF012533681B68D6
S31508013320002BD5D1019A4FF0FF33136094E7114A68
S315080133301368013313600025FFF7BCFC9AE7FFF712
S31508013340B9FC97E733680A4ADB680192DB685B6870
S31508013350136078E7019A13607EE740F25B610A48D9
S31508013360FFF7BCFC94E700BF9C000020B8000020D2
S31508013370AC00002098000020BC000020E48E00204C
S31508013380E88E0020B0000020A0C10008EC8E0020C5
S3150801339090000020A40000202DE9F0472F4C236857
S315080133A0002B51D002F0CAF82368013B2360236839
S315080133B0002B43D12A4B1B68002B3FD0DFF8B4A062
S315080133C0284E294FDFF8B090DFF8B0801EE0F36889
S315080133D0DC68251D04F1180004F0A8FC284604F051
S315080133E0A5FCE36A3A6803EB83009342294609EB95
S315080133F0800088BF3B6004F06FFCD8F80030E26AB1
S31508013400DB6A9A4224BF0123CAF800303368002BCD
S31508013410DDD1164C23686BB123685BB10125FFF733
S3150801342003FF08B1CAF800502368013B23602368EB
S31508013430002BF4D1DAF80040012C0BD0002402F05D
S315080134408FF82046BDE8F08740F25A510848FFF741
S3150801345045FCA7E702F04EF8F1E700BF9C00002003
S31508013460940000202C900020A40000209800002041
S31508013470A0C10008BC000020EC8E002090000020AE
S3150801348038B50C460546002836D03CB31F492048B6
S315080134900A682B6801320A6001681C192CBF0120D1
S315080134A000208B4222460DD860B32C60194B186850
S315080134B0043004F03BFC2046FFF742FCFFF76CFFA3
S315080134C040B138BDB0B1A1422C60EFD3FFF764FF1C
S315080134D00028F6D1BDE8384002F00CB840F2BF2109
S315080134E00D48FFF7FBFB094909480B682A680133B0
S315080134F00B6003682A60E1E740F2BE210648FFF740
S31508013500EDFBC2E7A142D0D3F4E700BF9C0000203F
S31508013510B800002090000020A0C10008044B1B68D9
S315080135200BB9FFF733BC034B01221A60704700BF82
S315080135309C000020BC00002070B50E460546C8B1A7
S315080135400F4C21682846183104F0D6FB2068043050
S3150801355004F0ECFB731C06D00A4B18683044BDE82E
S315080135607040FFF7EDBB216807480431BDE870409C
S3150801357004F0B2BB40F265710448FFF7AFFBDFE721
S3150801358090000020B800002040900020A0C100084B
S3150801359070B50E46054680B10B4C21682846183190
S315080135A004F09AFB2068043004F0C0FB074B186846
S315080135B03044BDE87040FFF7C3BB40F29B71044835
S315080135C0FFF78CFBE8E700BF90000020B800002059
S315080135D0A0C1000838B5C368DC684CB304F1180506
S315080135E0284604F0A3FB154B1B68E3B9251D28469D
S315080135F004F09CFB124AE36A116812488B4288BFA1
S31508013600136003EB8303294600EB830004F064FB94
S315080136100D4BE26A1B68DB6A9A4223BF0B4B0120FA
S315080136201860002038BD2946094804F055FBEFE724
S3150801363040F2D1710748FFF751FBCFE79C00002004
S31508013640A4000020EC8E002090000020BC00002081
S315080136502C900020A0C1000810B5044630B1064AD6
S31508013660064B12681B68C4E9002310BD40F2F771C6
S315080136700348FFF733FBF2E7B0000020B80000204B
S31508013680A0C10008F8B50D46044658B38DB301F03C
S3150801369055FF2B681A4A581C11681ED0DFF868C0F6
S315080136A0D4E90060DCF80070BE4201D081420FD235
S315080136B00F1ABB420CD95B1ADCF8001012680344D6
S315080136C02B600025C4E9001201F04AFF2846F8BD1F
S315080136D0012501F045FF2846F8BD002501F040FF08
S315080136E02846F8BD40F601010648FFF7F7FA002D0E
S315080136F0CDD140F602010348FFF7F0FAC7E700BF4C
S31508013700B8000020A0C10008B0000020014B01222A
S315080137101A607047BC00002068B1036B1A78A52AA5
S315080137204FF000000FD113F8012F0130A52A80B2FE
S31508013730F9D080087047044B1868036B1A78A52AD4
S315080137404FF00000EFD0704790000020014B186839
S31508013750704700BF90000020044B186828B1044B3D
S315080137601B68002B0CBF012002207047B400002003
S315080137709C000020B8B1F8B5164DC36A2A68D26A0A
S3150801378093420FD22A68144ED26A416903EB830326
S3150801379006EB8303C2F10E029942826104D02B68BB
S315080137A0DB6AC362F8BD7047071D0446384604F054
S315080137B0BDFA2A68094BD06A1A68E062904200D9B4
S315080137C0186000EB800006EB80003946BDE8F8403A
S315080137D004F082BA90000020EC8E0020A40000209C
S315080137E0F0B138B5C26A436C9A4218D0051D044631
S315080137F0284604F09BFA0B4A636C1168E362C3F12D
S315080138000E008B42A061084888BF136003EB83034F
S31508013810294600EB8300BDE8384004F05DBA38BD9F
S31508013820704700BFA4000020EC8E0020F8B50F4CAD
S3150801383001F084FE25681DB1BDE8F84001F090BE8F
S315080138400B4F0C4E384604F037FA304604F034FA7A
S31508013850094A0A4B17600C212A4606201E6004F005
S3150801386041FB2060BDE8F84001F07ABEC4000020A3
S315080138705C90002070900020549000205890002001
S31508013880914208B50061416005D88169D21A8A4218
S315080138900CD3012008BD9A4201D29942F9D2074BAD
S315080138A0011D186804F028FA002008BD044B011D03
S315080138B0186804F021FA002008BD00BF54900020C2
S315080138C05890002000B585B0FFF7B0FF0B4B1B6879
S315080138D05BB100230222CDE90023CDE90233802220
S315080138E007490848FFF7B6FA20B90748E021FFF764
S315080138F0F5F9002005B05DF804FB00BFC4000020FF
S31508013900E8C10008353A0108C4C100082DE9F041AB
S315080139100D46B1B18046282017461E46FFF712F814
S31508013920044658B1FFF782FF069BC4F80080C4E934
S31508013930065726626362201D04F0CAF92046BDE8CF
S31508013940F0814FF4847103482C46FFF7C7F92046E6
S31508013950BDE8F081C4C1000870B5134E346884B05F
S3150801396064B11D46CDE90112039053B11A462046AA
S31508013970002301A904F076FB04B070BD204604B00B
S3150801398070BDFFF7E9FE012807D030682B462A46A5
S3150801399001A904F0CDFA04B070BD2B463068089A27
S315080139A001A904F0C5FAE7E7C40000202DE9F047AC
S315080139B01D4DDFF87C8082B04FF0000A0DE0DB6810
S315080139C0DC681F6804F10409484604F0AFF9636A24
S315080139D020469847E369012B0AD02B681A68002A02
S315080139E0EDD1124A11682960136002B0BDE8F0876B
S315080139F0A6693E440023B74219463A46204606D2EE
S31508013A00666024612868494604F076F9E5E7CDF849
S31508013A1000A0FFF7A1FF0028DFD140F2822140462E
S31508013A20FFF75CF9D9E700BF5490002058900020B1
S31508013A30C4C100082DE9F04FDFF874A15B4FDFF828
S31508013A407481DFF8749187B04FF0000BDAF8003013
S31508013A501D68002D6DD0DB681D68FFF7D1FBFFF7E8
S31508013A60D7FB3B68834204466BD88542386073D9D5
S31508013A70291BD8F8000004F065FCFFF78DFC002827
S31508013A8067D000231A4603A9D8F8000004F054FBAE
S31508013A900028DBD0059C636913B1201D04F046F9A3
S31508013AA0FFF7B6FB3B689842054627D3039E3D6060
S31508013AB0022E29D0032E31D0002EE2D1049BA16912
S31508013AC02A4619442046FFF7DBFE0128D9D1636A45
S31508013AD020469847E369012BD3D1A369049A009636
S31508013AE01A44204633463146FFF736FF0028C8D127
S31508013AF040F22F214846FFF7F1F8C2E7FFF756FFD4
S31508013B00039E3D60022ED5D10499A16151B1294484
S31508013B1020462B462A46FFF7B3FEB2E72046FEF7B4
S31508013B207DFFAEE74FF40F714846FFF7D7F8A16955
S31508013B30EDE7FFF765FBFFF76BFB3B689842044629
S31508013B4005D2FFF733FF3C60FFF726FC99E73C6097
S31508013B508EE701F0CFFC94E7FFF71EFCDAF8003098
S31508013B60DB68DE68301D04F0E1F8F369012B03D048
S31508013B70736A3046984784E7B169224629442B4639
S31508013B803046FFF77DFE0128F2D10023CDF800B0BB
S31508013B902A4619463046FFF7DFFE0028E8D14FF4DA
S31508013BA0AD714846FFF79AF8E2E700BFC00000206A
S31508013BB054900020C4000020C4C100082DE9F04338
S31508013BC0404E414D414FDFF80891DFF8088189B031
S31508013BD000234FF0FF3201A9306804F0ADFA01283D
S31508013BE005D00122142142F2081001F0FBFA9DF8D2
S31508013BF00440012C05D90122142142F20C1001F0CE
S31508013C00F1FA2B5D012BE3D19DF80530032B51D831
S31508013C10DFE803F03F2413029DF8043057F83320F8
S31508013C201AB1012090479DF8043007EBC3035B687E
S31508013C30002BCDD001209847CAE79DF8043057F8E4
S31508013C4033201AB1002090479DF8043007EBC303CF
S31508013C505B68002BBCD000209847B9E79DF8043073
S31508013C6058F8334044B1079B9DF8101003980DF19D
S31508013C701102A0479DF8043008EBC3035C68002CC9
S31508013C80A6D0079B9DF8101003980DF11102A047C5
S31508013C909EE79DF8043059F833201AB103989047E6
S31508013CA09DF8043009EBC3035B68002B90D0039899
S31508013CB098478DE70122142142F2091001F092FA80
S31508013CC086E700BFB8900020B490002084900020B9
S31508013CD0A4900020949000202DE9F047414C424DD4
S31508013CE0424FDFF80C818CB0002600234FF0FF32DB
S31508013CF006A9206804F020FA012805D0012214211A
S31508013D0042F2071001F06EFA9DF81830012B41D8DE
S31508013D109DF82020082A43D8EB5C002B40D0DDF81B
S31508013D201C908DF80E2019F0804348D18DF80D307E
S31508013D3072B10DF12203013A53FA82F20DF10F0124
S31508013D400DF1210313F8010B01F8010B9A42F9D180
S31508013D504B46002B3ADBCDE901368DF80C60CDF8E0
S31508013D601C90FEF735FF9DF8183003EB8303824656
S31508013D7001A957F8330001F0A9FE04282ED09DF8B1
S31508013D80183003EB43030344504648F82390FEF7E3
S31508013D9021FFAAE70122142142F20C1001F022FAAE
S31508013DA00123002206A9206804F0C2F800289CD144
S31508013DB00122142142F2041001F014FA95E70223B4
S31508013DC08DF80D3029F08043002BC4DA23F0004327
S31508013DD00422CDE901638DF80C20C0E75046FEF7B1
S31508013DE0F9FEDDE7CC900020B49000203CC2000823
S31508013DF0D8900020F0B500EB8002174B53F83250EB
S31508013E0089B00446002628464FF48061009601F0E1
S31508013E1061FF012802D0009809B0F0BD0F4A8DF85C
S31508013E2004400746032410688DF8054033466A4660
S31508013E3001A904F017F938B128464FF4806101F059
S31508013E40B9FF009809B0F0BD3A46142142F20610AE
S31508013E5001F0C8F9F0E700BF3CC20008B89000209D
S31508013E602DE9F04300EB8002534B8FB053F83260D3
S31508013E708DF81C000546002430460221CDE9004490
S31508013E8001F028FF01280AD00821304601F022FF57
S31508013E90012805466BD000980FB0BDE8F0830346AC
S31508013EA0214630468DF81D3001F0B4FE044600283F
S31508013EB048D0DFF81091DFF8108164270CE0029AE8
S31508013EC009929DF811204AB3099B43F0804309934F
S31508013ED0013C14F0FF0435D002AA0021304601F056
S31508013EE049FEFFF795F959F825309DF810208DF808
S31508013EF0205007FB00F0A8FB0010C3EB90109DF8BB
S31508013F0012300D908DF82830002AD8D0039A42F045
S31508013F10004209929DF81120002AD5D1002BD7D04D
S31508013F20013B05AA52FA83F20DF129010DF113039A
S31508013F3013F8010B01F8010B9342F9D1013C14F076
S31508013F40FF04C9D11D4A0023106807A901AA04F074
S31508013F5089F818B3019B3046012B4FF0020108BFBF
S31508013F60009301F027FF00980FB0BDE8F083134ACC
S31508013F702346106802246A4607A98DF81D4004F0F5
S31508013F8071F890B130460E4901F08CFE3046082191
S31508013F9001F010FF00980FB0BDE8F083012214214B
S31508013FA042F2061001F01EF9D4E72A46142142F21C
S31508013FB0061001F017F9E5E73CC20008B8900020A1
S31508013FC010000032C4900020D34D62102DE9F04351
S31508013FD000EB8002534B8FB053F832608DF81C000A
S31508013FE00546002430461021CDE9004401F072FE51
