S02900002E2E2F48414E636F6465725F453430375F5454415F436F6D62696E654D6F64656C2E73726563F8
S3150800400054C70020597D0108000000000000000088
S315080040100000000000000000000000000000000092
S3150800402000000000000000000000000059460108DA
S315080040300000000000000000F54601084547010899
S315080040400000000000000000000000000000000062
S315080040500000000000000000000000000000000052
S3150800406000000000B1550108000000000000000033
S315080040700000000000000000000000000000000032
S31508004080000000000000000000000000813A01085E
S31508004090393A01085D3A0108A53A0108000000000E
S315080040A09D5501088955010875550108655501088A
S315080040B0515501083D550108295501080000000021
S315080040C000000000000000000000000000000000E2
S315080040D000000000296301084163010859630108CB
S315080040E00000000000000000216401080000000034
S315080040F01555010801550108F15401080000000092
S3150800410000000000896301080000000000000000AC
S315080041100000000000000000000000000000000091
S315080041200000000000000000000000008D63010888
S3150800413000000000E155010800000000113B0108DD
S31508004140C93A0108ED3A0108353B010851640108EE
S315080041500000000000000000000000007163010874
S315080041600000000000000000000000000000000041
S315080041700000000000000000000000000000000031
S311080041800000000000000000EE11AA5527
S3150800C000000000000000F03F000000000000F03FC4
S3150800C010000000C0CCCCF43F000000000000F03F58
S3150800C020383F070000042000100008000201000045
S3150800C030000000000A0A0A0048414E636F646572F0
S3150800C0405F453430375F5454415F436F6D62696EA4
S3150800C050654D6F64656C5F736F6674776172654969
S3150800C060445F76315F3032303632335F31353434BF
S3150800C070343200004170704374726C5461736B0003
S3150800C08048414E636F6465725F453430375F545478
S3150800C090415F436F6D62696E654D6F64656C2E63B3
S3150800C0A000000000200000000014024008000900FB
S3150800C0B0200000000014024010000E0020000000BE
S3150800C0C00014024020000F00200000000014024067
S3150800C0D04000040020000000001402408000050013
S3150800C0E020000000001402400001060020000000A5
S3150800C0F0001402400002070020000000001402405D
S3150800C10000040800040000000008024001000A00BC
S3150800C110040000000008024004000C004144436388
S3150800C1206F6E76657273696F6E5461736B0000008B
S3150800C1302E2E2F626C6F636B7365742F7274772F54
S3150800C14053544D33322F7372632F686561705F34B1
S3150800C1502E630000546D724370754C6F6164000065
S3150800C16049444C45000000002E2E2F626C6F636B0D
S3150800C1707365742F7274772F53544D33322F73723D
S3150800C180632F7461736B732E630000002E2E2F626B
S3150800C1906C6F636B7365742F7274772F53544D33BA
S3150800C1A0322F7372632F74696D6572732E63000084
S3150800C1B0546D72205376630043616E4576656E74DE
S3150800C1C05461736B0000000043616E5472616E73B4
S3150800C1D06D69745461736B002E2E2F626C6F636BDE
S3150800C1E07365742F7274772F53544D33322F7372CD
S3150800C1F0632F53544D33325F453430372F63616EA6
S3150800C2002E630000006400400000000208000000E1
S3150800C210000C02400100000008000000000C02406B
S3150800C22002000100091314151600000000680040FA
S3150800C230000000040200000000040240200005007F
S3150800C240020000000004024040000600093F404189
S3150800C2504200000001010201020202020203020278
S3150800C2600402020303030403030503030603030589
S3150800C270040406040407040408040407050508055D
S3150800C2800508060508070508070608080608080732
S3150800C29008080800457643686E6C310045764368A1
S3150800C2A06E6C3200457643686E6C33002E2E2F6214
S3150800C2B06C6F636B7365742F7274772F53544D3399
S3150800C2C0322F7372632F53544D33325F45343037F0
S3150800C2D02F6D61632E6300002E2E2F626C6F636BC9
S3150800C2E07365742F7274772F53544D33322F7372CC
S3150800C2F0632F53544D33325F453430372F706F7286
S3150800C300742E6300000001400100000002010000D5
S3150800C3101000000000100240000209001000000092
S3150800C3200010024000080B00000400400200000054
S3150800C3300102000001000000000002404000060063
S3150800C340020000000004024020000500000800402A
S3150800C350040000000102000008000000000C024072
S3150800C36000100C0008000000000C024000200D0020
S3150800C370000401400200000002030000040000005F
S3150800C38000080240400006000400000000080240C1
S3150800C39080000700100000000010024000010000A5
S3150800C3A0010008001000000000100240000400010F
S3150800C3B001000A00100000000010024000100002F0
S3150800C3C001000C00000001400100000002011900F4
S3150800C3D0000000400100000001021C0000040040AB
S3150800C3E00200000001021D000008004004000000D1
S3150800C3F001021E00000401400200000002012C0098
S3150800C40000400140000001000201180000440140FC
S3150800C4100000020002011900004801400000040063
S3150800C42002011A00001C00408000000001022C00D6
S3150800C430002000400001000001022D00100000004D
S3150800C4400010024000020000010009001000000070
S3150800C450001002400008000101000B001000000057
S3150800C460001002400020000201000D00100000002C
S3150800C470001002400040000301000E000100000009
S3150800C4800000024020000100010005000100000034
S3150800C4900000024040000200020006000200000000
S3150800C4A00004024020000201020005000800000006
S3150800C4B0000C02400010030002000C0008000000F7
S3150800C4C0000C02400020030102000D0004000000D9
S3150800C4D000080240400004000300060004000000B3
S3150800C4E00008024080000401030007001000000055
S3150800C4F0001002402000050003000500100000009F
S3150800C500001002404000050103000600200000005C
S3150800C5100014024040000600030006002000000048
S3150800C52000140240800007000300070020000000F6
S3150800C530001402400001080009000800200000005D
S3150800C5400014024000020900090009000400000066
S3150800C550000802400100000020000000001402400C
S3150800C5604000000020000000001402408000000087
S3150800C5702000000000140240000100002000000016
S3150800C58000140240000200002000000000140240CF
S3150800C59000040000020000000004024080000000C1
S3150800C5A002000000000402404000000010000000E5
S3150800C5B000100240040000001000000000100240B5
S3150800C5C010000000100000000010024020000000CB
S3150800C5D0100000000010024040000000400000006B
S3150800C5E000180240800000004000000000180240C9
S3150800C5F00001000040000000001802400010000082
S3150800C6004000000000180240008000000100000001
S3150800C6100000024010000000020000000004024072
S3150800C6202000000001000000000002404000000059
S3150800C6300100000000000240200000000800000081
S3150800C640000C02400100000008000000000C024037
S3150800C6500200000008000000000C02400400000070
S3150800C66008000000000C0240080000000800000056
S3150800C670000C02401000000008000000000C0240F8
S3150800C6802000000008000000000C024040000000E6
S3150800C69008000000000C02408000000008000000AE
S3150800C6A0000C02400001000008000000000C0240D7
S3150800C6B00002000008000000000C02400004000010
S3150800C6C008000000000C02400008000008000000F6
S3150800C6D0000C02400010000008000000000C024098
S3150800C6E00020000008000000000C02400040000086
S3150800C6F008000000000C0240008000001000000046
S3150800C7000010024001000000100000000010024066
S3150800C710020000001000000000100240080000009F
S3150800C7201000000000100240800000001000000009
S3150800C7300010024000010000100000000010024036
S3150800C7400002000010000000001002400004000073
S3150800C7501000000000100240000800001000000051
S3150800C76000100240001000001000000000100240F7
S3150800C77000200000100000000010024000400000E9
S3150800C7801000000000100240008000002000000099
S3150800C79000140240010000002000000000140240BE
S3150800C7A002000000200000000014024004000000FF
S3150800C7B020000000001402400800000020000000CD
S3150800C7C0001402401000000020000000001402407F
S3150800C7D020000000200000000014024000080000AD
S3150800C7E02000000000140240001000002000000095
S3150800C7F0001402400020000020000000001402403F
S3150800C80000400000200000000014024000800000E4
S3150800C810400000000018024001000000400000002F
S3150800C8200018024002000000400000000018024004
S3150800C8300400000040000000001802400800000044
S3150800C84040000000001802401000000040000000F0
S3150800C85000180240200000004000000000180240B6
S3150800C86040000000400000000018024000020000DE
S3150800C87040000000001802400004000040000000CC
S3150800C880001802400008000040000000001802409E
S3150800C8900020000040000000001802400040000090
S3150800C8A00100000000000240010000000400000032
S3150800C8B000080240010000002000000000140240A9
S3150800C8C04000000020000000001402408000000024
S3150800C8D020000000001402400001000020000000B3
S3150800C8E0001402400002000020000000001402406C
S3150800C8F0000400000200000000040240800000005E
S3150800C9000200000000040240400000001000000081
S3150800C9100010024004000000100000000010024051
S3150800C9201000000010000000001002402000000067
S3150800C9301000000000100240400000004000000007
S3150800C9400018024080000000400000000018024065
S3150800C950000100004000000000180240001000001E
S3150800C960400000000018024000800000010000009E
S3150800C970000002401000000002000000000402400F
S3150800C98020000000010000000000024040000000F6
S3150800C990010000000000024020000000080000001E
S3150800C9A0000C02400100000008000000000C0240D4
S3150800C9B00200000008000000000C0240040000000D
S3150800C9C008000000000C02400800000008000000F3
S3150800C9D0000C02401000000008000000000C024095
S3150800C9E02000000008000000000C02404000000083
S3150800C9F008000000000C024080000000080000004B
S3150800CA00000C02400001000008000000000C024073
S3150800CA100002000008000000000C024000040000AC
S3150800CA2008000000000C0240000800000800000092
S3150800CA30000C02400010000008000000000C024034
S3150800CA400020000008000000000C02400040000022
S3150800CA5008000000000C02400080000010000000E2
S3150800CA600010024001000000100000000010024003
S3150800CA70020000001000000000100240080000003C
S3150800CA8010000000001002408000000010000000A6
S3150800CA9000100240000100001000000000100240D3
S3150800CAA00002000010000000001002400004000010
S3150800CAB010000000001002400008000010000000EE
S3150800CAC00010024000100000100000000010024094
S3150800CAD00020000010000000001002400040000086
S3150800CAE01000000000100240008000002000000036
S3150800CAF0001402400100000020000000001402405B
S3150800CB00020000002000000000140240040000009B
S3150800CB102000000000140240080000002000000069
S3150800CB20001402401000000020000000001402401B
S3150800CB302000000020000000001402400008000049
S3150800CB402000000000140240001000002000000031
S3150800CB5000140240002000002000000000140240DB
S3150800CB600040000020000000001402400080000081
S3150800CB7040000000001802400100000040000000CC
S3150800CB8000180240020000004000000000180240A1
S3150800CB9004000000400000000018024008000000E1
S3150800CBA0400000000018024010000000400000008D
S3150800CBB00018024020000000400000000018024053
S3150800CBC0400000004000000000180240000200007B
S3150800CBD04000000000180240000400004000000069
S3150800CBE0001802400008000040000000001802403B
S3150800CBF0002000004000000000180240004000002D
S3150800CC000400000000080240002000000000014067
S3150800CC100100000002011B000000004001000000A6
S3150800CC2001021C00000400400200000001021D0071
S3150800CC30000800400400000001021E000004014034
S3150800CC400200000002012E00004001400000010021
S3150800CC500201180000440140000002000201190008
S3150800CC60004801400000040002011A00001C0040B0
S3150800CC708000000001022C00002000400001000096
S3150800CC8001022D0010000000001002400002000002
S3150800CC900200020001000900100000000010024016
S3150800CCA0000800010400200001000B00100000002D
S3150800CCB000100240002000020800000201000D00DA
S3150800CCC01000000000100240004000031000002081
S3150800CCD001000E00010000000000024020000100D3
S3150800CCE002000200010005000100000000000240E9
S3150800CCF040000200020002000200060002000000D6
S3150800CD000004024020000201040020000200050081
S3150800CD1008000000000C0240001003000200020098
S3150800CD2002000C0008000000000C0240002003016D
S3150800CD300400200002000D00040000000008024064
S3150800CD404000040002000200030006000400000080
S3150800CD5000080240800004010400200003000700C8
S3150800CD60100000000010024020000500020002002A
S3150800CD7003000500100000000010024040000501F5
S3150800CD8004002000030006002000000000140240F2
S3150800CD904000060002000200030006002000000012
S3150800CDA0001402408000070002000200030007008A
S3150800CDB020000000001402400001080002000200E2
S3150800CDC009000800200000000014024000020900C3
S3150800CDD002000200090009000010014010000000CE
S3150800CDE00225000002000000000402404000060080
S3150800CDF0020000000004024080000700070000004F
S3150800CE00004400400000020001260000080000005F
S3150800CE10000C02402000050008000000000C02403B
S3150800CE20400006000700000000480040000004001B
S3150800CE300127000008000000000C0240000108005D
S3150800CE4008000000000C024000020900070000006C
S3150800CE500014014020000000024700000400000002
S3150800CE6000080240400006000400000000080240D6
S3150800CE70800007000800000056435020436F6E6686
S3150800CE806967000056435020496E7465726661638F
S3150800CE906500000053544D6963726F656C65637471
S3150800CEA0726F6E696373000053544D3332205669AE
S3150800CEB0727475616C20436F6D506F727420696E61
S3150800CEC0204853206D6F64650000000053544D33AD
S3150800CED032205669727475616C20436F6D506F729B
S3150800CEE07420696E204653204D6F6465000000006B
S3150800CEF030303030303030303035304200000000CD
S3150800CF0030303030303030303035304300000000BB
S3150800CF10000001400100000002011B000000004063
S3150800CF200100000001021C0000040040020000008D
S3150800CF3001021D00000800400400000001021E0056
S3150800CF40000401400200000002012E0000400140DA
S3150800CF500000010002011800004401400000020020
S3150800CF6002011900004801400000040002011A00ED
S3150800CF70001C00408000000001022C000020004038
S3150800CF800001000001022D00100000000010024000
S3150800CF900002000002000200010009001000000063
S3150800CFA000100240000800010400200001000B00E8
S3150800CFB010000000001002400020000208000002D5
S3150800CFC001000D00100000000010024000400003A0
S3150800CFD01000002001000E000100000000000240C1
S3150800CFE02000010002000200010005000100000007
S3150800CFF00000024040000200020002000200060093
S3150800D0000200000000040240200002010400200083
S3150800D0100200050008000000000C02400010030092
S3150800D0200200020002000C0008000000000C02408A
S3150800D030002003010400200002000D000400000087
S3150800D0400008024040000400020002000300060037
S3150800D05004000000000802408000040104002000CB
S3150800D0600300070010000000001002402000050021
S3150800D0700200020003000500100000000010024034
S3150800D08040000501040020000300060020000000FF
S3150800D09000140240400006000200020003000600D9
S3150800D0A02000000000140240800007000200020071
S3150800D0B003000700200000000014024000010800D9
S3150800D0C002000200090008002000000000140240C7
S3150800D0D00002090002000200090009002E2E2F6234
S3150800D0E06C6F636B7365742F7274772F53544D335B
S3150800D0F0322F7372632F71756575652E6300000094
S3150800D1000404040014D100081CD1000824D1000826
S3150800D11007070700457643686E6C31004576436815
S3150800D1206E6C3200457643686E6C33005050500082
S3150800D1304FBB610567ACDD3F182D4454FB21E93F21
S3150800D1409BF681D20B73EF3F182D4454FB21F93F10
S3150800D150E2652F227F2B7A3C075C143326A6813C96
S3150800D160BDCBF07A8807703C075C143326A6913C41
S3150800D170FB21F93FFB2109407CD91240FB211940CC
S3150800D1807A6A1F407CD92240BBFD2540FB212940F5
S3150800D1903A462C407A6A2F405C4731407CD9324067
S3150800D1A09C6B3440BBFD3540DB8F3740FB21394053
S3150800D1B01BB43A403A463C405AD83D407A6A3F400A
S3150800D1C04C7E40405C4741406C1042407CD942400E
S3150800D1D08CA243409C6B4440AC344540BBFD454063
S3150800D1E0CBC64640DB8F4740EB584840FB214940B9
S3150800D1F083F9A200444E6E00FC291500D15727007A
S3150800D200DD34F50062DBC0003C999500419043008F
S3150800D2106351FE00BBDEAB00B761C5003A6E240061
S3150800D220D24D42004906E00009EA2E001C92D100C0
S3150800D230EB1DFE0029B11C00E83EA700F53582006B
S3150800D24044BB2E009CE98400B4267000417E5F0032
S3150800D250D6913900538339009CF439008B5F8400DA
S3150800D26028F9BD00F81F3B00DEFF97000F98050060
S3150800D270112FEF000A5A8B006D1F6D00CF7E360006
S3150800D28009CB2700464FB7009E663F002DEA5F0090
S3150800D290BA277500E5EBC7003D7BF100F7390700B3
S3150800D2A092528A00FB6BEA001FB15F00085D8D0091
S3150800D2B0300356007BFC4600F0AB6B0020BCCF0069
S3150800D2C036F49A00E3A91D005E619100081BE6008A
S3150800D2D085996500A0145F008D40680080D8FF001E
S3150800D2E027734D0006063100CA561500C9A87300F3
S3150800D2F07BE260006B8CC00000000040FB21F93F18
S3150800D300000000002D44743E000000809846F83C5A
S3150800D3100000006051CC783B00000080831BF03988
S3150800D3200000004020257A38000000802282E3367B
S3150800D330000000001DF3693502000000030000002C
S30D0800D3400400000006000000CD
S31508010000002A2CDD01231A460130C0B2022802D982
S315080100100A700020704791F800C010B5164C0CF014
S31508010020030E04EB8E0E154C1EF80330205C0342BA
S3150801003012D01CF0080F4FEA9C000BD1C40613D44A
S3150801004042EA830213F0380F0A7018BF4FF0FF30E7
S315080100500DD010BD5C07F1D50A70002010BD9217AE
S3150801006002F002021346CFE79806F5D4E8E713F043
S31508010070070018BF012010BD24C0000820C00008D1
S315080100800B78FF2B00D070474B78002BFBD101F082
S3150801009063BE00BF08B5012001F03EF8BDE808407F
S315080100A0024A40F26761002003F0ACBE81000108F4
S315080100B000F076B8704700BF2DE9F041214C224A7D
S315080100C0637A224D1370B5F8C0200BB1013292B292
S315080100D01F4995F8CD300A801E491F4E0B7003EB58
S315080100E08303B2EB430FA5F8C020ACBF4FF001085C
S315080100F04FF0000817DB737B012B14D0174B95F8CB
S31508010100CC70D3E900010CF01FF9C0B2B84288BF20
S315080101107B1C134A8CBFDBB2012385F8CC301370E4
S315080101200023A5F8C030072086F80D8006F0F2FBFB
S3150801013000F57A7081B261800322BDE8F04107209B
S3150801014006F03CBBC002002061020020E802002044
S31508010150A8020020DE030020D00300204000002072
S31508010160DF030020704700BF20B91A780AB118705A
S315080101707047704730B5094D83B0012014460022F7
S31508010180187000922B46104603F0F8FD002803DD8F
S315080101906B782A782270637003B030BD8402002020
S315080101A02DE9F04F2DED0E8BBE4C99B0D4E92A01FD
S315080101B0002200230CF06EF8002840F0708294F8B3
S315080101C0D730002B40F04081B7490023D1E900011F
S315080101D000220CF05FF894F8CB3010B9032B40F2EB
S315080101E0468194F8CE200021521A049118BF0122A3
S315080101F00391AE49DFF8FCA209788AF8092000299B
S3150801020000F0CD81DFF8F0B207EE903A9BF80030A6
S31508010210F8EEE76A07EE903AF8EEE77AB0EE007A7A
S31508010220F4EE477A0126F1EE10FA84F8D26000F06E
S315080102300E819F4B0AF1260219689E4B0020FFF793
S3150801024093FF9D4D00232B739BF8003007EE903AE0
S3150801025094F8CB30F8EEE77AF0EE086A07EE103A32
S31508010260F4EE667AF1EE10FAB8EEC77A40F04185F7
S31508010270F7EE007AB4EE677AF1EE10FA00F03E81F5
S315080102808E4B8F4A19688F4B0120FFF76DFF0023AC
S31508010290EB729BF8003094F8CB20012B00F04981D2
S315080102A094F8D620002A40F02E85874900220A7044
S315080102B007EE903AF8EEE77AB1EE047AF4EE477A69
S315080102C0F1EE10FA6A720CBF0126002603D12B7AC9
S315080102D0012B40F08385B2EE047AF4EE477AF1EE0B
S315080102E010FA0CBF012300232E72059300F08E82AB
S315080102F0764F059BEB7194F8CB30F1EE086A07EE61
S31508010300103AF4EE667AF1EE10FAB8EEC77A40F0D2
S315080103100382F0EE007AB4EE677AF1EE10FA00F095
S315080103202A816B4B6B4A19686B4B0120FFF71CFF3F
S315080103300023AB719BF8003008EE103A94F8CB30E5
S31508010340B8EEC88AF1EE0C7A08EE903AB4EE678AEE
S31508010350F1EE10FAF8EEE88A40F0AD81F0EE087A8F
S31508010360F4EE678AF1EE10FA40F0FF846B79012BFF
S3150801037040F01E856B71594B594A1968594B002033
S31508010380FFF7F2FE0023F1EE0C7AB4EE678AF1EE7E
S3150801039010FA2B7107D1F0EE087AF4EE678AF1EEBE
S315080103A010FA40F0718594F8D53013B1002384F81A
S315080103B0D5309BF8003007EE903A94F8CB30F8EE3A
S315080103C0E77AF2EE006A07EE103AF4EE667AF1EE93
S315080103D010FAB8EEC77A00F0A88194F8D420002A5A
S315080103E040F04D850022F2EE026AF4EE667AF1EEED
S315080103F010FAEA7040F0D381F1EE047AB4EE677A26
S31508010400F1EE10FA00F0B484374B384E1968002221
S31508010410012384F8D33000923346104603F0AEFC2C
S31508010420002840F31F86327871788AF812208AF8F4
S31508010430131013021944AAF8143094F8CB30A4F80F
S31508010440C6100022AA70E0E084F8D700BCE6F7EEF1
S31508010450007AF4EE676AF1EE10FA0CD0144B3046C6
S315080104601968144B0AF12602FFF77EFEE9E6012216
S31508010470CDE90322BDE60E4F0F4D0E4B39680AF141
S3150801048026020020FFF770FE2B7B012B3FF4DBAE23
S31508010490174B396800201870324603F03FFA334685
S315080104A0D1E600BFE8020020080000206102002012
S315080104B010000020C3030020D003002014000020F0
S315080104C0E4020020C203002060020020C8030020C5
S315080104D020000020E0020020C10300201C000020AB
S315080104E0DE020020C00300202C0000207C02002030
S315080104F08C020020C0020020DF030020AD4EAE4B67
S31508010500AE4A31680020FFF72FFEEB7A012B3FF444
S31508010510BFAEAB4B316800201870012203F0FEF91B
S315080105200123EB729BF8003094F8CB20012B7FF462
S31508010530B7AE012A00F0A38584F8D630A14EA24BA6
S315080105400022196800921046334603F017FC021E72
S3150801055002DD3388AAF822309C490120FFF750FDB5
S3150801056030B19AF8223084F8CD300023A4F8C0308F
S315080105709BF8003099E6964E964B974A31680020CB
S31508010580FFF7F2FDAB79012B3FF4D3AE8C4B316803
S3150801059000201870012203F0C1F90123C9E694F875
S315080105A0D22082B394F8DB200AB184F8DB1094F8E0
S315080105B0DA2012B1002284F8DA2094F8D62012B192
S315080105C0002284F8D62094F8D92012B1002284F8A2
S315080105D0D92094F8D82012B1002284F8D82094F8AA
S315080105E0D52012B1002284F8D52094F8D42012B16E
S315080105F0002284F8D42094F8D320002A40F0B1834D
S31508010600002284F8D220754D754F039A4AB16A784B
S31508010610012A06D0734A127884F8CD200022A4F85C
S31508010620C020049A6A70032B04D994F8CE20002AB4
S3150801063000F03E8494F8D13013B1002384F8D13008
S315080106400E2005F0A5FA0546003D4FF00F0018BF2C
S31508010650012505F09DFA00B10235102005F098FA3A
S3150801066008B10435EDB284F8CB5001F077FB5E4B47
S31508010670187001F079FB5D4B02465D481A6001F07E
S3150801068075FB3B685B4A013310603B6013B97B68B5
S3150801069001337B6019B0BDEC0E8BBDE8F08F564F68
S315080106A00026012103220720C4E92A6784F8D71006
S315080106B006F084F888E5F0EE687AB0EE487A002309
S315080106C0F1EE006AB4EE667AF1EE10FA6B717FF418
S315080106D052AEB7EE007AF4EE477AF1EE10FA07D089
S315080106E0464B474A1968474B0120FFF73DFD49E646
S315080106F0424E444B424A31680020FFF735FD2B79BB
S31508010700012B3FF440AE2E4B3168002018700122B0
S3150801071003F004F9012336E62D4B2F4A19682D4BB0
S315080107200020FFF721FD002303E6F1EE006AB4EE8F
S31508010730667AF1EE10FA40F0EB8294F8D42012B101
S31508010740002284F8D420EA78012A3FF44CAEB4F8A2
S31508010750C430B4F8C4201B0AAAF81630184B52BA8A
S315080107601A80AAF80620284A00201168022203F0F6
S31508010770D5F89BF8003007EE903A94F8CB30F8EEAE
S31508010780E77AF2EE026A07EE103AF4EE667A012289
S31508010790F1EE10FAB8EEC77AEA703FF42DAE94F886
S315080107A0D320002A3FF44DAE002284F8D32000223C
S315080107B048E600BF14000020C2030020E40200201E
S315080107C08C0200206402002018000020DA030020B1
S315080107D020000020C1030020E0020020D0030020F1
S315080107E0C8030020500000205202002054020020B5
S315080107F074C00008580200200000F03F1C000020C9
S31508010800DE020020C003002028000020EB79D64F25
S31508010810012B3FF46EADD4F8B8203B68C4F8B83064
S31508010820D4E92C019B1AD14E7A68C4F8BC200CEE87
S31508010830103ACF4BC3E9000109F024FED6E9042397
S315080108400BF0C0FACB4B00220BF0BCFACA4BB4F83A
S31508010850C420069241EC1B0BB4F8C6001880C74B9E
S31508010860101A1A80C64B80B218800BF031FA8046EE
S31508010870894609F0BDFD02460B464046494643EC0A
S315080108801A2B09F0E5FCBF4B80468946002251EC3C
S315080108901B0B0BF097FA53EC1A2B0BF093FAAEA33A
S315080108A0D3E9002341EC180B404649460BF08AFA76
S315080108B002460B4651EC180B0BF0CEF802460B46D6
S315080108C0069843EC192B0BF003FAB0EE49DAF0EE71
S315080108D069DA02460B46002000210BF0BBF80246F6
S315080108E00B4643EC182BA84B404683ED008B494633
S315080108F0A44B00220BF066FA53EC1B2B0BF062FAA1
S3150801090095A3D3E900238046894651EC1A0B0BF0CF
S3150801091059FA02460B46404649460BF09BF8D6E97A
S31508010920022380468946D6E900010BF04BFA424676
S315080109304B460BF047FA8046894651EC180B09F0ED
S3150801094057FD02460B4651EC180B43EC182B09F0E0
S315080109507FFC002241EC1A0B002351EC190B0BF01A
S31508010960A3FC002840F0848351EC190B00220023D4
S315080109700BF0B8FC002800F0B9839FED797BB0EE47
S3150801098047EAF0EE67EA7F4BB0EE4ABAF0EE6ABA8A
S3150801099051EC1A0B00220BF015FA42464B460BF0A6
S315080109A011FA49EC1A8B53EC182B8046894651ECFF
S315080109B01D0B0BF007FA02460B46404649460BF05B
S315080109C049F8D6E906238046894651EC1E0B0BF0F9
S315080109D0F9F902460B46404649460BF0F3F96B4BCB
S315080109E000220BF0EFF902460B4651EC1A0B43ECC9
S315080109F01A2B644B00220BF0E5F953EC182B0BF07C
S31508010A00E1F953EC1B2B8046894651EC1D0B0BF083
S31508010A10D9F902460B46404649460BF01DF80246EF
S31508010A200B4651EC1A0B0BF0F7FA0BF0ADFC0BF079
S31508010A3071F909F081FA0BF0A7FC9FED557A554B30
S31508010A4007EE900A67EE877A186017EE900A0BF0A0
S31508010A5061F9514BC3E900019AF80A30002B40F0BD
S31508010A603D83012004F0E2FC637A80460BB1002342
S31508010A706372E66A3368012B00F0AF8201234FF0F7
S31508010A800009404633604FF00008337100230A938A
S31508010A90CDE91289CDE91489CDE916890BF028F932
S31508010AA002460B46CDE9082342464B460AF0D4FFD7
S31508010AB09FED2B7BCDE90601B0EE47AAF0EE67AABA
S31508010AC049EC188B0A9A18AB03EBC203DDE9060158
S31508010AD04FEAC20853E906230AF0BEFFCDE9100121
S31508010AE09DED087B08F160030DEB030808ED067B15
S31508010AF059EC1A8B254B1AEE100A002249460BF0BF
S31508010B00C9FB002840F04C821AEE100A234B4946CD
S31508010B1000220AF0A1FF9DED167B8DED087B9DED68
S31508010B20127B8DED0C7B9DED147BCDE90A018DEDD4
S31508010B300E7B51EC180B002200230BF0ABFB0028AF
S31508010B4000F0DE81DDE910010A4B00220BF03AF9CB
S31508010B5026E000BFAFF30080000000C0CCCCF43F14
S31508010B60000000000000F03FC803002000C0000894
S31508010B70B80200200000D03FEA030020E803002065
S31508010B8050020020000010404802002000000840E2
S31508010B9066663642A4020020E00300200000F03F0A
S31508010BA0F7A3D3E900230BF00DF902460B46CDE96D
S31508010BB0102309F0A1FB804689469DED067B86ED4B
S31508010BC0027B9DED0C7B86ED047B9DED0E7B86ED10
S31508010BD0067B9DED087B86ED087B9DED0A7B51EC36
S31508010BE0180B86ED0A7B002200230BF07BFB0028FD
S31508010BF000F0358251EC180BC94B00220AF02AFF86
S31508010C009DED107BC74B83ED007BC74BC6E90C01F5
S31508010C10D3E9000109F070FB42464B460AF01AFF78
S31508010C2094ED1C7BC14AC24BB0EE478AF0EE678A47
S31508010C3021F00049C2E90001CDE90601D3E9002303
S31508010C40494680460BF0BEF853EC182B0AF004FF10
S31508010C500BF07AFBB74A00F5967083B21380DDE98B
S31508010C600601A4F8C230002200230BF03BFBB24B6D
S31508010C70003818BF01201870B04B84F8CF0080F0F7
S31508010C800100187084F8D0000022D4E91E0100235F
S31508010C900BF00AFBAA4B003818BF0120D3E9002341
S31508010CA08AF80A00494640460BF08CF880461CEE45
S31508010CB0100A89460BF00CF895A3D3E900230BF02B
S31508010CC081F802460B46404649460BF07BF853EC41
S31508010CD0182B0AF0C1FE9BF8003007EE903A002265
S31508010CE00023C4E91C01C4E91E23F8EEE77AFFF7DD
S31508010CF000BB944B944A1968944B0020FFF734FAC9
S31508010D000023FFF7C5BA002284F8D620FFF7CDBA2B
S31508010D108F4B904E19680022012384F8D430009233
S31508010D203346104603F02AF8002840F393813278B7
S31508010D3071788AF818208AF81910130219449BF851
S31508010D400020AAF81A3094F8CB30A4F8C41007EE9C
S31508010D50902A07EE103AF8EEE77AB8EEC77AFFF767
S31508010D6041BB002284F8D3204AE40023FFF702BBE3
S31508010D7094F8D320002A40F0B581AA78012A3FF4D5
S31508010D8061ABB4F8C630B4F8C6201B0AAAF810300D
S31508010D90714B52BA1A80AAF80420704A00201168C9
S31508010DA0022202F0BBFD012294F8CB30AA702CE492
S31508010DB0694B6B4A002011681870012202F0AEFDDA
S31508010DC09BF8003007EE103A94F8CB3007EE903ACC
S31508010DD0B8EEC77AF8EEE77A012371E4614BD3E9F5
S31508010DE000014DA3D3E900230AF0ECFFC4E92C0165
S31508010DF00021052000F0ECFC5B4B188094F8CB3001
S31508010E00052B06D14FF2C95303FB00F0800DA4F858
S31508010E10C6000021042000F0DBFC544B188094F82E
S31508010E20CB30042B06D14FF2C95303FB00F0800DDA
S31508010E30A4F8C40094F8CF30B4F8C2108AF80B307D
S31508010E40102094F8D030AAF800108AF80C3004F073
S31508010E507BFD9AF80B1001B101210A2004F0E6FE88
S31508010E609AF80C1001B101210B2004F0DFFE9BF862
S31508010E70003007EE903AF8EEE77AFFF72CBA00222F
S31508010E8084F8D420FFF7AEBA354B394E19680022DB
S31508010E90012384F8D53000923346104602F06EFFDE
S31508010EA000287FF786AA3388AAF81C30FFF781BA8B
S31508010EB0012384F8D1302F4D2F4B00921968104623
S31508010EC02B4602F05BFF021E05DD6B788AF80E30B1
S31508010ED02B788AF80D3029490120FFF791F8002867
S31508010EE03FF4AEAB01239AF80D1084F8CD10002219
S31508010EF0A4F8C02084F8CE3084F8CC30FFF7A0BB24
S31508010F004FF000084FF00009CDE9108955E600BFFA
S31508010F10000000E04D62503F000000401BB98E3FC3
S31508010F200000F03FB0020020E003002098020020F4
S31508010F3048000020AA020020A002002094020020F6
S31508010F403800002014000020E4020020C20300201B
S31508010F5028000020740200208C0200202C000020AA
S31508010F6024000020300000205E0200205C020020E0
S31508010F706C0200206402002018000020D003002023
S31508010F800000006068F9953F000000000000F03F8E
S31508010F900000000000000000000000000000F0BF93
S31508010FA09DED167B8DED087B1FED077BDDE914238F
S31508010FB0DDE908018DED067B0AF04EFD02460B467A
S31508010FC0CDE90E23DDE912230AF046FD1FED127B5A
S31508010FD0CDE90C018DED0A7BABE596ED0A7B51EC6B
S31508010FE0170BB0EE47AAF0EE67AA0BF085F9034690
S31508010FF0013B96ED088B0A9396ED069BD6E90423E9
S315080110004046CDE912238DED168B8DED149B0AF022
S315080110106FFE02460B46CDE90823D6E902230AF0FC
S315080110201BFD96ED0C7BCDE90601B0EE478AF0EE85
S31508011030678A51EC170B002200230BF02BF90028C5
S315080110407FF440AD1FED2E7B0A9B8DED107B4FEA99
S31508011050C30845E59AF818209AF819106DE6002094
S315080110600021CDE59AF812209AF81310FFF7E1B995
S315080110701FED377BB0EE47EAF0EE67EA83E494F8B2
S31508011080D63013B1002384F8D6306B7A1E4E01226E
S31508011090934232701CD01D4B1D4F5A70B4F8C820AC
S315080110A03A800132A4F8C8201A4994F8CD201A705A
S315080110B000208AF808204FF080725A60588008226A
S315080110C0096802F02BFC32789BF80030FFF7F0B87C
S315080110D06B72F7EE007A0026FFF7FDB8012004F0DF
S315080110E0B5F9BEE4002284F8D32046E69FED047BD9
S315080110F0B0EE47EAF0EE67EA45E400BFAFF30080D9
S315080111000000000000000000600200208C020020A0
S31508011110EC0300201800002070B5082184B0402097
S3150801112002F038F9002002F0B5FD5C495C4E5D4DD0
S31508011130032005F087FA5C49072005F019FC5B4B8B
S315080111400020196802F0EEFD594B0020196802F0DB
S31508011150E9FD3168002002F0E5FD0021052000F0D7
S31508011160B5FA0021042000F0B1FA01210A2004F0A1
S315080111702BFD01210B2004F027FD002242F60D016B
S31508011180092004F07FFA4B49092004F023FC0022C8
S315080111901146102004F008FB0021012004F0BEF8D6
S315080111A02A46002442F8384FEA62434A2C70012342
S315080111B011686B60C5E90C332B81204602F0B2FD3C
S315080111C03E4B2046196802F0ADFD3D4B2046196895
S315080111D002F0A8FD3B4B2046196802F0A3FD3A4BE5
S315080111E02046196802F09EFD3168204602F09AFDF4
S315080111F002210E2004F096FC02210F2004F092FC35
S315080112000221102004F08EFC4FF4197000F0B2FB95
S315080112104FF47A7000F0A2FB642000F02BFB2B49F7
S315080112208DF80C4001AA2046CDE9014402F040F9A7
S31508011230012804D0264840F27A7100F00FFE2549AC
S31508011240032005F083FB02F091FE02F099FE224B82
S315080112502249234A1A604FF00130C3E9010140F2DD
S3150801126001149C81EA6A1F4B1168D3E9000301291D
S31508011270C5E92E030FD11C4D002000210024C2E927
S315080112800201C2E90401C2E90601C2E90801C2E98B
S315080112900A45C2E90C0104B070BD00BF40420F0007
S315080112A018000020E8020020B900010810000020FB
S315080112B014000020B5000108200000201C000020B1
S315080112C024000020280000202C00002090D00300D4
S315080112D080C0000865010108D0030020010103014F
S315080112E003010101C80300200000F03F454B1B78AC
S315080112F0012B00D070472DE9F041434A1378012BA1
S3150801130096B005D0414803F06FFB16B0BDE8F081F1
S315080113103F4E0024334614705A78E5B203331AB1A6
S3150801132001340A2CF8D125463A4803F049FE4FF014
S3150801133080603949394A07904FF480634FF4006059
S3150801134008914FF4005100270B94099201244FF498
S3150801135080720D930E904FF480330F912D481092A1
S3150801136007A911930A970C971297CDE91477139445
S3150801137003F0BCFE2146274803F0E4FE03F09CFA7D
S3150801138001A9224801978DF808408DF80970CDE921
S31508011390037705978DF8185003F09CFABDB1013D06
S315080113A0EDB2DFF88080194F023504EB440232446E
S315080113B0032312F8032C02EB420208EB820138469A
S315080113C0E2B2897A013403F0C9FAAC42EDD10020C0
S315080113D003F0C2FE012003F0CDFE012003F0D8FE82
S315080113E00F4A0A48136843F400531360012103F0B6
S315080113F00BFB0121054803F0FDFA0121034803F01F
S31508011400A3FA7FE759000020580000200022014076
S31508011410F0030020106402404C2201401004002011
S3150801142000700040A4C000082DE9F04FA34B1B68CB
S3150801143097B0002B00F0F180A14B019303F11E092F
S315080114409F4DCDF8009004E0009B03359D4200F0C6
S31508011450B880AB78002BF7D06B78002BF4D0994B7A
S315080114601B78002BF0D0954A95F800801768013B48
S31508011470DBB207F14C064C2212FB0369AA4604E0CB
S31508011480B145374600F097804C3639784145F7D152
S31508011490019B002404E001340A2C03F1030305D05F
S315080114A05A78012AF7D11A788A42F4D14C22394658
S315080114B003A80AF0B9FFB86C049A7D6CC30602F05A
S315080114C078418B4200F08E804FF0000C9B4600E07D
S315080114D08C460CF10101C9B216AB03EB810353F833
S315080114E0483C03F0784EF345F2D10CF1020C0B2976
S315080114F09E465FFA8CFC5B4669D90E2910D80FFA0D
S315080115008CF103AA02EB810100E094464A6841F88E
S31508011510042BBCF10E0F0CF10102D2B2F5D9049AD3
S31508011520694931F814C022F07842CCF30B0C6FF0FC
S3150801153078419445139160D900240134E4B216AA7E
S3150801154002EB8402A64652F8482C22F078429445CA
S31508011550F3D80B2C38D8032C0F9A98BF079922F089
S315080115607842A5EB020296BF21F078410CEB020501
S315080115708D18C4F10E0412AAE4B2A2EB840413AACC
S3150801158052F8041D51609442FAD1441C16AA102C33
S3150801159002EB8E0E28BF002443EA0C03384603A942
S315080115A04C224EF8483CCDE914540AF03DFFB145AA
S315080115B037467FF469AF5546009B03359D427FF454
S315080115C048AF17B0BDE8F08F0E2CD2D9DDE7109AD7
S315080115D0032922F0784215441AD92EF0784EA5EB44
S315080115E00E058CE7109A089922F07842154421F0E5
S315080115F078416D1A4FF0010C81E70F9A079922F08D
S315080116007842AD1A21F0784100240D44A646B0E788
S31508011610089921F078416D1A71E72A4E337803EB60
S31508011620C30203EB4203980000F04CFA234B8046B1
S315080116301860234B002837D01A46019315460346EE
S3150801164002F11E0914AC212703E003354D453FF489
S31508011650F7AEAA78002AF8D095F800C004A90022A6
S3150801166041F8042BA14202F10062F9D14C2203A9E7
S3150801167018468DF80CC014970AF0D6FE327802EB9C
S31508011680C201034602EB41024C3308EB8202934244
S31508011690DBD90122142142F2030002F063FE074B53
S315080116A0186800F07BFACBE60122142142F2020007
S315080116B0019303F11E0902F055FEC1E62404002038
S315080116C0F003002002000020100400202DE9F04359
S315080116D0092885B006460D4668D838480478F4B90D
S315080116E0374A384B012702F11401077022F8024BD9
S315080116F08A425C709C7003F10303F7D101214FF410
S31508011700800003F0C3FD4FF48060012103F0E2FD80
S315080117106846CDE90044CDE9024403F001F9DFF852
S31508011720A48008F11E014746434602E003338B4273
S3150801173008D05A78012AF9D11A78B242F6D105B0F9
S31508011740BDE8F083204A06EB46039B0002EB03093A
S31508011750D058012103F09AFDB9F808300093002406
S315080117600323D9F804008DF8043069468DF807403B
S3150801177003F01CFD98F8013008F1030843B1013460
S315080117800A2CF7D10122142142F2010002F0EAFDE6
S3150801179004EB44043B1901223E555A7005B19A706F
S315080117A00A4B01221A7005B0BDE8F0830122142103
S315080117B04FF4005002F0D6FD8FE700BF5900002014
S315080117C010040020F0030020A4C0000858000020DF
S315080117D0092838B505460C4622D8214B1A78012A1C
S315080117E001D0002038BD14B31E4B1C688CB31E4BA8
S315080117F0197889B12378AB420ED00139CBB24C2185
S3150801180011FB0341234603E01A78AA421C4603D07A
S315080118108B4203F14C03F7D1606CC0F3CF0038BD9E
S31508011820012214214FF4005002F09CFDD5E70F4B1D
S31508011830214604E001310A2903F10303D1D05A787C
S31508011840012AF7D11A78AA42F4D1094B33F81100C3
S3150801185038BD142142F2050002F084FD204638BD48
S31508011860590000202404002002000020F003002073
S3150801187010040020034A044BA2FB0020400918600B
S31508011880704700BF1F85EB515400002000B583B097
S3150801189000F07EFD02AC084E44F8040D074D03E046
S315080118A02968204600F0ACFEFFF720FD3378002BAF
S315080118B0F6D0FFF7B9FDF3E7020000205400002037
S315080118C008B5FFF713FD044B1B781BB1BDE80840AB
S315080118D0FFF7AABD08BD00BF0200002000B583B00E
S315080118E000F056FD02AC054D44F8040DFEF7E0FB89
S315080118F02968204600F084FEF8E700BF5C00002056
S3150801190010B584B0002400F03FF802F009FDFEF797
S31508011910C1FBFFF7D5FF052223460092CDE9024414
S31508011920019480220849094800F054FB084B0394A6
S3150801193006211A880748009102940194234606490C
S3150801194000F048FB04B010BD1CC100088D18010841
S3150801195060000020DD18010874C00008034A044B22
S31508011960A2FB002040091860704700BF1F85EB5194
S315080119705C00002080087F28024B96BF80221880D1
S315080119801A8070476000002000F000B8074BC3F1C9
S31508011990006101F5004103F500605A5C03F8012B6B
S315080119A08342FAD1024B00221A7070472C04002098
S315080119B028040020C1F500630133984218DA01446E
S315080119C0884215DADFF834C0F0B40B4C9CF8006095
S315080119D00025FF27225CFF2A00F1010302D0012519
S315080119E027542E4698B28842F4DB15B9F0BC7047E5
S315080119F070478CF80060F9E72C04002028040020C1
S31508011A0040F2FC73984210B502D90024204610BD55
S31508011A10044600F09DF9034B1C5900F09BF920463A
S31508011A2010BD00BF2C040020F8B540F2FC739842A3
S31508011A3000D9F8BD0446094E0D4600F089F9375913
S31508011A4000F088F9BD42F4D000F082F9355100F072
S31508011A5081F9034B01221A70F8BD00BF2C0400203E
S31508011A602804002010B4154A00E01A461368834278
S31508011A70FBD351685418A0420AD041684418A342BE
S31508011A800DD0904203605DF8044B18BF1060704793
S31508011A904068014410464418A3425160F1D1084CEC
S31508011AA02468A342EDD0D3E900349042214403606F
S31508011AB041605DF8044B18BF106070472C8C0020FC
S31508011AC0640000202DE9F041044600F059FC2E4837
S31508011AD00268002A39D02D4B1F683C422FD174B3B6
S31508011AE004F108014B071CBF21F00701083131B386
S31508011AF0DFF8A080D8F800608E4220D3244D2C68E8
S31508011B0003E0226822B12546144663688B42F8D35E
S31508011B100268A24213D0226828682A605A1A102A33
S31508011B2000F1080528D8F61A00223B43C4E9002328
S31508011B30C8F8006000F0F0FC2846BDE8F0810025F1
S31508011B4000F0EAFC2846BDE8F081124F124B3968CD
S31508011B5023F0070347F6F0755E1908397260396094
S31508011B605A510A490660C3E90065094D4FF0004715
S31508011B702B606A600F60B0E7631818465A606160A7
S31508011B80FFF770FF6368CEE7640000206800002055
S31508011B902C8C00206C000020340C002000283AD040
S31508011BA038B51D4D50F8043C2A681342044610D036
S31508011BB050F8081CD9B14FF48671184800F04EF94F
S31508011BC02A6854F8043C134202D054F8081C71B12F
S31508011BD038BD40F20B11114800F040F954F8083CA1
S31508011BE0002BE8D12A6854F8043C1342F0D023EAC2
S31508011BF0020344F8043C00F0C3FB094A54F8043CC8
S31508011C001168A4F108000B441360FFF72BFFBDE828
S31508011C10384000F081BC70476800002030C10008D8
S31508011C206C000020014B1868704700BF6C0000204B
S31508011C300C490D484B6830B4C3F5C332A03264234E
S31508011C4003FB02F3094D0A4C5B09A5FB0323027842
S31508011C50C3F3C7139A42237038BF037000234B603E
S31508011C6030BC70473C8C0020358C0020C55A7C0A54
S31508011C70348C002070B50D4606460AF0C1FC0446B0
S31508011C8028460AF0BDFC844201D0002070BD6CB123
S31508011C9032782B789A42F8D1002303E0F15CEA5CAA
S31508011CA09142F2D10133DBB29C42F7D8012070BDD3
S31508011CB000B51D4D1D481E4B83B00024009301221B
S31508011CC004602C706C602C72234642F2107119481C
S31508011CD0194D00F0DBFE2860F0B10446174A184B8F
S31508011CE0002515701D7000F053FB009502462B4622
S31508011CF02046294600F0F0FE012805D001221421CC
S31508011D004FF4805002F02EFB0E4B00221A60FFF7AB
S31508011D10F7FD00F0FDFAFEE7012214214FF4805089
S31508011D2002F020FB2C68D9E73C8C0020488C002067
S31508011D30311C010854C10008388C0020348C00205D
S31508011D40358C002070000020704700BF704700BF27
S31508011D5002F09CBC02F0C0BC03F068BC014B1878C9
S31508011D60704700BF348C0020FFF75CBF70B505468D
S31508011D7002F08CFC114B1C688CB106462946A068FA
S31508011D80FFF778FF012805D10DE0A068FFF772FF7C
S31508011D90012808D024692946002CF6D1304602F0DC
S31508011DA09BFC204670BD6468304602F095FC2046CF
S31508011DB0002CF7D000F070FD800070BD488C002023
S31508011DC02DE9F041804614200F461446FFF77AFEA6
S31508011DD0054628B30023C5E90343C5E9018702F08F
S31508011DE055FC134E074602F051FC346802460CB9FD
S31508011DF00DE01C462369002BFBD1104602F06CFC52
S31508011E00256138462C60BDE8F04102F065BC02F058
S31508011E1063FC2C6035603846BDE8F04102F05CBCD5
S31508011E20012214214FF4805002F09CFAD2E700BF38
S31508011E30488C0020074A138801339BB2092B13806B
S31508011E4005D905490B68002001330B60108003F0A2
S31508011E500FBB00BF7400002070000020012214216E
S31508011E604FF4805002F07EBA054B1A78012A00D049
S31508011E7070471A7A002AFBD15A6801325A607047AC
S31508011E803C8C002008B502F001FC044B012100221C
S31508011E9019701A72BDE8084002F01EBC3C8C00207D
S31508011EA0014B00221A7070473C8C002008B5034C80
S31508011EB02368012BFDD902F0DDFBF9E7548C0020DC
S31508011EC00D4B0E4A19681268486082420DD80C4AB1
S31508011ED010B5044610681968043104F0CDFF094BA2
S31508011EE01A68A24288BF1C6010BD074A10681968A3
S31508011EF0043104F0C1BF00BF78000020A000002013
S31508011F004C8C002094000020508C00202B4B2DE98E
S31508011F10F0410022DFF8B880294E1A60D8F800206F
S31508011F2033689A4247D0D8F80020D8F800301268AA
S31508011F301B6B9A4233D9234C234D236803EB830346
S31508011F4055F823309BB9214F08E02368013B2360EC
S31508011F50236803EB830355F8233043B92368002B21
S31508011F60F3D140F252713846FFF778FFEDE723685F
S31508011F7003EB83039B00E91808334A6852684A60F1
S31508011F801D44AA4204BF52684A60D368C8F80030A3
S31508011F90D8F8002033689A4209D0BDE8F081D8F80C
S31508011FA00000D8F80010343104F0D2FEC3E7BDE8CA
S31508011FB0F041FFF767BFFFF773FFB4E7A4000020FE
S31508011FC0900000208C000020548C002068C1000875
S31508011FD0780000202DE9F84FDDF830B08A469146A1
S31508011FE09846DDE90A570646002800F0A7800D2D18
S31508011FF000F287804820FFF765FD0446002800F0B7
S315080120008C804FEA8909BBF1000F00F09D80C0F86A
S3150801201030B04A46A52158460AF0A0FA236BA9F121
S315080120200409994429F007090AF1FF330AF10F0156
S3150801203004F1330201E08B4207D013F9010F02F8CC
S31508012040010F93F900000028F5D10D2D4FF000037B
S31508012050AB4604F1040A28BF4FF00D0B84F8433050
S315080120605046C4F82CB0C4F844B004F0F1FE04F1AB
S31508012070180004F0EDFECBF10E03A361246164623E
S3150801208042463146484602F0D1FA206007B13C6023
S3150801209002F014FB444A454E136801331360336852
S315080120A0002B3ED0424F3B681BB3DFF824814148E1
S315080120B0E26A03680133036004F134012046FFF73D
S315080120C07FFE3D4BE06A1A68904288BF186000EBB4
S315080120D0800008EB8000514604F0BEFE02F000FBCA
S315080120E03B681BB13368DB6AAB4222D30120BDE8EA
S315080120F0F88F3368DFF8D880DB6AAB4298BF346063
S31508012100D5E740F2ED112D48FFF7A8FE4820FFF765
S31508012110D9FC044600287FF474AF4FF0FF30BDE8C0
S31508012120F88F34601368DFF8A880012B1AD0204F86
S31508012130BDE702F09FFA0120BDE8F88F4FF4F6716A
S315080121401E48FFF78BFE52E74846FFF7BBFC83465E
S31508012150206300287FF45DAF2046FFF71FFD4FF08F
S31508012160FF30C4E7474608F58C793846143704F03A
S3150801217063FE4F45F9D1DFF85CB0DFF85C900C4F90
S31508012180584604F059FE484604F056FE0C4804F039
S3150801219053FE0C4804F050FE0B4A0C4BC2F800B033
S315080121A0C3F8009083E700BF7C0000207800002078
S315080121B09C000020880000208C00002068C10008CF
S315080121C0948D0020A88D00204C8C0020508C002076
S315080121D0548C00206C8D0020808D0020F8B50446B3
S315080121E0194E02F06BFA1CB3251D284604F05EFE53
S315080121F0A36A1BB104F1180004F058FE134F2946CF
S31508012200384604F029FE02F06BFA3368A34200D07F
S31508012210F8BD0F4B1B687BB90E4A396812689142A3
S3150801222008D00D4B1B685BB10C4B01221A60F8BD37
S315080122303468D9E73360F8BDBDE8F84002F01ABA48
S31508012240BDE8F840FFF762BE78000020A88D00209F
S315080122509C0000207C00002084000020A4000020AF
S3150801226010B5044668B10A4B62699A4201D000204A
S3150801227010BDA06A074B9842F9D0B0FA80F0400920
S3150801228010BD40F259410448FFF7E8FDEBE700BFEE
S31508012290A88D0020948D002068C1000888B170B50A
S315080122A0174D2B6883420BD0044602F007FA2046E5
S315080122B0FFF7D6FF012809D0BDE8704002F010BA31
S315080122C070BD40F27A410F48FFF7C8BD261D30465A
S315080122D004F0ECFD0C4AE36A11680C488B4288BF8E
S315080122E0136003EB830300EB8300314604F0B4FD6E
S315080122F02B68E26ADB6A9A42DED302F0BBF9DBE7B6
S315080123007800002068C100088C000020548C002049
S3150801231030B585B00024144A0192CDE902440094EF
S315080123202346802211491248FFF754FE01280BD093
S3150801233005460DB105B030BD0E4840F21F5105B036
S31508012340BDE83040FFF78ABD00F07CFB0128054651
S31508012350EFD102F09BF9084A084B15601C6005B0DD
S31508012360BDE8304002F024BA9000002060C10008A0
S31508012370AD1E010868C100089C000020A0000020CD
S31508012380024A136801331360704700BF84000020B6
S3150801239010B502F093F9034B1C6802F0A1F9204627
S315080123A010BD00BFA00000202DE9F04F4E4B1B6861
S315080123B083B0002B7BD14D4B1A6801321A601F6816
S315080123C00FB34B4B0193019B1B68BB4237D9DFF80F
S315080123D03C81DFF83C910025D9F80030454ADB6A93
S315080123E0126803EB830358F82330022B28BF012513
S315080123F0002A64D0404B1B68002B0CBF28460120DD
S3150801240003B0BDE8F08F3D4E33681B68002B64D1DD
S315080124103B4B31683B4A18683060196013680133D1
S31508012420136033681B68002B4CD1314B01931A4654
S315080124304FF0FF331360019B1B68BB42C7D82F4E71
S31508012440DFF8C880DFF8C890DFF8C8A0002525E0C6
S315080124503368DB68DC68636804F1040B9F425846FD
S3150801246038D304F023FDA36A04F118000BB104F074
S315080124701DFDE36ADAF8002003EB8300934259460F
S3150801248008EB800088BFCAF8003004F0E5FCD9F8EB
S315080124900030E26ADB6A9A4228BF012533681B6865
S315080124A0002BD5D1019A4FF0FF33136094E7114AF7
S315080124B01368013313600025FFF7BCFC9AE7FFF7A1
S315080124C0B9FC97E733680A4ADB680192DB685B68FF
S315080124D0136078E7019A13607EE740F25B610A4868
S315080124E0FFF7BCFC94E700BF84000020A000002091
S315080124F09400002080000020A40000204C8C0020BD
S31508012500508C00209800002068C10008548C0020D7
S31508012510780000208C0000202DE9F0472F4C236815
S31508012520002B51D002F0CAF82368013B23602368C7
S31508012530002B43D12A4B1B68002B3FD0DFF8B4A0F0
S31508012540284E294FDFF8B090DFF8B0801EE0F36817
S31508012550DC68251D04F1180004F0A8FC284604F0DF
S31508012560A5FCE36A3A6803EB83009342294609EB23
S31508012570800088BF3B6004F06FFCD8F80030E26A3F
S31508012580DB6A9A4224BF0123CAF800303368002B5C
S31508012590DDD1164C23686BB123685BB10125FFF7C2
S315080125A003FF08B1CAF800502368013B236023687A
S315080125B0002BF4D1DAF80040012C0BD0002402F0EC
S315080125C08FF82046BDE8F08740F25A510848FFF7D0
S315080125D045FCA7E702F04EF8F1E700BF84000020AA
S315080125E07C000020948D00208C00002080000020B3
S315080125F068C10008A4000020548C0020780000203F
S3150801260038B50C460546002836D03CB31F49204844
S315080126100A682B6801320A6001681C192CBF01205F
S3150801262000208B4222460DD860B32C60194B1868DE
S31508012630043004F03BFC2046FFF742FCFFF76CFF31
S3150801264040B138BDB0B1A1422C60EFD3FFF764FFAA
S315080126500028F6D1BDE8384002F00CB840F2BF2197
S315080126600D48FFF7FBFB094909480B682A6801333E
S315080126700B6003682A60E1E740F2BE210648FFF7CE
S31508012680EDFBC2E7A142D0D3F4E700BF84000020E6
S31508012690A00000207800002068C10008044B1B68D0
S315080126A00BB9FFF733BC034B01221A60704700BF11
S315080126B084000020A400002070B50E460546C8B166
S315080126C00F4C21682846183104F0D6FB20680430DF
S315080126D004F0ECFB731C06D00A4B18683044BDE8BD
S315080126E07040FFF7EDBB216807480431BDE870402B
S315080126F004F0B2BB40F265710448FFF7AFFBDFE7B0
S3150801270078000020A0000020A88D002068C10008DC
S3150801271070B50E46054680B10B4C2168284618311E
S3150801272004F09AFB2068043004F0C0FB074B1868D4
S315080127303044BDE87040FFF7C3BB40F29B710448C3
S31508012740FFF78CFBE8E700BF78000020A000002017
S3150801275068C1000838B5C368DC684CB304F11805CC
S31508012760284604F0A3FB154B1B68E3B9251D28462B
S3150801277004F09CFB124AE36A116812488B4288BF2F
S31508012780136003EB8303294600EB830004F064FB23
S315080127900D4BE26A1B68DB6A9A4223BF0B4B012089
S315080127A01860002038BD2946094804F055FBEFE7B3
S315080127B040F2D1710748FFF751FBCFE784000020AB
S315080127C08C000020548C002078000020A4000020F2
S315080127D0948D002068C1000810B5044630B1064A38
S315080127E0064B12681B68C4E9002310BD40F2F77155
S315080127F00348FFF733FBF2E798000020A00000200A
S3150801280068C10008F8B50D46044658B38DB301F002
S3150801281055FF2B681A4A581C11681ED0DFF868C084
S31508012820D4E90060DCF80070BE4201D081420FD2C3
S315080128300F1ABB420CD95B1ADCF800101268034464
S315080128402B600025C4E9001201F04AFF2846F8BDAD
S31508012850012501F045FF2846F8BD002501F040FF96
S315080128602846F8BD40F601010648FFF7F7FA002D9C
S31508012870CDD140F602010348FFF7F0FAC7E700BFDA
S31508012880A000002068C1000898000020014B012221
S315080128901A607047A400002068B1036B1A78A52A4C
S315080128A04FF000000FD113F8012F0130A52A80B28D
S315080128B0F9D080087047044B1868036B1A78A52A63
S315080128C04FF00000EFD0704778000020014B1868E0
S315080128D0704700BF78000020044B186828B1044BE4
S315080128E01B68002B0CBF0120022070479C000020AA
S315080128F084000020B8B1F8B5164DC36A2A68D26AB1
S3150801290093420FD22A68144ED26A416903EB8303B4
S3150801291006EB8303C2F10E029942826104D02B6849
S31508012920DB6AC362F8BD7047071D0446384604F0E2
S31508012930BDFA2A68094BD06A1A68E062904200D942
S31508012940186000EB800006EB80003946BDE8F840C8
S3150801295004F082BA78000020548C00208C000020F4
S31508012960F0B138B5C26A436C9A4218D0051D0446BF
S31508012970284604F09BFA0B4A636C1168E362C3F1BB
S315080129800E008B42A061084888BF136003EB8303DE
S31508012990294600EB8300BDE8384004F05DBA38BD2E
S315080129A0704700BF8C000020548C0020F8B50F4CEE
S315080129B001F084FE25681DB1BDE8F84001F090BE1E
S315080129C00B4F0C4E384604F037FA304604F034FA09
S315080129D0094A0A4B17600C212A4606201E6004F094
S315080129E041FB2060BDE8F84001F07ABEAC0000204A
S315080129F0C48D0020D88D0020BC8D0020C08D0020FC
S31508012A00914208B50061416005D88169D21A8A42A6
S31508012A100CD3012008BD9A4201D29942F9D2074B3B
S31508012A20011D186804F028FA002008BD044B011D91
S31508012A30186804F021FA002008BD00BFBC8D0020EB
S31508012A40C08D002000B585B0FFF7B0FF0B4B1B68A2
S31508012A505BB100230222CDE90023CDE902338022AE
S31508012A6007490848FFF7B6FA20B90748E021FFF7F2
S31508012A70F5F9002005B05DF804FB00BFAC000020A5
S31508012A80B0C10008B52B01088CC100082DE9F04139
S31508012A900D46B1B18046282017461E46FFF712F8A3
S31508012AA0044658B1FFF782FF069BC4F80080C4E9C3
S31508012AB0065726626362201D04F0CAF92046BDE85E
S31508012AC0F0814FF4847103482C46FFF7C7F9204675
S31508012AD0BDE8F0818CC1000870B5134E346884B026
S31508012AE064B11D46CDE90112039053B11A46204639
S31508012AF0002301A904F076FB04B070BD204604B09A
S31508012B0070BDFFF7E9FE012807D030682B462A4633
S31508012B1001A904F0CDFA04B070BD2B463068089AB5
S31508012B2001A904F0C5FAE7E7AC0000202DE9F04752
S31508012B301D4DDFF87C8082B04FF0000A0DE0DB689E
S31508012B40DC681F6804F10409484604F0AFF9636AB2
S31508012B5020469847E369012B0AD02B681A68002A90
S31508012B60EDD1124A11682960136002B0BDE8F087F9
S31508012B70A6693E440023B74219463A46204606D27C
S31508012B80666024612868494604F076F9E5E7CDF8D8
S31508012B9000A0FFF7A1FF0028DFD140F282214046BD
S31508012BA0FFF75CF9D9E700BFBC8D0020C08D002076
S31508012BB08CC100082DE9F04FDFF874A15B4FDFF8EF
S31508012BC07481DFF8749187B04FF0000BDAF80030A2
S31508012BD01D68002D6DD0DB681D68FFF7D1FBFFF777
S31508012BE0D7FB3B68834204466BD88542386073D964
S31508012BF0291BD8F8000004F065FCFFF78DFC0028B6
S31508012C0067D000231A4603A9D8F8000004F054FB3C
S31508012C100028DBD0059C636913B1201D04F046F931
S31508012C20FFF7B6FB3B689842054627D3039E3D60EE
S31508012C30022E29D0032E31D0002EE2D1049BA169A0
S31508012C402A4619442046FFF7DBFE0128D9D1636AD3
S31508012C5020469847E369012BD3D1A369049A0096C4
S31508012C601A44204633463146FFF736FF0028C8D1B5
S31508012C7040F22F214846FFF7F1F8C2E7FFF756FF62
S31508012C80039E3D60022ED5D10499A16151B1294413
S31508012C9020462B462A46FFF7B3FEB2E72046FEF743
S31508012CA07DFFAEE74FF40F714846FFF7D7F8A169E4
S31508012CB0EDE7FFF765FBFFF76BFB3B6898420446B8
S31508012CC005D2FFF733FF3C60FFF726FC99E73C6026
S31508012CD08EE701F0CFFC94E7FFF71EFCDAF8003027
S31508012CE0DB68DE68301D04F0E1F8F369012B03D0D7
S31508012CF0736A3046984784E7B169224629442B46C8
S31508012D003046FFF77DFE0128F2D10023CDF800B049
S31508012D102A4619463046FFF7DFFE0028E8D14FF468
S31508012D20AD714846FFF79AF8E2E700BFA800002010
S31508012D30BC8D0020AC0000208CC100082DE9F043B1
S31508012D40404E414D414FDFF80891DFF8088189B0BF
S31508012D5000234FF0FF3201A9306804F0ADFA0128CB
S31508012D6005D00122142142F2081001F0FBFA9DF860
S31508012D700440012C05D90122142142F20C1001F05C
S31508012D80F1FA2B5D012BE3D19DF80530032B51D8C0
S31508012D90DFE803F03F2413029DF8043057F8332087
S31508012DA01AB1012090479DF8043007EBC3035B680D
S31508012DB0002BCDD001209847CAE79DF8043057F873
S31508012DC033201AB1002090479DF8043007EBC3035E
S31508012DD05B68002BBCD000209847B9E79DF8043002
S31508012DE058F8334044B1079B9DF8101003980DF12C
S31508012DF01102A0479DF8043008EBC3035C68002C58
S31508012E00A6D0079B9DF8101003980DF11102A04753
S31508012E109EE79DF8043059F833201AB10398904774
S31508012E209DF8043009EBC3035B68002B90D0039827
S31508012E3098478DE70122142142F2091001F092FA0E
S31508012E4086E700BF208E00201C8E0020EC8D002016
S31508012E500C8E0020FC8D00202DE9F047414C424D97
S31508012E60424FDFF80C818CB0002600234FF0FF3269
S31508012E7006A9206804F020FA012805D001221421A8
S31508012E8042F2071001F06EFA9DF81830012B41D86D
S31508012E909DF82020082A43D8EB5C002B40D0DDF8AA
S31508012EA01C908DF80E2019F0804348D18DF80D300D
S31508012EB072B10DF12203013A53FA82F20DF10F01B3
S31508012EC00DF1210313F8010B01F8010B9A42F9D10F
S31508012ED04B46002B3ADBCDE901368DF80C60CDF86F
S31508012EE01C90FEF735FF9DF8183003EB83038246E5
S31508012EF001A957F8330001F0A9FE04282ED09DF840
S31508012F00183003EB43030344504648F82390FEF771
S31508012F1021FFAAE70122142142F20C1001F022FA3C
S31508012F200123002206A9206804F0C2F800289CD1D2
S31508012F300122142142F2041001F014FA95E7022342
S31508012F408DF80D3029F08043002BC4DA23F00043B5
S31508012F500422CDE901638DF80C20C0E75046FEF73F
S31508012F60F9FEDDE7348E00201C8E002004C200081D
S31508012F70408E0020F0B500EB8002174B53F8325013
S31508012F8089B00446002628464FF48061009601F070
S31508012F9061FF012802D0009809B0F0BD0F4A8DF8EB
S31508012FA004400746032410688DF8054033466A46EF
S31508012FB001A904F017F938B128464FF4806101F0E8
S31508012FC0B9FF009809B0F0BD3A46142142F206103D
S31508012FD001F0C8F9F0E700BF04C20008208E0020FE
S31508012FE02DE9F04300EB8002534B8FB053F8326062
S31508012FF08DF81C000546002430460221CDE900441F
S3150801300001F028FF01280AD00821304601F022FFE5
S31508013010012805466BD000980FB0BDE8F08303463A
S31508013020214630468DF81D3001F0B4FE04460028CD
S3150801303048D0DFF81091DFF8108164270CE0029A76
S3150801304009929DF811204AB3099B43F080430993DD
S31508013050013C14F0FF0435D002AA0021304601F0E4
S3150801306049FEFFF795F959F825309DF810208DF896
S31508013070205007FB00F0A8FB0010C3EB90109DF849
S3150801308012300D908DF82830002AD8D0039A42F0D4
S31508013090004209929DF81120002AD5D1002BD7D0DC
S315080130A0013B05AA52FA83F20DF129010DF1130329
S315080130B013F8010B01F8010B9342F9D1013C14F005
S315080130C0FF04C9D11D4A0023106807A901AA04F003
S315080130D089F818B3019B3046012B4FF0020108BF4E
S315080130E0009301F027FF00980FB0BDE8F083134A5B
S315080130F02346106802246A4607A98DF81D4004F084
S3150801310071F890B130460E4901F08CFE304608211F
S3150801311001F010FF00980FB0BDE8F08301221421D9
S3150801312042F2061001F01EF9D4E72A46142142F2AA
S31508013130061001F017F9E5E704C20008208E002001
S31508013140100000322C8E0020D34D62102DE9F04379
S3150801315000EB8002534B8FB053F832608DF81C0098
S315080131600546002430461021CDE9004401F072FEDF
S3150801317001280AD04021304601F06CFE0128054697
S315080131806BD000980FB0BDE8F08303460146304680
S315080131908DF81D3001F0FEFD0446002848D0DFF801
S315080131A01091DFF8108164270CE0029A09929DF8C4
S315080131B011204AB3099B43F080430993013C14F05B
S315080131C0FF0435D002AA0121304601F093FDFFF72D
S315080131D0DFF859F825309DF810208DF8205007FBA7
S315080131E000F0A8FB0010C3EB90109DF812300D906B
S315080131F08DF82830002AD8D0039A42F00042099265
S315080132009DF81120002AD5D1002BD7D0013B05AA5C
S3150801321052FA83F20DF129010DF1130313F8010B8B
S3150801322001F8010B9342F9D1013C14F0FF04C9D10D
S315080132301D4A0023106807A901AA03F0D3FF18B392
S31508013240019B3046012B4FF0100108BF009301F096
S3150801325071FE00980FB0BDE8F083134A2346106843
S3150801326002246A4607A98DF81D4003F0BBFF90B1F9
S3150801327030460E4901F0D6FD3046402101F05AFE8E
S3150801328000980FB0BDE8F0830122142142F206101E
S3150801329001F068F8D4E72A46142142F2061001F033
S315080132A061F8E5E704C20008208E0020100000340A
S315080132B02C8E0020D34D6210F0B500EB80022E4B08
S315080132C053F8325089B00446002628460121009653
S315080132D001F0C0FD012802D0009809B0F0BD2749C8
S315080132E0284601F075FD01282ED02549284601F00A
S315080132F06FFD0128074633D02249284601F068FDAB
S31508013300012833D040F2FE311F48FEF7A7FD04EB32
S3150801331044031E441D4A1E4B52F826101868039191
S31508013320002633466A4601A98DF804408DF80840FF
S315080133308DF8056003F056FF58B12846012101F0C2
S31508013340F9FD009809B0F0BD0C49284601F06AFD5F
S31508013350DDE70122142142F2061001F003F8ECE739
S315080133600749284601F05EFD3E46D0E7054928464D
S3150801337001F058FD0226CAE704C200080100003818
S315080133800001003800000138D8C10008408E00202D
S31508013390208E0020F0B5384A384DDFF810C1384C78
S315080133A0384E394F308000230128C2E90033C2E97B
S315080133B00233C5E90033C5E90233ACF80030C4E984
S315080133C00033C4E902339CBF0223338003293980C1
S315080133D09CBF04213980084685B000221C2103F0D0
S315080133E041FE2A4B186000283FD030880022182158
S315080133F003F038FE264B186080B3264D2649274828
S3150801340000230A2200920393CDE901538022FEF795
S31508013410E1FD012805D00122142142F2021000F033
S31508013420A1FF1F4C1F492048002302220092039343
S31508013430CDE901438022FEF7CDFD012805D0012201
S31508013440142142F2031000F08DFF2868FEF7C6FE2C
S31508013450206805B0BDE8F040FEF7C0BE0122142180
S3150801346042F2011000F07EFFC7E7012214214FF452
S31508013470045000F077FFB8E7EC8D00200C8E002091
S31508013480FC8D0020388E0020248E0020208E0020FE
S31508013490348E0020288E0020B8C100083D2D010871
S315080134A03C8E0020C8C10008592E01081C8E002038
S315080134B02DE9F04F01288DB006460F46924600F2D7
S315080134C0698100F05B8100230093D54B4FEA860999
S315080134D009EB060403EBC4040121606801F0EEFE62
S315080134E0A068012101F0D2FE6069012101F0CEFE3A
S315080134F0D4F80CB094F82050618A58462A4601F04F
S31508013500AFFED4F81880E18B2A4640460CAD01F08F
S31508013510A7FE228A45F8242D022358464FF0010CAE
S3150801352029464FF0000B8DF810308DF811308DF8C3
S3150801353013C08DF812B001F039FEA38B0393294607
S31508013540404601F033FEA7F59C53B649083B8B422A
S3150801355000F21C81DAF80030B3F1005F80F01681C1
S31508013560DAF80430B3F1005F80F010819AF8083078
S31508013570022B00F20B81AC49AC484FF00808A1F1C7
S315080135803F0C454643464FF0640E08E08C4500F073
S31508013590FD8091F83C3091F83D5091F83E801D44EC
S315080135A0EDB26B1C4344DBB207FB03F4B0FBF4F446
S315080135B0A2B203FB02F31446013AB2F5806FA1F1F8
S315080135C00301E3D2B0FBF3F3DB1B0EFB03F3B3FBFF
S315080135D0F7F313F0800F0CBF0122FF2213FB02F34E
S315080135E05BB2022BD2DCFEF7B3FB09EB06038C4A6E
S315080135F0019052F83370384601F010FA013D05A8DA
S3150801360001F016FB4FF0000B08F1FF388DF8185042
S3150801361005A9012538468DF81980ADF814408DF8AD
S315080136201AB08DF81BB08DF81CB08DF81DB08DF849
S315080136301EB0ADF816B08DF81F5001F00DFA009BBB
S315080136409AF808805C19B8F1000F00F0FB80A845CC
S3150801365040F0A980DAE900219DF800308DF82A307A
S31508013660C9000B0CD20041F00401ADF8203008A8BE
S31508013670130C42F004028DF82BB08DF82C808DF8CE
S315080136802D80ADF828B0ADF82210ADF82430ADF88C
S31508013690262001F055FA08A88DF82A40ADF82880A9
S315080136A001F04EFA012E05D90122142142F20C101D
S315080136B000F058FE5A4BB14403EBC9090CAD99F811
S315080136C0213005F8283D01240F22002328468DF8CC
S315080136D009208DF80A308DF80B4000F065FF99F83E
S315080136E022308DF80830284600F05EFF99F823301D
S315080136F08DF80830284600F057FF99F824308DF8E0
S315080137000830284600F050FF22462146384601F087
S3150801371055FB22460221384601F050FB224610216C
S31508013720384601F04BFB22460821384601F046FB94
S3150801373022464021384601F041FB22464FF480617A
S31508013740384601F03BFB3A4B9C55FEF721FE3949B9
S31508013750394A642303FB00F3A1FB03139B09019870
S3150801376042F82630FEF7F6FA344B1868FEF796FD4E
S31508013770334B1868FEF792FD204608E001464FF0E4
S31508013780007001F09BFD0E2300939EE600200DB00C
S31508013790BDE8F08F0122142142F20C1000F0E2FD7F
S315080137A00023009391E6DAE90021520142F008026A
S315080137B0490192B289B29DF800308DF82A3008A8DD
S315080137C0ADF82420ADF82620ADF82010ADF822106A
S315080137D08DF82BB08DF82CB08DF82D50ADF828B09A
S315080137E001F0AEF9DAE90032D200DB004FEA124CF9
S315080137F0190C42F0040243F0040308A88DF82C5072
S315080138008DF82A40ADF82850ADF820C0ADF8222031
S31508013810ADF82410ADF8263001F092F942E700BF61
S3150801382004C20008B82E0F0054C2000880DE8002C8
S315080138301C8E0020D34D62102C8E0020288E00206D
S315080138403C8E0020DAE900325B0143F0080352019D
S315080138509BB292B29DF800108DF82B8008A88DF8BE
S315080138602C808DF82D508DF82A10ADF82880ADF8EA
S315080138702430ADF82630ADF82020ADF8222001F02D
S315080138805FF908A88DF82A40ADF8285001F058F9D3
S3150801389008E700BF0128F8B504460E4606D80129EF
S315080138A031D81C4B1D5DCDB92846F8BD012214211E
S315080138B042F20C1000F056FD012E05D90122142101
S315080138C042F2051000F04EFD0122142142F20C10BD
S315080138D000F048FD0F4B1D5D002DE5D0FEF738FAC7
S315080138E004EB84040C4B074653F834003EB101F04F
S315080138F061FA05463846FEF72DFA2846F8BD01F065
S3150801390055FA0546F6E70122142142F2051000F0A0
S3150801391029FDC6E71C8E002004C20008F0B501285F
S3150801392089B006460F4615461C4605D901221421BB
S3150801393042F20C1000F016FD8DF8086003978DF819
S3150801394010505DB1691E54FA81F1631E0DF1110221
S3150801395013F8010F02F8010B8B42F9D1184C2068B4
S3150801396003F0A2FD174B1B88181A012814D92068E1
S31508013970002301AA02A903F035FC18B10124204647
S3150801398009B0F0BD0122142142F2041000F0EAFC4C
S315080139900124204609B0F0BD30460121FFF77AFF20
S315080139A0044618B10024204609B0F0BD01221421AD
S315080139B042F2041000F0D6FC204609B0F0BD00BF63
S315080139C0348E0020388E0020012838B504460D466D
S315080139D005D90122142142F20C1000F0C3FC074B51
S315080139E053F834202AB103EBC402526802B138BD38
S315080139F0012202EB440243F8225038BD0C8E002006
S31508013A00012838B504460D4605D90122142142F28A
S31508013A100C1000F0A7FC074B53F834202AB103EB2E
S31508013A20C402526802B138BD012202EB440243F8CE
S31508013A30225038BDFC8D002010B5FEF785F900200F
S31508013A40FFF7CEFA0446FEF781F91CB1024B4FF097
S31508013A5080521A6010BD00BF04ED00E010B5FEF7F4
S31508013A6073F90020FFF772FB0446FEF76FF91CB1E4
S31508013A70024B4FF080521A6010BD00BF04ED00E002
S31508013A8010B5FEF761F90020FFF716FC0446FEF7AC
S31508013A905DF91CB1024B4FF080521A6010BD00BF90
S31508013AA004ED00E010B5FEF74FF90020FFF762FAC2
S31508013AB00446FEF74BF91CB1024B4FF080521A60CF
S31508013AC010BD00BF04ED00E010B5FEF73DF9012079
S31508013AD0FFF786FA0446FEF739F91CB1024B4FF097
S31508013AE080521A6010BD00BF04ED00E010B5FEF764
S31508013AF02BF90120FFF72AFB0446FEF727F91CB12B
S31508013B00024B4FF080521A6010BD00BF04ED00E071
S31508013B1010B5FEF719F90120FFF7CEFB0446FEF7AB
S31508013B2015F91CB1024B4FF080521A6010BD00BF47
S31508013B3004ED00E010B5FEF707F90120FFF71AFAC0
S31508013B400446FEF703F91CB1024B4FF080521A6086
S31508013B5010BD00BF04ED00E0074B53F8203013B940
S31508013B6007E09B6833B11A688A42FAD15B6803B1E8
S31508013B7018477047704700BF708E00200146012024
S31508013B80FFF7EABF01460020FFF7E6BF2DE9F04738
S31508013B9006463148DDF8208050F826400D4617467E
S31508013BA099464CB12368994203D13FE023689D4267
S31508013BB021D0A469002CF9D1284B53F8263013B922
S31508013BC00DE09B685BB11A68AA42FAD15B68002BC3
S31508013BD03FD0424649463846BDE8F0471847204B8C
S31508013BE053F82640ACB343464A4639462846A446C6
S31508013BF0BDE8F0476047FEF7ABF8277167B107F1F3
S31508013C00FF3C59FA8CFC09F1FF33621D13F8011FB9
S31508013C1002F8011B6345F9D1237DC4F810807E2B78
S31508013C209CBF01332375FEF795F8C5E7FEF790F8B3
S31508013C302771002FF0D007F1FF3C59FA8CFC09F1E6
S31508013C40FF33621D13F8011F02F8011B6345F9D101
S31508013C50E2E7BDE8F08700BF688E0020608E00208D
S31508013C60588E002000B583B0009313460A460146D4
S31508013C700120FFF78BFF03B05DF804FB00B583B0A5
S31508013C80009313460A4601460020FFF77FFF03B05B
S31508013C905DF804FB012870B5044616D8194E1A4D6D
S31508013CA01A491B4A002346F8203045F8203041F8C6
S31508013CB0203042F82030D8B91649FFF785FE20464C
S31508013CC01549BDE87040FFF79BBE0122142142F257
S31508013CD00C1000F047FB0B4D0B480C490C4A00230E
S31508013CE045F8243040F8243041F8243042F824308D
S31508013CF00A490120FFF768FE09490120BDE870401D
S31508013D00FFF77EBE708E0020608E0020688E002030
S31508013D10588E0020853B01087D3C01087D3B010842
S31508013D20653C0108012870B505460E4605D90122EC
S31508013D30142142F20C1000F015FB1C20FDF7C2FEFF
S31508013D40044688B10C49266051F8252000232375BD
S31508013D50A3610AB905E01A469369002BFBD1946160
S31508013D6070BD41F8254070BD012214214FF4085059
S31508013D7000F0F8FAE6E700BF688E00202DE9F04169
S31508013D80012804460D4690461E46069F05D901227E
S31508013D90142142F20C1000F0E5FA194B53F82440AD
S31508013DA04CB12368AB4203D109E02268AA4206D086
S31508013DB0A469002CF9D14FF0FF30BDE8F081FDF779
S31508013DC0C7FFB8F1000F02D0237988F800300FB188
S31508013DD023693B6056B1237943B10022A118551CCA
S31508013DE04979B1542179EAB29142F7D8257D25B9A5
S31508013DF0FDF7B0FF68B2BDE8F0816B1E2375F7E7E2
S31508013E00688E00200128F8B505460F46164605D9DD
S31508013E100122142142F20C1000F0A4FA0C20FDF73D
S31508013E2051FE044688B10C4B276053F8252066607D
S31508013E300021A1600AB905E01A469368002BFBD157
S31508013E409460F8BD43F82540F8BD0122142142F2D9
S31508013E50022000F087FAE6E7608E002000294FD09D
S31508013E602DE9F8434D1E274E274FDFF8B480DFF8BA
S31508013E70B4900544441E0CE01F294FF0010106D8F1
S31508013E800370317089F800203A7088F80020AC4236
S31508013E9022D014F8013F32781C48591E002AEBD06B
S31508013EA098F800203978012A18D099F8002000EBF3
S31508013EB0020C01328CF80130007894F800C0D3B2B4
S31508013EC0984289F8003008BF0123614408BF88F881
S31508013ED00030AC423970DCD1BDE8F8830022994242
S31508013EE0327088F80020D2D109480A490A4A2023A3
S31508013EF003700B7009480223137003F013FCC6E71D
S31508013F00704700BFB2000020788E0020D09E0020A6
S31508013F10B8000020B9000020B1000020D19E002081
S31508013F20F69E0020F29E002070B50D4E054600242F
S31508013F3056F82430AB42E0B204F1010405D0032C53
S31508013F40F6D13368AB4203D070BD03F05FFBF6E7E9
S31508013F50044A054B11881B780B44138070BD00BFBA
S31508013F607C8E0020F49E002034C0000808B502F0BB
S31508013F700FFA0248BDE8084002F044BA5D3E01085E
S31508013F804C4B1A78012A7FD0F0B54B4E4B4D4C4C11
S31508013F9083B001271F7003F0CBFE3378494A009599
S31508013FA003EB830303EB83018900A2FB0131490972
S31508013FB03A4600234448FEF769FD206000286BD085
S31508013FC07378404A009503EB830303EB8301890069
S31508013FD0A2FB01314909002301223C48FEF756FD9F
S31508013FE0606000285FD0B378364A009503EB8303F7
S31508013FF003EB83018900A2FB013149090023012250
S315080140003348FEF743FDA06000283ED02568FEF739
S31508014010BFF900230246009328461946FEF75CFDC0
