S02900002E2E2F48414E636F6465725F453430375F5454415F436F6D62696E654D6F64656C2E73726563F8
S31508004000CCC90020BD89010800000000000000009E
S315080040100000000000000000000000000000000092
S31508004020000000000000000000000000BD5201086A
S31508004030000000000000000059530108A9530108B8
S315080040400000000000000000000000000000000062
S315080040500000000000000000000000000000000052
S3150800406000000000156201080000000000000000C2
S315080040700000000000000000000000000000000032
S31508004080000000000000000000000000E5460108EE
S315080040909D460108C14601080947010800000000BD
S315080040A001620108ED610108D9610108C9610108C9
S315080040B0B5610108A16101088D61010800000000D1
S315080040C000000000000000000000000000000000E2
S315080040D0000000008D6F0108A56F0108BD6F01087B
S315080040E000000000000000008570010800000000C4
S315080040F07961010865610108556101080000000041
S3150800410000000000ED6F010800000000000000003C
S315080041100000000000000000000000000000000091
S31508004120000000000000000000000000F16F010818
S3150800413000000000456201080000000075470108FC
S315080041402D4701085147010899470108B57001082C
S31508004150000000000000000000000000D56F010804
S315080041600000000000000000000000000000000041
S315080041700000000000000000000000000000000031
S311080041800000000000000000EE11AA5527
S3150800C000000000000000F03F000000000000F03FC4
S3150800C010000000000000E03F000000000000F03FC4
S3150800C0200000000000000000000000000000000002
S3150800C03000000000000000000000000000000000F2
S3150800C04000000000000000000001000001010000DF
S3150800C0500100010100000000383F0700000420002D
S3150800C0601000080002010000000000000A0A0A0089
S3150800C07048414E636F6465725F453430375F545488
S3150800C080415F436F6D62696E654D6F64656C5F7382
S3150800C0906F66747761726549445F76315F31353012
S3150800C0A03632335F313630333434000041707043F2
S3150800C0B074726C5461736B0048414E636F646572A9
S3150800C0C05F453430375F5454415F436F6D62696E24
S3150800C0D0654D6F64656C2E6300000000200000004B
S3150800C0E00014024008000900200000000014024065
S3150800C0F010000E00200000000014024020000F006F
S3150800C1002000000000140240400004002000000047
S3150800C11000140240800005002000000000140240C0
S3150800C120000106002000000000140240000207007B
S3150800C130200000000014024000040800040000006B
S3150800C1400008024001000A0004000000000802403E
S3150800C15004000C00414443636F6E76657273696F21
S3150800C1606E5461736B0000002E2E2F626C6F636B2A
S3150800C1707365742F7274772F53544D33322F73723D
S3150800C180632F686561705F342E630000546D7243D7
S3150800C19070754C6F6164000049444C45000000000E
S3150800C1A02E2E2F626C6F636B7365742F7274772FE4
S3150800C1B053544D33322F7372632F7461736B732E1E
S3150800C1C0630000002E2E2F626C6F636B7365742FED
S3150800C1D07274772F53544D33322F7372632F7469E9
S3150800C1E06D6572732E630000546D7220537663007A
S3150800C1F043616E4576656E745461736B000000008A
S3150800C20043616E5472616E736D69745461736B0029
S3150800C2102E2E2F626C6F636B7365742F7274772F73
S3150800C22053544D33322F7372632F53544D33325F49
S3150800C230453430372F63616E2E630000006400407A
S3150800C2400000000208000000000C02400100000087
S3150800C25008000000000C0240020001000913141532
S3150800C26016000000006800400000000402000000FC
S3150800C27000040240200005000200000000040240FD
S3150800C28040000600093F404142000000010102014A
S3150800C2900202020202030202040202030303040367
S3150800C2A0030503030603030504040604040704043C
S3150800C2B0080404070505080505080605080705080E
S3150800C2C007060808060808070808080045764368A8
S3150800C2D06E6C3100457643686E6C3200457643686D
S3150800C2E06E6C33002E2E2F626C6F636B7365742F22
S3150800C2F07274772F53544D33322F7372632F5354FE
S3150800C3004D33325F453430372F6D61632E6300003D
S3150800C3102E2E2F626C6F636B7365742F7274772F72
S3150800C32053544D33322F7372632F53544D33325F48
S3150800C330453430372F706F72742E63000000014049
S3150800C3400100000002010000100000000010024079
S3150800C35000020900100000000010024000080B004F
S3150800C3600004004002000000010200000100000075
S3150800C37000000240400006000200000000040240DF
S3150800C380200005000008004004000000010200002B
S3150800C39008000000000C024000100C000800000015
S3150800C3A0000C024000200D000004014002000000BD
S3150800C3B002030000040000000008024040000600D6
S3150800C3C0040000000008024080000700100000007A
S3150800C3D000100240000100000100080010000000E3
S3150800C3E0001002400004000101000A0010000000CD
S3150800C3F0001002400010000201000C00000001407D
S3150800C40001000000020119000000004001000000C0
S3150800C41001021C00000400400200000001021D0089
S3150800C420000800400400000001021E00000401404C
S3150800C4300200000002012C0000400140000001003B
S3150800C4400201180000440140000002000201190020
S3150800C450004801400000040002011A00001C0040C8
S3150800C4608000000001022C000020004000010000AE
S3150800C47001022D001000000000100240000200001A
S3150800C4800100090010000000001002400008000129
S3150800C49001000B00100000000010024000200002FE
S3150800C4A001000D00100000000010024000400003CB
S3150800C4B001000E00010000000000024020000100FB
S3150800C4C001000500010000000000024040000200D3
S3150800C4D002000600020000000004024020000201DB
S3150800C4E00200050008000000000C024000100300CE
S3150800C4F002000C0008000000000C024000200301A6
S3150800C50002000D000400000000080240400004007C
S3150800C5100300060004000000000802408000040131
S3150800C520030007001000000000100240200005006C
S3150800C530030005001000000000100240400005013D
S3150800C5400300060020000000001402404000060018
S3150800C55003000600200000000014024080000700C7
S3150800C5600300070020000000001402400001080034
S3150800C570090008002000000000140240000209001B
S3150800C580090009000400000000080240010000003C
S3150800C59020000000001402404000000020000000B7
S3150800C5A00014024080000000200000000014024031
S3150800C5B000010000200000000014024000020000F4
S3150800C5C020000000001402400004000002000000E1
S3150800C5D0000402408000000002000000000402403F
S3150800C5E04000000010000000001002400400000097
S3150800C5F010000000001002401000000010000000AB
S3150800C6000010024020000000100000000010024048
S3150800C61040000000400000000018024080000000B2
S3150800C6204000000000180240000100004000000021
S3150800C63000180240001000004000000000180240E8
S3150800C6400080000001000000000002401000000009
S3150800C6500200000000040240200000000100000063
S3150800C66000000240400000000100000000000240F7
S3150800C6702000000008000000000C02400100000035
S3150800C68008000000000C024002000000080000003C
S3150800C690000C02400400000008000000000C0240E4
S3150800C6A00800000008000000000C0240100000000E
S3150800C6B008000000000C02402000000008000000EE
S3150800C6C0000C02404000000008000000000C024078
S3150800C6D08000000008000000000C02400001000075
S3150800C6E008000000000C02400002000008000000DC
S3150800C6F0000C02400004000008000000000C024084
S3150800C7000008000008000000000C024000100000AD
S3150800C71008000000000C024000200000080000008D
S3150800C720000C02400040000008000000000C024017
S3150800C7300080000010000000001002400100000008
S3150800C7401000000000100240020000001000000067
S3150800C750001002400800000010000000001002400F
S3150800C76080000000100000000010024000010000D8
S3150800C7701000000000100240000200001000000037
S3150800C78000100240000400001000000000100240E3
S3150800C7900008000010000000001002400010000011
S3150800C7A010000000001002400020000010000000E9
S3150800C7B00010024000400000100000000010024077
S3150800C7C00080000020000000001402400100000064
S3150800C7D020000000001402400200000020000000B3
S3150800C7E0001402400400000020000000001402406B
S3150800C7F0080000002000000000140240100000009D
S3150800C8002000000000140240200000002000000064
S3150800C8100014024000080000200000000014024036
S3150800C8200010000020000000001402400020000054
S3150800C8302000000000140240004000002000000014
S3150800C840001402400080000040000000001802406A
S3150800C850010000004000000000180240020000002D
S3150800C86040000000001802400400000040000000DC
S3150800C87000180240080000004000000000180240AE
S3150800C88010000000400000000018024020000000D0
S3150800C8904000000000180240400000004000000070
S3150800C8A00018024000020000400000000018024084
S3150800C8B000040000400000000018024000080000C4
S3150800C8C04000000000180240002000004000000060
S3150800C8D0001802400040000001000000000002406D
S3150800C8E001000000040000000008024001000000EA
S3150800C8F02000000000140240400000002000000054
S3150800C90000140240800000002000000000140240CD
S3150800C9100001000020000000001402400002000090
S3150800C920200000000014024000040000020000007D
S3150800C93000040240800000000200000000040240DB
S3150800C9404000000010000000001002400400000033
S3150800C9501000000000100240100000001000000047
S3150800C96000100240200000001000000000100240E5
S3150800C970400000004000000000180240800000004F
S3150800C98040000000001802400001000040000000BE
S3150800C9900018024000100000400000000018024085
S3150800C9A000800000010000000000024010000000A6
S3150800C9B00200000000040240200000000100000000
S3150800C9C00000024040000000010000000000024094
S3150800C9D02000000008000000000C024001000000D2
S3150800C9E008000000000C02400200000008000000D9
S3150800C9F0000C02400400000008000000000C024081
S3150800CA000800000008000000000C024010000000AA
S3150800CA1008000000000C024020000000080000008A
S3150800CA20000C02404000000008000000000C024014
S3150800CA308000000008000000000C02400001000011
S3150800CA4008000000000C0240000200000800000078
S3150800CA50000C02400004000008000000000C024020
S3150800CA600008000008000000000C0240001000004A
S3150800CA7008000000000C024000200000080000002A
S3150800CA80000C02400040000008000000000C0240B4
S3150800CA9000800000100000000010024001000000A5
S3150800CAA01000000000100240020000001000000004
S3150800CAB000100240080000001000000000100240AC
S3150800CAC08000000010000000001002400001000075
S3150800CAD010000000001002400002000010000000D4
S3150800CAE00010024000040000100000000010024080
S3150800CAF000080000100000000010024000100000AE
S3150800CB001000000000100240002000001000000085
S3150800CB100010024000400000100000000010024013
S3150800CB200080000020000000001402400100000000
S3150800CB30200000000014024002000000200000004F
S3150800CB400014024004000000200000000014024007
S3150800CB500800000020000000001402401000000039
S3150800CB602000000000140240200000002000000001
S3150800CB7000140240000800002000000000140240D3
S3150800CB8000100000200000000014024000200000F1
S3150800CB9020000000001402400040000020000000B1
S3150800CBA00014024000800000400000000018024007
S3150800CBB001000000400000000018024002000000CA
S3150800CBC04000000000180240040000004000000079
S3150800CBD0001802400800000040000000001802404B
S3150800CBE0100000004000000000180240200000006D
S3150800CBF0400000000018024040000000400000000D
S3150800CC000018024000020000400000000018024020
S3150800CC100004000040000000001802400008000060
S3150800CC2040000000001802400020000040000000FC
S3150800CC3000180240004000000400000000080240FE
S3150800CC4000200000000001400100000002011B0056
S3150800CC50000000400100000001021C000004004022
S3150800CC600200000001021D00000800400400000048
S3150800CC7001021E00000401400200000002012E000D
S3150800CC800040014000000100020118000044014074
S3150800CC9000000200020119000048014000000400DB
S3150800CCA002011A00001C00408000000001022C004E
S3150800CCB0002000400001000001022D0010000000C5
S3150800CCC000100240000200000200020001000900F4
S3150800CCD010000000001002400008000104002000B7
S3150800CCE001000B00100000000010024000200002A6
S3150800CCF00800000201000D001000000000100240AC
S3150800CD00004000031000002001000E000100000092
S3150800CD100000024020000100020002000100050098
S3150800CD20010000000000024040000200020002006C
S3150800CD300200060002000000000402402000020172
S3150800CD40040020000200050008000000000C024054
S3150800CD50001003000200020002000C000800000098
S3150800CD60000C0240002003010400200002000D0010
S3150800CD70040000000008024040000400020002000F
S3150800CD8003000600040000000008024080000401B9
S3150800CD9004002000030007001000000000100240F5
S3150800CDA02000050002000200030005001000000034
S3150800CDB000100240400005010400200003000600A0
S3150800CDC02000000000140240400006000200020095
S3150800CDD0030006002000000000140240800007003F
S3150800CDE002000200030007002000000000140240B1
S3150800CDF000010800020002000900080020000000E7
S3150800CE00001402400002090002000200090009009D
S3150800CE10001001401000000002250000020000007A
S3150800CE200004024040000600020000000004024020
S3150800CE3080000700070000000044004000000200D0
S3150800CE400126000008000000000C02402000050032
S3150800CE5008000000000C0240400006000700000021
S3150800CE6000480040000004000127000008000000F8
S3150800CE70000C02400001080008000000000C0240F7
S3150800CE80000209000700000000140140200000000D
S3150800CE9002470000040000000008024040000600A7
S3150800CEA00400000000080240800007000800000097
S3150800CEB056435020436F6E666967000056435020FC
S3150800CEC0496E7465726661636500000053544D6966
S3150800CED063726F656C656374726F6E696373000065
S3150800CEE053544D3332205669727475616C20436F02
S3150800CEF06D506F727420696E204853206D6F64659B
S3150800CF000000000053544D3332205669727475611F
S3150800CF106C20436F6D506F727420696E20465320E3
S3150800CF204D6F6465000000003030303030303030EE
S3150800CF30303530420000000030303030303030308C
S3150800CF4030353043000000000000014001000000B9
S3150800CF5002011B00000000400100000001021C0045
S3150800CF60000400400200000001021D000008004005
S3150800CF700400000001021E00000401400200000037
S3150800CF8002012E00004001400000010002011800C5
S3150800CF900044014000000200020119000048014057
S3150800CFA00000040002011A00001C00408000000076
S3150800CFB001022C00002000400001000001022D00A3
S3150800CFC010000000001002400002000002000200EB
S3150800CFD001000900100000000010024000080001CE
S3150800CFE00400200001000B001000000000100240A1
S3150800CFF0002000020800000201000D0010000000D9
S3150800D00000100240004000031000002001000E003E
S3150800D010010000000000024020000100020002009A
S3150800D0200100050001000000000002404000020067
S3150800D030020002000200060002000000000402408E
S3150800D040200002010400200002000500080000007C
S3150800D050000C0240001003000200020002000C004F
S3150800D06008000000000C0240002003010400200014
S3150800D07002000D0004000000000802404000040001
S3150800D0800200020003000600040000000008024037
S3150800D09080000401040020000300070010000000BF
S3150800D0A000100240200005000200020003000500EF
S3150800D0B01000000000100240400005010400200096
S3150800D0C0030006002000000000140240400006008D
S3150800D0D002000200030006002000000000140240BF
S3150800D0E0800007000200020003000700200000007D
S3150800D0F000140240000108000200020009000800AE
S3150800D100200000000014024000020900020002008C
S3150800D110090009002E2E2F626C6F636B7365742FDE
S3150800D1207274772F53544D33322F7372632F717580
S3150800D1306575652E63000000040404004CD10008E0
S3150800D14054D100085CD100080707070045764368F4
S3150800D1506E6C3100457643686E6C320045764368DE
S3150800D1606E6C3300505050004FBB610567ACDD3F15
S3150800D170182D4454FB21E93F9BF681D20B73EF3FF0
S3150800D180182D4454FB21F93FE2652F227F2B7A3C68
S3150800D190075C143326A6813CBDCBF07A8807703C21
S3150800D1A0075C143326A6913CFB21F93FFB21094075
S3150800D1B07CD91240FB2119407A6A1F407CD922404B
S3150800D1C0BBFD2540FB2129403A462C407A6A2F4070
S3150800D1D05C4731407CD932409C6B3440BBFD3540BE
S3150800D1E0DB8F3740FB2139401BB43A403A463C4076
S3150800D1F05AD83D407A6A3F404C7E40405C474140A1
S3150800D2006C1042407CD942408CA243409C6B4440FF
S3150800D210AC344540BBFD4540CBC64640DB8F474056
S3150800D220EB584840FB21494083F9A200444E6E0062
S3150800D230FC291500D1572700DD34F50062DBC00054
S3150800D2403C999500419043006351FE00BBDEAB005C
S3150800D250B761C5003A6E2400D24D42004906E00087
S3150800D26009EA2E001C92D100EB1DFE0029B11C0014
S3150800D270E83EA700F535820044BB2E009CE98400F1
S3150800D280B4267000417E5F00D69139005383390079
S3150800D2909CF439008B5F840028F9BD00F81F3B0019
S3150800D2A0DEFF97000F980500112FEF000A5A8B0032
S3150800D2B06D1F6D00CF7E360009CB2700464FB7009D
S3150800D2C09E663F002DEA5F00BA277500E5EBC700AA
S3150800D2D03D7BF100F739070092528A00FB6BEA00A2
S3150800D2E01FB15F00085D8D00300356007BFC4600C9
S3150800D2F0F0AB6B0020BCCF0036F49A00E3A91D0002
S3150800D3005E619100081BE60085996500A0145F0020
S3150800D3108D40680080D8FF0027734D00060631004F
S3150800D320CA561500C9A873007BE260006B8CC00062
S3150800D33000000040FB21F93F000000002D44743E28
S3150800D340000000809846F83C0000006051CC783B0D
S3150800D35000000080831BF0390000004020257A3841
S3150800D360000000802282E336000000001DF36935C4
S3150800D3700200000003000000040000000600000090
S31508010000002A2CDD01231A460130C0B2022802D982
S315080100100A700020704791F800C010B5164C0CF014
S31508010020030E04EB8E0E154C1EF80330205C0342BA
S3150801003012D01CF0080F4FEA9C000BD1C40613D44A
S3150801004042EA830213F0380F0A7018BF4FF0FF30E7
S315080100500DD010BD5C07F1D50A70002010BD9217AE
S3150801006002F002021346CFE79806F5D4E8E713F043
S31508010070070018BF012010BD5CC0000858C0000861
S315080100800B78FF2B00D070474B78002BFBD102F081
S3150801009095BC00BF08B5012001F030FEBDE8084057
S315080100A0024A40F26761002004F0DEBC81000108C3
S315080100B000F0B2B9704700BF2DE9F041224D234A3D
S315080100C0EB7D234C1370002B3AD094F84E31013353
S315080100D0DBB2204994F851210B701F491F4E84F851
S315080100E04E319A420A7094BF4FF001084FF000084A
S315080100F017D8737B012B14D0194B94F85071D3E997
S3150801010000010CF051FFC0B2B84288BF7B1C154AEA
S315080101108CBFDBB2012384F850311370002384F8B5
S315080101204E31072086F80D8007F026FA00F57A7019
S3150801013081B269800322BDE8F041072007F070B952
S3150801014094F84E31C5E700BF10030020690200206C
S31508010150E8030020D40200205606002048060020A5
S315080101604800002057060020704700BF2DE9F047D8
S315080101702DED028B537A08EE100A8AB00F460BB1A1
S3150801018000235372D56A2B68012B00F08380002265
S31508010190012305F10C0C4FF07E51AA6029636A63AD
S315080101A060462B602B71242200210DF083F801AEE5
S315080101B084460446B04605F12C0920686168A268A0
S315080101C0E3681034C6464C45AEE80F0008F110083E
S315080101D0F3D1DFED547A2068C8F8000038EE277AA3
S315080101E0F0EE676AC7ED007A4FF00009F7EE007A7C
S315080101F00AAB03EB890313ED096A37EE066A4FEA80
S315080102008909F2EE025A09F12803F4EE657A0DEB33
S315080102100309F1EE10FA09ED098A71D0F7EE005AD1
S3150801022077EEA57A0DF12408F5EE406AF1EE10FA9B
S3150801023005D1B2EE045AC6EE055AC7ED005A85ED48
S31508010240027A3446A646BEE80F00C6450CF1100CE4
S3150801025074464CF8100C4CF80C1C4CF8082C4CF84D
S31508010260043CEFD1F5EEC06ADEF80000CCF80000D8
S31508010270F1EE10FAC5ED0C7AC6BFF7EE007A76EE06
S31508010280E76ADFED286AC5ED0D6A0AB0BDEC028B97
S31508010290BDE8F087D5ED0C7AD5ED0D6ABDEEE77AA6
S315080102A005F10C0C17EE109A01AE95ED027A09F1DB
S315080102B0FF39E646B04605F12C0ADEF80000DEF8FD
S315080102C00410DEF80820DEF80C300EF1100E444654
S315080102D0D6450FC408F11008EFD19FED126ADEF872
S315080102E00000C8F80000F4EE466AF1EE10FA37EE9F
S315080102F0087A87ED006A3FF47BAF4FEA890980E700
S315080103000DF12408434673ED017A93ED017A77EEF0
S31508010310877A9E42C3ED007AF5D19FED027AF7EE10
S31508010320007A81E7000000002DE9F0470D9EDDE91E
S315080103300B57044610B13078012802D13470BDE854
S31508010340F08792F80080089A85F8008092F800E014
S315080103504FEA4E0E5FFA8EFE85F80FE03A78920064
S31508010360D2B22A747878C000C0B2A87397F802C0CE
S315080103704FEA0C1C5FFA8CFC85F80DC000EB0209EC
S31508010380F8784001C0B2287397F804A04FEA8A1A90
S315080103905FFA8AFA85F80BA07A79D201D2B2AA72E3
S315080103A01B789944CC4460448244524472440A9B63
S315080103B05FFA82FA85F801A01F88099A3F0A2F81F8
S315080103C0FFB2AF7093F800E0099B85F803E0B3F834
S315080103D000C0104B4FEA1C2CA5F806C05FFA8CFC2E
S315080103E085F804C092F8009085F80590002083F8F6
S315080103F000C0082283F801909F7083F803E083F810
S31508010400048083F806A05871D87104F0B9F83470DD
S31508010410BDE8F087AC0200202DE9F04F2DED088BE1
S315080104208E4C9DB0D4E92601002200230CF062FD12
S31508010430002840F0398694F86A31002B40F0E885A7
S3150801044087490022D1E9000100230CF053FD28B9A0
S3150801045094F84F310893012B01F09B8094F852319F
S3150801046000229B1A089218BF012309927D4DEB754C
S315080104707D4B1B7807EE903AF8EEE77AB1EE047AEF
S31508010480F4EE477AF1EE10FA00F00481B2EE047A3E
S31508010490F4EE477AF1EE10FA00F0FC80DFF8ECA1F1
S315080104A000238AF80C30714E8AF80B303378DFF85E
S315080104B0E0B1002B00F0558594F84F116A4B07EE11
S315080104C0901A1B78F8EEE77AF0EE006A07EE103A12
S315080104D0F4EE667A0126F1EE10FAB8EEC77A84F8D8
S315080104E0616100F0CC85B7EE006AF4EE467AF1EE6A
S315080104F010FA41F0628094F8696116B1002684F811
S315080105006961B4EE667AF1EE10FA40F0DA859AF886
S315080105100A20012A41F0D281F7EE006AF4EE667AE2
S31508010520F1EE10FA8AF80A2000F0CE85F0EE087A84
S31508010530B4EE677AF1EE10FA41F05480002E41F0DC
S31508010540C5834B4B00964B4F1968012384F86831D4
S3150801055032463B46304604F043FA002841F33A83D3
S315080105607B7885F8C430BB7885F8C530FB7885F883
S31508010570C630BB7985F8C7303B7885F8C3303A4B26
S3150801058094F84F111B78002201298AF8092000F0F6
S31508010590C085012B01F0BC8294F86721002A41F03D
S315080105A0A48135480022027007EE903AF8EEE76A10
S315080105B0B1EE087A07EE901AF4EE476AF1EE10FAF0
S315080105C0F8EEE77A8AF8072040F0F485B0EE007A6B
S315080105D0F4EE477AF1EE10FA01F00E800022274F69
S315080105E0274E0092012384F8663131683B4610464E
S315080105F004F0F6F9002841F3E1823A68BB79787884
S31508010600B978C5F8B4203A78FF7885F8B830120277
S315080106101044A5F8BA201B4A090210801A4AA5F8FF
S31508010620BC100F4417805A0885F8B32085F8AC200A
S315080106309A0885F8B220DA0885F8B1201A0985F8EA
S31508010640B0205A0985F8AF209A09DB0985F8AE204A
S3150801065085F8AD30002000F0B4BD00BFE8030020E6
S315080106600800002010030020570600206902002018
S315080106701400002074020020680200208C02002069
S3150801068020000020F8020020FA0200204806002077
S3150801069040060020DFF8D0A39AF80C30012B00F0B1
S315080106A01A82D4E92801DFF8C4B3DB4BC3E9000198
S315080106B00AF018FDDBE904230CF0B4F90022D74B44
S315080106C00CF0B0F9D64BB4F8E68041EC1A0BB4F845
S315080106D0E8001880D34BA8EB0000A3F80080D24BA2
S315080106E080B218800CF024F906460F460AF0B0FCD1
S315080106F002460B463046394643EC192B0AF0D8FB1D
S31508010700CA4B06460F46002251EC1A0B0CF08AF921
S3150801071053EC192B0CF086F9C54B41EC180B00224A
S31508010720304639460CF07EF902460B4651EC180B59
S315080107300BF0C2FF02460B46404643EC182B0CF061
S31508010740F7F802460B46002000210BF0B3FFB94B20
S3150801075080468946C3E900893046B44B39460022AA
S315080107600CF060F953EC1A2B0CF05CF9B04B064609
S315080107700F46002251EC190B0CF054F902460B46B0
S31508010780304639460BF096FFDBE9022306460F464B
S31508010790DBE900010CF046F932463B460CF042F91A
S315080107A006460F46404649460AF052FC02460B46A3
S315080107B04046494643EC192B0AF07AFB002280464B
S315080107C08946002351EC180B0CF09EFB002840F0DB
S315080107D0EC8651EC180B002200230CF0B3FB002821
S315080107E001F0D4819FED867BB0EE47BAF0EE67BA89
S315080107F08E4B0022404649460CF014F932463B46D8
S315080108000CF010F947EC1A6B53EC192B06460F46F8
S3150801081051EC180B0CF006F902460B4630463946E0
S315080108200BF048FFDBE9062306460F4651EC1B0B86
S315080108300CF0F8F802460B46304639460CF0F2F849
S315080108407D4B00220CF0EEF8784B06460F46002247
S3150801085051EC1A0B0CF0E6F853EC192B0CF0E2F8F4
S3150801086042464B468046894651EC180B0CF0DAF89D
S3150801087002460B46404649460BF01EFF02460B460A
S31508010880304639460CF0F8F90CF0AEFB0CF072F86C
S315080108900AF082F90CF0A8FB9FED687A684B07EE1F
S315080108A0900A67EE877A186017EE900A0CF062F8DC
S315080108B0644B80468946C3E90089D4F8C4000CF024
S315080108C047F851A3D3E900230CF0ACF85E4B064672
S315080108D00F4640464946C3E900670AF03DFB024612
S315080108E00B463046394616461F460AF035FB024680
S315080108F00B46304639460BF0DDFE94ED1E7B534A16
S31508010900534BB0EE478AF0EE678A21F00047C2E9F9
S315080109100001B0EE479AF0EE679ACDE90601D3E9F0
S315080109200023394606460CF07DF853EC182B0BF0DC
S31508010930C3FE37A3D3E90023804689460CF002FBA0
S31508010940002841F0828000220023404649460CF0E7
S31508010950DBFA002841F02E81404649460CF024FB7B
S3150801096000F5FA7083B23B4A3B49A4F8D8300B80AC
S3150801097092ED008BDDE90601002200230CF0E2FA74
S31508010980364B021E18BF01221A70934651EC180BFA
S3150801099032463B460CF0B8FA002801F04280DDE900
S315080109A00601002200230CF0CDFA002801F0E480AC
S315080109B02B4B00221A70012384F8533184F85421F1
S315080109C0404613A3D3E9002349460CF0BBFA002895
S315080109D001F01380404649460DA3D3E900230BF0E5
S315080109E069FE804689461F4B3046D3E900233946BE
S315080109F00CF018F800220023064639E0AFF3008010
S31508010A00000000000000F03F000080999999B93F65
S31508010A100000000000C07240080300200000D03F1B
S31508010A2062060020600600205802002000001040DF
S31508010A300000E03F5002002000000840666636428A
S31508010A40C402002058060020E8020020B80200204F
S31508010A505000002030000020DC020020C0020020E7
S31508010A60B4020020400000204806002000C000080B
S31508010A700F46404649460CF065FA00220023002835
S31508010A8001F0F680304639460CF05CFA002841F050
S31508010A90FF8032463B4651EC190B0BF00DFEDFF891
S31508010AA0E0934FF0000842464B4606460F460CF0C7
S31508010AB03FFA002840F095874FF000084FF00009EB
S31508010AC03046394642464B460CF028FA002840F093
S31508010AD08887C4E91E679AF80B30012293428AF87F
S31508010AE00C203FF4E0ACDFF89CB3D4F8C810DBF86F
S31508010AF00020DFF894C3DBF80400C94FC4F8C82006
S31508010B00511AC4F8CC00C74A94F8EE00C64E94F8B8
S31508010B10EC308CF8000094F8F7C0137087F800C021
S31508010B20C24A94F80771377094F8206116706BB150
S31508010B30002801F02880BCF1000F01F0B980002FD0
S31508010B4001F0D880002E0CBF00230423B84A94F87C
S31508010B505E0113441B5C0D93002B40F01D850D9B14
S31508010B60B44E84F857313370B34BB4F8E270B4F825
S31508010B70E0001F80B14B0A9718803B1A1BB2002B65
S31508010B80BCBFC31B1BB2B3F5FA7F40F3B38794F816
S31508010B904331002B0CBF002304231A4494F85F3118
S31508010BA0D35C0F9384F85831D4F8C4300E931846A1
S31508010BB0D4F8A830B4F8D020A4F8E020834200F095
S31508010BC09C87002306930A98B4F8D4304FF47A72B6
S31508010BD000FB02F2B2FBF1F292B2D31A9BB208EE13
S31508010BE0103A1092964B18EE102A1A80637A94F8E6
S31508010BF05D2111920BB100236372D4F82C80D8F8C9
S31508010C000030012B00F0B7860023C8F80830C8F871
S31508010C1034300123C8F8003088F804304FF07E528A
S31508010C2008F10C03C8F830200021242218460CF0DC
S31508010C3041FB0DF14C0C0C900646E64608F12C09D1
S31508010C4030687168B268F36877460FC710364E4543
S31508010C50BE46F5D1DFED7B5A7B4A30683860F8EE3F
S31508010C60487A002337EEA56AF0EE656AB7EE007A90
S31508010C70C2ED005A0B930B991CAB03EB810353EDA1
S31508010C80095A76EE255A4FEA810909F170030DEBE7
S31508010C90030949ED097AF2EE027AB4EE677AF1EEC2
S31508010CA010FA00F01587F7EE007A37EE277A1BAFB0
S31508010CB0F5EE406AF1EE10FA05D1B2EE045AC5EE28
S31508010CC0857AC2ED007A0C9E88ED026AE646BEE890
S31508010CD00F00BE4506F110060CF1100C46F8100C73
S31508010CE046F80C1C46F8082C46F8043CEED1F5EEFD
S31508010CF0C06AF1EE10FAC6BFF7EE007A76EEE76A39
S31508010D00DFED506ADCF80000306088ED0C7AC8ED3A
S31508010D100D6A94F85A3194F856214C4E13430CBF78
S31508010D20B4F8DE30B4F8DA304FF28A4202FB03F344
S31508010D309B0D00210420A4F8E63001F07BFB07EEA9
S31508010D40900AF8EE677A424A4249308017EE900ACD
S31508010D50FFF70CFAD5ED357A3388A4F8E230FCEEC4
S31508010D60E77A3D4A17EE903A00219BB20520138097
S31508010D70A4F8D63001F05EFB07EE900A374B384AE5
S31508010D801880F8EE677A374917EE900AFFF7EEF9F9
S31508010D90D5ED347A344B354A1B7884F85D31FCEE4F
S31508010DA0E77A334917EE903A9BB20B80A4F8E43000
S31508010DB0D2E9000118A3D3E900230BF033FE2B7EF9
S31508010DC0C4E92801002B40F0D286012005F060F91C
S31508010DD0284BC4F8C400186000220023D4E91C017A
S31508010DE00CF092F8244E0038337818BF0120287683
S31508010DF0002B00F02E86B4F8D83094F853712B8066
S31508010E0094F854316F76AB7694F84F311B49013B10
S31508010E103CE000BFAFF30080000000401BB98E3FE5
S31508010E20D8020020D6020020D9020020DA020020CA
S31508010E3048C00008DE02002002030020D20200207A
S31508010E40C802002000000000CC0200206402002035
S31508010E50C8050020E4030020F002002066020020F5
S31508010E6054050020E0030020D002002038000020AD
S31508010E70F6020020E002002069020020D7040020C3
S31508010E800000594040060020D702002018BF012360
S31508010E90EB7694F8ED3084F8EC300822069B84F85A
S31508010EA0ED30481E0CF08AF9B149069B84F8F630F4
S31508010EB00F22481E0CF082F9AE49069B84F80631CA
S31508010EC01822481E0CF07AF9AB49069B84F81F31A3
S31508010ED02222481E0CF072F9A849069B84F8423171
S31508010EE009220D9B84F85E31481E0CF067F9A44966
S31508010EF0119B84F84C3118220F9B84F85F31081F27
S31508010F000CF05CF90E9BC4F8C030109BA4F8D430E1
S31508010F10B4F8D230A4F8D0300A9BA4F8D230002213
S31508010F200023C4E91C23002F40F09E8539460A2078
S31508010F3005F0AEFCA97E01B101210B2005F0A8FC44
S31508010F402988102005F032FBE97E01B101214720ED
S31508010F5005F09EFC01238AF80B303378002B7FF4C9
S31508010F60ABAA94F86121002A56D194F84F31099A0F
S31508010F7052B19AF80120012A06D0824A127884F8D9
S31508010F805121002284F84E21089A8AF80120012B62
S31508010F9004D994F85221002A00F0D68294F86031D7
S31508010FA093BB0E2005F026FC0546003D4FF00F00C9
S31508010FB018BF012505F01EFC00B10235102005F009
S31508010FC019FC08B10435EDB284F84F5101F0F8FC6B
S31508010FD06D4B187001F0FAFC6C4B02466C481A60AE
S31508010FE001F0F6FCDBF800306A4A01331060CBF8F1
S31508010FF0003023B9DBF804300133CBF804301DB0D7
S31508011000BDEC088BBDE8F08F002384F86031C8E792
S3150801101084F86A01FFF714BA94F869210AB184F8C9
S31508011020693194F8683113B1002384F8683194F86A
S31508011030673113B1002384F8673194F8663113B127
S31508011040002384F8663194F8653113B1002384F8D6
S31508011050653194F8643113B1002384F8643194F846
S31508011060633113B1002384F8633194F8623113B103
S31508011070002384F86231002384F8613175E794F816
S315080110805C21002A00F09982B4EE667AF1EE10FA34
S3150801109040F0DF8594F86921002A3FF438AA002236
S315080110A084F86921FFF733BA3B4F00260121032251
S315080110B00720C4E9266784F86A1106F0B1F9FFF733
S315080110C0BFB900268AF80A6094F86821F0EE087A12
S315080110D012B1002284F86821B4EE677AF1EE10FAAB
S315080110E07FF451AA9AF80920012A3FF44DAA2B4BFD
S315080110F02B4A002011681870012203F041FA94F86E
S315080111004F11284B012201291B788AF809207FF4FF
S3150801111040AA94F8672112B1002284F86721012BAD
S315080111207FF43FAA9AF807201F4E012082423070A9
S315080111303FF43AAAB4F8EA201C4F184B3A80013218
S31508011140A4F8EA201A4994F8512158701A70002017
S31508011150AA754FF080725A6009685880082203F010
S315080111600FFA104B32781B7894F84F11FFF71CBA17
S31508011170E0040020F0040020090500202C050020C9
S3150801118094040020580000205A0200205C02002026
S31508011190ACC00008600200200000F03FAC0200204D
S315080111A0140000205706002068020020640600206B
S315080111B01800002094F86631002B40F00F82CB4EC0
S315080111C000203168CA4BCB4E0593CB4B0493A6F14D
S315080111D00E08CA4B039306F1740706F173030296C8
S315080111E0CDF80480009706F16A02FFF79DF8C44B13
S315080111F01B7808EE103A94F84F31B8EEC88AF1EE2A
S315080112000C7A07EE103AB4EE678AF1EE10FAF8EEA8
S31508011210C78A40F05881F0EE087AF4EE678AF1EE53
S3150801122010FA0CBF01200020B64A0592CDE90186C5
S31508011230B54AB64B0492B64EB64A03920097A3F145
S3150801124009023168FFF770F8AD4B1B7807EE903A43
S3150801125094F84F31F8EEE77AF1EE006A07EE103AA4
S31508011260F4EE667AF1EE10FAB8EEC77A40F02D81FF
S31508011270F7EE007AB4EE677AF1EE10FA00F0C5815E
S31508011280A54BA64F19680022012384F865310092FF
S315080112903B46104603F0A4FB002840F3A1843978A5
S315080112A097F801C0BA78F878BB7985F87F1085F880
S315080112B080C085F8812085F8820085F8833012027E
S315080112C009021044A5F88620954AA5F884108C448D
S315080112D0A2F800C0934A10805A0885F87E2085F83E
S315080112E077209A0885F87D20DA0885F87C201A097E
S315080112F085F87B205A0985F87A209A09DB0985F849
S31508011300792085F878300023F1EE0C7AB4EE678AF5
S31508011310F1EE10FA8AF8043007D1F0EE087AF4EE05
S31508011320678AF1EE10FA40F0E58294F8643113B158
S31508011330002384F86431724B1B7807EE903A94F8CF
S315080113404F31F8EEE77AF2EE006A07EE103AF4EE5C
S31508011350667AF1EE10FAB8EEC77A40F0BF80F1EE80
S31508011360006AB4EE667AF1EE10FA00F0B7816E4BB8
S315080113706E4E19680022012384F8633100923346C0
S31508011380104603F02DFB002840F30884337877785C
S31508011390B178F078B27985F8513085F8527085F8C8
S315080113A0531085F8540085F855201E020B0254493E
S315080113B0A5F8583018445308097885F8503085F847
S315080113C04930003B18BF012307EE901A84F85931BA
S315080113D0910894F84F3185F84F10D10807EE103A65
S315080113E085F84E10110985F84D105109374485F8CD
S315080113F04C10F8EEE77A9109B8EEC77AD209A5F842
S315080114005660A4F8DC70A4F8DE0085F84B1085F860
S315080114104A200022F2EE026AF4EE667AF1EE10FA3A
S315080114208AF8032040F08880F1EE047AB4EE677AF0
S31508011430F1EE10FA00F0C1813D4B3E4E19680022CB
S31508011440012384F8623100923346104603F0C8FA44
S31508011450002840F3F583F37832787078B17885F807
S315080114603830B37985F8352085F8360085F8371090
S3150801147085F83930120210446A875A0885F83420EB
S3150801148085F82D20003A18BF012284F85A219A08B6
S3150801149085F83320DA0885F832201A0985F83120CB
S315080114A05A0985F830209A09DB09090285F82E3090
S315080114B094F84F31A4F8DA00A98785F82F2000227D
S315080114C08AF8022053E50020AEE694F86531002B30
S315080114D03FF419AF002384F8653114E794F86321C2
S315080114E0002A96D0002284F8632192E72000002082
S315080114F04E060020CC0400203EC00008AA030020A6
S31508011500570600204D06002038C000083F05002078
S3150801151024000020980300201C00002084020020DB
S31508011520F2020020F4020020280000209C0200207C
S315080115302C000020A402002094F86221002ABED0C3
S31508011540002284F86221BAE7012384F86031D04E7B
S31508011550D04B009219681046334603F041FA021E31
S3150801156004DDB37985F820303368EB61CA49012077
S31508011570FEF746FD00283FF414AD0123297F84F8C0
S315080115805111002284F84E2184F8523184F85031E1
S3150801159007E50993FEF76ABF94F84F31A3F10103F2
S315080115A0B3FA83F35B09FFF7DBBA9FEDB77BB0EEBE
S315080115B047BAF0EE67BAFFF71BB9F0EE006AB4EE68
S315080115C0667AF1EE10FA00F0558294F8696116B15F
S315080115D0002684F869610022FEF79EBF002384F87D
S315080115E06631ECE594F86821002A3EF4CCAF002276
S315080115F084F86821FEF7C7BF94F8663113B1002352
S3150801160084F86631A54E0120DBE594F86531002B97
S3150801161040F04A839AF80430012B3FF475AEA04A8C
S3150801162094F8580192F8303092F831704FEA400C2C
S315080116309B00DBB25FFA8CFC03EB0C0185F8763074
S3150801164085F875C092F8323094F857C1FF006144A5
S31508011650FFB21B0185F87470DBB20F4492F83310A0
S3150801166085F873303B4492F834704901C9B2BF0119
S315080116700B44FFB285F8721092F8351085F871702F
S31508011680FA18B4F8E430B4F8D6701B0AA5F86E3027
S31508011690B4F8D630C901C9B21B0A0A4485F87010D4
S315080116A0A5F86C30B4F8E4107E4BD2B29A7149BAF7
S315080116B06A747D4A598069827C4910707FBA94F8A8
S315080116C04E211A7100201F8058712A74AF82082290
S315080116D0D871096802F054FF012315E694F86321CD
S315080116E0002A40F0DD829AF80320012A3FF492AEDF
S315080116F06B4994F8582191F8293091F82F605200D6
S315080117009B00D2B2DBB2981885F8472091F82A20B7
S3150801171085F8483091F82B30D200D2B230441B01FB
S3150801172085F84620DBB2024485F84530134491F822
S315080117302C20B4F8E4005201D2B2134485F84420AF
S3150801174091F82D2091F82E109201D2B2C901C9B291
S31508011750134485F84320CA18B4F8E43085F84210D2
S315080117601B0AA5F84030B4F8D630B4F8D6101B0ACF
S31508011770EB874C4B49BA1980D2B240BAE9814C4938
S3150801178058809A71EA72A88194F84E211A7100203C
S315080117905871D871AA720822096802F0F1FE454B00
S315080117A01B7807EE903A94F84F3107EE103AF8EEA7
S315080117B0E77AB8EEC77A01222CE694F86221002A64
S315080117C040F06A829AF80220012A3FF479AE344938
S315080117D094F8580191F8223091F8232091F828605D
S315080117E040009B00DBB2C0B285F82B0085F82C308F
S315080117F0184491F82430D200D2B230441B0185F83E
S315080118002A20DBB2024485F82930134491F82520B1
S31508011810B4F8E4005201D2B2134485F8282091F8AD
S31508011820262091F827109201D2B2C901C9B21344F0
S3150801183085F82720CA18B4F8E43085F826101B0A5B
S31508011840AB84B4F8D630B4F8D6101B0A6B84154BA2
S3150801185049BA1980D2B240BA2981174958809A7172
S315080118606A71E88094F84E211A7100205871D8716E
S315080118702A710822096802F083FE94F84F31012281
S315080118801EE600BFAFF30080000000000000F0BFB5
S315080118907C020020180000204806002020000020B5
S315080118A000C00008AC020020000300201C00002034
S315080118B028000020570600202C000020D04BD14AD2
S315080118C0002011681870012202F05AFECE4B94F8D6
S315080118D04F111B7807EE903AB8EEE77A07EE901AA1
S315080118E00122F8EEE77AFEF717BE002284F867218F
S315080118F0FEF757BE3168C54E0022012384F86431CC
S3150801190000923346104603F06BF8002840F3D38162
S3150801191031787778B278F078B37985F8621085F8F6
S31508011920637085F8642085F8650085F866301202CB
S3150801193009021044A5F86A20B54AA5F868100F44AB
S315080119401780B44A10805A0885F8612085F85A200C
S315080119509A0885F86020DA0885F85F201A0985F85B
S315080119605E205A0985F85D209A09DB0985F85C200D
S3150801197085F85B30DFE498ED0C7A98ED026AD8EDCC
S315080119800D6AFDEEC77A0DF14C0C17EE909A09F126
S31508011990FF330B9308F10C030C931E46E64608F138
S315080119A02C0930687168B268F36877460FC7103634
S315080119B04E45BE46F5D1DFED985A984A30683860EB
S315080119C0F8EE487AF4EE656AF1EE10FA37EE866AB1
S315080119D0C2ED005A3FF44FA90B9B4FEA8309FFF763
S315080119E054B99AF80B3001229342C4E91E898AF840
S315080119F00C207FF478A8FEF756BD00220023404646
S31508011A0049460BF095FA00283EF4EDAF844B304673
S31508011A103946D3E900230BF005F806460F46FFF7CA
S31508011A2038B8804B8BF0010B83F800B0002332469F
S31508011A3084F8533151EC180B3B460BF065FA002834
S31508011A4014BF5A460022FEF7B9BF4FF44873FEF792
S31508011A508ABF754B1A8C93F8367093F837302A80FB
S31508011A60AB766F76FFF7D0B901210A2004F010FF93
S31508011A70FFF760BA94F85B31624A6C4F11686C4A99
S31508011A80013B18BF0123002684F85C3100961370C8
S31508011A90012384F8693132463B46304684F85B6156
S31508011AA002F09EFF584B94F84F111B7807EE903AB7
S31508011AB0B8EEE77A07EE901AB042F8EEE77A7FF7C2
S31508011AC08AADBA7985F8CC203A68C5F8C82082E586
S31508011AD01BAF3B4673ED017A93ED017A77EE877A70
S31508011AE09C45C3ED007AF5D19FED4B6AB7EE007AB6
S31508011AF0FFF7DEB80023FFF750B8B4F8D82040F254
S31508011B008A239A4294BF002301230693FFF75BB801
S31508011B10002E40F0E58084F86731464F464B009623
S31508011B20196832463B46304602F05AFF021E08DD66
S31508011B307B88A5F8C030BB7985F8C2303B88A5F803
S31508011B40BE303E490120FEF75BFA50B1012384F805
S31508011B504E3184F8503184F85B3195F8BE3084F8FB
S31508011B605131294B94F84F111B78FEF71ABD012004
S31508011B7004F09EFAFFF729B92A4B84F8530101228A
S31508011B801A70FEF71BBF0346FEF7E0BF9FED1A7BEF
S31508011B90B0EE47BAF0EE67BAFEF72ABE95F85130AD
S31508011BA095F8527095F8531095F8540095F8552004
S31508011BB0FFF7FBBB4FF4FA73FEF7D5BE95F8B420D1
S31508011BC095F8B50095F8B61095F8B77095F8B83048
S31508011BD0FEF71DBD0C4B94F84F111B78FEF7D3BCCD
S31508011BE095F87F1095F880C095F8812095F88200C0
S31508011BF095F88330FFF763BB000000000000000082
S31508011C00AC02002010000020570600209402002094
S31508011C10FC020020FE02002000000000CC02002089
S31508011C2040000020B402002000C000086C02002019
S31508011C30D50200207C020020180000205006002052
S31508011C4095F8352095F8360095F8371095F8393016
S31508011C5010E494F86921002A3FF4BDACB4EE667A23
S31508011C600022F1EE10FA84F869213EF450ACB2E490
S31508011C70304639460BF066F900287EF40AAF40462D
S31508011C804946002200230BF035F900287EF401AFFE
S31508011C9000260027FEF7FDBE002284F8622191E5A1
S31508011CA0002284F863211EE5002384F86531B1E436
S31508011CB06346FEF74BBF95F8621095F8637095F881
S31508011CC0642095F8650095F8663030E694F8682141
S31508011CD0002A3FF407AA002284F86821FFF702BA0E
S31508011CE094F86721002A3FF41DAA002284F8672187
S31508011CF0FFF718BA3B46FEF729BF00BF70B50821A2
S31508011D0084B0402002F078F900207F4C02F0F4FDFF
S31508011D107E49032005F0C8FA7D49072005F05AFCDB
S31508011D202346002543F8385F0126C4E90C6629468F
S31508011D30E362666026810420257000F0F9FA04F54D
S31508011D400673C4E9846629460520C4F80C3284F86A
S31508011D505062C4F8E461A4F8E86184F8E051C4F873
S31508011D60185200F0E5FA04F5D273C4F898313046F2
S31508011D70C4E9676684F8DC612946C4F87061A4F889
S31508011D80746184F86C51C4F8A45104F0F9F8314629
S31508011D900A2004F04BFD31460B2004F047FD31467D
S31508011DA0472004F043FD2A4642F60D01092004F0B6
S31508011DB09BFA5849584E092004F03EFC2A46294602
S31508011DC0102004F023FB554B2846196802F0DCFD68
S31508011DD0534B2846196802F0D7FD3168284602F0A8
S31508011DE0D3FD504B2846196802F0CEFD4E4B2846C6
S31508011DF0196802F0C9FD4D4B2846196802F0C4FD61
S31508011E004B4B2846196802F0BFFD4A4B284619680C
S31508011E1002F0BAFD3168284602F0B6FD02210E200D
S31508011E2004F0B2FC02210F2004F0AEFC02211020BE
S31508011E3004F0AAFC4FF4197000F0CEFB4FF47A7047
S31508011E4000F0BEFB642000F047FB30498DF80C50CA
S31508011E5001AA2846CDE9015502F05CF9012804D00A
S31508011E60354840F6E15100F02BFE3449032005F0D0
S31508011E709FFB02F0ADFE02F0B5FE314B314A324905
S31508011E809A604FF00130C3E9002040F201109881B1
S31508011E900122E56A2D4B0A702A68D3E90013012A43
S31508011EA0C4E932130BD100262422AE60002105F1C4
S31508011EB00C000BF0FFF94FF07E532B636E63D4F8D9
S31508011EC00C522B68012B0BD100262422AE6000216F
S31508011ED005F10C000BF0EEF94FF07E532B636E63A0
S31508011EE0D4F898412368012B0BD100252422A5603B
S31508011EF0002104F10C000BF0DDF94FF07E5323634A
S31508011F00656304B070BD00BFE803002040420F00BE
S31508011F10B9000108B50001081800002010000020CA
S31508011F2014000020200000201C00002024000020AE
S31508011F30280000202C000020B8C00008690101080B
S31508011F404806002003010101D002002040060020B6
S31508011F50454B1B78012B00D070472DE9F041434AC8
S31508011F601378012B96B005D0414803F06FFB16B0E4
S31508011F70BDE8F0813F4E0024334614705A78E5B225
S31508011F8003331AB101340A2CF8D125463A4803F02D
S31508011F9049FE4FF080603949394A07904FF480630A
S31508011FA04FF4006008914FF4005100270B940992F1
S31508011FB001244FF480720D930E904FF480330F91E4
S31508011FC02D48109207A911930A970C971297CDE9F4
S31508011FD01477139403F0BCFE2146274803F0E4FE68
S31508011FE003F09CFA01A9224801978DF808408DF85B
S31508011FF00970CDE9037705978DF8185003F09CFA17
S31508012000BDB1013DEDB2DFF88080194F023504EB11
S3150801201044023244032312F8032C02EB420208EB72
S3150801202082013846E2B2897A013403F0C9FAAC4230
S31508012030EDD1002003F0C2FE012003F0CDFE012000
S3150801204003F0D8FE0F4A0A48136843F40053136095
S31508012050012103F00BFB0121054803F0FDFA0121DB
S31508012060034803F0A3FA7FE761000020600000201F
S315080120700022014068060020106402404C220140FB
S315080120808806002000700040DCC000082DE9F04FEA
S31508012090A34B1B6897B0002B00F0F180A14B01936D
S315080120A003F11E099F4DCDF8009004E0009B03350E
S315080120B09D4200F0B880AB78002BF7D06B78002BE7
S315080120C0F4D0994B1B78002BF0D0954A95F80080EF
S315080120D01768013BDBB207F14C064C2212FB036978
S315080120E0AA4604E0B145374600F097804C36397860
S315080120F04145F7D1019B002404E001340A2C03F180
S31508012100030305D05A78012AF7D11A788A42F4D1FD
S315080121104C22394603A80AF0B7FFB86C049A7D6CBD
S31508012120C30602F078418B4200F08E804FF0000C16
S315080121309B4600E08C460CF10101C9B216AB03EBD4
S31508012140810353F8483C03F0784EF345F2D10CF17C
S31508012150020C0B299E465FFA8CFC5B4669D90E294F
S3150801216010D80FFA8CF103AA02EB810100E094461C
S315080121704A6841F8042BBCF10E0F0CF10102D2B2E8
S31508012180F5D9049A694931F814C022F07842CCF39A
S315080121900B0C6FF078419445139160D900240134F2
S315080121A0E4B216AA02EB8402A64652F8482C22F09B
S315080121B078429445F3D80B2C38D8032C0F9A98BF3C
S315080121C0079922F07842A5EB020296BF21F07841E1
S315080121D00CEB02058D18C4F10E0412AAE4B2A2EBA7
S315080121E0840413AA52F8041D51609442FAD1441C7E
S315080121F016AA102C02EB8E0E28BF002443EA0C0304
S31508012200384603A94C224EF8483CCDE914540AF045
S315080122103BFFB14537467FF469AF5546009B033509
S315080122209D427FF448AF17B0BDE8F08F0E2CD2D986
S31508012230DDE7109A032922F0784215441AD92EF0BF
S31508012240784EA5EB0E058CE7109A089922F078428C
S31508012250154421F078416D1A4FF0010C81E70F9A68
S31508012260079922F07842AD1A21F0784100240D44ED
S31508012270A646B0E7089921F078416D1A71E72A4E0A
S31508012280337803EBC30203EB4203980000F04CFAE0
S31508012290234B80461860234B002837D01A460193F2
S315080122A01546034602F11E0914AC212703E003353E
S315080122B04D453FF4F7AEAA78002AF8D095F800C044
S315080122C004A9002241F8042BA14202F10062F9D1C6
S315080122D04C2203A918468DF80CC014970AF0D4FEAF
S315080122E0327802EBC201034602EB41024C3308EB9A
S315080122F082029342DBD90122142142F2030002F041
S3150801230063FE074B186800F07BFACBE6012214211D
S3150801231042F20200019303F11E0902F055FEC1E6DD
S315080123209C0600206806002002000020880600207E
S315080123302DE9F043092885B006460D4668D8384880
S315080123400478F4B9374A384B012702F114010770AA
S3150801235022F8024B8A425C709C7003F10303F7D1A1
S3150801236001214FF4800003F0C3FD4FF48060012181
S3150801237003F0E2FD6846CDE90044CDE9024403F0E5
S3150801238001F9DFF8A48008F11E014746434602E039
S3150801239003338B4208D05A78012AF9D11A78B24206
S315080123A0F6D105B0BDE8F083204A06EB46039B004B
S315080123B002EB0309D058012103F09AFDB9F8083058
S315080123C0009300240323D9F804008DF804306946E4
S315080123D08DF8074003F01CFD98F8013008F1030851
S315080123E043B101340A2CF7D10122142142F201002A
S315080123F002F0EAFD04EB44043B1901223E555A70EA
S3150801240005B19A700A4B01221A7005B0BDE8F0832E
S31508012410012214214FF4005002F0D6FD8FE700BFC8
S31508012420610000208806002068060020DCC000083C
S3150801243060000020092838B505460C4622D8214BEC
S315080124401A78012A01D0002038BD14B31E4B1C6826
S315080124508CB31E4B197889B12378AB420ED001395A
S31508012460CBB24C2111FB0341234603E01A78AA4259
S315080124701C4603D08B4203F14C03F7D1606CC0F3C1
S31508012480CF0038BD012214214FF4005002F09CFD03
S31508012490D5E70F4B214604E001310A2903F103036D
S315080124A0D1D05A78012AF7D11A78AA42F4D1094B20
S315080124B033F8110038BD142142F2050002F084FDFB
S315080124C0204638BD610000209C060020020000203D
S315080124D06806002088060020034A044BA2FB002058
S315080124E040091860704700BF1F85EB515C0000204A
S315080124F000B583B000F07EFD02AC084E44F8040D29
S31508012500074D03E02968204600F0ACFEFFF720FDE1
S315080125103378002BF6D0FFF7B9FDF3E70200002068
S315080125205C00002008B5FFF713FD044B1B781BB1AF
S31508012530BDE80840FFF7AABD08BD00BF020000209C
S3150801254000B583B000F056FD02AC054D44F8040D04
S31508012550FDF7AEFD2968204600F084FEF8E700BFC6
S315080125606400002010B584B0002400F03FF802F0A2
S3150801257009FDFDF78FFDFFF7D5FF052223460092DA
S31508012580CDE90244019480220849094800F054FB28
S31508012590084B039406211A8807480091029401946E
S315080125A02346064900F048FB04B010BD54C1000893
S315080125B0F12401086800002041250108ACC0000883
S315080125C0034A044BA2FB002040091860704700BF6C
S315080125D01F85EB516400002080087F28024B96BFB7
S315080125E0802218801A8070476800002000F000B821
S315080125F0074BC3F1006101F5004103F500605A5C20
S3150801260003F8012B8342FAD1024B00221A70704754
S31508012610A4060020A0060020C1F5006301339842F4
S3150801262018DA0144884215DADFF834C0F0B40B4CE5
S315080126309CF800600025FF27225CFF2A00F10103B0
S3150801264002D0012527542E4698B28842F4DB15B9E3
S31508012650F0BC704770478CF80060F9E7A4060020C3
S31508012660A006002040F2FC73984210B502D9002456
S31508012670204610BD044600F09DF9034B1C5900F095
S315080126809BF9204610BD00BFA4060020F8B540F20C
S31508012690FC73984200D9F8BD0446094E0D4600F070
S315080126A089F9375900F088F9BD42F4D000F082F96A
S315080126B0355100F081F9034B01221A70F8BD00BFAC
S315080126C0A4060020A006002010B4154A00E01A4608
S315080126D013688342FBD351685418A0420AD0416853
S315080126E04418A3420DD0904203605DF8044B18BF0D
S315080126F0106070474068014410464418A34251606F
S31508012700F1D1084C2468A342EDD0D3E900349042B4
S315080127102144036041605DF8044B18BF106070479F
S31508012720A48E00206C0000202DE9F041044600F03B
S3150801273059FC2E480268002A39D02D4B1F683C42A5
S315080127402FD174B304F108014B071CBF21F007010F
S31508012750083131B3DFF8A080D8F800608E4220D363
S31508012760244D2C6803E0226822B125461446636885
S315080127708B42F8D30268A24213D0226828682A60DD
S315080127805A1A102A00F1080528D8F61A00223B43DE
S31508012790C4E90023C8F8006000F0F0FC2846BDE84B
S315080127A0F081002500F0EAFC2846BDE8F081124FC9
S315080127B0124B396823F0070347F6F0755E19083995
S315080127C0726039605A510A490660C3E90065094DC4
S315080127D04FF000472B606A600F60B0E76318184630
S315080127E05A606160FFF770FF6368CEE76C000020EE
S315080127F070000020A48E002074000020AC0E00207A
S3150801280000283AD038B51D4D50F8043C2A681342C1
S31508012810044610D050F8081CD9B14FF486711848EF
S3150801282000F04EF92A6854F8043C134202D054F8D1
S31508012830081C71B138BD40F20B11114800F040F97E
S3150801284054F8083C002BE8D12A6854F8043C134292
S31508012850F0D023EA020344F8043C00F0C3FB094A1A
S3150801286054F8043C1168A4F108000B441360FFF7FF
S315080128702BFFBDE8384000F081BC7047700000208E
S3150801288068C1000874000020014B1868704700BF32
S31508012890740000200C490D484B6830B4C3F5C332A7
S315080128A0A032642303FB02F3094D0A4C5B09A5FB1D
S315080128B003230278C3F3C7139A42237038BF037000
S315080128C000234B6030BC7047B48E0020AD8E0020CB
S315080128D0C55A7C0AAC8E002070B50D4606460AF02C
S315080128E04FFD044628460AF04BFD844201D00020DC
S315080128F070BD6CB132782B789A42F8D1002303E087
S31508012900F15CEA5C9142F2D10133DBB29C42F7D821
S31508012910012070BD00B51D4D1D481E4B83B0002416
S315080129200093012204602C706C602C72234642F2DB
S3150801293010711948194D00F0DBFE2860F0B1044604
S31508012940174A184B002515701D7000F053FB0095AA
S3150801295002462B462046294600F0F0FE012805D0FE
S31508012960012214214FF4805002F02EFB0E4B002257
S315080129701A60FFF7F7FD00F0FDFAFEE701221421C0
S315080129804FF4805002F020FB2C68D9E7B48E002062
S31508012990C08E0020952801088CC10008B08E002041
S315080129A0AC8E0020AD8E002078000020704700BF55
S315080129B0704700BF02F09CBC02F0C0BC03F068BCC3
S315080129C0014B1878704700BFAC8E0020FFF75CBF3B
S315080129D070B5054602F08CFC114B1C688CB1064695
S315080129E02946A068FFF778FF012805D10DE0A06800
S315080129F0FFF772FF012808D024692946002CF6D171
S31508012A00304602F09BFC204670BD6468304602F0F1
S31508012A1095FC2046002CF7D000F070FD800070BDB3
S31508012A20C08E00202DE9F041804614200F46144639
S31508012A30FFF77AFE054628B30023C5E90343C5E92E
S31508012A40018702F055FC134E074602F051FC346823
S31508012A5002460CB90DE01C462369002BFBD1104632
S31508012A6002F06CFC256138462C60BDE8F04102F0A5
S31508012A7065BC02F063FC2C6035603846BDE8F04160
S31508012A8002F05CBC012214214FF4805002F09CFA3A
S31508012A90D2E700BFC08E0020074A138801339BB2D4
S31508012AA0092B138005D905490B68002001330B60F2
S31508012AB0108003F00FBB00BF7C00002078000020C7
S31508012AC0012214214FF4805002F07EBA054B1A7880
S31508012AD0012A00D070471A7A002AFBD15A680132B6
S31508012AE05A607047B48E002008B502F001FC044B09
S31508012AF00121002219701A72BDE8084002F01EBCB5
S31508012B00B48E0020014B00221A707047B48E002043
S31508012B1008B5034C2368012BFDD902F0DDFBF9E763
S31508012B20CC8E00200D4B0E4A196812684860824205
S31508012B300DD80C4A10B5044610681968043104F01A
S31508012B40CDFF094B1A68A24288BF1C6010BD074A0F
S31508012B5010681968043104F0C1BF00BF8000002065
S31508012B60A8000020C48E00209C000020C88E0020EA
S31508012B702B4B2DE9F0410022DFF8B880294E1A6067
S31508012B80D8F8002033689A4247D0D8F80020D8F8F8
S31508012B90003012681B6B9A4233D9234C234D2368A4
S31508012BA003EB830355F823309BB9214F08E02368CB
S31508012BB0013B2360236803EB830355F8233043B9AC
S31508012BC02368002BF3D140F252713846FFF778FF9C
S31508012BD0EDE7236803EB83039B00E91808334A688A
S31508012BE052684A601D44AA4204BF52684A60D368C3
S31508012BF0C8F80030D8F8002033689A4209D0BDE8F1
S31508012C00F081D8F80000D8F80010343104F0D2FE6B
S31508012C10C3E7BDE8F041FFF767BFFFF773FFB4E706
S31508012C20AC0000209800002094000020CC8E0020E3
S31508012C30A0C10008800000202DE9F84FDDF830B06A
S31508012C408A4691469846DDE90A570646002800F065
S31508012C50A7800D2D00F287804820FFF765FD044601
S31508012C60002800F08C804FEA8909BBF1000F00F0BB
S31508012C709D80C0F830B04A46A52158460AF01AFB8D
S31508012C80236BA9F10409994429F007090AF1FF33CD
S31508012C900AF10F0104F1330201E08B4207D013F95F
S31508012CA0010F02F8010F93F900000028F5D10D2D47
S31508012CB04FF00003AB4604F1040A28BF4FF00D0B91
S31508012CC084F843305046C4F82CB0C4F844B004F034
S31508012CD0F1FE04F1180004F0EDFECBF10E03A36139
S31508012CE02461646242463146484602F0D1FA2060C0
S31508012CF007B13C6002F014FB444A454E13680133A0
S31508012D0013603368002B3ED0424F3B681BB3DFF894
S31508012D1024814148E26A03680133036004F13401FE
S31508012D202046FFF77FFE3D4BE06A1A68904288BF4E
S31508012D30186000EB800008EB8000514604F0BEFEE7
S31508012D4002F000FB3B681BB13368DB6AAB4222D356
S31508012D500120BDE8F88F3368DFF8D880DB6AAB421B
S31508012D6098BF3460D5E740F2ED112D48FFF7A8FE6C
S31508012D704820FFF7D9FC044600287FF474AF4FF0CA
S31508012D80FF30BDE8F88F34601368DFF8A880012B9F
S31508012D901AD0204FBDE702F09FFA0120BDE8F88F4F
S31508012DA04FF4F6711E48FFF78BFE52E74846FFF7C8
S31508012DB0BBFC8346206300287FF45DAF2046FFF7FE
S31508012DC01FFD4FF0FF30C4E7474608F58C793846B2
S31508012DD0143704F063FE4F45F9D1DFF85CB0DFF82C
S31508012DE05C900C4F584604F059FE484604F056FECE
S31508012DF00C4804F053FE0C4804F050FE0B4A0C4BE9
S31508012E00C2F800B0C3F8009083E700BF8400002031
S31508012E1080000020A40000209000002094000020DB
S31508012E20A0C100080C90002020900020C48E00202C
S31508012E30C88E0020CC8E0020E48F0020F88F002059
S31508012E40F8B50446194E02F06BFA1CB3251D28463F
S31508012E5004F05EFEA36A1BB104F1180004F058FEE3
S31508012E60134F2946384604F029FE02F06BFA3368F7
S31508012E70A34200D0F8BD0F4B1B687BB90E4A3968CF
S31508012E801268914208D00D4B1B685BB10C4B0122AD
S31508012E901A60F8BD3468D9E73360F8BDBDE8F84073
S31508012EA002F01ABABDE8F840FFF762BE80000020BA
S31508012EB020900020A4000020840000208C0000201F
S31508012EC0AC00002010B5044668B10A4B62699A4203
S31508012ED001D0002010BDA06A074B9842F9D0B0FA7C
S31508012EE080F0400910BD40F259410448FFF7E8FD5A
S31508012EF0EBE700BF209000200C900020A0C100083D
S31508012F0088B170B5174D2B6883420BD0044602F081
S31508012F1007FA2046FFF7D6FF012809D0BDE8704019
S31508012F2002F010BA70BD40F27A410F48FFF7C8BDEA
S31508012F30261D304604F0ECFD0C4AE36A11680C487C
S31508012F408B4288BF136003EB830300EB8300314692
S31508012F5004F0B4FD2B68E26ADB6A9A42DED302F01A
S31508012F60BBF9DBE780000020A0C10008940000201F
S31508012F70CC8E002030B585B00024144A0192CDE9E3
S31508012F80024400942346802211491248FFF754FE51
S31508012F9001280BD005460DB105B030BD0E4840F2EB
S31508012FA01F5105B0BDE83040FFF78ABD00F07CFB34
S31508012FB001280546EFD102F09BF9084A084B15602E
S31508012FC01C6005B0BDE8304002F024BA9800002024
S31508012FD098C10008112B0108A0C10008A40000200F
S31508012FE0A8000020024A136801331360704700BF26
S31508012FF08C00002010B502F093F9034B1C6802F00F
S31508013000A1F9204610BD00BFA80000202DE9F04F08
S315080130104E4B1B6883B0002B7BD14D4B1A6801328E
S315080130201A601F680FB34B4B0193019B1B68BB4288
S3150801303037D9DFF83C81DFF83C910025D9F8003013
S31508013040454ADB6A126803EB830358F82330022BDF
S3150801305028BF0125002A64D0404B1B68002B0CBFF2
S315080130602846012003B0BDE8F08F3D4E33681B6842
S31508013070002B64D13B4B31683B4A186830601960B4
S3150801308013680133136033681B68002B4CD1314B2D
S3150801309001931A464FF0FF331360019B1B68BB422D
S315080130A0C7D82F4EDFF8C880DFF8C890DFF8C8A068
S315080130B0002525E03368DB68DC68636804F1040BE6
S315080130C09F42584638D304F023FDA36A04F1180039
S315080130D00BB104F01DFDE36ADAF8002003EB830067
S315080130E09342594608EB800088BFCAF8003004F0BD
S315080130F0E5FCD9F80030E26ADB6A9A4228BF012565
S3150801310033681B68002BD5D1019A4FF0FF33136042
S3150801311094E7114A1368013313600025FFF7BCFCD5
S315080131209AE7FFF7B9FC97E733680A4ADB68019221
S31508013130DB685B68136078E7019A13607EE740F203
S315080131405B610A48FFF7BCFC94E700BF8C000020CE
S31508013150A80000209C00002088000020AC00002068
S31508013160C48E0020C88E0020A0000020A0C100083F
S31508013170CC8E002080000020940000202DE9F04725
S315080131802F4C2368002B51D002F0CAF82368013B63
S3150801319023602368002B43D12A4B1B68002B3FD0A1
S315080131A0DFF8B4A0284E294FDFF8B090DFF8B080D9
S315080131B01EE0F368DC68251D04F1180004F0A8FC7C
S315080131C0284604F0A5FCE36A3A6803EB83009342B8
S315080131D0294609EB800088BF3B6004F06FFCD8F8EC
S315080131E00030E26ADB6A9A4224BF0123CAF800303A
S315080131F03368002BDDD1164C23686BB123685BB1AC
S315080132000125FFF703FF08B1CAF800502368013BFF
S3150801321023602368002BF4D1DAF80040012C0BD087
S31508013220002402F08FF82046BDE8F08740F25A5193
S315080132300848FFF745FCA7E702F04EF8F1E700BF9B
S315080132408C000020840000200C90002094000020AF
S3150801325088000020A0C10008AC000020CC8E002008
S315080132608000002038B50C460546002836D03CB308
S315080132701F4920480A682B6801320A6001681C192F
S315080132802CBF012000208B4222460DD860B32C604A
S31508013290194B1868043004F03BFC2046FFF742FC42
S315080132A0FFF76CFF40B138BDB0B1A1422C60EFD336
S315080132B0FFF764FF0028F6D1BDE8384002F00CB8E4
S315080132C040F2BF210D48FFF7FBFB094909480B6886
S315080132D02A6801330B6003682A60E1E740F2BE21E0
S315080132E00648FFF7EDFBC2E7A142D0D3F4E700BFDA
S315080132F08C000020A800002080000020A0C1000842
S31508013300044B1B680BB9FFF733BC034B01221A6048
S31508013310704700BF8C000020AC00002070B50E4637
S315080133200546C8B10F4C21682846183104F0D6FB6A
S315080133302068043004F0ECFB731C06D00A4B1868AD
S315080133403044BDE87040FFF7EDBB216807480431FA
S31508013350BDE8704004F0B2BB40F265710448FFF75E
S31508013360AFFBDFE780000020A800002020900020A6
S31508013370A0C1000870B50E46054680B10B4C216800
S315080133802846183104F09AFB2068043004F0C0FB83
S31508013390074B18683044BDE87040FFF7C3BB40F2DD
S315080133A09B710448FFF78CFBE8E700BF800000200B
S315080133B0A8000020A0C1000838B5C368DC684CB372
S315080133C004F11805284604F0A3FB154B1B68E3B95D
S315080133D0251D284604F09CFB124AE36A1168124827
S315080133E08B4288BF136003EB8303294600EB8300F6
S315080133F004F064FB0D4BE26A1B68DB6A9A4223BF41
S315080134000B4B01201860002038BD2946094804F0F5
S3150801341055FBEFE740F2D1710748FFF751FBCFE7BC
S315080134208C00002094000020CC8E00208000002013
S31508013430AC0000200C900020A0C1000810B504467D
S3150801344030B1064A064B12681B68C4E9002310BD51
S3150801345040F2F7710348FFF733FBF2E7A0000020BB
S31508013460A8000020A0C10008F8B50D46044658B3C7
S315080134708DB301F055FF2B681A4A581C11681ED0E6
S31508013480DFF868C0D4E90060DCF80070BE4201D0FC
S3150801349081420FD20F1ABB420CD95B1ADCF8001015
S315080134A0126803442B600025C4E9001201F04AFFA3
S315080134B02846F8BD012501F045FF2846F8BD002537
S315080134C001F040FF2846F8BD40F601010648FFF71E
S315080134D0F7FA002DCDD140F602010348FFF7F0FABD
S315080134E0C7E700BFA8000020A0C10008A00000206F
S315080134F0014B01221A607047AC00002068B1036BCA
S315080135001A78A52A4FF000000FD113F8012F0130C0
S31508013510A52A80B2F9D080087047044B1868036B56
S315080135201A78A52A4FF00000EFD0704780000020D6
S31508013530014B1868704700BF80000020044B1868CB
S3150801354028B1044B1B68002B0CBF012002207047D1
S31508013550A40000208C000020B8B1F8B5164DC36A46
S315080135602A68D26A93420FD22A68144ED26A4169EE
S3150801357003EB830306EB8303C2F10E0299428261D0
S3150801358004D02B68DB6AC362F8BD7047071D044681
S31508013590384604F0BDFA2A68094BD06A1A68E0620F
S315080135A0904200D9186000EB800006EB800039468E
S315080135B0BDE8F84004F082BA80000020CC8E0020D5
S315080135C094000020F0B138B5C26A436C9A4218D00B
S315080135D0051D0446284604F09BFA0B4A636C1168DC
S315080135E0E362C3F10E008B42A061084888BF1360ED
S315080135F003EB8303294600EB8300BDE8384004F05A
S315080136005DBA38BD704700BF94000020CC8E0020FB
S31508013610F8B50F4C01F084FE25681DB1BDE8F840E8
S3150801362001F090BE0B4F0C4E384604F037FA30467F
S3150801363004F034FA094A0A4B17600C212A46062077
S315080136401E6004F041FB2060BDE8F84001F07ABE37
S31508013650B40000203C9000205090002034900020B7
S3150801366038900020914208B50061416005D881690A
S31508013670D21A8A420CD3012008BD9A4201D2994234
S31508013680F9D2074B011D186804F028FA002008BD75
S31508013690044B011D186804F021FA002008BD00BF7B
S315080136A0349000203890002000B585B0FFF7B0FFB0
S315080136B00B4B1B685BB100230222CDE90023CDE940
S315080136C00233802207490848FFF7B6FA20B90748A6
S315080136D0E021FFF7F5F9002005B05DF804FB00BF0E
S315080136E0B4000020E8C1000819380108C4C100085F
S315080136F02DE9F0410D46B1B18046282017461E46F0
S31508013700FFF712F8044658B1FFF782FF069BC4F883
S315080137100080C4E9065726626362201D04F0CAF9CF
S315080137202046BDE8F0814FF4847103482C46FFF723
S31508013730C7F92046BDE8F081C4C1000870B5134E2B
S31508013740346884B064B11D46CDE90112039053B1C2
S315080137501A462046002301A904F076FB04B070BD81
S31508013760204604B070BDFFF7E9FE012807D030688E
S315080137702B462A4601A904F0CDFA04B070BD2B46A2
S315080137803068089A01A904F0C5FAE7E7B4000020F1
S315080137902DE9F0471D4DDFF87C8082B04FF0000A15
S315080137A00DE0DB68DC681F6804F10409484604F08B
S315080137B0AFF9636A20469847E369012B0AD02B685B
S315080137C01A68002AEDD1124A11682960136002B0FD
S315080137D0BDE8F087A6693E440023B74219463A4632
S315080137E0204606D2666024612868494604F076F9BF
S315080137F0E5E7CDF800A0FFF7A1FF0028DFD140F2E9
S3150801380082214046FFF75CF9D9E700BF34900020D2
S3150801381038900020C4C100082DE9F04FDFF874A1E3
S315080138205B4FDFF87481DFF8749187B04FF0000BB6
S31508013830DAF800301D68002D6DD0DB681D68FFF7CA
S31508013840D1FBFFF7D7FB3B68834204466BD8854219
S31508013850386073D9291BD8F8000004F065FCFFF716
S315080138608DFC002867D000231A4603A9D8F8000062
S3150801387004F054FB0028DBD0059C636913B1201DB5
S3150801388004F046F9FFF7B6FB3B689842054627D38D
S31508013890039E3D60022E29D0032E31D0002EE2D19F
S315080138A0049BA1692A4619442046FFF7DBFE012835
S315080138B0D9D1636A20469847E369012BD3D1A36915
S315080138C0049A00961A44204633463146FFF736FFD6
S315080138D00028C8D140F22F214846FFF7F1F8C2E780
S315080138E0FFF756FF039E3D60022ED5D10499A161CB
S315080138F051B1294420462B462A46FFF7B3FEB2E7C3
S315080139002046FEF77DFFAEE74FF40F714846FFF7F5
S31508013910D7F8A169EDE7FFF765FBFFF76BFB3B6896
S315080139209842044605D2FFF733FF3C60FFF726FCB1
S3150801393099E73C608EE701F0CFFC94E7FFF71EFCA0
S31508013940DAF80030DB68DE68301D04F0E1F8F36967
S31508013950012B03D0736A3046984784E7B16922463A
S3150801396029442B463046FFF77DFE0128F2D1002374
S31508013970CDF800B02A4619463046FFF7DFFE002883
S31508013980E8D14FF4AD714846FFF79AF8E2E700BF70
S31508013990B000002034900020B4000020C4C1000803
S315080139A02DE9F043404E414D414FDFF80891DFF8CC
S315080139B0088189B000234FF0FF3201A9306804F06D
S315080139C0ADFA012805D00122142142F2081001F0AE
S315080139D0FBFA9DF80440012C05D90122142142F273
S315080139E00C1001F0F1FA2B5D012BE3D19DF805309E
S315080139F0032B51D8DFE803F03F2413029DF8043066
S31508013A0057F833201AB1012090479DF8043007EB87
S31508013A10C3035B68002BCDD001209847CAE79DF800
S31508013A20043057F833201AB1002090479DF8043026
S31508013A3007EBC3035B68002BBCD000209847B9E7A6
S31508013A409DF8043058F8334044B1079B9DF810108F
S31508013A5003980DF11102A0479DF8043008EBC30342
S31508013A605C68002CA6D0079B9DF8101003980DF1F1
S31508013A701102A0479EE79DF8043059F833201AB180
S31508013A80039890479DF8043009EBC3035B68002B44
S31508013A9090D0039898478DE70122142142F2091024
S31508013AA001F092FA86E700BF9890002094900020D2
S31508013AB06490002084900020749000202DE9F0473E
S31508013AC0414C424D424FDFF80C818CB00026002351
S31508013AD04FF0FF3206A9206804F020FA012805D024
S31508013AE00122142142F2071001F06EFA9DF81830EE
S31508013AF0012B41D89DF82020082A43D8EB5C002BDE
S31508013B0040D0DDF81C908DF80E2019F0804348D17D
S31508013B108DF80D3072B10DF12203013A53FA82F292
S31508013B200DF10F010DF1210313F8010B01F8010B3A
S31508013B309A42F9D14B46002B3ADBCDE901368DF88D
S31508013B400C60CDF81C90FEF735FF9DF8183003EB95
S31508013B508303824601A957F8330001F0A9FE042818
S31508013B602ED09DF8183003EB43030344504648F81A
S31508013B702390FEF721FFAAE70122142142F20C1035
S31508013B8001F022FA0123002206A9206804F0C2F8EE
S31508013B9000289CD10122142142F2041001F014FAE2
S31508013BA095E702238DF80D3029F08043002BC4DAFE
S31508013BB023F000430422CDE901638DF80C20C0E708
S31508013BC05046FEF7F9FEDDE7AC9000209490002000
S31508013BD03CC20008B8900020F0B500EB8002174BF4
S31508013BE053F8325089B00446002628464FF48061BE
S31508013BF0009601F061FF012802D0009809B0F0BDD6
S31508013C000F4A8DF804400746032410688DF80540CD
S31508013C1033466A4601A904F017F938B128464FF424
S31508013C20806101F0B9FF009809B0F0BD3A46142148
S31508013C3042F2061001F0C8F9F0E700BF3CC20008DD
S31508013C40989000202DE9F04300EB8002534B8FB08A
S31508013C5053F832608DF81C000546002430460221CF
S31508013C60CDE9004401F028FF01280AD00821304691
S31508013C7001F022FF012805466BD000980FB0BDE878
S31508013C80F0830346214630468DF81D3001F0B4FE17
S31508013C900446002848D0DFF81091DFF81081642720
S31508013CA00CE0029A09929DF811204AB3099B43F048
S31508013CB080430993013C14F0FF0435D002AA002180
S31508013CC0304601F049FEFFF795F959F825309DF878
S31508013CD010208DF8205007FB00F0A8FB0010C3EB5D
S31508013CE090109DF812300D908DF82830002AD8D002
S31508013CF0039A42F0004209929DF81120002AD5D173
S31508013D00002BD7D0013B05AA52FA83F20DF12901FE
S31508013D100DF1130313F8010B01F8010B9342F9D1C5
S31508013D20013C14F0FF04C9D11D4A0023106807A9F4
S31508013D3001AA04F089F818B3019B3046012B4FF00C
S31508013D40020108BF009301F027FF00980FB0BDE8F4
S31508013D50F083134A2346106802246A4607A98DF898
S31508013D601D4004F071F890B130460E4901F08CFE01
S31508013D703046082101F010FF00980FB0BDE8F08326
S31508013D800122142142F2061001F01EF9D4E72A464F
S31508013D90142142F2061001F017F9E5E73CC20008C2
S31508013DA09890002010000032A4900020D34D621094
S31508013DB02DE9F04300EB8002534B8FB053F8326084
S31508013DC08DF81C000546002430461021CDE9004433
S31508013DD001F072FE01280AD04021304601F06CFE3E
S31508013DE0012805466BD000980FB0BDE8F08303465D
S31508013DF0014630468DF81D3001F0FEFD04460028C7
S31508013E0048D0DFF81091DFF8108164270CE0029A98
S31508013E1009929DF811204AB3099B43F080430993FF
S31508013E20013C14F0FF0435D002AA0121304601F005
S31508013E3093FDFFF7DFF859F825309DF810208DF826
S31508013E40205007FB00F0A8FB0010C3EB90109DF86B
S31508013E5012300D908DF82830002AD8D0039A42F0F6
S31508013E60004209929DF81120002AD5D1002BD7D0FE
S31508013E70013B05AA52FA83F20DF129010DF113034B
S31508013E8013F8010B01F8010B9342F9D1013C14F027
S31508013E90FF04C9D11D4A0023106807A901AA03F026
S31508013EA0D3FF18B3019B3046012B4FF0100108BF11
S31508013EB0009301F071FE00980FB0BDE8F083134A34
S31508013EC02346106802246A4607A98DF81D4003F0A7
S31508013ED0BBFF90B130460E4901F0D6FD3046402170
S31508013EE001F05AFE00980FB0BDE8F08301221421B3
S31508013EF042F2061001F068F8D4E72A46142142F284
S31508013F00061001F061F8E5E73CC200089890002028
S31508013F1010000034A4900020D34D6210F0B500EBD8
S31508013F2080022E4B53F8325089B0044600262846A3
S31508013F300121009601F0C0FD012802D0009809B0C0
S31508013F40F0BD2749284601F075FD01282ED02549DF
S31508013F50284601F06FFD0128074633D02249284635
S31508013F6001F068FD012833D040F2FE311F48FEF703
S31508013F70A7FD04EB44031E441D4A1E4B52F82610A6
S31508013F8018680391002633466A4601A98DF804404C
S31508013F908DF808408DF8056003F056FF58B128469C
S31508013FA0012101F0F9FD009809B0F0BD0C49284638
S31508013FB001F06AFDDDE70122142142F2061001F043
S31508013FC003F8ECE70749284601F05EFD3E46D0E7CF
S31508013FD00549284601F058FD0226CAE73CC20008F1
S31508013FE001000038000100380000013810C200083D
