S02B00002E2E2F48414E636F6465725F453430375F5454415F436F6D62696E654D6F64656C5F56322E73726572
S315080040008CC90020B18101080000000000000000F2
S315080040100000000000000000000000000000000092
S31508004020000000000000000000000000B14A01087E
S3150800403000000000000000004D4B01089D4B0108E0
S315080040400000000000000000000000000000000062
S315080040500000000000000000000000000000000052
S3150800406000000000095A01080000000000000000D6
S315080040700000000000000000000000000000000032
S31508004080000000000000000000000000D93E010802
S31508004090913E0108B53E0108FD3E010800000000FA
S315080040A0F5590108E1590108CD590108BD5901081A
S315080040B0A95901089559010881590108000000000D
S315080040C000000000000000000000000000000000E2
S315080040D0000000008167010899670108B1670108B7
S315080040E000000000000000007968010800000000D8
S315080040F06D5901085959010849590108000000007D
S3150800410000000000E1670108000000000000000050
S315080041100000000000000000000000000000000091
S31508004120000000000000000000000000E56701082C
S3150800413000000000395A010800000000693F010824
S31508004140213F0108453F01088D3F0108A96801087C
S31508004150000000000000000000000000C967010818
S315080041600000000000000000000000000000000041
S315080041700000000000000000000000000000000031
S311080041800000000000000000EE11AA5527
S3150800C000000100000101000001000101000000001C
S3150800C010000000000000F03F000000000000F03FB4
S3150800C020000000C0CCCCF43F000000000000F03F48
S3150800C030383F070000042000100008000201000035
S3150800C040000000000A0A0A0048414E636F646572E0
S3150800C0505F453430375F5454415F436F6D62696E94
S3150800C060654D6F64656C5F56325F736F6674776192
S3150800C070726549445F76315F3039303632335F3125
S3150800C08035333333390000004170704374726C5491
S3150800C09061736B0048414E636F6465725F45343067
S3150800C0A0375F5454415F436F6D62696E654D6F64C7
S3150800C0B0656C5F56322E63002000000000140240B3
S3150800C0C008000900200000000014024010000E00BD
S3150800C0D0200000000014024020000F00200000008D
S3150800C0E00014024040000400200000000014024032
S3150800C0F08000050020000000001402400001060030
S3150800C1002000000000140240000207002000000082
S3150800C1100014024000040800040000000008024061
S3150800C12001000A00040000000008024004000C0098
S3150800C130414443636F6E76657273696F6E546173BB
S3150800C1406B0000002E2E2F626C6F636B7365742F65
S3150800C1507274772F53544D33322F7372632F686579
S3150800C16061705F342E630000546D724370754C6FB6
S3150800C1706164000049444C45000000002E2E2F62E1
S3150800C1806C6F636B7365742F7274772F53544D33CA
S3150800C190322F7372632F7461736B732E6300000002
S3150800C1A02E2E2F626C6F636B7365742F7274772FE4
S3150800C1B053544D33322F7372632F74696D657273DE
S3150800C1C02E630000546D72205376630043616E45FA
S3150800C1D076656E745461736B0000000043616E549B
S3150800C1E072616E736D69745461736B002E2E2F62C3
S3150800C1F06C6F636B7365742F7274772F53544D335A
S3150800C200322F7372632F53544D33325F45343037B0
S3150800C2102F63616E2E630000006400400000000278
S3150800C22008000000000C02400100000008000000A1
S3150800C230000C024002000100091314151600000044
S3150800C24000680040000000040200000000040240EC
S3150800C250200005000200000000040240400006001D
S3150800C260093F4041420000000101020102020202A8
S3150800C2700203020204020203030304030305030381
S3150800C2800603030504040604040704040804040753
S3150800C2900505080505080605080705080706080828
S3150800C2A00608080708080800457643686E6C3100DA
S3150800C2B0457643686E6C3200457643686E6C33008B
S3150800C2C02E2E2F626C6F636B7365742F7274772FC3
S3150800C2D053544D33322F7372632F53544D33325F99
S3150800C2E0453430372F6D61632E6300002E2E2F6282
S3150800C2F06C6F636B7365742F7274772F53544D3359
S3150800C300322F7372632F53544D33325F45343037AF
S3150800C3102F706F72742E6300000001400100000048
S3150800C320020100001000000000100240000209008F
S3150800C330100000000010024000080B000004004036
S3150800C3400200000001020000010000000000024097
S3150800C350400006000200000000040240200005001C
S3150800C3600008004004000000010200000800000068
S3150800C370000C024000100C0008000000000C0240EF
S3150800C38000200D0000040140020000000203000026
S3150800C39004000000000802404000060004000000F7
S3150800C3A0000802408000070010000000001002404C
S3150800C3B00001000001000800100000000010024003
S3150800C3C00004000101000A001000000000100240ED
S3150800C3D00010000201000C000000014001000000EE
S3150800C3E002011900000000400100000001021C00C3
S3150800C3F0000400400200000001021D000008004081
S3150800C4000400000001021E000004014002000000B2
S3150800C41002012C0000400140000001000201180042
S3150800C42000440140000002000201190000480140D2
S3150800C4300000040002011A00001C004080000000F1
S3150800C44001022C00002000400001000001022D001E
S3150800C4501000000000100240000200000100090060
S3150800C46010000000001002400008000101000B0047
S3150800C47010000000001002400020000201000D001C
S3150800C48010000000001002400040000301000E00EA
S3150800C4900100000000000240200001000100050024
S3150800C4A001000000000002404000020002000600F1
S3150800C4B002000000000402402000020102000500FC
S3150800C4C008000000000C02400010030002000C00E7
S3150800C4D008000000000C02400020030102000D00C5
S3150800C4E004000000000802404000040003000600A3
S3150800C4F00400000000080240800004010300070051
S3150800C500100000000010024020000500030005008E
S3150800C510100000000010024040000501030006005C
S3150800C5202000000000140240400006000300060038
S3150800C53020000000001402408000070003000700E6
S3150800C540200000000014024000010800090008004D
S3150800C550200000000014024000020900090009003A
S3150800C560040000000008024001000000200000004E
S3150800C57000140240400000002000000000140240A1
S3150800C58080000000200000000014024000010000A6
S3150800C59020000000001402400002000020000000F5
S3150800C5A000140240000400000200000000040240DB
S3150800C5B08000000002000000000402404000000065
S3150800C5C010000000001002400400000010000000E7
S3150800C5D00010024010000000100000000010024089
S3150800C5E0200000001000000000100240400000007B
S3150800C5F040000000001802408000000040000000D3
S3150800C6000018024000010000400000000018024027
S3150800C61000100000400000000018024000800000E2
S3150800C62001000000000002401000000002000000A7
S3150800C6300004024020000000010000000000024043
S3150800C6404000000001000000000002402000000039
S3150800C65008000000000C024001000000080000006D
S3150800C660000C02400200000008000000000C024016
S3150800C6700400000008000000000C0240080000004A
S3150800C68008000000000C024010000000080000002E
S3150800C690000C02402000000008000000000C0240C8
S3150800C6A04000000008000000000C02408000000066
S3150800C6B008000000000C024000010000080000000D
S3150800C6C0000C02400002000008000000000C0240B6
S3150800C6D00004000008000000000C024000080000EA
S3150800C6E008000000000C02400010000008000000CE
S3150800C6F0000C02400020000008000000000C024068
S3150800C7000040000008000000000C02400080000005
S3150800C7101000000000100240010000001000000098
S3150800C7200010024002000000100000000010024045
S3150800C7300800000010000000001002408000000001
S3150800C7401000000000100240000100001000000068
S3150800C7500010024000020000100000000010024015
S3150800C760000400001000000000100240000800004D
S3150800C7701000000000100240001000001000000029
S3150800C78000100240002000001000000000100240C7
S3150800C7900040000010000000001002400080000069
S3150800C7A020000000001402400100000020000000E4
S3150800C7B0001402400200000020000000001402409D
S3150800C7C004000000200000000014024008000000D9
S3150800C7D020000000001402401000000020000000A5
S3150800C7E0001402402000000020000000001402404F
S3150800C7F0000800002000000000140240001000009D
S3150800C8002000000000140240002000002000000064
S3150800C81000140240004000002000000000140240FE
S3150800C82000800000400000000018024001000000DF
S3150800C830400000000018024002000000400000000E
S3150800C84000180240040000004000000000180240E2
S3150800C8500800000040000000001802401000000018
S3150800C86040000000001802402000000040000000C0
S3150800C8700018024040000000400000000018024076
S3150800C88000020000400000000018024000040000FA
S3150800C89040000000001802400008000040000000A8
S3150800C8A00018024000200000400000000018024066
S3150800C8B000400000010000000000024001000000E6
S3150800C8C004000000000802400100000020000000EB
S3150800C8D0001402404000000020000000001402403E
S3150800C8E08000000020000000001402400001000043
S3150800C8F02000000000140240000200002000000092
S3150800C9000014024000040000020000000004024077
S3150800C9108000000002000000000402404000000001
S3150800C9201000000000100240040000001000000083
S3150800C9300010024010000000100000000010024025
S3150800C9402000000010000000001002404000000017
S3150800C950400000000018024080000000400000006F
S3150800C96000180240000100004000000000180240C4
S3150800C970001000004000000000180240008000007F
S3150800C9800100000000000240100000000200000044
S3150800C99000040240200000000100000000000240E0
S3150800C9A040000000010000000000024020000000D6
S3150800C9B008000000000C024001000000080000000A
S3150800C9C0000C02400200000008000000000C0240B3
S3150800C9D00400000008000000000C024008000000E7
S3150800C9E008000000000C02401000000008000000CB
S3150800C9F0000C02402000000008000000000C024065
S3150800CA004000000008000000000C02408000000002
S3150800CA1008000000000C02400001000008000000A9
S3150800CA20000C02400002000008000000000C024052
S3150800CA300004000008000000000C02400008000086
S3150800CA4008000000000C024000100000080000006A
S3150800CA50000C02400020000008000000000C024004
S3150800CA600040000008000000000C024000800000A2
S3150800CA701000000000100240010000001000000035
S3150800CA8000100240020000001000000000100240E2
S3150800CA90080000001000000000100240800000009E
S3150800CAA01000000000100240000100001000000005
S3150800CAB000100240000200001000000000100240B2
S3150800CAC000040000100000000010024000080000EA
S3150800CAD010000000001002400010000010000000C6
S3150800CAE00010024000200000100000000010024064
S3150800CAF00040000010000000001002400080000006
S3150800CB002000000000140240010000002000000080
S3150800CB100014024002000000200000000014024039
S3150800CB200400000020000000001402400800000075
S3150800CB302000000000140240100000002000000041
S3150800CB4000140240200000002000000000140240EB
S3150800CB500008000020000000001402400010000039
S3150800CB602000000000140240002000002000000001
S3150800CB70001402400040000020000000001402409B
S3150800CB80008000004000000000180240010000007C
S3150800CB9040000000001802400200000040000000AB
S3150800CBA0001802400400000040000000001802407F
S3150800CBB008000000400000000018024010000000B5
S3150800CBC0400000000018024020000000400000005D
S3150800CBD00018024040000000400000000018024013
S3150800CBE00002000040000000001802400004000097
S3150800CBF04000000000180240000800004000000045
S3150800CC000018024000200000400000000018024002
S3150800CC100040000004000000000802400020000058
S3150800CC20000001400100000002011B000000004056
S3150800CC300100000001021C00000400400200000080
S3150800CC4001021D00000800400400000001021E0049
S3150800CC50000401400200000002012E0000400140CD
S3150800CC600000010002011800004401400000020013
S3150800CC7002011900004801400000040002011A00E0
S3150800CC80001C00408000000001022C00002000402B
S3150800CC900001000001022D001000000000100240F3
S3150800CCA00002000002000200010009001000000056
S3150800CCB000100240000800010400200001000B00DB
S3150800CCC010000000001002400020000208000002C8
S3150800CCD001000D0010000000001002400040000393
S3150800CCE01000002001000E000100000000000240B4
S3150800CCF020000100020002000100050001000000FA
S3150800CD000000024040000200020002000200060085
S3150800CD100200000000040240200002010400200076
S3150800CD200200050008000000000C02400010030085
S3150800CD300200020002000C0008000000000C02407D
S3150800CD40002003010400200002000D00040000007A
S3150800CD50000802404000040002000200030006002A
S3150800CD6004000000000802408000040104002000BE
S3150800CD700300070010000000001002402000050014
S3150800CD800200020003000500100000000010024027
S3150800CD9040000501040020000300060020000000F2
S3150800CDA000140240400006000200020003000600CC
S3150800CDB02000000000140240800007000200020064
S3150800CDC003000700200000000014024000010800CC
S3150800CDD002000200090008002000000000140240BA
S3150800CDE000020900020002000900090000100140C3
S3150800CDF010000000022500000200000000040240A6
S3150800CE0040000600020000000004024080000700FF
S3150800CE100700000000440040000002000126000050
S3150800CE2008000000000C0240200005000800000071
S3150800CE30000C0240400006000700000000480040C1
S3150800CE40000004000127000008000000000C024052
S3150800CE500001080008000000000C0240000209005A
S3150800CE6007000000001401402000000002470000EF
S3150800CE70040000000008024040000600040000000C
S3150800CE8000080240800007000800000056435020B2
S3150800CE90436F6E666967000056435020496E746595
S3150800CEA0726661636500000053544D6963726F656D
S3150800CEB06C656374726F6E696373000053544D3307
S3150800CEC032205669727475616C20436F6D506F72AB
S3150800CED07420696E204853206D6F64650000000059
S3150800CEE053544D3332205669727475616C20436F02
S3150800CEF06D506F727420696E204653204D6F6465BD
S3150800CF0000000000303030303030303030353042BC
S3150800CF1000000000303030303030303030353043AB
S3150800CF2000000000000001400100000002011B0093
S3150800CF30000000400100000001021C00000400403F
S3150800CF400200000001021D00000800400400000065
S3150800CF5001021E00000401400200000002012E002A
S3150800CF600040014000000100020118000044014091
S3150800CF7000000200020119000048014000000400F8
S3150800CF8002011A00001C00408000000001022C006B
S3150800CF90002000400001000001022D0010000000E2
S3150800CFA00010024000020000020002000100090011
S3150800CFB010000000001002400008000104002000D4
S3150800CFC001000B00100000000010024000200002C3
S3150800CFD00800000201000D001000000000100240C9
S3150800CFE0004000031000002001000E0001000000B0
S3150800CFF000000240200001000200020001000500B6
S3150800D0000100000000000240400002000200020089
S3150800D010020006000200000000040240200002018F
S3150800D020040020000200050008000000000C024071
S3150800D030001003000200020002000C0008000000B5
S3150800D040000C0240002003010400200002000D002D
S3150800D050040000000008024040000400020002002C
S3150800D06003000600040000000008024080000401D6
S3150800D0700400200003000700100000000010024012
S3150800D0802000050002000200030005001000000051
S3150800D09000100240400005010400200003000600BD
S3150800D0A020000000001402404000060002000200B2
S3150800D0B0030006002000000000140240800007005C
S3150800D0C002000200030007002000000000140240CE
S3150800D0D00001080002000200090008002000000004
S3150800D0E000140240000209000200020009000900BB
S3150800D0F02E2E2F626C6F636B7365742F7274772F85
S3150800D10053544D33322F7372632F71756575652EBF
S3150800D110630000000404040028D1000830D1000888
S3150800D12038D1000807070700457643686E6C31005A
S3150800D130457643686E6C3200457643686E6C3300FC
S3150800D1405050500000000000E2652F227F2B7A3CE9
S3150800D150075C143326A6813CBDCBF07A8807703C61
S3150800D160075C143326A6913C4FBB610567ACDD3FCF
S3150800D170182D4454FB21E93F9BF681D20B73EF3FF0
S3150800D180182D4454FB21F93FFB21F93FFB210940A7
S3150800D1907CD91240FB2119407A6A1F407CD922406B
S3150800D1A0BBFD2540FB2129403A462C407A6A2F4090
S3150800D1B05C4731407CD932409C6B3440BBFD3540DE
S3150800D1C0DB8F3740FB2139401BB43A403A463C4096
S3150800D1D05AD83D407A6A3F404C7E40405C474140C1
S3150800D1E06C1042407CD942408CA243409C6B444020
S3150800D1F0AC344540BBFD4540CBC64640DB8F474077
S3150800D200EB584840FB21494083F9A200444E6E0082
S3150800D210FC291500D1572700DD34F50062DBC00074
S3150800D2203C999500419043006351FE00BBDEAB007C
S3150800D230B761C5003A6E2400D24D42004906E000A7
S3150800D24009EA2E001C92D100EB1DFE0029B11C0034
S3150800D250E83EA700F535820044BB2E009CE9840011
S3150800D260B4267000417E5F00D69139005383390099
S3150800D2709CF439008B5F840028F9BD00F81F3B0039
S3150800D280DEFF97000F980500112FEF000A5A8B0052
S3150800D2906D1F6D00CF7E360009CB2700464FB700BD
S3150800D2A09E663F002DEA5F00BA277500E5EBC700CA
S3150800D2B03D7BF100F739070092528A00FB6BEA00C2
S3150800D2C01FB15F00085D8D00300356007BFC4600E9
S3150800D2D0F0AB6B0020BCCF0036F49A00E3A91D0022
S3150800D2E05E619100081BE60085996500A0145F0041
S3150800D2F08D40680080D8FF0027734D000606310070
S3150800D300CA561500C9A873007BE260006B8CC00082
S3150800D31000000040FB21F93F000000002D44743E48
S3150800D320000000809846F83C0000006051CC783B2D
S3150800D33000000080831BF0390000004020257A3861
S3150800D340000000802282E336000000001DF36935E4
S3150800D35002000000030000000400000006000000B0
S3150801000091F800C0002A10B50CF003042EDD4FF05C
S31508010010010E7246184B0130C0B203EB8403022865
S3150801002013F80E3002D90A70002010BD134C205C5B
S315080100300342F8D01CF0080F4FEA9C0011D1C40600
S3150801004001D59806EFD442EA830213F0380F0A70F5
S3150801005018BF4FF0FF30E8D113F0070018BF012091
S3150801006010BD5C07DFD4C406EDD5EAE7921702F0A6
S3150801007002029646CEE700BF34C0000830C0000829
S315080100800B78FF2B00D070474B78002BFBD102F081
S315080100908FB800BF08B5012001F03AFABDE808405B
S315080100A0024A40F26761002004F0D8B881000108CD
S315080100B000F03EB9704700BF2DE9F041224D234AB1
S315080100C095F82330224C1370002B3AD094F83A3025
S315080100D00133DBB21F4994F841200B701E491F4EAC
S315080100E084F83A309A420A7094BF4FF001084FF0EB
S315080100F0000817D8737B012B14D0194B94F83B7061
S31508010100D3E900010CF040FBC0B2B84288BF7B1CA2
S31508010110144A8CBFDBB2012384F83B3013700023E9
S3150801012084F83A30072086F80D8006F01FFE00F5A0
S315080101307A7189B269810322BDE8F041072006F088
S3150801014069BD94F83A30C5E768050020D005002056
S3150801015098020020D7050020D60500208802002035
S3150801016030000020D5050020704700BF2DE9F04179
S315080101702DED048B537A09EE100ABCB00F460BB16C
S3150801018000235372D56A2B68012B5FD0DFED498AAC
S31508010190012305F10C08B7EE008AEC222B602B71BE
S315080101A00021C5ED028A85ED3E8AC5ED3F8A4046A6
S315080101B001AC0CF059FBEC22414620460CF0A6FB9B
S315080101C079EE287AF0EE689A0026C7ED008A3CABEC
S315080101D003EB860313ED3B7A77EE876AB6009FED4C
S315080101E0367A06F1F003B4EE478A0DEB0306F1EE13
S315080101F010FA06ED3B9A4CD0B7EE007A38EE078A2C
S31508010200F5EE409AF1EE10FA05D19FED2C6A86EECD
S31508010210867A87ED007AC5ED027AEC2221464046B8
S315080102200CF074FBF5EEC09AF1EE10FAC6BFF7EEC4
S31508010230007A79EEE77ADFED1F7A85ED3E8AC5ED1C
S315080102403F7A3CB0BDEC048BBDE8F08195ED3E8A62
S31508010250D5ED028AD5ED3F9AFDEEC87A05F10C086F
S3150801026001ACEC224146204617EE906A0CF04EFB93
S315080102709FED107AF4EE479AF1EE10FA78EE897A44
S3150801028006F1FF3687ED007AA1D0F0EE476AB6008F
S31508010290A5E7DDED3B7A3BAB33ED017A77EE877A5D
S315080102A0A342C3ED007AF7D1DFED027AB7EE008AF1
S315080102B0A6E700BF0000000000006C420000704283
S315080102C070B50446DDE9055610B13078012801D12B
S315080102D0347070BD92F800C0049A85F800C012887F
S315080102E00498120A2A81D2B26A7090F800E085F859
S315080102F002E01888000AE880C0B2E8701B782B7102
S31508010300002560F3070563F30F2562F31745064BCE
S315080103106EF31F65052200201D6083F804C003F0F3
S3150801032029FD347070BD00BF78020020000000006E
S315080103302DE9F04F2DED028B6D4C91B0D4E90401F6
S31508010340002200230CF0C6F9002840F09E8694F896
S315080103504D30002B40F0C880D4E906010022002365
S315080103600CF0B8F9002840F0FF85DFF8B0A1DAE90A
S315080103700067FF2384F838305E4B00223946C4E90A
S31508010380066730460CF0A6F95B4B5C4A003818BF85
S3150801039001201070054605900022D3E900010023CB
S315080103A00CF098F948B928460BF0C2FE32463B468E
S315080103B00CF090F9002840F0368594F84230003B5D
S315080103C018BF01238AF823304D4B1B78002204926B
S315080103D0002B00F03185DFF848B19BF8008007EE65
S315080103E0908AF8EEE77AB0EE007AF4EE477A0125BC
S315080103F0F1EE10FA84F8485040F0968000223D4B01
S31508010400304639460CF066F90246002840F0658602
S3150801041084F8C9523B4B3C4D009019682B4603F0B2
S31508010420D9FE002802DD2B788AF86630314B002286
S31508010430304639460CF04EF9002840F0A2869BF862
S315080104400080324D07EE908AF8EEE77A94ED066B56
S31508010450B0EE087AF4EE477AF1EE10FA8DED066BF6
S31508010460287371D094F8C83213B1002384F8C832BE
S315080104700023B8F1010FEB7240F08D800022DDE90F
S3150801048006011C4B0CF026F90246002800F0CF871E
S3150801049094F84C3013B1002384F84C306B7ADFF8AA
S315080104A078800122934288F8002000F0D586184BFF
S315080104B0DFF870C05A70E28EACF800200132E2868D
S315080104C0144994F841201A708AF81C204FF080725A
S315080104D05A60002009685880082203F04BFC98F8F6
S315080104E000309BF800805FE084F84D0034E700BFD8
S315080104F0980200200000F03F58000020D405002093
S31508010500D00500202000002080020020880200205B
S315080105107802002018000020D30500206805002075
S31508010520D5050020DE05002094F8C902002840F010
S31508010530FC85CDE90667C44D2873B0EE087AF4EE5A
S31508010540477AF1EE10FA8DD10022DDE90601BF4B9B
S315080105500CF0C0F80246002840F0C885BC4B009054
S31508010560DFF834831968012384F8C832434603F057
S3150801057031FE002803DD98F800308AF8653094EDDD
S31508010580067B8DED067B9BF800800023B8F1010FF1
S31508010590EB723FF473AF94F84C3013B1002384F82F
S315080105A04C30AC4A0023137007EE908AB8EEE78AFE
S315080105B0F1EE047AB4EE678AF1EE10FA6B7240F046
S315080105C042862B7A012B00F095800021042001F048
S315080105D02BFB07EE900AA04BA04A1880F8EE677A23
S315080105E09F4917EE900AFFF7C1FDDAED187A9D4A81
S315080105F0FCEEE77A002117EE903A05209BB21380AC
S31508010600A38501F011FB07EE900A974B97491880CD
S31508010610F8EE677A964A17EE900AFFF7A7FDDAED24
S31508010620177A944AFCEEE77A472017EE903A9BB27E
S315080106301380238605F0D8FC8F4B84F83C00D3E958
S3150801064000017DA3D3E900230BF0DCFD9AF82430E1
S31508010650C4E90801002B40F0DF86012005F012F9F4
S315080106600022A0620023D4E902010CF03DF84FF004
S315080106700008B0EB080018BF012060F307083046F0
S31508010680E68D724BAAF80860394600220CF022F86A
S31508010690B0FA80F094F84330400960F30F2863F309
S315080106A0174894F84430314663F31F680022002343
S315080106B01020C4E90223CAF8248005F071FB9AF8D0
S315080106C0261001B101210A2005F0DCFC9AF8271051
S315080106D001B101210B2005F0D5FC9AF8251001B1CD
S315080106E00121472005F0CEFC9BF8003008EE103AB0
S315080106F0B8EEC88AF1EE047AB4EE678A0123F1EE00
S3150801070010FA2B7240F09585EB79012B00F0F481F4
S31508010710D4E90801DFF88491584BC3E900010AF0CE
S3150801072055F8D9E904230BF06DFD0022544B0BF063
S3150801073069FD544BB4F83280CDE90C01A08E1880BE
S31508010740514BA8EB0000A3F80080504B80B21880EB
S315080107500BF0DEFC06460F4609F0EEFF02460B4695
S3150801076030463946CDE90A2309F09EFF484B06462D
S315080107700F460022DDE90C010BF044FDDDE90A23F1
S315080107800BF040FD2EA3D3E90023CDE9060130463F
S3150801079039460BF037FD02460B46DDE906010BF03B
S315080107A07BFB02460B464046CDE908230BF0B0FC1D
S315080107B00B4698460246304608F1004606920796C9
S315080107C09DED067B334B394683ED007B1746304B4F
S315080107D00022CDE90E780BF015FDDDE90C230BF0AF
S315080107E011FD17A3D3E9002306460F46DDE90A01E1
S315080107F00BF008FD02460B46304639460BF04AFB1C
S31508010800D9E9022306460F46D9E900010BF0FAFC9D
S3150801081032463B460BF0F6FC02460B46DDE906017D
S31508010820CDE9062309F088FF02460B46DDE90E01EC
S3150801083036E000BFAFF30080000000401BB98E3FD1
S31508010840000000C0CCCCF43F880200200000F03F35
S315080108501C000020D3050020E60500202404002002
S31508010860C8050020E4050020E2050020C405002093
S31508010870E8020020E00500204000002020060020B4
S315080108800000D03FEE050020EC050020EA05002017
S3150801089000001040180600208002002010C0000841
S315080108A0CDE90A2309F000FFDDE90867CDE90C0166
S315080108B000220023304639460BF016FF002840F087
S315080108C0028500220023304639460BF02BFF00280B
S315080108D000F0A7859FEDC47B8DED0E7BDDE90C014C
S315080108E0C74B00220BF08EFCDDE906230BF08AFCD0
S315080108F0DDE90A2306460F46DDE908010BF082FC0D
S3150801090002460B46304639460BF0C4FAD9E90623A6
S3150801091006460F46DDE90E010BF074FC02460B464E
S31508010920304639460BF06EFCB64B00220BF06AFCDA
S31508010930B34B804689460022DDE906010BF062FCCD
S31508010940DDE90A230BF05EFCDDE90C2306460F46BA
S31508010950DDE908010BF056FC02460B4630463946DE
S315080109600BF09AFA02460B46404649460BF074FDCF
S315080109700BF02AFF0BF0EEFB09F00AFD0BF024FF42
S315080109809FEDA17AA14B07EE900A67EE877A186068
S3150801099017EE900A0BF0DEFB9D4B80468946C3E9AC
S315080109A00089A06A0BF0C4FB91A3D3E900230BF0DD
S315080109B029FC984B06460F4640464946C3E9006757
S315080109C009F032FF02460B463046394616461F469F
S315080109D009F02AFF02460B46304639460BF05AFA09
S315080109E094ED007B8C4A8D4B06460F4621F0004953
S315080109F0C2E900674946D3E900238DED087B8046A5
S31508010A000BF000FCDDE908230BF046FA02460B461B
S31508010A10CDE9062378A3D3E900230BF083FE00284A
S31508010A2040F03884DDE90601002200230BF05CFE64
S31508010A30002840F02F85DDE906010BF0A5FE00F53B
S31508010A40FA739BB2764AE38513803046394600220B
S31508010A5000230BF067FE734B061E4246D3E90001DD
S31508010A604B4618BF01260BF03FFE002800F00D8407
S31508010A7086F0010330461A4684F844306A4B84F8F6
S31508010A8043001E70DDE90667684B30461A70394621
S31508010A9059A3D3E900230BF045FE002800F0E283B1
S31508010AA055A3D3E90023304639460BF0F3F9CDE9CE
S31508010AB006015F4B4046D3E9002349460BF0A2FBEA
S31508010AC00022002306460F46DDE906010BF02AFE41
S31508010AD000220023002800F0EF84304639460BF047
S31508010AE021FE08B100260027DDE9080132463B460A
S31508010AF00BF0D2F9C4E900010123F1EE087AB4EE4C
S31508010B00678AF1EE10FAD4E90667EB7140F02F8394
S31508010B1000224FF08043304639460BF0DBFD024692
S31508010B20002800F0578394F84F3013B1002384F856
S31508010B304F30DFF820813046394600224FF0804396
S31508010B400BF0C8FD003818BF01203A4F3A4BD8F8C8
S31508010B5000100293394B019300973B1F07F10A02D4
S31508010B60FFF7AEFB9BF8003008EE103AB8EEC88ADC
S31508010B7094ED066BF1EE0C7AB4EE678AF1EE10FA93
S31508010B808DED086B40F0F1821E4B51EC160B0022DD
S31508010B900BF0A0FD003818BF0120294A294B029203
S31508010BA0294E2A4A0192009703F10E023168FFF78E
S31508010BB087FB9BF8003007EE903AF8EEE77A94ED5A
S31508010BC0066BB1EE007AF4EE477AF1EE10FA8DED86
S31508010BD0066B40F0C08200221D4B51EC160B0BF040
S31508010BE079FD39E0AFF30080000000000000F03F16
S31508010BF0000080999999B93F0000000000C0724031
S31508010C00000010400000084066663642F0050020E4
S31508010C1010060020080600200006002028000020F3
S31508010C20E805002048000020D2050020D105002053
S31508010C3038000020C80200208E020020B6050020D8
S31508010C408D020020C40200200C000020AC05002003
S31508010C500000F03F100000200246002800F0A282A2
S31508010C6094F84E3013B1002384F84E30DFF8F4922D
S31508010C70AB4BDDE9060100220BF02CFD003818BF4D
S31508010C800120A84BA84A0097D9F800100292A74A52
S31508010C90019203F10E02FFF713FBF1EE0C7AB4EEA3
S31508010CA0678AF1EE10FA09D10022DDE90801A04BA5
S31508010CB00BF010FD0246002800F0918394F84B30A2
S31508010CC013B1002384F84B309BF8003008EE103A34
S31508010CD0B8EEC88AF2EE007AB4EE678AF1EE10FA37
S31508010CE0D4E9066740F02F820022924B30463946F6
S31508010CF00BF0F0FC0246002800F0418394F84A30D4
S31508010D0013B1002384F84A30EB78012B39D0A08D32
S31508010D1094F83A70218E94F83C604FEA102C002220
S31508010D206CF30702002367F3070360F30F22080A2F
S31508010D3066F30F23AAF83200C0B2C9B260F31743AB
S31508010D4061F31F6360F31742CAF814307A4BAAF8A5
S31508010D5030C061F31F621A60A28D1F7152BAAAF8D8
S31508010D601820764A5E7111680020062203F002F8FF
S31508010D709BF8003008EE103AD4E90667B8EEC88A3F
S31508010D800123F2EE027AB4EE678AF1EE10FAEB70FD
S31508010D9040F0D08100226A4B304639460BF09AFC66
S31508010DA00246002800F0C08294F8493013B10023A6
S31508010DB084F84930AB78012B33D0A08D94F83A707A
S31508010DC0218E94F83C604FEA102C00226CF307023E
S31508010DD0002367F3070360F30F22080A66F30F235C
S31508010DE0AAF82C00C0B2C9B260F3174361F31F63B6
S31508010DF060F31742CAF80C304F4BAAF82AC061F3C0
S31508010E001F621A60A28D1F7152BAAAF810204D4AA4
S31508010E105E7111680020062202F0ACFFD4E906676C
S31508010E200123AB703DE0012304938AF82330464B36
S31508010E301B78002B7FF4CFAA94F8482082B394F844
S31508010E40C9220AB184F8C93294F8C83213B1002309
S31508010E5084F8C83294F84C3013B1002384F84C3026
S31508010E6094F84F3013B1002384F84F3094F84E307C
S31508010E7013B1002384F84E3094F84B3013B1002394
S31508010E8084F84B3094F84A3013B1002384F84A3079
S31508010E9094F84930002B40F04481002384F8483007
S31508010EA02A4D049B4BB16B78012B06D0284B1B7836
S31508010EB084F84130002384F83A30049B6B70059816
S31508010EC00BF036F932463B460BF004FC20B994F890
S31508010ED04220002A00F0938194F8473013B1002389
S31508010EE084F84730124B3046394600220BF006FC8F
S31508010EF0002867D1FF2384F8393001F05BF9154BD7
S31508010F00187001F05DF9144B024614481A6001F095
S31508010F1059F9134B186011B0BDEC028BBDE8F08F7F
S31508010F200000F03FC40200208C020020A00500202A
S31508010F300000084000001040780200200800002048
S31508010F400000144004000020D0050020880200207B
S31508010F5003000020DD050020F805002088C00008F0
S31508010F60F40500201400002000230E2084F83830F0
S31508010F7005F03AF80026002840F0A3800F2005F076
S31508010F8033F800274FF00008002800F0A3804FF03F
S31508010F908049102005F028F8424605464B4630465A
S31508010FA039460AF079FF0022002D00F01181CC4B59
S31508010FB0DFF864A30AF070FF06460F46CAE9006720
S31508010FC0FFF7DAB994F8403094F83F10C54A012B77
S31508010FD028BF0123012994BF5B180133472000214B
S31508010FE084F83910137004F0FFFF00285AD0BE495F
S31508010FF00022D1E9000100230BF06CFB94F83D3087
S31508011000BA4994F84520003BB0FA80F018BF01238D
S31508011010400900EB430301EB43039D5C94F8403020
S31508011020012B00F02E822A1E18BF0122D2019AF83E
S3150801103021308AF81D2002EB430294F83E30003B2A
S3150801104018BF012300EB430001EB400194F8463039
S31508011050C85C94F83F30C2F34702012B8AF81F2077
S3150801106000F00682031E18BF0123DB019AF822103D
S315080110708AF81E3003EB4103C3F3470384F845504E
S315080110808AF8203084F8460010E0994F002601219D
S3150801109003220720C4E9046784F84D1005F0BAFD58
S315080110A0FFF75AB99AF81F209AF8203091489249C1
S315080110B092099B09027084F83F200B7084F840302E
S315080110C01BE70F2004F090FF894F4FF00008002816
S315080110D07FF45DAF4FF000095BE794F8C932002B46
S315080110E04FD0002384F8C932FFF7A0B994F8C83263
S315080110F013B1002384F8C832EB7A012B3FF446AAD0
S315080111007E4A7F4B116800200122187002F032FED8
S3150801111094ED067B9BF800808DED067B0123FFF796
S3150801112035BA002384F84930B7E6002084F8C902A5
S31508011130FFF7FFB994F8493013B1002384F8493011
S315080111400023AB70ADE694F84A3013B1002384F856
S315080111504A30002315E694F84E3013B1002384F87B
S315080111604E30DFF8B89100208BE5002015E594F89C
S315080111704F3013B1002384F84F30DFF8A4810020E3
S31508011180E3E4604D287B012840F088809BF80080C5
S3150801119094ED066B07EE908A8DED066BF8EEE77A0D
S315080111A0FFF7CAB9DFF87491DFF8788100904FF03C
S315080111B0010CD9F8001084F84EC0434603F00AF82A
S315080111C000287FF755AD98F800308AF842304FE588
S315080111D00023EDE6DFF84881DFF848910090012306
S315080111E084F84F30D8F800104B4602F0F3FF002878
S315080111F07FF7A1AC99F800308AF858309BE40123AF
S315080112000092414D84F84730404B19682B4602F04D
S31508011210E1FF021EC8BF2B783A49C8BF8AF82830B1
S315080112200120FEF7EDFE002840F0E980D4E90667C3
S3150801123058E6F2EE047AB4EE678AF1EE10FA3FF454
S3150801124063AA002359E4F2EE047AB4EE678AF1EE52
S3150801125010FA3FF4B6A902E06B72B7EE008A0023D2
S315080112602B724AE4DDE90601002200230BF050FA4D
S3150801127000283FF41EAC264B4046D3E900234946D5
S315080112800AF0C0FF06460F462EE486F00102034621
S31508011290FFF7F2BB4FF44873FFF7D4BB1D4A184B4F
S315080112A0116800200122187002F064FD9BF8008085
S315080112B094ED066B07EE908A8DED066BF8EEE77AEC
S315080112C00120FFF739B99FED047B8DED0E7BFFF702
S315080112D005BB00BFAFF30080000000000000F0BFAF
S315080112E000001040DA0500205000002000C0000868
S315080112F00000F03FD9050020D80500201C00002079
S3150801130078020020880200207002002018000020C0
S315080113103800002020000020680500201400002065
S3150801132010000020800200206F4B00906F4E196854
S31508011330012384F84930334602F04CFF002840F374
S31508011340B4806B483178727873798AF81210037011
S315080113508AF81320090284F83D3053189BB24FF2DC
S31508011360C95202FB03F3C3F3405202EB9353A3861C
S315080113700023D4E90667AAF82E10AB7091E55D4BF8
S3150801138000905D4E1968012384F84A30334602F00D
S3150801139021FF002840F382805848317872787379A2
S315080113A08AF81A1003708AF81B20090284F83E305D
S315080113B053189BF80020AAF8341008EE102A9BB29D
S315080113C04FF2C95202FB03F3C3F3405202EB9353A4
S315080113D06386D4E90667B8EEC88A0023D1E4316882
S315080113E0474E0090012384F84B30334602F0F2FE53
S315080113F000287FF769AC33788AF8363064E49AF8BE
S31508011400281084F8411001224FF48073D4E9066745
S3150801141084F84220638765E5012004F043FAFFF763
S315080114201CB99FED2F7B8DED0E7BFFF757BA84F81C
S315080114304C80344BDFF8D48000901968434602F09B
S31508011440C9FE021EC8BF98F800302F49C8BF8AF8DE
S3150801145064300120FEF7D4FD30B19AF8643084F87F
S3150801146041304FF4817363879BF80080FFF799B881
S31508011470011E18BF0121C9019AF81E308AF82210E7
S31508011480F8E52B1E18BF0123DB019AF81D208AF8FF
S315080114902130D0E54FF4FA73FFF7D4BA174B9AF80F
S315080114A01A101B789AF81B207FE7114B9AF812102D
S315080114B01B789AF813204DE7304639460BF032F976
S315080114C000287FF411ABDDE90601002200230BF0A9
S315080114D001F900283FF406ABFFF706BBAFF300801E
S315080114E0000000000000000004000020580200204F
S315080114F0DC0500200800002060020020DB05002032
S3150801150068020020180000209202002070020020C4
S315080115102DE9F041082184B0402002F067F9002046
S31508011520774CDFF81C8202F0E1FD7649032005F0CD
S31508011530B5FAFF2702210E2084F8387004F01EFD43
S3150801154002210F2004F01AFD0221102004F016FDD5
S315080115506D49072005F038FC6C4B0020196802F02C
S315080115600DFE6B4B0020196802F008FED8F8001032
S315080115700020002502F002FE0021042000F0D2FA24
S31508011580012604F5E27329460520C4F8B831C4E9F1
S315080115906F6684F88C5184F8C462C4F89061C4F803
S315080115A0C451A4F8946100F0BDFA2346022143F818
S315080115B0885F4720E367C4E9206684F8505084F8B9
S315080115C088616665A4F8586004F0D8FC2946304657
S315080115D004F0D0F831460A2004F022FD31460B20EA
S315080115E004F01EFD3146472004F01AFD2A4642F64C
S315080115F00D01092004F072FA4649092004F016FC87
S315080116002A462946102004F0FBFA434B2846196856
S3150801161002F0B4FD414B2846196802F0AFFD404B74
S315080116202846196802F0AAFD3E4B2846196802F0B9
S31508011630A5FD3D4B2846196802F0A0FDD8F8001013
S31508011640284602F09BFD0221472084F8397004F0F0
S3150801165095FC4FF4197000F0B9FB4FF47A7000F05D
S31508011660A9FB642000F032FB26498DF80C5001AA2B
S315080116702846CDE9015502F047F9B04204D02B4876
S3150801168040F6491100F016FE2949032005F08AFBA8
S3150801169002F098FE02F0A0FE264B2749274A9A60D7
S315080116A04FF00130C3E90010D4F8B85140F20112E5
S315080116B09A812B68012B0DD10026EC22AE60002100
S315080116C005F10C000BF0D0F84FF07E53C5F8F83051
S315080116D0C5F8FC60E46F2368012B0DD10025EC22C7
S315080116E0A560002104F10C000BF0BEF84FF07E5303
S315080116F0C4F8F830C4F8FC5004B0BDE8F08100BF66
S315080117009802002040420F00B9000108200000207D
S315080117101C000020B500010810000020140000205C
S315080117200C000020080000200400002094C00008D6
S315080117306901010888020020030101010101030171
S3150801174018000020454B1B78012B00D070472DE966
S31508011750F041434A1378012B96B005D0414803F06E
S315080117606FFB16B0BDE8F0813F4E00243346147076
S315080117705A78E5B203331AB101340A2CF8D1254651
S315080117803A4803F049FE4FF080603949394A0790D3
S315080117904FF480634FF4006008914FF4005100271D
S315080117A00B94099201244FF480720D930E904FF415
S315080117B080330F912D48109207A911930A970C9718
S315080117C01297CDE91477139403F0BCFE21462748F6
S315080117D003F0E4FE03F09CFA01A9224801978DF86B
S315080117E008408DF80970CDE9037705978DF81850EB
S315080117F003F09CFABDB1013DEDB2DFF88080194FC7
S31508011800023504EB44023244032312F8032C02EB9B
S31508011810420208EB82013846E2B2897A013403F0C2
S31508011820C9FAAC42EDD1002003F0C2FE012003F053
S31508011830CDFE012003F0D8FE0F4A0A48136843F487
S3150801184000531360012103F00BFB0121054803F046
S31508011850FDFA0121034803F0A3FA7FE7650000209A
S31508011860640000200022014028060020106402407E
S315080118704C2201404806002000700040B8C000080C
S315080118802DE9F04FA34B1B6897B0002B00F0F180B0
S31508011890A14B019303F11E099F4DCDF8009004E079
S315080118A0009B03359D4200F0B880AB78002BF7D03A
S315080118B06B78002BF4D0994B1B78002BF0D0954A06
S315080118C095F800801768013BDBB207F14C064C22FC
S315080118D012FB0369AA4604E0B145374600F0978032
S315080118E04C3639784145F7D1019B002404E001348F
S315080118F00A2C03F1030305D05A78012AF7D11A787D
S315080119008A42F4D14C22394603A80AF0FFFFB86C83
S31508011910049A7D6CC30602F078418B4200F08E80F2
S315080119204FF0000C9B4600E08C460CF10101C9B250
S3150801193016AB03EB810353F8483C03F0784EF345A5
S31508011940F2D10CF1020C0B299E465FFA8CFC5B4620
S3150801195069D90E2910D80FFA8CF103AA02EB810175
S3150801196000E094464A6841F8042BBCF10E0F0CF1CD
S315080119700102D2B2F5D9049A694931F814C022F0A4
S315080119807842CCF30B0C6FF078419445139160D9EA
S3150801199000240134E4B216AA02EB8402A64652F8E0
S315080119A0482C22F078429445F3D80B2C38D8032CCE
S315080119B00F9A98BF079922F07842A5EB020296BFC3
S315080119C021F078410CEB02058D18C4F10E0412AA18
S315080119D0E4B2A2EB840413AA52F8041D516094429E
S315080119E0FAD1441C16AA102C02EB8E0E28BF00242D
S315080119F043EA0C03384603A94C224EF8483CCDE984
S31508011A0014540AF083FFB14537467FF469AF55464A
S31508011A10009B03359D427FF448AF17B0BDE8F08FB0
S31508011A200E2CD2D9DDE7109A032922F07842154403
S31508011A301AD92EF0784EA5EB0E058CE7109A08995F
S31508011A4022F07842154421F078416D1A4FF0010CC5
S31508011A5081E70F9A079922F07842AD1A21F0784169
S31508011A6000240D44A646B0E7089921F078416D1A7D
S31508011A7071E72A4E337803EBC30203EB420398005E
S31508011A8000F04CFA234B80461860234B002837D0C8
S31508011A901A4601931546034602F11E0914AC21277D
S31508011AA003E003354D453FF4F7AEAA78002AF8D08E
S31508011AB095F800C004A9002241F8042BA14202F1BD
S31508011AC00062F9D14C2203A918468DF80CC0149767
S31508011AD00AF01CFF327802EBC201034602EB41020F
S31508011AE04C3308EB82029342DBD90122142142F2DC
S31508011AF0030002F063FE074B186800F07BFACBE699
S31508011B000122142142F20200019303F11E0902F097
S31508011B1055FEC1E65C0600202806002002000020CA
S31508011B20480600202DE9F043092885B006460D46EA
S31508011B3068D838480478F4B9374A384B012702F18E
S31508011B401401077022F8024B8A425C709C7003F1FB
S31508011B500303F7D101214FF4800003F0C3FD4FF4CD
S31508011B608060012103F0E2FD6846CDE90044CDE934
S31508011B70024403F001F9DFF8A48008F11E01474683
S31508011B80434602E003338B4208D05A78012AF9D139
S31508011B901A78B242F6D105B0BDE8F083204A06EBC1
S31508011BA046039B0002EB0309D058012103F09AFD75
S31508011BB0B9F80830009300240323D9F804008DF8F6
S31508011BC0043069468DF8074003F01CFD98F801308A
S31508011BD008F1030843B101340A2CF7D10122142173
S31508011BE042F2010002F0EAFD04EB44043B1901222A
S31508011BF03E555A7005B19A700A4B01221A7005B002
S31508011C00BDE8F083012214214FF4005002F0D6FDFD
S31508011C108FE700BF6500002048060020280600203F
S31508011C20B8C0000864000020092838B505460C46E6
S31508011C3022D8214B1A78012A01D0002038BD14B3C5
S31508011C401E4B1C688CB31E4B197889B12378AB429D
S31508011C500ED00139CBB24C2111FB0341234603E0D7
S31508011C601A78AA421C4603D08B4203F14C03F7D1DA
S31508011C70606CC0F3CF0038BD012214214FF4005027
S31508011C8002F09CFDD5E70F4B214604E001310A29F4
S31508011C9003F10303D1D05A78012AF7D11A78AA4257
S31508011CA0F4D1094B33F8110038BD142142F205006D
S31508011CB002F084FD204638BD650000205C06002040
S31508011CC0020000202806002048060020034A044B8B
S31508011CD0A2FB002040091860704700BF1F85EB5121
S31508011CE06000002000B583B000F07EFD02AC084E0E
S31508011CF044F8040D074D03E02968204600F0ACFEC0
S31508011D00FFF720FD3378002BF6D0FFF7B9FDF3E78F
S31508011D10020000206000002008B5FFF713FD044B00
S31508011D201B781BB1BDE80840FFF7AABD08BD00BF77
S31508011D300200002000B583B000F056FD02AC054D47
S31508011D4044F8040DFEF7B4F92968204600F084FE2C
S31508011D50F8E700BF6800002010B584B0002400F041
S31508011D603FF802F009FDFEF795F9FFF7D5FF0522C1
S31508011D7023460092CDE90244019480220849094884
S31508011D8000F054FB084B039406211A880748009172
S31508011D90029401942346064900F048FB04B010BD9D
S31508011DA030C10008E51C01086C000020351D01083A
S31508011DB088C00008034A044BA2FB002040091860AA
S31508011DC0704700BF1F85EB516800002080087F28F7
S31508011DD0024B96BF802218801A8070476C0000203B
S31508011DE000F000B8074BC3F1006101F5004103F5A6
S31508011DF000605A5C03F8012B8342FAD1024B002298
S31508011E001A7070476406002060060020C1F5006359
S31508011E100133984218DA0144884215DADFF834C0EA
S31508011E20F0B40B4C9CF800600025FF27225CFF2AC2
S31508011E3000F1010302D0012527542E4698B28842A3
S31508011E40F4DB15B9F0BC704770478CF80060F9E708
S31508011E50640600206006002040F2FC73984210B523
S31508011E6002D90024204610BD044600F09DF9034B13
S31508011E701C5900F09BF9204610BD00BF64060020DE
S31508011E80F8B540F2FC73984200D9F8BD0446094EEC
S31508011E900D4600F089F9375900F088F9BD42F4D0AA
S31508011EA000F082F9355100F081F9034B01221A70CD
S31508011EB0F8BD00BF640600206006002010B4154A6C
S31508011EC000E01A4613688342FBD351685418A042AE
S31508011ED00AD041684418A3420DD0904203605DF8C8
S31508011EE0044B18BF106070474068014410464418F7
S31508011EF0A3425160F1D1084C2468A342EDD0D3E93D
S31508011F00003490422144036041605DF8044B18BFD8
S31508011F1010607047648E0020700000202DE9F041A2
S31508011F20044600F059FC2E480268002A39D02D4B88
S31508011F301F683C422FD174B304F108014B071CBF3B
S31508011F4021F00701083131B3DFF8A080D8F8006025
S31508011F508E4220D3244D2C6803E0226822B12546FF
S31508011F60144663688B42F8D30268A24213D02268EA
S31508011F7028682A605A1A102A00F1080528D8F61A7C
S31508011F8000223B43C4E90023C8F8006000F0F0FCD6
S31508011F902846BDE8F081002500F0EAFC2846BDE8A0
S31508011FA0F081124F124B396823F0070347F6F07593
S31508011FB05E190839726039605A510A490660C3E9DF
S31508011FC00065094D4FF000472B606A600F60B0E766
S31508011FD0631818465A606160FFF770FF6368CEE7B9
S31508011FE07000002074000020648E00207800002014
S31508011FF06C0E002000283AD038B51D4D50F8043C27
S315080120002A681342044610D050F8081CD9B14FF477
S315080120108671184800F04EF92A6854F8043C1342B0
S3150801202002D054F8081C71B138BD40F20B111148A1
S3150801203000F040F954F8083C002BE8D12A6854F816
S31508012040043C1342F0D023EA020344F8043C00F0AE
S31508012050C3FB094A54F8043C1168A4F108000B446F
S315080120601360FFF72BFFBDE8384000F081BC7047CD
S315080120707400002044C1000878000020014B18684C
S31508012080704700BF780000200C490D484B6830B4F2
S31508012090C3F5C332A032642303FB02F3094D0A4C8C
S315080120A05B09A5FB03230278C3F3C7139A4223707E
S315080120B038BF037000234B6030BC7047748E002014
S315080120C06D8E0020C55A7C0A6C8E002070B50D46AF
S315080120D006460AF0B5FC044628460AF0B1FC8442D5
S315080120E001D0002070BD6CB132782B789A42F8D1B4
S315080120F0002303E0F15CEA5C9142F2D10133DBB2E1
S315080121009C42F7D8012070BD00B51D4D1D481E4BD8
S3150801211083B000240093012204602C706C602C7239
S31508012120234642F210711948194D00F0DBFE28606A
S31508012130F0B10446174A184B002515701D7000F0BA
S3150801214053FB009502462B462046294600F0F0FE31
S31508012150012805D0012214214FF4805002F02EFBEC
S315080121600E4B00221A60FFF7F7FD00F0FDFAFEE7B5
S31508012170012214214FF4805002F020FB2C68D9E784
S31508012180748E0020808E00208920010868C100080D
S31508012190708E00206C8E00206D8E00207C00002041
S315080121A0704700BF704700BF02F09CBC02F0C0BC7C
S315080121B003F068BC014B1878704700BF6C8E00208D
S315080121C0FFF75CBF70B5054602F08CFC114B1C6825
S315080121D08CB106462946A068FFF778FF012805D184
S315080121E00DE0A068FFF772FF012808D02469294687
S315080121F0002CF6D1304602F09BFC204670BD64687F
S31508012200304602F095FC2046002CF7D000F070FD10
S31508012210800070BD808E00202DE9F0418046142093
S315080122200F461446FFF77AFE054628B30023C5E98B
S315080122300343C5E9018702F055FC134E074602F030
S3150801224051FC346802460CB90DE01C462369002B83
S31508012250FBD1104602F06CFC256138462C60BDE8BE
S31508012260F04102F065BC02F063FC2C60356038462B
S31508012270BDE8F04102F05CBC012214214FF4805004
S3150801228002F09CFAD2E700BF808E0020074A138825
S3150801229001339BB2092B138005D905490B68002028
S315080122A001330B60108003F00FBB00BF80000020D4
S315080122B07C000020012214214FF4805002F07EBADE
S315080122C0054B1A78012A00D070471A7A002AFBD1E1
S315080122D05A6801325A607047748E002008B502F0B8
S315080122E001FC044B0121002219701A72BDE808404D
S315080122F002F01EBC748E0020014B00221A70704732
S31508012300748E002008B5034C2368012BFDD902F011
S31508012310DDFBF9E78C8E00200D4B0E4A1968126811
S31508012320486082420DD80C4A10B5044610681968EF
S31508012330043104F0CDFF094B1A68A24288BF1C601C
S3150801234010BD074A10681968043104F0C1BF00BFFF
S3150801235084000020AC000020848E0020A00000200C
S31508012360888E00202B4B2DE9F0410022DFF8B8803A
S31508012370294E1A60D8F8002033689A4247D0D8F80F
S315080123800020D8F8003012681B6B9A4233D9234CC7
S31508012390234D236803EB830355F823309BB9214F5B
S315080123A008E02368013B2360236803EB830355F8A0
S315080123B0233043B92368002BF3D140F252713846D2
S315080123C0FFF778FFEDE7236803EB83039B00E91822
S315080123D008334A6852684A601D44AA4204BF5268D3
S315080123E04A60D368C8F80030D8F8002033689A42A2
S315080123F009D0BDE8F081D8F80000D8F800103431CA
S3150801240004F0D2FEC3E7BDE8F041FFF767BFFFF767
S3150801241073FFB4E7B00000209C000020980000205C
S315080124208C8E00207CC10008840000202DE9F84F1D
S31508012430DDF830B08A4691469846DDE90A570646E0
S31508012440002800F0A7800D2D00F287804820FFF7AD
S3150801245065FD0446002800F08C804FEA8909BBF126
S31508012460000F00F09D80C0F830B04A46A5215846B5
S315080124700AF0FAF9236BA9F10409994429F0070925
S315080124800AF1FF330AF10F0104F1330201E08B422D
S3150801249007D013F9010F02F8010F93F9000000287C
S315080124A0F5D10D2D4FF00003AB4604F1040A28BF00
S315080124B04FF00D0B84F843305046C4F82CB0C4F8DD
S315080124C044B004F0F1FE04F1180004F0EDFECBF17E
S315080124D00E03A3612461646242463146484602F00E
S315080124E0D1FA206007B13C6002F014FB444A454E1C
S315080124F01368013313603368002B3ED0424F3B68A3
S315080125001BB3DFF824814148E26A0368013303609B
S3150801251004F134012046FFF77FFE3D4BE06A1A6855
S31508012520904288BF186000EB800008EB8000514696
S3150801253004F0BEFE02F000FB3B681BB13368DB6AA0
S31508012540AB4222D30120BDE8F88F3368DFF8D88083
S31508012550DB6AAB4298BF3460D5E740F2ED112D48EE
S31508012560FFF7A8FE4820FFF7D9FC044600287FF4A8
S3150801257074AF4FF0FF30BDE8F88F34601368DFF8A9
S31508012580A880012B1AD0204FBDE702F09FFA01203F
S31508012590BDE8F88F4FF4F6711E48FFF78BFE52E738
S315080125A04846FFF7BBFC8346206300287FF45DAFEE
S315080125B02046FFF71FFD4FF0FF30C4E7474608F5F1
S315080125C08C793846143704F063FE4F45F9D1DFF8A4
S315080125D05CB0DFF85C900C4F584604F059FE48464B
S315080125E004F056FE0C4804F053FE0C4804F050FE65
S315080125F00B4A0C4BC2F800B0C3F8009083E700BF42
S315080126008800002084000020A800002094000020F3
S31508012610980000207CC10008CC8F0020E08F0020A4
S31508012620848E0020888E00208C8E0020A48F0020A6
S31508012630B88F0020F8B50446194E02F06BFA1CB3A0
S31508012640251D284604F05EFEA36A1BB104F1180095
S3150801265004F058FE134F2946384604F029FE02F0C5
S315080126606BFA3368A34200D0F8BD0F4B1B687BB9E0
S315080126700E4A39681268914208D00D4B1B685BB146
S315080126800C4B01221A60F8BD3468D9E73360F8BDEE
S31508012690BDE8F84002F01ABABDE8F840FFF762BE95
S315080126A084000020E08F0020A80000208800002078
S315080126B090000020B000002010B5044668B10A4B0E
S315080126C062699A4201D0002010BDA06A074B984260
S315080126D0F9D0B0FA80F0400910BD40F259410448DA
S315080126E0FFF7E8FDEBE700BFE08F0020CC8F002065
S315080126F07CC1000888B170B5174D2B6883420BD091
S31508012700044602F007FA2046FFF7D6FF012809D04A
S31508012710BDE8704002F010BA70BD40F27A410F4828
S31508012720FFF7C8BD261D304604F0ECFD0C4AE36AE6
S3150801273011680C488B4288BF136003EB830300EBD7
S315080127408300314604F0B4FD2B68E26ADB6A9A42DB
S31508012750DED302F0BBF9DBE7840000207CC1000868
S31508012760980000208C8E002030B585B00024144ACC
S315080127700192CDE902440094234680221149124868
S31508012780FFF754FE01280BD005460DB105B030BD43
S315080127900E4840F21F5105B0BDE83040FFF78ABD2B
S315080127A000F07CFB01280546EFD102F09BF9084AA7
S315080127B0084B15601C6005B0BDE8304002F024BA2C
S315080127C09C00002074C10008052301087CC100088B
S315080127D0A8000020AC000020024A136801331360E8
S315080127E0704700BF9000002010B502F093F9034B23
S315080127F01C6802F0A1F9204610BD00BFAC000020FC
S315080128002DE9F04F4E4B1B6883B0002B7BD14D4B06
S315080128101A6801321A601F680FB34B4B0193019B6B
S315080128201B68BB4237D9DFF83C81DFF83C910025AC
S31508012830D9F80030454ADB6A126803EB830358F876
S315080128402330022B28BF0125002A64D0404B1B6880
S31508012850002B0CBF2846012003B0BDE8F08F3D4E82
S3150801286033681B68002B64D13B4B31683B4A1868B7
S315080128703060196013680133136033681B68002BD5
S315080128804CD1314B01931A464FF0FF331360019B2C
S315080128901B68BB42C7D82F4EDFF8C880DFF8C8903F
S315080128A0DFF8C8A0002525E03368DB68DC686368C3
S315080128B004F1040B9F42584638D304F023FDA36A5A
S315080128C004F118000BB104F01DFDE36ADAF80020E3
S315080128D003EB83009342594608EB800088BFCAF888
S315080128E0003004F0E5FCD9F80030E26ADB6A9A4266
S315080128F028BF012533681B68002BD5D1019A4FF0F3
S31508012900FF33136094E7114A1368013313600025F6
S31508012910FFF7BCFC9AE7FFF7B9FC97E733680A4A61
S31508012920DB680192DB685B68136078E7019A1360DC
S315080129307EE740F25B610A48FFF7BCFC94E700BFFB
S3150801294090000020AC000020A00000208C00002090
S31508012950B0000020848E0020888E0020A40000206C
S315080129607CC100088C8E002084000020980000207D
S315080129702DE9F0472F4C2368002B51D002F0CAF8F5
S315080129802368013B23602368002B43D12A4B1B682C
S31508012990002B3FD0DFF8B4A0284E294FDFF8B090BE
S315080129A0DFF8B0801EE0F368DC68251D04F1180025
S315080129B004F0A8FC284604F0A5FCE36A3A6803EB90
S315080129C083009342294609EB800088BF3B6004F0E7
S315080129D06FFCD8F80030E26ADB6A9A4224BF012309
S315080129E0CAF800303368002BDDD1164C23686BB169
S315080129F023685BB10125FFF703FF08B1CAF8005048
S31508012A002368013B23602368002BF4D1DAF80040E0
S31508012A10012C0BD0002402F08FF82046BDE8F08780
S31508012A2040F25A510848FFF745FCA7E702F04EF86D
S31508012A30F1E700BF9000002088000020CC8F00201D
S31508012A40980000208C0000207CC10008B0000020FE
S31508012A508C8E00208400002038B50C4605460028D7
S31508012A6036D03CB31F4920480A682B6801320A60F0
S31508012A7001681C192CBF012000208B4222460DD863
S31508012A8060B32C60194B1868043004F03BFC2046EF
S31508012A90FFF742FCFFF76CFF40B138BDB0B1A14268
S31508012AA02C60EFD3FFF764FF0028F6D1BDE8384064
S31508012AB002F00CB840F2BF210D48FFF7FBFB0949AC
S31508012AC009480B682A6801330B6003682A60E1E745
S31508012AD040F2BE210648FFF7EDFBC2E7A142D0D37B
S31508012AE0F4E700BF90000020AC000020840000201D
S31508012AF07CC10008044B1B680BB9FFF733BC034BB9
S31508012B0001221A60704700BF90000020B000002023
S31508012B1070B50E460546C8B10F4C216828461831CE
S31508012B2004F0D6FB2068043004F0ECFB731C06D0D5
S31508012B300A4B18683044BDE87040FFF7EDBB2168C1
S31508012B4007480431BDE8704004F0B2BB40F2657134
S31508012B500448FFF7AFFBDFE784000020AC00002044
S31508012B60E08F00207CC1000870B50E46054680B18D
S31508012B700B4C21682846183104F09AFB206804306A
S31508012B8004F0C0FB074B18683044BDE87040FFF7F6
S31508012B90C3BB40F29B710448FFF78CFBE8E700BF13
S31508012BA084000020AC0000207CC1000838B5C36849
S31508012BB0DC684CB304F11805284604F0A3FB154B51
S31508012BC01B68E3B9251D284604F09CFB124AE36AF3
S31508012BD0116812488B4288BF136003EB83032946A9
S31508012BE000EB830004F064FB0D4BE26A1B68DB6AA9
S31508012BF09A4223BF0B4B01201860002038BD294695
S31508012C00094804F055FBEFE740F2D1710748FFF791
S31508012C1051FBCFE790000020980000208C8E002001
S31508012C2084000020B0000020CC8F00207CC1000861
S31508012C3010B5044630B1064A064B12681B68C4E94A
S31508012C40002310BD40F2F7710348FFF733FBF2E7A3
S31508012C50A4000020AC0000207CC10008F8B50D4690
S31508012C60044658B38DB301F055FF2B681A4A581C10
S31508012C7011681ED0DFF868C0D4E90060DCF800707E
S31508012C80BE4201D081420FD20F1ABB420CD95B1A40
S31508012C90DCF80010126803442B600025C4E9001211
S31508012CA001F04AFF2846F8BD012501F045FF2846EF
S31508012CB0F8BD002501F040FF2846F8BD40F60101A0
S31508012CC00648FFF7F7FA002DCDD140F60201034871
S31508012CD0FFF7F0FAC7E700BFAC0000207CC1000887
S31508012CE0A4000020014B01221A607047B0000020A1
S31508012CF068B1036B1A78A52A4FF000000FD113F8B3
S31508012D00012F0130A52A80B2F9D080087047044BFB
S31508012D101868036B1A78A52A4FF00000EFD07047A0
S31508012D2084000020014B1868704700BF840000200A
S31508012D30044B186828B1044B1B68002B0CBF0120F3
S31508012D4002207047A800002090000020B8B1F8B50D
S31508012D50164DC36A2A68D26A93420FD22A68144E5C
S31508012D60D26A416903EB830306EB8303C2F10E02C0
S31508012D709942826104D02B68DB6AC362F8BD704749
S31508012D80071D0446384604F0BDFA2A68094BD06A7D
S31508012D901A68E062904200D9186000EB800006EBE1
S31508012DA080003946BDE8F84004F082BA8400002064
S31508012DB08C8E002098000020F0B138B5C26A436CA9
S31508012DC09A4218D0051D0446284604F09BFA0B4A78
S31508012DD0636C1168E362C3F10E008B42A061084877
S31508012DE088BF136003EB8303294600EB8300BDE824
S31508012DF0384004F05DBA38BD704700BF980000201E
S31508012E008C8E0020F8B50F4C01F084FE25681DB1A3
S31508012E10BDE8F84001F090BE0B4F0C4E384604F061
S31508012E2037FA304604F034FA094A0A4B17600C217E
S31508012E302A4606201E6004F041FB2060BDE8F840E2
S31508012E4001F07ABEB8000020FC8F00201090002007
S31508012E50F48F0020F88F0020914208B50061416087
S31508012E6005D88169D21A8A420CD3012008BD9A4233
S31508012E7001D29942F9D2074B011D186804F028FAC4
S31508012E80002008BD044B011D186804F021FA002032
S31508012E9008BD00BFF48F0020F88F002000B585B06B
S31508012EA0FFF7B0FF0B4B1B685BB100230222CDE98C
S31508012EB00023CDE90233802207490848FFF7B6FA0D
S31508012EC020B90748E021FFF7F5F9002005B05DF8BC
S31508012ED004FB00BFB8000020C4C100080D3001087A
S31508012EE0A0C100082DE9F0410D46B1B18046282060
S31508012EF017461E46FFF712F8044658B1FFF782FF38
S31508012F00069BC4F80080C4E9065726626362201D41
S31508012F1004F0CAF92046BDE8F0814FF484710348EC
S31508012F202C46FFF7C7F92046BDE8F081A0C1000885
S31508012F3070B5134E346884B064B11D46CDE90112EB
S31508012F40039053B11A462046002301A904F076FBE3
S31508012F5004B070BD204604B070BDFFF7E9FE012834
S31508012F6007D030682B462A4601A904F0CDFA04B0E9
S31508012F7070BD2B463068089A01A904F0C5FAE7E73F
S31508012F80B80000202DE9F0471D4DDFF87C8082B09E
S31508012F904FF0000A0DE0DB68DC681F6804F10409DC
S31508012FA0484604F0AFF9636A20469847E369012B5E
S31508012FB00AD02B681A68002AEDD1124A11682960CD
S31508012FC0136002B0BDE8F087A6693E440023B74204
S31508012FD019463A46204606D266602461286849465B
S31508012FE004F076F9E5E7CDF800A0FFF7A1FF002880
S31508012FF0DFD140F282214046FFF75CF9D9E700BFED
S31508013000F48F0020F88F0020A0C100082DE9F04FA9
S31508013010DFF874A15B4FDFF87481DFF8749187B02C
S315080130204FF0000BDAF800301D68002D6DD0DB6813
S315080130301D68FFF7D1FBFFF7D7FB3B6883420446C0
S315080130406BD88542386073D9291BD8F8000004F07B
S3150801305065FCFFF78DFC002867D000231A4603A9F3
S31508013060D8F8000004F054FB0028DBD0059C6369FE
S3150801307013B1201D04F046F9FFF7B6FB3B689842E9
S31508013080054627D3039E3D60022E29D0032E31D053
S31508013090002EE2D1049BA1692A4619442046FFF76E
S315080130A0DBFE0128D9D1636A20469847E369012BDB
S315080130B0D3D1A369049A00961A4420463346314669
S315080130C0FFF736FF0028C8D140F22F214846FFF7FF
S315080130D0F1F8C2E7FFF756FF039E3D60022ED5D1F0
S315080130E00499A16151B1294420462B462A46FFF786
S315080130F0B3FEB2E72046FEF77DFFAEE74FF40F7148
S315080131004846FFF7D7F8A169EDE7FFF765FBFFF733
S315080131106BFB3B689842044605D2FFF733FF3C60D8
S31508013120FFF726FC99E73C608EE701F0CFFC94E7B0
S31508013130FFF71EFCDAF80030DB68DE68301D04F0A4
S31508013140E1F8F369012B03D0736A3046984784E79F
S31508013150B169224629442B463046FFF77DFE0128F0
S31508013160F2D10023CDF800B02A4619463046FFF7BA
S31508013170DFFE0028E8D14FF4AD714846FFF79AF80B
S31508013180E2E700BFB4000020F48F0020B800002059
S31508013190A0C100082DE9F043404E414D414FDFF8EB
S315080131A00891DFF8088189B000234FF0FF3201A9A1
S315080131B0306804F0ADFA012805D00122142142F243
S315080131C0081001F0FBFA9DF80440012C05D90122EB
S315080131D0142142F20C1001F0F1FA2B5D012BE3D117
S315080131E09DF80530032B51D8DFE803F03F2413027D
S315080131F09DF8043057F833201AB1012090479DF8FD
S31508013200043007EBC3035B68002BCDD00120984738
S31508013210CAE79DF8043057F833201AB100209047C1
S315080132209DF8043007EBC3035B68002BBCD0002074
S315080132309847B9E79DF8043058F8334044B1079BDD
S315080132409DF8101003980DF11102A0479DF804305E
S3150801325008EBC3035C68002CA6D0079B9DF81010E9
S3150801326003980DF11102A0479EE79DF8043059F81D
S3150801327033201AB1039890479DF8043009EBC3032C
S315080132805B68002B90D0039898478DE7012214219B
S3150801329042F2091001F092FA86E700BF5890002021
S315080132A0549000202490002044900020349000205F
S315080132B02DE9F047414C424D424FDFF80C818CB065
S315080132C0002600234FF0FF3206A9206804F020FAF1
S315080132D0012805D00122142142F2071001F06EFAE5
S315080132E09DF81830012B41D89DF82020082A43D88B
S315080132F0EB5C002B40D0DDF81C908DF80E2019F000
S31508013300804348D18DF80D3072B10DF12203013A8F
S3150801331053FA82F20DF10F010DF1210313F8010B96
S3150801332001F8010B9A42F9D14B46002B3ADBCDE95C
S3150801333001368DF80C60CDF81C90FEF735FF9DF827
S31508013340183003EB8303824601A957F8330001F0CD
S31508013350A9FE04282ED09DF8183003EB4303034435
S31508013360504648F82390FEF721FFAAE701221421C7
S3150801337042F20C1001F022FA0123002206A9206864
S3150801338004F0C2F800289CD10122142142F204104B
S3150801339001F014FA95E702238DF80D3029F08043E0
S315080133A0002BC4DA23F000430422CDE901638DF82A
S315080133B00C20C0E75046FEF7F9FEDDE76C900020C9
S315080133C05490002018C2000878900020F0B500EB50
S315080133D08002174B53F8325089B004460026284616
S315080133E04FF48061009601F061FF012802D0009830
S315080133F009B0F0BD0F4A8DF804400746032410684A
S315080134008DF8054033466A4601A904F017F938B123
S3150801341028464FF4806101F0B9FF009809B0F0BD64
S315080134203A46142142F2061001F0C8F9F0E700BF46
S3150801343018C20008589000202DE9F04300EB8002DD
S31508013440534B8FB053F832608DF81C0005460024A3
S3150801345030460221CDE9004401F028FF01280AD0AF
S315080134600821304601F022FF012805466BD0009855
S315080134700FB0BDE8F0830346214630468DF81D306E
S3150801348001F0B4FE0446002848D0DFF81091DFF8B1
S31508013490108164270CE0029A09929DF811204AB31B
S315080134A0099B43F080430993013C14F0FF0435D08E
S315080134B002AA0021304601F049FEFFF795F959F8AD
S315080134C025309DF810208DF8205007FB00F0A8FB49
S315080134D00010C3EB90109DF812300D908DF828302E
S315080134E0002AD8D0039A42F0004209929DF8112089
S315080134F0002AD5D1002BD7D0013B05AA52FA83F26F
S315080135000DF129010DF1130313F8010B01F8010B54
S315080135109342F9D1013C14F0FF04C9D11D4A002395
S31508013520106807A901AA04F089F818B3019B304667
S31508013530012B4FF0020108BF009301F027FF009805
S315080135400FB0BDE8F083134A2346106802246A4681
S3150801355007A98DF81D4004F071F890B130460E495F
S3150801356001F08CFE3046082101F010FF00980FB0DB
S31508013570BDE8F0830122142142F2061001F01EF97A
S31508013580D4E72A46142142F2061001F017F9E5E7B5
S3150801359018C20008589000201000003264900020DC
S315080135A0D34D62102DE9F04300EB8002534B8FB0E7
S315080135B053F832608DF81C00054600243046102168
S315080135C0CDE9004401F072FE01280AD040213046B7
S315080135D001F06CFE012805466BD000980FB0BDE8D6
S315080135E0F0830346014630468DF81D3001F0FEFD95
S315080135F00446002848D0DFF81091DFF810816427C7
S315080136000CE0029A09929DF811204AB3099B43F0EE
S3150801361080430993013C14F0FF0435D002AA012125
S31508013620304601F093FDFFF7DFF859F825309DF88C
S3150801363010208DF8205007FB00F0A8FB0010C3EB03
S3150801364090109DF812300D908DF82830002AD8D0A8
S31508013650039A42F0004209929DF81120002AD5D119
S31508013660002BD7D0013B05AA52FA83F20DF12901A5
S315080136700DF1130313F8010B01F8010B9342F9D16C
S31508013680013C14F0FF04C9D11D4A0023106807A99B
S3150801369001AA03F0D3FF18B3019B3046012B4FF063
S315080136A0100108BF009301F071FE00980FB0BDE844
S315080136B0F083134A2346106802246A4607A98DF83F
S315080136C01D4003F0BBFF90B130460E4901F0D6FD0F
S315080136D03046402101F05AFE00980FB0BDE8F0834C
S315080136E00122142142F2061001F068F8D4E72A46AD
S315080136F0142142F2061001F061F8E5E718C2000844
S31508013700589000201000003464900020D34D6210B8
S31508013710F0B500EB80022E4B53F8325089B00446BF
S31508013720002628460121009601F0C0FD012802D095
S31508013730009809B0F0BD2749284601F075FD012812
S315080137402ED02549284601F06FFD0128074633D0BA
S315080137502249284601F068FD012833D040F2FE319E
S315080137601F48FEF7A7FD04EB44031E441D4A1E4BE2
S3150801377052F8261018680391002633466A4601A9AD
S315080137808DF804408DF808408DF8056003F056FF62
S3150801379058B12846012101F0F9FD009809B0F0BD9C
S315080137A00C49284601F06AFDDDE70122142142F29F
S315080137B0061001F003F8ECE70749284601F05EFD1B
S315080137C03E46D0E70549284601F058FD0226CAE7D4
S315080137D018C200080100003800010038000001384D
S315080137E0ECC100087890002058900020F0B5384ABE
S315080137F0384DDFF810C1384C384E394F3080002328
S315080138000128C2E90033C2E90233C5E90033C5E933
S315080138100233ACF80030C4E90033C4E902339CBF73
S3150801382002233380032939809CBF04213980084645
S3150801383085B000221C2103F041FE2A4B186000289E
S315080138403FD030880022182103F038FE264B186035
S3150801385080B3264D2649274800230A22009203935E
S31508013860CDE901538022FEF7E1FD012805D00122A9
S31508013870142142F2021000F0A1FF1F4C1F492048F3
S315080138800023022200920393CDE901438022FEF729
S31508013890CDFD012805D00122142142F2031000F0C2
S315080138A08DFF2868FEF7C6FE206805B0BDE8F04022
S315080138B0FEF7C0BE0122142142F2011000F07EFF7C
S315080138C0C7E7012214214FF4045000F077FFB8E747
S315080138D0249000204490002034900020709000200D
S315080138E05C900020589000206C9000206090002089
S315080138F0CCC100089531010874900020DCC100088C
S31508013900B1320108549000202DE9F04F01288DB0FD
S3150801391006460F46924600F2698100F05B81002354
S315080139200093D54B4FEA860909EB060403EBC40459
S315080139300121606801F0EEFEA068012101F0D2FEC6
S315080139406069012101F0CEFED4F80CB094F820503C
S31508013950618A58462A4601F0AFFED4F81880E18BF1
S315080139602A4640460CAD01F0A7FE228A45F8242DC9
S31508013970022358464FF0010C29464FF0000B8DF8EB
S3150801398010308DF811308DF813C08DF812B001F092
S3150801399039FEA38B03932946404601F033FEA7F56A
S315080139A09C53B649083B8B4200F21C81DAF8003079
S315080139B0B3F1005F80F01681DAF80430B3F1005FE5
S315080139C080F010819AF80830022B00F20B81AC497D
S315080139D0AC484FF00808A1F13F0C454643464FF065
S315080139E0640E08E08C4500F0FD8091F83C3091F8B2
S315080139F03D5091F83E801D44EDB26B1C4344DBB249
S31508013A0007FB03F4B0FBF4F4A2B203FB02F314467A
S31508013A10013AB2F5806FA1F10301E3D2B0FBF3F3EA
S31508013A20DB1B0EFB03F3B3FBF7F313F0800F0CBF9D
S31508013A300122FF2213FB02F35BB2022BD2DCFEF753
S31508013A40B3FB09EB06038C4A019052F833703846EA
S31508013A5001F010FA013D05A801F016FB4FF0000B25
S31508013A6008F1FF388DF8185005A9012538468DF853
S31508013A701980ADF814408DF81AB08DF81BB08DF881
S31508013A801CB08DF81DB08DF81EB0ADF816B08DF8C6
S31508013A901F5001F00DFA009B9AF808805C19B8F1DD
S31508013AA0000F00F0FB80A84540F0A980DAE9002163
S31508013AB09DF800308DF82A30C9000B0CD20041F070
S31508013AC00401ADF8203008A8130C42F004028DF861
S31508013AD02BB08DF82C808DF82D80ADF828B0ADF877
S31508013AE02210ADF82430ADF8262001F055FA08A8C1
S31508013AF08DF82A40ADF8288001F04EFA012E05D935
S31508013B000122142142F20C1000F058FE5A4BB1441E
S31508013B1003EBC9090CAD99F8213005F8283D0124B4
S31508013B200F22002328468DF809208DF80A308DF8D2
S31508013B300B4000F065FF99F822308DF808302846C9
S31508013B4000F05EFF99F823308DF80830284600F01A
S31508013B5057FF99F824308DF80830284600F050FFB1
S31508013B6022462146384601F055FB224602213846AF
S31508013B7001F050FB22461021384601F04BFB224644
S31508013B800821384601F046FB22464021384601F015
S31508013B9041FB22464FF48061384601F03BFB3A4B24
S31508013BA09C55FEF721FE3949394A642303FB00F384
S31508013BB0A1FB03139B09019842F82630FEF7F6FA92
S31508013BC0344B1868FEF796FD334B1868FEF792FDDD
S31508013BD0204608E001464FF0007001F09BFD0E23D8
S31508013BE000939EE600200DB0BDE8F08F0122142156
S31508013BF042F20C1000F0E2FD0023009391E6DAE9A7
S31508013C000021520142F00802490192B289B29DF897
S31508013C1000308DF82A3008A8ADF82420ADF8262002
S31508013C20ADF82010ADF822108DF82BB08DF82CB018
S31508013C308DF82D50ADF828B001F0AEF9DAE9003269
S31508013C40D200DB004FEA124C190C42F0040243F091
S31508013C50040308A88DF82C508DF82A40ADF8285091
S31508013C60ADF820C0ADF82220ADF82410ADF8263005
S31508013C7001F092F942E700BF18C20008B82E0F00FA
S31508013C8068C2000880DE800254900020D34D62107D
S31508013C90649000206090002074900020DAE90032D8
S31508013CA05B0143F0080352019BB292B29DF80010E2
S31508013CB08DF82B8008A88DF82C808DF82D508DF85D
S31508013CC02A10ADF82880ADF82430ADF82630ADF8C5
S31508013CD02020ADF8222001F05FF908A88DF82A40C6
S31508013CE0ADF8285001F058F908E700BF0128F8B5E2
S31508013CF004460E4606D8012931D81C4B1D5DCDB99F
S31508013D002846F8BD0122142142F20C1000F056FD96
S31508013D10012E05D90122142142F2051000F04EFDAB
S31508013D200122142142F20C1000F048FD0F4B1D5DD3
S31508013D30002DE5D0FEF738FA04EB84040C4B074650
S31508013D4053F834003EB101F061FA05463846FEF7EC
S31508013D502DFA2846F8BD01F055FA0546F6E701227F
S31508013D60142142F2051000F029FDC6E754900020FF
S31508013D7018C20008F0B5012889B006460F4615464F
S31508013D801C4605D90122142142F20C1000F016FD39
S31508013D908DF8086003978DF810505DB1691E54FAC5
S31508013DA081F1631E0DF1110213F8010F02F8010BDF
S31508013DB08B42F9D1184C206803F0A2FD174B1B88DA
S31508013DC0181A012814D92068002301AA02A903F0A8
S31508013DD035FC18B10124204609B0F0BD0122142191
S31508013DE042F2041000F0EAFC0124204609B0F0BDB5
S31508013DF030460121FFF77AFF044618B10024204610
S31508013E0009B0F0BD0122142142F2041000F0D6FCDB
S31508013E10204609B0F0BD00BF6C90002070900020CC
S31508013E20012838B504460D4605D90122142142F266
S31508013E300C1000F0C3FC074B53F834202AB103EBEE
S31508013E40C402526802B138BD012202EB440243F8AA
S31508013E50225038BD44900020012838B504460D4645
S31508013E6005D90122142142F20C1000F0A7FC074BD8
S31508013E7053F834202AB103EBC402526802B138BDA3
S31508013E80012202EB440243F8225038BD3490002047
S31508013E9010B5FEF785F90020FFF7CEFA0446FEF7BE
S31508013EA081F91CB1024B4FF080521A6010BD00BF58
S31508013EB004ED00E010B5FEF773F90020FFF772FB79
S31508013EC00446FEF76FF91CB1024B4FF080521A6097
S31508013ED010BD00BF04ED00E010B5FEF761F9002042
S31508013EE0FFF716FC0446FEF75DF91CB1024B4FF0CD
S31508013EF080521A6010BD00BF04ED00E010B5FEF750
S31508013F004FF90020FFF762FA0446FEF74BF91CB198
S31508013F10024B4FF080521A6010BD00BF04ED00E05D
S31508013F2010B5FEF73DF90120FFF786FA0446FEF7BC
S31508013F3039F91CB1024B4FF080521A6010BD00BF0F
S31508013F4004ED00E010B5FEF72BF90120FFF72AFB77
S31508013F500446FEF727F91CB1024B4FF080521A604E
S31508013F6010BD00BF04ED00E010B5FEF719F90120F8
S31508013F70FFF7CEFB0446FEF715F91CB1024B4FF0CD
S31508013F8080521A6010BD00BF04ED00E010B5FEF7BF
S31508013F9007F90120FFF71AFA0446FEF703F91CB1DF
S31508013FA0024B4FF080521A6010BD00BF04ED00E0CD
S31508013FB0074B53F8203013B907E09B6833B11A68E9
S31508013FC08A42FAD15B6803B118477047704700BF48
S31508013FD0A890002001460120FFF7EABF014600200C
S31508013FE0FFF7E6BF2DE9F04706463148DDF82080A0
S31508013FF050F826400D46174699464CB12368994212
