S02900002E2E2F48414E636F6465725F453430375F5454415F436F6D62696E654D6F64656C2E73726563F8
S3150800400064CA0020598B0108000000000000000067
S315080040100000000000000000000000000000000092
S3150800402000000000000000000000000059540108CC
S315080040300000000000000000F5540108455501087D
S315080040400000000000000000000000000000000062
S315080040500000000000000000000000000000000052
S3150800406000000000B1630108000000000000000025
S315080040700000000000000000000000000000000032
S315080040800000000000000000000000008148010850
S31508004090394801085D480108A548010800000000E4
S315080040A09D63010889630108756301086563010852
S315080040B0516301083D6301082963010800000000F7
S315080040C000000000000000000000000000000000E2
S315080040D000000000297101084171010859710108A1
S315080040E00000000000000000217201080000000026
S315080040F01563010801630108F16201080000000068
S31508004100000000008971010800000000000000009E
S315080041100000000000000000000000000000000091
S315080041200000000000000000000000008D7101087A
S3150800413000000000E16301080000000011490108C1
S31508004140C9480108ED4801083549010851720108B6
S315080041500000000000000000000000007171010866
S315080041600000000000000000000000000000000041
S315080041700000000000000000000000000000000031
S311080041800000000000000000EE11AA5527
S3150800C000000000000000F03F000000000000F03FC4
S3150800C010000000000000E03F000000000000F03FC4
S3150800C0200000000000000000000000000000000002
S3150800C03000000000000000000000000000000000F2
S3150800C04000000000000000000001000001010000DF
S3150800C0500100010100000000383F0700000420002D
S3150800C0601000080002010000000000000A0A0A0089
S3150800C07048414E636F6465725F453430375F545488
S3150800C080415F436F6D62696E654D6F64656C5F7382
S3150800C0906F66747761726549445F76315F32303016
S3150800C0A03632335F313631323234000041707043F4
S3150800C0B074726C5461736B0048414E636F646572A9
S3150800C0C05F453430375F5454415F436F6D62696E24
S3150800C0D0654D6F64656C2E6300000000200000004B
S3150800C0E00014024008000900200000000014024065
S3150800C0F010000E00200000000014024020000F006F
S3150800C1002000000000140240400004002000000047
S3150800C11000140240800005002000000000140240C0
S3150800C120000106002000000000140240000207007B
S3150800C130200000000014024000040800040000006B
S3150800C1400008024001000A0004000000000802403E
S3150800C15004000C00414443636F6E76657273696F21
S3150800C1606E5461736B0000002E2E2F626C6F636B2A
S3150800C1707365742F7274772F53544D33322F73723D
S3150800C180632F686561705F342E630000546D7243D7
S3150800C19070754C6F6164000049444C45000000000E
S3150800C1A02E2E2F626C6F636B7365742F7274772FE4
S3150800C1B053544D33322F7372632F7461736B732E1E
S3150800C1C0630000002E2E2F626C6F636B7365742FED
S3150800C1D07274772F53544D33322F7372632F7469E9
S3150800C1E06D6572732E630000546D7220537663007A
S3150800C1F043616E4576656E745461736B000000008A
S3150800C20043616E5472616E736D69745461736B0029
S3150800C2102E2E2F626C6F636B7365742F7274772F73
S3150800C22053544D33322F7372632F53544D33325F49
S3150800C230453430372F63616E2E630000006400407A
S3150800C2400000000208000000000C02400100000087
S3150800C25008000000000C0240020001000913141532
S3150800C26016000000006800400000000402000000FC
S3150800C27000040240200005000200000000040240FD
S3150800C28040000600093F404142000000010102014A
S3150800C2900202020202030202040202030303040367
S3150800C2A0030503030603030504040604040704043C
S3150800C2B0080404070505080505080605080705080E
S3150800C2C007060808060808070808080045764368A8
S3150800C2D06E6C3100457643686E6C3200457643686D
S3150800C2E06E6C33002E2E2F626C6F636B7365742F22
S3150800C2F07274772F53544D33322F7372632F5354FE
S3150800C3004D33325F453430372F6D61632E6300003D
S3150800C3102E2E2F626C6F636B7365742F7274772F72
S3150800C32053544D33322F7372632F53544D33325F48
S3150800C330453430372F706F72742E63000000014049
S3150800C3400100000002010000100000000010024079
S3150800C35000020900100000000010024000080B004F
S3150800C3600004004002000000010200000100000075
S3150800C37000000240400006000200000000040240DF
S3150800C380200005000008004004000000010200002B
S3150800C39008000000000C024000100C000800000015
S3150800C3A0000C024000200D000004014002000000BD
S3150800C3B002030000040000000008024040000600D6
S3150800C3C0040000000008024080000700100000007A
S3150800C3D000100240000100000100080010000000E3
S3150800C3E0001002400004000101000A0010000000CD
S3150800C3F0001002400010000201000C00000001407D
S3150800C40001000000020119000000004001000000C0
S3150800C41001021C00000400400200000001021D0089
S3150800C420000800400400000001021E00000401404C
S3150800C4300200000002012C0000400140000001003B
S3150800C4400201180000440140000002000201190020
S3150800C450004801400000040002011A00001C0040C8
S3150800C4608000000001022C000020004000010000AE
S3150800C47001022D001000000000100240000200001A
S3150800C4800100090010000000001002400008000129
S3150800C49001000B00100000000010024000200002FE
S3150800C4A001000D00100000000010024000400003CB
S3150800C4B001000E00010000000000024020000100FB
S3150800C4C001000500010000000000024040000200D3
S3150800C4D002000600020000000004024020000201DB
S3150800C4E00200050008000000000C024000100300CE
S3150800C4F002000C0008000000000C024000200301A6
S3150800C50002000D000400000000080240400004007C
S3150800C5100300060004000000000802408000040131
S3150800C520030007001000000000100240200005006C
S3150800C530030005001000000000100240400005013D
S3150800C5400300060020000000001402404000060018
S3150800C55003000600200000000014024080000700C7
S3150800C5600300070020000000001402400001080034
S3150800C570090008002000000000140240000209001B
S3150800C580090009000400000000080240010000003C
S3150800C59020000000001402404000000020000000B7
S3150800C5A00014024080000000200000000014024031
S3150800C5B000010000200000000014024000020000F4
S3150800C5C020000000001402400004000002000000E1
S3150800C5D0000402408000000002000000000402403F
S3150800C5E04000000010000000001002400400000097
S3150800C5F010000000001002401000000010000000AB
S3150800C6000010024020000000100000000010024048
S3150800C61040000000400000000018024080000000B2
S3150800C6204000000000180240000100004000000021
S3150800C63000180240001000004000000000180240E8
S3150800C6400080000001000000000002401000000009
S3150800C6500200000000040240200000000100000063
S3150800C66000000240400000000100000000000240F7
S3150800C6702000000008000000000C02400100000035
S3150800C68008000000000C024002000000080000003C
S3150800C690000C02400400000008000000000C0240E4
S3150800C6A00800000008000000000C0240100000000E
S3150800C6B008000000000C02402000000008000000EE
S3150800C6C0000C02404000000008000000000C024078
S3150800C6D08000000008000000000C02400001000075
S3150800C6E008000000000C02400002000008000000DC
S3150800C6F0000C02400004000008000000000C024084
S3150800C7000008000008000000000C024000100000AD
S3150800C71008000000000C024000200000080000008D
S3150800C720000C02400040000008000000000C024017
S3150800C7300080000010000000001002400100000008
S3150800C7401000000000100240020000001000000067
S3150800C750001002400800000010000000001002400F
S3150800C76080000000100000000010024000010000D8
S3150800C7701000000000100240000200001000000037
S3150800C78000100240000400001000000000100240E3
S3150800C7900008000010000000001002400010000011
S3150800C7A010000000001002400020000010000000E9
S3150800C7B00010024000400000100000000010024077
S3150800C7C00080000020000000001402400100000064
S3150800C7D020000000001402400200000020000000B3
S3150800C7E0001402400400000020000000001402406B
S3150800C7F0080000002000000000140240100000009D
S3150800C8002000000000140240200000002000000064
S3150800C8100014024000080000200000000014024036
S3150800C8200010000020000000001402400020000054
S3150800C8302000000000140240004000002000000014
S3150800C840001402400080000040000000001802406A
S3150800C850010000004000000000180240020000002D
S3150800C86040000000001802400400000040000000DC
S3150800C87000180240080000004000000000180240AE
S3150800C88010000000400000000018024020000000D0
S3150800C8904000000000180240400000004000000070
S3150800C8A00018024000020000400000000018024084
S3150800C8B000040000400000000018024000080000C4
S3150800C8C04000000000180240002000004000000060
S3150800C8D0001802400040000001000000000002406D
S3150800C8E001000000040000000008024001000000EA
S3150800C8F02000000000140240400000002000000054
S3150800C90000140240800000002000000000140240CD
S3150800C9100001000020000000001402400002000090
S3150800C920200000000014024000040000020000007D
S3150800C93000040240800000000200000000040240DB
S3150800C9404000000010000000001002400400000033
S3150800C9501000000000100240100000001000000047
S3150800C96000100240200000001000000000100240E5
S3150800C970400000004000000000180240800000004F
S3150800C98040000000001802400001000040000000BE
S3150800C9900018024000100000400000000018024085
S3150800C9A000800000010000000000024010000000A6
S3150800C9B00200000000040240200000000100000000
S3150800C9C00000024040000000010000000000024094
S3150800C9D02000000008000000000C024001000000D2
S3150800C9E008000000000C02400200000008000000D9
S3150800C9F0000C02400400000008000000000C024081
S3150800CA000800000008000000000C024010000000AA
S3150800CA1008000000000C024020000000080000008A
S3150800CA20000C02404000000008000000000C024014
S3150800CA308000000008000000000C02400001000011
S3150800CA4008000000000C0240000200000800000078
S3150800CA50000C02400004000008000000000C024020
S3150800CA600008000008000000000C0240001000004A
S3150800CA7008000000000C024000200000080000002A
S3150800CA80000C02400040000008000000000C0240B4
S3150800CA9000800000100000000010024001000000A5
S3150800CAA01000000000100240020000001000000004
S3150800CAB000100240080000001000000000100240AC
S3150800CAC08000000010000000001002400001000075
S3150800CAD010000000001002400002000010000000D4
S3150800CAE00010024000040000100000000010024080
S3150800CAF000080000100000000010024000100000AE
S3150800CB001000000000100240002000001000000085
S3150800CB100010024000400000100000000010024013
S3150800CB200080000020000000001402400100000000
S3150800CB30200000000014024002000000200000004F
S3150800CB400014024004000000200000000014024007
S3150800CB500800000020000000001402401000000039
S3150800CB602000000000140240200000002000000001
S3150800CB7000140240000800002000000000140240D3
S3150800CB8000100000200000000014024000200000F1
S3150800CB9020000000001402400040000020000000B1
S3150800CBA00014024000800000400000000018024007
S3150800CBB001000000400000000018024002000000CA
S3150800CBC04000000000180240040000004000000079
S3150800CBD0001802400800000040000000001802404B
S3150800CBE0100000004000000000180240200000006D
S3150800CBF0400000000018024040000000400000000D
S3150800CC000018024000020000400000000018024020
S3150800CC100004000040000000001802400008000060
S3150800CC2040000000001802400020000040000000FC
S3150800CC3000180240004000000400000000080240FE
S3150800CC4000200000000001400100000002011B0056
S3150800CC50000000400100000001021C000004004022
S3150800CC600200000001021D00000800400400000048
S3150800CC7001021E00000401400200000002012E000D
S3150800CC800040014000000100020118000044014074
S3150800CC9000000200020119000048014000000400DB
S3150800CCA002011A00001C00408000000001022C004E
S3150800CCB0002000400001000001022D0010000000C5
S3150800CCC000100240000200000200020001000900F4
S3150800CCD010000000001002400008000104002000B7
S3150800CCE001000B00100000000010024000200002A6
S3150800CCF00800000201000D001000000000100240AC
S3150800CD00004000031000002001000E000100000092
S3150800CD100000024020000100020002000100050098
S3150800CD20010000000000024040000200020002006C
S3150800CD300200060002000000000402402000020172
S3150800CD40040020000200050008000000000C024054
S3150800CD50001003000200020002000C000800000098
S3150800CD60000C0240002003010400200002000D0010
S3150800CD70040000000008024040000400020002000F
S3150800CD8003000600040000000008024080000401B9
S3150800CD9004002000030007001000000000100240F5
S3150800CDA02000050002000200030005001000000034
S3150800CDB000100240400005010400200003000600A0
S3150800CDC02000000000140240400006000200020095
S3150800CDD0030006002000000000140240800007003F
S3150800CDE002000200030007002000000000140240B1
S3150800CDF000010800020002000900080020000000E7
S3150800CE00001402400002090002000200090009009D
S3150800CE10001001401000000002250000020000007A
S3150800CE200004024040000600020000000004024020
S3150800CE3080000700070000000044004000000200D0
S3150800CE400126000008000000000C02402000050032
S3150800CE5008000000000C0240400006000700000021
S3150800CE6000480040000004000127000008000000F8
S3150800CE70000C02400001080008000000000C0240F7
S3150800CE80000209000700000000140140200000000D
S3150800CE9002470000040000000008024040000600A7
S3150800CEA00400000000080240800007000800000097
S3150800CEB056435020436F6E666967000056435020FC
S3150800CEC0496E7465726661636500000053544D6966
S3150800CED063726F656C656374726F6E696373000065
S3150800CEE053544D3332205669727475616C20436F02
S3150800CEF06D506F727420696E204853206D6F64659B
S3150800CF000000000053544D3332205669727475611F
S3150800CF106C20436F6D506F727420696E20465320E3
S3150800CF204D6F6465000000003030303030303030EE
S3150800CF30303530420000000030303030303030308C
S3150800CF4030353043000000000000014001000000B9
S3150800CF5002011B00000000400100000001021C0045
S3150800CF60000400400200000001021D000008004005
S3150800CF700400000001021E00000401400200000037
S3150800CF8002012E00004001400000010002011800C5
S3150800CF900044014000000200020119000048014057
S3150800CFA00000040002011A00001C00408000000076
S3150800CFB001022C00002000400001000001022D00A3
S3150800CFC010000000001002400002000002000200EB
S3150800CFD001000900100000000010024000080001CE
S3150800CFE00400200001000B001000000000100240A1
S3150800CFF0002000020800000201000D0010000000D9
S3150800D00000100240004000031000002001000E003E
S3150800D010010000000000024020000100020002009A
S3150800D0200100050001000000000002404000020067
S3150800D030020002000200060002000000000402408E
S3150800D040200002010400200002000500080000007C
S3150800D050000C0240001003000200020002000C004F
S3150800D06008000000000C0240002003010400200014
S3150800D07002000D0004000000000802404000040001
S3150800D0800200020003000600040000000008024037
S3150800D09080000401040020000300070010000000BF
S3150800D0A000100240200005000200020003000500EF
S3150800D0B01000000000100240400005010400200096
S3150800D0C0030006002000000000140240400006008D
S3150800D0D002000200030006002000000000140240BF
S3150800D0E0800007000200020003000700200000007D
S3150800D0F000140240000108000200020009000800AE
S3150800D100200000000014024000020900020002008C
S3150800D110090009002E2E2F626C6F636B7365742FDE
S3150800D1207274772F53544D33322F7372632F717580
S3150800D1306575652E63000000040404004CD10008E0
S3150800D14054D100085CD100080707070045764368F4
S3150800D1506E6C3100457643686E6C320045764368DE
S3150800D1606E6C3300505050004FBB610567ACDD3F15
S3150800D170182D4454FB21E93F9BF681D20B73EF3FF0
S3150800D180182D4454FB21F93FE2652F227F2B7A3C68
S3150800D190075C143326A6813CBDCBF07A8807703C21
S3150800D1A0075C143326A6913CFB21F93FFB21094075
S3150800D1B07CD91240FB2119407A6A1F407CD922404B
S3150800D1C0BBFD2540FB2129403A462C407A6A2F4070
S3150800D1D05C4731407CD932409C6B3440BBFD3540BE
S3150800D1E0DB8F3740FB2139401BB43A403A463C4076
S3150800D1F05AD83D407A6A3F404C7E40405C474140A1
S3150800D2006C1042407CD942408CA243409C6B4440FF
S3150800D210AC344540BBFD4540CBC64640DB8F474056
S3150800D220EB584840FB21494083F9A200444E6E0062
S3150800D230FC291500D1572700DD34F50062DBC00054
S3150800D2403C999500419043006351FE00BBDEAB005C
S3150800D250B761C5003A6E2400D24D42004906E00087
S3150800D26009EA2E001C92D100EB1DFE0029B11C0014
S3150800D270E83EA700F535820044BB2E009CE98400F1
S3150800D280B4267000417E5F00D69139005383390079
S3150800D2909CF439008B5F840028F9BD00F81F3B0019
S3150800D2A0DEFF97000F980500112FEF000A5A8B0032
S3150800D2B06D1F6D00CF7E360009CB2700464FB7009D
S3150800D2C09E663F002DEA5F00BA277500E5EBC700AA
S3150800D2D03D7BF100F739070092528A00FB6BEA00A2
S3150800D2E01FB15F00085D8D00300356007BFC4600C9
S3150800D2F0F0AB6B0020BCCF0036F49A00E3A91D0002
S3150800D3005E619100081BE60085996500A0145F0020
S3150800D3108D40680080D8FF0027734D00060631004F
S3150800D320CA561500C9A873007BE260006B8CC00062
S3150800D33000000040FB21F93F000000002D44743E28
S3150800D340000000809846F83C0000006051CC783B0D
S3150800D35000000080831BF0390000004020257A3841
S3150800D360000000802282E336000000001DF36935C4
S3150800D3700200000003000000040000000600000090
S31508010000002A2CDD01231A460130C0B2022802D982
S315080100100A700020704791F800C010B5164C0CF014
S31508010020030E04EB8E0E154C1EF80330205C0342BA
S3150801003012D01CF0080F4FEA9C000BD1C40613D44A
S3150801004042EA830213F0380F0A7018BF4FF0FF30E7
S315080100500DD010BD5C07F1D50A70002010BD9217AE
S3150801006002F002021346CFE79806F5D4E8E713F043
S31508010070070018BF012010BD5CC0000858C0000861
S315080100800B78FF2B00D070474B78002BFBD102F081
S3150801009063BD00BF08B5012001F00EFFBDE80840A9
S315080100A0024A40F26761002004F0ACBD81000108F4
S315080100B000F002B9704700BF2DE9F041224D234AED
S315080100C095F83530224C1370002B3AD094F8DD3070
S315080100D00133DBB21F4994F8E0200B701E491F4E0D
S315080100E084F8DD309A420A7094BF4FF001084FF048
S315080100F0000817D8737B012B14D0194B94F8DF70BD
S31508010100D3E900010DF020F8C0B2B84288BF7B1CC4
S31508010110144A8CBFDBB2012384F8DF301370002345
S3150801012084F8DD30072086F80D8007F0F3FA00F52C
S315080101307A7081B229800322BDE8F041072007F0D1
S315080101403DBA94F8DD30C5E7700300208D02002022
S315080101505004002038030020EE060020E0060020A7
S3150801016060000020EF060020704700BF2DE9F0412E
S315080101702DED048B537A08EE900A9EB00F460BB10B
S3150801018000235372D56A2B68012B5FD09FED499ADC
S31508010190012305F10C08B7EE008A002674222B60AC
S315080101A02B71314685ED029A85ED208A85ED219AD6
S315080101B0404601AC0DF04EF97422414620460DF039
S315080101C033F878EE897AF0EE499A87ED009A1EABF4
S315080101D003EB860313ED1D7A77EE876AB600B3EE55
S315080101E00D7A06F17803B4EE478A0DEB0306F1EEB4
S315080101F010FA46ED1D8A4CD0B7EE007A38EE078A1A
S31508010200F5EE409AF1EE10FA05D1B3EE0E6A86EED6
S31508010210867A87ED007AC5ED027A74222146404630
S315080102200DF002F8F5EEC09AF1EE10FAC6BFF7EE38
S31508010230007A79EEE77ADFED1F7A85ED208AC5ED3A
S31508010240217A1EB0BDEC048BBDE8F08195ED208ABC
S3150801025095ED029AD5ED219AFDEEC87A05F10C08BD
S3150801026001AC74224146204617EE906A0CF0DCFF79
S315080102709FED107AF4EE479AF1EE10FA79EE287AA4
S3150801028006F1FF3687ED007AA1D0F0EE476AB6008F
S31508010290A5E71DAB73ED017A93ED017A77EE877ABF
S315080102A09C42C3ED007AF5D1DFED027AB7EE008AFA
S315080102B0A6E700BF000000002DE9F04F2DED088BE1
S315080102C0C44C8BB00023D4E9080100220CF0E2FEED
S315080102D000230293002840F0718794F80431002B1B
S315080102E040F0458794F8DC30002B00F04887BA4D7A
S315080102F0FF2395F82EB084F8D930B84B84F8DCB0D2
S31508010300D3E90001002200230CF0C4FE18B9BBF1A1
S31508010310010F00F0958794F8E8300022CDE9032211
S31508010320003B18BF012385F83530AD4B1B7807EE26
S31508010330903AF8EEE77AB1EE047AF4EE477AF1EEFE
S3150801034010FA00F05982B2EE047AF4EE477AF1EE29
S3150801035010FA00F05182DFF8A4A200238AF80C30C3
S31508010360A04E8AF80B303378002B00F03D869C4B63
S315080103701B7807EE903A0126BBF1020FB8EEE77A31
S3150801038084F8FB6000F0448707EE90BAF8EEE77A46
S31508010390F7EE006AF4EE667AF1EE10FA41F077822A
S315080103A094F80361002E40F06887F0EE007AB4EE07
S315080103B0677AF1EE10FA00F06A878AF80A6094F80B
S315080103C00221F0EE087A12B1002284F80221B4EE75
S315080103D0677AF1EE10FA40F07B879AF80920012A2C
S315080103E00CD0814B814A002011681870012204F053
S315080103F095F97B4B94F8DCB01B780122BBF1010F10
S315080104008AF8092000F06B87012B01F0A98394F87B
S31508010410012112B1002284F80121754900220A70CE
S3150801042007EE903AB8EEE78A07EE90BAF8EEE78A51
S31508010430F1EE087AB4EE678AF1EE10FA8AF8072027
S3150801044001F0AA8094F8003113B1002384F8003131
S315080104500023F1EE0C7AB4EE678AF1EE10FA8AF807
S31508010460063041F09380F0EE087AF4EE678AF1EEF1
S3150801047010FA00F09F8700238AF8053094F8FF30B8
S3150801048013B1002384F8FF300023F1EE0C7AB4EEA1
S31508010490678AF1EE10FA8AF8043007D1F0EE087A85
S315080104A0F4EE678AF1EE10FA41F0B08394F8FE3063
S315080104B013B1002384F8FE30494B1B7807EE903AB6
S315080104C094F8DC30F8EEE77AF2EE006A07EE103AB5
S315080104D0F4EE667AF1EE10FAB8EEC77A40F038878C
S315080104E0F1EE006AB4EE667AF1EE10FA41F02C826A
S315080104F094F8FD30002B41F09E849AF80330012BC5
S315080105007ED03C4A94F8EE1092F8293092F82F6082
S3150801051049009B00C9B2DBB2581885F85F1092F8FA
S315080105202A1085F8603092F82B30C900C9B23044D8
S315080105301B0185F85E10DBB2014485F85D300B447A
S3150801054092F82C10B4F85A004901C9B20B4485F83F
S315080105505C1092F82D1092F82E208901C9B2D201A9
S31508010560D2B20B44134485F85B10D9B2B4F85A30A9
S3150801057085F85A201B0AA5F85830B4F84C30B4F857
S315080105804C20E9731B0AA5F85630174B40BA52BAE4
S315080105901A80588028826A82174894F8DD201A71D1
S315080105A06A7394F8DE205A71AA739971016800205A
S315080105B0D871082204F0B2F8094B1B7807EE903A75
S315080105C094F8DC3007EE103AF8EEE77AB8EEC77A17
S315080105D0012315E0500400207003002008000020C4
S315080105E0EF0600208D020020D00200202000002006
S315080105F08A02002000C0000834000020E00600201E
S31508010600F2EE026AF4EE667AF1EE10FA8AF803302F
S3150801061040F09586F1EE047AB4EE677AF1EE10FAB7
S3150801062041F00E8294F8FC30002B41F0FF839AF8D2
S315080106300230012B5CD0664994F8EE0091F822301D
S3150801064091F8232091F8286040009B00DBB2C0B2E4
S3150801065085F8470085F84830184491F82430D200C7
S315080106603044D2B21B0185F84620DBB2024485F834
S315080106704530134491F82520B4F84C00554E5201E3
S31508010680D2B2134485F8442091F8262091F8271010
S315080106909201D2B2C901C9B2134485F84320CA18D6
S315080106A0B4F85A30AB711B0AA5F840306B71B4F82F
S315080106B04C3085F842102B72B4F85A101B0AEB8796
S315080106C0EB71454B49BA40BA1880598094F8DD0058
S315080106D094F8DE10E970D2B22A71A8701871002058
S315080106E059719A71D8713168082204F017F80123F3
S315080106F03A498AF802301322481E0CF02FFE94F864
S31508010700033194F8F22084F8772013B1029B84F818
S31508010710F53094F8DCB0039B53B19AF80130012BFC
S3150801072006D02F4B1B7884F8E030002384F8DD309F
S31508010730049B8AF80130BBF1010F04D994F8E8202B
S31508010740002A00F0488594F8FA30002B40F09F847F
S31508010750BBF1030F40F2A284FF2384F8DA30DFF8F5
S315080107609490204F204D214EDFF88480002189F88E
S315080107700010397029700822404604F0C3FD4FF075
S31508010780000C84B286F800C0002C00F06684184B71
S31508010790397899F800E0013CA2B203F1080404EBA8
S315080107A0C2049A7808338A4284BF11464FF0010C75
S315080107B0A342F6D1864489F800E03070BCF1000FF7
S315080107C000D0397029780831C9B22970D3E700BF3A
S315080107D000C0000838000020D0020020B50400201F
S315080107E07800002030030020320300203303002064
S315080107F0F002002031030020DFF8CCA39AF80C3070
S31508010800012B00F02282DC4BB4F85C0018800CF056
S315080108105FF90AF037FDD94BD3E904230CF0D2F975
S31508010820D74B00220CF0CEF9B4F85E60D54AB4F87D
S3150801083060301380F31A41EC1B0B98B2D24B1E8021
S31508010840D24B18800CF044F9804689460AF0D0FC50
S3150801085002460B464046494643EC1A2B0AF0F8FB7A
S31508010860CB4B41EC190B002251EC1B0B0CF0AAF9EE
S3150801087053EC1A2B0CF0A6F9C64B80468946002282
S3150801088051EC190B0CF09EF902460B4640464946B7
S315080108900BF0E2FF02460B46304643EC182B0CF0F0
S315080108A017F902460B46002000210BF0D3FFBA4B7D
S315080108B080468946C3E9008951EC190BB44B0022DD
S315080108C00CF080F953EC1B2B0CF07CF9B14B064666
S315080108D00F46002251EC1A0B0CF074F902460B462E
S315080108E0304639460BF0B6FFA44B0F461946064665
S315080108F0D3E90223D1E900010CF064F932463B46FB
S315080109000CF060F906460F46404649460AF070FC67
S3150801091002460B464046494643EC192B0AF098FB1A
S31508010920002241EC1A0B002351EC180B0CF0BCFB0E
S31508010930002840F09C8451EC180B002200230CF08F
S31508010940D1FB4FF00008002801F0B481DFF87C9252
S315080109508F4BB0EE4ABAF0EE6ABA51EC1A0B002286
S315080109600CF030F932463B460CF02CF947EC1A6B81
S3150801097053EC192B06460F4651EC180B0CF022F9CD
S3150801098002460B46304639460BF064FF7B4B06465A
S31508010990D3E906230F46404649460CF013F90246A9
S315080109A00B46304639460CF00DF97C4B00220CF00B
S315080109B009F9774B80468946002251EC1A0B0CF04F
S315080109C001F953EC192B0CF0FDF853EC1B2B0646D9
S315080109D00F4651EC180B0CF0F5F802460B4630465B
S315080109E039460BF039FF02460B46404649460CF09C
S315080109F013FA0CF0C9FB0CF08DF80AF09DF90CF00E
S31508010A00C3FB9FED677A674B07EE900A67EE877A15
S31508010A10186017EE900A0CF07DF8634B80468946FC
S31508010A20C3E90089606C0CF063F84FA3D3E900238E
S31508010A300CF0C8F85D4B06460F4640464946C3E9E1
S31508010A4000670AF059FB02460B46304639461646F8
S31508010A501F460AF051FB02460B46304639460BF053
S31508010A60F9FE94ED027B524A524BB0EE478AF0EEFC
S31508010A70678A8046894621F00047C2E90089B0EEB7
S31508010A8047AAF0EE67AAD3E90023394606460CF0D1
S31508010A9099F853EC182B0BF0DFFE02460B4643EC94
S31508010AA0182B33A3D3E90023B0EE489AF0EE689ADF
S31508010AB00CF018FB002840F0A38651EC180B002215
S31508010AC000230CF0F1FA002841F0F88051EC180BDC
S31508010AD00CF03AFB00F5FA7083B2374A3749A4F8A5
S31508010AE04E300B8092ED008B00230022494640468A
S31508010AF00CF0F8FA324B021E18BF01221A70059241
S31508010B0051EC180B32463B460CF0CEFA002800F0A1
S31508010B10628640464946002200230CF0E3FA002883
S31508010B2001F06880274B4FF0000883F80080012305
S31508010B3084F8E93084F8EA8059EC198B0CA3D3E9D7
S31508010B40002319EE100A49460CF0CCFA002800F0E9
S31508010B502E8619EE100A06A3D3E9002349460BF09F
S31508010B6079FE41EC190B33E0000080999999B93F58
S31508010B700000000000C072406E03002000C000089B
S31508010B800000D03FFA060020F8060020780200206F
S31508010B90000010400000E03F7002002000000840FD
S31508010BA066663642EC020020F0060020500300205B
S31508010BB0E0020020700000204000002040030020D1
S31508010BC0E8020020D8020020E00600200000F03FDD
S31508010BD0CB4B3046D3E9002339460BF0F3FF00220D
S31508010BE0002306460F4651EC190B0CF07BFA00223E
S31508010BF00023002801F0E080304639460CF072FAED
S31508010C00002841F0E98032463B4651EC1A0B0BF0BD
S31508010C1023FEDFF86C934FF0000842464B46064622
S31508010C200F460CF055FA002840F04D854FF00008A4
S31508010C304FF000093046394642464B460CF03EFA1B
S31508010C40002840F04085C4E902679AF80B30012272
S31508010C5093428AF80C203FF483ABAA4AAA4894F82F
S31508010C607830AA49137094F87A20A94E027094F83C
S31508010C708300A84F087094F89310317094F8AC600B
S31508010C803E7063B1002A00F0BE87002801F0D880C3
S31508010C90002901F00581002E0CBF002304239E497B
S31508010CA094F8F8200B4413F80280B8F1000F00F00D
S31508010CB0DC82ABF10102B2FA82F25209974BB4F81F
S31508010CC058B01A70964BB4F85600A3F800B0954B75
S31508010CD084F8ED201880ABEB00031BB2002BBCBFD8
S31508010CE0A0EB0B031BB2B3F57A7F40F35D8594F84D
S31508010CF0CF30002B0CBF00230423194494F8F93094
S31508010D0011F80390884B84F8EE90D3E9000100228C
S31508010D1000230CF0BFF9002800F04185B4F84C0017
S31508010D200BF0D6FE74A3D3E900230BF04BFF0CF0AE
S31508010D300BFA636C06931946A36AB4F84820A4F81B
S31508010D405C008B42A4F8562000F03687002794F8F9
S31508010D50EF3094F8EB2094F8F310079113430CBF86
S31508010D60B4F85A30B4F852304FF28A4202FB03F310
S31508010D709B0D94F8EC20A4F85E3094F8F0301343F8
S31508010D8040F09184B4F854304FF28A4202FB03F3DF
S31508010D909B0DA4F85E300021042001F019FC07EE32
S31508010DA0900A624E624A63493080F8EE677A17EE16
S31508010DB0900AFFF7DBF9D5ED367A3388A4F858306F
S31508010DC0FCEEE77A5C4A17EE903A00219BB20520C1
S31508010DD01380A4F84C3001F0FBFB07EE900A574B41
S31508010DE0574A1880F8EE677A564917EE900AFFF7C0
S31508010DF0BDF9D5ED357A544AFCEEE77A472017EE68
S31508010E00903A9BB21380A4F85A3005F0C1FD4F4BB6
S31508010E1084F8DE001B7884F8F33095F83630002B19
S31508010E2040F0D386012005F001FA494B6064186049
S31508010E3000220023D4E900010CF036F9454E0038AA
S31508010E40337818BF012085F83600002B00F0368468
S31508010E5094F8F430002B00F0318494F8DC30012B3F
S31508010E6001F0068094F8F220002A40F064870123F5
S31508010E7085F83730384A3948394B3A490593138C3E
S31508010E80038092F842300B70354992F84320089056
S31508010E900A70354994F8792084F87820481E082282
S31508010EA084F8797009930CF059FA304984F88270FC
S31508010EB00F22481E0CF052FA2D4984F89270182216
S31508010EC0481E0CF04BFA2B4984F8AB702222481EB7
S31508010ED00CF044FA284984F8CE700922481E84F891
S31508010EE0F8800CF03BFA2549079B84F8D83018227C
S31508010EF0081F84F8F99045E0000000A031918E3F63
S31508010F00500000203A0300203B0300203C03002048
S31508010F103D0300203E03002048C00008420300208C
S31508010F206C030020360300205800002086020020AA
S31508010F301C060020480400205A03002088020020CD
S31508010F4058050020440400206003002035030020D2
S31508010F50440300208D02002000C000084A03002037
S31508010F604903002048030020CB040020D4040020B4
S31508010F70E4040020FD040020200500207C04002054
S31508010F80000059400CF0EAF9069B2364099BB4F862
S31508010F904A20A4F8482000200021C4E90001A4F849
S31508010FA04AB0002B40F08E8519460A2005F03EFD11
S31508010FB0059B197801B101210B2005F037FD95F83C
S31508010FC0371001B10121472005F030FD089B10209B
S31508010FD0198805F0B9FB01238AF80B30337894F8A0
S31508010FE0DCB0002B7FF4C3A994F8FB20002A3FF458
S31508010FF092AB94F803210AB184F8033194F80231CB
S3150801100013B1002384F8023194F8013113B1002396
S3150801101084F8013194F8003113B1002384F80031C2
S3150801102094F8FF3013B1002384F8FF3094F8FE30AA
S3150801103013B1002384F8FE3094F8FD3013B1002370
S3150801104084F8FD3094F8FC3013B1002384F8FC30A1
S31508011050002384F8FB30FFF75EBB2B78C14A99F869
S315080110600010117008332B7001F078FDBE4B187013
S3150801107001F07AFDBD4B0246BD481A6001F076FDC6
S31508011080BC4B18600BB0BDEC088BBDE8F08F002394
S31508011090BBF1030F84F8FA303FF65EAB94F8E13002
S315080110A094F8E220B449012B28BF0123012A94BFF1
S315080110B09B180133DBB2002247200B7084F8DA2033
S315080110C084F8E63005F064FC002800F0BE8094F848
S315080110D0E330AA49002BD1E900014FF000024FF095
S315080110E0000314BF022600260BF0D4FFB0FA80F0E5
S315080110F04009A34994F8F620831901EB43030746EF
S315080111009E5C94F8E230012B00F06A86002E40F0CE
S315080111100E863246334685F82F2095F8332052003D
S315080111201A4494F8E430C2F3470285F8312003B132
S31508011130871C94F8F73001EB4701C95C94F8E13054
S31508011140012B00F06086002940F059860B460846B7
S3150801115085F8303095F834305B000344C3F3470310
S3150801116084F8F66085F8323084F8F71071E0029B4E
S3150801117084F8043194F8DC30002B7FF4B8A80E20EB
S3150801118084F8D93005F004FC8346BBF1000B4FF017
S315080111900F0018BF4FF0010B05F0FAFB08B10BF170
S315080111A0020B102005F0F4FB18B10BF1040B5FFAE2
S315080111B08BFB744D85F82EB0FFF79FB8724B002252
S315080111C0C4E9082301210322072084F8041106F043
S315080111D0F5F9FFF787B86D4B6D4E012184F8FA10C2
S315080111E0104619680092334603F0C8FC021E04DD56
S315080111F0B37985F83C303368AB6366490120FEF75D
S31508011200FFFE002840F0E68494F8DCB0FFF7A0BAA8
S3150801121094F86420002A00F03A83F0EE007AB4EEDE
S31508011220677AF1EE10FA00F00E8694F80321002A87
S3150801123040F0398607EE90BAF8EEE77A00222FE0F9
S31508011240CDE903BB5B46FFF76EB895F8312095F8F3
S3150801125032305148514992099B09027084F8E120BC
S315080112600B7084F8E230FFF77ABA424626E5DFF8D2
S3150801127040914FF00008FFF76BBBF0EE006AB4EE41
S31508011280667A0026F1EE10FA84F80361D6D19AF847
S315080112900A20012A40F0458407EE90BAF8EEE77A6B
S315080112A0F7EE006AF4EE667AF1EE10FA8AF80A2089
S315080112B03FF485A8F0EE087AB4EE677AF1EE10FAF3
S315080112C000F0088494F8022112B1002284F8022160
S315080112D00022BBF1010F8AF809207FF495A894F83A
S315080112E0012112B1002284F80121012B7FF495A86E
S315080112F09AF807202A4E01218A4231703FF490A8B4
S31508011300B4F86220274F284B3A8001325970A4F865
S3150801131062201E4994F8E0201A70002085F82B20D7
S315080113204FF080725A6058800822096803F0F6F96E
S315080113301E4B32781B7894F8DCB0FFF771B894F835
S31508011340FC3013B1002384F8FC300023FFF7D0B931
S3150801135094F8FD3013B1002384F8FD300023FFF71C
S315080113604FB900BF340300207A0200207C02002016
S31508011370ACC000088002002084020020180000206A
S3150801138048C00008700300200000F03F2400002038
S31508011390A0020020E006002059030020580300207F
S315080113A08A020020FC060020D0020020EF06002059
S315080113B00000F0BF9AF80530012B3FF45DA8C84A32
S315080113C094F8EE1092F8363094F8ED6049009B00D7
S315080113D0C9B2DBB2581885F8A51092F8371085F806
S315080113E0A63092F83830C9003044C9B21B0185F8D5
S315080113F0A410DBB2014485F8A3300B4492F83910E6
S31508011400B4F84C00B74E4901C9B20B4485F8A2108D
S3150801141092F83A1092F83B208901C9B2D201D2B2A8
S315080114200B44134485F8A020DAB2B4F85A3085F88B
S3150801143022301B0AA5F89E3085F82130B4F84C30C5
S3150801144085F8A11085F82430B4F85A1085F82020BB
S315080114501B0AA5F89C3085F82330A34B49BA40BA34
S3150801146018805980002094F8DD1019715871E977B0
S315080114709A71D8713168082203F050F99B4B1B7891
S3150801148007EE103A94F8DC3007EE903AB8EEC77AD0
S31508011490F8EEE77A0123F1EE006AB4EE667AF1EE28
S315080114A010FA8AF805307EF4E9AFB7EE007AF4EE61
S315080114B0477AF1EE10FA40F0A78194F8FF30002B35
S315080114C040F0AF849AF80430012B3EF4DEAF844E27
S315080114D094F8EE0096F8301096F8313094F8ED70DD
S315080114E042008900D2B2C9B285F88A1085F88920E6
S315080114F0114496F83220DB00DBB239441201D2B22C
S3150801150085F888300B4485F88720134496F83320EC
S3150801151096F834105201D2B2134485F8862096F80B
S315080115203520B4F84C608901C9B2D201D2B20B4454
S31508011530134485F88420DAB2B4F85A302B771B0A9B
S31508011540A5F88230EB76B4F84C3085F88510AB7780
S31508011550B4F85A10AA761B0AA5F880306B77624B45
S3150801156049BA598076BA62491E80624E087094F863
S31508011570DD1019710020697658719A71D871316830
S31508011580082203F0CBF80123FEF77FBFF0EE687A55
S31508011590B0EE487A00237EE7F0EE007AF4EE678A29
S315080115A0F1EE10FA40F0AA8094F8003113B1002345
S315080115B084F800319AF80630012B3EF44AAF484ABE
S315080115C094F8EE1092F83C3094F8ED604A4F4900D1
S315080115D09B00C9B2DBB2581885F8B11092F83D10D4
S315080115E085F8B23092F83E30C9003044C9B21B01C1
S315080115F085F8B010DBB2014485F8AF300B4492F898
S315080116003F10B4F84C004901C9B20B4485F8AE1035
S3150801161092F8401092F841208901C9B2D201D2B29A
S315080116200B44134485F8AC20DAB2B4F85A3085F87D
S3150801163028301B0AA5F8AA3085F82730B4F84C30AB
S3150801164085F8AD1085F82A30B4F85A1085F82620A1
S315080116501B0AA5F8A83085F82930234B49BA40BAA0
S3150801166018805980002094F8DD1084F8F1000126CD
S3150801167085F8251084F8F46019719A715871D87132
S315080116800822396803F04AF8184A127808EE102A2F
S3150801169094F8DC2008EE902AB8EEC88AF8EEE88AB3
S315080116A03346FEF7D6BEB4F850304FF28A4202FBF3
S315080116B003F39B0DA4F86030FFF76DBB012285F893
S315080116C03720FFF7D7BB9AF80B3001229342C4E9BA
S315080116D002898AF80C207FF4C0AAFEF741BE00BF32
S315080116E000C0000830000020D0020020EF060020CC
S315080116F06A030020280000202C000020BB4BBC4FA9
S3150801170019680022012600923B4684F800611046BA
S3150801171003F034FA002840F3D582BA78F8783B7892
S31508011720797885F8BD20120285F8BB30A5F8C22064
S315080117301B02024485F8BE00AE4885F8BC10194460
S315080117400180AD49A5F8C030BB7984F8F46085F805
S31508011750BF300A80A94A127808EE102A94F8DC20CC
S3150801176008EE902A5A0885F8BA2085F8B3209A080F
S3150801177085F8B920DA0885F8B8201A0985F8B72056
S315080117805A0985F8B6209A09DB09B8EEC88AF8EE2F
S31508011790E88A85F8B52085F8B430FEF759BE984B26
S315080117A0D3E90001FFF7BEBA0023FFF7A6BA51EC49
S315080117B0190B002200230BF08BFC00283FF408AA22
S315080117C0904B30463946D3E900230BF0FBF9064620
S315080117D00F46FFF718BA059B83F001088A4B83F871
S315080117E00080002384F8E93051EC180B32463B4659
S315080117F00BF05AFC002808BF4FF00008FFF79AB90A
S315080118004FF44873FFF769B9804B814E1968002276
S3150801181001230092104684F8FF30334603F0AEF9EF
S31508011820002840F3798231787778B278F078B379FD
S3150801183085F8931085F8947085F8952085F89600B3
S3150801184085F89730120209021044A5F89A20714AC0
S31508011850A5F898100F4417806F4A10805A0885F822
S31508011860922085F88B209A0885F89120DA0885F860
S3150801187090201A0985F88F205A0985F88E209A0929
S31508011880DB0985F88D2085F88C30FEF7FDBDF0EE75
S31508011890007AB4EE677AF1EE10FA01D00026C4E4B4
S315080118A05E4B94F8E510187894F8E7205C4B814272
S315080118B094BF00270127642A8CBF042600263344D7
S315080118C0584E3170584E377094F8F5609B5D029307
S315080118D081424FF0010384F8033140F2F980029BFB
S315080118E0003B18BF012384F8F23001324F4B504EAA
S315080118F084F8E7200022196800923346104603F05F
S315080119003DF9002808DD7388A5F8D030B37985F844
S31508011910D2303388A5F8CE3094F8F130012B00F097
S31508011920B88194F8E53094F8DCB0013384F8E530F1
S31508011930324B1B7807EE903AB8EEE77A07EE90BA83
S315080119400026F8EEE77A79E43A4B3B4E196800220D
S3150801195001230092104684F8FD30334603F00EF950
S315080119600028364B40F3C58177791F703368B27901
S31508011970317870786B61B378F6782A761B021E4443
S31508011980A5F86C30530885F8683085F86130003B56
S3150801199018BF012384F8EF3094F8DC3084F8E4703A
S315080119A0164FA4F8546007EE103A93083F7885F865
S315080119B06730D30885F866301309090207EE907A6D
S315080119C085F865305309084485F864309309D209C6
S315080119D0F8EEE77AB8EEC77AA5F86A10A4F85200C5
S315080119E085F8633085F86220B8E400BF2C00002032
S315080119F0B00200206203002064030020EF060020E5
S31508011A004800002050000020D802002028000020AD
S31508011A10A80200205C0300205E0300206800002065
S31508011A2048C000083F0300203903002010000020A9
S31508011A309002002034000020C00200208B02002002
S31508011A40C84BC94E1968002201230092104684F832
S31508011A50FC30334603F092F80028C44B40F3568114
S31508011A60777932787078B1781F70B3796A72A8720B
S31508011A70E9722B7312021044A5F852205A0885F808
S31508011A80502085F84920003A18BF012284F8F02031
S31508011A909A0885F84F20DA0885F84E201A0985F83C
S31508011AA04D205A09090285F84C209A09DB0984F860
S31508011AB0E370A4F85000A5F8541085F84B2085F872
S31508011AC04A3042E401210A2004F0B0FFFFF770BA58
S31508011AD0002308E7002E40F0D981A54B0096A54FB3
S31508011AE01968012384F8023132463B46304603F031
S31508011AF045F8002840F304817B7885F8CA30BB781D
S31508011B0085F8CB30FB7885F8CC30BB7985F8CD30B4
S31508011B103B7885F8C930984B94F8DCB01B78FFF709
S31508011B20D7BB964A964B116894F8E62083F800B01D
S31508011B305A7085F82D200020022285F82CB002F073
S31508011B40EDFD8D4B94F8DCB01B7807EE903AB8EEB4
S31508011B50E77A07EE90BA0122F8EEE77AFFF7A0BB1B
S31508011B60002E40F0898184F80131864F864B009614
S31508011B70196832463B46304603F000F8021E05DD79
S31508011B80BB7985F8C8303B68C5F8C4307F49012060
S31508011B90FEF736FA50B1012384F8DD3084F8DF30D8
S31508011BA084F8F13095F8C43084F8E030724B94F833
S31508011BB0DCB01B78FEF731BCB4F84E70B7F52F7F51
S31508011BC094BF00270127FFF7C2B8012004F03EFBA6
S31508011BD0FFF728B9012395F8381094F8DCB084F892
S31508011BE0E010002284F8DD2084F8E83084F8DF303C
S31508011BF0FEF7AEBD664B84F8E9004FF0010883F89D
S31508011C000080FEF797BF1346FFF749B8614B624E4E
S31508011C101968002201230092104684F8FE303346E3
S31508011C2002F0ACFF002840F3188131787778B27852
S31508011C30F078B37985F8761085F8777085F8782085
S31508011C4085F8790085F87A30120209021044A5F858
S31508011C507E20524AA5F87C100F441780504A1080FE
S31508011C605A0885F8752085F86E209A0885F8742033
S31508011C70DA0885F873201A0985F872205A0985F851
S31508011C8071209A09DB0985F8702085F86F30FEF70F
S31508011C9013BC394B94F8DCB01B7807EE903AB8EED2
S31508011CA0E77A07EE90BA0026F8EEE77A84F8E56057
S31508011CB0FFF7C4BA4FF00009FEF74ABE4FF4FA73AC
S31508011CC0FEF70BBF95F8BB2095F8BC1095F8BD300B
S31508011CD01202A5F8C0200A4495F8BE101B02A5F801
S31508011CE0C2300B442F490A802F4A138095F8BF301A
S31508011CF030E51F78297D687DAB7DEE7D2A7E3DE640
S31508011D001D4B94F8DCB01B78FFF7E2BA1F786A7AA4
S31508011D10A87AE97A2B7BADE695F8931095F8947035
S31508011D2095F8952095F8960095F897308AE58023D9
S31508011D301A46FFF7F0B9022B00F09A80012385F8BD
S31508011D4037301A491A4AB4F84E301A480B8094F8B3
S31508011D50E930137094F8EA20089105900270FFF7AC
S31508011D6098B800BF38000020C80200208C02002065
S31508011D702000002098020020EF0600201000002015
S31508011D80D0020020A002002024000020E80600203E
S31508011D90D802002030000020B80200206603002087
S31508011DA06803002062030020640300204A03002020
S31508011DB04803002049030020304639460BF092F9C2
S31508011DC000287EF420AF51EC190B002200230BF0FA
S31508011DD061F900287EF417AF00260027FEF713BF26
S31508011DE0002E0CBF3346802385F8333008BF3246B0
S31508011DF095F82F3018BF4FF48072FFF791B98020FC
S31508011E000346FFF7A5B900290CBF0B46802385F8C1
S31508011E10343095F830000CBF0B464FF48073FFF74A
S31508011E209CB9002384F8FF30FFF74CBB002384F8E4
S31508011E30FC30FEF7FCBB002384F8FD30FEF75DBBE2
S31508011E400346FEF72CBF94F80321002A3FF41FAA84
S31508011E50002284F80321FFF71ABA95F8761095F847
S31508011E60777095F8782095F8790095F87A30EBE649
S31508011E70002385F8373064E794F80121002A3FF4F6
S31508011E8037AA002284F80121FFF732BA94F8022111
S31508011E90002A3EF4A2AA002284F80221FEF79DBA7E
S31508011EA00B46FEF7FCBE07EE90BA0022F8EEE77A7B
S31508011EB084F80321FFF7C2B9F0B5082185B040209F
S31508011EC002F068F90020784C02F0E4FD7749032016
S31508011ED005F0B8FAFF2702210E2084F8D97004F01C
S31508011EE021FD02210F2004F01DFD022110200025ED
S31508011EF004F018FD6E49072005F03AFC294604202E
S31508011F0000F0E4FA012604F50173C4E97F6684F852
S31508011F108C62C4F8F8312946C4F8D061A4F8D461B2
S31508011F20052084F8CC51C4F8045200F0CFFA04F520
S31508011F30A073C4F83431C4E94E6684F8C861022135
S31508011F40C4F80C61A4F81061472084F80851C4F854
S31508011F50405104F0E7FC3046294604F0DFF83146E3
S31508011F600A2004F031FD31460B2004F02DFD3146DF
S31508011F70472004F029FD2A4642F60D01092004F0FE
S31508011F8081FA4C494C4E092004F024FC2A4629467C
S31508011F90102004F009FB494B2846196802F0C2FDD6
S31508011FA0474B2846196802F0BDFD3168284602F0FC
S31508011FB0B9FD444B2846196802F0B4FD424B284640
S31508011FC0196802F0AFFD414B2846196802F0AAFDCF
S31508011FD03F4B2846196802F0A5FD3E4B284619686D
S31508011FE002F0A0FD3168284602F09CFD0221472037
S31508011FF084F8DA7004F096FC4FF4197000F0BAFB15
S315080120004FF47A7000F0AAFB642000F033FB2749ED
S315080120108DF80C5001AA2846CDE9015502F048F978
S31508012020012804D02C4840F65A7100F017FE2B49B6
S31508012030032005F08BFB02F099FE02F0A1FE284B66
S31508012040284A29499A604FF00130C3E9002040F235
S3150801205001109881D4F8F85101230B702B68012BD4
S315080120600DD100267422AE60002105F10C000BF09B
S31508012070F1F94FF07E53C5F88030C5F88460D4F87D
S3150801208034412368012B0DD100257422A560002156
S3150801209004F10C000BF0DEF94FF07E53C4F88030E2
S315080120A0C4F8845005B0F0BD5004002040420F002A
S315080120B0B9000108B500010824000020100000201D
S315080120C0200000202C0000202800002030000020DD
S315080120D03400002038000020B8C000086901010852
S315080120E0E00600200301010135030020454B1B785A
S315080120F0012B00D070472DE9F041434A1378012B93
S3150801210096B005D0414803F06FFB16B0BDE8F081E3
S315080121103F4E0024334614705A78E5B203331AB198
S3150801212001340A2CF8D125463A4803F049FE4FF006
S3150801213080603949394A07904FF480634FF400604B
S3150801214008914FF4005100270B94099201244FF48A
S3150801215080720D930E904FF480330F912D48109293
S3150801216007A911930A970C971297CDE91477139437
S3150801217003F0BCFE2146274803F0E4FE03F09CFA6F
S3150801218001A9224801978DF808408DF80970CDE913
S31508012190037705978DF8185003F09CFABDB1013DF8
S315080121A0EDB2DFF88080194F023504EB4402324460
S315080121B0032312F8032C02EB420208EB820138468C
S315080121C0E2B2897A013403F0C9FAAC42EDD10020B2
S315080121D003F0C2FE012003F0CDFE012003F0D8FE74
S315080121E00F4A0A48136843F400531360012103F0A8
S315080121F00BFB0121054803F0FDFA0121034803F011
S31508012200A3FA7FE781000020800000200022014018
S3150801221000070020106402404C22014020070020DC
S3150801222000700040DCC000082DE9F04FA34B1B6885
S3150801223097B0002B00F0F180A14B019303F11E0921
S315080122409F4DCDF8009004E0009B03359D4200F0B8
S31508012250B880AB78002BF7D06B78002BF4D0994B6C
S315080122601B78002BF0D0954A95F800801768013B3A
S31508012270DBB207F14C064C2212FB0369AA4604E0BD
S31508012280B145374600F097804C3639784145F7D144
S31508012290019B002404E001340A2C03F1030305D051
S315080122A05A78012AF7D11A788A42F4D14C2239464A
S315080122B003A80AF0B9FFB86C049A7D6CC30602F04C
S315080122C078418B4200F08E804FF0000C9B4600E06F
S315080122D08C460CF10101C9B216AB03EB810353F825
S315080122E0483C03F0784EF345F2D10CF1020C0B2968
S315080122F09E465FFA8CFC5B4669D90E2910D80FFAFF
S315080123008CF103AA02EB810100E094464A6841F880
S31508012310042BBCF10E0F0CF10102D2B2F5D9049AC5
S31508012320694931F814C022F07842CCF30B0C6FF0EE
S3150801233078419445139160D900240134E4B216AA70
S3150801234002EB8402A64652F8482C22F078429445BC
S31508012350F3D80B2C38D8032C0F9A98BF079922F07B
S315080123607842A5EB020296BF21F078410CEB0205F3
S315080123708D18C4F10E0412AAE4B2A2EB840413AABE
S3150801238052F8041D51609442FAD1441C16AA102C25
S3150801239002EB8E0E28BF002443EA0C03384603A934
S315080123A04C224EF8483CCDE914540AF03DFFB1459C
S315080123B037467FF469AF5546009B03359D427FF446
S315080123C048AF17B0BDE8F08F0E2CD2D9DDE7109AC9
S315080123D0032922F0784215441AD92EF0784EA5EB36
S315080123E00E058CE7109A089922F07842154421F0D7
S315080123F078416D1A4FF0010C81E70F9A079922F07F
S315080124007842AD1A21F0784100240D44A646B0E77A
S31508012410089921F078416D1A71E72A4E337803EB52
S31508012420C30203EB4203980000F04CFA234B8046A3
S315080124301860234B002837D01A46019315460346E0
S3150801244002F11E0914AC212703E003354D453FF47B
S31508012450F7AEAA78002AF8D095F800C004A9002298
S3150801246041F8042BA14202F10062F9D14C2203A9D9
S3150801247018468DF80CC014970AF0D6FE327802EB8E
S31508012480C201034602EB41024C3308EB8202934236
S31508012490DBD90122142142F2030002F063FE074B45
S315080124A0186800F07BFACBE60122142142F20200F9
S315080124B0019303F11E0902F055FEC1E63407002017
S315080124C00007002002000020200700202DE9F04324
S315080124D0092885B006460D4668D838480478F4B9FF
S315080124E0374A384B012702F11401077022F8024BCB
S315080124F08A425C709C7003F10303F7D101214FF402
S31508012500800003F0C3FD4FF48060012103F0E2FD72
S315080125106846CDE90044CDE9024403F001F9DFF844
S31508012520A48008F11E014746434602E003338B4265
S3150801253008D05A78012AF9D11A78B242F6D105B0EB
S31508012540BDE8F083204A06EB46039B0002EB03092C
S31508012550D058012103F09AFDB9F8083000930024F8
S315080125600323D9F804008DF8043069468DF807402D
S3150801257003F01CFD98F8013008F1030843B1013452
S315080125800A2CF7D10122142142F2010002F0EAFDD8
S3150801259004EB44043B1901223E555A7005B19A7061
S315080125A00A4B01221A7005B0BDE8F08301221421F5
S315080125B04FF4005002F0D6FD8FE700BF81000020DE
S315080125C02007002000070020DCC00008800000204A
S315080125D0092838B505460C4622D8214B1A78012A0E
S315080125E001D0002038BD14B31E4B1C688CB31E4B9A
S315080125F0197889B12378AB420ED00139CBB24C2177
S3150801260011FB0341234603E01A78AA421C4603D06C
S315080126108B4203F14C03F7D1606CC0F3CF0038BD90
S31508012620012214214FF4005002F09CFDD5E70F4B0F
S31508012630214604E001310A2903F10303D1D05A786E
S31508012640012AF7D11A78AA42F4D1094B33F81100B5
S3150801265038BD142142F2050002F084FD204638BD3A
S315080126608100002034070020020000200007002016
S3150801267020070020034A044BA2FB002040091860EA
S31508012680704700BF1F85EB517C00002000B583B061
S3150801269000F07EFD02AC084E44F8040D074D03E038
S315080126A02968204600F0ACFEFFF720FD3378002BA1
S315080126B0F6D0FFF7B9FDF3E7020000207C00002001
S315080126C008B5FFF713FD044B1B781BB1BDE808409D
S315080126D0FFF7AABD08BD00BF0200002000B583B000
S315080126E000F056FD02AC054D44F8040DFDF7E0FC7B
S315080126F02968204600F084FEF8E700BF8400002020
S3150801270010B584B0002400F03FF802F009FDFDF78A
S31508012710C1FCFFF7D5FF052223460092CDE9024405
S31508012720019480220849094800F054FB084B039498
S3150801273006211A88074800910294019423460649FE
S3150801274000F048FB04B010BD54C100088D260108ED
S3150801275088000020DD260108ACC00008034A044BA6
S31508012760A2FB002040091860704700BF1F85EB5186
S315080127708400002080087F28024B96BF802218809B
S315080127801A8070478800002000F000B8074BC3F193
S31508012790006101F5004103F500605A5C03F8012B5D
S315080127A08342FAD1024B00221A7070473C07002077
S315080127B038070020C1F500630133984218DA01444D
S315080127C0884215DADFF834C0F0B40B4C9CF8006087
S315080127D00025FF27225CFF2A00F1010302D001250B
S315080127E027542E4698B28842F4DB15B9F0BC7047D7
S315080127F070478CF80060F9E73C070020380700208D
S3150801280040F2FC73984210B502D90024204610BD47
S31508012810044600F09DF9034B1C5900F09BF920462C
S3150801282010BD00BF3C070020F8B540F2FC73984282
S3150801283000D9F8BD0446094E0D4600F089F9375905
S3150801284000F088F9BD42F4D000F082F9355100F064
S3150801285081F9034B01221A70F8BD00BF3C0700201D
S315080128603807002010B4154A00E01A461368834257
S31508012870FBD351685418A0420AD041684418A342B0
S315080128800DD0904203605DF8044B18BF1060704785
S315080128904068014410464418A3425160F1D1084CDE
S315080128A02468A342EDD0D3E9003490422144036061
S315080128B041605DF8044B18BF106070473C8F0020DB
S315080128C08C0000202DE9F041044600F059FC2E4801
S315080128D00268002A39D02D4B1F683C422FD174B3A8
S315080128E004F108014B071CBF21F00701083131B378
S315080128F0DFF8A080D8F800608E4220D3244D2C68DA
S3150801290003E0226822B12546144663688B42F8D350
S315080129100268A24213D0226828682A605A1A102A25
S3150801292000F1080528D8F61A00223B43C4E900231A
S31508012930C8F8006000F0F0FC2846BDE8F0810025E3
S3150801294000F0EAFC2846BDE8F081124F124B3968BF
S3150801295023F0070347F6F0755E1908397260396086
S315080129605A510A490660C3E90065094D4FF0004707
S315080129702B606A600F60B0E7631818465A60616099
S31508012980FFF770FF6368CEE78C00002090000020F7
S315080129903C8F002094000020440F002000283AD0E4
S315080129A038B51D4D50F8043C2A681342044610D028
S315080129B050F8081CD9B14FF48671184800F04EF941
S315080129C02A6854F8043C134202D054F8081C71B121
S315080129D038BD40F20B11114800F040F954F8083C93
S315080129E0002BE8D12A6854F8043C1342F0D023EAB4
S315080129F0020344F8043C00F0C3FB094A54F8043CBA
S31508012A001168A4F108000B441360FFF72BFFBDE81A
S31508012A10384000F081BC70479000002068C100086A
S31508012A2094000020014B1868704700BF94000020ED
S31508012A300C490D484B6830B4C3F5C332A032642340
S31508012A4003FB02F3094D0A4C5B09A5FB0323027834
S31508012A50C3F3C7139A42237038BF037000234B6030
S31508012A6030BC70474C8F0020458F0020C55A7C0A20
S31508012A70448F002070B50D4606460AF041FD04460E
S31508012A8028460AF03DFD844201D0002070BD6CB194
S31508012A9032782B789A42F8D1002303E0F15CEA5C9C
S31508012AA09142F2D10133DBB29C42F7D8012070BDC5
S31508012AB000B51D4D1D481E4B83B00024009301220D
S31508012AC004602C706C602C72234642F2107119480E
S31508012AD0194D00F0DBFE2860F0B10446174A184B81
S31508012AE0002515701D7000F053FB009502462B4614
S31508012AF02046294600F0F0FE012805D001221421BE
S31508012B004FF4805002F02EFB0E4B00221A60FFF79D
S31508012B10F7FD00F0FDFAFEE7012214214FF480507B
S31508012B2002F020FB2C68D9E74C8F0020588F002033
S31508012B30312A01088CC10008488F0020448F0020E3
S31508012B40458F002098000020704700BF704700BFDE
S31508012B5002F09CBC02F0C0BC03F068BC014B1878BB
S31508012B60704700BF448F0020FFF75CBF70B505466C
S31508012B7002F08CFC114B1C688CB106462946A068EC
S31508012B80FFF778FF012805D10DE0A068FFF772FF6E
S31508012B90012808D024692946002CF6D1304602F0CE
S31508012BA09BFC204670BD6468304602F095FC2046C1
S31508012BB0002CF7D000F070FD800070BD588F002002
S31508012BC02DE9F041804614200F461446FFF77AFE98
S31508012BD0054628B30023C5E90343C5E9018702F081
S31508012BE055FC134E074602F051FC346802460CB9EF
S31508012BF00DE01C462369002BFBD1104602F06CFC44
S31508012C00256138462C60BDE8F04102F065BC02F04A
S31508012C1063FC2C6035603846BDE8F04102F05CBCC7
S31508012C20012214214FF4805002F09CFAD2E700BF2A
S31508012C30588F0020074A138801339BB2092B13804A
S31508012C4005D905490B68002001330B60108003F094
S31508012C500FBB00BF9C000020980000200122142110
S31508012C604FF4805002F07EBA054B1A78012A00D03B
S31508012C7070471A7A002AFBD15A6801325A6070479E
S31508012C804C8F002008B502F001FC044B01210022FB
S31508012C9019701A72BDE8084002F01EBC4C8F00205C
S31508012CA0014B00221A7070474C8F002008B5034C5F
S31508012CB02368012BFDD902F0DDFBF9E7648F0020BB
S31508012CC00D4B0E4A19681268486082420DD80C4AA3
S31508012CD010B5044610681968043104F0CDFF094B94
S31508012CE01A68A24288BF1C6010BD074A1068196895
S31508012CF0043104F0C1BF00BFA0000020C8000020B5
S31508012D005C8F0020BC000020608F00202B4B2DE932
S31508012D10F0410022DFF8B880294E1A60D8F8002061
S31508012D2033689A4247D0D8F80020D8F8003012689C
S31508012D301B6B9A4233D9234C234D236803EB830338
S31508012D4055F823309BB9214F08E02368013B2360DE
S31508012D50236803EB830355F8233043B92368002B13
S31508012D60F3D140F252713846FFF778FFEDE7236851
S31508012D7003EB83039B00E91808334A6852684A60E3
S31508012D801D44AA4204BF52684A60D368C8F8003095
S31508012D90D8F8002033689A4209D0BDE8F081D8F8FE
S31508012DA00000D8F80010343104F0D2FEC3E7BDE8BC
S31508012DB0F041FFF767BFFFF773FFB4E7CC000020C8
S31508012DC0B8000020B4000020648F0020A0C10008CC
S31508012DD0A00000202DE9F84FDDF830B08A4691466B
S31508012DE09846DDE90A570646002800F0A7800D2D0A
S31508012DF000F287804820FFF765FD0446002800F0A9
S31508012E008C804FEA8909BBF1000F00F09D80C0F85C
S31508012E1030B04A46A52158460AF01CFB236BA9F196
S31508012E200409994429F007090AF1FF330AF10F0148
S31508012E3004F1330201E08B4207D013F9010F02F8BE
S31508012E40010F93F900000028F5D10D2D4FF000036D
S31508012E50AB4604F1040A28BF4FF00D0B84F8433042
S31508012E605046C4F82CB0C4F844B004F0F1FE04F19D
S31508012E70180004F0EDFECBF10E03A3612461646230
S31508012E8042463146484602F0D1FA206007B13C6015
S31508012E9002F014FB444A454E136801331360336844
S31508012EA0002B3ED0424F3B681BB3DFF824814148D3
S31508012EB0E26A03680133036004F134012046FFF72F
S31508012EC07FFE3D4BE06A1A68904288BF186000EBA6
S31508012ED0800008EB8000514604F0BEFE02F000FBBC
S31508012EE03B681BB13368DB6AAB4222D30120BDE8DC
S31508012EF0F88F3368DFF8D880DB6AAB4298BF346055
S31508012F00D5E740F2ED112D48FFF7A8FE4820FFF757
S31508012F10D9FC044600287FF474AF4FF0FF30BDE8B2
S31508012F20F88F34601368DFF8A880012B1AD0204F78
S31508012F30BDE702F09FFA0120BDE8F88F4FF4F6715C
S31508012F401E48FFF78BFE52E74846FFF7BBFC834650
S31508012F50206300287FF45DAF2046FFF71FFD4FF081
S31508012F60FF30C4E7474608F58C793846143704F02C
S31508012F7063FE4F45F9D1DFF85CB0DFF85C900C4F82
S31508012F80584604F059FE484604F056FE0C4804F02B
S31508012F9053FE0C4804F050FE0B4A0C4BC2F800B025
S31508012FA0C3F8009083E700BFA4000020A00000201A
S31508012FB0C4000020B0000020B4000020A0C1000811
S31508012FC0A4900020B89000205C8F0020608F00201C
S31508012FD0648F00207C90002090900020F8B504466C
S31508012FE0194E02F06BFA1CB3251D284604F05EFE45
S31508012FF0A36A1BB104F1180004F058FE134F2946C1
S31508013000384604F029FE02F06BFA3368A34200D071
S31508013010F8BD0F4B1B687BB90E4A39681268914295
S3150801302008D00D4B1B685BB10C4B01221A60F8BD29
S315080130303468D9E73360F8BDBDE8F84002F01ABA3A
S31508013040BDE8F840FFF762BEA0000020B890002056
S31508013050C4000020A4000020AC000020CC00002001
S3150801306010B5044668B10A4B62699A4201D000203C
S3150801307010BDA06A074B9842F9D0B0FA80F0400912
S3150801308010BD40F259410448FFF7E8FDEBE700BFE0
S31508013090B8900020A4900020A0C1000888B170B59E
S315080130A0174D2B6883420BD0044602F007FA2046D7
S315080130B0FFF7D6FF012809D0BDE8704002F010BA23
S315080130C070BD40F27A410F48FFF7C8BD261D30464C
S315080130D004F0ECFD0C4AE36A11680C488B4288BF80
S315080130E0136003EB830300EB8300314604F0B4FD60
S315080130F02B68E26ADB6A9A42DED302F0BBF9DBE7A8
S31508013100A0000020A0C10008B4000020648F0020A0
S3150801311030B585B00024144A0192CDE902440094E1
S315080131202346802211491248FFF754FE01280BD085
S3150801313005460DB105B030BD0E4840F21F5105B028
S31508013140BDE83040FFF78ABD00F07CFB0128054643
S31508013150EFD102F09BF9084A084B15601C6005B0CF
S31508013160BDE8304002F024BAB800002098C1000832
S31508013170AD2C0108A0C10008C4000020C800002029
S31508013180024A136801331360704700BFAC00002080
S3150801319010B502F093F9034B1C6802F0A1F9204619
S315080131A010BD00BFC80000202DE9F04F4E4B1B682B
S315080131B083B0002B7BD14D4B1A6801321A601F6808
S315080131C00FB34B4B0193019B1B68BB4237D9DFF801
S315080131D03C81DFF83C910025D9F80030454ADB6A85
S315080131E0126803EB830358F82330022B28BF012505
S315080131F0002A64D0404B1B68002B0CBF28460120CF
S3150801320003B0BDE8F08F3D4E33681B68002B64D1CF
S315080132103B4B31683B4A18683060196013680133C3
S31508013220136033681B68002B4CD1314B01931A4646
S315080132304FF0FF331360019B1B68BB42C7D82F4E63
S31508013240DFF8C880DFF8C890DFF8C8A0002525E0B8
S315080132503368DB68DC68636804F1040B9F425846EF
S3150801326038D304F023FDA36A04F118000BB104F066
S315080132701DFDE36ADAF8002003EB83009342594601
S3150801328008EB800088BFCAF8003004F0E5FCD9F8DD
S315080132900030E26ADB6A9A4228BF012533681B6857
S315080132A0002BD5D1019A4FF0FF33136094E7114AE9
S315080132B01368013313600025FFF7BCFC9AE7FFF793
S315080132C0B9FC97E733680A4ADB680192DB685B68F1
S315080132D0136078E7019A13607EE740F25B610A485A
S315080132E0FFF7BCFC94E700BFAC000020C800002033
S315080132F0BC000020A8000020CC0000205C8F002024
S31508013300608F0020C0000020A0C10008648F002043
S31508013310A0000020B40000202DE9F0472F4C2368B7
S31508013320002B51D002F0CAF82368013B23602368B9
S31508013330002B43D12A4B1B68002B3FD0DFF8B4A0E2
S31508013340284E294FDFF8B090DFF8B0801EE0F36809
S31508013350DC68251D04F1180004F0A8FC284604F0D1
S31508013360A5FCE36A3A6803EB83009342294609EB15
S31508013370800088BF3B6004F06FFCD8F80030E26A31
S31508013380DB6A9A4224BF0123CAF800303368002B4E
S31508013390DDD1164C23686BB123685BB10125FFF7B4
S315080133A003FF08B1CAF800502368013B236023686C
S315080133B0002BF4D1DAF80040012C0BD0002402F0DE
S315080133C08FF82046BDE8F08740F25A510848FFF7C2
S315080133D045FCA7E702F04EF8F1E700BFAC00002074
S315080133E0A4000020A4900020B4000020A80000201A
S315080133F0A0C10008CC000020648F0020A000002096
S3150801340038B50C460546002836D03CB31F49204836
S315080134100A682B6801320A6001681C192CBF012051
S3150801342000208B4222460DD860B32C60194B1868D0
S31508013430043004F03BFC2046FFF742FCFFF76CFF23
S3150801344040B138BDB0B1A1422C60EFD3FFF764FF9C
S315080134500028F6D1BDE8384002F00CB840F2BF2189
S315080134600D48FFF7FBFB094909480B682A68013330
S315080134700B6003682A60E1E740F2BE210648FFF7C0
S31508013480EDFBC2E7A142D0D3F4E700BFAC000020B0
S31508013490C8000020A0000020A0C10008044B1B683A
S315080134A00BB9FFF733BC034B01221A60704700BF03
S315080134B0AC000020CC00002070B50E460546C8B108
S315080134C00F4C21682846183104F0D6FB20680430D1
S315080134D004F0ECFB731C06D00A4B18683044BDE8AF
S315080134E07040FFF7EDBB216807480431BDE870401D
S315080134F004F0B2BB40F265710448FFF7AFFBDFE7A2
S31508013500A0000020C8000020B8900020A0C1000833
S3150801351070B50E46054680B10B4C21682846183110
S3150801352004F09AFB2068043004F0C0FB074B1868C6
S315080135303044BDE87040FFF7C3BB40F29B710448B5
S31508013540FFF78CFBE8E700BFA0000020C8000020B9
S31508013550A0C1000838B5C368DC684CB304F1180586
S31508013560284604F0A3FB154B1B68E3B9251D28461D
S3150801357004F09CFB124AE36A116812488B4288BF21
S31508013580136003EB8303294600EB830004F064FB15
S315080135900D4BE26A1B68DB6A9A4223BF0B4B01207B
S315080135A01860002038BD2946094804F055FBEFE7A5
S315080135B040F2D1710748FFF751FBCFE7AC00002075
S315080135C0B4000020648F0020A0000020CC00002059
S315080135D0A4900020A0C1000810B5044630B1064ADF
S315080135E0064B12681B68C4E9002310BD40F2F77147
S315080135F00348FFF733FBF2E7C0000020C8000020AC
S31508013600A0C10008F8B50D46044658B38DB301F0BC
S3150801361055FF2B681A4A581C11681ED0DFF868C076
S31508013620D4E90060DCF80070BE4201D081420FD2B5
S315080136300F1ABB420CD95B1ADCF800101268034456
S315080136402B600025C4E9001201F04AFF2846F8BD9F
S31508013650012501F045FF2846F8BD002501F040FF88
S315080136602846F8BD40F601010648FFF7F7FA002D8E
S31508013670CDD140F602010348FFF7F0FAC7E700BFCC
S31508013680C8000020A0C10008C0000020014B01228B
S315080136901A607047CC00002068B1036B1A78A52A16
S315080136A04FF000000FD113F8012F0130A52A80B27F
S315080136B0F9D080087047044B1868036B1A78A52A55
S315080136C04FF00000EFD07047A0000020014B1868AA
S315080136D0704700BFA0000020044B186828B1044BAE
S315080136E01B68002B0CBF012002207047C400002074
S315080136F0AC000020B8B1F8B5164DC36A2A68D26A7B
S3150801370093420FD22A68144ED26A416903EB8303A6
S3150801371006EB8303C2F10E029942826104D02B683B
S31508013720DB6AC362F8BD7047071D0446384604F0D4
S31508013730BDFA2A68094BD06A1A68E062904200D934
S31508013740186000EB800006EB80003946BDE8F840BA
S3150801375004F082BAA0000020648F0020B400002083
S31508013760F0B138B5C26A436C9A4218D0051D0446B1
S31508013770284604F09BFA0B4A636C1168E362C3F1AD
S315080137800E008B42A061084888BF136003EB8303D0
S31508013790294600EB8300BDE8384004F05DBA38BD20
S315080137A0704700BFB4000020648F0020F8B50F4CA5
S315080137B001F084FE25681DB1BDE8F84001F090BE10
S315080137C00B4F0C4E384604F037FA304604F034FAFB
S315080137D0094A0A4B17600C212A4606201E6004F086
S315080137E041FB2060BDE8F84001F07ABED400002014
S315080137F0D4900020E8900020CC900020D0900020A2
S31508013800914208B50061416005D88169D21A8A4298
S315080138100CD3012008BD9A4201D29942F9D2074B2D
S31508013820011D186804F028FA002008BD044B011D83
S31508013830186804F021FA002008BD00BFCC900020CA
S31508013840D090002000B585B0FFF7B0FF0B4B1B6881
S315080138505BB100230222CDE90023CDE902338022A0
S3150801386007490848FFF7B6FA20B90748E021FFF7E4
S31508013870F5F9002005B05DF804FB00BFD40000206F
S31508013880E8C10008B5390108C4C100082DE9F041AD
S315080138900D46B1B18046282017461E46FFF712F895
S315080138A0044658B1FFF782FF069BC4F80080C4E9B5
S315080138B0065726626362201D04F0CAF92046BDE850
S315080138C0F0814FF4847103482C46FFF7C7F9204667
S315080138D0BDE8F081C4C1000870B5134E346884B0E0
S315080138E064B11D46CDE90112039053B11A4620462B
S315080138F0002301A904F076FB04B070BD204604B08C
S3150801390070BDFFF7E9FE012807D030682B462A4625
S3150801391001A904F0CDFA04B070BD2B463068089AA7
S3150801392001A904F0C5FAE7E7D40000202DE9F0471C
S315080139301D4DDFF87C8082B04FF0000A0DE0DB6890
S31508013940DC681F6804F10409484604F0AFF9636AA4
S3150801395020469847E369012B0AD02B681A68002A82
S31508013960EDD1124A11682960136002B0BDE8F087EB
S31508013970A6693E440023B74219463A46204606D26E
S31508013980666024612868494604F076F9E5E7CDF8CA
S3150801399000A0FFF7A1FF0028DFD140F282214046AF
S315080139A0FFF75CF9D9E700BFCC900020D090002042
S315080139B0C4C100082DE9F04FDFF874A15B4FDFF8A9
S315080139C07481DFF8749187B04FF0000BDAF8003094
S315080139D01D68002D6DD0DB681D68FFF7D1FBFFF769
S315080139E0D7FB3B68834204466BD88542386073D956
S315080139F0291BD8F8000004F065FCFFF78DFC0028A8
S31508013A0067D000231A4603A9D8F8000004F054FB2E
S31508013A100028DBD0059C636913B1201D04F046F923
S31508013A20FFF7B6FB3B689842054627D3039E3D60E0
S31508013A30022E29D0032E31D0002EE2D1049BA16992
S31508013A402A4619442046FFF7DBFE0128D9D1636AC5
S31508013A5020469847E369012BD3D1A369049A0096B6
S31508013A601A44204633463146FFF736FF0028C8D1A7
S31508013A7040F22F214846FFF7F1F8C2E7FFF756FF54
S31508013A80039E3D60022ED5D10499A16151B1294405
S31508013A9020462B462A46FFF7B3FEB2E72046FEF735
S31508013AA07DFFAEE74FF40F714846FFF7D7F8A169D6
S31508013AB0EDE7FFF765FBFFF76BFB3B6898420446AA
S31508013AC005D2FFF733FF3C60FFF726FC99E73C6018
S31508013AD08EE701F0CFFC94E7FFF71EFCDAF8003019
S31508013AE0DB68DE68301D04F0E1F8F369012B03D0C9
S31508013AF0736A3046984784E7B169224629442B46BA
S31508013B003046FFF77DFE0128F2D10023CDF800B03B
S31508013B102A4619463046FFF7DFFE0028E8D14FF45A
S31508013B20AD714846FFF79AF8E2E700BFD0000020DA
S31508013B30CC900020D4000020C4C100082DE9F04330
S31508013B40404E414D414FDFF80891DFF8088189B0B1
S31508013B5000234FF0FF3201A9306804F0ADFA0128BD
S31508013B6005D00122142142F2081001F0FBFA9DF852
S31508013B700440012C05D90122142142F20C1001F04E
S31508013B80F1FA2B5D012BE3D19DF80530032B51D8B2
S31508013B90DFE803F03F2413029DF8043057F8332079
S31508013BA01AB1012090479DF8043007EBC3035B68FF
S31508013BB0002BCDD001209847CAE79DF8043057F865
S31508013BC033201AB1002090479DF8043007EBC30350
S31508013BD05B68002BBCD000209847B9E79DF80430F4
S31508013BE058F8334044B1079B9DF8101003980DF11E
S31508013BF01102A0479DF8043008EBC3035C68002C4A
S31508013C00A6D0079B9DF8101003980DF11102A04745
S31508013C109EE79DF8043059F833201AB10398904766
S31508013C209DF8043009EBC3035B68002B90D0039819
S31508013C3098478DE70122142142F2091001F092FA00
S31508013C4086E700BF309100202C910020FC900020CF
S31508013C501C9100200C9100202DE9F047414C424D62
S31508013C60424FDFF80C818CB0002600234FF0FF325B
S31508013C7006A9206804F020FA012805D0012214219A
S31508013C8042F2071001F06EFA9DF81830012B41D85F
S31508013C909DF82020082A43D8EB5C002B40D0DDF89C
S31508013CA01C908DF80E2019F0804348D18DF80D30FF
S31508013CB072B10DF12203013A53FA82F20DF10F01A5
S31508013CC00DF1210313F8010B01F8010B9A42F9D101
S31508013CD04B46002B3ADBCDE901368DF80C60CDF861
S31508013CE01C90FEF735FF9DF8183003EB83038246D7
S31508013CF001A957F8330001F0A9FE04282ED09DF832
S31508013D00183003EB43030344504648F82390FEF763
S31508013D1021FFAAE70122142142F20C1001F022FA2E
S31508013D200123002206A9206804F0C2F800289CD1C4
S31508013D300122142142F2041001F014FA95E7022334
S31508013D408DF80D3029F08043002BC4DA23F00043A7
S31508013D500422CDE901638DF80C20C0E75046FEF731
S31508013D60F9FEDDE7449100202C9100203CC20008B1
S31508013D7050910020F0B500EB8002174B53F83250F2
S31508013D8089B00446002628464FF48061009601F062
S31508013D9061FF012802D0009809B0F0BD0F4A8DF8DD
S31508013DA004400746032410688DF8054033466A46E1
S31508013DB001A904F017F938B128464FF4806101F0DA
S31508013DC0B9FF009809B0F0BD3A46142142F206102F
S31508013DD001F0C8F9F0E700BF3CC2000830910020A5
S31508013DE02DE9F04300EB8002534B8FB053F8326054
S31508013DF08DF81C000546002430460221CDE9004411
S31508013E0001F028FF01280AD00821304601F022FFD7
S31508013E10012805466BD000980FB0BDE8F08303462C
S31508013E20214630468DF81D3001F0B4FE04460028BF
S31508013E3048D0DFF81091DFF8108164270CE0029A68
S31508013E4009929DF811204AB3099B43F080430993CF
S31508013E50013C14F0FF0435D002AA0021304601F0D6
S31508013E6049FEFFF795F959F825309DF810208DF888
S31508013E70205007FB00F0A8FB0010C3EB90109DF83B
S31508013E8012300D908DF82830002AD8D0039A42F0C6
S31508013E90004209929DF81120002AD5D1002BD7D0CE
S31508013EA0013B05AA52FA83F20DF129010DF113031B
S31508013EB013F8010B01F8010B9342F9D1013C14F0F7
S31508013EC0FF04C9D11D4A0023106807A901AA04F0F5
S31508013ED089F818B3019B3046012B4FF0020108BF40
S31508013EE0009301F027FF00980FB0BDE8F083134A4D
S31508013EF02346106802246A4607A98DF81D4004F076
S31508013F0071F890B130460E4901F08CFE3046082111
S31508013F1001F010FF00980FB0BDE8F08301221421CB
S31508013F2042F2061001F01EF9D4E72A46142142F29C
S31508013F30061001F017F9E5E73CC2000830910020A8
S31508013F40100000323C910020D34D62102DE9F04358
S31508013F5000EB8002534B8FB053F832608DF81C008A
S31508013F600546002430461021CDE9004401F072FED1
S31508013F7001280AD04021304601F06CFE0128054689
S31508013F806BD000980FB0BDE8F08303460146304672
S31508013F908DF81D3001F0FEFD0446002848D0DFF8F3
S31508013FA01091DFF8108164270CE0029A09929DF8B6
S31508013FB011204AB3099B43F080430993013C14F04D
S31508013FC0FF0435D002AA0121304601F093FDFFF71F
S31508013FD0DFF859F825309DF810208DF8205007FB99
S31508013FE000F0A8FB0010C3EB90109DF812300D905D
