S02900002E2E2F48414E636F6465725F453430375F5454415F436F6D62696E654D6F64656C2E73726563F8
S31508004000B4C90020758B01080000000000000000FC
S315080040100000000000000000000000000000000092
S3150800402000000000000000000000000075540108B0
S315080040300000000000000000115501086155010844
S315080040400000000000000000000000000000000062
S315080040500000000000000000000000000000000052
S3150800406000000000CD630108000000000000000009
S315080040700000000000000000000000000000000032
S315080040800000000000000000000000009D48010834
S315080040905548010879480108C14801080000000090
S315080040A0B9630108A56301089163010881630108E2
S315080040B06D630108596301084563010800000000A3
S315080040C000000000000000000000000000000000E2
S315080040D000000000457101085D710108757101084D
S315080040E000000000000000003D720108000000000A
S315080040F0316301081D6301080D6301080000000013
S3150800410000000000A5710108000000000000000082
S315080041100000000000000000000000000000000091
S31508004120000000000000000000000000A97101085E
S3150800413000000000FD630108000000002D49010889
S31508004140E548010809490108514901086D72010845
S315080041500000000000000000000000008D7101084A
S315080041600000000000000000000000000000000041
S315080041700000000000000000000000000000000031
S311080041800000000000000000EE11AA5527
S3150800C000000000000000F03F000000000000F03FC4
S3150800C010000000000000E03F000000000000F03FC4
S3150800C0200000000000000000000000000000000002
S3150800C03000000000000000000000000000000000F2
S3150800C04000000000000000000001000001010000DF
S3150800C0500100010100000000383F0700000420002D
S3150800C0601000080002010000000000000A0A0A0089
S3150800C07048414E636F6465725F453430375F545488
S3150800C080415F436F6D62696E654D6F64656C5F7382
S3150800C0906F66747761726549445F76315F32303016
S3150800C0A03632335F313431363339000041707043EC
S3150800C0B074726C5461736B0048414E636F646572A9
S3150800C0C05F453430375F5454415F436F6D62696E24
S3150800C0D0654D6F64656C2E6300000000200000004B
S3150800C0E00014024008000900200000000014024065
S3150800C0F010000E00200000000014024020000F006F
S3150800C1002000000000140240400004002000000047
S3150800C11000140240800005002000000000140240C0
S3150800C120000106002000000000140240000207007B
S3150800C130200000000014024000040800040000006B
S3150800C1400008024001000A0004000000000802403E
S3150800C15004000C00414443636F6E76657273696F21
S3150800C1606E5461736B0000002E2E2F626C6F636B2A
S3150800C1707365742F7274772F53544D33322F73723D
S3150800C180632F686561705F342E630000546D7243D7
S3150800C19070754C6F6164000049444C45000000000E
S3150800C1A02E2E2F626C6F636B7365742F7274772FE4
S3150800C1B053544D33322F7372632F7461736B732E1E
S3150800C1C0630000002E2E2F626C6F636B7365742FED
S3150800C1D07274772F53544D33322F7372632F7469E9
S3150800C1E06D6572732E630000546D7220537663007A
S3150800C1F043616E4576656E745461736B000000008A
S3150800C20043616E5472616E736D69745461736B0029
S3150800C2102E2E2F626C6F636B7365742F7274772F73
S3150800C22053544D33322F7372632F53544D33325F49
S3150800C230453430372F63616E2E630000006400407A
S3150800C2400000000208000000000C02400100000087
S3150800C25008000000000C0240020001000913141532
S3150800C26016000000006800400000000402000000FC
S3150800C27000040240200005000200000000040240FD
S3150800C28040000600093F404142000000010102014A
S3150800C2900202020202030202040202030303040367
S3150800C2A0030503030603030504040604040704043C
S3150800C2B0080404070505080505080605080705080E
S3150800C2C007060808060808070808080045764368A8
S3150800C2D06E6C3100457643686E6C3200457643686D
S3150800C2E06E6C33002E2E2F626C6F636B7365742F22
S3150800C2F07274772F53544D33322F7372632F5354FE
S3150800C3004D33325F453430372F6D61632E6300003D
S3150800C3102E2E2F626C6F636B7365742F7274772F72
S3150800C32053544D33322F7372632F53544D33325F48
S3150800C330453430372F706F72742E63000000014049
S3150800C3400100000002010000100000000010024079
S3150800C35000020900100000000010024000080B004F
S3150800C3600004004002000000010200000100000075
S3150800C37000000240400006000200000000040240DF
S3150800C380200005000008004004000000010200002B
S3150800C39008000000000C024000100C000800000015
S3150800C3A0000C024000200D000004014002000000BD
S3150800C3B002030000040000000008024040000600D6
S3150800C3C0040000000008024080000700100000007A
S3150800C3D000100240000100000100080010000000E3
S3150800C3E0001002400004000101000A0010000000CD
S3150800C3F0001002400010000201000C00000001407D
S3150800C40001000000020119000000004001000000C0
S3150800C41001021C00000400400200000001021D0089
S3150800C420000800400400000001021E00000401404C
S3150800C4300200000002012C0000400140000001003B
S3150800C4400201180000440140000002000201190020
S3150800C450004801400000040002011A00001C0040C8
S3150800C4608000000001022C000020004000010000AE
S3150800C47001022D001000000000100240000200001A
S3150800C4800100090010000000001002400008000129
S3150800C49001000B00100000000010024000200002FE
S3150800C4A001000D00100000000010024000400003CB
S3150800C4B001000E00010000000000024020000100FB
S3150800C4C001000500010000000000024040000200D3
S3150800C4D002000600020000000004024020000201DB
S3150800C4E00200050008000000000C024000100300CE
S3150800C4F002000C0008000000000C024000200301A6
S3150800C50002000D000400000000080240400004007C
S3150800C5100300060004000000000802408000040131
S3150800C520030007001000000000100240200005006C
S3150800C530030005001000000000100240400005013D
S3150800C5400300060020000000001402404000060018
S3150800C55003000600200000000014024080000700C7
S3150800C5600300070020000000001402400001080034
S3150800C570090008002000000000140240000209001B
S3150800C580090009000400000000080240010000003C
S3150800C59020000000001402404000000020000000B7
S3150800C5A00014024080000000200000000014024031
S3150800C5B000010000200000000014024000020000F4
S3150800C5C020000000001402400004000002000000E1
S3150800C5D0000402408000000002000000000402403F
S3150800C5E04000000010000000001002400400000097
S3150800C5F010000000001002401000000010000000AB
S3150800C6000010024020000000100000000010024048
S3150800C61040000000400000000018024080000000B2
S3150800C6204000000000180240000100004000000021
S3150800C63000180240001000004000000000180240E8
S3150800C6400080000001000000000002401000000009
S3150800C6500200000000040240200000000100000063
S3150800C66000000240400000000100000000000240F7
S3150800C6702000000008000000000C02400100000035
S3150800C68008000000000C024002000000080000003C
S3150800C690000C02400400000008000000000C0240E4
S3150800C6A00800000008000000000C0240100000000E
S3150800C6B008000000000C02402000000008000000EE
S3150800C6C0000C02404000000008000000000C024078
S3150800C6D08000000008000000000C02400001000075
S3150800C6E008000000000C02400002000008000000DC
S3150800C6F0000C02400004000008000000000C024084
S3150800C7000008000008000000000C024000100000AD
S3150800C71008000000000C024000200000080000008D
S3150800C720000C02400040000008000000000C024017
S3150800C7300080000010000000001002400100000008
S3150800C7401000000000100240020000001000000067
S3150800C750001002400800000010000000001002400F
S3150800C76080000000100000000010024000010000D8
S3150800C7701000000000100240000200001000000037
S3150800C78000100240000400001000000000100240E3
S3150800C7900008000010000000001002400010000011
S3150800C7A010000000001002400020000010000000E9
S3150800C7B00010024000400000100000000010024077
S3150800C7C00080000020000000001402400100000064
S3150800C7D020000000001402400200000020000000B3
S3150800C7E0001402400400000020000000001402406B
S3150800C7F0080000002000000000140240100000009D
S3150800C8002000000000140240200000002000000064
S3150800C8100014024000080000200000000014024036
S3150800C8200010000020000000001402400020000054
S3150800C8302000000000140240004000002000000014
S3150800C840001402400080000040000000001802406A
S3150800C850010000004000000000180240020000002D
S3150800C86040000000001802400400000040000000DC
S3150800C87000180240080000004000000000180240AE
S3150800C88010000000400000000018024020000000D0
S3150800C8904000000000180240400000004000000070
S3150800C8A00018024000020000400000000018024084
S3150800C8B000040000400000000018024000080000C4
S3150800C8C04000000000180240002000004000000060
S3150800C8D0001802400040000001000000000002406D
S3150800C8E001000000040000000008024001000000EA
S3150800C8F02000000000140240400000002000000054
S3150800C90000140240800000002000000000140240CD
S3150800C9100001000020000000001402400002000090
S3150800C920200000000014024000040000020000007D
S3150800C93000040240800000000200000000040240DB
S3150800C9404000000010000000001002400400000033
S3150800C9501000000000100240100000001000000047
S3150800C96000100240200000001000000000100240E5
S3150800C970400000004000000000180240800000004F
S3150800C98040000000001802400001000040000000BE
S3150800C9900018024000100000400000000018024085
S3150800C9A000800000010000000000024010000000A6
S3150800C9B00200000000040240200000000100000000
S3150800C9C00000024040000000010000000000024094
S3150800C9D02000000008000000000C024001000000D2
S3150800C9E008000000000C02400200000008000000D9
S3150800C9F0000C02400400000008000000000C024081
S3150800CA000800000008000000000C024010000000AA
S3150800CA1008000000000C024020000000080000008A
S3150800CA20000C02404000000008000000000C024014
S3150800CA308000000008000000000C02400001000011
S3150800CA4008000000000C0240000200000800000078
S3150800CA50000C02400004000008000000000C024020
S3150800CA600008000008000000000C0240001000004A
S3150800CA7008000000000C024000200000080000002A
S3150800CA80000C02400040000008000000000C0240B4
S3150800CA9000800000100000000010024001000000A5
S3150800CAA01000000000100240020000001000000004
S3150800CAB000100240080000001000000000100240AC
S3150800CAC08000000010000000001002400001000075
S3150800CAD010000000001002400002000010000000D4
S3150800CAE00010024000040000100000000010024080
S3150800CAF000080000100000000010024000100000AE
S3150800CB001000000000100240002000001000000085
S3150800CB100010024000400000100000000010024013
S3150800CB200080000020000000001402400100000000
S3150800CB30200000000014024002000000200000004F
S3150800CB400014024004000000200000000014024007
S3150800CB500800000020000000001402401000000039
S3150800CB602000000000140240200000002000000001
S3150800CB7000140240000800002000000000140240D3
S3150800CB8000100000200000000014024000200000F1
S3150800CB9020000000001402400040000020000000B1
S3150800CBA00014024000800000400000000018024007
S3150800CBB001000000400000000018024002000000CA
S3150800CBC04000000000180240040000004000000079
S3150800CBD0001802400800000040000000001802404B
S3150800CBE0100000004000000000180240200000006D
S3150800CBF0400000000018024040000000400000000D
S3150800CC000018024000020000400000000018024020
S3150800CC100004000040000000001802400008000060
S3150800CC2040000000001802400020000040000000FC
S3150800CC3000180240004000000400000000080240FE
S3150800CC4000200000000001400100000002011B0056
S3150800CC50000000400100000001021C000004004022
S3150800CC600200000001021D00000800400400000048
S3150800CC7001021E00000401400200000002012E000D
S3150800CC800040014000000100020118000044014074
S3150800CC9000000200020119000048014000000400DB
S3150800CCA002011A00001C00408000000001022C004E
S3150800CCB0002000400001000001022D0010000000C5
S3150800CCC000100240000200000200020001000900F4
S3150800CCD010000000001002400008000104002000B7
S3150800CCE001000B00100000000010024000200002A6
S3150800CCF00800000201000D001000000000100240AC
S3150800CD00004000031000002001000E000100000092
S3150800CD100000024020000100020002000100050098
S3150800CD20010000000000024040000200020002006C
S3150800CD300200060002000000000402402000020172
S3150800CD40040020000200050008000000000C024054
S3150800CD50001003000200020002000C000800000098
S3150800CD60000C0240002003010400200002000D0010
S3150800CD70040000000008024040000400020002000F
S3150800CD8003000600040000000008024080000401B9
S3150800CD9004002000030007001000000000100240F5
S3150800CDA02000050002000200030005001000000034
S3150800CDB000100240400005010400200003000600A0
S3150800CDC02000000000140240400006000200020095
S3150800CDD0030006002000000000140240800007003F
S3150800CDE002000200030007002000000000140240B1
S3150800CDF000010800020002000900080020000000E7
S3150800CE00001402400002090002000200090009009D
S3150800CE10001001401000000002250000020000007A
S3150800CE200004024040000600020000000004024020
S3150800CE3080000700070000000044004000000200D0
S3150800CE400126000008000000000C02402000050032
S3150800CE5008000000000C0240400006000700000021
S3150800CE6000480040000004000127000008000000F8
S3150800CE70000C02400001080008000000000C0240F7
S3150800CE80000209000700000000140140200000000D
S3150800CE9002470000040000000008024040000600A7
S3150800CEA00400000000080240800007000800000097
S3150800CEB056435020436F6E666967000056435020FC
S3150800CEC0496E7465726661636500000053544D6966
S3150800CED063726F656C656374726F6E696373000065
S3150800CEE053544D3332205669727475616C20436F02
S3150800CEF06D506F727420696E204853206D6F64659B
S3150800CF000000000053544D3332205669727475611F
S3150800CF106C20436F6D506F727420696E20465320E3
S3150800CF204D6F6465000000003030303030303030EE
S3150800CF30303530420000000030303030303030308C
S3150800CF4030353043000000000000014001000000B9
S3150800CF5002011B00000000400100000001021C0045
S3150800CF60000400400200000001021D000008004005
S3150800CF700400000001021E00000401400200000037
S3150800CF8002012E00004001400000010002011800C5
S3150800CF900044014000000200020119000048014057
S3150800CFA00000040002011A00001C00408000000076
S3150800CFB001022C00002000400001000001022D00A3
S3150800CFC010000000001002400002000002000200EB
S3150800CFD001000900100000000010024000080001CE
S3150800CFE00400200001000B001000000000100240A1
S3150800CFF0002000020800000201000D0010000000D9
S3150800D00000100240004000031000002001000E003E
S3150800D010010000000000024020000100020002009A
S3150800D0200100050001000000000002404000020067
S3150800D030020002000200060002000000000402408E
S3150800D040200002010400200002000500080000007C
S3150800D050000C0240001003000200020002000C004F
S3150800D06008000000000C0240002003010400200014
S3150800D07002000D0004000000000802404000040001
S3150800D0800200020003000600040000000008024037
S3150800D09080000401040020000300070010000000BF
S3150800D0A000100240200005000200020003000500EF
S3150800D0B01000000000100240400005010400200096
S3150800D0C0030006002000000000140240400006008D
S3150800D0D002000200030006002000000000140240BF
S3150800D0E0800007000200020003000700200000007D
S3150800D0F000140240000108000200020009000800AE
S3150800D100200000000014024000020900020002008C
S3150800D110090009002E2E2F626C6F636B7365742FDE
S3150800D1207274772F53544D33322F7372632F717580
S3150800D1306575652E63000000040404004CD10008E0
S3150800D14054D100085CD100080707070045764368F4
S3150800D1506E6C3100457643686E6C320045764368DE
S3150800D1606E6C3300505050004FBB610567ACDD3F15
S3150800D170182D4454FB21E93F9BF681D20B73EF3FF0
S3150800D180182D4454FB21F93FE2652F227F2B7A3C68
S3150800D190075C143326A6813CBDCBF07A8807703C21
S3150800D1A0075C143326A6913CFB21F93FFB21094075
S3150800D1B07CD91240FB2119407A6A1F407CD922404B
S3150800D1C0BBFD2540FB2129403A462C407A6A2F4070
S3150800D1D05C4731407CD932409C6B3440BBFD3540BE
S3150800D1E0DB8F3740FB2139401BB43A403A463C4076
S3150800D1F05AD83D407A6A3F404C7E40405C474140A1
S3150800D2006C1042407CD942408CA243409C6B4440FF
S3150800D210AC344540BBFD4540CBC64640DB8F474056
S3150800D220EB584840FB21494083F9A200444E6E0062
S3150800D230FC291500D1572700DD34F50062DBC00054
S3150800D2403C999500419043006351FE00BBDEAB005C
S3150800D250B761C5003A6E2400D24D42004906E00087
S3150800D26009EA2E001C92D100EB1DFE0029B11C0014
S3150800D270E83EA700F535820044BB2E009CE98400F1
S3150800D280B4267000417E5F00D69139005383390079
S3150800D2909CF439008B5F840028F9BD00F81F3B0019
S3150800D2A0DEFF97000F980500112FEF000A5A8B0032
S3150800D2B06D1F6D00CF7E360009CB2700464FB7009D
S3150800D2C09E663F002DEA5F00BA277500E5EBC700AA
S3150800D2D03D7BF100F739070092528A00FB6BEA00A2
S3150800D2E01FB15F00085D8D00300356007BFC4600C9
S3150800D2F0F0AB6B0020BCCF0036F49A00E3A91D0002
S3150800D3005E619100081BE60085996500A0145F0020
S3150800D3108D40680080D8FF0027734D00060631004F
S3150800D320CA561500C9A873007BE260006B8CC00062
S3150800D33000000040FB21F93F000000002D44743E28
S3150800D340000000809846F83C0000006051CC783B0D
S3150800D35000000080831BF0390000004020257A3841
S3150800D360000000802282E336000000001DF36935C4
S3150800D3700200000003000000040000000600000090
S31508010000002A2CDD01231A460130C0B2022802D982
S315080100100A700020704791F800C010B5164C0CF014
S31508010020030E04EB8E0E154C1EF80330205C0342BA
S3150801003012D01CF0080F4FEA9C000BD1C40613D44A
S3150801004042EA830213F0380F0A7018BF4FF0FF30E7
S315080100500DD010BD5C07F1D50A70002010BD9217AE
S3150801006002F002021346CFE79806F5D4E8E713F043
S31508010070070018BF012010BD5CC0000858C0000861
S315080100800B78FF2B00D070474B78002BFBD102F081
S3150801009071BD00BF08B5012001F020FFBDE8084089
S315080100A0024A40F26761002004F0BABD81000108E6
S315080100B000F03AB9704700BF2DE9F041224D234AB5
S315080100C095F83730224C1370002B3AD094F8DF306C
S315080100D00133DBB21F4994F8E2200B701E491F4E0B
S315080100E084F8DF309A420A7094BF4FF001084FF046
S315080100F0000817D8737B012B14D0194B94F8E170BB
S31508010100D3E900010DF02CF8C0B2B84288BF7B1CB8
S31508010110144A8CBFDBB2012384F8E1301370002343
S3150801012084F8DF30072086F80D8007F001FB00F51B
S315080101307A7081B269800322BDE8F041072007F091
S315080101404BBA94F8DF30C5E75C0300207D02002036
S3150801015040040020280300203E0600203006002027
S31508010160500000203F060020704700BF2DE9F047E8
S315080101702DED028B537A08EE100A8AB00F460BB1A1
S3150801018000235372D56A2B68012B00F08380002265
S31508010190012305F10C0C4FF07E51AA6029636A63AD
S315080101A060462B602B71242200210DF05FF901AE08
S315080101B084460446B04605F12C0920686168A268A0
S315080101C0E3681034C6464C45AEE80F0008F110083E
S315080101D0F3D1DFED547A2068C8F8000038EE277AA3
S315080101E0F0EE676AC7ED007A4FF00009F7EE007A7C
S315080101F00AAB03EB890313ED096A37EE066A4FEA80
S315080102008909F2EE025A09F12803F4EE657A0DEB33
S315080102100309F1EE10FA09ED098A71D0F7EE005AD1
S3150801022077EEA57A0DF12408F5EE406AF1EE10FA9B
S3150801023005D1B2EE045AC6EE055AC7ED005A85ED48
S31508010240027A3446A646BEE80F00C6450CF1100CE4
S3150801025074464CF8100C4CF80C1C4CF8082C4CF84D
S31508010260043CEFD1F5EEC06ADEF80000CCF80000D8
S31508010270F1EE10FAC5ED0C7AC6BFF7EE007A76EE06
S31508010280E76ADFED286AC5ED0D6A0AB0BDEC028B97
S31508010290BDE8F087D5ED0C7AD5ED0D6ABDEEE77AA6
S315080102A005F10C0C17EE109A01AE95ED027A09F1DB
S315080102B0FF39E646B04605F12C0ADEF80000DEF8FD
S315080102C00410DEF80820DEF80C300EF1100E444654
S315080102D0D6450FC408F11008EFD19FED126ADEF872
S315080102E00000C8F80000F4EE466AF1EE10FA37EE9F
S315080102F0087A87ED006A3FF47BAF4FEA890980E700
S315080103000DF12408434673ED017A93ED017A77EEF0
S31508010310877A9E42C3ED007AF5D19FED027AF7EE10
S31508010320007A81E7000000002DE9F04F2DED088BDA
S31508010330D14C89B00023D4E9080100220CF0B6FE9D
S3150801034000230293002840F0708794F80631002BA9
S3150801035040F0448794F8DE30002B00F04787C74DFC
S31508010360FF2395F830B084F8DB30C54B84F8DEB04E
S31508010370D3E90001002200230CF098FE18B9BBF15D
S31508010380010F00F0948794F8EA300022CDE90322A0
S31508010390003B18BF012385F83730BA4B1B7807EEA7
S315080103A0903AF8EEE77AB1EE047AF4EE477AF1EE8E
S315080103B010FA00F06B82B2EE047AF4EE477AF1EEA7
S315080103C010FA00F06382DFF8D8A200238AF80C300D
S315080103D0AD4E8AF80B303378002B00F03C86A94BDA
S315080103E01B7807EE903A0126BBF1020FB8EEE77AC1
S315080103F084F8FD6000F0438707EE90BAF8EEE77AD5
S31508010400F7EE006AF4EE667AF1EE10FA41F0BD8273
S3150801041094F80561002E40F06787F0EE007AB4EE95
S31508010420677AF1EE10FA00F069878AF80A6094F89B
S315080104300421F0EE087A12B1002284F80421B4EE00
S31508010440677AF1EE10FA40F07A879AF80920012ABC
S315080104500CD08E4B8E4A002011681870012204F0C8
S315080104606BF9884B94F8DEB01B780122BBF1010FBA
S315080104708AF8092000F06A87012B01F0998394F81C
S31508010480032112B1002284F80321824900220A704D
S3150801049007EE903AB8EEE78A07EE90BAF8EEE78AE1
S315080104A0F1EE087AB4EE678AF1EE10FA8AF80720B7
S315080104B041F02081F0EE007AF4EE678AF1EE10FA47
S315080104C041F04E8194F80231002B41F0CA849AF822
S315080104D00630012B6ED0704A94F8F01092F83C3031
S315080104E094F8EF6049009B00C9B2DBB2581885F849
S315080104F0B51092F83D1085F8B63092F83E30C9002D
S315080105003044C9B21B0185F8B410DBB2014485F841
S31508010510B3300B4492F83F10B4F850005F4E4901CE
S31508010520C9B20B4485F8B21092F8401092F84120EE
S315080105308901C9B2D201D2B20B44134485F8B0205D
S31508010540DAB2B4F85E3085F82A301B0AA5F8AE305F
S3150801055085F82930B4F8503085F8B11085F82C3073
S31508010560B4F85E1085F828201B0AA5F8AC3085F882
S315080105702B30464B49BA40BA18805980002094F866
S31508010580DF10197184F8F30085F8271058719A71EC
S31508010590D8713168082204F0CFF83A4B1B7808EE77
S315080105A0103A94F8DE3008EE903AB8EEC88AF8EEBA
S315080105B0E88A0123F1EE0C7AB4EE678AF1EE10FAB5
S315080105C08AF8063041F01280F0EE087AF4EE678A6E
S315080105D0F1EE10FA00F01C8700238AF8053094F82A
S315080105E0013113B1002384F801310023F1EE0C7AAD
S315080105F0B4EE678AF1EE10FA8AF8043007D1F0EE04
S31508010600087AF4EE678AF1EE10FA41F0338394F82A
S31508010610003113B1002384F800311A4B1B7807EE19
S31508010620903A94F8DE30F8EEE77AF2EE006A07EED1
S31508010630103AF4EE667AF1EE10FAB8EEC77A40F09F
S31508010640B586F1EE006AB4EE667AF1EE10FA41F07B
S31508010650478194F8FF30002B41F0FE839AF8033066
S31508010660012B7FD00C4A94F8F01092F8293092F8B1
S315080106702F60490016E000BF400400205C030020FB
S31508010680080000203F0600207D020020C00200204D
S31508010690200000207A02002000C000082C0000205B
S315080106A0300600209B00C9B2DBB2581885F86310E2
S315080106B092F82A1085F8643092F82B30C900C9B22D
S315080106C030441B0185F86210DBB2014485F86130BC
S315080106D00B4492F82C10B4F85E004901C9B20B44D8
S315080106E085F8601092F82D1092F82E208901C9B26A
S315080106F0D201D2B20B44134485F85F10D9B2B4F8CB
S315080107005E3085F85E201B0AA5F85C30B4F85030D7
S31508010710B4F8502069741B0AA5F85A30514B40BAEF
S3150801072052BA1A8058806882AA824F4894F8DF2004
S315080107301A71EA7394F8E0205A712A74997101685A
S315080107400020D871082203F0F7FF484B1B7807EE03
S31508010750903A94F8DE3007EE103AF8EEE77AB8EEFA
S31508010760C77A0123F2EE026AF4EE667AF1EE10FA1E
S315080107708AF8033000F0408794F8FE3013B100235D
S3150801078084F8FE3000233A498AF802301322481EBB
S315080107900CF0F0FD94F8053194F8F42084F87920EA
S315080107A013B1029B84F8F73094F8DEB0039B53B17A
S315080107B09AF80130012B06D02E4B1B7884F8E230CB
S315080107C0002384F8DF30049B8AF80130BBF1010F5E
S315080107D004D994F8EA20002A00F0348594F8FC300C
S315080107E0002B40F08B84BBF1030F40F28E84FF236C
S315080107F084F8DC30DFF890901F4F204D204EDFF84B
S315080108008480002189F80010397029700822404631
S3150801081004F086FD4FF0000C84B286F800C0002C67
S3150801082000F05284174B397899F800E0013CA2B2DE
S3150801083003F1080404EBC2049A7808338A4284BF98
S3150801084011464FF0010CA342F6D1864489F800E01F
S315080108503070BCF1000F00D0397029780831C9B25F
S315080108602970D3E7C0020020340000203F0600208B
S31508010870A70400206800002020030020220300208E
S3150801088023030020E002002021030020DFF8C4A38F
S315080108909AF80C30012B00F02882D94BA06C18600D
S315080108A00CF022F9D74B00220CF098F90AF0F6FC65
S315080108B0D54BD3E904230CF091F9D44B00220CF063
S315080108C08DF9B4F86060D24AB4F862301380F31A2D
S315080108D041EC1B0B98B2CF4B1E80CF4B18800CF006
S315080108E003F9804689460AF08FFC02460B464046C4
S315080108F0494643EC1A2B0AF0B7FBC84B41EC190BD6
S31508010900002251EC1B0B0CF069F953EC1A2B0CF075
S3150801091065F9C34B80468946002251EC190B0CF048
S315080109205DF902460B46404649460BF0A1FF0246D1
S315080109300B46304643EC182B0CF0D6F802460B460C
S31508010940002000210BF092FFB64B80468946C3E989
S31508010950008951EC190BB14B00220CF03FF953EC0D
S315080109601B2B0CF03BF9AE4B06460F46002251EC09
S315080109701A0B0CF033F902460B46304639460BF092
S3150801098075FFA14B0F4619460646D3E90223D1E95D
S3150801099000010CF023F932463B460CF01FF90646D6
S315080109A00F46404649460AF02FFC02460B4640468A
S315080109B0494643EC192B0AF057FB002241EC1A0B66
S315080109C0002351EC180B0CF07BFB002840F08684C1
S315080109D051EC180B002200230CF090FB4FF0000895
S315080109E0002801F04381DFF870928C4BB0EE4ABAC9
S315080109F0F0EE6ABA51EC1A0B00220CF0EFF8324607
S31508010A003B460CF0EBF847EC1A6B53EC192B0646F0
S31508010A100F4651EC180B0CF0E1F802460B4630462E
S31508010A2039460BF023FF784B0646D3E906230F46D2
S31508010A30404649460CF0D2F802460B46304639463E
S31508010A400CF0CCF8784B00220CF0C8F8734B8046B2
S31508010A508946002251EC1A0B0CF0C0F853EC192BFD
S31508010A600CF0BCF853EC1B2B06460F4651EC180B41
S31508010A700CF0B4F802460B46304639460BF0F8FE40
S31508010A8002460B46404649460CF0D2F90CF088FB63
S31508010A900CF04CF80AF05CF90CF082FB9FED637AD6
S31508010AA0634B07EE900A67EE877A186017EE900A8D
S31508010AB00CF03CF85F4B80468946C3E90089606CB7
S31508010AC00CF022F84AA3D3E900230CF087F85A4B15
S31508010AD006460F4640464946C3E900670AF018FB31
S31508010AE002460B463046394616461F460AF010FBA3
S31508010AF002460B46304639460BF0B8FE94ED027BAA
S31508010B004E4A4F4BB0EE478AF0EE678A80468946D1
S31508010B1021F00047C2E90089B0EE47AAF0EE67AABC
S31508010B20D3E90023394606460CF058F853EC182B3E
S31508010B300BF09EFE02460B4643EC182B2EA3D3E977
S31508010B400023B0EE489AF0EE689A0CF0D7FA00281E
S31508010B5040F07F8651EC180B002200230CF0B0FA06
S31508010B60002841F0EA8051EC180B0CF0F9FA00F56F
S31508010B70FA7083B2334A3449A4F852300B8092EDA5
S31508010B80008B00230022494640460CF0B7FA2F4B4A
S31508010B90021E18BF01221A70059251EC180B324633
S31508010BA03B460CF08DFA002800F03E864046494641
S31508010BB0002200230CF0A2FA002801F09E80244BA3
S31508010BC04FF0000883F80080012384F8EB3084F89D
S31508010BD0EC8059EC198B08A3D3E9002319EE100A06
S31508010BE049460CF08BFA002800F00A8636E000BF69
S31508010BF0000080999999B93F0000000000C0724031
S31508010C00580300200000903E00C000080000D03FB5
S31508010C104A0600204806002068020020000010400D
S31508010C200000E03F60020020000008406666364288
S31508010C30DC0200204006002038030020D0020020F4
S31508010C40600000204000002030030020D802002068
S31508010C50C8020020300600200000F03F19EE100AF5
S31508010C60ECA3D3E9002349460BF000FE41EC190B2E
S31508010C70CD4B3046D3E9002339460BF0AFFF0022AE
S31508010C80002306460F4651EC190B0CF037FA0022E1
S31508010C900023002801F07C80304639460CF02EFAF4
S31508010CA0002841F0858032463B4651EC1A0B0BF081
S31508010CB0DFFDDFF868934FF0000842464B460646CB
S31508010CC00F460CF011FA002840F01D854FF0000878
S31508010CD04FF000093046394642464B460CF0FAF9C0
S31508010CE0002840F01085C4E902679AF80B30012202
S31508010CF093428AF80C203FF46BABAC4AAC4894F8A3
S31508010D007A30AC49137094F87C20AB4E027094F893
S31508010D108500AA4F087094F89510317094F8AE6062
S31508010D203E7063B1002A00F08D87002801F09E808D
S31508010D30002901F0C780002E0CBF00230423A04917
S31508010D4094F8FA200B4413F80290B9F1000F00F059
S31508010D50C382ABF1010BBBFA8BFB4FEA5B1B994BC9
S31508010D60B4F85C8083F800B0974BB4F85A20A3F81E
S31508010D700080964B84F8EFB01A80A8EB02031BB2E9
S31508010D80002BBCBFA2EB08031BB2B3F57A7F40F375
S31508010D90C48694F8D130002B0CBF002304231944D0
S31508010DA094F8FB3011F803B0B4F8503084F8F0B079
S31508010DB04FF28A4202FB03F3A364636C0593194657
S31508010DC0A36AB4F84C20A4F85A208B4200F01C8779
S31508010DD0002794F8F13094F8ED2094F8F51006916F
S31508010DE013430CBFB4F85E30B4F856304FF28A425A
S31508010DF002FB03F39B0D94F8EE20A4F8603094F8F7
S31508010E00F230134340F06B84B4F858304FF28A42FB
S31508010E1002FB03F39B0DA4F860300021042001F0C6
S31508010E20E5FB07EE900A6A4E6A4A6B493080F8EE8E
S31508010E30677A17EE900AFFF799F9D5ED377A33886D
S31508010E40A4F85C30FCEEE77A644A17EE903A002182
S31508010E509BB205201380A4F8503001F0C7FB07EEBA
S31508010E60900A5F4B5F4A1880F8EE677A5E4917EE7B
S31508010E70900AFFF77BF9D5ED367A5C4AFCEEE77AFC
S31508010E80472017EE903A9BB21380A4F85E3005F01E
S31508010E908DFD574B84F8E0001B7884F8F53095F8FA
S31508010EA03830002B40F0B986012005F0CDF9514BB9
S31508010EB06064186000220023D4E900010CF000F9EF
S31508010EC04D4E0038337818BF012085F83800002BBD
S31508010ED000F02A8494F8F630002B00F0258494F863
S31508010EE0DE30012B00F0518794F8F420002A00F037
S31508010EF06387023B18BF012385F83930B4F85230AD
S31508010F0094F8EC202B8094F8EB3085F83A3085F884
S31508010F103B203A4994F87B2084F87A20481E082217
S31508010F2084F87B7007930CF025FA354984F88470A8
S31508010F300F22481E0CF01EFA324984F894701822C2
S31508010F40481E0CF017FA304984F8AD702222481E63
S31508010F500CF010FA2D4984F8D0700922481E84F83D
S31508010F60FA900CF007FA2A49069B84F8DA30182217
S31508010F70081F84F8FBB00CF0FDF9059B2364079B59
S31508010F80B4F84E20A4F84C2000200021C4E9000141
S31508010F90A4F84E80002B40F0C28319460A2005F0BA
S31508010FA053FD3DE0AFF30080480000202A030020EE
S31508010FB02B0300202C0300202D0300202E030020E4
S31508010FC048C00008320300205403002026030020ED
S31508010FD076020020BC0500203804002042030020C8
S31508010FE07802002048050020340400204803002028
S31508010FF025030020340300207D020020BD040020C3
S31508011000C6040020D6040020EF04002012050020A3
S315080110106C0400200000000000C072400000594026
S3150801102095F83B1001B101210B2005F00DFD95F84E
S31508011030391001B10121472005F006FD2988102044
S3150801104005F090FB01238AF80B30337894F8DEB06B
S31508011050002B7FF4C4A994F8FD20002A3FF4A6AB1F
S3150801106094F805210AB184F8053194F8043113B1CD
S31508011070002384F8043194F8033113B1002384F86A
S31508011080033194F8023113B1002384F8023194F83C
S31508011090013113B1002384F8013194F8003113B1F9
S315080110A0002384F8003194F8FF3013B1002384F843
S315080110B0FF3094F8FE3013B1002384F8FE30002384
S315080110C084F8FD30FFF772BB2B78BD4A99F80010FA
S315080110D0117008332B7001F04FFDBA4B187001F0EF
S315080110E051FDB94B0246B9481A6001F04DFDB84B9E
S315080110F0186009B0BDEC088BBDE8F08F0023BBF181
S31508011100030F84F8FC303FF672AB94F8E33094F899
S31508011110E420B049012B28BF0123012A94BF9B185B
S315080111200133DBB2002247200B7084F8DC2084F8F7
S31508011130E83005F03BFC002800F0BE8094F8E53065
S31508011140A549002BD1E900014FF000024FF0000339
S3150801115014BF022600260BF0A9FFB0FA80F0400959
S315080111609E4994F8F820831901EB430307469E5CD0
S3150801117094F8E430012B00F04986002E40F00186F0
S315080111803246334685F8312095F8352052001A44FF
S3150801119094F8E630C2F3470285F8332003B1871C79
S315080111A094F8F93001EB4701C95C94F8E330012B57
S315080111B000F03F86002940F038860B46084685F838
S315080111C0323095F836305B000344C3F3470384F89D
S315080111D0F86085F8343084F8F91071E0029B84F8D8
S315080111E0063194F8DE30002B7FF4B9A80E2084F876
S315080111F0DB3005F0DBFB8346BBF1000B4FF00F003C
S3150801120018BF4FF0010B05F0D1FB08B10BF1020B2A
S31508011210102005F0CBFB18B10BF1040B5FFA8BFB21
S315080112206F4D85F830B0FFF7A0B86E4B0022C4E9C0
S31508011230082301210322072084F8061106F0CCF9B8
S31508011240FFF788B8684B694E012184F8FC101046EF
S3150801125019680092334603F09FFC021E04DDB37938
S3150801126085F840303368EB6361490120FEF7C8FE13
S31508011270002840F0D78494F8DEB0FFF7B4BA94F8A2
S315080112806620002A00F08183F0EE007AB4EE677AD0
S31508011290F1EE10FA00F0ED8594F80521002A40F0E8
S315080112A0148607EE90BAF8EEE77A00222FE0CDE928
S315080112B003BB5B46FFF76FB895F8332095F83430D2
S315080112C04C484D4992099B09027084F8E3200B703A
S315080112D084F8E430FFF78EBACB4640E5DFF82C9167
S315080112E04FF00008FFF781BBF0EE006AB4EE667AAC
S315080112F00026F1EE10FA84F80561D6D19AF80A208B
S31508011300012A40F0368407EE90BAF8EEE77AF7EE4E
S31508011310006AF4EE667AF1EE10FA8AF80A203FF4CA
S3150801132086A8F0EE087AB4EE677AF1EE10FA00F0C4
S31508011330F98394F8042112B1002284F804210022C9
S31508011340BBF1010F8AF809207FF496A894F80321C6
S3150801135012B1002284F80321012B7FF496A89AF88A
S315080113600720264E01218A4231703FF491A8B4F82C
S315080113706420234F234B3A8001325970A4F8642024
S31508011380194994F8E2201A70002085F82D204FF0AB
S3150801139080725A6058800822096803F0CDF91A4B01
S315080113A032781B7894F8DEB0FFF772B894F8FF30FC
S315080113B013B1002384F8FF300023FFF7D3B900BF28
S315080113C0240300206A0200206C020020ACC0000839
S315080113D070020020740200201800002048C000088E
S315080113E05C0300200000F03F24000020900200204A
S315080113F03006002041030020400300207A02002025
S315080114004C060020C00200203F0600200000F0BF65
S315080114109AF80530012B3FF4E0A8CA4A94F8F0106F
S3150801142092F8363094F8EF6049009B00C9B2DBB2F6
S31508011430581885F8A91092F8371085F8AA3092F845
S315080114403830C9003044C9B21B0185F8A810DBB28F
S31508011450014485F8A7300B4492F83910B4F85000C6
S31508011460B94E4901C9B20B4485F8A61092F83A104B
S3150801147092F83B208901C9B2D201D2B20B44134476
S3150801148085F8A420DAB2B4F85E3085F824301B0A50
S31508011490A5F8A23085F82330B4F8503085F8A510A0
S315080114A085F82630B4F85E1085F822201B0AA5F8BF
S315080114B0A03085F82530A54B49BA40BA188059801D
S315080114C0002094F8DF101971587185F821109A7166
S315080114D0D8713168082203F02FF99D4B1B7807EE66
S315080114E0103A94F8DE3007EE903AB8EEC77AF8EE7D
S315080114F0E77A0123F1EE006AB4EE667AF1EE10FAA4
S315080115008AF805307FF46BA8B7EE007AF4EE477ACD
S31508011510F1EE10FA40F0A18194F80131002B40F068
S3150801152096849AF80430012B3FF460A8854E94F806
S31508011530F00096F8301096F8313094F8EF704200C2
S315080115408900D2B2C9B285F88E1085F88D2011446A
S3150801155096F83220DB00DBB239441201D2B285F8A3
S315080115608C300B4485F88B20134496F8332096F873
S3150801157034105201D2B2134485F88A2096F83520E0
S31508011580B4F850608901C9B2D201D2B20B441344EE
S3150801159085F88820DAB2B4F85E30AB771B0AA5F86D
S315080115A086306B77B4F8503085F8891085F8203085
S315080115B0B4F85E102A771B0AA5F88430EB77634BDB
S315080115C049BA598076BA63491E80634E087094F801
S315080115D0DF1019710020E97658719A71D87131684E
S315080115E0082203F0A9F80123FFF700B8F0EE687A9C
S315080115F0B0EE487A00237DE7F1EE047AB4EE677A15
S31508011600F1EE10FA40F0468294F8FE3013B1002349
S3150801161084F8FE309AF80230012B3FF4B4A8494900
S3150801162094F8F00091F8223091F8232091F8286077
S3150801163040009B00DBB2C0B285F84B0085F84C3000
S31508011640184491F82430D2003044D2B21B0185F8EF
S315080116504A20DBB2024485F84930134491F8252023
S3150801166091F826003D4E5201D2B2134485F848201E
S3150801167091F827208101C9B2D201D2B20B44134491
S3150801168085F84620DAB2B4F85E302B721B0AA5F843
S315080116904430EB71B4F85030B4F8500085F847106F
S315080116A0AB72B4F85E10AA711B0AA5F842306B72C8
S315080116B0264B49BA40BA1880598094F8DF0094F845
S315080116C0E010697128711871002059719A71D871E1
S315080116D03168082203F030F80123FFF754B8B4F84B
S315080116E054304FF28A4202FB03F39B0DA4F8623091
S315080116F0FFF793BB94F8023113B1002384F8023142
S315080117000023FEF757BF9AF80B3001229342C4E92A
S3150801171002898AF80C207FF4F0AAFEF759BE012146
S315080117200A2005F091F97BE4064B012285F8392058
S315080117301A8C2A80B3F842206A8793F84230FFF759
S31508011740E8BB00BF00C0000830000020C00200202E
S315080117503F06002052030020280000203800002000
S31508011760B84BB94F19680022012600923B4684F806
S315080117700261104603F010FA002840F3C782BA78CE
S31508011780F8783B78797885F8C120120285F8BF3058
S31508011790A5F8C6201B02024485F8C200AB4885F8A5
S315080117A0C01019440180AA49A5F8C430BB7984F848
S315080117B0F66085F8C3300A80A64A127808EE102A20
S315080117C094F8DE2008EE902A5A0885F8BE2085F896
S315080117D0B7209A0885F8BD20DA0885F8BC201A09C9
S315080117E085F8BB205A0985F8BA209A09DB09B8EEAB
S315080117F0C88AF8EEE88A85F8B92085F8B8307FE70F
S3150801180051EC190B002200230BF06EFC00283FF463
S315080118102FAA914B30463946D3E900230BF0DEF95E
S3150801182006460F46FFF73FBA059B83F001088B4B27
S3150801183083F80080002384F8EB3051EC180B32460C
S315080118403B460BF03DFC002808BF4FF00008FFF7A8
S31508011850BEB94FF44873FFF78DB9814B814E1968AC
S31508011860002201230092104684F80131334603F021
S3150801187093F9002840F3748231787778B278F07852
S31508011880B37985F8971085F8987085F8992085F8C1
S315080118909A0085F89B30120209021044A5F89E2089
S315080118A0714AA5F89C100F441780704A10805A088F
S315080118B085F8962085F88F209A0885F89520DA0804
S315080118C085F894201A0985F893205A0985F89220F3
S315080118D09A09DB0985F8912085F89030FEF785BECF
S315080118E0634B644E1968002201230092104684F85E
S315080118F0FF30334603F050F9002840F328825E4949
S3150801190096F805C033787778B278F07881F800C010
S31508011910B179AB75EF752A766876A9761B021F44ED
S31508011920A5F86E304B0885F86C3085F86530003BB4
S3150801193018BF012384F8F13094F8DE30454E84F857
S31508011940E6C007EE103A8B08367885F86B30CB0877
S3150801195085F86A300B09120207EE906A85F8693034
S315080119604B09104485F868308B09C909F8EEE77AFE
S31508011970B8EEC77AA4F85670A5F87020A4F85800EE
S3150801198085F8673085F8661016E5F0EE007AB4EE4C
S31508011990677AF1EE10FA01D000267DE4374B94F808
S315080119A0E710187894F8E920354B814294BF00274F
S315080119B00127642A8CBF042600263344314E317030
S315080119C0314E377094F8F7609B5D029381424FF070
S315080119D0010384F8053140F2A380029B003B18BF3E
S315080119E0012384F8F4300132284B294E84F8E92082
S315080119F00022196800923346104603F0CDF80028F4
S31508011A0008DD7388A5F8D430B37985F8D6303388DC
S31508011A10A5F8D23094F8F330012B00F0168194F82A
S31508011A20E73094F8DEB0013384F8E730094B1B78C8
S31508011A3007EE903AB8EEE77A07EE90BA0026F8EE86
S31508011A40E77A32E42C000020A00200204A03002095
S31508011A504C0300203F06002048000020C802002051
S31508011A602800002098020020440300204603002095
S31508011A7034000020B00200207B020020580000201C
S31508011A8048C000082F030020290300201000002069
S31508011A9080020020CA4BCB4E19680022012300920E
S31508011AA0104684F8FE30334603F076F80028C64B14
S31508011AB040F34781777932787078B1781F70B379B6
S31508011AC0EA7228736973AB7312021044A5F856209B
S31508011AD05A0885F8542085F84D20003A18BF012286
S31508011AE084F8F2209A0885F85320DA0885F85220F6
S31508011AF01A0985F851205A09090285F850209A09C8
S31508011B00DB0984F8E570A4F85400A5F8581085F89F
S31508011B104F2085F84E30FEF735BE0023FFF73FB953
S31508011B2000235EE7002E40F0C381A84B0096A84F1C
S31508011B301968012384F8043132463B46304603F0DE
S31508011B402BF8002840F317817B7885F8CE30BB78CF
S31508011B5085F8CF30FB7885F8D030BB7985F8D13058
S31508011B603B7885F8CD309B4B94F8DEB01B78FFF7B0
S31508011B70E6BB994A994B116894F8E82083F800B0B6
S31508011B805A7085F82F200020022285F82EB002F01F
S31508011B90D3FD904B94F8DEB01B7807EE903AB8EE79
S31508011BA0E77A07EE90BA0122F8EEE77AFFF7AFBBBC
S31508011BB0002E40F0738184F80331894F894B0096D2
S31508011BC0196832463B46304602F0E6FF021E05DD3D
S31508011BD0BB7985F8CC303B68C5F8C8308249012005
S31508011BE0FEF70EFA50B1012384F8DF3084F8E130AC
S31508011BF084F8F33095F8C83084F8E230754B94F8D8
S31508011C00DEB01B78FEF741BCB4F85270B7F52F7FEA
S31508011C1094BF00270127FFF7DCB8012004F024FB55
S31508011C20FFF742B9012395F83C1094F8DEB084F821
S31508011C30E210002284F8DF2084F8EA3084F8E130E3
S31508011C40FEF7D1BD1346FFF77AB8624B94F8DEB0BA
S31508011C501B7807EE903AB8EEE77A07EE90BA0026B7
S31508011C60F8EEE77A84F8E760FFF71FBB4FF0000943
S31508011C70FEF7BBBE5D4B5E4E19680022012300923A
S31508011C80104684F80031334602F086FF002840F3F7
S31508011C90FA8031787778B278F078B37985F87A105E
S31508011CA085F87B7085F87C2085F87D0085F87E307F
S31508011CB0120209021044A5F882204E4AA5F880109E
S31508011CC00F4417804C4A10805A0885F8792085F800
S31508011CD072209A0885F87820DA0885F877201A0993
S31508011CE085F876205A0985F875209A09DB0985F859
S31508011CF0742085F87330FEF790BC404B84F8EB00EE
S31508011D004FF0010883F80080FEF761BF95F8BF2000
S31508011D1095F8C01095F8C1301202A5F8C4200A44F6
S31508011D2095F8C2101B02A5F8C6300B4434490A803F
S31508011D30344A138095F8C3303EE54FF4FA73FEF73B
S31508011D4019BF1F78EA7A287B697BAB7BBCE62E4BE9
S31508011D50EF7D93F800C02A7EAB7D687EA97EDDE51E
S31508011D6095F8971095F8987095F8992095F89A002E
S31508011D7095F89B308FE5174B94F8DEB01B78FFF783
S31508011D80DEBA80231A46FFF7FDB90023FFF7B4B878
S31508011D90304639460BF0B2F900287EF484AF51EC8F
S31508011DA0190B002200230BF081F900287EF47BAF82
S31508011DB000260027FEF777BF0123FFF79DB800BF6E
S31508011DC038000020B80200207C02002020000020F4
S31508011DD0880200203F06002010000020C0020020D3
S31508011DE09002002024000020380600203000002040
S31508011DF0A80200204E03002050030020C80200203C
S31508011E004A0300204C0300207B020020002E0CBF51
S31508011E103346802385F8353008BF324695F8313088
S31508011E2018BF4FF48072FFF7B2B980200346FFF757
S31508011E30C6B900290CBF0B46802385F8363095F8BC
S31508011E4032000CBF0B464FF48073FFF7BDB9002370
S31508011E5084F80131FFF765BB002384F8FF30FEF7EC
S31508011E60FDBB002384F80231FEF731BB0346FEF7BA
S31508011E7066BF94F80521002A3FF440AA002284F897
S31508011E800521FFF73BBA95F87A1095F87B7095F816
S31508011E907C2095F87D0095F87E3009E794F80321B2
S31508011EA0002A3FF45CAA002284F80321FFF757BAF7
S31508011EB094F80421002A3EF4C8AA002284F80421D1
S31508011EC0FEF7C3BA0B46FEF73ABF07EE90BA0022F1
S31508011ED0F8EEE77A84F80521FFF7E7B9F0B50821A6
S31508011EE085B0402002F064F90020764C02F0E0FD4E
S31508011EF07549032005F0B4FAFF2702210E2084F85C
S31508011F00DB7004F01DFD02210F2004F019FD0221EA
S31508011F101020002504F014FD6C49072005F036FC55
S31508011F202946042000F0E0FA012604F5DA73C4E92B
S31508011F306B6684F8EC61C4F8A8312946C4F8806157
S31508011F40A4F88461052084F87C51C4F8B45100F0E2
S31508011F50CBFA04F5A073C4F83431C4E94E6684F8A3
S31508011F6078610221C4F80C61A4F81061472084F84D
S31508011F700851C4F8405104F0E3FC3046294604F000
S31508011F80DBF831460A2004F02DFD31460B2004F01A
S31508011F9029FD3146472004F025FD2A4642F60D0162
S31508011FA0092004F07DFA4A494A4E092004F020FC2A
S31508011FB02A462946102004F005FB474B284619688E
S31508011FC002F0BEFD454B2846196802F0B9FD316895
S31508011FD0284602F0B5FD424B2846196802F0B0FDC5
S31508011FE0404B2846196802F0ABFD3F4B2846196855
S31508011FF002F0A6FD3D4B2846196802F0A1FD3C4BAF
S315080120002846196802F09CFD3168284602F098FDB9
S315080120100221472084F8DC7004F092FC4FF4197011
S3150801202000F0B6FB4FF47A7000F0A6FB642000F0CE
S315080120302FFB25498DF80C5001AA2846CDE90155F3
S3150801204002F044F9012804D02A4840F6277100F025
S3150801205013FE2949032005F087FB02F095FE02F0DD
S315080120609DFE264B264A27499A604FF00130C3E95F
S31508012070002040F201109881D4F8A85101230B7071
S315080120802B68012B0BD100262422AE60002105F115
S315080120900C000BF0EBF94FF07E532B636E63D4F80B
S315080120A034412368012B0BD100252422A560002188
S315080120B004F10C000BF0DAF94FF07E5323636563E4
S315080120C005B0F0BD4004002040420F00B9000108E8
S315080120D0B50001082400002010000020200000207F
S315080120E02C000020280000203000002034000020A9
S315080120F038000020B8C00008690101083006002030
S315080121000301010125030020454B1B78012B00D053
S3150801211070472DE9F041434A1378012B96B005D053
S31508012120414803F06FFB16B0BDE8F0813F4E00242D
S31508012130334614705A78E5B203331AB101340A2CBE
S31508012140F8D125463A4803F049FE4FF080603949EF
S31508012150394A07904FF480634FF4006008914FF4B1
S31508012160005100270B94099201244FF480720D93B4
S315080121700E904FF480330F912D48109207A91193B1
S315080121800A970C971297CDE91477139403F0BCFEBE
S315080121902146274803F0E4FE03F09CFA01A92248E8
S315080121A001978DF808408DF80970CDE903770597F1
S315080121B08DF8185003F09CFABDB1013DEDB2DFF878
S315080121C08080194F023504EB44023244032312F886
S315080121D0032C02EB420208EB82013846E2B2897A05
S315080121E0013403F0C9FAAC42EDD1002003F0C2FE76
S315080121F0012003F0CDFE012003F0D8FE0F4A0A485C
S31508012200136843F400531360012103F00BFB01210A
S31508012210054803F0FDFA0121034803F0A3FA7FE715
S3150801222071000020700000200022014050060020A5
S31508012230106402404C2201407006002000700040E4
S31508012240DCC000082DE9F04FA34B1B6897B0002BA3
S3150801225000F0F180A14B019303F11E099F4DCDF8C2
S31508012260009004E0009B03359D4200F0B880AB78EE
S31508012270002BF7D06B78002BF4D0994B1B78002BE9
S31508012280F0D0954A95F800801768013BDBB207F153
S315080122904C064C2212FB0369AA4604E0B1453746AF
S315080122A000F097804C3639784145F7D1019B0024D7
S315080122B004E001340A2C03F1030305D05A78012AF4
S315080122C0F7D11A788A42F4D14C22394603A80AF082
S315080122D0B7FFB86C049A7D6CC30602F078418B424D
S315080122E000F08E804FF0000C9B4600E08C460CF106
S315080122F00101C9B216AB03EB810353F8483C03F05D
S31508012300784EF345F2D10CF1020C0B299E465FFA81
S315080123108CFC5B4669D90E2910D80FFA8CF103AAF1
S3150801232002EB810100E094464A6841F8042BBCF1AE
S315080123300E0F0CF10102D2B2F5D9049A694931F8A6
S3150801234014C022F07842CCF30B0C6FF07841944517
S31508012350139160D900240134E4B216AA02EB84026F
S31508012360A64652F8482C22F078429445F3D80B2C0D
S3150801237038D8032C0F9A98BF079922F07842A5EB13
S31508012380020296BF21F078410CEB02058D18C4F1C3
S315080123900E0412AAE4B2A2EB840413AA52F8041D8D
S315080123A051609442FAD1441C16AA102C02EB8E0EE7
S315080123B028BF002443EA0C03384603A94C224EF8E9
S315080123C0483CCDE914540AF03BFFB14537467FF442
S315080123D069AF5546009B03359D427FF448AF17B058
S315080123E0BDE8F08F0E2CD2D9DDE7109A032922F029
S315080123F0784215441AD92EF0784EA5EB0E058CE7CE
S31508012400109A089922F07842154421F078416D1AFC
S315080124104FF0010C81E70F9A079922F07842AD1A1D
S3150801242021F0784100240D44A646B0E7089921F029
S3150801243078416D1A71E72A4E337803EBC30203EB31
S315080124404203980000F04CFA234B80461860234B50
S31508012450002837D01A4601931546034602F11E098C
S3150801246014AC212703E003354D453FF4F7AEAA78AE
S31508012470002AF8D095F800C004A9002241F8042BD7
S31508012480A14202F10062F9D14C2203A918468DF83E
S315080124900CC014970AF0D4FE327802EBC201034647
S315080124A002EB41024C3308EB82029342DBD901224B
S315080124B0142142F2030002F063FE074B186800F08C
S315080124C07BFACBE60122142142F20200019303F1C1
S315080124D01E0902F055FEC1E68406002050060020BA
S315080124E002000020700600202DE9F043092885B076
S315080124F006460D4668D838480478F4B9374A384B41
S31508012500012702F11401077022F8024B8A425C7016
S315080125109C7003F10303F7D101214FF4800003F006
S31508012520C3FD4FF48060012103F0E2FD6846CDE961
S315080125300044CDE9024403F001F9DFF8A48008F16B
S315080125401E014746434602E003338B4208D05A78B8
S31508012550012AF9D11A78B242F6D105B0BDE8F0835D
S31508012560204A06EB46039B0002EB0309D0580121DA
S3150801257003F09AFDB9F80830009300240323D9F82B
S3150801258004008DF8043069468DF8074003F01CFDF8
S3150801259098F8013008F1030843B101340A2CF7D140
S315080125A00122142142F2010002F0EAFD04EB44047F
S315080125B03B1901223E555A7005B19A700A4B012200
S315080125C01A7005B0BDE8F083012214214FF40050BA
S315080125D002F0D6FD8FE700BF7100002070060020CB
S315080125E050060020DCC0000870000020092838B514
S315080125F005460C4622D8214B1A78012A01D000201B
S3150801260038BD14B31E4B1C688CB31E4B197889B19F
S315080126102378AB420ED00139CBB24C2111FB0341D1
S31508012620234603E01A78AA421C4603D08B4203F1DB
S315080126304C03F7D1606CC0F3CF0038BD01221421D9
S315080126404FF4005002F09CFDD5E70F4B214604E0FC
S3150801265001310A2903F10303D1D05A78012AF7D1A6
S315080126601A78AA42F4D1094B33F8110038BD14215E
S3150801267042F2050002F084FD204638BD71000020B3
S315080126808406002002000020500600207006002063
S31508012690034A044BA2FB002040091860704700BF9B
S315080126A01F85EB516C00002000B583B000F07EFD5C
S315080126B002AC084E44F8040D074D03E0296820468C
S315080126C000F0ACFEFFF720FD3378002BF6D0FFF7BC
S315080126D0B9FDF3E7020000206C00002008B5FFF7FA
S315080126E013FD044B1B781BB1BDE80840FFF7AABDD3
S315080126F008BD00BF0200002000B583B000F056FDFA
S3150801270002AC054D44F8040DFDF7D2FC29682046B4
S3150801271000F084FEF8E700BF7400002010B584B00D
S31508012720002400F03FF802F009FDFDF7B3FCFFF7BE
S31508012730D5FF052223460092CDE902440194802261
S315080127400849094800F054FB084B039406211A88E6
S3150801275007480091029401942346064900F048FB74
S3150801276004B010BD54C10008A9260108780000204C
S31508012770F9260108ACC00008034A044BA2FB002055
S3150801278040091860704700BF1F85EB51740000208F
S3150801279080087F28024B96BF802218801A807047CE
S315080127A07800002000F000B8074BC3F1006101F57D
S315080127B0004103F500605A5C03F8012B8342FAD104
S315080127C0024B00221A7070478C06002088060020EA
S315080127D0C1F500630133984218DA0144884215DAD3
S315080127E0DFF834C0F0B40B4C9CF800600025FF27D5
S315080127F0225CFF2A00F1010302D0012527542E4647
S3150801280098B28842F4DB15B9F0BC704770478CF86A
S315080128100060F9E78C0600208806002040F2FC7368
S31508012820984210B502D90024204610BD044600F08E
S315080128309DF9034B1C5900F09BF9204610BD00BFBA
S315080128408C060020F8B540F2FC73984200D9F8BD11
S315080128500446094E0D4600F089F9375900F088F902
S31508012860BD42F4D000F082F9355100F081F9034BED
S3150801287001221A70F8BD00BF8C06002088060020C8
S3150801288010B4154A00E01A4613688342FBD351680F
S315080128905418A0420AD041684418A3420DD0904268
S315080128A003605DF8044B18BF106070474068014427
S315080128B010464418A3425160F1D1084C2468A3423A
S315080128C0EDD0D3E9003490422144036041605DF8BC
S315080128D0044B18BF106070478C8E00207C000020C6
S315080128E02DE9F041044600F059FC2E480268002AF9
S315080128F039D02D4B1F683C422FD174B304F108011E
S315080129004B071CBF21F00701083131B3DFF8A0805E
S31508012910D8F800608E4220D3244D2C6803E0226843
S3150801292022B12546144663688B42F8D30268A2424F
S3150801293013D0226828682A605A1A102A00F1080555
S3150801294028D8F61A00223B43C4E90023C8F80060D8
S3150801295000F0F0FC2846BDE8F081002500F0EAFC0D
S315080129602846BDE8F081124F124B396823F0070358
S3150801297047F6F0755E190839726039605A510A4985
S315080129800660C3E90065094D4FF000472B606A6090
S315080129900F60B0E7631818465A606160FFF770FF69
S315080129A06368CEE77C000020800000208C8E002022
S315080129B084000020940E002000283AD038B51D4D19
S315080129C050F8043C2A681342044610D050F8081CF3
S315080129D0D9B14FF48671184800F04EF92A6854F8AF
S315080129E0043C134202D054F8081C71B138BD40F2B8
S315080129F00B11114800F040F954F8083C002BE8D1B6
S31508012A002A6854F8043C1342F0D023EA020344F836
S31508012A10043C00F0C3FB094A54F8043C1168A4F1CC
S31508012A2008000B441360FFF72BFFBDE8384000F0A0
S31508012A3081BC70478000002068C10008840000201E
S31508012A40014B1868704700BF840000200C490D48E7
S31508012A504B6830B4C3F5C332A032642303FB02F3D7
S31508012A60094D0A4C5B09A5FB03230278C3F3C71377
S31508012A709A42237038BF037000234B6030BC7047FD
S31508012A809C8E0020958E0020C55A7C0A948E0020C3
S31508012A9070B50D4606460AF053FD044628460AF067
S31508012AA04FFD844201D0002070BD6CB132782B787D
S31508012AB09A42F8D1002303E0F15CEA5C9142F2D133
S31508012AC00133DBB29C42F7D8012070BD00B51D4D1C
S31508012AD01D481E4B83B000240093012204602C700C
S31508012AE06C602C72234642F210711948194D00F098
S31508012AF0DBFE2860F0B10446174A184B002515700D
S31508012B001D7000F053FB009502462B4620462946C8
S31508012B1000F0F0FE012805D0012214214FF480505F
S31508012B2002F02EFB0E4B00221A60FFF7F7FD00F0AC
S31508012B30FDFAFEE7012214214FF4805002F020FB32
S31508012B402C68D9E79C8E0020A88E00204D2A010802
S31508012B508CC10008988E0020948E0020958E002046
S31508012B6088000020704700BF704700BF02F09CBC78
S31508012B7002F0C0BC03F068BC014B1878704700BF6F
S31508012B80948E0020FFF75CBF70B5054602F08CFCF9
S31508012B90114B1C688CB106462946A068FFF778FFD9
S31508012BA0012805D10DE0A068FFF772FF012808D0BA
S31508012BB024692946002CF6D1304602F09BFC2046B2
S31508012BC070BD6468304602F095FC2046002CF7D0AB
S31508012BD000F070FD800070BDA88E00202DE9F0413F
S31508012BE0804614200F461446FFF77AFE054628B399
S31508012BF00023C5E90343C5E9018702F055FC134ED5
S31508012C00074602F051FC346802460CB90DE01C4631
S31508012C102369002BFBD1104602F06CFC256138466E
S31508012C202C60BDE8F04102F065BC02F063FC2C6043
S31508012C3035603846BDE8F04102F05CBC012214213A
S31508012C404FF4805002F09CFAD2E700BFA88E00200C
S31508012C50074A138801339BB2092B138005D9054905
S31508012C600B68002001330B60108003F00FBB00BF17
S31508012C708C00002088000020012214214FF4805086
S31508012C8002F07EBA054B1A78012A00D070471A7AE3
S31508012C90002AFBD15A6801325A6070479C8E00207F
S31508012CA008B502F001FC044B0121002219701A72C1
S31508012CB0BDE8084002F01EBC9C8E0020014B002294
S31508012CC01A7070479C8E002008B5034C2368012BA7
S31508012CD0FDD902F0DDFBF9E7B48E00200D4B0E4A53
S31508012CE019681268486082420DD80C4A10B5044624
S31508012CF010681968043104F0CDFF094B1A68A2421D
S31508012D0088BF1C6010BD074A10681968043104F0B1
S31508012D10C1BF00BF90000020B8000020AC8E002083
S31508012D20AC000020B08E00202B4B2DE9F04100228B
S31508012D30DFF8B880294E1A60D8F8002033689A421D
S31508012D4047D0D8F80020D8F8003012681B6B9A4291
S31508012D5033D9234C234D236803EB830355F82330DA
S31508012D609BB9214F08E02368013B2360236803EBE5
S31508012D70830355F8233043B92368002BF3D140F276
S31508012D8052713846FFF778FFEDE7236803EB8303B3
S31508012D909B00E91808334A6852684A601D44AA42EA
S31508012DA004BF52684A60D368C8F80030D8F80020D2
S31508012DB033689A4209D0BDE8F081D8F80000D8F8FE
S31508012DC00010343104F0D2FEC3E7BDE8F041FFF745
S31508012DD067BFFFF773FFB4E7BC000020A800002017
S31508012DE0A4000020B48E0020A0C100089000002095
S31508012DF02DE9F84FDDF830B08A4691469846DDE967
S31508012E000A570646002800F0A7800D2D00F2878094
S31508012E104820FFF765FD0446002800F08C804FEA3C
S31508012E208909BBF1000F00F09D80C0F830B04A4611
S31508012E30A52158460AF01AFB236BA9F104099944FE
S31508012E4029F007090AF1FF330AF10F0104F13302E8
S31508012E5001E08B4207D013F9010F02F8010F93F92C
S31508012E6000000028F5D10D2D4FF00003AB4604F103
S31508012E70040A28BF4FF00D0B84F843305046C4F8B6
S31508012E802CB0C4F844B004F0F1FE04F1180004F0C3
S31508012E90EDFECBF10E03A36124616462424631461D
S31508012EA0484602F0D1FA206007B13C6002F014FBF3
S31508012EB0444A454E1368013313603368002B3ED0EC
S31508012EC0424F3B681BB3DFF824814148E26A036835
S31508012ED00133036004F134012046FFF77FFE3D4BC1
S31508012EE0E06A1A68904288BF186000EB800008EB18
S31508012EF08000514604F0BEFE02F000FB3B681BB1A0
S31508012F003368DB6AAB4222D30120BDE8F88F336808
S31508012F10DFF8D880DB6AAB4298BF3460D5E740F268
S31508012F20ED112D48FFF7A8FE4820FFF7D9FC044606
S31508012F3000287FF474AF4FF0FF30BDE8F88F346096
S31508012F401368DFF8A880012B1AD0204FBDE702F0DD
S31508012F509FFA0120BDE8F88F4FF4F6711E48FFF776
S31508012F608BFE52E74846FFF7BBFC834620630028E1
S31508012F707FF45DAF2046FFF71FFD4FF0FF30C4E732
S31508012F80474608F58C793846143704F063FE4F45F1
S31508012F90F9D1DFF85CB0DFF85C900C4F584604F0C5
S31508012FA059FE484604F056FE0C4804F053FE0C48F8
S31508012FB004F050FE0B4A0C4BC2F800B0C3F800905F
S31508012FC083E700BF9400002090000020B400002091
S31508012FD0A0000020A4000020A0C10008F48F002052
S31508012FE008900020AC8E0020B08E0020B48E002000
S31508012FF0CC8F0020E08F0020F8B50446194E02F068
S315080130006BFA1CB3251D284604F05EFEA36A1BB1A4
S3150801301004F1180004F058FE134F2946384604F007
S3150801302029FE02F06BFA3368A34200D0F8BD0F4BB4
S315080130301B687BB90E4A39681268914208D00D4B54
S315080130401B685BB10C4B01221A60F8BD3468D9E7DD
S315080130503360F8BDBDE8F84002F01ABABDE8F84099
S31508013060FFF762BE9000002008900020B4000020FF
S31508013070940000209C000020BC00002010B50446E6
S3150801308068B10A4B62699A4201D0002010BDA06A54
S31508013090074B9842F9D0B0FA80F0400910BD40F2CA
S315080130A059410448FFF7E8FDEBE700BF0890002007
S315080130B0F48F0020A0C1000888B170B5174D2B68A0
S315080130C083420BD0044602F007FA2046FFF7D6FFE3
S315080130D0012809D0BDE8704002F010BA70BD40F26F
S315080130E07A410F48FFF7C8BD261D304604F0ECFDAE
S315080130F00C4AE36A11680C488B4288BF136003EBDC
S31508013100830300EB8300314604F0B4FD2B68E26AC1
S31508013110DB6A9A42DED302F0BBF9DBE790000020B6
S31508013120A0C10008A4000020B48E002030B585B0E7
S315080131300024144A0192CDE90244009423468022D0
S3150801314011491248FFF754FE01280BD005460DB167
S3150801315005B030BD0E4840F21F5105B0BDE83040FC
S31508013160FFF78ABD00F07CFB01280546EFD102F086
S315080131709BF9084A084B15601C6005B0BDE830404C
S3150801318002F024BAA800002098C10008C92C010839
S31508013190A0C10008B4000020B8000020024A136844
S315080131A001331360704700BF9C00002010B502F080
S315080131B093F9034B1C6802F0A1F9204610BD00BF24
S315080131C0B80000202DE9F04F4E4B1B6883B0002B49
S315080131D07BD14D4B1A6801321A601F680FB34B4BEE
S315080131E00193019B1B68BB4237D9DFF83C81DFF8A5
S315080131F03C910025D9F80030454ADB6A126803EB91
S31508013200830358F82330022B28BF0125002A64D0EE
S31508013210404B1B68002B0CBF2846012003B0BDE8B4
S31508013220F08F3D4E33681B68002B64D13B4B3168E8
S315080132303B4A1868306019601368013313603368B4
S315080132401B68002B4CD1314B01931A464FF0FF33C3
S315080132501360019B1B68BB42C7D82F4EDFF8C88095
S31508013260DFF8C890DFF8C8A0002525E03368DB68D9
S31508013270DC68636804F1040B9F42584638D304F0AE
S3150801328023FDA36A04F118000BB104F01DFDE36ADE
S31508013290DAF8002003EB83009342594608EB8000D5
S315080132A088BFCAF8003004F0E5FCD9F80030E26AB4
S315080132B0DB6A9A4228BF012533681B68002BD5D1E2
S315080132C0019A4FF0FF33136094E7114A13680133EB
S315080132D013600025FFF7BCFC9AE7FFF7B9FC97E7EF
S315080132E033680A4ADB680192DB685B68136078E732
S315080132F0019A13607EE740F25B610A48FFF7BCFC5E
S3150801330094E700BF9C000020B8000020AC00002014
S3150801331098000020BC000020AC8E0020B08E002052
S31508013320B0000020A0C10008B48E00209000002043
S31508013330A40000202DE9F0472F4C2368002B51D01B
S3150801334002F0CAF82368013B23602368002B43D1A6
S315080133502A4B1B68002B3FD0DFF8B4A0284E294F13
S31508013360DFF8B090DFF8B0801EE0F368DC68251D51
S3150801337004F1180004F0A8FC284604F0A5FCE36A49
S315080133803A6803EB83009342294609EB800088BF1C
S315080133903B6004F06FFCD8F80030E26ADB6A9A42B7
S315080133A024BF0123CAF800303368002BDDD1164C3F
S315080133B023686BB123685BB10125FFF703FF08B1E9
S315080133C0CAF800502368013B23602368002BF4D117
S315080133D0DAF80040012C0BD0002402F08FF82046C1
S315080133E0BDE8F08740F25A510848FFF745FCA7E7C0
S315080133F002F04EF8F1E700BF9C000020940000207F
S31508013400F48F0020A400002098000020A0C1000825
S31508013410BC000020B48E00209000002038B50C4670
S315080134200546002836D03CB31F4920480A682B6850
S3150801343001320A6001681C192CBF012000208B4249
S3150801344022460DD860B32C60194B1868043004F075
S315080134503BFC2046FFF742FCFFF76CFF40B138BD45
S31508013460B0B1A1422C60EFD3FFF764FF0028F6D173
S31508013470BDE8384002F00CB840F2BF210D48FFF70D
S31508013480FBFB094909480B682A6801330B60036885
S315080134902A60E1E740F2BE210648FFF7EDFBC2E7E5
S315080134A0A142D0D3F4E700BF9C000020B800002059
S315080134B090000020A0C10008044B1B680BB9FFF758
S315080134C033BC034B01221A60704700BF9C000020E1
S315080134D0BC00002070B50E460546C8B10F4C2168E0
S315080134E02846183104F0D6FB2068043004F0ECFBBA
S315080134F0731C06D00A4B18683044BDE87040FFF7C4
S31508013500EDBB216807480431BDE8704004F0B2BB41
S3150801351040F265710448FFF7AFFBDFE79000002032
S31508013520B800002008900020A0C1000870B50E461A
S31508013530054680B10B4C21682846183104F09AFBE0
S315080135402068043004F0C0FB074B18683044BDE816
S315080135507040FFF7C3BB40F29B710448FFF78CFB31
S31508013560E8E700BF90000020B8000020A0C10008CD
S3150801357038B5C368DC684CB304F11805284604F06D
S31508013580A3FB154B1B68E3B9251D284604F09CFBD4
S31508013590124AE36A116812488B4288BF136003EB2B
S315080135A08303294600EB830004F064FB0D4BE26AB2
S315080135B01B68DB6A9A4223BF0B4B01201860002067
S315080135C038BD2946094804F055FBEFE740F2D171A9
S315080135D00748FFF751FBCFE79C000020A400002015
S315080135E0B48E002090000020BC000020F48F00203B
S315080135F0A0C1000810B5044630B1064A064B126848
S315080136001B68C4E9002310BD40F2F7710348FFF7B0
S3150801361033FBF2E7B0000020B8000020A0C1000883
S31508013620F8B50D46044658B38DB301F055FF2B681E
S315080136301A4A581C11681ED0DFF868C0D4E9006020
S31508013640DCF80070BE4201D081420FD20F1ABB428C
S315080136500CD95B1ADCF80010126803442B600025AC
S31508013660C4E9001201F04AFF2846F8BD012501F018
S3150801367045FF2846F8BD002501F040FF2846F8BD5C
S3150801368040F601010648FFF7F7FA002DCDD140F6BD
S3150801369002010348FFF7F0FAC7E700BFB8000020A8
S315080136A0A0C10008B0000020014B01221A60704732
S315080136B0BC00002068B1036B1A78A52A4FF00000F8
S315080136C00FD113F8012F0130A52A80B2F9D080084D
S315080136D07047044B1868036B1A78A52A4FF0000047
S315080136E0EFD0704790000020014B1868704700BF63
S315080136F090000020044B186828B1044B1B68002B66
S315080137000CBF012002207047B40000209C00002055
S31508013710B8B1F8B5164DC36A2A68D26A93420FD270
S315080137202A68144ED26A416903EB830306EB8303C5
S31508013730C2F10E029942826104D02B68DB6AC36228
S31508013740F8BD7047071D0446384604F0BDFA2A68D5
S31508013750094BD06A1A68E062904200D9186000EBFA
S31508013760800006EB80003946BDE8F84004F082BACD
S3150801377090000020B48E0020A4000020F0B138B5D6
S31508013780C26A436C9A4218D0051D0446284604F0BD
S315080137909BFA0B4A636C1168E362C3F10E008B4214
S315080137A0A061084888BF136003EB8303294600EB31
S315080137B08300BDE8384004F05DBA38BD704700BFE4
S315080137C0A4000020B48E0020F8B50F4C01F084FE49
S315080137D025681DB1BDE8F84001F090BE0B4F0C4EAF
S315080137E0384604F037FA304604F034FA094A0A4BE7
S315080137F017600C212A4606201E6004F041FB206052
S31508013800BDE8F84001F07ABEC400002024900020EB
S31508013810389000201C90002020900020914208B585
S315080138200061416005D88169D21A8A420CD3012008
S3150801383008BD9A4201D29942F9D2074B011D18686F
S3150801384004F028FA002008BD044B011D186804F08D
S3150801385021FA002008BD00BF1C90002020900020FE
S3150801386000B585B0FFF7B0FF0B4B1B685BB10023B2
S315080138700222CDE90023CDE902338022074908480F
S31508013880FFF7B6FA20B90748E021FFF7F5F9002056
S3150801389005B05DF804FB00BFC4000020E8C10008BC
S315080138A0D1390108C4C100082DE9F0410D46B1B16D
S315080138B08046282017461E46FFF712F8044658B1D7
S315080138C0FFF782FF069BC4F80080C4E90657266203
S315080138D06362201D04F0CAF92046BDE8F0814FF461
S315080138E0847103482C46FFF7C7F92046BDE8F081E5
S315080138F0C4C1000870B5134E346884B064B11D465E
S31508013900CDE90112039053B11A462046002301A9B5
S3150801391004F076FB04B070BD204604B070BDFFF715
S31508013920E9FE012807D030682B462A4601A904F08A
S31508013930CDFA04B070BD2B463068089A01A904F087
S31508013940C5FAE7E7C40000202DE9F0471D4DDFF869
S315080139507C8082B04FF0000A0DE0DB68DC681F68E6
S3150801396004F10409484604F0AFF9636A204698470A
S31508013970E369012B0AD02B681A68002AEDD1124A8D
S3150801398011682960136002B0BDE8F087A6693E4454
S315080139900023B74219463A46204606D26660246194
S315080139A02868494604F076F9E5E7CDF800A0FFF75F
S315080139B0A1FF0028DFD140F282214046FFF75CF9DA
S315080139C0D9E700BF1C90002020900020C4C1000840
S315080139D02DE9F04FDFF874A15B4FDFF87481DFF84A
S315080139E0749187B04FF0000BDAF800301D68002D8E
S315080139F06DD0DB681D68FFF7D1FBFFF7D7FB3B6886
S31508013A00834204466BD88542386073D9291BD8F896
S31508013A10000004F065FCFFF78DFC002867D0002341
S31508013A201A4603A9D8F8000004F054FB0028DBD095
S31508013A30059C636913B1201D04F046F9FFF7B6FB2F
S31508013A403B689842054627D3039E3D60022E29D03E
S31508013A50032E31D0002EE2D1049BA1692A461944CE
S31508013A602046FFF7DBFE0128D9D1636A204698472D
S31508013A70E369012BD3D1A369049A00961A44204617
S31508013A8033463146FFF736FF0028C8D140F22F21C9
S31508013A904846FFF7F1F8C2E7FFF756FF039E3D6078
S31508013AA0022ED5D10499A16151B1294420462B464C
S31508013AB02A46FFF7B3FEB2E72046FEF77DFFAEE7DB
S31508013AC04FF40F714846FFF7D7F8A169EDE7FFF7FD
S31508013AD065FBFFF76BFB3B689842044605D2FFF787
S31508013AE033FF3C60FFF726FC99E73C608EE701F05F
S31508013AF0CFFC94E7FFF71EFCDAF80030DB68DE68D6
S31508013B00301D04F0E1F8F369012B03D0736A3046DE
S31508013B10984784E7B169224629442B463046FFF780
S31508013B207DFE0128F2D10023CDF800B02A461946B8
S31508013B303046FFF7DFFE0028E8D14FF4AD7148465D
S31508013B40FFF79AF8E2E700BFC00000201C900020AA
S31508013B50C4000020C4C100082DE9F043404E414D80
S31508013B60414FDFF80891DFF8088189B000234FF04B
S31508013B70FF3201A9306804F0ADFA012805D0012207
S31508013B80142142F2081001F0FBFA9DF80440012CB9
S31508013B9005D90122142142F20C1001F0F1FA2B5D2C
S31508013BA0012BE3D19DF80530032B51D8DFE803F04B
S31508013BB03F2413029DF8043057F833201AB1012027
S31508013BC090479DF8043007EBC3035B68002BCDD003
S31508013BD001209847CAE79DF8043057F833201AB1EF
S31508013BE0002090479DF8043007EBC3035B68002B60
S31508013BF0BCD000209847B9E79DF8043058F83340FF
S31508013C0044B1079B9DF8101003980DF11102A047C6
S31508013C109DF8043008EBC3035C68002CA6D0079B0B
S31508013C209DF8101003980DF11102A0479EE79DF823
S31508013C30043059F833201AB1039890479DF8043097
S31508013C4009EBC3035B68002B90D0039898478DE76F
S31508013C500122142142F2091001F092FA86E700BF07
S31508013C60809000207C9000204C9000206C900020D1
S31508013C705C9000202DE9F047414C424D424FDFF858
S31508013C800C818CB0002600234FF0FF3206A920686C
S31508013C9004F020FA012805D00122142142F2071066
S31508013CA001F06EFA9DF81830012B41D89DF82020B5
S31508013CB0082A43D8EB5C002B40D0DDF81C908DF820
S31508013CC00E2019F0804348D18DF80D3072B10DF1EF
S31508013CD02203013A53FA82F20DF10F010DF1210384
S31508013CE013F8010B01F8010B9A42F9D14B46002B47
S31508013CF03ADBCDE901368DF80C60CDF81C90FEF75C
S31508013D0035FF9DF8183003EB8303824601A957F85E
S31508013D10330001F0A9FE04282ED09DF8183003EBD4
S31508013D2043030344504648F82390FEF721FFAAE7C8
S31508013D300122142142F20C1001F022FA0123002279
S31508013D4006A9206804F0C2F800289CD10122142192
S31508013D5042F2041001F014FA95E702238DF80D30AA
S31508013D6029F08043002BC4DA23F000430422CDE96D
S31508013D7001638DF80C20C0E75046FEF7F9FEDDE732
S31508013D80949000207C9000203CC20008A09000205E
S31508013D90F0B500EB8002174B53F8325089B0044650
S31508013DA0002628464FF48061009601F061FF01283C
S31508013DB002D0009809B0F0BD0F4A8DF804400746B5
S31508013DC0032410688DF8054033466A4601A904F0B4
S31508013DD017F938B128464FF4806101F0B9FF009808
S31508013DE009B0F0BD3A46142142F2061001F0C8F9AD
S31508013DF0F0E700BF3CC20008809000202DE9F0439F
S31508013E0000EB8002534B8FB053F832608DF81C00DB
S31508013E100546002430460221CDE9004401F028FF79
S31508013E2001280AD00821304601F022FF012805465B
S31508013E306BD000980FB0BDE8F083034621463046A3
S31508013E408DF81D3001F0B4FE0446002848D0DFF88D
S31508013E501091DFF8108164270CE0029A09929DF807
S31508013E6011204AB3099B43F080430993013C14F09E
S31508013E70FF0435D002AA0021304601F049FEFFF7BA
S31508013E8095F959F825309DF810208DF8205007FB33
S31508013E9000F0A8FB0010C3EB90109DF812300D90AE
S31508013EA08DF82830002AD8D0039A42F000420992A8
S31508013EB09DF81120002AD5D1002BD7D0013B05AAA0
S31508013EC052FA83F20DF129010DF1130313F8010BCF
S31508013ED001F8010B9342F9D1013C14F0FF04C9D151
S31508013EE01D4A0023106807A901AA04F089F818B326
S31508013EF0019B3046012B4FF0020108BF009301F0E8
S31508013F0027FF00980FB0BDE8F083134A23461068CF
S31508013F1002246A4607A98DF81D4004F071F890B18C
S31508013F2030460E4901F08CFE3046082101F010FF9B
S31508013F3000980FB0BDE8F0830122142142F2061061
S31508013F4001F01EF9D4E72A46142142F2061001F0BF
S31508013F5017F9E5E73CC200088090002010000032FE
S31508013F608C900020D34D62102DE9F04300EB8002BE
S31508013F70534B8FB053F832608DF81C000546002468
S31508013F8030461021CDE9004401F072FE01280AD01D
S31508013F904021304601F06CFE012805466BD0009899
S31508013FA00FB0BDE8F0830346014630468DF81D3053
S31508013FB001F0FEFD0446002848D0DFF81091DFF82D
S31508013FC0108164270CE0029A09929DF811204AB3E0
S31508013FD0099B43F080430993013C14F0FF0435D053
S31508013FE002AA0121304601F093FDFFF7DFF859F8DF
