S02B00002E2E2F48414E636F6465725F453430375F5454415F436F6D62696E654D6F64656C5F4D656D6265721A
S31508004000D4C90020758201080000000000000000E5
S315080040100000000000000000000000000000000092
S31508004020000000000000000000000000754B0108B9
S315080040300000000000000000114C0108614C010856
S315080040400000000000000000000000000000000062
S315080040500000000000000000000000000000000052
S3150800406000000000CD5A0108000000000000000012
S315080040700000000000000000000000000000000032
S315080040800000000000000000000000009D3F01083D
S31508004090553F0108793F0108C13F010800000000AB
S315080040A0B95A0108A55A0108915A0108815A010806
S315080040B06D5A0108595A0108455A010800000000BE
S315080040C000000000000000000000000000000000E2
S315080040D000000000456801085D6801087568010868
S315080040E000000000000000003D6901080000000013
S315080040F0315A01081D5A01080D5A0108000000002E
S3150800410000000000A568010800000000000000008B
S315080041100000000000000000000000000000000091
S31508004120000000000000000000000000A968010867
S3150800413000000000FD5A0108000000002D4001089B
S31508004140E53F010809400108514001086D69010869
S315080041500000000000000000000000008D68010853
S315080041600000000000000000000000000000000041
S315080041700000000000000000000000000000000031
S311080041800000000000000000EE11AA5527
S3150800C000000100000101000001000101000000001C
S3150800C010000000000000F03F000000000000F03FB4
S3150800C020000000C0CCCCF43F000000000000F03F48
S3150800C030383F070000042000100008000201000035
S3150800C040000000000A0A0A0048414E636F646572E0
S3150800C0505F453430375F5454415F436F6D62696E94
S3150800C060654D6F64656C5F4D656D62657273686971
S3150800C070705F32303232615F736F667477617265F2
S3150800C08049445F76315F3039303632335F31353384
S3150800C090353338004170704374726C5461736B00A9
S3150800C0A048414E636F6465725F453430375F545458
S3150800C0B0415F436F6D62696E654D6F64656C5F4D78
S3150800C0C0656D626572736869705F32303232612EEF
S3150800C0D06300000020000000001402400800090068
S3150800C0E0200000000014024010000E00200000008E
S3150800C0F00014024020000F00200000000014024037
S3150800C10040000400200000000014024080000500E2
S3150800C1102000000000140240000106002000000074
S3150800C120001402400002070020000000001402402C
S3150800C13000040800040000000008024001000A008C
S3150800C140040000000008024004000C004144436358
S3150800C1506F6E76657273696F6E5461736B0000005B
S3150800C1602E2E2F626C6F636B7365742F7274772F24
S3150800C17053544D33322F7372632F686561705F3481
S3150800C1802E630000546D724370754C6F6164000035
S3150800C19049444C45000000002E2E2F626C6F636BDD
S3150800C1A07365742F7274772F53544D33322F73720D
S3150800C1B0632F7461736B732E630000002E2E2F623B
S3150800C1C06C6F636B7365742F7274772F53544D338A
S3150800C1D0322F7372632F74696D6572732E63000054
S3150800C1E0546D72205376630043616E4576656E74AE
S3150800C1F05461736B0000000043616E5472616E7384
S3150800C2006D69745461736B002E2E2F626C6F636BAD
S3150800C2107365742F7274772F53544D33322F73729C
S3150800C220632F53544D33325F453430372F63616E75
S3150800C2302E630000006400400000000208000000B1
S3150800C240000C02400100000008000000000C02403B
S3150800C25002000100091314151600000000680040CA
S3150800C260000000040200000000040240200005004F
S3150800C270020000000004024040000600093F404159
S3150800C2804200000001010201020202020203020248
S3150800C2900402020303030403030503030603030559
S3150800C2A0040406040407040408040407050508052D
S3150800C2B00508060508070508070608080608080702
S3150800C2C008080800457643686E6C31004576436871
S3150800C2D06E6C3200457643686E6C33002E2E2F62E4
S3150800C2E06C6F636B7365742F7274772F53544D3369
S3150800C2F0322F7372632F53544D33325F45343037C0
S3150800C3002F6D61632E6300002E2E2F626C6F636B98
S3150800C3107365742F7274772F53544D33322F73729B
S3150800C320632F53544D33325F453430372F706F7255
S3150800C330742E6300000001400100000002010000A5
S3150800C3401000000000100240000209001000000062
S3150800C3500010024000080B00000400400200000024
S3150800C3600102000001000000000002404000060033
S3150800C37002000000000402402000050000080040FA
S3150800C380040000000102000008000000000C024042
S3150800C39000100C0008000000000C024000200D00F0
S3150800C3A0000401400200000002030000040000002F
S3150800C3B00008024040000600040000000008024091
S3150800C3C08000070010000000001002400001000075
S3150800C3D001000800100000000010024000040001DF
S3150800C3E001000A00100000000010024000100002C0
S3150800C3F001000C00000001400100000002011900C4
S3150800C400000000400100000001021C00000400407A
S3150800C4100200000001021D000008004004000000A0
S3150800C42001021E00000401400200000002012C0067
S3150800C43000400140000001000201180000440140CC
S3150800C4400000020002011900004801400000040033
S3150800C45002011A00001C00408000000001022C00A6
S3150800C460002000400001000001022D00100000001D
S3150800C4700010024000020000010009001000000040
S3150800C480001002400008000101000B001000000027
S3150800C490001002400020000201000D0010000000FC
S3150800C4A0001002400040000301000E0001000000D9
S3150800C4B00000024020000100010005000100000004
S3150800C4C000000240400002000200060002000000D0
S3150800C4D000040240200002010200050008000000D6
S3150800C4E0000C02400010030002000C0008000000C7
S3150800C4F0000C02400020030102000D0004000000A9
S3150800C5000008024040000400030006000400000082
S3150800C5100008024080000401030007001000000024
S3150800C520001002402000050003000500100000006E
S3150800C530001002404000050103000600200000002C
S3150800C5400014024040000600030006002000000018
S3150800C55000140240800007000300070020000000C6
S3150800C560001402400001080009000800200000002D
S3150800C5700014024000020900090009000400000036
S3150800C58000080240010000002000000000140240DC
S3150800C5904000000020000000001402408000000057
S3150800C5A020000000001402400001000020000000E6
S3150800C5B0001402400002000020000000001402409F
S3150800C5C00004000002000000000402408000000091
S3150800C5D002000000000402404000000010000000B5
S3150800C5E00010024004000000100000000010024085
S3150800C5F0100000001000000000100240200000009B
S3150800C600100000000010024040000000400000003A
S3150800C6100018024080000000400000000018024098
S3150800C6200001000040000000001802400010000051
S3150800C63040000000001802400080000001000000D1
S3150800C6400000024010000000020000000004024042
S3150800C6502000000001000000000002404000000029
S3150800C6600100000000000240200000000800000051
S3150800C670000C02400100000008000000000C024007
S3150800C6800200000008000000000C02400400000040
S3150800C69008000000000C0240080000000800000026
S3150800C6A0000C02401000000008000000000C0240C8
S3150800C6B02000000008000000000C024040000000B6
S3150800C6C008000000000C024080000000080000007E
S3150800C6D0000C02400001000008000000000C0240A7
S3150800C6E00002000008000000000C024000040000E0
S3150800C6F008000000000C02400008000008000000C6
S3150800C700000C02400010000008000000000C024067
S3150800C7100020000008000000000C02400040000055
S3150800C72008000000000C0240008000001000000015
S3150800C7300010024001000000100000000010024036
S3150800C740020000001000000000100240080000006F
S3150800C75010000000001002408000000010000000D9
S3150800C7600010024000010000100000000010024006
S3150800C7700002000010000000001002400004000043
S3150800C7801000000000100240000800001000000021
S3150800C79000100240001000001000000000100240C7
S3150800C7A000200000100000000010024000400000B9
S3150800C7B01000000000100240008000002000000069
S3150800C7C0001402400100000020000000001402408E
S3150800C7D002000000200000000014024004000000CF
S3150800C7E0200000000014024008000000200000009D
S3150800C7F0001402401000000020000000001402404F
S3150800C800200000002000000000140240000800007C
S3150800C8102000000000140240001000002000000064
S3150800C820001402400020000020000000001402400E
S3150800C83000400000200000000014024000800000B4
S3150800C84040000000001802400100000040000000FF
S3150800C85000180240020000004000000000180240D4
S3150800C8600400000040000000001802400800000014
S3150800C87040000000001802401000000040000000C0
S3150800C8800018024020000000400000000018024086
S3150800C89040000000400000000018024000020000AE
S3150800C8A0400000000018024000040000400000009C
S3150800C8B0001802400008000040000000001802406E
S3150800C8C00020000040000000001802400040000060
S3150800C8D00100000000000240010000000400000002
S3150800C8E00008024001000000200000000014024079
S3150800C8F040000000200000000014024080000000F4
S3150800C9002000000000140240000100002000000082
S3150800C910001402400002000020000000001402403B
S3150800C920000400000200000000040240800000002D
S3150800C9300200000000040240400000001000000051
S3150800C9400010024004000000100000000010024021
S3150800C9501000000010000000001002402000000037
S3150800C96010000000001002404000000040000000D7
S3150800C9700018024080000000400000000018024035
S3150800C98000010000400000000018024000100000EE
S3150800C990400000000018024000800000010000006E
S3150800C9A000000240100000000200000000040240DF
S3150800C9B020000000010000000000024040000000C6
S3150800C9C001000000000002402000000008000000EE
S3150800C9D0000C02400100000008000000000C0240A4
S3150800C9E00200000008000000000C024004000000DD
S3150800C9F008000000000C02400800000008000000C3
S3150800CA00000C02401000000008000000000C024064
S3150800CA102000000008000000000C02404000000052
S3150800CA2008000000000C024080000000080000001A
S3150800CA30000C02400001000008000000000C024043
S3150800CA400002000008000000000C0240000400007C
S3150800CA5008000000000C0240000800000800000062
S3150800CA60000C02400010000008000000000C024004
S3150800CA700020000008000000000C024000400000F2
S3150800CA8008000000000C02400080000010000000B2
S3150800CA9000100240010000001000000000100240D3
S3150800CAA0020000001000000000100240080000000C
S3150800CAB01000000000100240800000001000000076
S3150800CAC000100240000100001000000000100240A3
S3150800CAD000020000100000000010024000040000E0
S3150800CAE010000000001002400008000010000000BE
S3150800CAF00010024000100000100000000010024064
S3150800CB000020000010000000001002400040000055
S3150800CB101000000000100240008000002000000005
S3150800CB20001402400100000020000000001402402A
S3150800CB30020000002000000000140240040000006B
S3150800CB402000000000140240080000002000000039
S3150800CB5000140240100000002000000000140240EB
S3150800CB602000000020000000001402400008000019
S3150800CB702000000000140240001000002000000001
S3150800CB8000140240002000002000000000140240AB
S3150800CB900040000020000000001402400080000051
S3150800CBA0400000000018024001000000400000009C
S3150800CBB00018024002000000400000000018024071
S3150800CBC004000000400000000018024008000000B1
S3150800CBD0400000000018024010000000400000005D
S3150800CBE00018024020000000400000000018024023
S3150800CBF0400000004000000000180240000200004B
S3150800CC004000000000180240000400004000000038
S3150800CC10001802400008000040000000001802400A
S3150800CC2000200000400000000018024000400000FC
S3150800CC300400000000080240002000000000014037
S3150800CC400100000002011B00000000400100000076
S3150800CC5001021C00000400400200000001021D0041
S3150800CC60000800400400000001021E000004014004
S3150800CC700200000002012E000040014000000100F1
S3150800CC8002011800004401400000020002011900D8
S3150800CC90004801400000040002011A00001C004080
S3150800CCA08000000001022C00002000400001000066
S3150800CCB001022D00100000000010024000020000D2
S3150800CCC002000200010009001000000000100240E6
S3150800CCD0000800010400200001000B0010000000FD
S3150800CCE000100240002000020800000201000D00AA
S3150800CCF01000000000100240004000031000002051
S3150800CD0001000E00010000000000024020000100A2
S3150800CD1002000200010005000100000000000240B8
S3150800CD2040000200020002000200060002000000A5
S3150800CD300004024020000201040020000200050051
S3150800CD4008000000000C0240001003000200020068
S3150800CD5002000C0008000000000C0240002003013D
S3150800CD600400200002000D00040000000008024034
S3150800CD704000040002000200030006000400000050
S3150800CD800008024080000401040020000300070098
S3150800CD9010000000001002402000050002000200FA
S3150800CDA003000500100000000010024040000501C5
S3150800CDB004002000030006002000000000140240C2
S3150800CDC040000600020002000300060020000000E2
S3150800CDD0001402408000070002000200030007005A
S3150800CDE020000000001402400001080002000200B2
S3150800CDF00900080020000000001402400002090093
S3150800CE00020002000900090000100140100000009D
S3150800CE10022500000200000000040240400006004F
S3150800CE20020000000004024080000700070000001E
S3150800CE30004400400000020001260000080000002F
S3150800CE40000C02402000050008000000000C02400B
S3150800CE5040000600070000000048004000000400EB
S3150800CE600127000008000000000C0240000108002D
S3150800CE7008000000000C024000020900070000003C
S3150800CE8000140140200000000247000004000000D2
S3150800CE9000080240400006000400000000080240A6
S3150800CEA0800007000800000056435020436F6E6656
S3150800CEB06967000056435020496E7465726661635F
S3150800CEC06500000053544D6963726F656C65637441
S3150800CED0726F6E696373000053544D33322056697E
S3150800CEE0727475616C20436F6D506F727420696E31
S3150800CEF0204853206D6F64650000000053544D337D
S3150800CF0032205669727475616C20436F6D506F726A
S3150800CF107420696E204653204D6F6465000000003A
S3150800CF20303030303030303030353042000000009C
S3150800CF30303030303030303030353043000000008B
S3150800CF40000001400100000002011B000000004033
S3150800CF500100000001021C0000040040020000005D
S3150800CF6001021D00000800400400000001021E0026
S3150800CF70000401400200000002012E0000400140AA
S3150800CF8000000100020118000044014000000200F0
S3150800CF9002011900004801400000040002011A00BD
S3150800CFA0001C00408000000001022C000020004008
S3150800CFB00001000001022D001000000000100240D0
S3150800CFC00002000002000200010009001000000033
S3150800CFD000100240000800010400200001000B00B8
S3150800CFE010000000001002400020000208000002A5
S3150800CFF001000D0010000000001002400040000370
S3150800D0001000002001000E00010000000000024090
S3150800D01020000100020002000100050001000000D6
S3150800D0200000024040000200020002000200060062
S3150800D0300200000000040240200002010400200053
S3150800D0400200050008000000000C02400010030062
S3150800D0500200020002000C0008000000000C02405A
S3150800D060002003010400200002000D000400000057
S3150800D0700008024040000400020002000300060007
S3150800D080040000000008024080000401040020009B
S3150800D09003000700100000000010024020000500F1
S3150800D0A00200020003000500100000000010024004
S3150800D0B040000501040020000300060020000000CF
S3150800D0C000140240400006000200020003000600A9
S3150800D0D02000000000140240800007000200020041
S3150800D0E003000700200000000014024000010800A9
S3150800D0F00200020009000800200000000014024097
S3150800D1000002090002000200090009002E2E2F6203
S3150800D1106C6F636B7365742F7274772F53544D332A
S3150800D120322F7372632F71756575652E6300000063
S3150800D1300404040044D100084CD1000854D1000866
S3150800D14007070700457643686E6C310045764368E5
S3150800D1506E6C3200457643686E6C33005050500052
S3150800D160E2652F227F2B7A3C075C143326A6813C86
S3150800D170BDCBF07A8807703C075C143326A6913C31
S3150800D1804FBB610567ACDD3F182D4454FB21E93FD1
S3150800D1909BF681D20B73EF3F182D4454FB21F93FC0
S3150800D1A0FB21F93FFB2109407CD91240FB2119409C
S3150800D1B07A6A1F407CD92240BBFD2540FB212940C5
S3150800D1C03A462C407A6A2F405C4731407CD9324037
S3150800D1D09C6B3440BBFD3540DB8F3740FB21394023
S3150800D1E01BB43A403A463C405AD83D407A6A3F40DA
S3150800D1F04C7E40405C4741406C1042407CD94240DE
S3150800D2008CA243409C6B4440AC344540BBFD454032
S3150800D210CBC64640DB8F4740EB584840FB21494088
S3150800D22083F9A200444E6E00FC291500D157270049
S3150800D230DD34F50062DBC0003C999500419043005F
S3150800D2406351FE00BBDEAB00B761C5003A6E240031
S3150800D250D24D42004906E00009EA2E001C92D10090
S3150800D260EB1DFE0029B11C00E83EA700F53582003B
S3150800D27044BB2E009CE98400B4267000417E5F0002
S3150800D280D6913900538339009CF439008B5F8400AA
S3150800D29028F9BD00F81F3B00DEFF97000F98050030
S3150800D2A0112FEF000A5A8B006D1F6D00CF7E3600D6
S3150800D2B009CB2700464FB7009E663F002DEA5F0060
S3150800D2C0BA277500E5EBC7003D7BF100F739070083
S3150800D2D092528A00FB6BEA001FB15F00085D8D0061
S3150800D2E0300356007BFC4600F0AB6B0020BCCF0039
S3150800D2F036F49A00E3A91D005E619100081BE6005A
S3150800D30085996500A0145F008D40680080D8FF00ED
S3150800D31027734D0006063100CA561500C9A87300C2
S3150800D3207BE260006B8CC00000000040FB21F93FE7
S3150800D330000000002D44743E000000809846F83C2A
S3150800D3400000006051CC783B00000080831BF03958
S3150800D3500000004020257A38000000802282E3364B
S3150800D360000000001DF369350200000003000000FC
S30D0800D37004000000060000009D
S3150801000091F800C0002A10B50CF003042EDD4FF05C
S31508010010010E7246184B0130C0B203EB8403022865
S3150801002013F80E3002D90A70002010BD134C205C5B
S315080100300342F8D01CF0080F4FEA9C0011D1C40600
S3150801004001D59806EFD442EA830213F0380F0A70F5
S3150801005018BF4FF0FF30E8D113F0070018BF012091
S3150801006010BD5C07DFD4C406EDD5EAE7921702F0A6
S3150801007002029646CEE700BF34C0000830C0000829
S315080100800B78FF2B00D070474B78002BFBD102F081
S31508010090F1B800BF08B5012001F09AFABDE8084099
S315080100A0024A40F26761002004F03AB9810001086A
S315080100B000F03EB9704700BF2DE9F041224D234AB1
S315080100C095F83B30224C1370002B3AD094F85230F5
S315080100D00133DBB21F4994F859200B701E491F4E94
S315080100E084F852309A420A7094BF4FF001084FF0D3
S315080100F0000817D8737B012B14D0194B94F8537049
S31508010100D3E900010CF0A0FBC0B2B84288BF7B1C42
S31508010110144A8CBFDBB2012384F8533013700023D1
S3150801012084F85230072086F80D8006F081FE00F526
S315080101307A7189B269840322BDE8F041072006F085
S31508010140CBBD94F85230C5E7980500201806002063
S31508010150B00200201E0600201D060020A002002075
S31508010160300000201C060020704700BF2DE9F04131
S315080101702DED048B537A09EE100ABCB00F460BB16C
S3150801018000235372D56A2B68012B5FD0DFED498AAC
S31508010190012305F10C08B7EE008AEC222B602B71BE
S315080101A00021C5ED028A85ED3E8AC5ED3F8A4046A6
S315080101B001AC0CF0B9FBEC22414620460CF006FCDA
S315080101C079EE287AF0EE689A0026C7ED008A3CABEC
S315080101D003EB860313ED3B7A77EE876AB6009FED4C
S315080101E0367A06F1F003B4EE478A0DEB0306F1EE13
S315080101F010FA06ED3B9A4CD0B7EE007A38EE078A2C
S31508010200F5EE409AF1EE10FA05D19FED2C6A86EECD
S31508010210867A87ED007AC5ED027AEC2221464046B8
S315080102200CF0D4FBF5EEC09AF1EE10FAC6BFF7EE64
S31508010230007A79EEE77ADFED1F7A85ED3E8AC5ED1C
S315080102403F7A3CB0BDEC048BBDE8F08195ED3E8A62
S31508010250D5ED028AD5ED3F9AFDEEC87A05F10C086F
S3150801026001ACEC224146204617EE906A0CF0AEFB33
S315080102709FED107AF4EE479AF1EE10FA78EE897A44
S3150801028006F1FF3687ED007AA1D0F0EE476AB6008F
S31508010290A5E7DDED3B7A3BAB33ED017A77EE877A5D
S315080102A0A342C3ED007AF7D1DFED027AB7EE008AF1
S315080102B0A6E700BF0000000000006C420000704283
S315080102C070B50446DDE9055610B13078012801D12B
S315080102D0347070BD92F800C0049A85F800C012887F
S315080102E00498120A2A81D2B26A7090F800E085F859
S315080102F002E01888000AE880C0B2E8701B782B7102
S31508010300002560F3070563F30F2562F31745064BCE
S315080103106EF31F65052200201D6083F804C003F0F3
S315080103208BFD347070BD00BF9002002000000000F4
S315080103302DE9F04F2DED028B824C91B0D4E90401E1
S31508010340002200230CF026FA002840F0AA8194F82E
S315080103506530002B40F0E480D4E906010022002331
S315080103600CF018FA002840F0A881774DD5E9066700
S31508010370FF2384F85030C4E90667D4E9080100224E
S3150801038000230CF007FA10B3DFF8D0914FF00008FC
S31508010390C5E90489D4E90A01002200230CF0FAF917
S315080103A0002840F0C780D4E90C01002200230CF094
S315080103B0F1F9002800F0B780DFF8B4B14FF0000A70
S315080103C0C5E900ABD5E90401D5E9022310E0D4E972
S315080103D00A01002200230CF0DDF90028E3D00022EF
S315080103E04FF08043C5E90223D5E90401D5E900ABFD
S315080103F00BF0B2FD52465B460BF0AEFD0CF024FA4B
S31508010400C3B21946514A524B117005910022D3E9DC
S31508010410000100230CF0BEF9002840F0AD800598D4
S315080104200BF0E6FE32463B460CF0B4F9002800F024
S31508010430A3800123049385F83B30464B1B78002B98
S3150801044000F0A880444B93F8009007EE909AF8EED6
S31508010450E77AB0EE007AF4EE477A4FF00108F1EE4A
S3150801046010FA84F8608040F0DB8100223B4B30466D
S3150801047039460CF08FF90246002800F07B8694F87D
S31508010480E13213B1002384F8E132DFF8E88098F805
S315080104900C30012B40F0778788F80C3094F8E0325D
S315080104A013B1002384F8E0320023B9F1010F88F86B
S315080104B00B3040F0EB810022284B304639460CF0D0
S315080104C069F90246002800F0FD8794F8643013B1F3
S315080104D0002384F8643098F80930214E01229342AA
S315080104E0327000F024871F4B1F4F5A70B4F84E2004
S315080104F03A800132A4F84E201C4994F859201A7002
S3150801050085F834204FF080725A6000200822096865
S31508010510588003F091FC104A337892F80090BEE1B6
S3150801052084F8650018E7D5E90401D5E90223D5E978
S3150801053000AB5DE7D5E90223D5E900AB404649465C
S3150801054056E700BFB00200209805002025060020C6
S3150801055070000020180600201C0600200000F03F4D
S315080105601B06002090020020260600201800002005
S3150801057000000840A002002094F85A30003B18BF3A
S31508010580012385F83B30954B1B7800220492002BFA
S315080105907FF458AF94F8602082B394F8E1220AB147
S315080105A084F8E13294F8E03213B1002384F8E0329A
S315080105B094F8643013B1002384F8643094F86730F2
S315080105C013B1002384F8673094F8663013B1002319
S315080105D084F8663094F8633013B1002384F86330E5
S315080105E094F8623013B1002384F8623094F86130CC
S315080105F0002B40F0DB85002384F86030DFF8188291
S31508010600049B53B198F80130012B06D0744B1B7823
S3150801061084F85930002384F85230049B88F8013055
S3150801062005980BF0E5FD32463B460CF0B3F820B9C8
S3150801063094F85A20002A00F0548694F85F3013B1D2
S31508010640002384F85F30DFF8D4C1664A664B30462A
S315080106503946DCE90067C4E90867D2E90067D3E9E6
S315080106600023C4E90A67C4E90C23604B00220CF095
S31508010670A5F800284DD1FF2384F8513001F0FCFD7F
S315080106805B4B187001F0FEFD5A4B02465A481A6038
S3150801069001F0FAFD594B186011B0BDEC028BBDE8AB
S315080106A0F08F574F0026012103220720C4E904676A
S315080106B084F8651006F010FB4EE600230E2084F838
S315080106C0503005F0F3FC0026002840F046850F203F
S315080106D005F0ECFC00274FF00008002800F04685DD
S315080106E04FF08049102005F0E1FC424605464B468D
S315080106F0304639460BF030FC0022002D00F00B86FF
S31508010700404B414D0BF028FC06460F46C5E90667E6
S3150801071031E694F8583094F857103C4A012B28BF13
S315080107200123012994BF5B1801334720002184F86E
S315080107305110137005F0BAFC002800F0FE84344904
S315080107400022D1E9000100230CF024F894F8553071
S31508010750304994F85D20003BB0FA80F018BF0123B8
S31508010760400900EB430301EB43039E5C94F85830C0
S31508010770012B00F0D286321E18BF0122D20195F84C
S31508010780393085F8352002EB430294F85630003BA0
S3150801079018BF012300EB430001EB400194F85E30DA
S315080107A0C85C94F85730C2F34702012B85F8372005
S315080107B000F0A986031E18BF0123DB0195F83A103C
S315080107C085F8363003EB4103C3F3470384F85D60CC
S315080107D085F8383084F85E0000F0B3BC18060020AE
S315080107E00300002060000020580000200000084097
S315080107F0240600204006002094C000083C0600207C
S315080108000000F03F00001040980500202106002056
S315080108105000002000C00008A00200206800002047
S3150801082094F8E132002B40F0E184DFF8788388F808
S315080108300C30B0EE087AF4EE477AF1EE10FA7FF44E
S315080108402DAE0022C24B304639460BF0A3FF0246B5
S31508010850002840F0B084BF4B0090BF4E19680123B1
S3150801086084F8E032334603F017FD002802DD3378B9
S3150801087085F87D30B94BD4E9066793F800900023D3
S31508010880B9F1010F88F80B303FF415AE94F86430CE
S3150801089013B1002384F86430B14A0023137007EEBC
S315080108A0909AB8EEE78AF1EE047AB4EE678AF1EE29
S315080108B010FA88F8093040F0318598F80830012B8C
S315080108C000F08E800021042001F010FA07EE900A4C
S315080108D0A44BA54A1880F8EE677AA44917EE900A40
S315080108E0FFF744FCD5ED1E7AA14AFCEEE77A002112
S315080108F017EE903A05209BB21380A4F8443001F014
S31508010900F5F907EE900A9B4B9B491880F8EE677A32
S315080109109A4A17EE900AFFF729FCD5ED1D7A984AEF
S31508010920FCEEE77A472017EE903A9BB21380A4F8BB
S31508010930483005F0BBFB934B84F85400D3E900011A
S315080109407FA3D3E900230BF0BDFC95F83C30C4E93D
S315080109500E01002B40F0AB85012004F0F5FF0022C3
S3150801096020640023D4E902010BF01EFF059AB4F8AE
S3150801097046102984003818BF01200023B2FA82F2F2
S3150801098060F30703520962F30F2394F85B2062F3BD
S31508010990174394F85C2062F31F63EB63002200237C
S315080109A01020C4E9022305F05DFA95F83E1001B15D
S315080109B001210A2005F0C8FB95F83F1001B1012174
S315080109C00B2005F0C1FB95F83D1001B10121472027
S315080109D005F0BAFB614B1B7808EE103AB8EEC88AE7
S315080109E0F1EE047AB4EE678A0123F1EE10FA88F87B
S315080109F0083040F0A48498F80730012B00F0F881FC
S31508010A00D4E90E01DFF8A0A15F4BC3E9000109F0A3
S31508010A103DFFDAE904230BF055FC00225B4B0BF092
S31508010A2051FC5B4BB4F84A90CDE90C01B4F84C0083
S31508010A301880584BA9EB0000A3F80090564B80B2DA
S31508010A4018800BF0C5FB06460F4609F0D5FE02468F
S31508010A500B4630463946CDE90A2309F085FE4F4B48
S31508010A6006460F460022DDE90C010BF02BFCDDE9F9
S31508010A700A230BF027FC34A3D3E90023CDE90601A9
S31508010A80304639460BF01EFC02460B46DDE90601E7
S31508010A900BF062FA02460B464846CDE908230BF0ED
S31508010AA097FB0B469C46024630460CF100460692D9
S31508010AB007969DED067B3A4B394683ED007B9346B7
S31508010AC0364B0022CDE90EBC0BF0FCFBDDE90C230D
S31508010AD00BF0F8FB1CA3D3E9002306460F46DDE914
S31508010AE00A010BF0EFFB02460B46304639460BF07E
S31508010AF031FADAE9022306460F46DAE900010BF074
S31508010B00E1FB32463B460BF0DDFB02460B46DDE9CF
S31508010B100601CDE9062309F06FFE02460B46DDE91B
S31508010B200E01CDE90A2309F01FFEDDE90867CDE9C3
S31508010B300C0100220023304638E000BFAFF30080E5
S31508010B40000000401BB98E3F000000C0CCCCF43F2A
S31508010B500000F03F1C000020980200201C0600201F
S31508010B601B0600202E060020540400201006002033
S31508010B702C0600202A0600200C0600201803002057
S31508010B802806002040000020680600200000D03F0B
S31508010B9036060020340600203206002000001040E8
S31508010BA060060020A002002010C0000839460BF09C
S31508010BB0FBFD002840F0FB8300220023304639461E
S31508010BC00BF010FE002800F077849FEDC57B8DEDB4
S31508010BD00E7BDDE90C01C84B00220BF073FBDDE946
S31508010BE006230BF06FFBDDE90A2306460F46DDE90E
S31508010BF008010BF067FB02460B46304639460BF0F7
S31508010C00A9F9DAE9062306460F46DDE90E010BF0D6
S31508010C1059FB02460B46304639460BF053FBB74B98
S31508010C2000220BF04FFBB44B82468B460022DDE9CE
S31508010C3006010BF047FBDDE90A230BF043FBDDE96F
S31508010C400C2306460F46DDE908010BF03BFB02467D
S31508010C500B46304639460BF07FF902460B4650469D
S31508010C6059460BF059FC0BF00FFE0BF0D3FA09F0BD
S31508010C70EFFB0BF009FE9FEDA27AA24B07EE900A55
S31508010C8067EE877A186017EE900A0BF0C3FA9E4B47
S31508010C9082468B46C3E900AB206C0BF0A9FA92A3F6
S31508010CA0D3E900230BF00EFB984B06460F46504638
S31508010CB05946C3E9006709F017FE02460B46304656
S31508010CC0394616461F4609F00FFE02460B463046C0
S31508010CD039460BF03FF994ED007B8D4A8D4B06465C
S31508010CE00F4621F0004BC2E900675946D3E90023B4
S31508010CF08DED087B82460BF0E5FADDE908230BF05A
S31508010D002BF902460B46CDE9062379A3D3E900233D
S31508010D100BF068FD002840F03383DDE90601002267
S31508010D2000230BF041FD002840F00184DDE90601AE
S31508010D300BF08AFD00F5FA739BB2774AA4F84630A0
S31508010D40138030463946002200230BF04BFD734BC6
S31508010D50061E5246D3E900015B4618BF01260BF071
S31508010D6023FD002800F0088386F0010330461A4661
S31508010D7084F85C306A4B84F85B001E70DDE906670F
S31508010D80684B30461A70394659A3D3E900230BF04C
S31508010D9029FD002800F0DD8255A3D3E9002330465A
S31508010DA039460BF0D7F8CDE906015F4B5046D3E932
S31508010DB0002359460BF086FA0022002306460F4601
S31508010DC0DDE906010BF00EFD00220023002800F0E4
S31508010DD0BF83304639460BF005FD08B100260027CA
S31508010DE0DDE9080132463B460BF0B6F8C4E90001D5
S31508010DF00123F1EE087AB4EE678AF1EE10FAD4E926
S31508010E00066788F8073040F0128200224FF08043C7
S31508010E10304639460BF0BEFC0246002800F04C82EB
S31508010E2094F8673013B1002384F86730DFF814911A
S31508010E303046394600224FF080430BF0ABFC0038B0
S31508010E4018BF0120D9F80010384BDFF8FC9002933F
S31508010E50374B0193CDF80090A9F1040309F10A0271
S31508010E60FFF72EFA334B1B7808EE103AB8EEC88A0C
S31508010E7094ED066BF1EE0C7AB4EE678AF1EE10FA90
S31508010E808DED066B40F0D1811C4B51EC160B0022FF
S31508010E900BF080FC003818BF0120274A274B029225
S31508010EA0DFF8A8B0264A0192CDF8009003F10E02A8
S31508010EB0DBF80010FFF704FA1E4B1B7807EE903A91
S31508010EC0F8EEE77AB1EE007AF4EE477AF1EE10FA27
S31508010ED0D4E9066740F09F813AE000BFAFF300808E
S31508010EE0000000000000F03F000080999999B93F81
S31508010EF00000000000C072400000104000000840D9
S31508010F00666636423806002058060020500600203C
S31508010F10480600202800002030060020480000204E
S31508010F201A0600201906002038000020A602002013
S31508010F30FE0500201C060020A5020020F402002060
S31508010F40F405002010000020F80200200C00002003
S31508010F500022BC4B304639460BF01CFC02460028E1
S31508010F6000F0968194F8663013B1002384F8663050
S31508010F70DFF810A3B34B3046394600220BF00AFCC2
S31508010F80003818BF0120B04BB04ACDF80090DAF806
S31508010F9000100292AE4A019203F10E02FFF790F990
S31508010FA0F1EE0C7AB4EE678AF1EE10FA09D1002255
S31508010FB0DDE90601A74B0BF0EDFB0246002800F020
S31508010FC00A8294F8633013B1002384F86330A24B84
S31508010FD01B7808EE103AB8EEC88AF2EE007AB4EE3B
S31508010FE0678AF1EE10FAD4E9066740F00C8100220F
S31508010FF09A4B304639460BF0CDFB0246002800F0E5
S31508011000268294F8623013B1002384F8623098F886
S315080110100330012B3AD0B4F8440094F85270B4F86E
S31508011020481094F854604FEA102C00226CF307021A
S31508011030002367F3070360F30F22080A66F30F23F9
S31508011040A5F84A00C0B2C9B260F3174361F31F633A
S3150801105060F31742EB62824BA5F848C061F31F6241
S315080110601A60B4F844201F7152BA2A867D4A5E7105
S3150801107011680020062202F0DFFE774B1B7808EE86
S31508011080103AD4E90667B8EEC88A0123F2EE027A65
S31508011090B4EE678AF1EE10FA88F8033040F0AB80B7
S315080110A00022714B304639460BF074FB0246002884
S315080110B000F0A28194F8613013B1002384F86130FD
S315080110C098F80230012B34D0B4F8440094F85270E1
S315080110D0B4F8481094F854604FEA102C00226CF3C7
S315080110E00702002367F3070360F30F22080A66F372
S315080110F00F23A5F84400C0B2C9B260F3174361F3E0
S315080111001F6360F317426B62554BA5F842C061F342
S315080111101F621A60B4F844201F7152BA2A85534ACD
S315080111205E7111680020062202F086FED4E9066780
S31508011130012388F80230FFF763BA95F8372095F846
S3150801114038304B484B4992099B09027084F857205D
S315080111500B7084F85830FFF791BA0F2004F0A6FFF8
S31508011160384F4FF0000800287FF4BAAA4FF000095B
S31508011170FFF7B8BA404B414E84F8E18200901968EE
S31508011180334603F089F8002802DD337885F87E3086
S31508011190314BDFF8F48093F8009007EE909AD4E982
S315080111A00667F8EEE77A0023FFF741BB002384F8C8
S315080111B06130FFF720BA94F8E03213B1002384F8BE
S315080111C0E03298F80B30012B3FF45AAB2C4A244BEA
S315080111D0116800200122187002F02EFE1E4BD4E978
S315080111E0066793F800900123FFF74ABB002384F8AA
S315080111F0E132FFF71ABB94F8613013B1002384F882
S315080112006130002395E794F8623013B1002384F81E
S31508011210623000233AE794F8663013B1002384F864
S315080112206630DFF860A00020ADE6002035E694F8C8
S31508011230673013B1002384F86730DFF85090002037
S3150801124000E600BF0000F03FF4020020A4020020DF
S31508011250E8050020000008401C0600200000104098
S31508011260900200200800002000001440040000201D
S31508011270200600201F0600202000002098020020DA
S315080112801C00002014000020A002002010000020ED
S31508011290DFF834A300904FF0010CBB4BDAF80010CD
S315080112A084F866C002F0F8FF00287FF763AEB64BF4
S315080112B01B7885F85A305DE6DFF81093DFF8C8A287
S315080112C00090012384F86730D9F80010534602F0DC
S315080112D0E3FF00287FF7ACAD9AF8003085F8703047
S315080112E0A6E501230092A94E84F85F30A84B196838
S315080112F0334602F0D1FF021EC8BF3378A549C8BFDD
S3150801130085F840300120FEF77BFE002854D1D4E948
S315080113100667FFF798B90023FFF7F3B9F2EE047AE7
S31508011320B4EE678AF1EE10FA3FF4C7AA03E088F82B
S315080113300930B7EE008A002388F8083059E5F2EE3D
S31508011340047AB4EE678AF1EE10FA3FF454AB00233F
S315080113504FE5DDE90601002200230BF039FA0028E2
S315080113603FF423AD8C4B5046D3E9002359460AF086
S31508011370A9FF06460F4633E586F001020346F7E460
S315080113804FF44873D9E4854A854B11680020012238
S31508011390187002F051FD834B93F8009007EE909A6E
S315080113A0D4E90667F8EEE77A0123FFF740BA9FED1D
S315080113B0727B8DED0E7B0CE495F8401084F859107C
S315080113C001224FF48073D4E9066784F85A20A4F8F9
S315080113D05230FFF738B9744EDBF80010009001233C
S315080113E084F86330334602F057FF00287FF7EFADE4
S315080113F0337885F84E30EAE56C4B00906C4E1968E7
S31508011400012384F86130334602F046FF002840F391
S315080114109180684831787278737985F82A10037053
S3150801142085F82B20090284F8553053189BB24FF2E0
S31508011430C95202FB03F3C3F3405202EB9353A4F8D8
S315080114404C30D4E90667A5F84610002371E65A4BD5
S3150801145000905A4E1968012384F86230334602F027
S315080114601BFF00286DDD564831787278737985F847
S315080114703210037085F83320090284F85630531860
S31508011480484AA5F84C1012789BB208EE102A4FF27A
S31508011490C95202FB03F3C3F3405202EB9353A4F878
S315080114A04A30D4E90667B8EEC88A0023EEE501207A
S315080114B004F05AFAFFF750BA9FED317B8DED0E7B9A
S315080114C0FFF787BB314E324B84F864900090196858
S315080114D0334602F0E1FE021EC8BF33783949C8BF58
S315080114E085F87C300120FEF78BFD38B195F87C3004
S315080114F084F859304FF48173A4F85230294B93F884
S315080115000090FFF7C9B9011E18BF0121C90195F855
S31508011510363085F83A10FFF755B9331E18BF01233F
S31508011520DB0195F8352085F83930FFF72CB94FF4EA
S31508011530FA7302E41F4B95F82A101B7895F82B20AD
S3150801154070E71F4B95F832101B7895F8332093E70F
S31508011550304639460BF046F900287FF441ACDDE9FF
S315080115600601002200230BF015F900283FF436ACDA
S3150801157036E400BFAFF30080000000000000F0BFB2
S3150801158000000000000000009802002088020020E8
S3150801159018000020A00200203800002020000020AA
S315080115A0900200201C060020800200200400002072
S315080115B0700200202306002008000020780200207F
S315080115C022060020AA020020140000201000002094
S315080115D02DE9F041082184B0402002F069F9002084
S315080115E0784CDFF8208202F0E3FD7749032005F005
S315080115F0B7FAFF2702210E2084F8507004F020FD67
S3150801160002210F2004F01CFD0221102004F018FD10
S315080116106E49072005F03AFC6D4B0020196802F067
S315080116200FFE6C4B0020196802F00AFED8F800106C
S315080116300020002502F004FE0021042000F0D4FA5F
S31508011640012604F5EE7329460520C4F8D031C4E90C
S31508011650756684F8A45184F8DC62C4F8A861C4F8F4
S31508011660DC51A4F8AC6100F0BFFA2346022143F825
S31508011670A05F4720C4F89430C4E9266684F8685008
S3150801168084F8A061E666A4F8706004F0D9FC2946DE
S31508011690304604F0D1F831460A2004F023FD3146DC
S315080116A00B2004F01FFD3146472004F01BFD2A4696
S315080116B042F60D01092004F073FA4749092004F09E
S315080116C017FC2A462946102004F0FCFA434B284603
S315080116D0196802F0B5FD424B2846196802F0B0FDBB
S315080116E0404B2846196802F0ABFD3F4B284619685E
S315080116F002F0A6FD3D4B2846196802F0A1FDD8F86F
S315080117000010284602F09CFD0221472084F85170FA
S3150801171004F096FC4FF4197000F0BAFB4FF47A7096
S3150801172000F0AAFB642000F033FB27498DF80C5022
S3150801173001AA2846CDE9015502F048F9B04204D07C
S315080117402B4840F6931100F017FE2A49032005F0AD
S315080117508BFB02F099FE02F0A1FE274B2749284A86
S315080117609A604FF00130C3E90010D4F8D05140F225
S3150801177001129A812B68012B0DD10026EC22AE604D
S31508011780002105F10C000BF0CFF84FF07E53C5F898
S31508011790F830C5F8FC60D4F894402368012B0DD1C4
S315080117A00025EC22A560002104F10C000BF0BCF821
S315080117B04FF07E53C4F8F830C4F8FC5004B0BDE8C5
S315080117C0F08100BFB002002040420F00B9000108B5
S315080117D0200000201C000020B50001081000002090
S315080117E0140000200C00002008000020040000203E
S315080117F0A0C0000869010108A00200200301010137
S315080118000101030118000020454B1B78012B00D06C
S3150801181070472DE9F041434A1378012B96B005D05C
S31508011820414803F06FFB16B0BDE8F0813F4E002436
S31508011830334614705A78E5B203331AB101340A2CC7
S31508011840F8D125463A4803F049FE4FF080603949F8
S31508011850394A07904FF480634FF4006008914FF4BA
S31508011860005100270B94099201244FF480720D93BD
S315080118700E904FF480330F912D48109207A91193BA
S315080118800A970C971297CDE91477139403F0BCFEC7
S315080118902146274803F0E4FE03F09CFA01A92248F1
S315080118A001978DF808408DF80970CDE903770597FA
S315080118B08DF8185003F09CFABDB1013DEDB2DFF881
S315080118C08080194F023504EB44023244032312F88F
S315080118D0032C02EB420208EB82013846E2B2897A0E
S315080118E0013403F0C9FAAC42EDD1002003F0C2FE7F
S315080118F0012003F0CDFE012003F0D8FE0F4A0A4865
S31508011900136843F400531360012103F00BFB012113
S31508011910054803F0FDFA0121034803F0A3FA7FE71E
S315080119207D0000207C000020002201407006002076
S31508011930106402404C2201409006002000700040CD
S31508011940D4C000082DE9F04FA34B1B6897B0002BB4
S3150801195000F0F180A14B019303F11E099F4DCDF8CB
S31508011960009004E0009B03359D4200F0B880AB78F7
S31508011970002BF7D06B78002BF4D0994B1B78002BF2
S31508011980F0D0954A95F800801768013BDBB207F15C
S315080119904C064C2212FB0369AA4604E0B1453746B8
S315080119A000F097804C3639784145F7D1019B0024E0
S315080119B004E001340A2C03F1030305D05A78012AFD
S315080119C0F7D11A788A42F4D14C22394603A80AF08B
S315080119D0FDFFB86C049A7D6CC30602F078418B4210
S315080119E000F08E804FF0000C9B4600E08C460CF10F
S315080119F00101C9B216AB03EB810353F8483C03F066
S31508011A00784EF345F2D10CF1020C0B299E465FFA8A
S31508011A108CFC5B4669D90E2910D80FFA8CF103AAFA
S31508011A2002EB810100E094464A6841F8042BBCF1B7
S31508011A300E0F0CF10102D2B2F5D9049A694931F8AF
S31508011A4014C022F07842CCF30B0C6FF07841944520
S31508011A50139160D900240134E4B216AA02EB840278
S31508011A60A64652F8482C22F078429445F3D80B2C16
S31508011A7038D8032C0F9A98BF079922F07842A5EB1C
S31508011A80020296BF21F078410CEB02058D18C4F1CC
S31508011A900E0412AAE4B2A2EB840413AA52F8041D96
S31508011AA051609442FAD1441C16AA102C02EB8E0EF0
S31508011AB028BF002443EA0C03384603A94C224EF8F2
S31508011AC0483CCDE914540AF081FFB14537467FF405
S31508011AD069AF5546009B03359D427FF448AF17B061
S31508011AE0BDE8F08F0E2CD2D9DDE7109A032922F032
S31508011AF0784215441AD92EF0784EA5EB0E058CE7D7
S31508011B00109A089922F07842154421F078416D1A05
S31508011B104FF0010C81E70F9A079922F07842AD1A26
S31508011B2021F0784100240D44A646B0E7089921F032
S31508011B3078416D1A71E72A4E337803EBC30203EB3A
S31508011B404203980000F04CFA234B80461860234B59
S31508011B50002837D01A4601931546034602F11E0995
S31508011B6014AC212703E003354D453FF4F7AEAA78B7
S31508011B70002AF8D095F800C004A9002241F8042BE0
S31508011B80A14202F10062F9D14C2203A918468DF847
S31508011B900CC014970AF01AFF327802EBC201034609
S31508011BA002EB41024C3308EB82029342DBD9012254
S31508011BB0142142F2030002F063FE074B186800F095
S31508011BC07BFACBE60122142142F20200019303F1CA
S31508011BD01E0902F055FEC1E6A40600207006002083
S31508011BE002000020900600202DE9F043092885B05F
S31508011BF006460D4668D838480478F4B9374A384B4A
S31508011C00012702F11401077022F8024B8A425C701F
S31508011C109C7003F10303F7D101214FF4800003F00F
S31508011C20C3FD4FF48060012103F0E2FD6846CDE96A
S31508011C300044CDE9024403F001F9DFF8A48008F174
S31508011C401E014746434602E003338B4208D05A78C1
S31508011C50012AF9D11A78B242F6D105B0BDE8F08366
S31508011C60204A06EB46039B0002EB0309D0580121E3
S31508011C7003F09AFDB9F80830009300240323D9F834
S31508011C8004008DF8043069468DF8074003F01CFD01
S31508011C9098F8013008F1030843B101340A2CF7D149
S31508011CA00122142142F2010002F0EAFD04EB440488
S31508011CB03B1901223E555A7005B19A700A4B012209
S31508011CC01A7005B0BDE8F083012214214FF40050C3
S31508011CD002F0D6FD8FE700BF7D00002090060020A8
S31508011CE070060020D4C000087C000020092838B5F9
S31508011CF005460C4622D8214B1A78012A01D0002024
S31508011D0038BD14B31E4B1C688CB31E4B197889B1A8
S31508011D102378AB420ED00139CBB24C2111FB0341DA
S31508011D20234603E01A78AA421C4603D08B4203F1E4
S31508011D304C03F7D1606CC0F3CF0038BD01221421E2
S31508011D404FF4005002F09CFDD5E70F4B214604E005
S31508011D5001310A2903F10303D1D05A78012AF7D1AF
S31508011D601A78AA42F4D1094B33F8110038BD142167
S31508011D7042F2050002F084FD204638BD7D000020B0
S31508011D80A40600200200002070060020900600200C
S31508011D90034A044BA2FB002040091860704700BFA4
S31508011DA01F85EB517800002000B583B000F07EFD59
S31508011DB002AC084E44F8040D074D03E02968204695
S31508011DC000F0ACFEFFF720FD3378002BF6D0FFF7C5
S31508011DD0B9FDF3E7020000207800002008B5FFF7F7
S31508011DE013FD044B1B781BB1BDE80840FFF7AABDDC
S31508011DF008BD00BF0200002000B583B000F056FD03
S31508011E0002AC054D44F8040DFEF752F9296820463F
S31508011E1000F084FEF8E700BF8000002010B584B00A
S31508011E20002400F03FF802F009FDFEF733F9FFF749
S31508011E30D5FF052223460092CDE90244019480226A
S31508011E400849094800F054FB084B039406211A88EF
S31508011E5007480091029401942346064900F048FB7D
S31508011E6004B010BD4CC10008A91D0108840000205A
S31508011E70F91D010894C00008034A044BA2FB00207F
S31508011E8040091860704700BF1F85EB51800000208C
S31508011E9080087F28024B96BF802218801A807047D7
S31508011EA08400002000F000B8074BC3F1006101F57A
S31508011EB0004103F500605A5C03F8012B8342FAD10D
S31508011EC0024B00221A707047AC060020A8060020B3
S31508011ED0C1F500630133984218DA0144884215DADC
S31508011EE0DFF834C0F0B40B4C9CF800600025FF27DE
S31508011EF0225CFF2A00F1010302D0012527542E4650
S31508011F0098B28842F4DB15B9F0BC704770478CF873
S31508011F100060F9E7AC060020A806002040F2FC7331
S31508011F20984210B502D90024204610BD044600F097
S31508011F309DF9034B1C5900F09BF9204610BD00BFC3
S31508011F40AC060020F8B540F2FC73984200D9F8BDFA
S31508011F500446094E0D4600F089F9375900F088F90B
S31508011F60BD42F4D000F082F9355100F081F9034BF6
S31508011F7001221A70F8BD00BFAC060020A806002091
S31508011F8010B4154A00E01A4613688342FBD3516818
S31508011F905418A0420AD041684418A3420DD0904271
S31508011FA003605DF8044B18BF106070474068014430
S31508011FB010464418A3425160F1D1084C2468A34243
S31508011FC0EDD0D3E9003490422144036041605DF8C5
S31508011FD0044B18BF10607047AC8E002088000020A3
S31508011FE02DE9F041044600F059FC2E480268002A02
S31508011FF039D02D4B1F683C422FD174B304F1080127
S315080120004B071CBF21F00701083131B3DFF8A08067
S31508012010D8F800608E4220D3244D2C6803E022684C
S3150801202022B12546144663688B42F8D30268A24258
S3150801203013D0226828682A605A1A102A00F108055E
S3150801204028D8F61A00223B43C4E90023C8F80060E1
S3150801205000F0F0FC2846BDE8F081002500F0EAFC16
S315080120602846BDE8F081124F124B396823F0070361
S3150801207047F6F0755E190839726039605A510A498E
S315080120800660C3E90065094D4FF000472B606A6099
S315080120900F60B0E7631818465A606160FFF770FF72
S315080120A06368CEE7880000208C000020AC8E0020F3
S315080120B090000020B40E002000283AD038B51D4DF6
S315080120C050F8043C2A681342044610D050F8081CFC
S315080120D0D9B14FF48671184800F04EF92A6854F8B8
S315080120E0043C134202D054F8081C71B138BD40F2C1
S315080120F00B11114800F040F954F8083C002BE8D1BF
S315080121002A6854F8043C1342F0D023EA020344F83F
S31508012110043C00F0C3FB094A54F8043C1168A4F1D5
S3150801212008000B441360FFF72BFFBDE8384000F0A9
S3150801213081BC70478C00002060C100089000002017
S31508012140014B1868704700BF900000200C490D48E4
S315080121504B6830B4C3F5C332A032642303FB02F3E0
S31508012160094D0A4C5B09A5FB03230278C3F3C71380
S315080121709A42237038BF037000234B6030BC704706
S31508012180BC8E0020B58E0020C55A7C0AB48E00206C
S3150801219070B50D4606460AF0B3FC044628460AF011
S315080121A0AFFC844201D0002070BD6CB132782B7827
S315080121B09A42F8D1002303E0F15CEA5C9142F2D13C
S315080121C00133DBB29C42F7D8012070BD00B51D4D25
S315080121D01D481E4B83B000240093012204602C7015
S315080121E06C602C72234642F210711948194D00F0A1
S315080121F0DBFE2860F0B10446174A184B0025157016
S315080122001D7000F053FB009502462B4620462946D1
S3150801221000F0F0FE012805D0012214214FF4805068
S3150801222002F02EFB0E4B00221A60FFF7F7FD00F0B5
S31508012230FDFAFEE7012214214FF4805002F020FB3B
S315080122402C68D9E7BC8E0020C88E00204D210108D4
S3150801225084C10008B88E0020B48E0020B58E0020F7
S3150801226094000020704700BF704700BF02F09CBC75
S3150801227002F0C0BC03F068BC014B1878704700BF78
S31508012280B48E0020FFF75CBF70B5054602F08CFCE2
S31508012290114B1C688CB106462946A068FFF778FFE2
S315080122A0012805D10DE0A068FFF772FF012808D0C3
S315080122B024692946002CF6D1304602F09BFC2046BB
S315080122C070BD6468304602F095FC2046002CF7D0B4
S315080122D000F070FD800070BDC88E00202DE9F04128
S315080122E0804614200F461446FFF77AFE054628B3A2
S315080122F00023C5E90343C5E9018702F055FC134EDE
S31508012300074602F051FC346802460CB90DE01C463A
S315080123102369002BFBD1104602F06CFC2561384677
S315080123202C60BDE8F04102F065BC02F063FC2C604C
S3150801233035603846BDE8F04102F05CBC0122142143
S315080123404FF4805002F09CFAD2E700BFC88E0020F5
S31508012350074A138801339BB2092B138005D905490E
S315080123600B68002001330B60108003F00FBB00BF20
S315080123709800002094000020012214214FF4805077
S3150801238002F07EBA054B1A78012A00D070471A7AEC
S31508012390002AFBD15A6801325A607047BC8E002068
S315080123A008B502F001FC044B0121002219701A72CA
S315080123B0BDE8084002F01EBCBC8E0020014B00227D
S315080123C01A707047BC8E002008B5034C2368012B90
S315080123D0FDD902F0DDFBF9E7D48E00200D4B0E4A3C
S315080123E019681268486082420DD80C4A10B504462D
S315080123F010681968043104F0CDFF094B1A68A24226
S3150801240088BF1C6010BD074A10681968043104F0BA
S31508012410C1BF00BF9C000020C4000020CC8E002054
S31508012420B8000020D08E00202B4B2DE9F041002268
S31508012430DFF8B880294E1A60D8F8002033689A4226
S3150801244047D0D8F80020D8F8003012681B6B9A429A
S3150801245033D9234C234D236803EB830355F82330E3
S315080124609BB9214F08E02368013B2360236803EBEE
S31508012470830355F8233043B92368002BF3D140F27F
S3150801248052713846FFF778FFEDE7236803EB8303BC
S315080124909B00E91808334A6852684A601D44AA42F3
S315080124A004BF52684A60D368C8F80030D8F80020DB
S315080124B033689A4209D0BDE8F081D8F80000D8F807
S315080124C00010343104F0D2FEC3E7BDE8F041FFF74E
S315080124D067BFFFF773FFB4E7C8000020B400002008
S315080124E0B0000020D48E002098C100089C0000206E
S315080124F02DE9F84FDDF830B08A4691469846DDE970
S315080125000A570646002800F0A7800D2D00F287809D
S315080125104820FFF765FD0446002800F08C804FEA45
S315080125208909BBF1000F00F09D80C0F830B04A461A
S31508012530A52158460AF0F8F9236BA9F1040999442B
S3150801254029F007090AF1FF330AF10F0104F13302F1
S3150801255001E08B4207D013F9010F02F8010F93F935
S3150801256000000028F5D10D2D4FF00003AB4604F10C
S31508012570040A28BF4FF00D0B84F843305046C4F8BF
S315080125802CB0C4F844B004F0F1FE04F1180004F0CC
S31508012590EDFECBF10E03A361246164624246314626
S315080125A0484602F0D1FA206007B13C6002F014FBFC
S315080125B0444A454E1368013313603368002B3ED0F5
S315080125C0424F3B681BB3DFF824814148E26A03683E
S315080125D00133036004F134012046FFF77FFE3D4BCA
S315080125E0E06A1A68904288BF186000EB800008EB21
S315080125F08000514604F0BEFE02F000FB3B681BB1A9
S315080126003368DB6AAB4222D30120BDE8F88F336811
S31508012610DFF8D880DB6AAB4298BF3460D5E740F271
S31508012620ED112D48FFF7A8FE4820FFF7D9FC04460F
S3150801263000287FF474AF4FF0FF30BDE8F88F34609F
S315080126401368DFF8A880012B1AD0204FBDE702F0E6
S315080126509FFA0120BDE8F88F4FF4F6711E48FFF77F
S315080126608BFE52E74846FFF7BBFC834620630028EA
S315080126707FF45DAF2046FFF71FFD4FF0FF30C4E73B
S31508012680474608F58C793846143704F063FE4F45FA
S31508012690F9D1DFF85CB0DFF85C900C4F584604F0CE
S315080126A059FE484604F056FE0C4804F053FE0C4801
S315080126B004F050FE0B4A0C4BC2F800B0C3F8009068
S315080126C083E700BFA00000209C000020C000002076
S315080126D0AC000020B000002098C10008149000202A
S315080126E028900020CC8E0020D08E0020D48E002089
S315080126F0EC8F002000900020F8B50446194E02F030
S315080127006BFA1CB3251D284604F05EFEA36A1BB1AD
S3150801271004F1180004F058FE134F2946384604F010
S3150801272029FE02F06BFA3368A34200D0F8BD0F4BBD
S315080127301B687BB90E4A39681268914208D00D4B5D
S315080127401B685BB10C4B01221A60F8BD3468D9E7E6
S315080127503360F8BDBDE8F84002F01ABABDE8F840A2
S31508012760FFF762BE9C00002028900020C0000020D0
S31508012770A0000020A8000020C800002010B50446CB
S3150801278068B10A4B62699A4201D0002010BDA06A5D
S31508012790074B9842F9D0B0FA80F0400910BD40F2D3
S315080127A059410448FFF7E8FDEBE700BF28900020F0
S315080127B01490002098C1000888B170B5174D2B6890
S315080127C083420BD0044602F007FA2046FFF7D6FFEC
S315080127D0012809D0BDE8704002F010BA70BD40F278
S315080127E07A410F48FFF7C8BD261D304604F0ECFDB7
S315080127F00C4AE36A11680C488B4288BF136003EBE5
S31508012800830300EB8300314604F0B4FD2B68E26ACA
S31508012810DB6A9A42DED302F0BBF9DBE79C000020B3
S3150801282098C10008B0000020D48E002030B585B0CC
S315080128300024144A0192CDE90244009423468022D9
S3150801284011491248FFF754FE01280BD005460DB170
S3150801285005B030BD0E4840F21F5105B0BDE8304005
S31508012860FFF78ABD00F07CFB01280546EFD102F08F
S315080128709BF9084A084B15601C6005B0BDE8304055
S3150801288002F024BAB400002090C10008C923010847
S3150801289098C10008C0000020C4000020024A13683D
S315080128A001331360704700BFA800002010B502F07D
S315080128B093F9034B1C6802F0A1F9204610BD00BF2D
S315080128C0C40000202DE9F04F4E4B1B6883B0002B46
S315080128D07BD14D4B1A6801321A601F680FB34B4BF7
S315080128E00193019B1B68BB4237D9DFF83C81DFF8AE
S315080128F03C910025D9F80030454ADB6A126803EB9A
S31508012900830358F82330022B28BF0125002A64D0F7
S31508012910404B1B68002B0CBF2846012003B0BDE8BD
S31508012920F08F3D4E33681B68002B64D13B4B3168F1
S315080129303B4A1868306019601368013313603368BD
S315080129401B68002B4CD1314B01931A464FF0FF33CC
S315080129501360019B1B68BB42C7D82F4EDFF8C8809E
S31508012960DFF8C890DFF8C8A0002525E03368DB68E2
S31508012970DC68636804F1040B9F42584638D304F0B7
S3150801298023FDA36A04F118000BB104F01DFDE36AE7
S31508012990DAF8002003EB83009342594608EB8000DE
S315080129A088BFCAF8003004F0E5FCD9F80030E26ABD
S315080129B0DB6A9A4228BF012533681B68002BD5D1EB
S315080129C0019A4FF0FF33136094E7114A13680133F4
S315080129D013600025FFF7BCFC9AE7FFF7B9FC97E7F8
S315080129E033680A4ADB680192DB685B68136078E73B
S315080129F0019A13607EE740F25B610A48FFF7BCFC67
S31508012A0094E700BFA8000020C4000020B8000020F9
S31508012A10A4000020C8000020CC8E0020D08E002003
S31508012A20BC00002098C10008D48E00209C0000201C
S31508012A30B00000202DE9F0472F4C2368002B51D018
S31508012A4002F0CAF82368013B23602368002B43D1AF
S31508012A502A4B1B68002B3FD0DFF8B4A0284E294F1C
S31508012A60DFF8B090DFF8B0801EE0F368DC68251D5A
S31508012A7004F1180004F0A8FC284604F0A5FCE36A52
S31508012A803A6803EB83009342294609EB800088BF25
S31508012A903B6004F06FFCD8F80030E26ADB6A9A42C0
S31508012AA024BF0123CAF800303368002BDDD1164C48
S31508012AB023686BB123685BB10125FFF703FF08B1F2
S31508012AC0CAF800502368013B23602368002BF4D120
S31508012AD0DAF80040012C0BD0002402F08FF82046CA
S31508012AE0BDE8F08740F25A510848FFF745FCA7E7C9
S31508012AF002F04EF8F1E700BFA8000020A000002070
S31508012B0014900020B0000020A400002098C10008FD
S31508012B10C8000020D48E00209C00002038B50C4641
S31508012B200546002836D03CB31F4920480A682B6859
S31508012B3001320A6001681C192CBF012000208B4252
S31508012B4022460DD860B32C60194B1868043004F07E
S31508012B503BFC2046FFF742FCFFF76CFF40B138BD4E
S31508012B60B0B1A1422C60EFD3FFF764FF0028F6D17C
S31508012B70BDE8384002F00CB840F2BF210D48FFF716
S31508012B80FBFB094909480B682A6801330B6003688E
S31508012B902A60E1E740F2BE210648FFF7EDFBC2E7EE
S31508012BA0A142D0D3F4E700BFA8000020C40000204A
S31508012BB09C00002098C10008044B1B680BB9FFF75D
S31508012BC033BC034B01221A60704700BFA8000020DE
S31508012BD0C800002070B50E460546C8B10F4C2168DD
S31508012BE02846183104F0D6FB2068043004F0ECFBC3
S31508012BF0731C06D00A4B18683044BDE87040FFF7CD
S31508012C00EDBB216807480431BDE8704004F0B2BB4A
S31508012C1040F265710448FFF7AFFBDFE79C0000202F
S31508012C20C40000202890002098C1000870B50E46FF
S31508012C30054680B10B4C21682846183104F09AFBE9
S31508012C402068043004F0C0FB074B18683044BDE81F
S31508012C507040FFF7C3BB40F29B710448FFF78CFB3A
S31508012C60E8E700BF9C000020C400002098C10008C6
S31508012C7038B5C368DC684CB304F11805284604F076
S31508012C80A3FB154B1B68E3B9251D284604F09CFBDD
S31508012C90124AE36A116812488B4288BF136003EB34
S31508012CA08303294600EB830004F064FB0D4BE26ABB
S31508012CB01B68DB6A9A4223BF0B4B01201860002070
S31508012CC038BD2946094804F055FBEFE740F2D171B2
S31508012CD00748FFF751FBCFE7A8000020B000002006
S31508012CE0D48E00209C000020C800002014900020EB
S31508012CF098C1000810B5044630B1064A064B126859
S31508012D001B68C4E9002310BD40F2F7710348FFF7B9
S31508012D1033FBF2E7BC000020C400002098C100087C
S31508012D20F8B50D46044658B38DB301F055FF2B6827
S31508012D301A4A581C11681ED0DFF868C0D4E9006029
S31508012D40DCF80070BE4201D081420FD20F1ABB4295
S31508012D500CD95B1ADCF80010126803442B600025B5
S31508012D60C4E9001201F04AFF2846F8BD012501F021
S31508012D7045FF2846F8BD002501F040FF2846F8BD65
S31508012D8040F601010648FFF7F7FA002DCDD140F6C6
S31508012D9002010348FFF7F0FAC7E700BFC4000020A5
S31508012DA098C10008BC000020014B01221A60704737
S31508012DB0C800002068B1036B1A78A52A4FF00000F5
S31508012DC00FD113F8012F0130A52A80B2F9D0800856
S31508012DD07047044B1868036B1A78A52A4FF0000050
S31508012DE0EFD070479C000020014B1868704700BF60
S31508012DF09C000020044B186828B1044B1B68002B63
S31508012E000CBF012002207047C0000020A800002046
S31508012E10B8B1F8B5164DC36A2A68D26A93420FD279
S31508012E202A68144ED26A416903EB830306EB8303CE
S31508012E30C2F10E029942826104D02B68DB6AC36231
S31508012E40F8BD7047071D0446384604F0BDFA2A68DE
S31508012E50094BD06A1A68E062904200D9186000EB03
S31508012E60800006EB80003946BDE8F84004F082BAD6
S31508012E709C000020D48E0020B0000020F0B138B5A7
S31508012E80C26A436C9A4218D0051D0446284604F0C6
S31508012E909BFA0B4A636C1168E362C3F10E008B421D
S31508012EA0A061084888BF136003EB8303294600EB3A
S31508012EB08300BDE8384004F05DBA38BD704700BFED
S31508012EC0B0000020D48E0020F8B50F4C01F084FE26
S31508012ED025681DB1BDE8F84001F090BE0B4F0C4EB8
S31508012EE0384604F037FA304604F034FA094A0A4BF0
S31508012EF017600C212A4606201E6004F041FB20605B
S31508012F00BDE8F84001F07ABED000002044900020C8
S31508012F10589000203C90002040900020914208B52E
S31508012F200061416005D88169D21A8A420CD3012011
S31508012F3008BD9A4201D29942F9D2074B011D186878
S31508012F4004F028FA002008BD044B011D186804F096
S31508012F5021FA002008BD00BF3C90002040900020C7
S31508012F6000B585B0FFF7B0FF0B4B1B685BB10023BB
S31508012F700222CDE90023CDE9023380220749084818
S31508012F80FFF7B6FA20B90748E021FFF7F5F900205F
S31508012F9005B05DF804FB00BFD0000020E0C10008C1
S31508012FA0D1300108BCC100082DE9F0410D46B1B187
S31508012FB08046282017461E46FFF712F8044658B1E0
S31508012FC0FFF782FF069BC4F80080C4E9065726620C
S31508012FD06362201D04F0CAF92046BDE8F0814FF46A
S31508012FE0847103482C46FFF7C7F92046BDE8F081EE
S31508012FF0BCC1000870B5134E346884B064B11D466F
S31508013000CDE90112039053B11A462046002301A9BE
S3150801301004F076FB04B070BD204604B070BDFFF71E
S31508013020E9FE012807D030682B462A4601A904F093
S31508013030CDFA04B070BD2B463068089A01A904F090
S31508013040C5FAE7E7D00000202DE9F0471D4DDFF866
S315080130507C8082B04FF0000A0DE0DB68DC681F68EF
S3150801306004F10409484604F0AFF9636A2046984713
S31508013070E369012B0AD02B681A68002AEDD1124A96
S3150801308011682960136002B0BDE8F087A6693E445D
S315080130900023B74219463A46204606D2666024619D
S315080130A02868494604F076F9E5E7CDF800A0FFF768
S315080130B0A1FF0028DFD140F282214046FFF75CF9E3
S315080130C0D9E700BF3C90002040900020BCC1000811
S315080130D02DE9F04FDFF874A15B4FDFF87481DFF853
S315080130E0749187B04FF0000BDAF800301D68002D97
S315080130F06DD0DB681D68FFF7D1FBFFF7D7FB3B688F
S31508013100834204466BD88542386073D9291BD8F89F
S31508013110000004F065FCFFF78DFC002867D000234A
S315080131201A4603A9D8F8000004F054FB0028DBD09E
S31508013130059C636913B1201D04F046F9FFF7B6FB38
S315080131403B689842054627D3039E3D60022E29D047
S31508013150032E31D0002EE2D1049BA1692A461944D7
S315080131602046FFF7DBFE0128D9D1636A2046984736
S31508013170E369012BD3D1A369049A00961A44204620
S3150801318033463146FFF736FF0028C8D140F22F21D2
S315080131904846FFF7F1F8C2E7FFF756FF039E3D6081
S315080131A0022ED5D10499A16151B1294420462B4655
S315080131B02A46FFF7B3FEB2E72046FEF77DFFAEE7E4
S315080131C04FF40F714846FFF7D7F8A169EDE7FFF706
S315080131D065FBFFF76BFB3B689842044605D2FFF790
S315080131E033FF3C60FFF726FC99E73C608EE701F068
S315080131F0CFFC94E7FFF71EFCDAF80030DB68DE68DF
S31508013200301D04F0E1F8F369012B03D0736A3046E7
S31508013210984784E7B169224629442B463046FFF789
S315080132207DFE0128F2D10023CDF800B02A461946C1
S315080132303046FFF7DFFE0028E8D14FF4AD71484666
S31508013240FFF79AF8E2E700BFCC0000203C90002087
S31508013250D0000020BCC100082DE9F043404E414D85
S31508013260414FDFF80891DFF8088189B000234FF054
S31508013270FF3201A9306804F0ADFA012805D0012210
S31508013280142142F2081001F0FBFA9DF80440012CC2
S3150801329005D90122142142F20C1001F0F1FA2B5D35
S315080132A0012BE3D19DF80530032B51D8DFE803F054
S315080132B03F2413029DF8043057F833201AB1012030
S315080132C090479DF8043007EBC3035B68002BCDD00C
S315080132D001209847CAE79DF8043057F833201AB1F8
S315080132E0002090479DF8043007EBC3035B68002B69
S315080132F0BCD000209847B9E79DF8043058F8334008
S3150801330044B1079B9DF8101003980DF11102A047CF
S315080133109DF8043008EBC3035C68002CA6D0079B14
S315080133209DF8101003980DF11102A0479EE79DF82C
S31508013330043059F833201AB1039890479DF80430A0
S3150801334009EBC3035B68002B90D0039898478DE778
S315080133500122142142F2091001F092FA86E700BF10
S31508013360A09000209C9000206C9000208C9000205A
S315080133707C9000202DE9F047414C424D424FDFF841
S315080133800C818CB0002600234FF0FF3206A9206875
S3150801339004F020FA012805D00122142142F207106F
S315080133A001F06EFA9DF81830012B41D89DF82020BE
S315080133B0082A43D8EB5C002B40D0DDF81C908DF829
S315080133C00E2019F0804348D18DF80D3072B10DF1F8
S315080133D02203013A53FA82F20DF10F010DF121038D
S315080133E013F8010B01F8010B9A42F9D14B46002B50
S315080133F03ADBCDE901368DF80C60CDF81C90FEF765
S3150801340035FF9DF8183003EB8303824601A957F867
S31508013410330001F0A9FE04282ED09DF8183003EBDD
S3150801342043030344504648F82390FEF721FFAAE7D1
S315080134300122142142F20C1001F022FA0123002282
S3150801344006A9206804F0C2F800289CD1012214219B
S3150801345042F2041001F014FA95E702238DF80D30B3
S3150801346029F08043002BC4DA23F000430422CDE976
S3150801347001638DF80C20C0E75046FEF7F9FEDDE73B
S31508013480B49000209C90002034C20008C09000200F
S31508013490F0B500EB8002174B53F8325089B0044659
S315080134A0002628464FF48061009601F061FF012845
S315080134B002D0009809B0F0BD0F4A8DF804400746BE
S315080134C0032410688DF8054033466A4601A904F0BD
S315080134D017F938B128464FF4806101F0B9FF009811
S315080134E009B0F0BD3A46142142F2061001F0C8F9B6
S315080134F0F0E700BF34C20008A09000202DE9F04390
S3150801350000EB8002534B8FB053F832608DF81C00E4
S315080135100546002430460221CDE9004401F028FF82
S3150801352001280AD00821304601F022FF0128054664
S315080135306BD000980FB0BDE8F083034621463046AC
S315080135408DF81D3001F0B4FE0446002848D0DFF896
S315080135501091DFF8108164270CE0029A09929DF810
S3150801356011204AB3099B43F080430993013C14F0A7
S31508013570FF0435D002AA0021304601F049FEFFF7C3
S3150801358095F959F825309DF810208DF8205007FB3C
S3150801359000F0A8FB0010C3EB90109DF812300D90B7
S315080135A08DF82830002AD8D0039A42F000420992B1
S315080135B09DF81120002AD5D1002BD7D0013B05AAA9
S315080135C052FA83F20DF129010DF1130313F8010BD8
S315080135D001F8010B9342F9D1013C14F0FF04C9D15A
S315080135E01D4A0023106807A901AA04F089F818B32F
S315080135F0019B3046012B4FF0020108BF009301F0F1
S3150801360027FF00980FB0BDE8F083134A23461068D8
S3150801361002246A4607A98DF81D4004F071F890B195
S3150801362030460E4901F08CFE3046082101F010FFA4
S3150801363000980FB0BDE8F0830122142142F206106A
S3150801364001F01EF9D4E72A46142142F2061001F0C8
S3150801365017F9E5E734C20008A090002010000032EF
S31508013660AC900020D34D62102DE9F04300EB8002A7
S31508013670534B8FB053F832608DF81C000546002471
S3150801368030461021CDE9004401F072FE01280AD026
S315080136904021304601F06CFE012805466BD00098A2
S315080136A00FB0BDE8F0830346014630468DF81D305C
S315080136B001F0FEFD0446002848D0DFF81091DFF836
S315080136C0108164270CE0029A09929DF811204AB3E9
S315080136D0099B43F080430993013C14F0FF0435D05C
S315080136E002AA0121304601F093FDFFF7DFF859F8E8
S315080136F025309DF810208DF8205007FB00F0A8FB17
S315080137000010C3EB90109DF812300D908DF82830FB
S31508013710002AD8D0039A42F0004209929DF8112056
S31508013720002AD5D1002BD7D0013B05AA52FA83F23C
S315080137300DF129010DF1130313F8010B01F8010B22
S315080137409342F9D1013C14F0FF04C9D11D4A002363
S31508013750106807A901AA03F0D3FF18B3019B3046E5
S31508013760012B4FF0100108BF009301F071FE00987C
S315080137700FB0BDE8F083134A2346106802246A464F
S3150801378007A98DF81D4003F0BBFF90B130460E49DD
S3150801379001F0D6FD3046402101F05AFE00980FB0DF
S315080137A0BDE8F0830122142142F2061001F068F8FF
S315080137B0D4E72A46142142F2061001F061F8E5E73A
S315080137C034C20008A090002010000034AC900020FC
S315080137D0D34D6210F0B500EB80022E4B53F83250F0
S315080137E089B00446002628460121009601F0C0FD4D
S315080137F0012802D0009809B0F0BD2749284601F0F2
S3150801380075FD01282ED02549284601F06FFD0128AE
S31508013810074633D02249284601F068FD012833D0EE
S3150801382040F2FE311F48FEF7A7FD04EB44031E4490
S315080138301D4A1E4B52F82610186803910026334676
S315080138406A4601A98DF804408DF808408DF805608F
S3150801385003F056FF58B12846012101F0F9FD0098F9
S3150801386009B0F0BD0C49284601F06AFDDDE70122E1
S31508013870142142F2061001F003F8ECE7074928463D
S3150801388001F05EFD3E46D0E70549284601F058FDA0
S315080138900226CAE734C200080100003800010038D0
S315080138A00000013808C20008C0900020A09000203E
S315080138B0F0B5384A384DDFF810C1384C384E394F13
S315080138C0308000230128C2E90033C2E90233C5E981
S315080138D00033C5E90233ACF80030C4E90033C4E962
S315080138E002339CBF02233380032939809CBF0421FC
S315080138F03980084685B000221C2103F041FE2A4B77
S31508013900186000283FD030880022182103F038FEBD
S31508013910264B186080B3264D2649274800230A22DC
S3150801392000920393CDE901538022FEF7E1FD0128B8
S3150801393005D00122142142F2021000F0A1FF1F4C0A
S315080139401F4920480023022200920393CDE901432F
S315080139508022FEF7CDFD012805D00122142142F26D
S31508013960031000F08DFF2868FEF7C6FE206805B033
S31508013970BDE8F040FEF7C0BE0122142142F2011053
S3150801398000F07EFFC7E7012214214FF4045000F02E
S3150801399077FFB8E76C9000208C9000207C9000207F
S315080139A0B8900020A4900020A0900020B490002098
S315080139B0A8900020E8C1000859320108BC900020EF
S315080139C0F8C10008753301089C9000202DE9F04FD5
S315080139D001288DB006460F46924600F2698100F02D
S315080139E05B8100230093D54B4FEA860909EB060450
S315080139F003EBC4040121606801F0EEFEA068012111
S31508013A0001F0D2FE6069012101F0CEFED4F80CB0B6
S31508013A1094F82050618A58462A4601F0AFFED4F838
S31508013A201880E18B2A4640460CAD01F0A7FE228A92
S31508013A3045F8242D022358464FF0010C29464FF02C
S31508013A40000B8DF810308DF811308DF813C08DF8F4
S31508013A5012B001F039FEA38B03932946404601F0C3
S31508013A6033FEA7F59C53B649083B8B4200F21C81ED
S31508013A70DAF80030B3F1005F80F01681DAF8043025
S31508013A80B3F1005F80F010819AF80830022B00F23A
S31508013A900B81AC49AC484FF00808A1F13F0C4546EB
S31508013AA043464FF0640E08E08C4500F0FD8091F81E
S31508013AB03C3091F83D5091F83E801D44EDB26B1CA7
S31508013AC04344DBB207FB03F4B0FBF4F4A2B203FBF5
S31508013AD002F31446013AB2F5806FA1F10301E3D26C
S31508013AE0B0FBF3F3DB1B0EFB03F3B3FBF7F313F0A6
S31508013AF0800F0CBF0122FF2213FB02F35BB2022BDC
S31508013B00D2DCFEF7B3FB09EB06038C4A019052F8A7
S31508013B103370384601F010FA013D05A801F016FB8D
S31508013B204FF0000B08F1FF388DF8185005A901254B
S31508013B3038468DF81980ADF814408DF81AB08DF80D
S31508013B401BB08DF81CB08DF81DB08DF81EB0ADF800
S31508013B5016B08DF81F5001F00DFA009B9AF80880EF
S31508013B605C19B8F1000F00F0FB80A84540F0A98068
S31508013B70DAE900219DF800308DF82A30C9000B0CCE
S31508013B80D20041F00401ADF8203008A8130C42F028
S31508013B9004028DF82BB08DF82C808DF82D80ADF8A8
S31508013BA028B0ADF82210ADF82430ADF8262001F082
S31508013BB055FA08A88DF82A40ADF8288001F04EFA82
S31508013BC0012E05D90122142142F20C1000F058FEEB
S31508013BD05A4BB14403EBC9090CAD99F8213005F8E4
S31508013BE0283D01240F22002328468DF809208DF847
S31508013BF00A308DF80B4000F065FF99F822308DF8F0
S31508013C000830284600F05EFF99F823308DF8083011
S31508013C10284600F057FF99F824308DF808302846D1
S31508013C2000F050FF22462146384601F055FB224650
S31508013C300221384601F050FB22461021384601F090
S31508013C404BFB22460821384601F046FB2246402115
S31508013C50384601F041FB22464FF48061384601F0AF
S31508013C603BFB3A4B9C55FEF721FE3949394A6423F9
S31508013C7003FB00F3A1FB03139B09019842F82630C5
S31508013C80FEF7F6FA344B1868FEF796FD334B1868BB
S31508013C90FEF792FD204608E001464FF0007001F05C
S31508013CA09BFD0E2300939EE600200DB0BDE8F08F24
S31508013CB00122142142F20C1000F0E2FD00230093C8
S31508013CC091E6DAE90021520142F00802490192B26D
S31508013CD089B29DF800308DF82A3008A8ADF824205D
S31508013CE0ADF82620ADF82010ADF822108DF82BB0CE
S31508013CF08DF82CB08DF82D50ADF828B001F0AEF93D
S31508013D00DAE90032D200DB004FEA124C190C42F014
S31508013D10040243F0040308A88DF82C508DF82A40B4
S31508013D20ADF82850ADF820C0ADF82220ADF8241022
S31508013D30ADF8263001F092F942E700BF34C2000817
S31508013D40B82E0F0084C2000880DE80029C900020F5
S31508013D50D34D6210AC900020A8900020BC900020A2
S31508013D60DAE900325B0143F0080352019BB292B2D1
S31508013D709DF800108DF82B8008A88DF82C808DF8F9
S31508013D802D508DF82A10ADF82880ADF82430ADF8FD
S31508013D902630ADF82020ADF8222001F05FF908A8F9
S31508013DA08DF82A40ADF8285001F058F908E700BF08
S31508013DB00128F8B504460E4606D8012931D81C4B08
S31508013DC01D5DCDB92846F8BD0122142142F20C1019
S31508013DD000F056FD012E05D90122142142F20510E3
S31508013DE000F04EFD0122142142F20C1000F048FDAC
S31508013DF00F4B1D5D002DE5D0FEF738FA04EB840460
S31508013E000C4B074653F834003EB101F061FA0546FA
S31508013E103846FEF72DFA2846F8BD01F055FA05464B
S31508013E20F6E70122142142F2051000F029FDC6E742
S31508013E309C90002034C20008F0B5012889B00646D6
S31508013E400F4615461C4605D90122142142F20C10CB
S31508013E5000F016FD8DF8086003978DF810505DB1D6
S31508013E60691E54FA81F1631E0DF1110213F8010F4F
S31508013E7002F8010B8B42F9D1184C206803F0A2FD18
S31508013E80174B1B88181A012814D92068002301AA80
S31508013E9002A903F035FC18B10124204609B0F0BD8A
S31508013EA00122142142F2041000F0EAFC0124204602
S31508013EB009B0F0BD30460121FFF77AFF044618B173
S31508013EC00024204609B0F0BD0122142142F2041053
S31508013ED000F0D6FC204609B0F0BD00BFB490002022
S31508013EE0B8900020012838B504460D4605D90122A7
S31508013EF0142142F20C1000F0C3FC074B53F834208E
S31508013F002AB103EBC402526802B138BD012202EBA1
S31508013F10440243F8225038BD8C900020012838B558
S31508013F2004460D4605D90122142142F20C1000F06F
S31508013F30A7FC074B53F834202AB103EBC402526895
S31508013F4002B138BD012202EB440243F8225038BDC2
S31508013F507C90002010B5FEF785F90020FFF7CEFA10
S31508013F600446FEF781F91CB1024B4FF080521A60E4
S31508013F7010BD00BF04ED00E010B5FEF773F900208F
S31508013F80FFF772FB0446FEF76FF91CB1024B4FF0BF
S31508013F9080521A6010BD00BF04ED00E010B5FEF7AF
S31508013FA061F90020FFF716FC0446FEF75DF91CB11E
S31508013FB0024B4FF080521A6010BD00BF04ED00E0BD
S31508013FC010B5FEF74FF90020FFF762FA0446FEF72F
S31508013FD04BF91CB1024B4FF080521A6010BD00BF5D
S31508013FE004ED00E010B5FEF73DF90120FFF786FA6A
