S02200002E2E2F48414E636F6465725F453430375F5454415F43687269732E73726563B4
S31508004000F4C50020816D01080000000000000000D2
S315080040100000000000000000000000000000000092
S31508004020000000000000000000000000113C01082C
S315080040300000000000000000AD3C0108FD3C01083E
S315080040400000000000000000000000000000000062
S315080040500000000000000000000000000000000052
S3150800406000000000ED490108000000000000000003
S315080040700000000000000000000000000000000032
S3150800408000000000000000000000000039300108B0
S31508004090F12F0108153001085D3001080000000005
S315080040A0D9490108C5490108B1490108A1490108CA
S315080040B08D49010879490108654901080000000091
S315080040C000000000000000000000000000000000E2
S315080040D00000000051530108695301088153010883
S315080040E0000000000000000049540108000000001C
S315080040F0514901083D4901082D4901080000000001
S3150800410000000000B1530108000000000000000094
S315080041100000000000000000000000000000000091
S31508004120000000000000000000000000B553010870
S31508004130000000001D4A010800000000C9300108FF
S3150800414081300108A5300108ED30010879540108CD
S31508004150000000000000000000000000995301085C
S315080041600000000000000000000000000000000041
S315080041700000000000000000000000000000000031
S311080041800000000000000000EE11AA5527
S3150800C000000100000101000001000101000000001C
S3150800C0106464640048414E636F6465725F453430FA
S3150800C020375F5454415F43687269735F736F667410
S3150800C0307761726549445F76315F3237303532331E
S3150800C0405F313632343437004170704374726C5441
S3150800C05061736B0048414E636F6465725F453430A7
S3150800C060375F5454415F43687269732E630000005A
S3150800C070200000000014024008000900200000000B
S3150800C0800014024010000E002000000000140240B8
S3150800C09020000F00200000000014024040000400A9
S3150800C0A02000000000140240800005002000000067
S3150800C0B0001402400001060020000000001402409F
S3150800C0C000020700200000000014024000040800D7
S3150800C0D0040000000008024001000A0004000000F5
S3150800C0E00008024004000C00414443636F6E766505
S3150800C0F07273696F6E5461736B0000002E2E2F6287
S3150800C1006C6F636B7365742F7274772F53544D334A
S3150800C110322F7372632F686561705F342E63000077
S3150800C120546D724370754C6F6164000049444C4508
S3150800C130000000002E2E2F626C6F636B7365742FE0
S3150800C1407274772F53544D33322F7372632F746181
S3150800C150736B732E630000002E2E2F626C6F636B59
S3150800C1607365742F7274772F53544D33322F73724D
S3150800C170632F74696D6572732E630000546D7220A7
S3150800C1805376630043616E4576656E745461736BCE
S3150800C1900000000043616E5472616E736D697454D9
S3150800C1A061736B002E2E2F626C6F636B7365742F31
S3150800C1B07274772F53544D33322F7372632F53543F
S3150800C1C04D33325F453430372F63616E2E6300007E
S3150800C1D0006400400000000208000000000C024055
S3150800C1E00100000008000000000C024002000100E7
S3150800C1F0091314151600000000680040000000042A
S3150800C20002000000000402402000050002000000B1
S3150800C2100004024040000600093F40414200000079
S3150800C22001010201020202020203020204020203DF
S3150800C23003030403030503030603030504040604B2
S3150800C2400407040408040407050508050508060587
S3150800C2500807050807060808060808070808080062
S3150800C260457643686E6C3100457643686E6C3200DD
S3150800C270457643686E6C33002E2E2F626C6F636BA7
S3150800C2807365742F7274772F53544D33322F73722C
S3150800C290632F53544D33325F453430372F6D616306
S3150800C2A02E6300002E2E2F626C6F636B7365742FDE
S3150800C2B07274772F53544D33322F7372632F53543E
S3150800C2C04D33325F453430372F706F72742E6300EA
S3150800C2D000000140010000000201000010000000FB
S3150800C2E00010024000020900100000000010024081
S3150800C2F000080B00000400400200000001020000D4
S3150800C3000100000000000240400006000200000094
S3150800C3100004024020000500000800400400000058
S3150800C3200102000008000000000C024000100C008A
S3150800C33008000000000C024000200D000004014027
S3150800C340020000000203000004000000000802408A
S3150800C35040000600040000000008024080000700B4
S3150800C3600000014001000000020119000000004021
S3150800C3700100000001021C00000400400200000049
S3150800C38001021D00000800400400000001021E0012
S3150800C390000401400200000002012C000040014098
S3150800C3A000000100020118000044014000000200DC
S3150800C3B002011900004801400000040002011A00A9
S3150800C3C0001C00408000000001022C0000200040F4
S3150800C3D00001000001022D000400000000080240D0
S3150800C3E00100000020000000001402404000000088
S3150800C3F02000000000140240800000002000000019
S3150800C4000014024000010000200000000014024051
S3150800C4100002000020000000001402400004000092
S3150800C4200200000000040240800000000200000034
S3150800C4300004024040000000100000000010024006
S3150800C4400400000010000000001002401000000068
S3150800C450100000000010024020000000100000003C
S3150800C4600010024040000000400000000018024092
S3150800C4708000000040000000001802400001000093
S3150800C48040000000001802400010000040000000B4
S3150800C4900018024000800000010000000000024071
S3150800C4A01000000002000000000402402000000006
S3150800C4B001000000000002404000000001000000EA
S3150800C4C0000002402000000008000000000C0240A6
S3150800C4D00100000008000000000C024002000000F5
S3150800C4E008000000000C02400400000008000000DC
S3150800C4F0000C02400800000008000000000C024082
S3150800C5001000000008000000000C02402000000097
S3150800C51008000000000C024040000000080000006F
S3150800C520000C02408000000008000000000C0240D9
S3150800C5300001000008000000000C02400002000094
S3150800C54008000000000C024000040000080000007B
S3150800C550000C02400008000008000000000C024021
S3150800C5600010000008000000000C02400020000037
S3150800C57008000000000C024000400000080000000F
S3150800C580000C02400080000010000000001002406D
S3150800C5900100000010000000001002400200000028
S3150800C5A01000000000100240080000001000000003
S3150800C5B00010024080000000100000000010024039
S3150800C5C000010000100000000010024000020000F8
S3150800C5D010000000001002400004000010000000D7
S3150800C5E00010024000080000100000000010024081
S3150800C5F0001000001000000000100240002000009B
S3150800C600100000000010024000400000100000006A
S3150800C61000100240008000002000000000140240C4
S3150800C6200100000020000000001402400200000083
S3150800C6302000000000140240040000002000000052
S3150800C6400014024008000000200000000014024008
S3150800C6501000000020000000001402402000000026
S3150800C660200000000014024000080000200000001E
S3150800C67000140240001000002000000000140240D0
S3150800C68000200000200000000014024000400000C6
S3150800C6902000000000140240008000004000000056
S3150800C6A00018024001000000400000000018024087
S3150800C6B002000000400000000018024004000000CC
S3150800C6C0400000000018024008000000400000007A
S3150800C6D00018024010000000400000000018024048
S3150800C6E02000000040000000001802404000000042
S3150800C6F04000000000180240000200004000000050
S3150800C7000018024000040000400000000018024023
S3150800C7100008000040000000001802400020000049
S3150800C7204000000000180240004000000100000020
S3150800C7300000024001000000000001400100000066
S3150800C74002011B00000000400100000001021C005D
S3150800C750000400400200000001021D00000800401D
S3150800C7600400000001021E0000040140020000004F
S3150800C77002012E00004001400000010002011800DD
S3150800C780004401400000020002011900004801406F
S3150800C7900000040002011A00001C0040800000008E
S3150800C7A001022C00002000400001000001022D00BB
S3150800C7B01000000000100240000200000200020003
S3150800C7C001000900100000000010024000080001E6
S3150800C7D00400200001000B001000000000100240B9
S3150800C7E0002000020800000201000D0010000000F1
S3150800C7F000100240004000031000002001000E0057
S3150800C80001000000000002402000010002000200B2
S3150800C810010005000100000000000240400002007F
S3150800C82002000200020006000200000000040240A6
S3150800C8302000020104002000020005000800000094
S3150800C840000C0240001003000200020002000C0067
S3150800C85008000000000C024000200301040020002C
S3150800C86002000D0004000000000802404000040019
S3150800C870020002000300060004000000000802404F
S3150800C88080000401040020000300070010000000D7
S3150800C8900010024020000500020002000300050007
S3150800C8A010000000001002404000050104002000AE
S3150800C8B003000600200000000014024040000600A5
S3150800C8C002000200030006002000000000140240D7
S3150800C8D08000070002000200030007002000000095
S3150800C8E000140240000108000200020009000800C6
S3150800C8F020000000001402400002090002000200A5
S3150800C900090009000010014010000000022500007F
S3150800C9100200000000040240400006000200000079
S3150800C92000040240800007000700000000440040A1
S3150800C930000002000126000008000000000C02406A
S3150800C9402000050008000000000C02404000060018
S3150800C950070000000048004000000400012700000E
S3150800C96008000000000C0240000108000800000052
S3150800C970000C0240000209000700000000140140F4
S3150800C98020000000024700000400000000080240E2
S3150800C990400006000400000000080240800007006E
S3150800C9A00800000056435020436F6E666967000012
S3150800C9B056435020496E74657266616365000000CF
S3150800C9C053544D6963726F656C656374726F6E69F3
S3150800C9D06373000053544D3332205669727475617F
S3150800C9E06C20436F6D506F727420696E2048532017
S3150800C9F06D6F64650000000053544D33322056694C
S3150800CA00727475616C20436F6D506F727420696E15
S3150800CA10204653204D6F64650000000030303030EA
S3150800CA2030303030303530420000000030303030A1
S3150800CA30303030303035304300000000000001400F
S3150800CA400100000002011B00000000400100000078
S3150800CA5001021C00000400400200000001021D0043
S3150800CA60000800400400000001021E000004014006
S3150800CA700200000002012E000040014000000100F3
S3150800CA8002011800004401400000020002011900DA
S3150800CA90004801400000040002011A00001C004082
S3150800CAA08000000001022C00002000400001000068
S3150800CAB001022D00100000000010024000020000D4
S3150800CAC002000200010009001000000000100240E8
S3150800CAD0000800010400200001000B0010000000FF
S3150800CAE000100240002000020800000201000D00AC
S3150800CAF01000000000100240004000031000002053
S3150800CB0001000E00010000000000024020000100A4
S3150800CB1002000200010005000100000000000240BA
S3150800CB2040000200020002000200060002000000A7
S3150800CB300004024020000201040020000200050053
S3150800CB4008000000000C024000100300020002006A
S3150800CB5002000C0008000000000C0240002003013F
S3150800CB600400200002000D00040000000008024036
S3150800CB704000040002000200030006000400000052
S3150800CB80000802408000040104002000030007009A
S3150800CB9010000000001002402000050002000200FC
S3150800CBA003000500100000000010024040000501C7
S3150800CBB004002000030006002000000000140240C4
S3150800CBC040000600020002000300060020000000E4
S3150800CBD0001402408000070002000200030007005C
S3150800CBE020000000001402400001080002000200B4
S3150800CBF00900080020000000001402400002090095
S3150800CC0002000200090009002E2E2F626C6F636B6A
S3150800CC107365742F7274772F53544D33322F737292
S3150800CC20632F71756575652E6300000004040400A2
S3150800CC3040CC000848CC000850CC0008070707007D
S3150800CC40457643686E6C3100457643686E6C3200F3
S3100800CC50457643686E6C330050505068
S315080100000B78FF2B00D070474B78002BFBD101F002
S315080100107FB900BF08B5012000F086FCBDE808409D
S31508010020024A40F26761002003F0C8B901000108DD
S3150801003000F052B8704700BF2DE9F0411E4C1F4A27
S31508010040E3781F4D13702A890BB1013292B21D490B
S315080100502B7B0A801C491D4E0B7003EB8303B2EB05
S31508010060430F2A81ACBF4FF001084FF0000814DB9B
S31508010070B37A012B11D0164B6F7BD3E9000108F037
S31508010080B1FFC0B2B84288BF7B1C124A8CBFDBB233
S3150801009001236B73137000232B81072086F80A80CE
S315080100A005F04CFC00F57A7081B221800322BDE887
S315080100B0F041072005F096BB500200202D020020D2
S315080100C0600200204A0200208B02002080020020E4
S315080100D0300000208C0200202DE9F04F2DED088B11
S315080100E0C54C85B0D4E900010022002308F048FF79
S315080100F0002840F03A82637D002B40F00682BF4912
S315080101000022D1E90001002308F03AFF002840F057
S31508010110C181E77B002F00F0FA81237C0127B946CC
S31508010120002B00F0BD81B64BB64D19680122A274A9
S31508010130002200922B46104603F0FCF8002840F3F3
S315080101402482B14E2B782373B371B04D2B78012BD2
S3150801015001D000232381003818BF0120637C287051
S3150801016004201844AA4B1A181B5C127A727133714F
S315080101706374B9F1000F40F09C813379003B18BFD5
S315080101800123F370A34B1B78002B00F09981DFF84C
S31508010190A4B2DFF8A4A29BF800809AF80030039372
S315080101A007EE908AF8EEE77AF0EE006A07EE103A63
S315080101B0F4EE667A0123F1EE10FAB8EEC77AE37423
S315080101C040F0A781F7EE006AB4EE667AF1EE10FA0E
S315080101D040F0E481237F0BB1002323776B7A012B4F
S315080101E000F09C818C4B8D4A002011681870012201
S315080101F002F070FE9BF800809AF80030039307EE30
S31508010200908AF8EEE77AF0EE086A07EE103AF4EE0D
S31508010210667A0123F1EE10FAB8EEC77A6B7200F02E
S315080102208681E37E002B40F0D7810023B8F1010FC8
S315080102302B7200F0F081237D002B00F0A1810023B1
S31508010240DDED038A237508EE108AB8EEC88AF1EE49
S31508010250087AB4EE678AF1EE10FAF8EEE88A40F009
S315080102604582F0EE007AF4EE678AF1EE10FA40F074
S31508010270D682A37E002B40F0AA82F0EE68AAF0EEA1
S31508010280489A637E002B40F0A982B0EE6ABAB0EEB6
S31508010290699AF2EE007AB4EE679AF1EE10FA40F036
S315080102A04382F1EE007AB4EE67BAF1EE10FA40F045
S315080102B0EE82237E002B40F09882F0EE4BBAB0EE28
S315080102C049AAE37D0BB10023E375B8F1010F00F0EC
S315080102D05382534A00231370F1EE087AB4EE678A03
S315080102E0F1EE10FAEB7140F0BD81F0EE007AF4EE12
S315080102F0678AF1EE10FA40F0B581AB79012B08D087
S31508010300454B484A002011681870012202F0E2FDA7
S315080103100123F1EE0C7AF4EE679AF1EE10FAAB715D
S3150801032040F09E81F0EE087AF4EE67AAF1EE10FA33
S3150801033040F096816B79012B08D0374B3A4A002059
S3150801034011681870012202F0C5FD0123F2EE007A48
S31508010350B4EE679AF1EE10FA6B7140F07F81F1EE17
S31508010360007AB4EE67BAF1EE10FA40F077812B798C
S31508010370012B08D0284B2D4A00201168187001223C
S3150801038002F0A8FD0123F2EE027AB4EE67AAF1EEB5
S3150801039010FA2B7140F06081F1EE047AF4EE67BA37
S315080103A0F1EE10FA40F05881EB78012B08D01A4B80
S315080103B01F4A002011681870012202F08BFD0123E3
S315080103C0EB709BF8003007EE903A9AF80030F8EE99
S315080103D0E77AF1EE006A07EE103AF4EE667AF1EE84
S315080103E010FAB8EEC77A00F03F81A37D0BB100235E
S315080103F0A3750023AB7021E06002002008000020ED
S31508010400180000203002002050020020800200203F
S3150801041000C000082D020020400200201000002024
S315080104202C020020200000202400002028000020A3
S315080104302C0000208C02002038000020B9F1000FA2
S3150801044007D06B78012B04D0954B00221B782281AB
S31508010450237308206F7004F0FFFB924A03460920B4
S315080104601370237404F0F8FB8F4BE073187000F0D7
S3150801047051FF8E4B187000F053FF8D4B02468D4885
S315080104801A6000F04FFF8C4B186005B0BDEC088B65
S31508010490BDE8F08F0027B946237C002B7FF443AED5
S315080104A0A27C864E02B1A374854DB9F1000F3FF4C3
S315080104B064AE0123F370834B1B78002B7FF467AE80
S315080104C0E27C002ABAD0227F02B12377E37E0BB100
S315080104D00023E376237D0BB100232375A37E0BB19D
S315080104E00023A376637E0BB100236376237E0BB1CB
S315080104F000232376E37D0BB10023E375A37D0BB1BE
S315080105000023A3750023E37498E76075F7E5B946F8
S31508010510C2E7237F002B40F09C800023F0EE086A97
S31508010520F4EE667AF1EE10FA6B727FF47AAEF7EEB4
S31508010530007AB4EE677AF1EE10FA50D0624BDFF822
S31508010540A881196800220123E376009243461046E2
S3150801055002F0F0FE002802DD98F8003033739AF8AD
S3150801056000309BF8008003935FE6584F002601216F
S3150801057003220720C4E90067617505F033F9BEE572
S31508010580DDED038A08EE108A5FE64C4EB3792373D4
S315080105907FF4DBAD4A4D637C2870E2E52377DFF80B
S315080105A048814B4B0022196800924346104602F0D7
S315080105B0C1FE002802DD98F8003073739AF80030FE
S315080105C09BF80080039307EE908A07EE103AF8EE3F
S315080105D0E77AB8EEC77AA0E70023E37625E6E37E55
S315080105E0002B40F08A812B7A012B3FF41FAE394B41
S315080105F0354A002011681870012202F06BFC9BF83D
S3150801060000809AF800300393B8F1010F4FF0010307
S315080106102B727FF410AE039B012B00F05D812E4AED
S315080106202E4B116884F8148000220092104602F0BD
S3150801063081FE0028294B40F346811A789BF8003041
S3150801064008EE103A9AF8003008EE903A244B1A70E0
S31508010650FBE50023237760E70023B1E6002392E652
S31508010660002373E6002354E6F7EE007AB4EE677AC0
S31508010670F1EE10FA40F0C080A37D0BB10023A375FB
S31508010680AB78012B3FF4B6AE164B1968114B002017
S315080106901870012202F01EFC0123AB70CEE600BFE2
S315080106A0390000204D0200204C02002020020020C3
S315080106B02402002048C00008280200205002002019
S315080106C0800200202D020020140000200000F03FC7
S315080106D010000020400200201800002030020020EF
S315080106E0480200201C00002038020020A37E002BAF
S315080106F06DD1F0EE68AAF0EE489AF1EE0C7AF4EEB6
S31508010700679AF1EE10FA7FF4BCADF0EE087AF4EED2
S3150801071067AAF1EE10FA40F09E80637E002B5DD148
S31508010720B0EE6ABAB0EE699A237E002B5DD1F0EE7F
S315080107304BBAB0EE49AAF2EE027AB4EE67AAF1EE26
S3150801074010FA7FF4BEADF1EE047AF4EE67BAF1EE73
S3150801075010FA3FF4B6AD6A4B002201201968E0751C
S31508010760684B0092104602F0E5FD0028654B7FF7BD
S31508010770ACAD1B783372A8E5039B012B7FF4A9ADB9
S31508010780DFF89C81039B88F80030EB79012B3FF455
S31508010790A3AD5D4B039A5A70DFF888C16289ACF83C
S315080107A00020013262815949227B1A700020B270F9
S315080107B04FF080725A6058800968082202F08AFB55
S315080107C098F8003088E5F7EE008AB0EE688A0023CB
S315080107D0F0EE68AAF0EE489AA3768EE70023B0EE0B
S315080107E06ABAB0EE699A637653E50023F0EE4BBA1E
S315080107F0B0EE49AA23769EE7454BDFF808811968CA
S3150801080000220123A37500924346104602F092FD89
S3150801081000287FF7EEAD98F80030F371E9E53D4B16
S31508010820002201201968A076364B0092104602F084
S3150801083081FD0028334B01DD1B78F3729BF80030EC
S3150801084009EE903A9AF800300AEE903AF8EEE99AEB
S31508010850F8EEEAAA51E7304B0022012019686076C2
S31508010860284B0092104602F065FD0028254B01DD54
S315080108701B78B3729BF8003009EE103A9AF80030EB
S315080108800BEE103AB8EEC99AB8EECBBA01E5234B8E
S3150801089000220120196820761A4B0092104602F0B0
S315080108A049FD0028174B01DD1B7873729BF8003050
S315080108B00AEE103A9AF800300BEE903AB8EECAAA48
S315080108C0F8EEEBBA37E79BF8003008EE103A9AF8DB
S315080108D0003008EE903AB8E4237D002B7FF4AFACE4
S315080108E0A37E002B7FF46FAFF7EE00AAF0EE6A9AAB
S315080108F0F0EE6A8AB0EE6A8AC3E40023E37672E60A
S315080109002C00002038020020400200201800002098
S315080109101C000020200000202400002028000020C0
S315080109202C0200208E02002010B5082184B0402038
S3150801093002F00CF8374C002002F088FC36490320F7
S3150801094004F094FE2168002002F0C8FC3349072010
S3150801095005F022F8324B0020196802F0BFFC314B32
S315080109600020196802F0BAFC2168002002F0B6FCE2
S315080109702D4B0020196802F0B1FC2C4B0020196898
S3150801098002F0ACFC2A4B0020196802F0A7FC294B9F
S315080109900020196802F0A2FC274B0020196802F012
S315080109A09DFC0221082004F021F90221092004F006
S315080109B01DF94FF4197000F0B9FA42F2107000F0FF
S315080109C0A9FA4FF47A7000F031FA00201B498DF824
S315080109D00C0001AACDE9010002F046F8012804D06D
S315080109E0174840F2AE4100F015FD1649032004F000
S315080109F0C1FF02F097FD02F09FFD134B4FF0013244
S31508010A0040F201100121C3E900221881997204B04C
S31508010A1010BD00BF1800002040420F003900010830
S31508010A2010000020140000202000002024000020CF
S31508010A30280000202C0000201C00002090D0030074
S31508010A4054C000083500010880020020454B1B7878
S31508010A50012B00D070472DE9F041434A1378012B49
S31508010A6096B005D0414803F087FA16B0BDE8F08183
S31508010A703F4E0024334614705A78E5B203331AB14F
S31508010A8001340A2CF8D125463A4803F061FD4FF0A6
S31508010A9080603949394A07904FF480634FF4006002
S31508010AA008914FF4005100270B94099201244FF441
S31508010AB080720D930E904FF480330F912D4810924A
S31508010AC007A911930A970C971297CDE914771394EE
S31508010AD003F0D4FD2146274803F0FCFD03F0C8F9CD
S31508010AE001A9224801978DF808408DF80970CDE9CA
S31508010AF0037705978DF8185003F0C8F9BDB1013D84
S31508010B00EDB2DFF88080194F023504EB4402324416
S31508010B10032312F8032C02EB420208EB8201384642
S31508010B20E2B2897A013403F0E1F9AC42EDD1002051
S31508010B3003F0DAFD012003F0E5FD012003F0F0FDE5
S31508010B400F4A0A48136843F400531360012103F05E
S31508010B5023FA0121054803F015FA0121034803F098
S31508010B60BBF97FE741000020400000200022014038
S31508010B7090020020106402404C220140B00200207D
S31508010B800070004070C000082DE9F04FA34B1B68A8
S31508010B9097B0002B00F0F180A14B019303F11E09D8
S31508010BA09F4DCDF8009004E0009B03359D4200F06F
S31508010BB0B880AB78002BF7D06B78002BF4D0994B23
S31508010BC01B78002BF0D0954A95F800801768013BF1
S31508010BD0DBB207F14C064C2212FB0369AA4604E074
S31508010BE0B145374600F097804C3639784145F7D1FB
S31508010BF0019B002404E001340A2C03F1030305D008
S31508010C005A78012AF7D11A788A42F4D14C22394600
S31508010C1003A808F007FAB86C049A7D6CC30602F0BB
S31508010C2078418B4200F08E804FF0000C9B4600E025
S31508010C308C460CF10101C9B216AB03EB810353F8DB
S31508010C40483C03F0784EF345F2D10CF1020C0B291E
S31508010C509E465FFA8CFC5B4669D90E2910D80FFAB5
S31508010C608CF103AA02EB810100E094464A6841F837
S31508010C70042BBCF10E0F0CF10102D2B2F5D9049A7C
S31508010C80694931F814C022F07842CCF30B0C6FF0A5
S31508010C9078419445139160D900240134E4B216AA27
S31508010CA002EB8402A64652F8482C22F07842944573
S31508010CB0F3D80B2C38D8032C0F9A98BF079922F032
S31508010CC07842A5EB020296BF21F078410CEB0205AA
S31508010CD08D18C4F10E0412AAE4B2A2EB840413AA75
S31508010CE052F8041D51609442FAD1441C16AA102CDC
S31508010CF002EB8E0E28BF002443EA0C03384603A9EB
S31508010D004C224EF8483CCDE9145408F08BF9B1450C
S31508010D1037467FF469AF5546009B03359D427FF4FC
S31508010D2048AF17B0BDE8F08F0E2CD2D9DDE7109A7F
S31508010D30032922F0784215441AD92EF0784EA5EBEC
S31508010D400E058CE7109A089922F07842154421F08D
S31508010D5078416D1A4FF0010C81E70F9A079922F035
S31508010D607842AD1A21F0784100240D44A646B0E731
S31508010D70089921F078416D1A71E72A4E337803EB09
S31508010D80C30203EB4203980000F078F9234B80462F
S31508010D901860234B002837D01A4601931546034697
S31508010DA002F11E0914AC212703E003354D453FF432
S31508010DB0F7AEAA78002AF8D095F800C004A900224F
S31508010DC041F8042BA14202F10062F9D14C2203A990
S31508010DD018468DF80CC0149708F024F9327802EBFE
S31508010DE0C201034602EB41024C3308EB82029342ED
S31508010DF0DBD90122142142F2030002F08FFD074BD1
S31508010E00186800F0A7F9CBE60122142142F2020084
S31508010E10019303F11E0902F081FDC1E6C402002017
S31508010E209002002002000020B0020020034A044B71
S31508010E30A2FB002040091860704700BF1F85EB51CF
S31508010E403C00002000B583B000F07EFD02AC084EE0
S31508010E5044F8040D074D03E02968204600F0ACFE6E
S31508010E60FFF7F4FD3378002BF6D0FFF78DFEF3E795
S31508010E70020000203C00002008B5FFF7E7FD044BFF
S31508010E801B781BB1BDE80840FFF77EBE08BD00BF51
S31508010E900200002000B583B000F056FD02AC054DF6
S31508010EA044F8040DFFF7C4F82968204600F084FECB
S31508010EB0F8E700BF4400002010B584B0002400F014
S31508010EC03FF802F009FDFFF7A5F8FFF7D5FF052260
S31508010ED023460092CDE90244019480220849094833
S31508010EE000F054FB084B039406211A880748009121
S31508010EF0029401942346064900F048FB04B010BD4C
S31508010F00E8C00008450E010848000020950E0108B2
S31508010F1048C00008034A044BA2FB00204009186098
S31508010F20704700BF1F85EB514400002080087F28C9
S31508010F30024B96BF802218801A807047480000200D
S31508010F4000F000B8074BC3F1006101F5004103F554
S31508010F5000605A5C03F8012B8342FAD1024B002246
S31508010F601A707047CC020020C8020020C1F5006340
S31508010F700133984218DA0144884215DADFF834C099
S31508010F80F0B40B4C9CF800600025FF27225CFF2A71
S31508010F9000F1010302D0012527542E4698B2884252
S31508010FA0F4DB15B9F0BC704770478CF80060F9E7B7
S31508010FB0CC020020C802002040F2FC73984210B50A
S31508010FC002D90024204610BD044600F09DF9034BC2
S31508010FD01C5900F09BF9204610BD00BFCC02002029
S31508010FE0F8B540F2FC73984200D9F8BD0446094E9B
S31508010FF00D4600F089F9375900F088F9BD42F4D059
S3150801100000F082F9355100F081F9034B01221A707B
S31508011010F8BD00BFCC020020C802002010B4154A52
S3150801102000E01A4613688342FBD351685418A0425C
S315080110300AD041684418A3420DD0904203605DF876
S31508011040044B18BF106070474068014410464418A5
S31508011050A3425160F1D1084C2468A342EDD0D3E9EB
S31508011060003490422144036041605DF8044B18BF87
S3150801107010607047CC8A00204C0000202DE9F04111
S31508011080044600F059FC2E480268002A39D02D4B37
S315080110901F683C422FD174B304F108014B071CBFEA
S315080110A021F00701083131B3DFF8A080D8F80060D4
S315080110B08E4220D3244D2C6803E0226822B12546AE
S315080110C0144663688B42F8D30268A24213D0226899
S315080110D028682A605A1A102A00F1080528D8F61A2B
S315080110E000223B43C4E90023C8F8006000F0F0FC85
S315080110F02846BDE8F081002500F0EAFC2846BDE84F
S31508011100F081124F124B396823F0070347F6F07541
S315080111105E190839726039605A510A490660C3E98D
S315080111200065094D4FF000472B606A600F60B0E714
S31508011130631818465A606160FFF770FF6368CEE767
S315080111404C00002050000020CC8A002054000020CA
S31508011150D40A002000283AD038B51D4D50F8043C71
S315080111602A681342044610D050F8081CD9B14FF426
S315080111708671184800F04EF92A6854F8043C13425F
S3150801118002D054F8081C71B138BD40F20B11114850
S3150801119000F040F954F8083C002BE8D12A6854F8C5
S315080111A0043C1342F0D023EA020344F8043C00F05D
S315080111B0C3FB094A54F8043C1168A4F108000B441E
S315080111C01360FFF72BFFBDE8384000F081BC70477C
S315080111D050000020FCC0000854000020014B18688C
S315080111E0704700BF540000200C490D484B6830B4C5
S315080111F0C3F5C332A032642303FB02F3094D0A4C3B
S315080112005B09A5FB03230278C3F3C7139A4223702C
S3150801121038BF037000234B6030BC7047DC8A00205E
S31508011220D58A0020C55A7C0AD48A002070B50D4695
S31508011230064607F0E5FF0446284607F0E1FF844223
S3150801124001D0002070BD6CB132782B789A42F8D162
S31508011250002303E0F15CEA5C9142F2D10133DBB28F
S315080112609C42F7D8012070BD00B51D4D1D481E4B87
S3150801127083B000240093012204602C706C602C72E8
S31508011280234642F210711948194D00F0DBFE286019
S31508011290F0B10446174A184B002515701D7000F069
S315080112A053FB009502462B462046294600F0F0FEE0
S315080112B0012805D0012214214FF4805002F02EFB9B
S315080112C00E4B00221A60FFF7F7FD00F0FDFAFEE764
S315080112D0012214214FF4805002F020FB2C68D9E733
S315080112E0DC8A0020E88A0020E911010820C10008EB
S315080112F0D88A0020D48A0020D58A002058000020E8
S31508011300704700BF704700BF02F09CBC02F0C0BC2A
S3150801131003F0AABB014B1878704700BFD48A002096
S31508011320FFF75CBF70B5054602F08CFC114B1C68D3
S315080113308CB106462946A068FFF778FF012805D132
S315080113400DE0A068FFF772FF012808D02469294635
S31508011350002CF6D1304602F09BFC204670BD64682D
S31508011360304602F095FC2046002CF7D000F070FDBF
S31508011370800070BDE88A00202DE9F04180461420DE
S315080113800F461446FFF77AFE054628B30023C5E93A
S315080113900343C5E9018702F055FC134E074602F0DF
S315080113A051FC346802460CB90DE01C462369002B32
S315080113B0FBD1104602F06CFC256138462C60BDE86D
S315080113C0F04102F065BC02F063FC2C6035603846DA
S315080113D0BDE8F04102F05CBC012214214FF48050B3
S315080113E002F09CFAD2E700BFE88A0020074A138870
S315080113F001339BB2092B138005D905490B680020D7
S3150801140001330B60108003F051BA00BF5C00002065
S3150801141058000020012214214FF4805002F07EBAB0
S31508011420054B1A78012A00D070471A7A002AFBD18F
S315080114305A6801325A607047DC8A002008B502F002
S3150801144001FC044B0121002219701A72BDE80840FB
S3150801145002F01EBCDC8A0020014B00221A7070477C
S31508011460DC8A002008B5034C2368012BFDD902F05C
S31508011470DDFBF9E7F48A00200D4B0E4A196812685C
S31508011480486082420DD80C4A10B50446106819689E
S31508011490043104F005FD094B1A68A24288BF1C6095
S315080114A010BD074A10681968043104F0F9BC00BF79
S315080114B06000002088000020EC8A00207C000020C3
S315080114C0F08A00202B4B2DE9F0410022DFF8B88085
S315080114D0294E1A60D8F8002033689A4247D0D8F8BE
S315080114E00020D8F8003012681B6B9A4233D9234C76
S315080114F0234D236803EB830355F823309BB9214F0A
S3150801150008E02368013B2360236803EB830355F84E
S31508011510233043B92368002BF3D140F25271384680
S31508011520FFF778FFEDE7236803EB83039B00E918D0
S3150801153008334A6852684A601D44AA4204BF526881
S315080115404A60D368C8F80030D8F8002033689A4250
S3150801155009D0BDE8F081D8F80000D8F80010343178
S3150801156004F00AFCC3E7BDE8F041FFF767BFFFF7E0
S3150801157073FFB4E78C000020780000207400002077
S31508011580F48A002034C10008600000202DE9F84FD4
S31508011590DDF830B08A4691469846DDE90A5706468F
S315080115A0002800F0A7800D2D00F287804820FFF75C
S315080115B065FD0446002800F08C804FEA8909BBF1D5
S315080115C0000F00F09D80C0F830B04A46A521584664
S315080115D007F0C2FD236BA9F10409994429F007090B
S315080115E00AF1FF330AF10F0104F1330201E08B42DC
S315080115F007D013F9010F02F8010F93F9000000282B
S31508011600F5D10D2D4FF00003AB4604F1040A28BFAE
S315080116104FF00D0B84F843305046C4F82CB0C4F88B
S3150801162044B004F029FC04F1180004F025FCCBF1C0
S315080116300E03A3612461646242463146484602F0BC
S31508011640D1FA206007B13C6002F014FB444A454ECA
S315080116501368013313603368002B3ED0424F3B6851
S315080116601BB3DFF824814148E26A0368013303604A
S3150801167004F134012046FFF77FFE3D4BE06A1A6804
S31508011680904288BF186000EB800008EB8000514645
S3150801169004F0F6FB02F000FB3B681BB13368DB6A1A
S315080116A0AB4222D30120BDE8F88F3368DFF8D88032
S315080116B0DB6AAB4298BF3460D5E740F2ED112D489D
S315080116C0FFF7A8FE4820FFF7D9FC044600287FF457
S315080116D074AF4FF0FF30BDE8F88F34601368DFF858
S315080116E0A880012B1AD0204FBDE702F09FFA0120EE
S315080116F0BDE8F88F4FF4F6711E48FFF78BFE52E7E7
S315080117004846FFF7BBFC8346206300287FF45DAF9C
S315080117102046FFF71FFD4FF0FF30C4E7474608F59F
S315080117208C793846143704F09BFB4F45F9D1DFF81D
S315080117305CB0DFF85C900C4F584604F091FB4846C4
S3150801174004F08EFB0C4804F08BFB0C4804F088FB74
S315080117500B4A0C4BC2F800B0C3F8009083E700BFF0
S315080117606400002060000020840000207000002032
S315080117707400002034C10008348C0020488C0020F5
S31508011780EC8A0020F08A0020F48A00200C8C0020C4
S31508011790208C0020F8B50446194E02F06BFA1CB3EA
S315080117A0251D284604F096FBA36A1BB104F118000F
S315080117B004F090FB134F2946384604F061FB02F00A
S315080117C06BFA3368A34200D0F8BD0F4B1B687BB98F
S315080117D00E4A39681268914208D00D4B1B685BB1F5
S315080117E00C4B01221A60F8BD3468D9E73360F8BD9D
S315080117F0BDE8F84002F01ABABDE8F840FFF762BE44
S3150801180060000020488C002084000020640000202D
S315080118106C0000208C00002010B5044668B10A4B04
S3150801182062699A4201D0002010BDA06A074B98420E
S31508011830F9D0B0FA80F0400910BD40F25941044888
S31508011840FFF7E8FDEBE700BF488C0020348C002049
S3150801185034C1000888B170B5174D2B6883420BD087
S31508011860044602F007FA2046FFF7D6FF012809D0F9
S31508011870BDE8704002F010BA70BD40F27A410F48D7
S31508011880FFF7C8BD261D304604F024FB0C4AE36A5F
S3150801189011680C488B4288BF136003EB830300EB86
S315080118A08300314604F0ECFA2B68E26ADB6A9A4255
S315080118B0DED302F0BBF9DBE76000002034C1000883
S315080118C074000020F48A002030B585B00024144A3B
S315080118D00192CDE902440094234680221149124817
S315080118E0FFF754FE01280BD005460DB105B030BDF2
S315080118F00E4840F21F5105B0BDE83040FFF78ABDDA
S3150801190000F07CFB01280546EFD102F09BF9084A55
S31508011910084B15601C6005B0BDE8304002F024BADA
S31508011920780000202CC100086514010834C100089C
S315080119308400002088000020024A136801331360DE
S31508011940704700BF6C00002010B502F093F9034BF5
S315080119501C6802F0A1F9204610BD00BF88000020CE
S315080119602DE9F04F4E4B1B6883B0002B7BD14D4BB5
S315080119701A6801321A601F680FB34B4B0193019B1A
S315080119801B68BB4237D9DFF83C81DFF83C9100255B
S31508011990D9F80030454ADB6A126803EB830358F825
S315080119A02330022B28BF0125002A64D0404B1B682F
S315080119B0002B0CBF2846012003B0BDE8F08F3D4E31
S315080119C033681B68002B64D13B4B31683B4A186866
S315080119D03060196013680133136033681B68002B84
S315080119E04CD1314B01931A464FF0FF331360019BDB
S315080119F01B68BB42C7D82F4EDFF8C880DFF8C890EE
S31508011A00DFF8C8A0002525E03368DB68DC68636871
S31508011A1004F1040B9F42584638D304F05BFAA36AD3
S31508011A2004F118000BB104F055FAE36ADAF800205C
S31508011A3003EB83009342594608EB800088BFCAF836
S31508011A40003004F01DFAD9F80030E26ADB6A9A42DE
S31508011A5028BF012533681B68002BD5D1019A4FF0A1
S31508011A60FF33136094E7114A1368013313600025A5
S31508011A70FFF7BCFC9AE7FFF7B9FC97E733680A4A10
S31508011A80DB680192DB685B68136078E7019A13608B
S31508011A907EE740F25B610A48FFF7BCFC94E700BFAA
S31508011AA06C000020880000207C00002068000020CF
S31508011AB08C000020EC8A0020F08A0020800000209B
S31508011AC034C10008F48A0020600000207400002058
S31508011AD02DE9F0472F4C2368002B51D002F0CAF8A4
S31508011AE02368013B23602368002B43D12A4B1B68DB
S31508011AF0002B3FD0DFF8B4A0284E294FDFF8B0906D
S31508011B00DFF8B0801EE0F368DC68251D04F11800D3
S31508011B1004F0E0F9284604F0DDF9E36A3A6803EBD4
S31508011B2083009342294609EB800088BF3B6004F095
S31508011B30A7F9D8F80030E26ADB6A9A4224BF012382
S31508011B40CAF800303368002BDDD1164C23686BB117
S31508011B5023685BB10125FFF703FF08B1CAF80050F6
S31508011B602368013B23602368002BF4D1DAF800408F
S31508011B70012C0BD0002402F08FF82046BDE8F0872F
S31508011B8040F25A510848FFF745FCA7E702F04EF81C
S31508011B90F1E700BF6C00002064000020348C0020AF
S31508011BA0740000206800002034C100088C00002061
S31508011BB0F48A00206000002038B50C460546002846
S31508011BC036D03CB31F4920480A682B6801320A609F
S31508011BD001681C192CBF012000208B4222460DD812
S31508011BE060B32C60194B1868043004F073F9204669
S31508011BF0FFF742FCFFF76CFF40B138BDB0B1A14217
S31508011C002C60EFD3FFF764FF0028F6D1BDE8384012
S31508011C1002F00CB840F2BF210D48FFF7FBFB09495A
S31508011C2009480B682A6801330B6003682A60E1E7F3
S31508011C3040F2BE210648FFF7EDFBC2E7A142D0D329
S31508011C40F4E700BF6C000020880000206000002037
S31508011C5034C10008044B1B680BB9FFF733BC034BAF
S31508011C6001221A60704700BF6C0000208C0000201A
S31508011C7070B50E460546C8B10F4C2168284618317D
S31508011C8004F00EF92068043004F024F9731C06D018
S31508011C900A4B18683044BDE87040FFF7EDBB216870
S31508011CA007480431BDE8704004F0EAB840F26571AE
S31508011CB00448FFF7AFFBDFE760000020880000203B
S31508011CC0488C002034C1000870B50E46054680B11F
S31508011CD00B4C21682846183104F0D2F820680430E4
S31508011CE004F0F8F8074B18683044BDE87040FFF770
S31508011CF0C3BB40F29B710448FFF78CFBE8E700BFC2
S31508011D00600000208800002034C1000838B5C36887
S31508011D10DC684CB304F11805284604F0DBF8154BCA
S31508011D201B68E3B9251D284604F0D4F8124AE36A6C
S31508011D30116812488B4288BF136003EB8303294657
S31508011D4000EB830004F09CF80D4BE26A1B68DB6A22
S31508011D509A4223BF0B4B01201860002038BD294643
S31508011D60094804F08DF8EFE740F2D1710748FFF70B
S31508011D7051FBCFE76C00002074000020F48A002094
S31508011D80600000208C000020348C002034C100083B
S31508011D9010B5044630B1064A064B12681B68C4E9F9
S31508011DA0002310BD40F2F7710348FFF733FBF2E752
S31508011DB0800000208800002034C10008F8B50D46CF
S31508011DC0044658B38DB301F055FF2B681A4A581CBF
S31508011DD011681ED0DFF868C0D4E90060DCF800702D
S31508011DE0BE4201D081420FD20F1ABB420CD95B1AEF
S31508011DF0DCF80010126803442B600025C4E90012C0
S31508011E0001F04AFF2846F8BD012501F045FF28469D
S31508011E10F8BD002501F040FF2846F8BD40F601014E
S31508011E200648FFF7F7FA002DCDD140F6020103481F
S31508011E30FFF7F0FAC7E700BF8800002034C10008A1
S31508011E4080000020014B01221A6070478C00002097
S31508011E5068B1036B1A78A52A4FF000000FD113F861
S31508011E60012F0130A52A80B2F9D080087047044BAA
S31508011E701868036B1A78A52A4FF00000EFD070474F
S31508011E8060000020014B1868704700BF6000002001
S31508011E90044B186828B1044B1B68002B0CBF0120A2
S31508011EA002207047840000206C000020B8B1F8B504
S31508011EB0164DC36A2A68D26A93420FD22A68144E0B
S31508011EC0D26A416903EB830306EB8303C2F10E026F
S31508011ED09942826104D02B68DB6AC362F8BD7047F8
S31508011EE0071D0446384603F0F5FF2A68094BD06AF0
S31508011EF01A68E062904200D9186000EB800006EB90
S31508011F0080003946BDE8F84003F0BABF60000020FA
S31508011F10F48A002074000020F0B138B5C26A436C17
S31508011F209A4218D0051D0446284603F0D3FF0B4AEA
S31508011F30636C1168E362C3F10E008B42A061084825
S31508011F4088BF136003EB8303294600EB8300BDE8D2
S31508011F50384003F095BF38BD704700BF74000020B4
S31508011F60F48A0020F8B50F4C01F084FE25681DB1EE
S31508011F70BDE8F84001F090BE0B4F0C4E384603F011
S31508011F806FFF304603F06CFF094A0A4B17600C21B4
S31508011F902A4606201E6004F079F82060BDE8F8405C
S31508011FA001F07ABE94000020648C0020788C002011
S31508011FB05C8C0020608C0020914208B5006141606C
S31508011FC005D88169D21A8A420CD3012008BD9A42E2
S31508011FD001D29942F9D2074B011D186803F060FF37
S31508011FE0002008BD044B011D186803F059FF0020A5
S31508011FF008BD00BF5C8C0020608C002000B585B050
S31508012000FFF7B0FF0B4B1B685BB100230222CDE93A
S315080120100023CDE90233802207490848FFF7B6FABB
S3150801202020B90748E021FFF7F5F9002005B05DF86A
S3150801203004FB00BF940000207CC100086D21010843
S3150801204058C100082DE9F0410D46B1B18046282056
S3150801205017461E46FFF712F8044658B1FFF782FFE6
S31508012060069BC4F80080C4E9065726626362201DF0
S3150801207003F002FF2046BDE8F0814FF4847103485E
S315080120802C46FFF7C7F92046BDE8F08158C100087C
S3150801209070B5134E346884B064B11D46CDE901129A
S315080120A0039053B11A462046002301A904F0AEF85D
S315080120B004B070BD204604B070BDFFF7E9FE0128E3
S315080120C007D030682B462A4601A904F005F804B062
S315080120D070BD2B463068089A01A903F0FDFFE7E7B2
S315080120E0940000202DE9F0471D4DDFF87C8082B071
S315080120F04FF0000A0DE0DB68DC681F6804F104098B
S31508012100484603F0E7FE636A20469847E369012BD0
S315080121100AD02B681A68002AEDD1124A116829607B
S31508012120136002B0BDE8F087A6693E440023B742B2
S3150801213019463A46204606D2666024612868494609
S3150801214003F0AEFEE5E7CDF800A0FFF7A1FF0028F2
S31508012150DFD140F282214046FFF75CF9D9E700BF9B
S315080121605C8C0020608C002058C100082DE9F04FD6
S31508012170DFF874A15B4FDFF87481DFF8749187B0DB
S315080121804FF0000BDAF800301D68002D6DD0DB68C2
S315080121901D68FFF7D1FBFFF7D7FB3B68834204466F
S315080121A06BD88542386073D9291BD8F8000004F02A
S315080121B09DF9FFF78DFC002867D000231A4603A96D
S315080121C0D8F8000004F08CF80028DBD0059C636978
S315080121D013B1201D03F07EFEFFF7B6FB3B6898425C
S315080121E0054627D3039E3D60022E29D0032E31D002
S315080121F0002EE2D1049BA1692A4619442046FFF71D
S31508012200DBFE0128D9D1636A20469847E369012B89
S31508012210D3D1A369049A00961A4420463346314617
S31508012220FFF736FF0028C8D140F22F214846FFF7AD
S31508012230F1F8C2E7FFF756FF039E3D60022ED5D19E
S315080122400499A16151B1294420462B462A46FFF734
S31508012250B3FEB2E72046FEF77DFFAEE74FF40F71F6
S315080122604846FFF7D7F8A169EDE7FFF765FBFFF7E2
S315080122706BFB3B689842044605D2FFF733FF3C6087
S31508012280FFF726FC99E73C608EE701F0CFFC94E75F
S31508012290FFF71EFCDAF80030DB68DE68301D03F054
S315080122A019FEF369012B03D0736A3046984784E710
S315080122B0B169224629442B463046FFF77DFE01289F
S315080122C0F2D10023CDF800B02A4619463046FFF769
S315080122D0DFFE0028E8D14FF4AD714846FFF79AF8BA
S315080122E0E2E700BF900000205C8C002094000020EB
S315080122F058C100082DE9F043404E414D414FDFF8E2
S315080123000891DFF8088189B000234FF0FF3201A94F
S31508012310306803F0E5FF012805D00122142142F2B5
S31508012320081001F0FBFA9DF80440012C05D9012299
S31508012330142142F20C1001F0F1FA2B5D012BE3D1C5
S315080123409DF80530032B51D8DFE803F03F2413022B
S315080123509DF8043057F833201AB1012090479DF8AB
S31508012360043007EBC3035B68002BCDD001209847E7
S31508012370CAE79DF8043057F833201AB10020904770
S315080123809DF8043007EBC3035B68002BBCD0002023
S315080123909847B9E79DF8043058F8334044B1079B8C
S315080123A09DF8101003980DF11102A0479DF804300D
S315080123B008EBC3035C68002CA6D0079B9DF8101098
S315080123C003980DF11102A0479EE79DF8043059F8CC
S315080123D033201AB1039890479DF8043009EBC303DB
S315080123E05B68002B90D0039898478DE7012214214A
S315080123F042F2091001F092FA86E700BFC08C00206C
S31508012400BC8C00208C8C0020AC8C00209C8C00207D
S315080124102DE9F047414C424D424FDFF80C818CB013
S31508012420002600234FF0FF3206A9206803F058FF63
S31508012430012805D00122142142F2071001F06EFA93
S315080124409DF81830012B41D89DF82020082A43D839
S31508012450EB5C002B40D0DDF81C908DF80E2019F0AE
S31508012460804348D18DF80D3072B10DF12203013A3E
S3150801247053FA82F20DF10F010DF1210313F8010B45
S3150801248001F8010B9A42F9D14B46002B3ADBCDE90B
S3150801249001368DF80C60CDF81C90FEF735FF9DF8D6
S315080124A0183003EB8303824601A957F8330001F07C
S315080124B095FE04282ED09DF8183003EB43030344F8
S315080124C0504648F82390FEF721FFAAE70122142176
S315080124D042F20C1001F022FA0123002206A9206813
S315080124E003F0FAFD00289CD10122142142F20410BE
S315080124F001F014FA95E702238DF80D3029F080438F
S31508012500002BC4DA23F000430422CDE901638DF8D8
S315080125100C20C0E75046FEF7F9FEDDE7D48C002013
S31508012520BC8C0020D0C10008E08C0020F0B500EB7F
S315080125308002174B53F8325089B0044600262846C4
S315080125404FF48061009601F04DFF012802D00098F2
S3150801255009B0F0BD0F4A8DF80440074603241068F8
S315080125608DF8054033466A4601A903F04FFE38B196
S3150801257028464FF4806101F0A5FF009809B0F0BD27
S315080125803A46142142F2061001F0C8F9F0E700BFF5
S31508012590D0C10008C08C00202DE9F04300EB800271
S315080125A0534B8FB053F832608DF81C000546002452
S315080125B030460221CDE9004401F014FF01280AD072
S315080125C00821304601F00EFF012805466BD0009818
S315080125D00FB0BDE8F0830346214630468DF81D301D
S315080125E001F0A0FE0446002848D0DFF81091DFF874
S315080125F0108164270CE0029A09929DF811204AB3CA
S31508012600099B43F080430993013C14F0FF0435D03C
S3150801261002AA0021304601F035FEFFF795F959F86F
S3150801262025309DF810208DF8205007FB00F0A8FBF7
S315080126300010C3EB90109DF812300D908DF82830DC
S31508012640002AD8D0039A42F0004209929DF8112037
S31508012650002AD5D1002BD7D0013B05AA52FA83F21D
S315080126600DF129010DF1130313F8010B01F8010B03
S315080126709342F9D1013C14F0FF04C9D11D4A002344
S31508012680106807A901AA03F0C1FD18B3019B3046DA
S31508012690012B4FF0020108BF009301F013FF0098C8
S315080126A00FB0BDE8F083134A2346106802246A4630
S315080126B007A98DF81D4003F0A9FD90B130460E49D2
S315080126C001F078FE3046082101F0FCFE00980FB0B3
S315080126D0BDE8F0830122142142F2061001F01EF929
S315080126E0D4E72A46142142F2061001F017F9E5E764
S315080126F0D0C10008C08C002010000032CC8C00200C
S31508012700D34D62102DE9F04300EB8002534B8FB095
S3150801271053F832608DF81C00054600243046102116
S31508012720CDE9004401F05EFE01280AD04021304679
S3150801273001F058FE012805466BD000980FB0BDE898
S31508012740F0830346014630468DF81D3001F0EAFD57
S315080127500446002848D0DFF81091DFF81081642775
S315080127600CE0029A09929DF811204AB3099B43F09D
S3150801277080430993013C14F0FF0435D002AA0121D4
S31508012780304601F07FFDFFF7DFF859F825309DF84F
S3150801279010208DF8205007FB00F0A8FB0010C3EBB2
S315080127A090109DF812300D908DF82830002AD8D057
S315080127B0039A42F0004209929DF81120002AD5D1C8
S315080127C0002BD7D0013B05AA52FA83F20DF1290154
S315080127D00DF1130313F8010B01F8010B9342F9D11B
S315080127E0013C14F0FF04C9D11D4A0023106807A94A
S315080127F001AA03F00BFD18B3019B3046012B4FF0DC
S31508012800100108BF009301F05DFE00980FB0BDE806
S31508012810F083134A2346106802246A4607A98DF8ED
S315080128201D4003F0F3FC90B130460E4901F0C2FD9C
S315080128303046402101F046FE00980FB0BDE8F0830E
S315080128400122142142F2061001F068F8D4E72A465B
S31508012850142142F2061001F061F8E5E7D0C100083B
S31508012860C08C002010000034CC8C0020D34D62109F
S31508012870F0B500EB80022E4B53F8325089B004466E
S31508012880002628460121009601F0ACFD012802D058
S31508012890009809B0F0BD2749284601F061FD0128D5
S315080128A02ED02549284601F05BFD0128074633D07D
S315080128B02249284601F054FD012833D040F2FE3161
S315080128C01F48FEF7A7FD04EB44031E441D4A1E4B91
S315080128D052F8261018680391002633466A4601A95C
S315080128E08DF804408DF808408DF8056003F08EFCDC
S315080128F058B12846012101F0E5FD009809B0F0BD5F
S315080129000C49284601F056FDDDE70122142142F261
S31508012910061001F003F8ECE70749284601F04AFDDD
S315080129203E46D0E70549284601F044FD0226CAE796
S31508012930D0C1000801000038000100380000013844
S31508012940A4C10008E08C0020C08C0020F0B5384AEC
S31508012950384DDFF810C1384C384E394F30800023D6
S315080129600128C2E90033C2E90233C5E90033C5E9E2
S315080129700233ACF80030C4E90033C4E902339CBF22
S3150801298002233380032939809CBF042139800846F4
S3150801299085B000221C2103F079FB2A4B1860002818
S315080129A03FD030880022182103F070FB264B1860AF
S315080129B080B3264D2649274800230A22009203930D
S315080129C0CDE901538022FEF7E1FD012805D0012258
S315080129D0142142F2021000F0A1FF1F4C1F492048A2
S315080129E00023022200920393CDE901438022FEF7D8
S315080129F0CDFD012805D00122142142F2031000F071
S31508012A008DFF2868FEF7C6FE206805B0BDE8F040D0
S31508012A10FEF7C0BE0122142142F2011000F07EFF2A
S31508012A20C7E7012214214FF4045000F077FFB8E7F5
S31508012A308C8C0020AC8C00209C8C0020D88C00202B
S31508012A40C48C0020C08C0020D48C0020C88C0020A7
S31508012A5084C10008F5220108DC8C002094C1000815
S31508012A6011240108BC8C00202DE9F04F01288DB0F6
S31508012A7006460F46924600F2698100F05B81002303
S31508012A800093D54B4FEA860909EB060403EBC40408
S31508012A900121606801F0DAFEA068012101F0BEFE9D
S31508012AA06069012101F0BAFED4F80CB094F82050FF
S31508012AB0618A58462A4601F09BFED4F81880E18BB4
S31508012AC02A4640460CAD01F093FE228A45F8242D8C
S31508012AD0022358464FF0010C29464FF0000B8DF89A
S31508012AE010308DF811308DF813C08DF812B001F041
S31508012AF025FEA38B03932946404601F01FFEA7F541
S31508012B009C53B649083B8B4200F21C81DAF8003027
S31508012B10B3F1005F80F01681DAF80430B3F1005F93
S31508012B2080F010819AF80830022B00F20B81AC492B
S31508012B30AC484FF00808A1F13F0C454643464FF013
S31508012B40640E08E08C4500F0FD8091F83C3091F860
S31508012B503D5091F83E801D44EDB26B1C4344DBB2F7
S31508012B6007FB03F4B0FBF4F4A2B203FB02F3144629
S31508012B70013AB2F5806FA1F10301E3D2B0FBF3F399
S31508012B80DB1B0EFB03F3B3FBF7F313F0800F0CBF4C
S31508012B900122FF2213FB02F35BB2022BD2DCFEF702
S31508012BA0B3FB09EB06038C4A019052F83370384699
S31508012BB001F0FCF9013D05A801F002FB4FF0000BFD
S31508012BC008F1FF388DF8185005A9012538468DF802
S31508012BD01980ADF814408DF81AB08DF81BB08DF830
S31508012BE01CB08DF81DB08DF81EB0ADF816B08DF875
S31508012BF01F5001F0F9F9009B9AF808805C19B8F1A1
S31508012C00000F00F0FB80A84540F0A980DAE9002111
S31508012C109DF800308DF82A30C9000B0CD20041F01E
S31508012C200401ADF8203008A8130C42F004028DF80F
S31508012C302BB08DF82C808DF82D80ADF828B0ADF825
S31508012C402210ADF82430ADF8262001F041FA08A883
S31508012C508DF82A40ADF8288001F03AFA012E05D9F7
S31508012C600122142142F20C1000F058FE5A4BB144CD
S31508012C7003EBC9090CAD99F8213005F8283D012463
S31508012C800F22002328468DF809208DF80A308DF881
S31508012C900B4000F065FF99F822308DF80830284678
S31508012CA000F05EFF99F823308DF80830284600F0C9
S31508012CB057FF99F824308DF80830284600F050FF60
S31508012CC022462146384601F041FB22460221384672
S31508012CD001F03CFB22461021384601F037FB22461B
S31508012CE00821384601F032FB22464021384601F0D8
S31508012CF02DFB22464FF48061384601F027FB3A4BFB
S31508012D009C55FEF721FE3949394A642303FB00F332
S31508012D10A1FB03139B09019842F82630FEF7F6FA40
S31508012D20344B1868FEF796FD334B1868FEF792FD8B
S31508012D30204608E001464FF0007001F087FD0E239A
S31508012D4000939EE600200DB0BDE8F08F0122142104
S31508012D5042F20C1000F0E2FD0023009391E6DAE955
S31508012D600021520142F00802490192B289B29DF846
S31508012D7000308DF82A3008A8ADF82420ADF82620B1
S31508012D80ADF82010ADF822108DF82BB08DF82CB0C7
S31508012D908DF82D50ADF828B001F09AF9DAE900322C
S31508012DA0D200DB004FEA124C190C42F0040243F040
S31508012DB0040308A88DF82C508DF82A40ADF8285040
S31508012DC0ADF820C0ADF82220ADF82410ADF82630B4
S31508012DD001F07EF942E700BFD0C10008B82E0F0006
S31508012DE020C2000880DE8002BC8C0020D34D621010
S31508012DF0CC8C0020C88C0020DC8C0020DAE900325B
S31508012E005B0143F0080352019BB292B29DF8001090
S31508012E108DF82B8008A88DF82C808DF82D508DF80B
S31508012E202A10ADF82880ADF82430ADF82630ADF873
S31508012E302020ADF8222001F04BF908A88DF82A4088
S31508012E40ADF8285001F044F908E700BF0128F8B5A4
S31508012E5004460E4606D8012931D81C4B1D5DCDB94D
S31508012E602846F8BD0122142142F20C1000F056FD45
S31508012E70012E05D90122142142F2051000F04EFD5A
S31508012E800122142142F20C1000F048FD0F4B1D5D82
S31508012E90002DE5D0FEF738FA04EB84040C4B0746FF
S31508012EA053F834003EB101F04DFA05463846FEF7AF
S31508012EB02DFA2846F8BD01F041FA0546F6E7012242
S31508012EC0142142F2051000F029FDC6E7BC8C00204A
S31508012ED0D0C10008F0B5012889B006460F46154647
S31508012EE01C4605D90122142142F20C1000F016FDE8
S31508012EF08DF8086003978DF810505DB1691E54FA74
S31508012F0081F1631E0DF1110213F8010F02F8010B8D
S31508012F108B42F9D1184C206803F0DAFA174B1B8853
S31508012F20181A012814D92068002301AA02A903F056
S31508012F306DF918B10124204609B0F0BD012214210A
S31508012F4042F2041000F0EAFC0124204609B0F0BD63
S31508012F5030460121FFF77AFF044618B100242046BE
S31508012F6009B0F0BD0122142142F2041000F0D6FC8A
S31508012F70204609B0F0BD00BFD48C0020D88C0020B3
S31508012F80012838B504460D4605D90122142142F215
S31508012F900C1000F0C3FC074B53F834202AB103EB9D
S31508012FA0C402526802B138BD012202EB440243F859
S31508012FB0225038BDAC8C0020012838B504460D4690
S31508012FC005D90122142142F20C1000F0A7FC074B87
S31508012FD053F834202AB103EBC402526802B138BD52
S31508012FE0012202EB440243F8225038BD9C8C002092
S31508012FF010B5FEF785F90020FFF7CEFA0446FEF76D
S3150801300081F91CB1024B4FF080521A6010BD00BF06
S3150801301004ED00E010B5FEF773F90020FFF772FB27
S315080130200446FEF76FF91CB1024B4FF080521A6045
S3150801303010BD00BF04ED00E010B5FEF761F90020F0
S31508013040FFF716FC0446FEF75DF91CB1024B4FF07B
S3150801305080521A6010BD00BF04ED00E010B5FEF7FE
S315080130604FF90020FFF762FA0446FEF74BF91CB147
S31508013070024B4FF080521A6010BD00BF04ED00E00C
S3150801308010B5FEF73DF90120FFF786FA0446FEF76B
S3150801309039F91CB1024B4FF080521A6010BD00BFBE
S315080130A004ED00E010B5FEF72BF90120FFF72AFB26
S315080130B00446FEF727F91CB1024B4FF080521A60FD
S315080130C010BD00BF04ED00E010B5FEF719F90120A7
S315080130D0FFF7CEFB0446FEF715F91CB1024B4FF07C
S315080130E080521A6010BD00BF04ED00E010B5FEF76E
S315080130F007F90120FFF71AFA0446FEF703F91CB18E
S31508013100024B4FF080521A6010BD00BF04ED00E07B
S31508013110074B53F8203013B907E09B6833B11A6897
S315080131208A42FAD15B6803B118477047704700BFF6
S31508013130108D002001460120FFF7EABF0146002055
S31508013140FFF7E6BF2DE9F04706463148DDF820804E
S3150801315050F826400D46174699464CB123689942C0
S3150801316003D13FE023689D4221D0A469002CF9D1FF
S31508013170284B53F8263013B90DE09B685BB11A68E2
S31508013180AA42FAD15B68002B3FD0424649463846E7
S31508013190BDE8F0471847204B53F82640ACB34346E1
S315080131A04A4639462846A446BDE8F0476047FEF731
S315080131B0ABF8277167B107F1FF3C59FA8CFC09F1A5
S315080131C0FF33621D13F8011F02F8011B6345F9D18C
S315080131D0237DC4F810807E2B9CBF01332375FEF72F
S315080131E095F8C5E7FEF790F82771002FF0D007F19B
S315080131F0FF3C59FA8CFC09F1FF33621D13F8011FD4
S3150801320002F8011B6345F9D1E2E7BDE8F08700BF83
S31508013210088D0020008D0020F88C002000B583B0B1
S31508013220009313460A4601460120FFF78BFF03B0B8
S315080132305DF804FB00B583B0009313460A460146C0
S315080132400020FFF77FFF03B05DF804FB012870B586
S31508013250044616D8194E1A4D1A491B4A002346F830
S31508013260203045F8203041F8203042F82030D8B9CE
S315080132701649FFF785FE20461549BDE87040FFF758
S315080132809BBE0122142142F20C1000F047FB0B4DA4
S315080132900B480C490C4A002345F8243040F82430E1
S315080132A041F8243042F824300A490120FFF768FE24
S315080132B009490120BDE87040FFF77EBE108D002048
S315080132C0008D0020088D0020F88C00203D31010872
S315080132D035320108353101081D320108012870B55A
S315080132E005460E4605D90122142142F20C1000F0BA
S315080132F015FB1C20FDF7C2FE044688B10C49266061
S3150801330051F8252000232375A3610AB905E01A4659
S315080133109369002BFBD1946170BD41F8254070BDBE
S31508013320012214214FF4085000F0F8FAE6E700BF2D
S31508013330088D00202DE9F041012804460D469046E6
S315080133401E46069F05D90122142142F20C1000F0EF
S31508013350E5FA194B53F824404CB12368AB4203D123
S3150801336009E02268AA4206D0A469002CF9D14FF0D7
S31508013370FF30BDE8F081FDF7C7FFB8F1000F02D0B5
S31508013380237988F800300FB123693B6056B1237958
S3150801339043B10022A118551C4979B1542179EAB2E1
S315080133A09142F7D8257D25B9FDF7B0FF68B2BDE88A
S315080133B0F0816B1E2375F7E7088D00200128F8B503
S315080133C005460F46164605D90122142142F20C106C
S315080133D000F0A4FA0C20FDF751FE044688B10C4B07
S315080133E0276053F8252066600021A1600AB905E027
S315080133F01A469368002BFBD19460F8BD43F8254023
S31508013400F8BD0122142142F2022000F087FAE6E70C
S31508013410008D002000294FD02DE9F8434D1E274E77
S31508013420274FDFF8B480DFF8B4900544441E0CE05A
S315080134301F294FF0010106D80370317089F8002061
S315080134403A7088F80020AC4222D014F8013F32784D
S315080134501C48591E002AEBD098F800203978012A11
S3150801346018D099F8002000EB020C01328CF80130D3
S31508013470007894F800C0D3B2984289F8003008BFA2
S315080134800123614408BF88F80030AC423970DCD1A9
S31508013490BDE8F88300229942327088F80020D2D11B
S315080134A009480A490A4A202303700B70094802236E
S315080134B0137003F04BF9C6E7704700BF9A00002066
S315080134C0188D0020709D0020A0000020A10000207A
S315080134D099000020719D0020969D0020929D002054
S315080134E070B50D4E0546002456F82430AB42E0B2BD
S315080134F004F1010405D0032CF6D13368AB4203D09D
S3150801350070BD03F097F8F6E7044A054B11881B7856
S315080135100B44138070BD00BF1C8D0020949D0020B4
S3150801352010C0000808B501F047FF0248BDE8084089
S3150801353001F07CBF153401084C4B1A78012A7FD05B
S31508013540F0B54B4E4B4D4C4C83B001271F7003F021
S3150801355003FC3378494A009503EB830303EB8301A4
S315080135608900A2FB013149093A4600234448FEF77E
S3150801357069FD206000286BD07378404A009503EBFB
S31508013580830303EB83018900A2FB01314909002367
S3150801359001223C48FEF756FD606000285FD0B378EB
S315080135A0364A009503EB830303EB83018900A2FBEB
S315080135B001314909002301223348FEF743FDA06082
S315080135C000283ED02568FEF7BFF90023024600937E
S315080135D028461946FEF75CFD01282AD16568FEF7DB
S315080135E0B3F900230246009328461946FEF750FD13
S315080135F0012817D1A468FEF7A7F90023024600930C
S3150801360020461946FEF744FD012804D11F4B002226
S315080136101A8003B0F0BD012214214FF4185000F0AE
S315080136207DF9F3E7012214214FF4185000F076F9D9
S31508013630E0E7012214214FF4185000F06FF9CDE7A5
S315080136407047012214214FF4185000F067F9B9E7C1
S315080136503A4614214FF4185000F060F98CE701221C
S3150801366014214FF4185000F059F998E798000020F2
S3150801367010C00008E13401081C8D00201F85EB519C
S3150801368060C2000868C2000870C20008949D002044
S31508013690014B1878704700BFA0000020014B18782D
S315080136A0704700BFA1000020F0B53F4B1C7883B0DE
S315080136B002460D462CB1012C2FD0022C0AD003B09C
S315080136C0F0BD3A4B3A49187809682B46FFF702FCD0
S315080136D003B0F0BD411EC9B21F298DF80600EED808
S315080136E029446A1E002312F8010F03448A42DBB2F9
S315080136F0F9D10DF1060001218DF8073001F076FEAA
S3150801370028469DF8061001F071FE01210DF107000A
S3150801371001F06CFE03F01EFBD1E784B200F0AAFAB1
S31508013720244941F24403CF5A102F34D001F5825E61
S3150801373041F24603BEF8006031F803C006EB861075
S3150801374080000B180C52A3F802C05CB10330621E4C
S31508013750084415FA82F26B1E13F8014F00F8014F5F
S315080137609A42F9D10136B6B20F2E84BF0023AEF8BC
S31508013770003041F2440241F246030CF1010C07F113
S31508013780010798BFAEF800608F5221F803C000F018
S3150801379083FA03B0F0BD00F07FFA40F235310648EE
S315080137A0FDF738FE8BE700BF99000020198D002030
S315080137B09C000020288D002078C200080846704722
S315080137C0014B1888704700BF949D002010B54478B6
S315080137D0012C82B01BD00CD3022C02D0032002B0DC
S315080137E010BD02F031FB002814BF0120032002B0EE
S315080137F010BD01A803F0BEFA02F0DEFA019B05220C
S31508013800C3F80100012083F8002102B010BD8078B9
S3150801381002F0D6FA204602B010BD00BFF0B550300E
S3150801382085B004010F4604F110066D46A0B2FDF7F6
S31508013830C3FB0434B44245F8040BF7D10C4A029B86
S31508013840934202D0002005B0F0BDDDE90010039CCB
S315080138500A1813449C42F5D147B10A0C0B0A786041
S315080138600120F9703A80BB7005B0F0BD0120EAE786
S31508013870AA55EE11F0B587B00F46694615460446B6
S31508013880FFF7CCFF012808BF9DF803104FEA05256D
S3150801389006BF0131C9B2012145EA07450D43029523
S315080138A0FEF752F80B4B0390184428445034CDE9DF
S315080138B00430240104F1100703AEA0B229460434EA
S315080138C0FDF78EFBA74202D056F8045BF5E707B071
S315080138D0F0BD00BFAA55EE1110B50D4B002203F538
S315080138E0C0711A809A70DA705A6008338B42F8D11F
S315080138F0084B094C1A702270002003E02078013029
S31508013900C0B220700021FFF789FF0128F6D010BD4B
S31508013910989D0020189F0020199F0020F0B50023CC
S3150801392085B02B4D06460F4601E0302B13D035F8EE
S315080139303300B0424FEAC30103F10103F5D16C1814
S31508013940A178B942F1D1E3780133E370FDF7FCFFC1
S31508013950606005B0F0BD1F490B782F2BF9D805EB30
S31508013960C304012025F83360A7700133E070019282
S315080139700B70FDF7E9FF019A6060002AE9D0164D40
S315080139802878E8B1002403E02878DCB2844215D20D
S3150801399002A92046FFF742FF012804F10103F3D1EA
S315080139A0BDF80820B242EFD19DF80A20BA42EBD100
S315080139B03A4631462046FFF75DFFCAE72F28C8D8A1
S315080139C03A463146FFF756FF2B7801332B70C0E78D
S315080139D0989D0020189F0020199F002008B54FF4D4
S315080139E040714FF4A060FDF7C1FA024B00221A702C
S315080139F008BD00BF199F0020064B002203F5C071C0
S31508013A001A809A70DA705A6008338B42F8D1024BE1
S31508013A101A707047989D0020189F0020024B18784D
S31508013A20302828BF30207047199F0020024B18788C
S31508013A30302828BF30207047189F00202DE9F04311
S31508013A402F2983B00D46044691462ED868B3A9445A
S31508013A504D4531DA05F101085FFA88F808F1FF38B2
S31508013A60002612E02F2DDDB21BD8BDF800302380C9
S31508013A70019B9DF802709DF80300A7704945E07007
S31508013A806360D7B204F108040BDA69462846FFF7E2
S31508013A90C5FEF7B201367A1C6B1C08EB0601002835
S31508013AA0E0D1384603B0BDE8F083012214214FF472
S31508013AB01450FFF733FFCAE70027F2E72F292DE94C
S31508013AC0F0410F460446904634D898B3B844B845F1
S31508013AD03B4636DD1C4A02EBC701CD788DB32F2F45
S31508013AE02FD8C7F12F0E5FFA8EFE791C0EF1010E43
S31508013AF0C9B204EBCE0E02EBC10604E0F57808362E
S31508013B00B5B1744514D032F83300208002EBC303F3
S31508013B10C81B93F802C084F802C0E5705B6863604D
S31508013B2041450B46C0B204F1080401F10101E5DB88
S31508013B30BDE8F081012214214FF41450FFF7EEFE7F
S31508013B40C4E70020BDE8F081989D002040F0BF60E1
S31508013B50024B40F40030D860704700BF00ED00E02A
S31508013B60F0B40178C378012401F01F0294404D098D
S31508013B702BB920350F4B43F82540F0BC70470E4B47
S31508013B804678DB6882780B4FD843C0F30220C0F130
S31508013B900403DBB29E400F230341F6B213403343BD
S31508013BA039441B01DBB281F8003347F82540F0BCE4
S31508013BB0704700BF00E100E000ED00E0034800683F
S31508013BC0006880F3088862B600DF00BF08ED00E0F0
S31508013BD0DFF80C00016841F47001016070470000CC
S31508013BE088ED00E030B46FF002034FF08075074CA2
S31508013BF040F8045C40F80C4C40F8081C40F8202CAE
S31508013C0040F8243C30BC4438704700BF553C010895
S31508013C10054B19680868B0E8F04F80F309884FF03A
S31508013C20000080F31188704760000020044B4FF0B4
S31508013C3080521A60BFF34F8FBFF36F8F704700BF73
S31508013C4004ED00E0EFF311804FF0BF0181F3118815
S31508013C507047002008B5054B1B68013303D0F721CF
S31508013C600348FDF7D7FBFFF7EDFFFEE7AC000020A1
S31508013C70A4C2000808B5FFF7E5FF044A1368013333
S31508013C801360BFF34F8FBFF36F8F08BDAC000020E1
S31508013C9080F31188704700BF034B18680138186014
S31508013CA000B17047FFF7F4BFAC000020EFF30980BD
S31508013CB0114B1A681EF0100F08BF20ED108A20E973
S31508013CC0F04F10604DF8043D4FF0BF0080F31188A6
S31508013CD0FDF7C0FF4FF0000080F3118808BC196892
S31508013CE00868B0E8F04F1EF0100F08BFB0EC108A54
S31508013CF080F30988704700BF6000002008B5FFF708
S31508013D00A1FFFDF78DFBFDF7FBFA0F4A1388013377
S31508013D109BB2092B07D81380FDF7F4FA0020BDE8FA
S31508013D200840FFF7B5BF00231380FDF719FE0028E9
S31508013D30F2D0064B4FF080521A60FDF7E3FA0020E5
S31508013D40BDE80840FFF7A4BFA200002004ED00E08B
S31508013D500349044B40F28F60072208601A607047D6
S31508013D6014E000E010E000E010B5254B254C1A7868
S31508013D70254882B0D2B2FF21019219701B78DBB2B5
S31508013D808DF803309DF803309DF8032003F0BF0337
S31508013D90072112062370016012D5062200E00A46A1
S31508013DA09DF803305B00DBB28DF803309DF80330D4
S31508013DB01B0602F1FF31F2D4130203F4E06301E0BA
S31508013DC04FF4E06301990E4C0360104ACBB223709D
S31508013DD0136843F47F031360136843F07F4313604A
S31508013DE0FFF7B6FF0A4B00221A60FFF7F1FE094AF0
S31508013DF0136843F040431360FFF7E0FEFFF72AFF1D
S31508013E0000E400E0A4000020A800002020ED00E066
S31508013E10AC00002034EF00E008B5EFF305830F2B63
S31508013E2005D90E490E4A5B5C12789A420FD80D4B9A
S31508013E300D4A1B68126803F4E063934200D808BD73
S31508013E4040F209310948BDE80840FDF7E3BA40F2F6
S31508013E50F9210648FDF7DEFAE9E700BFF0E300E0DD
S31508013E60A40000200CED00E0A8000020A4C2000870
S31508013E7008B501214FF4807000F00CFD00214FF4C4
S31508013E808070BDE8084000F005BD00BF42680B69B7
S31508013E9070B422F040720E790D688C6822F4807233
S31508013EA042EA06222A434260CE688568094A3343B4
S31508013EB02A4023434C79134343EA440383600A7D2A
S31508013EC0C36A013AD2B223F4700343EA0253C362C6
S31508013ED070BC7047FDF7FFC0836819B923F0010369
S31508013EE08360704743F0010383607047092970B402
S31508013EF01CD9A1F10A0404EB4404C5680726A640A7
S31508013F00A34025EA06042343062AC3601AD90C2AC4
S31508013F1025D90D3A02EB8202C36A1F2494409140C7
S31508013F2023EA04021143C16270BC704701EB4106E2
S31508013F3004690725B540B34024EA05042343062A44
S31508013F400361E4D8013A02EB8202436B1F249440D1
S31508013F50914023EA04021143416370BC7047073A52
S31508013F6002EB8202036B1F249440914023EA040268
S31508013F701143016370BC7047836843F080438360D3
S31508013F80704700BF836819B923F48073836070474B
S31508013F9043F4807383607047836819B923F4007307
S31508013FA08360704743F400738360704708B50D4B0F
S31508013FB098424FF001010AD04FF0806000F05EFC94
S31508013FC000214FF08060BDE8084000F057BC4FF073
S31508013FD0007000F053FC00214FF00070BDE8084066
S31508013FE000F04CBC00640040036823F00203036040
S31508013FF0036843F0010303604368DB0707D44FF600
S31508014000FF7301E0013B02D04268D207FAD5436843
S3150801401013F001035AD08B790A88012B03680CBF68
S3150801402043F0800323F0800370B40360CB79012B3E
S3150801403003680CBF43F0400323F0400303600B7A87
S31508014040012B03680CBF43F0200323F02003036010
S315080140504B7A012B03680CBF43F0100323F01003BE
S3150801406003608B7A012B03680CBF43F0080323F026
S3150801407008030360CB7A012B03680CBF43F00403E2
S3150801408023F004030360CB788E780D794C791B06EF
S3150801409043EA867343EA054343EA0453013A134361
S315080140A0C361036823F0010303604368D90707D591
S315080140B04FF6FF7301E0013B02D04268D207FAD4FA
S315080140C04068C04300F0010070BC7047184670474D
S315080140D03A4A837AD2F8001241F00101F0B4C2F8E3
S315080140E000120121D2F81C529940CC432540C2F84E
S315080140F01C52057B002D47D1D2F80C62B0F806C0D8
S3150801410045888788DB002640C2F80C6203F18043A4
S31508014110028803F5C84345EA0C4542EA0742C3F853
S315080141204052C3F84422C37A244A3BBBD2F804322C
S315080141302340C2F804320389BBB9204BD3F81422B1
S315080141401440C3F81442437B012B05D11B4AD2F80C
S315080141501C321943C2F81C12184AD2F8003223F04D
S315080141600103C2F80032F0BC7047012BEBD1134AA8
S31508014170D2F814320B43C2F81432E4E7D2F8043207
S315080141800B43C2F80432D6E7012DCCD1D2F80C6222
S31508014190B0F800C045888788DB000E43C2F80C6278
S315080141A003F18043C28803F5C84345EA0C4542EA50
S315080141B00742C3F84052C3F84422B4E700640040FA
S315080141C00023012140F20322018082808371C37199
S315080141D0037243728372C372438070478368F0B473
S315080141E05C01024605D48368180142D50125284693
S315080141F001E0002528462D015319D3F8804104F022
S315080142000104C3F880410E7A4C7A4EB34F68D3F84D
S3150801421080C144EAC704344344EA0C04C3F8804124
S315080142208C7A04F00F048C72D3F8846126F00F0699
S31508014230C3F88461D3F884613443C3F884412A44BA
S31508014240D1F80B40C2F88841D1F80F10C2F88C1189
S31508014250D3F8802142F00102C3F88021F0BC7047EF
S315080142600F68D3F8806144EA47543443C3F8804160
S31508014270D6E79368DB0002D502252846BBE704206A
S31508014280ECE700BF00EB011310B4D3F8B04104F01A
S3150801429004041472CCBBD3F8B041640D1460D3F88E
S315080142A0B04104F002045472D3F8B44104F00F0487
S315080142B09472D3F8B44100EB0113240AD474D3F8E9
S315080142C0B841D472D3F8B841240A1473D3F8B84163
S315080142D0240C5473D3F8B841240E9473D3F8BC4113
S315080142E0D473D3F8BC41240A1474D3F8BC41240C02
S315080142F05474D3F8BC311B0E937459B103695DF834
S31508014300044B43F0200303617047D3F8B041E40836
S315080143105460C4E7C3685DF8044B43F02003C360E7
S31508014320704700BF31B1012906BF006900F00300DB
S3150801433000207047C06800F0030070478069000ECE
S31508014340704700BF8069C0F30740704743691AB9CF
S3150801435023EA01014161704719434161704700BF72
S3150801436011F4700F07D08369C3F313030B4214BF0B
S31508014370012000207047CB0107D54368C3F3130317
S315080143800B4214BF0120002070470A0107D5836834
S31508014390C3F313030B4214BF0120002070478B019E
S315080143A04CBFC3680369C3F313030B4214BF01204F
S315080143B0002070470A4B99420CD08A01C1F31303B6
S315080143C006D44A0109D40A014CBF83604360704789
S315080143D0C36070470023836170470361704700BF5C
S315080143E07000F03043690B4020D040295ED010D9C7
S315080143F0B1F5006F5ED01BD8B1F5007F4ED0B1F58F
S31508014400806F35D0B1F5807F10D1806900F0010049
S315080144107047042930D018D9102939D0202933D02A
S31508014420082903D1C068C0F30010704700207047FF
S31508014430B1F5803F36D0B1F5003F21D0B1F5004F37
S31508014440F4D14068C0F380007047012907D00229DA
S31508014450ECD1C06810F0030018BF012070478068CE
S3150801446000F0013020F08070003018BF012070473D
S315080144708069C0F380007047C068C0F3C000704708
S315080144804068C0F3001070470069C0F3C000704768
S31508014490006910F0030018BF012070478069C0F356
S315080144A0400070474068C0F3C00070470069C0F318
S315080144B000107047836913F0700F14BF01200020A4
S315080144C0704700BFB1F5807F1ED00DD9B1F5006FD9
S315080144D024D013D9B1F5803F25D0B1F5003F2ED0B0
S315080144E0B1F5004F1AD0704708291FD00FD92029D6
S315080144F022D0402927D1102303617047B1F5007FE7
S3150801450002D0B1F5806F1DD104234360704701299C
S315080145100FD0042918D10823C36070470022042349
S315080145208261436070470823436070471023C36064
S315080145307047064B83607047082303617047102351
S315080145404360704770477047704700BF010101001B
S3150801455002683649002310B422F001022124884258
S315080145600260036043608360C3600361446131D0C4
S315080145702F4B984234D02F4B984238D02E4B984225
S3150801458040D02E4B984244D02D4B984236D02D4BD5
S31508014590984242D02C4B984217D02C4B984240D087
S315080145A02B4B98421CD02B4B984220D02A4B984231
S315080145B028D02A4B98422CD0294B98421ED0294BF9
S315080145C098422AD0284B984207D14FF03D5243F8DA
S315080145D0AC2C02E0254B3D229A605DF8044B7047EE
S315080145E04FF4746243F8202C5DF8044B70474FF47E
S315080145F0741243F8382C5DF8044B70471C4A43F88B
S315080146007C2CEAE74FF0746243F8502C5DF8044BB2
S315080146107047184A43F8642CDFE7174A43F8942C85
S31508014620DBE73D2243F8082CD7E700BF10600240BC
S3150801463028600240406002405860024070600240B3
S3150801464088600240A0600240B860024010640240DF
S315080146502864024040640240586402407064024083
S3150801466088640240A0640240B864024000600240C7
S31508014670400F00203D00002000003D200B6870B46B
S31508014680D1E90524CD682B431343D1E907252343F3
S315080146901343D1E909422B43D1E90D65234313435A
S315080146A004680B4A334322402B4313430360D1E981
S315080146B00B3442690D6922F0070223431343D1E9FA
S315080146C00142436145608460C26070BC704700BFA7
S315080146D03F801CF0036819B923F001030360704792
S315080146E043F0010303607047054A136818B923F4B8
S315080146F080731360704743F480731360704700BF7B
S31508014700003C0240054A136818B923F40073136084
