S02900002E2E2F48414E636F6465725F453430375F5454415F436F6D62696E654D6F64656C2E73726563F8
S31508004000E4C900201D8C0108000000000000000023
S315080040100000000000000000000000000000000092
S315080040200000000000000000000000001D55010807
S315080040300000000000000000B955010809560108F3
S315080040400000000000000000000000000000000062
S315080040500000000000000000000000000000000052
S315080040600000000075640108000000000000000060
S315080040700000000000000000000000000000000032
S31508004080000000000000000000000000454901088B
S31508004090FD48010821490108694901080000000096
S315080040A0616401084D64010839640108296401083E
S315080040B01564010801640108ED63010800000000A9
S315080040C000000000000000000000000000000000E2
S315080040D000000000ED710108057201081D72010853
S315080040E00000000000000000E57201080000000062
S315080040F0D9630108C5630108B5630108000000001B
S31508004100000000004D7201080000000000000000D9
S315080041100000000000000000000000000000000091
S3150800412000000000000000000000000051720108B5
S3150800413000000000A564010800000000D549010838
S315080041408D490108B1490108F949010815730108A3
S3150800415000000000000000000000000035720108A1
S315080041600000000000000000000000000000000041
S315080041700000000000000000000000000000000031
S311080041800000000000000000EE11AA5527
S3150800C000000000000000F03F000000000000F03FC4
S3150800C010000000000000E03F000000000000F03FC4
S3150800C0200000000000000000000000000000000002
S3150800C03000000000000000000000000000000000F2
S3150800C04000000000000000000001000001010000DF
S3150800C0500100010100000000383F0700000420002D
S3150800C0601000080002010000000000000A0A0A0089
S3150800C07048414E636F6465725F453430375F545488
S3150800C080415F436F6D62696E654D6F64656C5F7382
S3150800C0906F66747761726549445F76315F32303016
S3150800C0A03632335F313131323336000041707043F6
S3150800C0B074726C5461736B0048414E636F646572A9
S3150800C0C05F453430375F5454415F436F6D62696E24
S3150800C0D0654D6F64656C2E6300000000200000004B
S3150800C0E00014024008000900200000000014024065
S3150800C0F010000E00200000000014024020000F006F
S3150800C1002000000000140240400004002000000047
S3150800C11000140240800005002000000000140240C0
S3150800C120000106002000000000140240000207007B
S3150800C130200000000014024000040800040000006B
S3150800C1400008024001000A0004000000000802403E
S3150800C15004000C00414443636F6E76657273696F21
S3150800C1606E5461736B0000002E2E2F626C6F636B2A
S3150800C1707365742F7274772F53544D33322F73723D
S3150800C180632F686561705F342E630000546D7243D7
S3150800C19070754C6F6164000049444C45000000000E
S3150800C1A02E2E2F626C6F636B7365742F7274772FE4
S3150800C1B053544D33322F7372632F7461736B732E1E
S3150800C1C0630000002E2E2F626C6F636B7365742FED
S3150800C1D07274772F53544D33322F7372632F7469E9
S3150800C1E06D6572732E630000546D7220537663007A
S3150800C1F043616E4576656E745461736B000000008A
S3150800C20043616E5472616E736D69745461736B0029
S3150800C2102E2E2F626C6F636B7365742F7274772F73
S3150800C22053544D33322F7372632F53544D33325F49
S3150800C230453430372F63616E2E630000006400407A
S3150800C2400000000208000000000C02400100000087
S3150800C25008000000000C0240020001000913141532
S3150800C26016000000006800400000000402000000FC
S3150800C27000040240200005000200000000040240FD
S3150800C28040000600093F404142000000010102014A
S3150800C2900202020202030202040202030303040367
S3150800C2A0030503030603030504040604040704043C
S3150800C2B0080404070505080505080605080705080E
S3150800C2C007060808060808070808080045764368A8
S3150800C2D06E6C3100457643686E6C3200457643686D
S3150800C2E06E6C33002E2E2F626C6F636B7365742F22
S3150800C2F07274772F53544D33322F7372632F5354FE
S3150800C3004D33325F453430372F6D61632E6300003D
S3150800C3102E2E2F626C6F636B7365742F7274772F72
S3150800C32053544D33322F7372632F53544D33325F48
S3150800C330453430372F706F72742E63000000014049
S3150800C3400100000002010000100000000010024079
S3150800C35000020900100000000010024000080B004F
S3150800C3600004004002000000010200000100000075
S3150800C37000000240400006000200000000040240DF
S3150800C380200005000008004004000000010200002B
S3150800C39008000000000C024000100C000800000015
S3150800C3A0000C024000200D000004014002000000BD
S3150800C3B002030000040000000008024040000600D6
S3150800C3C0040000000008024080000700100000007A
S3150800C3D000100240000100000100080010000000E3
S3150800C3E0001002400004000101000A0010000000CD
S3150800C3F0001002400010000201000C00000001407D
S3150800C40001000000020119000000004001000000C0
S3150800C41001021C00000400400200000001021D0089
S3150800C420000800400400000001021E00000401404C
S3150800C4300200000002012C0000400140000001003B
S3150800C4400201180000440140000002000201190020
S3150800C450004801400000040002011A00001C0040C8
S3150800C4608000000001022C000020004000010000AE
S3150800C47001022D001000000000100240000200001A
S3150800C4800100090010000000001002400008000129
S3150800C49001000B00100000000010024000200002FE
S3150800C4A001000D00100000000010024000400003CB
S3150800C4B001000E00010000000000024020000100FB
S3150800C4C001000500010000000000024040000200D3
S3150800C4D002000600020000000004024020000201DB
S3150800C4E00200050008000000000C024000100300CE
S3150800C4F002000C0008000000000C024000200301A6
S3150800C50002000D000400000000080240400004007C
S3150800C5100300060004000000000802408000040131
S3150800C520030007001000000000100240200005006C
S3150800C530030005001000000000100240400005013D
S3150800C5400300060020000000001402404000060018
S3150800C55003000600200000000014024080000700C7
S3150800C5600300070020000000001402400001080034
S3150800C570090008002000000000140240000209001B
S3150800C580090009000400000000080240010000003C
S3150800C59020000000001402404000000020000000B7
S3150800C5A00014024080000000200000000014024031
S3150800C5B000010000200000000014024000020000F4
S3150800C5C020000000001402400004000002000000E1
S3150800C5D0000402408000000002000000000402403F
S3150800C5E04000000010000000001002400400000097
S3150800C5F010000000001002401000000010000000AB
S3150800C6000010024020000000100000000010024048
S3150800C61040000000400000000018024080000000B2
S3150800C6204000000000180240000100004000000021
S3150800C63000180240001000004000000000180240E8
S3150800C6400080000001000000000002401000000009
S3150800C6500200000000040240200000000100000063
S3150800C66000000240400000000100000000000240F7
S3150800C6702000000008000000000C02400100000035
S3150800C68008000000000C024002000000080000003C
S3150800C690000C02400400000008000000000C0240E4
S3150800C6A00800000008000000000C0240100000000E
S3150800C6B008000000000C02402000000008000000EE
S3150800C6C0000C02404000000008000000000C024078
S3150800C6D08000000008000000000C02400001000075
S3150800C6E008000000000C02400002000008000000DC
S3150800C6F0000C02400004000008000000000C024084
S3150800C7000008000008000000000C024000100000AD
S3150800C71008000000000C024000200000080000008D
S3150800C720000C02400040000008000000000C024017
S3150800C7300080000010000000001002400100000008
S3150800C7401000000000100240020000001000000067
S3150800C750001002400800000010000000001002400F
S3150800C76080000000100000000010024000010000D8
S3150800C7701000000000100240000200001000000037
S3150800C78000100240000400001000000000100240E3
S3150800C7900008000010000000001002400010000011
S3150800C7A010000000001002400020000010000000E9
S3150800C7B00010024000400000100000000010024077
S3150800C7C00080000020000000001402400100000064
S3150800C7D020000000001402400200000020000000B3
S3150800C7E0001402400400000020000000001402406B
S3150800C7F0080000002000000000140240100000009D
S3150800C8002000000000140240200000002000000064
S3150800C8100014024000080000200000000014024036
S3150800C8200010000020000000001402400020000054
S3150800C8302000000000140240004000002000000014
S3150800C840001402400080000040000000001802406A
S3150800C850010000004000000000180240020000002D
S3150800C86040000000001802400400000040000000DC
S3150800C87000180240080000004000000000180240AE
S3150800C88010000000400000000018024020000000D0
S3150800C8904000000000180240400000004000000070
S3150800C8A00018024000020000400000000018024084
S3150800C8B000040000400000000018024000080000C4
S3150800C8C04000000000180240002000004000000060
S3150800C8D0001802400040000001000000000002406D
S3150800C8E001000000040000000008024001000000EA
S3150800C8F02000000000140240400000002000000054
S3150800C90000140240800000002000000000140240CD
S3150800C9100001000020000000001402400002000090
S3150800C920200000000014024000040000020000007D
S3150800C93000040240800000000200000000040240DB
S3150800C9404000000010000000001002400400000033
S3150800C9501000000000100240100000001000000047
S3150800C96000100240200000001000000000100240E5
S3150800C970400000004000000000180240800000004F
S3150800C98040000000001802400001000040000000BE
S3150800C9900018024000100000400000000018024085
S3150800C9A000800000010000000000024010000000A6
S3150800C9B00200000000040240200000000100000000
S3150800C9C00000024040000000010000000000024094
S3150800C9D02000000008000000000C024001000000D2
S3150800C9E008000000000C02400200000008000000D9
S3150800C9F0000C02400400000008000000000C024081
S3150800CA000800000008000000000C024010000000AA
S3150800CA1008000000000C024020000000080000008A
S3150800CA20000C02404000000008000000000C024014
S3150800CA308000000008000000000C02400001000011
S3150800CA4008000000000C0240000200000800000078
S3150800CA50000C02400004000008000000000C024020
S3150800CA600008000008000000000C0240001000004A
S3150800CA7008000000000C024000200000080000002A
S3150800CA80000C02400040000008000000000C0240B4
S3150800CA9000800000100000000010024001000000A5
S3150800CAA01000000000100240020000001000000004
S3150800CAB000100240080000001000000000100240AC
S3150800CAC08000000010000000001002400001000075
S3150800CAD010000000001002400002000010000000D4
S3150800CAE00010024000040000100000000010024080
S3150800CAF000080000100000000010024000100000AE
S3150800CB001000000000100240002000001000000085
S3150800CB100010024000400000100000000010024013
S3150800CB200080000020000000001402400100000000
S3150800CB30200000000014024002000000200000004F
S3150800CB400014024004000000200000000014024007
S3150800CB500800000020000000001402401000000039
S3150800CB602000000000140240200000002000000001
S3150800CB7000140240000800002000000000140240D3
S3150800CB8000100000200000000014024000200000F1
S3150800CB9020000000001402400040000020000000B1
S3150800CBA00014024000800000400000000018024007
S3150800CBB001000000400000000018024002000000CA
S3150800CBC04000000000180240040000004000000079
S3150800CBD0001802400800000040000000001802404B
S3150800CBE0100000004000000000180240200000006D
S3150800CBF0400000000018024040000000400000000D
S3150800CC000018024000020000400000000018024020
S3150800CC100004000040000000001802400008000060
S3150800CC2040000000001802400020000040000000FC
S3150800CC3000180240004000000400000000080240FE
S3150800CC4000200000000001400100000002011B0056
S3150800CC50000000400100000001021C000004004022
S3150800CC600200000001021D00000800400400000048
S3150800CC7001021E00000401400200000002012E000D
S3150800CC800040014000000100020118000044014074
S3150800CC9000000200020119000048014000000400DB
S3150800CCA002011A00001C00408000000001022C004E
S3150800CCB0002000400001000001022D0010000000C5
S3150800CCC000100240000200000200020001000900F4
S3150800CCD010000000001002400008000104002000B7
S3150800CCE001000B00100000000010024000200002A6
S3150800CCF00800000201000D001000000000100240AC
S3150800CD00004000031000002001000E000100000092
S3150800CD100000024020000100020002000100050098
S3150800CD20010000000000024040000200020002006C
S3150800CD300200060002000000000402402000020172
S3150800CD40040020000200050008000000000C024054
S3150800CD50001003000200020002000C000800000098
S3150800CD60000C0240002003010400200002000D0010
S3150800CD70040000000008024040000400020002000F
S3150800CD8003000600040000000008024080000401B9
S3150800CD9004002000030007001000000000100240F5
S3150800CDA02000050002000200030005001000000034
S3150800CDB000100240400005010400200003000600A0
S3150800CDC02000000000140240400006000200020095
S3150800CDD0030006002000000000140240800007003F
S3150800CDE002000200030007002000000000140240B1
S3150800CDF000010800020002000900080020000000E7
S3150800CE00001402400002090002000200090009009D
S3150800CE10001001401000000002250000020000007A
S3150800CE200004024040000600020000000004024020
S3150800CE3080000700070000000044004000000200D0
S3150800CE400126000008000000000C02402000050032
S3150800CE5008000000000C0240400006000700000021
S3150800CE6000480040000004000127000008000000F8
S3150800CE70000C02400001080008000000000C0240F7
S3150800CE80000209000700000000140140200000000D
S3150800CE9002470000040000000008024040000600A7
S3150800CEA00400000000080240800007000800000097
S3150800CEB056435020436F6E666967000056435020FC
S3150800CEC0496E7465726661636500000053544D6966
S3150800CED063726F656C656374726F6E696373000065
S3150800CEE053544D3332205669727475616C20436F02
S3150800CEF06D506F727420696E204853206D6F64659B
S3150800CF000000000053544D3332205669727475611F
S3150800CF106C20436F6D506F727420696E20465320E3
S3150800CF204D6F6465000000003030303030303030EE
S3150800CF30303530420000000030303030303030308C
S3150800CF4030353043000000000000014001000000B9
S3150800CF5002011B00000000400100000001021C0045
S3150800CF60000400400200000001021D000008004005
S3150800CF700400000001021E00000401400200000037
S3150800CF8002012E00004001400000010002011800C5
S3150800CF900044014000000200020119000048014057
S3150800CFA00000040002011A00001C00408000000076
S3150800CFB001022C00002000400001000001022D00A3
S3150800CFC010000000001002400002000002000200EB
S3150800CFD001000900100000000010024000080001CE
S3150800CFE00400200001000B001000000000100240A1
S3150800CFF0002000020800000201000D0010000000D9
S3150800D00000100240004000031000002001000E003E
S3150800D010010000000000024020000100020002009A
S3150800D0200100050001000000000002404000020067
S3150800D030020002000200060002000000000402408E
S3150800D040200002010400200002000500080000007C
S3150800D050000C0240001003000200020002000C004F
S3150800D06008000000000C0240002003010400200014
S3150800D07002000D0004000000000802404000040001
S3150800D0800200020003000600040000000008024037
S3150800D09080000401040020000300070010000000BF
S3150800D0A000100240200005000200020003000500EF
S3150800D0B01000000000100240400005010400200096
S3150800D0C0030006002000000000140240400006008D
S3150800D0D002000200030006002000000000140240BF
S3150800D0E0800007000200020003000700200000007D
S3150800D0F000140240000108000200020009000800AE
S3150800D100200000000014024000020900020002008C
S3150800D110090009002E2E2F626C6F636B7365742FDE
S3150800D1207274772F53544D33322F7372632F717580
S3150800D1306575652E63000000040404004CD10008E0
S3150800D14054D100085CD100080707070045764368F4
S3150800D1506E6C3100457643686E6C320045764368DE
S3150800D1606E6C3300505050004FBB610567ACDD3F15
S3150800D170182D4454FB21E93F9BF681D20B73EF3FF0
S3150800D180182D4454FB21F93FE2652F227F2B7A3C68
S3150800D190075C143326A6813CBDCBF07A8807703C21
S3150800D1A0075C143326A6913CFB21F93FFB21094075
S3150800D1B07CD91240FB2119407A6A1F407CD922404B
S3150800D1C0BBFD2540FB2129403A462C407A6A2F4070
S3150800D1D05C4731407CD932409C6B3440BBFD3540BE
S3150800D1E0DB8F3740FB2139401BB43A403A463C4076
S3150800D1F05AD83D407A6A3F404C7E40405C474140A1
S3150800D2006C1042407CD942408CA243409C6B4440FF
S3150800D210AC344540BBFD4540CBC64640DB8F474056
S3150800D220EB584840FB21494083F9A200444E6E0062
S3150800D230FC291500D1572700DD34F50062DBC00054
S3150800D2403C999500419043006351FE00BBDEAB005C
S3150800D250B761C5003A6E2400D24D42004906E00087
S3150800D26009EA2E001C92D100EB1DFE0029B11C0014
S3150800D270E83EA700F535820044BB2E009CE98400F1
S3150800D280B4267000417E5F00D69139005383390079
S3150800D2909CF439008B5F840028F9BD00F81F3B0019
S3150800D2A0DEFF97000F980500112FEF000A5A8B0032
S3150800D2B06D1F6D00CF7E360009CB2700464FB7009D
S3150800D2C09E663F002DEA5F00BA277500E5EBC700AA
S3150800D2D03D7BF100F739070092528A00FB6BEA00A2
S3150800D2E01FB15F00085D8D00300356007BFC4600C9
S3150800D2F0F0AB6B0020BCCF0036F49A00E3A91D0002
S3150800D3005E619100081BE60085996500A0145F0020
S3150800D3108D40680080D8FF0027734D00060631004F
S3150800D320CA561500C9A873007BE260006B8CC00062
S3150800D33000000040FB21F93F000000002D44743E28
S3150800D340000000809846F83C0000006051CC783B0D
S3150800D35000000080831BF0390000004020257A3841
S3150800D360000000802282E336000000001DF36935C4
S3150800D3700200000003000000040000000600000090
S31508010000002A2CDD01231A460130C0B2022802D982
S315080100100A700020704791F800C010B5164C0CF014
S31508010020030E04EB8E0E154C1EF80330205C0342BA
S3150801003012D01CF0080F4FEA9C000BD1C40613D44A
S3150801004042EA830213F0380F0A7018BF4FF0FF30E7
S315080100500DD010BD5C07F1D50A70002010BD9217AE
S3150801006002F002021346CFE79806F5D4E8E713F043
S31508010070070018BF012010BD5CC0000858C0000861
S315080100800B78FF2B00D070474B78002BFBD102F081
S31508010090C5BD00BF08B5012001F054FFBDE8084001
S315080100A0024A40F26761002004F00EBE8100010891
S315080100B000F03AB9704700BF2DE9F041224D234AB5
S315080100C095F83430224C1370002B3AD094F8473106
S315080100D00133DBB21F4994F84A210B701E491F4EA2
S315080100E084F847319A420A7094BF4FF001084FF0DD
S315080100F0000817D8737B012B14D0194B94F8497152
S31508010100D3E900010DF080F8C0B2B84288BF7B1C64
S31508010110144A8CBFDBB2012384F8493113700023DA
S3150801012084F84731072086F80D8007F055FB00F55E
S315080101307A7081B269800322BDE8F041072007F091
S315080101409FBA94F84731C5E7280300207D020020AD
S3150801015008040020EC0200206E060020600600203C
S31508010160580000206F060020704700BF2DE9F047B0
S315080101702DED028B537A08EE100A8AB00F460BB1A1
S3150801018000235372D56A2B68012B00F08380002265
S31508010190012305F10C0C4FF07E51AA6029636A63AD
S315080101A060462B602B71242200210DF0B3F901AEB4
S315080101B084460446B04605F12C0920686168A268A0
S315080101C0E3681034C6464C45AEE80F0008F110083E
S315080101D0F3D1DFED547A2068C8F8000038EE277AA3
S315080101E0F0EE676AC7ED007A4FF00009F7EE007A7C
S315080101F00AAB03EB890313ED096A37EE066A4FEA80
S315080102008909F2EE025A09F12803F4EE657A0DEB33
S315080102100309F1EE10FA09ED098A71D0F7EE005AD1
S3150801022077EEA57A0DF12408F5EE406AF1EE10FA9B
S3150801023005D1B2EE045AC6EE055AC7ED005A85ED48
S31508010240027A3446A646BEE80F00C6450CF1100CE4
S3150801025074464CF8100C4CF80C1C4CF8082C4CF84D
S31508010260043CEFD1F5EEC06ADEF80000CCF80000D8
S31508010270F1EE10FAC5ED0C7AC6BFF7EE007A76EE06
S31508010280E76ADFED286AC5ED0D6A0AB0BDEC028B97
S31508010290BDE8F087D5ED0C7AD5ED0D6ABDEEE77AA6
S315080102A005F10C0C17EE109A01AE95ED027A09F1DB
S315080102B0FF39E646B04605F12C0ADEF80000DEF8FD
S315080102C00410DEF80820DEF80C300EF1100E444654
S315080102D0D6450FC408F11008EFD19FED126ADEF872
S315080102E00000C8F80000F4EE466AF1EE10FA37EE9F
S315080102F0087A87ED006A3FF47BAF4FEA890980E700
S315080103000DF12408434673ED017A93ED017A77EEF0
S31508010310877A9E42C3ED007AF5D19FED027AF7EE10
S31508010320007A81E7000000002DE9F04F2DED088BDA
S31508010330D04C99B0D4E92401002200230CF00AFF1D
S31508010340002840F0A68794F86731002B40F04587CE
S3150801035094F84631002B00F04787C74DFF2395F8DF
S315080103602DA084F84331C54984F846A1D1E9000195
S31508010370002200230CF0EEFE18B9BAF1010F01F0C4
S31508010380018194F8513100229B1A049218BF012366
S31508010390039285F83430BA4B1B7807EE903AF8EE9B
S315080103A0E77AB1EE047AF4EE477AF1EE10FA00F044
S315080103B00182B2EE047AF4EE477AF1EE10FA00F011
S315080103C0F981DFF8E4B200238BF80C30AD4E8BF8D7
S315080103D00B303378DFF8D492002B00F0588607EEFD
S315080103E090AAA74BF8EEE77A1B78F0EE006A07EEBB
S315080103F0103AF4EE667A0126F1EE10FAB8EEC77AEB
S3150801040084F85E6100F03087B7EE006AF4EE467A4A
S31508010410F1EE10FA41F04D8194F8666116B10026A5
S3150801042084F86661B4EE667AF1EE10FA40F03E871A
S315080104309BF80A20012A41F02283F7EE006AF4EEBE
S31508010440667AF1EE10FA8BF80A2000F03287F0EEA0
S31508010450087AB4EE677AF1EE10FA41F04381002E7C
S3150801046041F04785884B0096884F1968012384F81F
S31508010470653132463B46304604F0E2FB002841F33B
S31508010480C4847B7885F8CA30BB7885F8CB30FB788D
S3150801049085F8CC30BB7985F8CD303B7885F8C930FD
S315080104A0774B94F846A11B780022BAF1010F8BF815
S315080104B0092000F02487012B01F0358494F8642182
S315080104C0002A41F0F382724900220A7007EE903A37
S315080104D0B8EEE78A07EE90AAF8EEE78AF1EE087A0F
S315080104E0B4EE678AF1EE10FA8BF8072000F09187CF
S315080104F094F86331002B41F0DE820023F1EE0C7A89
S31508010500B4EE678AF1EE10FA8BF8063040F02787C9
S31508010510F0EE087AF4EE678AF1EE10FA41F0DF8020
S315080105209BF80530012B41F042828BF8053094F88F
S315080105306231002B41F0CE800023F1EE0C7AB4EE45
S31508010540678AF1EE10FA8BF8043007D1F0EE087AD3
S31508010550F4EE678AF1EE10FA41F0B28294F861314D
S3150801056013B1002384F86131454B94F846A11B78F1
S3150801057007EE903AF8EEE77AF2EE006A07EE10AA6D
S31508010580F4EE667AF1EE10FAB8EEC77A40F0BF8754
S31508010590F1EE006AB4EE667AF1EE10FA01F0138113
S315080105A03C4B3D4E19680022012384F860310092C4
S315080105B03346104604F044FB002841F31E843749AC
S315080105C0737932787778B0780B70B179AA75EF7547
S315080105D02876697684F84E311302294AA5F86A30D5
S315080105E01F444B08127894F846A185F8683085F8B7
S315080105F061308B0885F86730CB0807EE902A07EE3D
S3150801060010AA85F866300B0985F865304B09000292
S3150801061085F86430F8EEE77A8B09B8EEC77AC90926
S31508010620A4F8D470A5F86C0085F8633085F86210D3
S315080106300023F2EE026AF4EE667AF1EE10FA8BF80E
S31508010640033040F06E87F1EE047AB4EE677AF1EE84
S3150801065010FA01F04181124B124E1968002201234A
S3150801066084F85F3100923346104604F0E9FA00280F
S315080106701EE000BF0804002028030020080000200F
S315080106806F0600207D02002020000020880200203D
S315080106907A02002034000020B00200207B020020EC
S315080106A038000020B8020020600600205806002005
S315080106B03A4B41F39783777932787078B1781F701E
S315080106C0B379EA7228736973AB7312021044A5F8F9
S315080106D052205A0885F8502085F849209A0885F845
S315080106E04F20DA0885F84E201A0985F84D205A094F
S315080106F0090285F84C2094F846A184F84D719A09A7
S31508010700DB09A4F8D200A5F8541085F84B2085F822
S315080107104A3000238BF80230039B53B19BF8013012
S31508010720012B06D01E4B1B7884F84A31002384F826
S315080107304731049B8BF80130BAF1010F04D994F8BB
S315080107405121002A00F0F78694F85D31002B40F01C
S31508010750D784BAF1030F40F2DA84FF2384F84431CF
S3150801076002F05EFA0F4B187002F060FA0E4B024661
S315080107700E481A6002F05CFAD9F800300C4A0133C7
S315080107801060C9F8003023B9D9F804300133C9F823
S31508010790043019B0BDEC088BBDE8F08F7C0200204F
S315080107A0680000206A0200206C020020ACC0000824
S315080107B070020020DFF8D0B39BF80C30012B00F053
S315080107C02482D4E92601DC4BC3E900010AF0BAFD0B
S315080107D0DA4BD3E904230CF055FA0022D84B0CF076
S315080107E051FAD84BB4F8DC6041EC1B0BB4F8DE00C7
S315080107F01880D54B301A1E80D44B80B218800CF065
S31508010800C7F9804689460AF053FD02460B4640461B
S31508010810494643EC1A2B0AF07BFCCD4B41EC190BEC
S31508010820002251EC1B0B0CF02DFA53EC1A2B0CF091
S3150801083029FAC84B80468946002251EC190B0CF05F
S3150801084021FA02460B46404649460CF065F802462F
S315080108500B46304643EC182B0CF09AF902460B4628
S31508010860002000210CF056F8BB4B80468946C3E9A7
S31508010870008951EC190BB64B00220CF003FA53EC24
S315080108801B2B0CF0FFF9B34B06460F46002251EC21
S315080108901A0B0CF0F7F902460B46304639460CF0AE
S315080108A039F8A64B0F4619460646D3E90223D1E97C
S315080108B000010CF0E7F932463B460CF0E3F906462F
S315080108C00F46404649460AF0F3FC02460B464046A7
S315080108D0494643EC192B0AF01BFC002241EC1A0B82
S315080108E0002351EC180B0CF03FFC002840F06786FA
S315080108F051EC180B002200230CF054FC4FF00008B1
S31508010900002801F06082DFF88492914BB0EE4ABA72
S31508010910F0EE6ABA51EC1A0B00220CF0B3F9324622
S315080109203B460CF0AFF947EC1A6B53EC192B06460C
S315080109300F4651EC180B0CF0A5F902460B4630464A
S3150801094039460BF0E7FF7D4B0646D3E906230F46EA
S31508010950404649460CF096F902460B46304639465A
S315080109600CF090F97D4B00220CF08CF9784B8046FF
S315080109708946002251EC1A0B0CF084F953EC192B19
S315080109800CF080F953EC1B2B06460F4651EC180B5D
S315080109900CF078F902460B46304639460BF0BCFF97
S315080109A002460B46404649460CF096FA0CF04CFCBA
S315080109B00CF010F90AF020FA0CF046FC9FED687A63
S315080109C0684B07EE900A67EE877A186017EE900A69
S315080109D00CF000F9644B80468946C3E90089D4F8CE
S315080109E0BC000CF0E5F850A3D3E900230CF04AF952
S315080109F05E4B06460F4640464946C3E900670AF07C
S31508010A00DBFB02460B463046394616461F460AF0B8
S31508010A10D3FB02460B46304639460BF07BFF94ED75
S31508010A201E7B534A534BB0EE478AF0EE678A8046DF
S31508010A30894621F00047C2E90089B0EE47AAF0EEDF
S31508010A4067AAD3E90023394606460CF01BF953EC8D
S31508010A50182B0BF061FF02460B4643EC182B34A307
S31508010A60D3E90023B0EE489AF0EE689A0CF09AFBA7
S31508010A70002841F0488151EC180B002200230CF0A4
S31508010A8073FB002841F0B58151EC180B0CF0BCFB47
S31508010A9000F5FA7083B2384A3849A4F8D0300B8089
S31508010AA092ED008B00230022494640460CF07AFB62
S31508010AB0334B021E18BF01221A70059251EC180B0E
S31508010AC032463B460CF050FB002801F007814046B0
S31508010AD04946002200230CF065FB002801F06781D6
S31508010AE0284B4FF0000883F80080012384F852311F
S31508010AF084F8538159EC198B0DA3D3E9002319EE18
S31508010B00100A49460CF04EFB002801F0D38019EE75
S31508010B10100A07A3D3E9002349460BF0FBFE41EC73
S31508010B20190B35E0AFF30080000080999999B93F18
S31508010B300000000000C072402003002000C0000829
S31508010B400000D03F7A0600207806002068020020BF
S31508010B50000010400000E03F60020020000008404D
S31508010B6066663642DC02002070060020000300207B
S31508010B70D00200206000002040000020F40200207E
S31508010B80D8020020C8020020600600200000F03FBD
S31508010B90CF4B3046D3E9002339460CF073F80022CF
S31508010BA0002306460F4651EC190B0CF0FBFA0022FE
S31508010BB00023002801F04A81304639460CF0F2FA42
S31508010BC0002841F0538132463B4651EC1A0B0BF093
S31508010BD0A3FEDFF84C934FF0000842464B46064603
S31508010BE00F460CF0D5FA002840F0E3874FF00008CD
S31508010BF04FF000093046394642464B460CF0BEFADC
S31508010C00002840F0D687C4E91E679BF80B300122FD
S31508010C1093428BF80C203FF4D9ABDFF80893D4F84C
S31508010C20C030D9F80020AB49C4F8C020D21A94F8CC
S31508010C30E230A9480B70D9F80410A84EC4F8C410BC
S31508010C4094F8E410A64F017094F8ED00DFF8D8C2C5
S31508010C50307094F8FD603E7094F816718CF8007047
S31508010C6063B1002901F0AC80002801F03481002E1F
S31508010C7001F05381002F0CBF00230423994EF1186C
S31508010C8094F85B31CB5C0993002B40F08084DDF846
S31508010C9024A0954BB4F8D80083F800A0934BB4F878
S31508010CA0D6101880924B84F854A11980431A1BB2A6
S31508010CB0002BBCBF0B1A1BB2B3F5FA7F069040F3A3
S31508010CC0848794F83931002B0CBF00230423B4F828
S31508010CD0D210B4F8D40033444FF28A4606FB01F128
S31508010CE0890DA4F8DE1094F85C115B5C0B9306FB86
S31508010CF000F084F85531D4F8BC300A93800DA4F875
S31508010D00DC001846D4F8A030B4F8C810A4F8D610F8
S31508010D10834200F0FC874FF0000A0699B4F8CC30FC
S31508010D2001EB81014900B1FBF2F292B2D31A9BB2EF
S31508010D3008EE103A0C926F4B18EE102A1A80637A55
S31508010D4094F858210D920BB100236372D4F82C80C4
S31508010D50D8F80030012B00F0F6860023C8F80830D1
S31508010D60C8F834300123C8F8003088F804304FF049
S31508010D707E5208F10C03C8F83020184624220021B7
S31508010D800CF0C8FB0DF13C0C08F12C030890064643
S31508010D90E6460593F36830687168B26877460FC707
S31508010DA0059B10369E42BE46F4D1DFED535A534A8F
S31508010DB030683860F8EE487A002337EEA56AF0EE17
S31508010DC0656AB7EE007AC2ED005A0793079918AB20
S31508010DD003EB810353ED095A76EE255A8B006033EE
S31508010DE06B4443ED097AF2EE027AB4EE677AF1EED4
S31508010DF010FA00F04D87F7EE007A37EE277A17AF2B
S31508010E00F5EE406AF1EE10FA05D1B2EE045AC5EED6
S31508010E10857AC2ED007A089E88ED026AE646BEE842
S31508010E200F00BE4506F110060CF1100C46F8100C21
S31508010E3046F80C1C46F8082C46F8043CEED1F5EEAB
S31508010E40C06AF1EE10FAC6BFF7EE007A76EEE76AE7
S31508010E50DFED296ADCF800003060002188ED0C7AA4
S31508010E60C8ED0D6A042001F015FC07EE900A244E20
S31508010E70244A25493080F8EE677A17EE900AFFF77B
S31508010E8075F9D5ED367A3388A4F8D830FCEEE77AC9
S31508010E901E4A17EE903A00219BB205201380A4F84A
S31508010EA0CE3001F0F7FB07EE900A194B1949188065
S31508010EB0F8EE677A184A17EE900AFFF757F9D5ED53
S31508010EC0357A164AFCEEE77A472017EE903A2DE076
S31508010ED050000020EE020020EF020020F002002060
S31508010EE0F102002048C00008F60200201C03002079
S31508010EF0EA020020E002002000000000E4020020CF
S31508010F0076020020E4050020000400200A030020E0
S31508010F1078020020FC030020700500201003002041
S31508010F200000594058060020F20200209BB21380A7
S31508010F30A4F8DA3005F08EFDBD4B84F848011B781C
S31508010F4084F85831BB4BD3E90001B7A3D3E9002391
S31508010F500BF098FE95F83530C4E92601002B40F0D0
S31508010F601187012005F0C4F9B34BC4F8BC00186019
S31508010F7000220023D4E91C010CF0F6F8AF4E003824
S31508010F80337818BF012085F83500002B00F07086EC
S31508010F90B4F8D0302B80B4F85231EB8694F8463148
S31508010FA094F85271012B00F0708694F85721002AA3
S31508010FB000F0E586023B18BF0123A14985F83830C0
S31508010FC0082294F8E33084F8E230481E84F8E3A056
S31508010FD00CF024FA9B4984F8ECA00F22481E0CF069
S31508010FE01DFA994984F8FCA01822481E0CF016FA35
S31508010FF0964984F815A12222481E0CF00FFA944945
S31508011000099B84F85B310922481E84F838A10CF043
S3150801101005FA90490D9B84F8423118220B9B84F8F6
S315080110205C31081F0CF0FAF90A9BC4F8B8300C9B1E
S31508011030A4F8CC30B4F8CA30A4F8C830069BA4F892
S31508011040CA3000220023C4E91C23002F40F0EF8593
S3150801105039460A2005F04CFD95F8371001B10121F2
S315080110600B2005F045FD2988102005F0CFFB95F8E2
S31508011070381001B10121472005F03AFD01238BF80B
S315080110800B30337894F846A1002B7FF4A8A994F87D
S315080110905E21002A3FF440AB94F866210AB184F830
S315080110A0663194F8653113B1002384F8653194F8F3
S315080110B0643113B1002384F8643194F8633113B1B0
S315080110C0002384F8633194F8623113B1002384F85C
S315080110D0623194F8613113B1002384F8613194F8CF
S315080110E0603113B1002384F8603194F85F3113B18C
S315080110F0002384F85F31002384F85E31FFF70CBBC7
S315080111000023BAF1030F84F85D313FF626AB94F854
S315080111104B3194F84C11504A012B28BF0123012960
S3150801112094BF5B1801334720002184F844111370DA
S3150801113005F090FC002800F0328294F84D21474BC7
S31508011140002AD3E900014FF000024FF0000314BF53
S31508011150022600260BF0FEFFB0FA80F0400983193B
S315080111603F4E94F8592106EB43030746995C94F8D8
S315080111704C31012B00F07E86002940F098860A46FC
S315080111800B4685F82E2095F8322052001A4494F819
S315080111904E31C2F3470285F8302003B1871C06EBAE
S315080111A0470394F85A01185C94F84B31012B00F067
S315080111B07086002840F07F860346064685F82F305C
S315080111C095F833305B003344C3F3470384F8591168
S315080111D084F85A0185F83130E5E194F8463184F806
S315080111E06701002B7FF4B9A80E2084F8433105F076
S315080111F031FC8246BAF1000A4FF00F0018BF4FF0D2
S31508011200010A05F027FC08B10AF1020A102005F0C7
S3150801121021FC18B10AF1040A5FFA8AFA114D85F818
S315080112202DA0FFF7A0B800BF000000401BB98E3FF4
S31508011230E802002048000020F80200207D02002074
S31508011240ED040020F6040020060500201F050020F5
S3150801125042050020AC04002074020020180000207A
S3150801126048C000082803002094F85721002A00F0F6
S315080112702082B4EE667AF1EE10FA40F0D88594F839
S315080112806621002A3FF4D4A8002284F86621FFF7D4
S31508011290CFB8CE4F0026012103220720C4E92467CF
S315080112A084F8671106F0ECF9FFF752B800268BF8B7
S315080112B00A6094F86521F0EE087A12B1002284F8E2
S315080112C06521B4EE677AF1EE10FA7FF4EDA89BF882
S315080112D00920012A3FF4E9A8BD4BBE4A002011683E
S315080112E01870012203F07CFA94F846A1BA4B012240
S315080112F0BAF1010F1B788BF809207FF4DCA894F862
S31508011300642112B1002284F86421012B7FF4DBA841
S315080113109BF80720B14E01218A4231703FF4D6A8C5
S31508011320B4F8E020AE4FAA4B3A8001325970A4F8BE
S31508011330E020AC4994F84A211A70002085F82C203F
S315080113404FF080725A6058800822096803F048FAFB
S31508011350A14B32781B7894F846A1FFF7B7B8F0EE9F
S31508011360687AB0EE487A0023F1EE006AB4EE667A3E
S31508011370F1EE10FA8BF805307FF4D9A8B7EE007AAA
S31508011380F4EE477AF1EE10FA00F0B681964B974ED5
S3150801139019680022012384F8623100923346104607
S315080113A003F04EFC002840F3368531787778B27819
S315080113B0F078B67985F8931085F8947085F89520B4
S315080113C085F8960085F89760130209021844A5F86E
S315080113D09A30874BA5F898100F441F80854B1880C3
S315080113E0730885F8923085F88B30B30885F8913003
S315080113F0F30885F89030330985F88F30730985F835
S315080114008E30B309F60985F88D3085F88C60FFF7BB
S3150801141093B8F0EE007AF4EE678AF1EE10FA40F02E
S31508011420F98094F8633113B1002384F863319BF88A
S315080114300630012B3FF462A86F4994F8552191F8BB
S315080114403C3094F8546152009B00D2B2DBB2981832
S3150801145085F8B12091F83D2085F8B23091F83E30F3
S31508011460D200D2B230441B0185F8B020DBB2024467
S3150801147085F8AF30134491F83F20B4F8DA005201E9
S31508011480D2B2134485F8AE2091F8402091F8411064
S315080114909201D2B2C901C9B2134485F8AD20CA185E
S315080114A0B4F8DA3085F8AC101B0AA5F8AA30B4F8F6
S315080114B0CE30B4F8CE101B0AA5F8A830444B49BA69
S315080114C01980D2B240BA69854C4958809A7185F813
S315080114D02720288594F847211A710020587184F825
S315080114E0560185F82620D8710822096803F078F98B
S315080114F0394B1B7808EE103A94F8463108EE903AC3
S31508011500B8EEC88AF8EEE88A0123FEF7F7BF94F821
S315080115106031002B3FF48CA8002384F86031FFF773
S3150801152087B894F85F31002B3FF4F3A8002384F8B9
S315080115305F31FFF7EEB8012384F85D31304E294B50
S31508011540009219681046334603F07AFB021E0EDD37
S31508011550737885F83A30B37885F83B30F37885F8AF
S315080115603C30B37985F83D30337885F839302549EB
S315080115700120FEF745FD002840F0098494F846A1AC
S31508011580FFF7E7B8CDE903AA5346FEF702BFAAF16A
S31508011590010ABAFA8AFA4FEA5A1AFFF77ABB95F894
S315080115A0302095F83130184992090A70174984F89C
S315080115B04B219B090B7084F84C31FFF7D1B8DFF842
S315080115C050904FF00008FFF7A0B900BF0000F03FA8
S315080115D0C0020020200000206F0600207A020020A9
S315080115E07C06002024000020280000209802002004
S315080115F00C0300200E03002000C000082C00002068
S31508011600900200206006002009030020080300203C
S315080116100000F0BFA64BA74E19680022012384F8E3
S31508011620633100923346104603F00AFB002840F363
S31508011630CE8331787778B278F078B37985F8BB10AC
S3150801164085F8BC7085F8BD2085F8BE0085F8BF30E1
S31508011650120209021044A5F8C220974AA5F8C0103B
S315080116600F441780954A1080954A127808EE102A79
S3150801167094F8462108EE902A5A0885F8BA2085F882
S31508011680B3209A0885F8B920DA0885F8B8201A0926
S3150801169085F8B7205A0985F8B6209A09DB09B8EE04
S315080116A0C88AF8EEE88A85F8B52085F8B430FEF7D9
S315080116B024BFF0EE006AB4EE667AF1EE10FA00F095
S315080116C0878294F8666116B1002684F8666100225D
S315080116D0FEF7B3BE002384F86231FEF72DBF00235F
S315080116E0FEF723BF94F86521002A3EF4DDAE0022F9
S315080116F084F86521FEF7D8BE94F86231002B40F0D4
S31508011700E6839BF80430012B3EF417AF6D4994F834
S31508011710550191F8306091F8312094F854714300DD
S31508011720B600DBB2F6B285F88A6085F889301E44C0
S3150801173091F83230D200D2B23E441B0185F8882096
S31508011740DBB2324485F88730134491F83320B4F874
S31508011750DA605201D2B2134485F8862091F8342012
S3150801176091F835109201D2B2C901C9B2134485F86C
S315080117708520CA18B4F8DA3085F884101B0AA5F84A
S315080117808230B4F8CE30B4F8CE101B0AA5F88030F2
S315080117904D4BD2B29A7149BAEA764C4A1980E98315
S315080117A04B49107076BA94F847211A7100205E8069
S315080117B05871AA76AE830822D871096803F010F821
S315080117C00123FEF7BABE94F86031002B40F07B8303
S315080117D09BF80330012B3EF42CAF3A4994F8552176
S315080117E091F8293091F82F6052009B00D2B2DBB2F2
S315080117F0981885F85F2091F82A2085F8603091F8C5
S315080118002B30D200D2B230441B0185F85E20DBB200
S31508011810024485F85D30134491F82C20B4F8DA00B7
S315080118205201D2B2134485F85C2091F82D2091F823
S315080118302E109201D2B2C901C9B2134485F85B20B0
S31508011840CA18B4F8DA3085F85A101B0AA5F85830C0
S31508011850B4F8CE30B4F8CE101B0AA5F856301A4B98
S3150801186040BA49BA198058806882A982194894F8F9
S3150801187047111971D2B2E97394F8481159716A740A
S3150801188029749A7101680020D871082202F0A8FF0C
S315080118900B4B94F846A11B7807EE10AA07EE903A6F
S315080118A0B8EEC77AF8EEE77A0123FEF7C2BE00BFA3
S315080118B02C000020A002002012030020140300209F
S315080118C06F06002000C00008C00200201A0300208D
S315080118D0280000203400002094F85F31002B40F0E6
S315080118E0EE829BF80230012B3EF414AFD34994F8EB
S315080118F0550191F8223091F8232091F8286040008B
S315080119009B00DBB2C0B285F8470085F84830184419
S3150801191091F82430D2003044D2B21B0185F8462012
S31508011920DBB2024485F84530134491F82520B4F812
S31508011930CE00C34E5201D2B2134485F8442091F821
S31508011940262091F827109201D2B2C901C9B21344CF
S3150801195085F84320CA18B4F8DA302B721B0AA5F8A1
S315080119604030EB71B4F8CE3085F84210AB72B4F85A
S31508011970DA101B0AEB876B72B24B49BA40BA188068
S31508011980598094F8470194F848116971D2B2AA713D
S3150801199028711871002059719A71D8713168082215
S315080119A002F01EFF94F846A10123FEF7B3BEA34930
S315080119B094F8552191F8363094F8546152009B00F9
S315080119C0D2B2DBB2981885F8A52091F8372085F8A8
S315080119D0A63091F83830D200D2B230441B0185F8CE
S315080119E0A420DBB2024485F8A330134491F83920C8
S315080119F0B4F8DA005201D2B2134485F8A22091F85C
S31508011A003A2091F83B109201D2B2C901C9B21344E6
S31508011A1085F8A120CA18B4F8DA3085F8A0101B0A8F
S31508011A20A5F89E30B4F8CE30B4F8CE101B0AA5F846
S31508011A309C30844B49BA1980D2B240BAA9848249EA
S31508011A4058809A7185F82120688494F847211A717B
S31508011A5000205871D87185F820200968082202F0FB
S31508011A60BFFE7A4B1B7807EE103A94F8463107EE1B
S31508011A70903AB8EEC77AF8EEE77A012374E4714B27
S31508011A80734A002011681870012202F0A9FE6F4BF3
S31508011A9094F846A11B7807EE903AB8EEE77A07EE76
S31508011AA090AA0122F8EEE77AFEF7C7BC002284F86D
S31508011AB06421FEF708BD002384F86331FEF71DBDD6
S31508011AC0614B644E19680022012384F86131009242
S31508011AD03346104603F0B4F8002840F3FF81317805
S31508011AE07778B278F078B37985F8761085F87770D3
S31508011AF085F8782085F8790085F87A301202090286
S31508011B001044A5F87E20544AA5F87C100F44178086
S31508011B10524A10805A0885F8752085F86E209A0869
S31508011B2085F87420DA0885F873201A0985F8722071
S31508011B305A0985F871209A09DB0985F8702085F814
S31508011B406F30FEF711BD98ED0C7A98ED026AD8ED63
S31508011B500D6AFDEEC77A0DF13C0C17EE903A013B82
S31508011B60079308F10C0308931E4608F12C03E64671
S31508011B700593F36830687168B26877460FC7059BA5
S31508011B8010369E42BE46F4D1DFED355A354A3068E5
S31508011B903860F8EE487AF4EE656AF1EE10FA37EE37
S31508011BA0866AC2ED005A3FF411A9079B9B00FFF70D
S31508011BB016B99BF80B3001229342C4E91E898BF8AA
S31508011BC00C207FF42AA8FEF701BC0023FFF77FB893
S31508011BD094F856311E4A244F1168244A013B18BF0E
S31508011BE00123002684F8573100961370012384F8DF
S31508011BF0663132463B46304603F022F8134B94F8D9
S31508011C0046A11B7807EE903AB8EEE77A07EE90AA56
S31508011C10B042F8EEE77A7FF75AAD7A88A5F8D02070
S31508011C20BA7985F8D2203A88A5F8CE204FE5012160
S31508011C300A2004F05DFFFFF70FBA00BF00C00008D5
S31508011C4038000020C0020020300000206F06002066
S31508011C5010000020A8020020160300201803002007
S31508011C6000000000E402002080020020ED020020AE
S31508011C70AB4B1A8C93F842702A80B3F8422094F839
S31508011C804631EA86012B7FF490A90023FFF795B91F
S31508011C9017AF3B4673ED017A93ED017A77EE877AB2
S31508011CA09C45C3ED007AF5D19FED9E6AB7EE007AA1
S31508011CB0FFF7A6B851EC190B002200230BF068FABE
S31508011CC000283EF465AF984B30463946D3E90023E0
S31508011CD00AF0D8FF06460F46FEF775BF059B83F047
S31508011CE00108924B83F80080002384F8523151ECA5
S31508011CF0180B32463B460BF037FA002808BF4FF05F
S31508011D000008FEF7F5BE4FF44873FEF7C4BEB4F8F3
S31508011D10D01040F28A23994294BF4FF0000A4FF03F
S31508011D20010AFEF7FABF002E40F0ED8084F864310F
S31508011D307F4F804B0096196832463B46304602F083
S31508011D407FFF021E05DDBB7985F8C8303B68C5F8FB
S31508011D50C43079490120FEF753F950B1012384F8BB
S31508011D60473184F8493184F8563195F8C43084F8F6
S31508011D704A31724B94F846A11B78FEF7A4BB01239E
S31508011D80FFF71BB9012004F0C3FAFFF7EAB895F883
S31508011D90392084F84A210123002294F846A184F8BF
S31508011DA0472184F8513184F84931FEF7D2BC5F4B9B
S31508011DB084F852014FF0010883F80080FEF798BEB7
S31508011DC00B46FEF75BBF4FF00009FEF79EBD95F87F
S31508011DD0BB1095F8BC7095F8BD2095F8BE0095F82E
S31508011DE0BF3035E41F78EA7A287B697BAB7BFEF73F
S31508011DF06CBC4FF4FA73FEF74EBE514BAA7D1B78A5
S31508011E00EF7D287E697EFEF7E5BB4C4B94F846A12B
S31508011E101B78FEF749BB95F8931095F8947095F8D9
S31508011E20952095F8960095F89760FFF7CDBA94F83E
S31508011E306621002A3FF44BACB4EE667A0022F1EE35
S31508011E4010FA84F866213EF4F3AA40E4304639468E
S31508011E500BF0A8F900287EF4B6AE51EC190B002256
S31508011E6000230BF077F900287EF4ADAE0026002793
S31508011E70FEF7A9BE00290CBF0B46802385F8323030
S31508011E8008BF0A4695F82E3018BF4FF48072FFF73F
S31508011E907DB900280CBF0346802385F8333095F8B1
S31508011EA02F600CBF03464FF48073FFF78CB980236C
S31508011EB01A46FFF766B980263346FFF77FB900232E
S31508011EC084F85F310DE5002384F8603180E400234E
S31508011ED084F8623115E40346FEF7D0BE95F876100C
S31508011EE095F8777095F8782095F8790095F87A300D
S31508011EF004E694F86521002A3FF4E9A9002284F84A
S31508011F006521FFF7E4B994F86421002A3FF400AA91
S31508011F10002284F86421FFF7FBB93346FEF7AEBE0B
S31508011F2000C000080000000050000020C802002080
S31508011F309002002024000020680600206F06002079
S31508011F407B020020F0B5082185B0402002F084F913
S31508011F500020854C02F000FE8449032005F0D4FADE
S31508011F60FF2702210E2084F8437104F03DFD02216A
S31508011F700F2004F039FD0221102004F035FD7C49BB
S31508011F80072005F057FC2346002543F8385F01264C
S31508011F90C4E90C66E3622946666026810420257039
S31508011FA000F0F6FA04F50573C4E9836684F84C6211
S31508011FB0C4F808322946C4F8E061A4F8E4610520AA
S31508011FC084F8DC51C4F8145200F0E2FA04F5D0732F
S31508011FD0C4F89431C4E9666684F8D8610221C4F864
S31508011FE06C61A4F87061472084F86851C4F8A0515F
S31508011FF004F0FAFC3046294604F0F2F831460A2084
S3150801200004F044FD31460B2004F040FD31464720DB
S3150801201004F03CFD2A4642F60D01092004F094FA23
S315080120205449554E092004F037FC2A462946102002
S3150801203004F01CFB514B2846196802F0D5FD504B9C
S315080120402846196802F0D0FD3168284602F0CCFD11
S315080120504C4B2846196802F0C7FD4B4B28461968B0
S3150801206002F0C2FD494B2846196802F0BDFD484BEE
S315080120702846196802F0B8FD464B2846196802F049
S31508012080B3FD3168284602F0AFFD0221472084F8E6
S31508012090447104F0A9FC4FF4197000F0CDFB4FF41C
S315080120A07A7000F0BDFB642000F046FB2F498DF8DD
S315080120B00C5001AA2846CDE9015502F05BF9012821
S315080120C004D0354840F6F96100F02AFE3349032069
S315080120D005F09EFB02F0ACFE02F0B4FE304B314A2D
S315080120E031499A604FF00130C3E9002040F20110EE
S315080120F098810122E56A2D4B0A702A68D3E90013F3
S31508012100012AC4E930130BD100262422AE6000212E
S3150801211005F10C000BF0FEF94FF07E532B636E634D
S31508012120D4F808522B68012B0BD100262422AE6065
S31508012130002105F10C000BF0EDF94FF07E532B63EE
S315080121406E63D4F894412368012B0BD10025242210
S31508012150A560002104F10C000BF0DCF94FF07E5369
S315080121602363656305B0F0BD0804002040420F00F3
S31508012170B9000108B500010824000020100000205C
S31508012180200000202C00002028000020300000201C
S315080121903400002038000020B8C000086901010891
S315080121A06006002003010101E8020020580600200C
S315080121B0454B1B78012B00D070472DE9F041434A66
S315080121C01378012B96B005D0414803F06FFB16B082
S315080121D0BDE8F0813F4E0024334614705A78E5B2C3
S315080121E003331AB101340A2CF8D125463A4803F0CB
S315080121F049FE4FF080603949394A07904FF48063A8
S315080122004FF4006008914FF4005100270B9409928E
S3150801221001244FF480720D930E904FF480330F9181
S315080122202D48109207A911930A970C971297CDE991
S315080122301477139403F0BCFE2146274803F0E4FE05
S3150801224003F09CFA01A9224801978DF808408DF8F8
S315080122500970CDE9037705978DF8185003F09CFAB4
S31508012260BDB1013DEDB2DFF88080194F023504EBAF
S3150801227044023244032312F8032C02EB420208EB10
S3150801228082013846E2B2897A013403F0C9FAAC42CE
S31508012290EDD1002003F0C2FE012003F0CDFE01209E
S315080122A003F0D8FE0F4A0A48136843F40053136033
S315080122B0012103F00BFB0121054803F0FDFA012179
S315080122C0034803F0A3FA7FE771000020700000209D
S315080122D00022014080060020106402404C22014081
S315080122E0A006002000700040DCC000082DE9F04F70
S315080122F0A34B1B6897B0002B00F0F180A14B01930B
S3150801230003F11E099F4DCDF8009004E0009B0335AB
S315080123109D4200F0B880AB78002BF7D06B78002B84
S31508012320F4D0994B1B78002BF0D0954A95F800808C
S315080123301768013BDBB207F14C064C2212FB036915
S31508012340AA4604E0B145374600F097804C363978FD
S315080123504145F7D1019B002404E001340A2C03F11D
S31508012360030305D05A78012AF7D11A788A42F4D19B
S315080123704C22394603A80AF0B7FFB86C049A7D6C5B
S31508012380C30602F078418B4200F08E804FF0000CB4
S315080123909B4600E08C460CF10101C9B216AB03EB72
S315080123A0810353F8483C03F0784EF345F2D10CF11A
S315080123B0020C0B299E465FFA8CFC5B4669D90E29ED
S315080123C010D80FFA8CF103AA02EB810100E09446BA
S315080123D04A6841F8042BBCF10E0F0CF10102D2B286
S315080123E0F5D9049A694931F814C022F07842CCF338
S315080123F00B0C6FF078419445139160D90024013490
S31508012400E4B216AA02EB8402A64652F8482C22F038
S3150801241078429445F3D80B2C38D8032C0F9A98BFD9
S31508012420079922F07842A5EB020296BF21F078417E
S315080124300CEB02058D18C4F10E0412AAE4B2A2EB44
S31508012440840413AA52F8041D51609442FAD1441C1B
S3150801245016AA102C02EB8E0E28BF002443EA0C03A1
S31508012460384603A94C224EF8483CCDE914540AF0E3
S315080124703BFFB14537467FF469AF5546009B0335A7
S315080124809D427FF448AF17B0BDE8F08F0E2CD2D924
S31508012490DDE7109A032922F0784215441AD92EF05D
S315080124A0784EA5EB0E058CE7109A089922F078422A
S315080124B0154421F078416D1A4FF0010C81E70F9A06
S315080124C0079922F07842AD1A21F0784100240D448B
S315080124D0A646B0E7089921F078416D1A71E72A4EA8
S315080124E0337803EBC30203EB4203980000F04CFA7E
S315080124F0234B80461860234B002837D01A46019390
S315080125001546034602F11E0914AC212703E00335DB
S315080125104D453FF4F7AEAA78002AF8D095F800C0E1
S3150801252004A9002241F8042BA14202F10062F9D163
S315080125304C2203A918468DF80CC014970AF0D4FE4C
S31508012540327802EBC201034602EB41024C3308EB37
S3150801255082029342DBD90122142142F2030002F0DE
S3150801256063FE074B186800F07BFACBE601221421BB
S3150801257042F20200019303F11E0902F055FEC1E67B
S31508012580B40600208006002002000020A0060020D4
S315080125902DE9F043092885B006460D4668D838481E
S315080125A00478F4B9374A384B012702F11401077048
S315080125B022F8024B8A425C709C7003F10303F7D13F
S315080125C001214FF4800003F0C3FD4FF4806001211F
S315080125D003F0E2FD6846CDE90044CDE9024403F083
S315080125E001F9DFF8A48008F11E014746434602E0D7
S315080125F003338B4208D05A78012AF9D11A78B242A4
S31508012600F6D105B0BDE8F083204A06EB46039B00E8
S3150801261002EB0309D058012103F09AFDB9F80830F5
S31508012620009300240323D9F804008DF80430694681
S315080126308DF8074003F01CFD98F8013008F10308EE
S3150801264043B101340A2CF7D10122142142F20100C7
S3150801265002F0EAFD04EB44043B1901223E555A7087
S3150801266005B19A700A4B01221A7005B0BDE8F083CC
S31508012670012214214FF4005002F0D6FD8FE700BF66
S3150801268071000020A006002080060020DCC000089A
S3150801269070000020092838B505460C4622D8214B7A
S315080126A01A78012A01D0002038BD14B31E4B1C68C4
S315080126B08CB31E4B197889B12378AB420ED00139F8
S315080126C0CBB24C2111FB0341234603E01A78AA42F7
S315080126D01C4603D08B4203F14C03F7D1606CC0F35F
S315080126E0CF0038BD012214214FF4005002F09CFDA1
S315080126F0D5E70F4B214604E001310A2903F103030B
S31508012700D1D05A78012AF7D11A78AA42F4D1094BBD
S3150801271033F8110038BD142142F2050002F084FD98
S31508012720204638BD71000020B406002002000020B2
S3150801273080060020A0060020034A044BA2FB0020C5
S3150801274040091860704700BF1F85EB516C000020D7
S3150801275000B583B000F07EFD02AC084E44F8040DC6
S31508012760074D03E02968204600F0ACFEFFF720FD7F
S315080127703378002BF6D0FFF7B9FDF3E70200002006
S315080127806C00002008B5FFF713FD044B1B781BB13D
S31508012790BDE80840FFF7AABD08BD00BF020000203A
S315080127A000B583B000F056FD02AC054D44F8040DA2
S315080127B0FDF77EFC2968204600F084FEF8E700BF95
S315080127C07400002010B584B0002400F03FF802F030
S315080127D009FDFDF75FFCFFF7D5FF052223460092A9
S315080127E0CDE90244019480220849094800F054FBC6
S315080127F0084B039406211A8807480091029401940C
S315080128002346064900F048FB04B010BD54C1000830
S315080128105127010878000020A1270108ACC000084B
S31508012820034A044BA2FB002040091860704700BF09
S315080128301F85EB517400002080087F28024B96BF44
S31508012840802218801A8070477800002000F000B8AE
S31508012850074BC3F1006101F5004103F500605A5CBD
S3150801286003F8012B8342FAD1024B00221A707047F2
S31508012870BC060020B8060020C1F500630133984262
S3150801288018DA0144884215DADFF834C0F0B40B4C83
S315080128909CF800600025FF27225CFF2A00F101034E
S315080128A002D0012527542E4698B28842F4DB15B981
S315080128B0F0BC704770478CF80060F9E7BC06002049
S315080128C0B806002040F2FC73984210B502D90024DC
S315080128D0204610BD044600F09DF9034B1C5900F033
S315080128E09BF9204610BD00BFBC060020F8B540F292
S315080128F0FC73984200D9F8BD0446094E0D4600F00E
S3150801290089F9375900F088F9BD42F4D000F082F907
S31508012910355100F081F9034B01221A70F8BD00BF49
S31508012920BC060020B806002010B4154A00E01A4675
S3150801293013688342FBD351685418A0420AD04168F0
S315080129404418A3420DD0904203605DF8044B18BFAA
S31508012950106070474068014410464418A34251600C
S31508012960F1D1084C2468A342EDD0D3E90034904252
S315080129702144036041605DF8044B18BF106070473D
S31508012980BC8E00207C0000202DE9F041044600F0B1
S3150801299059FC2E480268002A39D02D4B1F683C4243
S315080129A02FD174B304F108014B071CBF21F00701AD
S315080129B0083131B3DFF8A080D8F800608E4220D301
S315080129C0244D2C6803E0226822B125461446636823
S315080129D08B42F8D30268A24213D0226828682A607B
S315080129E05A1A102A00F1080528D8F61A00223B437C
S315080129F0C4E90023C8F8006000F0F0FC2846BDE8E9
S31508012A00F081002500F0EAFC2846BDE8F081124F66
S31508012A10124B396823F0070347F6F0755E19083932
S31508012A20726039605A510A490660C3E90065094D61
S31508012A304FF000472B606A600F60B0E763181846CD
S31508012A405A606160FFF770FF6368CEE77C0000207B
S31508012A5080000020BC8E002084000020C40E0020C7
S31508012A6000283AD038B51D4D50F8043C2A6813425F
S31508012A70044610D050F8081CD9B14FF4867118488D
S31508012A8000F04EF92A6854F8043C134202D054F86F
S31508012A90081C71B138BD40F20B11114800F040F91C
S31508012AA054F8083C002BE8D12A6854F8043C134230
S31508012AB0F0D023EA020344F8043C00F0C3FB094AB8
S31508012AC054F8043C1168A4F108000B441360FFF79D
S31508012AD02BFFBDE8384000F081BC7047800000201C
S31508012AE068C1000884000020014B1868704700BFC0
S31508012AF0840000200C490D484B6830B4C3F5C33235
S31508012B00A032642303FB02F3094D0A4C5B09A5FBBA
S31508012B1003230278C3F3C7139A42237038BF03709D
S31508012B2000234B6030BC7047CC8E0020C58E002038
S31508012B30C55A7C0AC48E002070B50D4606460AF0B1
S31508012B403FFD044628460AF03BFD844201D0002099
S31508012B5070BD6CB132782B789A42F8D1002303E024
S31508012B60F15CEA5C9142F2D10133DBB29C42F7D8BF
S31508012B70012070BD00B51D4D1D481E4B83B00024B4
S31508012B800093012204602C706C602C72234642F279
S31508012B9010711948194D00F0DBFE2860F0B10446A2
S31508012BA0174A184B002515701D7000F053FB009548
S31508012BB002462B462046294600F0F0FE012805D09C
S31508012BC0012214214FF4805002F02EFB0E4B0022F5
S31508012BD01A60FFF7F7FD00F0FDFAFEE7012214215E
S31508012BE04FF4805002F020FB2C68D9E7CC8E0020E8
S31508012BF0D88E0020F52A01088CC10008C88E00204D
S31508012C00C48E0020C58E002088000020704700BFB2
S31508012C10704700BF02F09CBC02F0C0BC03F068BC60
S31508012C20014B1878704700BFC48E0020FFF75CBFC0
S31508012C3070B5054602F08CFC114B1C688CB1064632
S31508012C402946A068FFF778FF012805D10DE0A0689D
S31508012C50FFF772FF012808D024692946002CF6D10E
S31508012C60304602F09BFC204670BD6468304602F08F
S31508012C7095FC2046002CF7D000F070FD800070BD51
S31508012C80D88E00202DE9F041804614200F461446BF
S31508012C90FFF77AFE054628B30023C5E90343C5E9CC
S31508012CA0018702F055FC134E074602F051FC3468C1
S31508012CB002460CB90DE01C462369002BFBD11046D0
S31508012CC002F06CFC256138462C60BDE8F04102F043
S31508012CD065BC02F063FC2C6035603846BDE8F041FE
S31508012CE002F05CBC012214214FF4805002F09CFAD8
S31508012CF0D2E700BFD88E0020074A138801339BB25A
S31508012D00092B138005D905490B68002001330B608F
S31508012D10108003F00FBB00BF8C0000208800002044
S31508012D20012214214FF4805002F07EBA054B1A781D
S31508012D30012A00D070471A7A002AFBD15A68013253
S31508012D405A607047CC8E002008B502F001FC044B8E
S31508012D500121002219701A72BDE8084002F01EBC52
S31508012D60CC8E0020014B00221A707047CC8E0020B1
S31508012D7008B5034C2368012BFDD902F0DDFBF9E701
S31508012D80E48E00200D4B0E4A19681268486082428B
S31508012D900DD80C4A10B5044610681968043104F0B8
S31508012DA0CDFF094B1A68A24288BF1C6010BD074AAD
S31508012DB010681968043104F0C1BF00BF90000020F3
S31508012DC0B8000020DC8E0020AC000020E08E002038
S31508012DD02B4B2DE9F0410022DFF8B880294E1A6005
S31508012DE0D8F8002033689A4247D0D8F80020D8F896
S31508012DF0003012681B6B9A4233D9234C234D236842
S31508012E0003EB830355F823309BB9214F08E0236868
S31508012E10013B2360236803EB830355F8233043B949
S31508012E202368002BF3D140F252713846FFF778FF39
S31508012E30EDE7236803EB83039B00E91808334A6827
S31508012E4052684A601D44AA4204BF52684A60D36860
S31508012E50C8F80030D8F8002033689A4209D0BDE88E
S31508012E60F081D8F80000D8F80010343104F0D2FE09
S31508012E70C3E7BDE8F041FFF767BFFFF773FFB4E7A4
S31508012E80BC000020A8000020A4000020E48E002039
S31508012E90A0C10008900000202DE9F84FDDF830B0F8
S31508012EA08A4691469846DDE90A570646002800F003
S31508012EB0A7800D2D00F287804820FFF765FD04469F
S31508012EC0002800F08C804FEA8909BBF1000F00F059
S31508012ED09D80C0F830B04A46A52158460AF01AFB2B
S31508012EE0236BA9F10409994429F007090AF1FF336B
S31508012EF00AF10F0104F1330201E08B4207D013F9FD
S31508012F00010F02F8010F93F900000028F5D10D2DE4
S31508012F104FF00003AB4604F1040A28BF4FF00D0B2E
S31508012F2084F843305046C4F82CB0C4F844B004F0D1
S31508012F30F1FE04F1180004F0EDFECBF10E03A361D6
S31508012F402461646242463146484602F0D1FA20605D
S31508012F5007B13C6002F014FB444A454E136801333D
S31508012F6013603368002B3ED0424F3B681BB3DFF832
S31508012F7024814148E26A03680133036004F134019C
S31508012F802046FFF77FFE3D4BE06A1A68904288BFEC
S31508012F90186000EB800008EB8000514604F0BEFE85
S31508012FA002F000FB3B681BB13368DB6AAB4222D3F4
S31508012FB00120BDE8F88F3368DFF8D880DB6AAB42B9
S31508012FC098BF3460D5E740F2ED112D48FFF7A8FE0A
S31508012FD04820FFF7D9FC044600287FF474AF4FF068
S31508012FE0FF30BDE8F88F34601368DFF8A880012B3D
S31508012FF01AD0204FBDE702F09FFA0120BDE8F88FED
S315080130004FF4F6711E48FFF78BFE52E74846FFF765
S31508013010BBFC8346206300287FF45DAF2046FFF79B
S315080130201FFD4FF0FF30C4E7474608F58C7938464F
S31508013030143704F063FE4F45F9D1DFF85CB0DFF8C9
S315080130405C900C4F584604F059FE484604F056FE6B
S315080130500C4804F053FE0C4804F050FE0B4A0C4B86
S31508013060C2F800B0C3F8009083E700BF94000020BF
S3150801307090000020B4000020A0000020A400002039
S31508013080A0C100082490002038900020DC8E002082
S31508013090E08E0020E48E0020FC8F00201090002096
S315080130A0F8B50446194E02F06BFA1CB3251D2846DD
S315080130B004F05EFEA36A1BB104F1180004F058FE81
S315080130C0134F2946384604F029FE02F06BFA336895
S315080130D0A34200D0F8BD0F4B1B687BB90E4A39686D
S315080130E01268914208D00D4B1B685BB10C4B01224B
S315080130F01A60F8BD3468D9E73360F8BDBDE8F84011
S3150801310002F01ABABDE8F840FFF762BE9000002047
S3150801311038900020B4000020940000209C00002074
S31508013120BC00002010B5044668B10A4B62699A4290
S3150801313001D0002010BDA06A074B9842F9D0B0FA19
S3150801314080F0400910BD40F259410448FFF7E8FDF7
S31508013150EBE700BF3890002024900020A0C10008AA
S3150801316088B170B5174D2B6883420BD0044602F01F
S3150801317007FA2046FFF7D6FF012809D0BDE87040B7
S3150801318002F010BA70BD40F27A410F48FFF7C8BD88
S31508013190261D304604F0ECFD0C4AE36A11680C481A
S315080131A08B4288BF136003EB830300EB8300314630
S315080131B004F0B4FD2B68E26ADB6A9A42DED302F0B8
S315080131C0BBF9DBE790000020A0C10008A40000209D
S315080131D0E48E002030B585B00024144A0192CDE969
S315080131E0024400942346802211491248FFF754FEEF
S315080131F001280BD005460DB105B030BD0E4840F289
S315080132001F5105B0BDE83040FFF78ABD00F07CFBD1
S3150801321001280546EFD102F09BF9084A084B1560CB
S315080132201C6005B0BDE8304002F024BAA8000020B1
S3150801323098C10008712D0108A0C10008B40000203A
S31508013240B8000020024A136801331360704700BFB3
S315080132509C00002010B502F093F9034B1C6802F09C
S31508013260A1F9204610BD00BFB80000202DE9F04F96
S315080132704E4B1B6883B0002B7BD14D4B1A6801322C
S315080132801A601F680FB34B4B0193019B1B68BB4226
S3150801329037D9DFF83C81DFF83C910025D9F80030B1
S315080132A0454ADB6A126803EB830358F82330022B7D
S315080132B028BF0125002A64D0404B1B68002B0CBF90
S315080132C02846012003B0BDE8F08F3D4E33681B68E0
S315080132D0002B64D13B4B31683B4A18683060196052
S315080132E013680133136033681B68002B4CD1314BCB
S315080132F001931A464FF0FF331360019B1B68BB42CB
S31508013300C7D82F4EDFF8C880DFF8C890DFF8C8A005
S31508013310002525E03368DB68DC68636804F1040B83
S315080133209F42584638D304F023FDA36A04F11800D6
S315080133300BB104F01DFDE36ADAF8002003EB830004
S315080133409342594608EB800088BFCAF8003004F05A
S31508013350E5FCD9F80030E26ADB6A9A4228BF012502
S3150801336033681B68002BD5D1019A4FF0FF331360E0
S3150801337094E7114A1368013313600025FFF7BCFC73
S315080133809AE7FFF7B9FC97E733680A4ADB680192BF
S31508013390DB685B68136078E7019A13607EE740F2A1
S315080133A05B610A48FFF7BCFC94E700BF9C0000205C
S315080133B0B8000020AC00002098000020BC000020C6
S315080133C0DC8E0020E08E0020B0000020A0C100089D
S315080133D0E48E002090000020A40000202DE9F0478B
S315080133E02F4C2368002B51D002F0CAF82368013B01
S315080133F023602368002B43D12A4B1B68002B3FD03F
S31508013400DFF8B4A0284E294FDFF8B090DFF8B08076
S315080134101EE0F368DC68251D04F1180004F0A8FC19
S31508013420284604F0A5FCE36A3A6803EB8300934255
S31508013430294609EB800088BF3B6004F06FFCD8F889
S315080134400030E26ADB6A9A4224BF0123CAF80030D7
S315080134503368002BDDD1164C23686BB123685BB149
S315080134600125FFF703FF08B1CAF800502368013B9D
S3150801347023602368002BF4D1DAF80040012C0BD025
S31508013480002402F08FF82046BDE8F08740F25A5131
S315080134900848FFF745FCA7E702F04EF8F1E700BF39
S315080134A09C0000209400002024900020A400002005
S315080134B098000020A0C10008BC000020E48E00206E
S315080134C09000002038B50C460546002836D03CB396
S315080134D01F4920480A682B6801320A6001681C19CD
S315080134E02CBF012000208B4222460DD860B32C60E8
S315080134F0194B1868043004F03BFC2046FFF742FCE0
S31508013500FFF76CFF40B138BDB0B1A1422C60EFD3D3
S31508013510FFF764FF0028F6D1BDE8384002F00CB881
S3150801352040F2BF210D48FFF7FBFB094909480B6823
S315080135302A6801330B6003682A60E1E740F2BE217D
S315080135400648FFF7EDFBC2E7A142D0D3F4E700BF77
S315080135509C000020B800002090000020A0C10008AF
S31508013560044B1B680BB9FFF733BC034B01221A60E6
S31508013570704700BF9C000020BC00002070B50E46B5
S315080135800546C8B10F4C21682846183104F0D6FB08
S315080135902068043004F0ECFB731C06D00A4B18684B
S315080135A03044BDE87040FFF7EDBB21680748043198
S315080135B0BDE8704004F0B2BB40F265710448FFF7FC
S315080135C0AFFBDFE790000020B8000020389000200C
S315080135D0A0C1000870B50E46054680B10B4C21689E
S315080135E02846183104F09AFB2068043004F0C0FB21
S315080135F0074B18683044BDE87040FFF7C3BB40F27B
S315080136009B710448FFF78CFBE8E700BF9000002098
S31508013610B8000020A0C1000838B5C368DC684CB3FF
S3150801362004F11805284604F0A3FB154B1B68E3B9FA
S31508013630251D284604F09CFB124AE36A11681248C4
S315080136408B4288BF136003EB8303294600EB830093
S3150801365004F064FB0D4BE26A1B68DB6A9A4223BFDE
S315080136600B4B01201860002038BD2946094804F093
S3150801367055FBEFE740F2D1710748FFF751FBCFE75A
S315080136809C000020A4000020E48E00209000002069
S31508013690BC00002024900020A0C1000810B50446F3
S315080136A030B1064A064B12681B68C4E9002310BDEF
S315080136B040F2F7710348FFF733FBF2E7B000002049
S315080136C0B8000020A0C10008F8B50D46044658B355
S315080136D08DB301F055FF2B681A4A581C11681ED084
S315080136E0DFF868C0D4E90060DCF80070BE4201D09A
S315080136F081420FD20F1ABB420CD95B1ADCF80010B3
S31508013700126803442B600025C4E9001201F04AFF40
S315080137102846F8BD012501F045FF2846F8BD0025D4
S3150801372001F040FF2846F8BD40F601010648FFF7BB
S31508013730F7FA002DCDD140F602010348FFF7F0FA5A
S31508013740C7E700BFB8000020A0C10008B0000020EC
S31508013750014B01221A607047BC00002068B1036B57
S315080137601A78A52A4FF000000FD113F8012F01305E
S31508013770A52A80B2F9D080087047044B1868036BF4
S315080137801A78A52A4FF00000EFD070479000002064
S31508013790014B1868704700BF90000020044B186859
S315080137A028B1044B1B68002B0CBF0120022070476F
S315080137B0B40000209C000020B8B1F8B5164DC36AC4
S315080137C02A68D26A93420FD22A68144ED26A41698C
S315080137D003EB830306EB8303C2F10E02994282616E
S315080137E004D02B68DB6AC362F8BD7047071D04461F
S315080137F0384604F0BDFA2A68094BD06A1A68E062AD
S31508013800904200D9186000EB800006EB800039462B
S31508013810BDE8F84004F082BA90000020E48E00204A
S31508013820A4000020F0B138B5C26A436C9A4218D098
S31508013830051D0446284604F09BFA0B4A636C116879
S31508013840E362C3F10E008B42A061084888BF13608A
S3150801385003EB8303294600EB8300BDE8384004F0F7
S315080138605DBA38BD704700BFA4000020E48E002071
S31508013870F8B50F4C01F084FE25681DB1BDE8F84086
S3150801388001F090BE0B4F0C4E384604F037FA30461D
S3150801389004F034FA094A0A4B17600C212A46062015
S315080138A01E6004F041FB2060BDE8F84001F07ABED5
S315080138B0C400002054900020689000204C900020FD
S315080138C050900020914208B50061416005D8816990
S315080138D0D21A8A420CD3012008BD9A4201D29942D2
S315080138E0F9D2074B011D186804F028FA002008BD13
S315080138F0044B011D186804F021FA002008BD00BF19
S315080139004C9000205090002000B585B0FFF7B0FF1D
S315080139100B4B1B685BB100230222CDE90023CDE9DD
S315080139200233802207490848FFF7B6FA20B9074843
S31508013930E021FFF7F5F9002005B05DF804FB00BFAB
S31508013940C4000020E8C10008793A0108C4C100088A
S315080139502DE9F0410D46B1B18046282017461E468D
S31508013960FFF712F8044658B1FFF782FF069BC4F821
S315080139700080C4E9065726626362201D04F0CAF96D
S315080139802046BDE8F0814FF4847103482C46FFF7C1
S31508013990C7F92046BDE8F081C4C1000870B5134EC9
S315080139A0346884B064B11D46CDE90112039053B160
S315080139B01A462046002301A904F076FB04B070BD1F
S315080139C0204604B070BDFFF7E9FE012807D030682C
S315080139D02B462A4601A904F0CDFA04B070BD2B4640
S315080139E03068089A01A904F0C5FAE7E7C40000207F
S315080139F02DE9F0471D4DDFF87C8082B04FF0000AB3
S31508013A000DE0DB68DC681F6804F10409484604F028
S31508013A10AFF9636A20469847E369012B0AD02B68F8
S31508013A201A68002AEDD1124A11682960136002B09A
S31508013A30BDE8F087A6693E440023B74219463A46CF
S31508013A40204606D2666024612868494604F076F95C
S31508013A50E5E7CDF800A0FFF7A1FF0028DFD140F286
S31508013A6082214046FFF75CF9D9E700BF4C90002058
S31508013A7050900020C4C100082DE9F04FDFF874A169
S31508013A805B4FDFF87481DFF8749187B04FF0000B54
S31508013A90DAF800301D68002D6DD0DB681D68FFF768
S31508013AA0D1FBFFF7D7FB3B68834204466BD88542B7
S31508013AB0386073D9291BD8F8000004F065FCFFF7B4
S31508013AC08DFC002867D000231A4603A9D8F8000000
S31508013AD004F054FB0028DBD0059C636913B1201D53
S31508013AE004F046F9FFF7B6FB3B689842054627D32B
S31508013AF0039E3D60022E29D0032E31D0002EE2D13D
S31508013B00049BA1692A4619442046FFF7DBFE0128D2
S31508013B10D9D1636A20469847E369012BD3D1A369B2
S31508013B20049A00961A44204633463146FFF736FF73
S31508013B300028C8D140F22F214846FFF7F1F8C2E71D
S31508013B40FFF756FF039E3D60022ED5D10499A16168
S31508013B5051B1294420462B462A46FFF7B3FEB2E760
S31508013B602046FEF77DFFAEE74FF40F714846FFF793
S31508013B70D7F8A169EDE7FFF765FBFFF76BFB3B6834
S31508013B809842044605D2FFF733FF3C60FFF726FC4F
S31508013B9099E73C608EE701F0CFFC94E7FFF71EFC3E
S31508013BA0DAF80030DB68DE68301D04F0E1F8F36905
S31508013BB0012B03D0736A3046984784E7B1692246D8
S31508013BC029442B463046FFF77DFE0128F2D1002312
S31508013BD0CDF800B02A4619463046FFF7DFFE002821
S31508013BE0E8D14FF4AD714846FFF79AF8E2E700BF0E
S31508013BF0C00000204C900020C4000020C4C1000869
S31508013C002DE9F043404E414D414FDFF80891DFF869
S31508013C10088189B000234FF0FF3201A9306804F00A
S31508013C20ADFA012805D00122142142F2081001F04B
S31508013C30FBFA9DF80440012C05D90122142142F210
S31508013C400C1001F0F1FA2B5D012BE3D19DF805303B
S31508013C50032B51D8DFE803F03F2413029DF8043003
S31508013C6057F833201AB1012090479DF8043007EB25
S31508013C70C3035B68002BCDD001209847CAE79DF89E
S31508013C80043057F833201AB1002090479DF80430C4
S31508013C9007EBC3035B68002BBCD000209847B9E744
S31508013CA09DF8043058F8334044B1079B9DF810102D
S31508013CB003980DF11102A0479DF8043008EBC303E0
S31508013CC05C68002CA6D0079B9DF8101003980DF18F
S31508013CD01102A0479EE79DF8043059F833201AB11E
S31508013CE0039890479DF8043009EBC3035B68002BE2
S31508013CF090D0039898478DE70122142142F20910C2
S31508013D0001F092FA86E700BFB0900020AC9000203F
S31508013D107C9000209C9000208C9000202DE9F04793
S31508013D20414C424D424FDFF80C818CB000260023EE
S31508013D304FF0FF3206A9206804F020FA012805D0C1
S31508013D400122142142F2071001F06EFA9DF818308B
S31508013D50012B41D89DF82020082A43D8EB5C002B7B
S31508013D6040D0DDF81C908DF80E2019F0804348D11B
S31508013D708DF80D3072B10DF12203013A53FA82F230
S31508013D800DF10F010DF1210313F8010B01F8010BD8
S31508013D909A42F9D14B46002B3ADBCDE901368DF82B
S31508013DA00C60CDF81C90FEF735FF9DF8183003EB33
S31508013DB08303824601A957F8330001F0A9FE0428B6
S31508013DC02ED09DF8183003EB43030344504648F8B8
S31508013DD02390FEF721FFAAE70122142142F20C10D3
S31508013DE001F022FA0123002206A9206804F0C2F88C
S31508013DF000289CD10122142142F2041001F014FA80
S31508013E0095E702238DF80D3029F08043002BC4DA9B
S31508013E1023F000430422CDE901638DF80C20C0E7A5
S31508013E205046FEF7F9FEDDE7C4900020AC9000206D
S31508013E303CC20008D0900020F0B500EB8002174B79
S31508013E4053F8325089B00446002628464FF480615B
S31508013E50009601F061FF012802D0009809B0F0BD73
S31508013E600F4A8DF804400746032410688DF805406B
S31508013E7033466A4601A904F017F938B128464FF4C2
S31508013E80806101F0B9FF009809B0F0BD3A461421E6
S31508013E9042F2061001F0C8F9F0E700BF3CC200087B
S31508013EA0B09000202DE9F04300EB8002534B8FB010
S31508013EB053F832608DF81C0005460024304602216D
S31508013EC0CDE9004401F028FF01280AD0082130462F
S31508013ED001F022FF012805466BD000980FB0BDE816
S31508013EE0F0830346214630468DF81D3001F0B4FEB5
S31508013EF00446002848D0DFF81091DFF810816427BE
S31508013F000CE0029A09929DF811204AB3099B43F0E5
S31508013F1080430993013C14F0FF0435D002AA00211D
S31508013F20304601F049FEFFF795F959F825309DF815
S31508013F3010208DF8205007FB00F0A8FB0010C3EBFA
S31508013F4090109DF812300D908DF82830002AD8D09F
S31508013F50039A42F0004209929DF81120002AD5D110
S31508013F60002BD7D0013B05AA52FA83F20DF129019C
S31508013F700DF1130313F8010B01F8010B9342F9D163
S31508013F80013C14F0FF04C9D11D4A0023106807A992
S31508013F9001AA04F089F818B3019B3046012B4FF0AA
S31508013FA0020108BF009301F027FF00980FB0BDE892
S31508013FB0F083134A2346106802246A4607A98DF836
S31508013FC01D4004F071F890B130460E4901F08CFE9F
S31508013FD03046082101F010FF00980FB0BDE8F083C4
S31508013FE00122142142F2061001F01EF9D4E72A46ED
